:020000040000FA
:0600000000F03BEF00F0F0
:10000800FFFF7F829DAA0BEF00F00EEF00F0FFFFCD
:100018001EEF00F0FFFF9EAA14EF00F017EF00F0AC
:10002800FFFF1EEF00F0FFFF9E9A010E0001A76F71
:10003800010EA56FFFFFF2AA24EF00F027EF00F0F2
:10004800FFFF37EF00F0FFFFF2A42DEF00F030EFD5
:1000580000F0FFFF37EF00F0FFFF000ED56EF294BF
:10006800010E0001A46FFFFF7F921100FFFF83EFD5
:1000780015F0FFFF03EC16F0A6EC15F038EC12F0C3
:100088007CEC16F0D4EC16F0B40E016E000E026E85
:10009800000E046E000E036E000E066E000E056E56
:1000A800000E086E010E076EF70E096E000E0A6E3E
:1000B8008A0E0B6E0F0E0C6E5DEC13F0A80E016E1F
:1000C800000E026E000E046E000E036E000E066E29
:1000D800000E056E000E086E010E076EF30E096E17
:1000E800000E0A6E8A0E0B6E0F0E0C6E5DEC13F08E
:1000F800000E016E010E026E000E046E000E036EFD
:10010800000E066E000E056E000E086E010E076EDC
:10011800F70E096E000E0A6E8B0E0B6E0F0E0C6E2C
:100128005DEC13F0F6EC13F00C0E43EC16F0010E38
:1001380043EC16F0800E43EC16F0E90E076E7F0EC6
:10014800086EDFEC14F0F28E000E00019D6F000EB9
:100158009C6FFFFFA751D8B4B4EF00F0B7EF00F0E1
:10016800FFFFE7EF00F0FFFFA551D8B4BEEF00F0A6
:10017800C1EF00F0FFFFD2EF00F0FFFFC6EC16F072
:100188000001E46FC00E036E000E046EE45102EC31
:100198000FF0000E0001A56FDBEF00F0FFFFC00EAF
:1001A800016E000E026EB1EC13F08DEC16F0FFFF3D
:1001B800C0C00CF0C1C00DF0FFEC12F0000E000141
:1001C800A76F000EA66FFFFF000E896F000E886FE5
:1001D800020EC019C111D8A4F4EF00F0F7EF00F037
:1001E800FFFFFBEF00F0FFFF8982ADEF00F0FFFF9C
:1001F8008992C051C111D8A404EF01F007EF01F0B2
:10020800FFFF50EF01F0FFFF9DEC16F0A9EC14F092
:100218006FC0E0F070C0E1F00001000EE1BFFF0E1A
:10022800E26FE36FE0C00DF0E1C00EF0E2C00FF046
:10023800E3C010F0010E06EC0EF00DC071F00EC018
:1002480072F00FC073F010C074F0CD0E756ECC0E46
:10025800766ECC0E776E3D0E786E54EC10F0D8B0FA
:1002680038EF01F03BEF01F0FFFFADEF04F0FFFFC7
:10027800000E0001C16F0E0EC06F010EA76F000EB9
:10028800896F010E886F000EEE6F000EED6FADEFF7
:1002980004F0FFFFADEF04F0FFFFC005C111D8A4C3
:1002A80058EF01F05BEF01F0FFFF66EF01F0FFFF91
:1002B800FFFF000E0001C16F020EC06F010EA76F95
:1002C800ADEF04F0FFFF030EC019C111D8A46FEF02
:1002D80001F072EF01F0FFFF7BEF01F0FFFF000E6E
:1002E800C16F040EC06F010EA76FADEF04F0FFFFE2
:1002F800040EC019C111D8A484EF01F087EF01F0F2
:10030800FFFFC9EF01F0FFFFA451D8B48EEF01F051
:1003180091EF01F0FFFFB0EF01F0FFFF71EC14F077
:100328006FC07DF070C07EF0CDEC11F07D507E1076
:10033800D8B4A1EF01F0A4EF01F0FFFF4DEF01F0F9
:10034800FFFF000E0001C16F020EC06F010EA76F04
:10035800000EA46FADEF04F0FFFFD5BEB6EF01F0BD
:10036800B9EF01F0FFFFC0EF01F0FFFFACEC16F0B2
:1003780058EC16F06BEC16F0FFFF71EC14F06FC040
:10038800DEF070C0DFF0ADEF04F0FFFF050EC0191E
:10039800C111D8A4D2EF01F0D5EF01F0FFFFDEEFD5
:1003A80001F0FFFF000EC16F060EC06F010EA76FB0
:1003B800ADEF04F0FFFF060EC019C111D8A4E7EF96
:1003C80001F0EAEF01F0FFFF55EF02F0FFFF030E27
:1003D8000001DC6FEB0EFFFFE82EFDD7DC2FFBD70B
:1003E80000D000F0000194519511D8A4FEEF01F05F
:1003F80001EF02F0FFFF10EF02F0FFFFB40E096EED
:10040800000E0A6E000E0C6E320E0B6E35EC14F0F8
:1004180009C094F00AC095F0FFFF000194519511AE
:10042800D8B419EF02F01CEF02F0FFFF36EF02F02C
:10043800FFFF92519311D8A424EF02F027EF02F0A6
:10044800FFFF36EF02F0FFFFA80E096E000E0A6EDE
:10045800000E0C6E640E0B6E35EC14F009C092F0B1
:100468000AC093F0FFFF94C001F095C002F092C05B
:1004780003F093C004F02EEC16F001500210D8B42B
:1004880048EF02F04BEF02F0FFFFADEF04F0FFFF83
:10049800000E0001C16F070EC06F010EA76FADEF10
:1004A80004F0FFFF070EC019C111D8A45EEF02F0D7
:1004B80061EF02F0FFFFD5EF02F0FFFF030E00012E
:1004C800DC6FEB0EFFFFE82EFDD7DC2FFBD700D04B
:1004D80000F0B40E096E000E0A6E000E0C6E640E6B
:1004E8000B6E35EC14F009500A10D8B47EEF02F008
:1004F80081EF02F0FFFF8BEF02F0FFFFB40E016EF9
:10050800000E026EE8EC15F000019C4B9D2BFFFFDE
:10051800140E00019C199D11D8A495EF02F098EFD4
:1005280002F0FFFFACEF02F0FFFF9A519B11D8A435
:10053800A0EF02F0A3EF02F0FFFFACEF02F0FFFF25
:10054800000EC16F080EC06F010EA76FADEF04F06B
:10055800FFFF280E9C199D11D8A4B5EF02F0B8EF43
:1005680002F0FFFF4DEF01F0FFFF000E9B6F000E42
:100578009A6F000EC16F090EC06F010EA76F000EB3
:100588009D6F000E9C6FB40E016E000E026EE8ECBB
:1005980015F0A80E016E000E026EE8EC15F0ADEF36
:1005A80004F0FFFF080EC019C111D8A4DEEF02F055
:1005B800E1EF02F0FFFF83EF03F0FFFF030E0001FE
:1005C800DC6FEB0EFFFFE82EFDD7DC2FFBD700D04A
:1005D80000F0000190519111D8A4F5EF02F0F8EF66
:1005E80002F0FFFF09EF03F0FFFF000E096E010E96
:1005F8000A6E000E0C6EC80E0B6E35EC14F009C0B6
:1006080090F00AC091F0ADEF04F0FFFF9A519B11F2
:10061800D8A411EF03F014EF03F0FFFF3BEF03F052
:10062800FFFF90519111D8B41CEF03F01FEF03F0B6
:10063800FFFF3BEF03F0FFFF040E0001DD6FCF0E5D
:10064800DC6FA50EFFFFE82EFDD7DC2FFBD7DD2FD3
:10065800F9D700F0000E00019B6F010E9A6F000E93
:10066800016E010E026EE8EC15F0ADEF04F0FFFF2D
:100678009A519B11D8B443EF03F046EF03F0FFFF04
:1006880062EF03F0FFFF8A518B11D8A44EEF03F0FD
:1006980051EF03F0FFFF62EF03F0FFFF000E096E5A
:1006A800010E0A6E000E0C6EC80E0B6E35EC14F0BF
:1006B80009C08AF00AC08BF0ADEF04F0FFFF9A5131
:1006C8009B11D8B46AEF03F06DEF03F0FFFF4DEF15
:1006D80001F0FFFF8A518B11D8B475EF03F078EF62
:1006E80003F0FFFF4DEF01F0FFFF000EC16F070E93
:1006F800C06F000E916F000E906FADEF04F0FFFF1A
:10070800090EC019C111D8A48CEF03F08FEF03F0C4
:10071800FFFFF3EF03F0FFFF030E0001DC6FEB0EAA
:10072800FFFFE82EFDD7DC2FFBD700D000F000013B
:100738008C518D11D8A4A3EF03F0A6EF03F0FFFFAF
:10074800B5EF03F0FFFFA80E096E000E0A6E000E4B
:100758000C6E640E0B6E35EC14F009C08CF00AC0F8
:100768008DF0FFFF00018C518D11D8B4BEEF03F05E
:10077800C1EF03F0FFFFDBEF03F0FFFF8E518F1196
:10078800D8A4C9EF03F0CCEF03F0FFFFDBEF03F0D1
:10079800FFFFB40E096E000E0A6E000E0C6E320ECC
:1007A8000B6E35EC14F009C08EF00AC08FF0FFFF15
:1007B8008CC001F08DC002F08EC003F08FC004F031
:1007C8002EEC16F001500210D8B4EDEF03F0F0EF64
:1007D80003F0FFFFADEF04F0FFFF5CEF01F0FFFF58
:1007E8000A0EC019C111D8A4FCEF03F0FFEF03F003
:1007F800FFFF08EF04F0FFFF000EC16F0B0EC06F84
:10080800010EA76FADEF04F0FFFF0B0EC019C11169
:10081800D8A411EF04F014EF04F0FFFF39EF04F04F
:10082800FFFFA451D8B41BEF04F01EEF04F0FFFF44
:100838002BEF04F0FFFF010EA76F000EC16F0D0E26
:10084800C06F000E996F000E986FADEF04F0FFFFB8
:10085800D5BE31EF04F034EF04F0FFFF4DEF01F0A7
:10086800FFFF6BEC16F0ADEF04F0FFFF0C0EC019A4
:10087800C111D8A442EF04F045EF04F0FFFF4FEF99
:1008880004F0FFFF000EC16F000EC06F010EA76FCE
:10089800D59EADEF04F0FFFF0D0EC019C111D8A40D
:1008A80058EF04F05BEF04F0FFFFADEF04F0FFFF3B
:1008B800898296519711D8B464EF04F067EF04F079
:1008C800FFFF87EF04F0FFFF99BF77EF04F099511E
:1008D80007E1640E985DD8B074EF04F077EF04F088
:1008E800FFFF87EF04F0FFFF0A0E0001DC6FBE0E6A
:1008F800FFFFE82EFDD7DC2FFBD700F00001984B57
:10090800992BADEF04F0FFFF96519711D8B48FEFF4
:1009180004F092EF04F0FFFF4DEF01F0FFFF99BFE5
:100928009FEF04F099510AE1640E985DD8A09FEFFB
:1009380004F0A2EF04F0FFFF4DEF01F0FFFF000EFF
:10094800976F000E966F000EC16F000EC06F010EFC
:10095800A76FFFFF0E0E0001C019C111D8A4B7EF91
:1009680004F0BAEF04F0FFFFADEF00F0FFFF88518D
:100978008911D8A4C2EF04F0C5EF04F0FFFFCCEF53
:1009880004F0FFFFEDC0C0F0EEC0C1F0ADEF00F025
:10099800FFFFADEF00F03BEF00F0FFFF5050800B82
:1009A800596E505050245B6E4FAEDDEF04F0E0EF0F
:1009B80004F0FFFFE2EF04F0FFFF5B80FFFF5B50F6
:1009C800D8B4E9EF04F0ECEF04F0FFFF05EF05F011
:1009D800FFFF5B28D8A4F3EF04F0F6EF04F0FFFF65
:1009E800FFEF04F0FFFF000E4D6E000E4E6E000E7E
:1009F8004F6E000E506EFFFF4F8E000E506E0EEFC2
:100A080005F0FFFF000E4D6E000E4E6E000E4F6E8D
:100A1800000E506EFFFF5450800B5A6E59505A18F2
:100A2800D8B419EF05F01CEF05F0FFFF1EEF05F035
:100A3800FFFF598CFFFF545054245A6E53AE27EFD2
:100A480005F02AEF05F0FFFF2CEF05F0FFFF5A80B5
:100A5800FFFF5A50D8B433EF05F036EF05F0FFFF2B
:100A68004FEF05F0FFFF5A28D8A43DEF05F040EFFF
:100A780005F0FFFF49EF05F0FFFF000E516E000E75
:100A8800526E000E536E000E546EFFFF538E000E12
:100A9800546E58EF05F0FFFF000E516E000E526EB7
:100AA800000E536E000E546EFFFF5B505A5CD8B0B8
:100AB80060EF05F063EF05F0FFFF8EEF05F0FFFF35
:100AC80059AC69EF05F06CEF05F0FFFF6FEF05F02B
:100AD800FFFF800E591AFFFF5BC05CF05AC05BF045
:100AE8005CC05AF04DC05CF051C04DF05CC051F094
:100AF8004EC05CF052C04EF05CC052F04FC05CF08B
:100B080053C04FF05CC053F050C05CF054C050F07C
:100B18005CC054F0FFFF000E5C6E5B505AC055F08D
:100B2800566A555E000E565A56BEA4EF05F056504A
:100B38000AE11A0E555CD8A0A4EF05F0A7EF05F05E
:100B4800FFFFEAEF05F0FFFF4D504E104F10501019
:100B5800D8A4B1EF05F0B5EF05F0FFFF010EB7EF30
:100B680005F0FFFF000EFFFF5C6E000E4D6E000EDD
:100B78004E6E000E4F6E000E506E5AC05BF0F5EFD1
:100B880005F0FFFF5CA0CBEF05F0CEEF05F0FFFF0F
:100B9800D5EF05F0FFFFD8905C3001095C6ED8EF07
:100BA80005F0FFFFD8905C32FFFF4DA0DEEF05F0A7
:100BB800E1EF05F0FFFFE3EF05F0FFFF5C8EFFFFBD
:100BC800503450324F324E324D325B2AFFFF5A506A
:100BD8005B5CD8A0F2EF05F0F5EF05F0FFFFC5EF7D
:100BE80005F0FFFF59BCFBEF05F0FEEF05F0FFFF36
:100BF8004BEF06F0FFFF5B50D8A405EF06F008EFB7
:100C080006F0FFFF13EF06F0FFFF000E4D6E000E1B
:100C18004E6E000E4F6E000E506EA2EF07F0FFFFF3
:100C280051504D2652504E2253504F22545050226C
:100C380050A021EF06F024EF06F0FFFFEFEF06F0DB
:100C4800FFFF5CA02AEF06F02DEF06F0FFFF34EF60
:100C580006F0FFFFD8905C3001095C6E37EF06F0B4
:100C6800FFFFD8905C32FFFF4DA03DEF06F040EF4C
:100C780006F0FFFF42EF06F0FFFF5C8EFFFF5034E7
:100C880050324F324E324D325B2AEFEF06F0FFFF03
:100C980051504D5C52504E5853504F585050800A46
:100CA800556E5450800A5558D8B05DEF06F060EF85
:100CB80006F0FFFF8EEF06F0FFFF4D50515C556EBA
:100CC8004E505258566E4F505358576E50505458B5
:100CD800586EFF0E55244D6EFF0E56204E6EFF0EB9
:100CE80057204F6EFF0E5820506E800E591A5C6CBC
:100CF8005C50D8A482EF06F085EF06F0FFFF97EF6F
:100D080006F0FFFF010E4D26000E4E224F22502204
:100D180097EF06F0FFFF51504D5E52504E5A535018
:100D28004F5A5450505AFFFF4D504E104F1050100C
:100D3800D8A4A1EF06F0A4EF06F0FFFFE6EF06F057
:100D4800FFFF5C50D8A4ABEF06F0AEEF06F0FFFF54
:100D5800E6EF06F0FFFF000E4D6E000E4E6E000E21
:100D68004F6E000E506EA2EF07F0FFFFD8904D3681
:100D78004E364F3650365CAEC4EF06F0C7EF06F07D
:100D8800FFFFC9EF06F0FFFF4D80FFFF5CA0CFEF2C
:100D980006F0D2EF06F0FFFFD7EF06F0FFFFD8808E
:100DA8005C36DAEF06F0FFFFD8905C36FFFF5B5049
:100DB800D8B4E1EF06F0E4EF06F0FFFFE6EF06F047
:100DC800FFFF5B06FFFF4FAEECEF06F0EFEF06F01C
:100DD800FFFFB9EF06F0FFFF000E5A6E5CAEF7EFAB
:100DE80006F0FAEF06F0FFFF19EF07F0FFFF5CC00F
:100DF80055F07F0E5516D8B404EF07F007EF07F04B
:100E0800FFFF0DEF07F0FFFFFFFF010E5A6E19EF0E
:100E180007F0FFFF4DA013EF07F016EF07F0FFFFF5
:100E280019EF07F0FFFF08EF07F0FFFF5A50D8B49B
:100E380020EF07F023EF07F0FFFF53EF07F0FFFF66
:100E4800010E4D26000E4E224F22502250A02FEFA9
:100E580007F032EF07F0FFFF53EF07F0FFFF4DC039
:100E680055F04EC056F04FC057F050C058F05834A7
:100E7800583257325632553255C04DF056C04EF0A2
:100E880057C04FF058C050F05B28D8B44EEF07F069
:100E980051EF07F0FFFF53EF07F0FFFF5B2AFFFF5B
:100EA8005B28D8B45AEF07F05DEF07F0FFFF67EF54
:100EB80007F0FFFF5B50D8A464EF07F067EF07F077
:100EC800FFFF7CEF07F0FFFF000E4D6E000E4E6E29
:100ED800000E4F6E000E506E5B50D8A476EF07F0F0
:100EE80079EF07F0FFFF7CEF07F0FFFF000E596E68
:100EF800FFFF5BA082EF07F085EF07F0FFFF89EFA8
:100F080007F0FFFF4F8E8BEF07F0FFFF4F9EFFFFAD
:100F1800D8905B30506E59AE94EF07F097EF07F01A
:100F2800FFFF99EF07F0FFFF508EFFFF4DC04DF018
:100F38004EC04EF04FC04FF050C050F0FFFF1200AF
:100F4800FFFFFFFF1E50800B276E1E501E242D6EC4
:100F58001DAEB1EF07F0B4EF07F0FFFFB6EF07F0F3
:100F6800FFFF2D80FFFF2D50D8B4BDEF07F0C0EF75
:100F780007F0FFFFD7EF07F0FFFF2D28D8A4C7EF32
:100F880007F0CAEF07F0FFFFD3EF07F0FFFF000EEF
:100F98001B6E000E1C6E000E1D6E000E1E6EFFFFF7
:100FA8001D8EE0EF07F0FFFF000E1B6E000E1C6E9B
:100FB800000E1D6E000E1E6EFFFF2250800B271ABA
:100FC800225022242C6E21AEECEF07F0EFEF07F051
:100FD800FFFFF1EF07F0FFFF2C80FFFF2C50D8B484
:100FE800F8EF07F0FBEF07F0FFFF12EF08F0FFFF45
:100FF8002C28D8A402EF08F005EF08F0FFFF0EEF49
:1010080008F0FFFF000E1F6E000E206E000E216E0E
:10101800000E226EFFFF218E1BEF08F0FFFF000E6F
:101028001F6E000E206E000E216E000E226EFFFF56
:101038002C50D8B422EF08F025EF08F0FFFF2FEF6F
:1010480008F0FFFF2D50D8A42CEF08F02FEF08F080
:10105800FFFF3AEF08F0FFFF000E1B6E000E1C6E3C
:10106800000E1D6E000E1E6EF4EF09F0FFFF2150FA
:101078001B02F3CF32F0F4CF33F03250286E296AD6
:101088002A6A2B6A33502E6E2F6A306A316A2050D2
:101098001C02F3CF32F0F4CF33F032502826000E82
:1010A80029222A222B2233502E26000E2F223022CC
:1010B80031221F501D02F3CF32F0F4CF33F03250FB
:1010C8002826000E29222A222B2233502E26000EF3
:1010D8002F22302231222AC02BF029C02AF028C022
:1010E80029F0286A1F501C02F3CF32F0F4CF33F0F6
:1010F8003250282633502922000E2A22000E2B2295
:1011080020501B02F3CF32F0F4CF33F032502826B0
:1011180033502922000E2A22000E2B222AC02BF03F
:1011280029C02AF028C029F0286A1F501B02F3CFD3
:1011380032F0F4CF33F03250282633502922000EF3
:101148002A22000E2B2221501C02F3CF32F0F4CFBA
:1011580033F032502E2633502F22000E3022000E4C
:10116800312220501D02F3CF32F0F4CF33F0325049
:101178002E2633502F22000E3022000E312221500D
:101188001D02F3CF32F0F4CF33F03250236E3350D8
:10119800246E256A266A25C026F024C025F023C0BF
:1011A80024F0236A23502E2624502F222550302243
:1011B8002650312228C023F029C024F02AC025F067
:1011C8002BC026F0190EEFEF08F0FFFFD89026325B
:1011D800253224322332FFFFE82EE9EF08F02350AE
:1011E8002E2624502F2225503022265031222AC064
:1011F8002BF029C02AF028C029F0286A2C502DC0CD
:1012080023F0246A2326000E2422820E2324326E21
:10121800FF0E2420336E2AEF09F0FFFFD8902E36F8
:101228002F36303631362BAE1CEF09F01FEF09F0A0
:10123800FFFF21EF09F0FFFF2E80FFFFD89028362F
:1012480029362A362B363206D8A03306FFFF30AEB1
:1012580030EF09F033EF09F0FFFF11EF09F0FFFF5E
:10126800000E2C6E2BAE3BEF09F03EEF09F0FFFFAE
:1012780069EF09F0FFFFFF0E2814236EFF0E2914F3
:10128800246EFF0E2A14256E7F0E2B14266E235013
:10129800241025102610D8B454EF09F057EF09F0A0
:1012A800FFFF5DEF09F0FFFFFFFF010E2C6E69EFF6
:1012B80009F0FFFF2EA063EF09F066EF09F0FFFFCA
:1012C80069EF09F0FFFF58EF09F0FFFF2C50D8B481
:1012D80070EF09F073EF09F0FFFF9AEF09F0FFFFD5
:1012E800010E2E26000E2F223022312231A07FEF50
:1012F80009F082EF09F0FFFF9AEF09F0FFFF2EC017
:1013080023F02FC024F030C025F031C026F0263459
:10131800263225322432233223C02EF024C02FF067
:1013280025C030F026C031F0324A332AFFFF33BEE1
:10133800A6EF09F0335009E13228D8A0A6EF09F04A
:10134800A9EF09F0FFFFB4EF09F0FFFF000E2E6EC2
:10135800000E2F6E800E306E7F0E316EE9EF09F0B1
:10136800FFFF33BEC3EF09F0335006E13204D8B0B3
:10137800C0EF09F0C3EF09F0FFFFD0EF09F0FFFF5E
:10138800000E2E6E000E2F6E000E306E000E316EA7
:10139800000E276EE9EF09F0FFFF32C02DF0FF0EB7
:1013A8002E16FF0E2F167F0E3016000E31162DA0AA
:1013B800E0EF09F0E3EF09F0FFFFE5EF09F0FFFFC9
:1013C800308EFFFFD8902D30316EFFFF275031123D
:1013D8002EC01BF02FC01CF030C01DF031C01EF015
:1013E800FFFF1200FFFFFFFF3750800B446E37509E
:1013F80037244B6E36AE03EF0AF006EF0AF0FFFF14
:1014080008EF0AF0FFFF4B80FFFF4B50D8B40FEFF7
:101418000AF012EF0AF0FFFF2BEF0AF0FFFF4B284C
:10142800D8A419EF0AF01CEF0AF0FFFF25EF0AF025
:10143800FFFF000E346E000E356E000E366E000E85
:10144800376EFFFF368E000E376E34EF0AF0FFFF5F
:10145800000E346E000E356E000E366E000E376EBE
:10146800FFFF3B50800B441A3B503B244C6E3AAE76
:1014780040EF0AF043EF0AF0FFFF45EF0AF0FFFFE5
:101488004C80FFFF4C50D8B44CEF0AF04FEF0AF0F5
:10149800FFFF68EF0AF0FFFF4C28D8A456EF0AF0C8
:1014A80059EF0AF0FFFF62EF0AF0FFFF000E386EF7
:1014B800000E396E000E3A6E000E3B6EFFFF3A8E3C
:1014C800000E3B6E71EF0AF0FFFF000E386E000E43
:1014D800396E000E3A6E000E3B6EFFFF3850391021
:1014E8003A103B10D8A47BEF0AF07EEF0AF0FFFF1A
:1014F80098EF0AF0FFFF000E346E000E356E000EF6
:10150800366E000E376E800E36127F0E3712FFFFD2
:101518004450371234C034F035C035F036C036F098
:1015280037C037F00DEF0CF0FFFF4B50D8A49FEFFA
:101538000AF0A2EF0AF0FFFFADEF0AF0FFFF000E7E
:10154800346E000E356E000E366E000E376E0DEFDF
:101558000CF0FFFF4C504BC03CF03D6A3C5E000E67
:101568003D5A7F0E3C24456E000E3D20466E34C029
:1015780040F035C041F036C042F037C043F0000EAD
:10158800346E000E356E000E366E000E376E000E8D
:10159800476E000E486E000E496E000E4A6E000E31
:1015A8004C6E19EF0BF0FFFF4C50D8B4DEEF0AF089
:1015B800E1EF0AF0FFFFFCEF0AF0FFFFD89040369A
:1015C800413642364336D890343635363636373695
:1015D8004AAEF1EF0AF0F4EF0AF0FFFFF6EF0AF077
:1015E800FFFF3480FFFFD8904736483649364A36E1
:1015F800FFFF3850405C395041583A5042583B50F0
:101608004358D8A00AEF0BF00DEF0BF0FFFF17EFD0
:101618000BF0FFFF4A8C3850405E3950415A3A501F
:10162800425A3B50435AFFFF4C2AFFFF190E4C64A5
:1016380020EF0BF023EF0BF0FFFFD7EF0AF0FFFFCF
:101648004050411042104310D8B42DEF0BF030EF4A
:101658000BF0FFFF4DEF0BF0FFFF47804DEF0BF056
:10166800FFFFD89034363536363637364AAE3FEF38
:101678000BF042EF0BF0FFFF44EF0BF0FFFF34805D
:10168800FFFFD8904736483649364A364506D8A02F
:101698004606FFFF36AE53EF0BF056EF0BF0FFFF99
:1016A80034EF0BF0FFFF000E4C6E4AAE5EEF0BF00E
:1016B80061EF0BF0FFFF8CEF0BF0FFFFFF0E4714FD
:1016C8003C6EFF0E48143D6EFF0E49143E6E7F0EB1
:1016D8004A143F6E3C503D103E103F10D8B477EF8F
:1016E8000BF07AEF0BF0FFFF80EF0BF0FFFFFFFF2F
:1016F800010E4C6E8CEF0BF0FFFF34A086EF0BF061
:1017080089EF0BF0FFFF8CEF0BF0FFFF7BEF0BF087
:10171800FFFF4C50D8B493EF0BF096EF0BF0FFFFA0
:10172800BDEF0BF0FFFF010E3426000E35223622E6
:10173800372237A0A2EF0BF0A5EF0BF0FFFFBDEFAC
:101748000BF0FFFF34C03CF035C03DF036C03EF032
:1017580037C03FF03F343F323E323D323C323CC02E
:1017680034F03DC035F03EC036F03FC037F0454A52
:10177800462AFFFF46BEC9EF0BF0465009E145284F
:10178800D8A0C9EF0BF0CCEF0BF0FFFFD8EF0BF0B0
:10179800FFFF000E466E4568000E346E000E356E73
:1017A800000E366E000E376EFFFF46BEE7EF0BF0F9
:1017B800465006E14504D8B0E4EF0BF0E7EF0BF034
:1017C800FFFFF6EF0BF0FFFF000E466E000E456EB2
:1017D800000E346E000E356E000E366E000E376E3B
:1017E800000E446EFFFF45C04BF04BA0FEEF0BF020
:1017F80001EF0CF0FFFF05EF0CF0FFFF368E07EF4F
:101808000CF0FFFF369EFFFFD8904B30376E8BEF02
:101818000AF0FFFF1200FFFFFFFF80C0D4F081C075
:10182800D5F082C0D6F083C0D7F0C2C0D4F0C3C010
:10183800D5F0C4C0D6F0C5C0D7F0D4C0C6F0D5C066
:10184800C7F0D6C0C8F0D7C0C9F0180E33EF0CF0F7
:10185800FFFF0001D890C933C833C733C633FFFF31
:10186800E82E2CEF0CF0C651CE6FCF6BCFBF46EFF2
:101878000CF0CF510AE1960ECE5DD8A046EF0CF0E1
:1018880049EF0CF0FFFF54EF0CF0FFFFC2C0C2F0AD
:10189800C3C0C3F0C4C0C4F0C5C0C5F003EF0EF0A8
:1018A800FFFFD4C0C6F0D5C0C7F0D6C0C8F0D7C0B7
:1018B800C9F0200E66EF0CF0FFFFD890C933C8338B
:1018C800C733C633FFFFE82E60EF0CF0C651C711CF
:1018D800C811C911D8B473EF0CF076EF0CF0FFFF04
:1018E80089EF0CF0FFFFC2C001F0C3C002F0C4C012
:1018F80003F0C5C004F0C7EC15F001C0C2F002C087
:10190800C3F003C0C4F004C0C5F0FFFF0001CFBF9F
:101918009AEF0CF0CF5107E17E0ECE5DD8B097EF6D
:101928000CF09AEF0CF0FFFFB7EF0CF0FFFFD4C0FC
:101938001BF0D5C01CF0D6C01DF0D7C01EF0000E9D
:101948001F6E000E206E000E216E000E226EA5EC9A
:1019580007F01BC0C2F01CC0C3F01DC0C4F01EC0FD
:10196800C5F003EF0EF0FFFF000E516E000E526E31
:10197800000E536E4B0E546EC2C04DF0C3C04EF0F5
:10198800C4C04FF0C5C050F0D1EC04F04DC0D0F049
:101998004EC0D1F04FC0D2F050C0D3F0000E516EFF
:1019A800000E526E000E536ECB0E546ED0C04DF02A
:1019B800D1C04EF0D2C04FF0D3C050F0D1EC04F0FB
:1019C8004DC0CAF04EC0CBF04FC0CCF050C0CDF0E7
:1019D800CAC05DF0CBC05EF0CCC05FF0CDC060F097
:1019E800C2C061F0C3C062F0C4C063F0C5C064F097
:1019F8005EEC15F05DC0D8F05EC0D9F05FC0DAF0DB
:101A080060C0DBF0000E716E000E726E000E736E19
:101A18003F0E746ED8C075F0D9C076F0DAC077F092
:101A2800DBC078F054EC10F0D8B01DEF0DF020EFCB
:101A38000DF0FFFF57EF0DF0FFFFC2C051F0C3C01C
:101A480052F0C4C053F0C5C054F0D8C04DF0D9C04E
:101A58004EF0DAC04FF0DBC050F0D1EC04F04DC0CE
:101A6800D0F04EC0D1F04FC0D2F050C0D3F0D0C0AB
:101A78004DF0D1C04EF0D2C04FF0D3C050F0000EA0
:101A8800516E000E526E800E536EBF0E546ED1EC26
:101A980004F04DC0D8F04EC0D9F04FC0DAF050C0B5
:101AA800DBF0C4EF0DF0FFFF000E716E000E726EDA
:101AB800000E736EBF0E746ED8C075F0D9C076F084
:101AC800DAC077F0DBC078F054EC10F0D8A06FEFF4
:101AD8000DF072EF0DF0FFFFA9EF0DF0FFFFC2C090
:101AE80051F0C3C052F0C4C053F0C5C054F0D8C0C0
:101AF8004DF0D9C04EF0DAC04FF0DBC050F0D1EC59
:101B080004F04DC0D0F04EC0D1F04FC0D2F050C05C
:101B1800D3F0D0C04DF0D1C04EF0D2C04FF0D3C0FA
:101B280050F0000E516E000E526E800E536E3F0E36
:101B3800546ED1EC04F04DC0D8F04EC0D9F04FC06F
:101B4800DAF050C0DBF0C4EF0DF0FFFFD8C04DF065
:101B5800D9C04EF0DAC04FF0DBC050F0C2C051F02F
:101B6800C3C052F0C4C053F0C5C054F0D1EC04F067
:101B78004DC0D8F04EC0D9F04FC0DAF050C0DBF0FD
:101B8800FFFFD4C0C6F0D5C0C7F0D6C0C8F0D7C0D4
:101B9800C9F0200ED7EF0DF0FFFF0001D890C93330
:101BA800C833C733C633FFFFE82ED0EF0DF0C65158
:101BB800C711C811C911D8B4E4EF0DF0E7EF0DF063
:101BC800FFFFFAEF0DF0FFFFD8C001F0D9C002F017
:101BD800DAC003F0DBC004F0C7EC15F001C0D8F0A0
:101BE80002C0D9F003C0DAF004C0DBF0FFFFD8C0B0
:101BF800C2F0D9C0C3F0DAC0C4F0DBC0C5F0FFFF43
:101C08001200FFFFFFFF156E1550D8B40EEF0EF04F
:101C180011EF0EF0FFFF36EF0EF0FFFF10BE1AEFC8
:101C28000EF017EF0EF0FFFF36EF0EF0FFFF0DC0BE
:101C380011F00EC012F00FC013F010C014F0111EF6
:101C4800121E131E141E112A000E12221322142211
:101C580011C017F012C018F013C019F014C01AF010
:101C68003FEF0EF0FFFF0DC017F00EC018F00FC0C9
:101C780019F010C01AF0FFFF0D500E100F101010C1
:101C8800D8A449EF0EF04CEF0EF0FFFF57EF0EF01F
:101C9800FFFF000E0D6E000E0E6E000E0F6E000E92
:101CA800106EFFEF0EF0FFFF960E166E63EF0EF04C
:101CB800FFFF162AD8901A32193218321732FFFF4E
:101CC800000E1714116E000E1814126E000E19145F
:101CD800136EFE0E1A14146E1150121013101410F5
:101CE800D8A479EF0EF07CEF0EF0FFFF5CEF0EF05A
:101CF800FFFF8CEF0EF0FFFF162A010E1726000ECD
:101D0800182219221A22D8901A3219321832173288
:101D1800FFFF000E1714116E000E1814126E000E3D
:101D28001914136EFF0E1A14146E1150121013109A
:101D38001410D8A4A2EF0EF0A5EF0EF0FFFF7FEF6E
:101D48000EF0FFFFAFEF0EF0FFFF1606D890173624
:101D5800183619361A36FFFF19BEB5EF0EF0B8EF70
:101D68000EF0FFFFC2EF0EF0FFFF020E1660BFEF8E
:101D78000EF0C2EF0EF0FFFFA8EF0EF0FFFF16B057
:101D8800C8EF0EF0CBEF0EF0FFFFCDEF0EF0FFFF28
:101D9800199EFFFFD890163216C011F0126A136A06
:101DA800146A11C014F0136A126A116A11501712DA
:101DB800125018121350191214501A121550D8B480
:101DC800E8EF0EF0EBEF0EF0FFFFF6EF0EF0FFFF7F
:101DD80010BEF4EF0EF0F1EF0EF0FFFFF6EF0EF08D
:101DE800FFFF1A8EFFFF17C00DF018C00EF019C0C4
:101DF8000FF01AC010F0FFFF1200FFFFFFFF056E83
:101E0800055019EC16F00504D8A40DEF0FF010EFEB
:101E18000FF0FFFF1BEF0FF0FFFF03C0D9FF04C057
:101E2800DAFF010EDE6E000EDD6EB6EF0FF0FFFF7B
:101E3800020E0518D8A423EF0FF026EF0FF0FFFFCE
:101E480031EF0FF0FFFF03C0D9FF04C0DAFF030E24
:101E5800DE6E000EDD6EB6EF0FF0FFFF040E051804
:101E6800D8A439EF0FF03CEF0FF0FFFF47EF0FF06A
:101E7800FFFF03C0D9FF04C0DAFF050EDE6E000EB7
:101E8800DD6EB6EF0FF0FFFF080E0518D8A44FEF70
:101E98000FF052EF0FF0FFFF5DEF0FF0FFFF03C0F1
:101EA800D9FF04C0DAFF0A0EDE6E000EDD6EB6EF53
:101EB8000FF0FFFF100E0518D8A465EF0FF068EFBC
:101EC8000FF0FFFF73EF0FF0FFFF03C0D9FF04C04F
:101ED800DAFF020EDE6E000EDD6EB6EF0FF0FFFFCA
:101EE800400E0518D8A47BEF0FF07EEF0FF0FFFF30
:101EF80089EF0FF0FFFF03C0D9FF04C0DAFF0E0E11
:101F0800DE6E000EDD6EB6EF0FF0FFFF800E0518D7
:101F1800D8A491EF0FF094EF0FF0FFFF97EF0FF0B9
:101F2800FFFFB6EF0FF0FFFF200E0518D8A49FEFB4
:101F38000FF0A2EF0FF0FFFFADEF0FF0FFFF03C0B0
:101F4800D9FF04C0DAFF0C0EDE6E000EDD6EB6EFB0
:101F58000FF0FFFF03C0D9FF04C0DAFF000EDE6EEA
:101F6800000EDD6EFFFF1200FFFFFFFF67346834CD
:101F78006E6E6E50D8A4C3EF0FF0C6EF0FF0FFFFE0
:101F8800D2EF0FF0FFFFFFFF000E656E000E666ECA
:101F9800000E676E000E686E51EF10F0FFFF65C00F
:101FA80069F066C06AF067C06BF068C06CF0200E1C
:101FB800E4EF0FF0FFFFD8906C326B326A3269326F
:101FC800FFFFE82EDEEF0FF069506D6E678EFF0E93
:101FD8006516FF0E6616FF0E6716000E6816960E3B
:101FE8006E5E6EBEFDEF0FF0FAEF0FF0FFFF17EF1A
:101FF80010F0FFFF6E50800A970FD8B006EF10F070
:1020080009EF10F0FFFF0CEF10F0FFFFC7EF0FF024
:10201800FFFFD89068326732663265326E3E0CEF49
:1020280010F035EF10F0FFFF1F0E6E641EEF10F07A
:1020380021EF10F0FFFF2BEF10F0FFFFC7EF0FF0BD
:10204800FFFFD89065366636673668366E06FFFF3E
:102058006E50D8A432EF10F035EF10F0FFFF24EFE8
:1020680010F0FFFF6D50D8B43CEF10F03FEF10F0C8
:10207800FFFF48EF10F0FFFF681E671E661E656CC5
:10208800000E662267226822FFFF65C065F066C001
:1020980066F067C067F068C068F0FFFF1200FFFFD6
:1020A800FFFF000E7114796E000E72147A6E800EA6
:1020B80073147B6E7F0E74147C6E79507A107B10CB
:1020C8007C10D8A46AEF10F06DEF10F0FFFF76EFE8
:1020D80010F0FFFF000E716E000E726E000E736E30
:1020E800000E746EFFFF000E7514796E000E7614E4
:1020F8007A6E800E77147B6E7F0E78147C6E795022
:102108007A107B107C10D8A48CEF10F08FEF10F0B1
:10211800FFFF98EF10F0FFFF000E756E000E766E51
:10212800000E776E000E786EFFFF74AE9EEF10F013
:10213800A1EF10F0FFFFABEF10F0FFFF716C721E04
:10214800D8B0722A731ED8B0732A800E7456FFFF57
:1021580078AEB1EF10F0B4EF10F0FFFFBEEF10F063
:10216800FFFF756C761ED8B0762A771ED8B0772A0E
:10217800800E7856FFFF000E711A000E721A000EBC
:10218800731A800E741A000E751A000E761A000E55
:10219800771A800E781A7550715C7650725877509D
:1021A800735878507458D8B0DCEF10F0DFEF10F0A7
:1021B800FFFFE3EF10F0FFFFD890E5EF10F0FFFF0F
:1021C800D880FFFF1200FFFFFFFF000E0A6E08BE57
:1021D800F3EF10F0F0EF10F0FFFFFAEF10F0FFFF51
:1021E800076C081ED8B0082A010E0A6EFFFF06BE4B
:1021F80003EF11F000EF11F0FFFF0AEF11F0FFFFFE
:10220800056C061ED8B0062A010E0A1AFFFF000E3A
:102218000C6E000E0B6E07500810D8B416EF11F0B4
:1022280019EF11F0FFFF4AEF11F0FFFF010E096EE1
:1022380023EF11F0FFFFD89007360836092AFFFF71
:1022480008AE29EF11F02CEF11F0FFFF1EEF11F08F
:10225800FFFFFFFFD8900B360C360750055C08507F
:102268000658D8A03AEF11F03DEF11F0FFFF43EF09
:1022780011F0FFFF0750055E0850065A0B80FFFF5C
:10228800D89008320732092E2DEF11F0FFFF0A50BF
:10229800D8B451EF11F054EF11F0FFFF59EF11F0DE
:1022A800FFFF0B6C0C1ED8B00C2AFFFF0BC005F00B
:1022B8000CC006F01200FFFFFFFF20EE04F00150F3
:1022C800D9260250DA22DECF03F0DDCF04F001C0B8
:1022D800D9FF02C0DAFFDECF05F0DDCF06F00350EC
:1022E80005260450062201C0D9FF02C0DAFF05C046
:1022F800DEFF06C0DDFF20EE02F00150D9260250B5
:10230800DA22DECF03F0DDCF04F0010E0326000E43
:10231800042220EE02F00150D9260250DA2203C02E
:10232800DEFF04C0DDFF01C0D9FF02C0DAFFDE28EE
:1023380006E1DE28D8A4A3EF11F0A6EF11F0FFFF05
:10234800B1EF11F0FFFF01C0D9FF02C0DAFF030EA1
:10235800DE6E000EDD6ECAEF11F0FFFF01C0D9FF7F
:1023680002C0DAFF040EDE18DE10D8A4BEEF11F0AA
:10237800C1EF11F0FFFFCAEF11F0FFFF01C0D9FF55
:1023880002C0DAFF000EDE6E000EDD6EFFFF1200E7
:10239800FFFFFFFF000E086E050E076E3F0E7D243F
:1023A800016E000E7E20026E38EC15F001C005F0BB
:1023B80002C006F0E8EC10F005C00DF006C00EF003
:1023C800000E0EBEFF0E0F6E106E010E06EC0EF024
:1023D8000DC0C2F00EC0C3F00FC0C4F010C0C5F0ED
:1023E800C2C071F0C3C072F0C4C073F0C5C074F04D
:1023F800000E756E000E766E400E776E410E786E8A
:1024080054EC10F0D8A00BEF12F00EEF12F0FFFF13
:1024180030EF12F0FFFF000E716E000E726E500E5C
:10242800736E410E746EC2C075F0C3C076F0C4C03E
:1024380077F0C5C078F054EC10F0D8A026EF12F071
:1024480029EF12F0FFFF30EF12F0FFFF000E7E6E53
:10245800010E7D6E35EF12F0FFFF000E7E6E000E4E
:102468007D6EFFFF1200FFFFFFFF000ECA6E000E19
:10247800CC6ECA84CA80CA82000E516E000E526E9B
:10248800800E536EBF0E546EBD0E1F6E370E206E3B
:10249800860E216E360E226EEFC01BF0F0C01CF0C7
:1024A800F1C01DF0F2C01EF0A5EC07F01BC038F01B
:1024B8001CC039F01DC03AF01EC03BF00A0E346E45
:1024C800D70E356EA30E366E3C0E376EF7EC09F05C
:1024D80034C04DF035C04EF036C04FF037C050F024
:1024E800D1EC04F04DC06FF04EC070F04FC071F0E9
:1024F80050C072F0000E1F6E000E206E800E216E0E
:10250800400E226E6FC01BF070C01CF071C01DF031
:1025180072C01EF0A5EC07F01BC065F01CC066F089
:102528001DC067F01EC068F0B9EC0FF06550CB6EA7
:102538001200FFFFFFFFBD0E1F6E370E206E860EC6
:10254800216E350E226EEFC01BF0F0C01CF0F1C0FA
:102558001DF0F2C01EF0A5EC07F01BC038F01CC03F
:1025680039F01DC03AF01EC03BF06F0E346E120EEB
:10257800356E830E366E3A0E376EF7EC09F034C0BE
:1025880065F035C066F036C067F037C068F0B9EC62
:102598000FF065C075F066C076F075C077F077A06B
:1025A800D8EF12F0DBEF12F0FFFFDFEF12F0FFFFC2
:1025B800BD88E1EF12F0FFFFBD98FFFF77A2E7EFBC
:1025C80012F0EAEF12F0FFFFEEEF12F0FFFFBD8A04
:1025D800F0EF12F0FFFFBD9AFFFF75C073F076C0F1
:1025E80074F0D89074327332D89074327332735056
:1025F800BE6E1200FFFFFFFF010E43EC16F0250E22
:10260800F66E7B0EF76E0900FFFFF5CF10F009009C
:10261800FFFFF5CF11F00900FFFFF5CF12F00A0018
:10262800FFFFF5CF13F0000E156E000E146EFFFFBE
:10263800100E1424D96E000E1520DA6EDF5043EC0C
:1026480016F00CC001F00DC002F0000E046E500E22
:10265800036E2EEC16F02D0E0E6E7B0E0F6E0150D3
:102668000E2602500F2214C001F015C002F0000E11
:10267800046E140E036E2EEC16F001500E24076E35
:1026880002500F20086EDFEC14F0144A152A15BE0C
:1026980057EF13F015500AE1040E145CD8A057EF59
:1026A80013F05AEF13F0FFFF1BEF13F0FFFF1200B8
:1026B800FFFFFFFF000E106E000E0F6EFFFF0F50A2
:1026C8000924D96E10500A20DA6E0F5001240D6EBD
:1026D800105002200E6E060E0D24E16E000E0E2024
:1026E800E26EDFCFE7FF0F4A102A10BE85EF13F026
:1026F80010500AE1040E0F5CD8A085EF13F088EFA4
:1027080013F0FFFF62EF13F0FFFF01C0D9FF02C013
:10271800DAFF03C0DEFF04C0DDFF20EE02F0015047
:10272800D9260250DA2205C0DEFF06C0DDFF20EE02
:1027380004F00150D9260250DA2207C0DEFF08C093
:10274800DDFF20EE0AF00150D9260250DA220BC034
:10275800DEFF0CC0DDFF1200FFFFFFFF01C0D9FF45
:1027680002C0DAFF020EDE18DE10D8A4BEEF13F0A6
:10277800C1EF13F0FFFFC6EF13F0FFFF100E056E59
:10278800F2EF13F0FFFF01C0D9FF02C0DAFFDE50FD
:10279800DE10D8A4D2EF13F0D5EF13F0FFFFDAEF75
:1027A80013F0FFFF090E056EF2EF13F0FFFF01C0F3
:1027B800D9FF02C0DAFF0E0EDE18DE10D8A4E7EF4C
:1027C80013F0EAEF13F0FFFFEFEF13F0FFFF400EF7
:1027D800056EF2EF13F0FFFF800E056EFFFF055048
:1027E8001200FFFFFFFF836A000E956E846A000ED9
:1027F800966E849284941E0E036E3C0EFFFFE82EA4
:10280800FDD7032EFBD700D08482380E43EC16F098
:102818001E0E036E3C0EFFFFE82EFDD7032EFBD7DE
:1028280000D0380E43EC16F01E0E036E3C0EFFFF70
:10283800E82EFDD7032EFBD700D0380E43EC16F058
:10284800080E43EC16F00F0E43EC16F0010E43ECA5
:1028580016F0380E43EC16F0800E43EC16F012001A
:10286800FFFFFFFF20EE02F00950D9260A50DA22B6
:102878000B50DE5CDE50800A0F6E0C50800A0F5839
:10288800D8A049EF14F04CEF14F0FFFF5DEF14F0FF
:10289800FFFF20EE02F00950D9260A50DA22000E76
:1028A800DE6E000EDD6E000E0A6E010E096E6EEF12
:1028B80014F0FFFF09C001F00AC002F00FEC15F098
:1028C80009C001F00AC002F060EC11F0000E0A6EB7
:1028D800000E096EFFFF1200FFFFFFFFC284FFFF1B
:1028E800C2B479EF14F07CEF14F0FFFF73EF14F02B
:1028F800FFFF000E1F6E000E206E800E216E3E0E32
:10290800226EC4500D6E0E6A0F6A106A010E06EC34
:102918000EF00DC01BF00EC01CF00FC01DF010C053
:102928001EF0A5EC07F01BC065F01CC066F01DC0CA
:1029380067F01EC068F0B9EC0FF0C90E65246F6E21
:10294800FF0E6620706E1200FFFFFFFFC284FFFFBC
:10295800C2B4B1EF14F0B4EF14F0FFFFABEF14F012
:10296800FFFF0A0E1F6ED70E206E230E216E3C0E3F
:10297800226EC4500D6E0E6A0F6A106A010E06ECC4
:102988000EF00DC01BF00EC01CF00FC01DF010C0E3
:102998001EF0A5EC07F01BC065F01CC066F01DC05A
:1029A80067F01EC068F0B9EC0FF065C06FF066C044
:1029B80070F01200FFFFFFFF000E0B6EF5EF14F032
:1029C800FFFF0B500724096E000E08200A6E09C08D
:1029D800F6FF0AC0F7FF0800FFFFF55019EC16F0E4
:1029E8000B2AFFFF0B500724096E000E08200A6E01
:1029F80009C0F6FF0AC0F7FF0800FFFFF5500009FD
:102A0800D8A409EF15F00CEF15F0FFFFE4EF14F070
:102A1800FFFF1200FFFFFFFF01C0D9FF02C0DAFF6E
:102A2800DECF03F0DDCF04F001C005F002C006F0F0
:102A38000350052604500622060E0524D96E000E02
:102A48000620DA6E10EE0AF00150E1260250E2226A
:102A5800E6CF07F0E5CF08F007C0E1FF08C0E2FFC6
:102A6800DFCFE7FF1200FFFFFFFF02BE47EF15F0C1
:102A7800025006E10104D8B044EF15F047EF15F015
:102A8800FFFF56EF15F0FFFF01C003F002C004F08E
:102A9800031E041E034A042A03C001F004C002F006
:102AA8005BEF15F0FFFF01C001F002C002F0FFFF6D
:102AB8001200FFFFFFFF000E611A000E621A000EDF
:102AC800631A800E641A5DC04DF05EC04EF05FC0A0
:102AD8004FF060C050F061C051F062C052F063C066
:102AE80053F064C054F0D1EC04F04DC05DF04EC01A
:102AF8005EF04FC05FF050C060F01200FFFF760E2E
:102B0800F66E2D0EF76E000EF86E00EEE5F010EE84
:102B180016F00900F5CFEEFFE550E150FAE101EEBD
:102B280000F00C0EEE6AE806FDE100EE80F0420EC1
:102B3800EE6AE806FDE17F907F92000EF86E0001D4
:102B48003DEF00F0FFFF550E0001C26F550EC36F39
:102B5800C80EC46F410EC56F10EC0CF0C2C065F012
:102B6800C3C066F0C4C067F0C5C068F0B9EC0FF028
:102B78006550AF6EAC9CAC8AAC98AC84AB8EAB9C09
:102B8800AB881200FFFFFFFF015002100310041072
:102B9800D8B4D1EF15F0D4EF15F0FFFFDDEF15F045
:102BA800FFFF000E011A000E021A000E031A800E13
:102BB800041AFFFF01C001F002C002F003C003F0D5
:102BC80004C004F01200FFFFFFFF20EE04F00150E4
:102BD800D9260250DA22DECF03F0DDCF04F0031E3F
:102BE800041E034A042A20EE04F00150D92602509C
:102BF800DA2203C0DEFF04C0DDFF1200FFFFFFFF83
:102C0800000E896E000E806EF10E926E000E8A6EB6
:102C1800000E816E000E936E000E8B6E000E826E9B
:102C2800F00E946E949C1200FFFFFFFF026E8482E8
:102C38000250CEEC16F08484C80EFFFF00F0E82E98
:102C4800FCD78492C80EFFFF00F0E82EFCD78482E0
:102C58001200FFFFFFFF01500302F3CF05F0F4CF8E
:102C680006F001500402F350062602500302F35006
:102C7800062605C001F006C002F01200FFFFFFFFA4
:102C8800026E84820250CEEC16F08494C80EFFFFC8
:102C980000F0E82EFCD78492C80EFFFF00F0E82E63
:102CA800FCD784821200FFFFFFFFFFFF71EC14F0D6
:102CB800C90E6F1806E17028D8A465EF16F068EF02
:102CC80016F0FFFF59EF16F0FFFF1200FFFFFFFF9E
:102CD800000ED56E960ED66E980ED76EF28AD59CDB
:102CE800D59AD596D580D582D584D58E1200FFFF8A
:102CF800FFFF000EBD6E0A0E6F6ED70E706EA30E2C
:102D0800716E3B0E726E9EEC12F0BD86BD84120091
:102D1800FFFFFFFF016E01C0ADFFFFFFACA297EF01
:102D280016F09AEF16F0FFFF91EF16F0FFFF120072
:102D3800FFFFFFFF000EC26EC296C298C29AC28001
:102D4800000EC46E000EC36E000EC16E1200FFFFAF
:102D5800FFFF000EC26EC296C298C28AC280000EE1
:102D6800C46E000EC36E000EC16E1200FFFF0AD7BC
:102D7800A33CBD3786340800000080411020408005
:102D880001020408FFFFAECF01F0000EAE6E015045
:102D98001200FFFFFFFF016E01C083FF1200FFFF5B
:0E2DA800FFFF9E9A9D8AF28C1200FFFFFFFF34
:107B2000000000004B80C094D40000164649444C2D
:107B3000453A2077616974696E6720666F7200004C
:107B4000007669616C20746F20626520706C6163DF
:107B50006564000000696E20696E697420706F733F
:107B60000000000000000000000000000000000015
:107B700000000000000000000000000000494E4925
:107B8000545F504F533A20746865207669616C00E9
:107B90000069732061742074686520696E697420BF
:107BA000706F73000070726F636573732069732068
:107BB0007374617274696E67000000000000000059
:107BC000000000000000000000000000004D4F56C3
:107BD000454D454E5400000000000000000000002C
:107BE0000000000000000000000000000000000095
:107BF0000000000000000000000000000000000085
:107C00000000000000000000000000000000000074
:107C1000000000000000000000000000004F56457A
:107C20004E3A0000000000000000000000000000CC
:107C3000007669616C2068617320726561636865B4
:107C40006400000000746865206F76656E000000B7
:107C50000000000000000000000000000000000024
:107C6000000000000000000000000000004F56452A
:107C70004E3A207265616368696E672074686500BA
:107C800000636F72726563742074656D70657261F4
:107C90007475726500000000000000000000000024
:107CA00000000000000000000000000000000000D4
:107CB00000000000000000000000000000475241EA
:107CC0005350494E473A20746865207669616C00CC
:107CD000006861732072656163686564207468651B
:107CE00000000000006D6978696E6720737461742C
:107CF000696F6E000000000000000000000000003E
:107D00000000000000000000000000000047524199
:107D10005350494E473A00000000000000000000A8
:107D2000006772617370696E67206861730000009C
:107D3000000000000073746172746564000000004C
:107D40000000000000000000000000000000000033
:107D5000000000000000000000000000004D495835
:107D6000494E473A20746865207669616C000000CE
:107D70000077696C6C206E6F7720626500000000F0
:107D8000000000000074696C746564203130207458
:107D9000696D657300000000000000000000000035
:107DA0000000000000000000000000000044494CFA
:107DB0005554494E473A20746865000000000000A1
:107DC0000076616363696E652077696C6C206E6F05
:107DD000770000000062652064696C75746564005A
:107DE0000000000000000000000000000000000093
:107DF0000000000000000000000000000052454CA0
:107E0000454153494E473A00000000000000000081
:107E10000072656C656173696E672068617300004C
:107E2000000000000073746172746564000000005B
:107E30000000000000000000000000000000000042
:107E40000000000000000000000000000050494356
:107E50004B5F55503A20746865207669616C00006C
:107E60000068617320726561636865642074686589
:107E700000000000007069636B20757020737461EE
:107E800074696F6E00000000000000000000000038
:107E90000000000000000000000000000050494306
:107EA0004B5F55503A20706C6561736500000000AF
:107EB000007069636B2075702074686500000000B5
:107EC00000000000007669616C206265666F726573
:107ED00000000000000000000074696D656F75749B
:107EE00000000000000000000000000000504943B6
:107EF0004B5F55503A20746865207669616C0000CC
:107F000000686173206265656E207069636B6564EB
:107F10000000000000676F696E67206261636B207C
:107F2000746F0000000000000069646C65000000D0
:107F3000000000000000000000000000005452415A
:107F400053483A2074696D656F7574000000000035
:107F50000065786365656465642074686500000089
:107F600000000000007669616C2077696C6C20620B
:107F700065000000000000000074726173686564B1
:107F80000000000000000000000000000045525208
:107F90004F52000000000000000000000000000040
:107FA00000000000000000000000000000000000D1
:107FB00000000000000000000000000000000000C1
:107FC00000000000000000000000000000000000B1
:107FD00000000000000000000000000000BD378627
:107FE00035002474490024744A4465766963652029
:107FF000686173206265656E207265736574000048
:020000040020DA
:08000000FFFFFFFFFFFFFFFF00
:020000040030CA
:0E000000FF270F0EFF0185FF0FC00FE00F401E
:00000001FF
