:020000040000FA
:1000000000F03BEF00F0FFFFFFFF7F829DAA0BEFA8
:1000100000F00EEF00F0FFFF1EEF00F0FFFF9EAAC2
:1000200014EF00F017EF00F0FFFF1EEF00F0FFFFEE
:100030009E9A010E0101AA6F010EA86FFFFFF2AA9E
:1000400024EF00F027EF00F0FFFF37EF00F0FFFF95
:10005000F2A42DEF00F030EF00F0FFFF37EF00F0DB
:10006000FFFF000ED56EF294010E0101A76FFFFF96
:100070007F921100FFFF95EF38F0FFFF45C0D9FFD9
:1000800046C0DAFFDECFF6FFDDCFF7FF0800FFFF47
:10009000F550250AD8A44FEF00F052EF00F0FFFF13
:1000A0000CEF0AF0FFFF45C0D9FF46C0DAFFDE2A99
:1000B000000EDD22000E0001876F000E866F86C0E5
:1000C0007DF087C07EF088698969000E506E000E51
:1000D0004F6EBBEF00F0FFFF7D80FFFF45C0D9FFF3
:1000E00046C0DAFFDE2A000EDD22BBEF00F0FFFF84
:1000F0007D826DEF00F0FFFF7D846DEF00F0FFFF6C
:100100007D866DEF00F0FFFF7D886DEF00F0FFFF53
:10011000000E506E010E4F6EBBEF00F0FFFF45C0AA
:10012000D9FF46C0DAFFDECFF6FFDDCFF7FF0800CC
:10013000FFFFF550496E4A6A4A50000AD8B4A3EF4F
:1001400000F087EF00F0FFFF4950200AD8B47FEF9E
:1001500000F0030AD8B483EF00F0080AD8B47BEFAC
:1001600000F0060AD8B46BEF00F01D0AD8B477EFA0
:1001700000F087EF00F0FFFF4F505010D8B4C3EFEE
:1001800000F0C6EF00F0FFFF8EEF00F0FFFF7DA054
:10019000CCEF00F0CFEF00F0FFFFD1EF00F0FFFF5A
:1001A0007D92FFFF45C0D9FF46C0DAFFDECFF6FFE4
:1001B000DDCFF7FF0800FFFFF5502A0AD8A4E3EFD0
:1001C00000F0E6EF00F0FFFF13EF01F0FFFF45C086
:1001D000D9FF46C0DAFFDE2A000EDD2247C0D9FF74
:1001E00048C0DAFFDFCF49F0020EDE26DFCF4AF04B
:1001F000000EDD2249C0D9FF4AC0DAFFDECF86F00B
:10020000DDCF87F0000187BF0BEF01F008EF01F0B1
:10021000FFFF5EEF01F0FFFF7D80866D871FD8B086
:10022000872B5EEF01F0FFFF45C0D9FF46C0DAFF24
:10023000DECF08F0DDCF09F011EC1CF008C086F02D
:1002400009C087F02CEF01F0FFFF45C0D9FF46C081
:10025000DAFFDE2A000EDD22FFFFD00E496EFF0E10
:100260004A6E45C0D9FF46C0DAFFDECFF6FFDDCFCC
:10027000F7FF0800FFFFF5504B6E4C6A49504B26C4
:100280004A504C224C500BE10A0E4B5CD8A04BEF6D
:1002900001F04FEF01F0FFFF010E51EF01F0FFFF02
:1002A000000EFFFF516E526A51505210D8A45BEFFE
:1002B00001F05EEF01F0FFFF24EF01F0FFFF45C00A
:1002C000D9FF46C0DAFFDECFF6FFDDCFF7FF08002B
:1002D000FFFFF5502E0AD8A470EF01F073EF01F084
:1002E000FFFFFDEF01F0FFFF000E0001896F000E20
:1002F000886F45C0D9FF46C0DAFFDE2A000EDD2236
:1003000045C0D9FF46C0DAFFDECFF6FFDDCFF7FFED
:100310000800FFFFF5502A0AD8A491EF01F094EFEE
:1003200001F0FFFFB2EF01F0FFFF45C0D9FF46C06B
:10033000DAFFDE2A000EDD2247C0D9FF48C0DAFF0F
:10034000DFCF49F0020EDE26DFCF4AF0000EDD22BD
:1003500049C0D9FF4AC0DAFFDECF88F0DDCF89F08F
:10036000FDEF01F0FFFF45C0D9FF46C0DAFFDECF49
:1003700008F0DDCF09F011EC1CF008C088F009C0CE
:1003800089F0CBEF01F0FFFF45C0D9FF46C0DAFF8F
:10039000DE2A000EDD22FFFFD00E496EFF0E4A6EF0
:1003A00045C0D9FF46C0DAFFDECFF6FFDDCFF7FF4D
:1003B0000800FFFFF5504B6E4C6A49504B264A50DF
:1003C0004C224C500BE10A0E4B5CD8A0EAEF01F036
:1003D000EEEF01F0FFFF010EF0EF01F0FFFF000E66
:1003E000FFFF536E546A53505410D8A4FAEF01F033
:1003F000FDEF01F0FFFFC3EF01F0FFFF45C0D9FFA4
:1004000046C0DAFFDECFF6FFDDCFF7FF0800FFFFC3
:10041000F550630AD8A40FEF02F012EF02F0FFFFCD
:100420003AEF02F0FFFF45C0D9FF46C0DAFFDE2AEF
:10043000000EDD2247C0D9FF48C0DAFFDFCF49F008
:10044000020EDE26DFCF4AF0000EDD2249C0D9FFC2
:100450004AC0DAFFDF505F6E43C01CF044C01DF09D
:100460005FC01EF062EC38F01CC043F01DC044F0C9
:1004700029EF0AF0FFFF45C0D9FF46C0DAFFDECF03
:1004800001F0DDCF02F0CE0E036E7F0E046E000E83
:10049000066E030E056EDAEC3DF001500210D8B482
:1004A00054EF02F057EF02F0FFFF74EF02F0FFFF8E
:1004B00045C0D9FF46C0DAFFDECF01F0DDCF02F044
:1004C000D20E036E7F0E046E000E066E030E056ED6
:1004D000DAEC3DF001500210D8A471EF02F074EF95
:1004E00002F0FFFFB6EF02F0FFFF030E45C0D9FF99
:1004F00046C0DAFFDE26000EDD2247C0D9FF48C025
:10050000DAFFDFCF49F0020EDE26DFCF4AF0000E21
:10051000DD2249C0D9FF4AC0DAFFDF50556E000E18
:1005200055BEFF0E566E576E586E596E5A6E5B6E04
:100530005C6EFFFF43C01CF044C01DF055C01EF0B0
:1005400056C01FF057C020F058C021F059C022F00B
:100550005AC023F05BC024F05CC025F0D5EC15F048
:100560001CC043F01DC044F029EF0AF0FFFF45C056
:10057000D9FF46C0DAFFDECF01F0DDCF02F0CF0EAB
:10058000036E7F0E046E000E066E020E056EDAEC30
:100590003DF001500210D8B4D0EF02F0D3EF02F0DA
:1005A000FFFFF0EF02F0FFFF45C0D9FF46C0DAFFC2
:1005B000DECF01F0DDCF02F0D30E036E7F0E046EAE
:1005C000000E066E020E056EDAEC3DF001500210D0
:1005D000D8A4EDEF02F0F0EF02F0FFFF18EF03F008
:1005E000FFFF020E45C0D9FF46C0DAFFDE26000E2F
:1005F000DD2247C0D9FF48C0DAFFDFCF49F0020E45
:10060000DE26DFCF4AF0000EDD2249C0D9FF4AC006
:10061000DAFFDECF55F0DDCF56F0000E56BEFF0EEE
:10062000576E586E596E5A6E5B6E5C6E99EF02F0A3
:10063000FFFF45C0D9FF46C0DAFFDECFF6FFDDCFB2
:10064000F7FF0800FFFFF550640AD8B42AEF03F063
:100650002DEF03F0FFFF42EF03F0FFFF45C0D9FF8E
:1006600046C0DAFFDECFF6FFDDCFF7FF0800FFFF61
:10067000F550690AD8A43FEF03F042EF03F0FFFF03
:1006800069EF03F0FFFF45C0D9FF46C0DAFFDE2A5D
:10069000000EDD2247C0D9FF48C0DAFFDFCF49F0A6
:1006A000020EDE26DFCF4AF0000EDD2249C0D9FF60
:1006B0004AC0DAFFDECF55F0DDCF56F0000E56BE51
:1006C000FF0E576E586E596E5A6E5B6E5C6E99EFE8
:1006D00002F0FFFF45C0D9FF46C0DAFFDECF01F0D0
:1006E000DDCF02F0E90E036E7F0E046E000E066E83
:1006F000020E056EDAEC3DF001500210D8B483EF23
:1007000003F086EF03F0FFFFA3EF03F0FFFF45C008
:10071000D9FF46C0DAFFDECF01F0DDCF02F0EC0EEC
:10072000036E7F0E046E000E066E020E056EDAEC8E
:100730003DF001500210D8A4A0EF03F0A3EF03F0A6
:10074000FFFFCCEF03F0FFFF020E45C0D9FF46C00C
:10075000DAFFDE26000EDD2247C0D9FF48C0DAFFEF
:10076000DFCF49F0020EDE26DFCF4AF0000EDD2299
:1007700049C0D9FF4AC0DAFFDECF4BF0DDCF4CF0E5
:100780004BC055F04CC056F0576A586A596A5A6ABD
:100790005B6A5C6A99EF02F0FFFF45C0D9FF46C073
:1007A000DAFFDECF01F0DDCF02F0DA0E036E7F0E4E
:1007B000046E000E066E030E056EDAEC3DF001507D
:1007C0000210D8A4E6EF03F0E9EF03F0FFFF2AEFF1
:1007D00004F0FFFF030E45C0D9FF46C0DAFFDE2656
:1007E000000EDD2247C0D9FF48C0DAFFDFCF49F055
:1007F000020EDE26DFCF4AF0000EDD2249C0D9FF0F
:100800004AC0DAFFDF504B6E4B50606E616A626A1D
:10081000636A646A656A666A676AFFFF43C01CF0C0
:1008200044C01DF060C01EF061C01FF062C020F027
:1008300063C021F064C022F065C023F066C024F0DC
:1008400067C025F018EC1AF01CC043F01DC044F03E
:1008500029EF0AF0FFFF45C0D9FF46C0DAFFDECF1F
:1008600001F0DDCF02F0DB0E036E7F0E046E000E92
:10087000066E020E056EDAEC3DF001500210D8A4AF
:1008800044EF04F047EF04F0FFFF70EF04F0FFFFC8
:10089000020E45C0D9FF46C0DAFFDE26000EDD227B
:1008A00047C0D9FF48C0DAFFDFCF49F0020EDE268D
:1008B000DFCF4AF0000EDD2249C0D9FF4AC0DAFF7F
:1008C000DECF4BF0DDCF4CF04BC060F04CC061F0A0
:1008D000626A636A646A656A666A676A0DEF04F051
:1008E000FFFF45C0D9FF46C0DAFFDECFF6FFDDCF00
:1008F000F7FF0800FFFFF5506F0AD8A482EF04F05D
:1009000085EF04F0FFFFADEF04F0FFFF45C0D9FF16
:1009100046C0DAFFDE2A000EDD2247C0D9FF48C0FC
:10092000DAFFDFCF49F0020EDE26DFCF4AF0000EFD
:10093000DD2249C0D9FF4AC0DAFFDECF4BF0DDCF60
:100940004CF04BC060F04CC061F0626A636A646A4C
:10095000656A666A676A0DEF04F0FFFF45C0D9FF5C
:1009600046C0DAFFDECF01F0DDCF02F0F20E036EFB
:100970007F0E046E000E066E020E056EDAEC3DF080
:1009800001500210D8A4C7EF04F0CAEF04F0FFFF33
:10099000F3EF04F0FFFF020E45C0D9FF46C0DAFFB7
:1009A000DE26000EDD2247C0D9FF48C0DAFFDFCFC8
:1009B00049F0020EDE26DFCF4AF0000EDD2249C0EC
:1009C000D9FF4AC0DAFFDECF4BF0DDCF4CF04BC091
:1009D00060F04CC061F0626A636A646A656A666A64
:1009E000676A0DEF04F0FFFF45C0D9FF46C0DAFF8C
:1009F000DECF01F0DDCF02F0D60E036E7F0E046E67
:100A0000000E066E030E056EDAEC3DF0015002108A
:100A1000D8A40DEF05F010EF05F0FFFF46EF05F04D
:100A2000FFFF030E45C0D9FF46C0DAFFDE26000EE9
:100A3000DD2247C0D9FF48C0DAFFDFCF49F0020E00
:100A4000DE26DFCF4AF0000EDD2249C0D9FF4AC0C2
:100A5000DAFFDECF5DF0DDCF5EF05DC0F6FF5EC099
:100A6000F7FFF86A050EF76404D084C0F5FF0C00A8
:100A700006D0F6CFE1FFF7CFE2FF84C0E7FFFFFF2C
:100A8000000E446E000E436E29EF0AF0FFFF45C0D2
:100A9000D9FF46C0DAFFDECF01F0DDCF02F0D70E7E
:100AA000036E7F0E046E000E066E020E056EDAEC0B
:100AB0003DF001500210D8A460EF05F063EF05F09F
:100AC000FFFF99EF05F0FFFF020E45C0D9FF46C0BA
:100AD000DAFFDE26000EDD2247C0D9FF48C0DAFF6C
:100AE000DFCF49F0020EDE26DFCF4AF0000EDD2216
:100AF00049C0D9FF4AC0DAFFDECF5DF0DDCF5EF03E
:100B00005DC0F6FF5EC0F7FFF86A050EF76407D018
:100B100084C0F5FF0D0085C0F5FF0C0008D0F6CFAE
:100B2000E1FFF7CFE2FF84C0E6FF85C0E7FF3FEFBC
:100B300005F0FFFF45C0D9FF46C0DAFFDECFF6FF64
:100B4000DDCFF7FF0800FFFFF5506E0AD8A4ABEF2A
:100B500005F0AEEF05F0FFFFE3EF05F0FFFF45C046
:100B6000D9FF46C0DAFFDE2A000EDD2247C0D9FFDA
:100B700048C0DAFFDFCF49F0020EDE26DFCF4AF0B1
:100B8000000EDD2249C0D9FF4AC0DAFFDECF5DF09A
:100B9000DDCF5EF05DC0F6FF5EC0F7FFF86A050EC0
:100BA000F76407D084C0F5FF0D0085C0F5FF0C0089
:100BB00008D0F6CFE1FFF7CFE2FF84C0E6FF85C0A3
:100BC000E7FF3FEF05F0FFFF45C0D9FF46C0DAFF62
:100BD000DECF01F0DDCF02F0EF0E036E7F0E046E6C
:100BE000000E066E020E056EDAEC3DF001500210AA
:100BF000D8A4FDEF05F000EF06F0FFFF36EF06F09A
:100C0000FFFF020E45C0D9FF46C0DAFFDE26000E08
:100C1000DD2247C0D9FF48C0DAFFDFCF49F0020E1E
:100C2000DE26DFCF4AF0000EDD2249C0D9FF4AC0E0
:100C3000DAFFDECF5DF0DDCF5EF05DC0F6FF5EC0B7
:100C4000F7FFF86A050EF76407D084C0F5FF0D00C2
:100C500085C0F5FF0C0008D0F6CFE1FFF7CFE2FF2B
:100C600084C0E6FF85C0E7FF3FEF05F0FFFF45C00A
:100C7000D9FF46C0DAFFDECFF6FFDDCFF7FF080071
:100C8000FFFFF550700AD8A448EF06F04BEF06F0CE
:100C9000FFFF8FEF06F0FFFF45C0D9FF46C0DAFF28
:100CA000DE2A000EDD2247C0D9FF48C0DAFFDFCFC1
:100CB00049F0020EDE26DFCF4AF0000EDD2249C0E9
:100CC000D9FF4AC0DAFFDECF4BF0DDCF4CF04BC08E
:100CD00060F04CC061F0626A636A646A656A666A61
:100CE000676A43C01CF044C01DF060C01EF061C0C4
:100CF0001FF062C020F063C021F064C022F065C024
:100D000023F066C024F067C025F0780E266E6DECE7
:100D100017F01CC043F01DC044F029EF0AF0FFFF9C
:100D200045C0D9FF46C0DAFFDECFF6FFDDCFF7FFC3
:100D30000800FFFFF550730AD8A4A1EF06F0A4EF56
:100D400006F0FFFFD0EF06F0FFFF45C0D9FF46C019
:100D5000DAFFDE2A000EDD2247C0D9FF48C0DAFFE5
:100D6000DFCF49F0020EDE26DFCF4AF0000EDD2293
:100D700049C0D9FF4AC0DAFFDECF4DF0DDCF4EF0DB
:100D800043C00AF044C00BF04DC00CF04EC00DF053
:100D900029EC1BF00AC043F00BC044F029EF0AF025
:100DA000FFFF45C0D9FF46C0DAFFDECF01F0DDCF3F
:100DB00002F0DE0E036E7F0E046E000E066E030E52
:100DC000056EDAEC3DF001500210D8A4EAEF06F00F
:100DD000EDEF06F0FFFF2EEF07F0FFFF030E45C01B
:100DE000D9FF46C0DAFFDE26000EDD2247C0D9FF5C
:100DF00048C0DAFFDFCF49F0020EDE26DFCF4AF02F
:100E0000000EDD2249C0D9FF4AC0DAFFDF504B6E29
:100E10004B50606E616A626A636A646A656A666A98
:100E2000676AFFFF43C01CF044C01DF060C01EF0A5
:100E300061C01FF062C020F063C021F064C022F0E6
:100E400065C023F066C024F067C025F003EC19F0FC
:100E50001CC043F01DC044F029EF0AF0FFFF45C05D
:100E6000D9FF46C0DAFFDECF01F0DDCF02F0DF0EA2
:100E7000036E7F0E046E000E066E020E056EDAEC37
:100E80003DF001500210D8A448EF07F04BEF07F0F7
:100E9000FFFF74EF07F0FFFF020E45C0D9FF46C009
:100EA000DAFFDE26000EDD2247C0D9FF48C0DAFF98
:100EB000DFCF49F0020EDE26DFCF4AF0000EDD2242
:100EC00049C0D9FF4AC0DAFFDECF4BF0DDCF4CF08E
:100ED0004BC060F04CC061F0626A636A646A656A24
:100EE000666A676A11EF07F0FFFF45C0D9FF46C089
:100EF000DAFFDECFF6FFDDCFF7FF0800FFFFF5508A
:100F0000750AD8A486EF07F089EF07F0FFFFB1EF6D
:100F100007F0FFFF45C0D9FF46C0DAFFDE2A000E0A
:100F2000DD2247C0D9FF48C0DAFFDFCF49F0020E0B
:100F3000DE26DFCF4AF0000EDD2249C0D9FF4AC0CD
:100F4000DAFFDECF4BF0DDCF4CF04BC060F04CC091
:100F500061F0626A636A646A656A666A676A11EF69
:100F600007F0FFFF45C0D9FF46C0DAFFDECF01F032
:100F7000DDCF02F0F50E036E7F0E046E000E066EDE
:100F8000020E056EDAEC3DF001500210D8A4CBEF52
:100F900007F0CEEF07F0FFFFF7EF07F0FFFF020EBD
:100FA00045C0D9FF46C0DAFFDE26000EDD2247C06D
:100FB000D9FF48C0DAFFDFCF49F0020EDE26DFCFCF
:100FC0004AF0000EDD2249C0D9FF4AC0DAFFDECF69
:100FD0004BF0DDCF4CF04BC060F04CC061F0626A6A
:100FE000636A646A656A666A676A11EF07F0FFFF01
:100FF00045C0D9FF46C0DAFFDECF01F0DDCF02F0F9
:10100000E20E036E7F0E046E000E066E030E056E7A
:10101000DAEC3DF001500210D8B411EF08F014EFF3
:1010200008F0FFFF31EF08F0FFFF45C0D9FF46C0D1
:10103000DAFFDECF01F0DDCF02F0CA0E036E7F0EC5
:10104000046E000E066E030E056EDAEC3DF00150E4
:101050000210D8A42EEF08F031EF08F0FFFF88EF60
:1010600008F0FFFF45C0D9FF46C0DAFFDECF49F0E8
:10107000DDCF4AF0020E4926000E4A2249C0F6FF93
:101080004AC0F7FF0800FFFFF5CF5FF0030E45C031
:10109000D9FF46C0DAFFDE26000EDD2247C0D9FFA9
:1010A00048C0DAFFDFCF49F0020EDE26DFCF4AF07C
:1010B000000EDD2249C0D9FF4AC0DAFFDF504B6E77
:1010C0004B50606E616A626A636A646A656A666AE6
:1010D000676AFFFF43C01CF044C01DF060C01EF0F3
:1010E00061C01FF062C020F063C021F064C022F034
:1010F00065C023F066C024F067C025F05FC026F00D
:101100006DEC17F01CC043F01DC044F029EF0AF04D
:10111000FFFF45C0D9FF46C0DAFFDECF01F0DDCFCB
:1011200002F0E30E036E7F0E046E000E066E020EDA
:10113000056EDAEC3DF001500210D8B4A2EF08F0D1
:10114000A5EF08F0FFFFC2EF08F0FFFF45C0D9FF91
:1011500046C0DAFFDECF01F0DDCF02F0CB0E036E2A
:101160007F0E046E000E066E020E056EDAEC3DF088
:1011700001500210D8A4BFEF08F0C2EF08F0FFFF43
:10118000FFEF08F0FFFF45C0D9FF46C0DAFFDECF12
:1011900049F0DDCF4AF0010E4926000E4A2249C02F
:1011A000F6FF4AC0F7FF0800FFFFF5CF5FF0020E21
:1011B00045C0D9FF46C0DAFFDE26000EDD2247C05B
:1011C000D9FF48C0DAFFDFCF49F0020EDE26DFCFBD
:1011D0004AF0000EDD2249C0D9FF4AC0DAFFDECF57
:1011E0004BF0DDCF4CF04BC060F04CC061F0626A58
:1011F000636A646A656A666A676A69EF08F0FFFF96
:1012000045C0D9FF46C0DAFFDECFF6FFDDCFF7FFDE
:101210000800FFFFF550780AD8B411EF09F014EF79
:1012200009F0FFFF29EF09F0FFFF45C0D9FF46C0D5
:10123000DAFFDECFF6FFDDCFF7FF0800FFFFF55046
:10124000580AD8A426EF09F029EF09F0FFFF5DEF57
:1012500009F0FFFF45C0D9FF46C0DAFFDECFF6FF39
:10126000DDCFF7FF0800FFFFF5CF5FF045C0D9FFE6
:1012700046C0DAFFDE2A000EDD2247C0D9FF48C093
:10128000DAFFDFCF49F0020EDE26DFCF4AF0000E94
:10129000DD2249C0D9FF4AC0DAFFDECF4BF0DDCFF7
:1012A0004CF04BC060F04CC061F0626A636A646AE3
:1012B000656A666A676A69EF08F0FFFF45C0D9FF93
:1012C00046C0DAFFDECF01F0DDCF02F0F80E036E8C
:1012D0007F0E046E000E066E020E056EDAEC3DF017
:1012E00001500210D8B477EF09F07AEF09F0FFFF50
:1012F00097EF09F0FFFF45C0D9FF46C0DAFFDECF08
:1013000001F0DDCF02F0E60E036E7F0E046E000EDC
:10131000066E020E056EDAEC3DF001500210D8A404
:1013200094EF09F097EF09F0FFFFD4EF09F0FFFF0A
:1013300045C0D9FF46C0DAFFDECF49F0DDCF4AF025
:10134000010E4926000E4A2249C0F6FF4AC0F7FFA7
:101350000800FFFFF5CF5FF0020E45C0D9FF46C081
:10136000DAFFDE26000EDD2247C0D9FF48C0DAFFD3
:10137000DFCF49F0020EDE26DFCF4AF0000EDD227D
:1013800049C0D9FF4AC0DAFFDECF4BF0DDCF4CF0C9
:101390004BC060F04CC061F0626A636A646A656A5F
:1013A000666A676A69EF08F0FFFF45C0D9FF46C06B
:1013B000DAFFDECFF6FFDDCFF7FF0800FFFFF550C5
:1013C000250AD8A4E6EF09F0E9EF09F0FFFF02EFE4
:1013D0000AF0FFFF45C0D9FF46C0DAFFDE2A000E43
:1013E000DD22000E026E250E016E43C003F044C0E4
:1013F00004F085EC3BF0FFFF000E446E010E436EDF
:1014000029EF0AF0FFFF45C0D9FF46C0DAFFDE2A08
:10141000000EDD223FEF05F0FFFF45C0D9FF46C0BB
:10142000DAFFDECFF6FFDDCFF7FF0800FFFFF55054
:10143000016E026A43C003F044C004F085EC3BF047
:1014400045C0D9FF46C0DAFFDE2A000EDD22FBEFE1
:1014500009F0FFFF1200FFFFFFFF3650800B3F6EC9
:1014600036503624416E35AE38EF0AF03BEF0AF0C5
:10147000FFFF3DEF0AF0FFFF4180FFFF4150D8B46E
:1014800044EF0AF047EF0AF0FFFF60EF0AF0FFFFBA
:101490004128D8A44EEF0AF051EF0AF0FFFF5AEFAF
:1014A0000AF0FFFF000E336E000E346E000E356E34
:1014B000000E366EFFFF358E000E366E69EF0AF0B5
:1014C000FFFF000E336E000E346E000E356E000E00
:1014D000366EFFFF3A50800B406E3F504018D8B434
:1014E00074EF0AF077EF0AF0FFFF79EF0AF0FFFFE1
:1014F0003F8CFFFF3A503A24406E39AE82EF0AF03B
:1015000085EF0AF0FFFF87EF0AF0FFFF4080FFFF43
:101510004050D8B48EEF0AF091EF0AF0FFFFAAEF27
:101520000AF0FFFF4028D8A498EF0AF09BEF0AF0DA
:10153000FFFFA4EF0AF0FFFF000E376E000E386EBB
:10154000000E396E000E3A6EFFFF398E000E3A6EB5
:10155000B3EF0AF0FFFF000E376E000E386E000E7C
:10156000396E000E3A6EFFFF4150405CD8B0BBEFC1
:101570000AF0BEEF0AF0FFFFE9EF0AF0FFFF3FAC11
:10158000C4EF0AF0C7EF0AF0FFFFCAEF0AF0FFFF4F
:10159000800E3F1AFFFF41C042F040C041F042C000
:1015A00040F033C042F037C033F042C037F034C0AF
:1015B00042F038C034F042C038F035C042F039C093
:1015C00035F042C039F036C042F03AC036F042C081
:1015D0003AF0FFFF000E426E415040C03BF03C6AC3
:1015E0003B5E000E3C5A3CBEFFEF0AF03C500AE165
:1015F0001A0E3B5CD8A0FFEF0AF002EF0BF0FFFFE2
:1016000045EF0BF0FFFF3350341035103610D8A4DF
:101610000CEF0BF010EF0BF0FFFF010E12EF0BF0D1
:10162000FFFF000EFFFF426E000E336E000E346EA1
:10163000000E356E000E366E40C041F050EF0BF0DC
:10164000FFFF42A026EF0BF029EF0BF0FFFF30EF7A
:101650000BF0FFFFD89042300109426E33EF0BF0E0
:10166000FFFFD8904232FFFF33A039EF0BF03CEF81
:101670000BF0FFFF3EEF0BF0FFFF428EFFFF363413
:101680003632353234323332412AFFFF4050415C2A
:10169000D8A04DEF0BF050EF0BF0FFFF20EF0BF059
:1016A000FFFF3FBC56EF0BF059EF0BF0FFFFA6EF2B
:1016B0000BF0FFFF4150D8A460EF0BF063EF0BF08D
:1016C000FFFF6EEF0BF0FFFF000E336E000E346E67
:1016D000000E356E000E366EFDEF0CF0FFFF37503A
:1016E000332638503422395035223A50362236A02B
:1016F0007CEF0BF07FEF0BF0FFFF4AEF0CF0FFFFEA
:1017000042A085EF0BF088EF0BF0FFFF8FEF0BF09F
:10171000FFFFD89042300109426E92EF0BF0FFFFBD
:10172000D8904232FFFF33A098EF0BF09BEF0BF005
:10173000FFFF9DEF0BF0FFFF428EFFFF3634363286
:10174000353234323332412A4AEF0CF0FFFF375042
:10175000335C38503458395035583650800A3B6E17
:101760003A50800A3B58D8B0B8EF0BF0BBEF0BF003
:10177000FFFFE9EF0BF0FFFF3350375C3B6E345057
:1017800038583C6E355039583D6E36503A583E6E9A
:10179000FF0E3B24336EFF0E3C20346EFF0E3D20C7
:1017A000356EFF0E3E20366E800E3F1A426C425060
:1017B000D8A4DDEF0BF0E0EF0BF0FFFFF2EF0BF042
:1017C000FFFF010E3326000E342235223622F2EFBF
:1017D0000BF0FFFF3750335E3850345A3950355ACA
:1017E0003A50365AFFFF3350341035103610D8A413
:1017F000FCEF0BF0FFEF0BF0FFFF41EF0CF0FFFFF2
:101800004250D8A406EF0CF009EF0CF0FFFF41EFB7
:101810000CF0FFFF000E336E000E346E000E356EBE
:10182000000E366EFDEF0CF0FFFFD89033363436E5
:101830003536363642AE1FEF0CF022EF0CF0FFFFCC
:1018400024EF0CF0FFFF3380FFFF42A02AEF0CF0E3
:101850002DEF0CF0FFFF32EF0CF0FFFFD880423687
:1018600035EF0CF0FFFFD8904236FFFF4150D8B45F
:101870003CEF0CF03FEF0CF0FFFF41EF0CF0FFFFEF
:101880004106FFFF35AE47EF0CF04AEF0CF0FFFFCB
:1018900014EF0CF0FFFF000E406E42AE52EF0CF062
:1018A00055EF0CF0FFFF74EF0CF0FFFF42C03BF070
:1018B0007F0E3B16D8B45FEF0CF062EF0CF0FFFF29
:1018C00068EF0CF0FFFFFFFF010E406E74EF0CF0AD
:1018D000FFFF33A06EEF0CF071EF0CF0FFFF74EF21
:1018E0000CF0FFFF63EF0CF0FFFF4050D8B47BEF2C
:1018F0000CF07EEF0CF0FFFFAEEF0CF0FFFF010EDF
:101900003326000E34223522362236A08AEF0CF020
:101910008DEF0CF0FFFFAEEF0CF0FFFF33C03BF09C
:1019200034C03CF035C03DF036C03EF03E343E326F
:101930003D323C323B323BC033F03CC034F03DC022
:1019400035F03EC036F04128D8B4A9EF0CF0ACEF2A
:101950000CF0FFFFAEEF0CF0FFFF412AFFFF412824
:10196000D8B4B5EF0CF0B8EF0CF0FFFFC2EF0CF0FD
:10197000FFFF4150D8A4BFEF0CF0C2EF0CF0FFFF07
:10198000D7EF0CF0FFFF000E336E000E346E000E2A
:10199000356E000E366E4150D8A4D1EF0CF0D4EF66
:1019A0000CF0FFFFD7EF0CF0FFFF000E3F6EFFFFC4
:1019B00041A0DDEF0CF0E0EF0CF0FFFFE4EF0CF0E6
:1019C000FFFF358EE6EF0CF0FFFF359EFFFFD8904E
:1019D0004130366E3FAEEFEF0CF0F2EF0CF0FFFF50
:1019E000F4EF0CF0FFFF368EFFFF33C033F034C04E
:1019F00034F035C035F036C036F0FFFF1200FFFF7F
:101A0000FFFF8FEC36F0F8EC36F0B2EC3AF02EEC4B
:101A100036F0F2EC35F0B90E016E010E026E000EDA
:101A2000046E000E036E000E066E000E056E000EB4
:101A3000086E010E076EDD0E096E010E0A6EF9ECDE
:101A400039F0AB0E016E010E026E000E046E000E38
:101A5000036E000E066E000E056E000E086E010E7F
:101A6000076ED50E096E010E0A6EF9EC39F076ECB0
:101A700039F00C0E50EC36F0010E50EC36F0800EC2
:101A800050EC36F09B0E036E7F0E046EB5EC39F011
:101A9000F28E000E0101A66F000EA56FFFFF01017F
:101AA000AA51D8B456EF0DF059EF0DF0FFFFB3EF88
:101AB0000DF0FFFFA851D8B460EF0DF063EF0DF00B
:101AC000FFFF86EF0DF0FFFFFEEC35F00101A06F88
:101AD000750EA019D8A46FEF0DF072EF0DF0FFFF97
:101AE00076EF0DF0FFFFA0511EEC36F0FFFF010175
:101AF000A0511EEC36F0C70E036E010E046E0101FC
:101B0000A051DCEC3CF0000E0101A86FFFFF000EBD
:101B10000001BC6F010EBD6F000EBF6FA00EBE6F47
:101B2000FB0EC06F7F0EC16FD8900101C735D96E13
:101B3000C835DA6EC90ED926010EDA22DECFC2F020
:101B4000DDCFC3F0A5EC36F0010E50EC36F0800E80
:101B500050EC36F0000E036E010E046EB5EC39F059
:101B6000000E0101AA6FFFFF020EC719C811D8A409
:101B7000BCEF0DF0BFEF0DF0FFFFC3EF0DF0FFFF67
:101B800089824EEF0DF0FFFF8992C751C811D8A48A
:101B9000CCEF0DF0CFEF0DF0FFFFEAEF0DF0FFFF00
:101BA000A951D8A4D6EF0DF0D9EF0DF0FFFF4EEFFD
:101BB0000DF0FFFFC70E016E010E026E5AEC3DF0F4
:101BC0001EEC36F0010E0101A96F4EEF0DF0FFFF84
:101BD0004EEF0DF0FFFFC705C811D8A4F2EF0DF0CE
:101BE000F5EF0DF0FFFF06EF0EF0FFFF000EC86FE0
:101BF000020EC76F010EAA6FC70E016E010E026EB4
:101C00005AEC3DF01EEC36F04EEF0DF0FFFF030EE8
:101C1000C719C811D8A40FEF0EF012EF0EF0FFFF96
:101C20003CEF0EF0FFFFA751D8B419EF0EF01CEFF8
:101C30000EF0FFFF2DEF0EF0FFFF000EC86F020E3B
:101C4000C76F010EAA6FC70E016E010E026E5AEC2D
:101C50003DF01EEC36F04EEF0DF0FFFFD5BE33EF3A
:101C60000EF036EF0EF0FFFFE7EF0DF0FFFFFFFF86
:101C70003FEC36F04EEF0DF0FFFF040EC719C81110
:101C8000D8A445EF0EF048EF0EF0FFFFCEEF0EF0B8
:101C9000FFFF030E7C6EEC0EFFFFE82EFDD77C2EBF
:101CA000FBD70101A351A411D8A459EF0EF05CEFAA
:101CB0000EF0FFFF77EF0EF0FFFFB90E076E010E7B
:101CC000086E000E0A6E320E096E3AEC39F00750BB
:101CD0000810D8B46EEF0EF071EF0EF0FFFF77EF43
:101CE0000EF0FFFF000E0101A46F010EA36FFFFFB6
:101CF0000101A351A411D8B480EF0EF083EF0EF0D0
:101D0000FFFFA9EF0EF0FFFFA151A211D8A48BEFA6
:101D10000EF08EEF0EF0FFFFA9EF0EF0FFFFAB0EFF
:101D2000076E010E086E000E0A6E640E096E3AEC24
:101D300039F007500810D8B4A0EF0EF0A3EF0EF062
:101D4000FFFFA9EF0EF0FFFF000E0101A26F010ED1
:101D5000A16FFFFFA1C101F0A2C102F0A3C103F076
:101D6000A4C104F07AEC36F001500210D8B4BBEFF5
:101D70000EF0BEEF0EF0FFFF4EEF0DF0FFFF000E76
:101D80000101C86F020EC76F000EA46F000EA36F93
:101D9000000EA26F000EA16F4EEF0DF0FFFF050EBB
:101DA000C719C811D8A4D7EF0EF0DAEF0EF0FFFF75
:101DB00033EF0FF0FFFF030E7C6EEC0EFFFFE82EFB
:101DC000FDD77C2EFBD7B90E076E010E086E000EF4
:101DD0000A6E640E096E3AEC39F007500810D8B458
:101DE000F4EF0EF0F7EF0EF0FFFF01EF0FF0FFFF43
:101DF000B90E016E010E026EBFEC36F00101A54B6B
:101E0000A62BFFFF0101A6BF0FEF0FF0A6510AE1BD
:101E1000140EA55DD8A00FEF0FF012EF0FF0FFFF2B
:101E20004EEF0DF0FFFF000EC86F020EC76F000EE1
:101E3000A66F000EA56FB90E016E010E026E000EA8
:101E4000046E000E036E000E066E000E056E000E90
:101E5000086E010E076EDD0E096E010E0A6EF9ECBA
:101E600039F04EEF0DF0FFFF060EC719C811D8A4C8
:101E70003CEF0FF03FEF0FF0FFFF42EF0FF0FFFFDF
:101E80004EEF0DF0FFFF070EC719C811D8A44BEF96
:101E90000FF04EEF0FF0FFFFE7EF0DF0FFFFA75140
:101EA000D8B455EF0FF058EF0FF0FFFF69EF0FF0C8
:101EB000FFFF000EC86F020EC76F010EAA6FC70E9C
:101EC000016E010E026E5AEC3DF01EEC36F04EEF44
:101ED0000DF0FFFFD5BE6FEF0FF072EF0FF0FFFFB9
:101EE000E7EF0DF0FFFF37EF0EF03BEF00F0FFFFE5
:101EF0000450800B0D6E04500424136E03AE83EF68
:101F00000FF086EF0FF0FFFF88EF0FF0FFFF138059
:101F1000FFFF1350D8B48FEF0FF092EF0FF0FFFFD9
:101F2000A9EF0FF0FFFF1328D8A499EF0FF09CEF53
:101F30000FF0FFFFA5EF0FF0FFFF000E016E000E88
:101F4000026E000E036E000E046EFFFF038EB2EFF2
:101F50000FF0FFFF000E016E000E026E000E036E0A
:101F6000000E046EFFFF0850800B0D1A0850082465
:101F7000126E07AEBEEF0FF0C1EF0FF0FFFFC3EF21
:101F80000FF0FFFF1280FFFF1250D8B4CAEF0FF01E
:101F9000CDEF0FF0FFFFE4EF0FF0FFFF1228D8A402
:101FA000D4EF0FF0D7EF0FF0FFFFE0EF0FF0FFFFE0
:101FB000000E056E000E066E000E076E000E086E17
:101FC000FFFF078EEDEF0FF0FFFF000E056E000E16
:101FD000066E000E076E000E086EFFFF1250D8B49A
:101FE000F4EF0FF0F7EF0FF0FFFF01EF10F0FFFF3E
:101FF0001350D8A4FEEF0FF001EF10F0FFFF0CEF2D
:1020000010F0FFFF000E016E000E026E000E036E58
:10201000000E046EC6EF11F0FFFF07500102F3CF70
:1020200018F0F4CF19F018500E6E0F6A106A116A8A
:102030001950146E156A166A176A06500202F3CF19
:1020400018F0F4CF19F018500E26000E0F221022AF
:10205000112219501426000E15221622172205509F
:102060000302F3CF18F0F4CF19F018500E26000E2B
:102070000F221022112219501426000E15221622AA
:10208000172210C011F00FC010F00EC00FF00E6A32
:1020900005500202F3CF18F0F4CF19F018500E26B5
:1020A00019500F22000E1022000E112206500102BC
:1020B000F3CF18F0F4CF19F018500E2619500F2254
:1020C000000E1022000E112210C011F00FC010F0EF
:1020D0000EC00FF00E6A05500102F3CF18F0F4CFD6
:1020E00019F018500E2619500F22000E1022000E63
:1020F000112207500202F3CF18F0F4CF19F0185054
:10210000142619501522000E1622000E1722065012
:102110000302F3CF18F0F4CF19F018501426195019
:102120001522000E1622000E172207500302F3CFCD
:1021300018F0F4CF19F01850096E19500A6E0B6A96
:102140000C6A0BC00CF00AC00BF009C00AF0096A57
:10215000095014260A5015220B5016220C50172233
:102160000EC009F00FC00AF010C00BF011C00CF047
:10217000190EC1EF10F0FFFFD8900C320B320A326B
:102180000932FFFFE82EBBEF10F0095014260A5069
:1021900015220B5016220C50172210C011F00FC040
:1021A00010F00EC00FF00E6A125013C009F00A6A48
:1021B0000926000E0A22820E0924186EFF0E0A203C
:1021C000196EFCEF10F0FFFFD89014361536163656
:1021D000173611AEEEEF10F0F1EF10F0FFFFF3EF56
:1021E00010F0FFFF1480FFFFD8900E360F36103628
:1021F00011361806D8A01906FFFF16AE02EF11F02F
:1022000005EF11F0FFFFE3EF10F0FFFF000E126E7D
:1022100011AE0DEF11F010EF11F0FFFF3BEF11F0D9
:10222000FFFFFF0E0E14096EFF0E0F140A6EFF0E55
:1022300010140B6E7F0E11140C6E09500A100B1047
:102240000C10D8B426EF11F029EF11F0FFFF2FEF9B
:1022500011F0FFFFFFFF010E126E3BEF11F0FFFFC9
:1022600014A035EF11F038EF11F0FFFF3BEF11F044
:10227000FFFF2AEF11F0FFFF1250D8B442EF11F028
:1022800045EF11F0FFFF6CEF11F0FFFF010E142678
:10229000000E15221622172217A051EF11F054EF4D
:1022A00011F0FFFF6CEF11F0FFFF14C009F015C033
:1022B0000AF016C00BF017C00CF00C340C320B32C5
:1022C0000A32093209C014F00AC015F00BC016F02A
:1022D0000CC017F0184A192AFFFF19BE78EF11F049
:1022E000195009E11828D8A078EF11F07BEF11F010
:1022F000FFFF86EF11F0FFFF000E146E000E156E4B
:10230000800E166E7F0E176EBBEF11F0FFFF19BE29
:1023100095EF11F0195006E11804D8B092EF11F0C2
:1023200095EF11F0FFFFA2EF11F0FFFF000E146E0A
:10233000000E156E000E166E000E176E000E0D6E5E
:10234000BBEF11F0FFFF18C013F0FF0E1416FF0EC5
:1023500015167F0E1616000E171613A0B2EF11F009
:10236000B5EF11F0FFFFB7EF11F0FFFF168EFFFF83
:10237000D8901330176EFFFF0D50171214C001F0E4
:1023800015C002F016C003F017C004F0FFFF1200E2
:10239000FFFFFFFF1D50800B2A6E1D501D24316E64
:1023A0001CAED5EF11F0D8EF11F0FFFFDAEF11F00E
:1023B000FFFF3180FFFF3150D8B4E1EF11F0E4EFBF
:1023C00011F0FFFFFDEF11F0FFFF3128D8A4EBEF74
:1023D00011F0EEEF11F0FFFFF7EF11F0FFFF000E2D
:1023E0001A6E000E1B6E000E1C6E000E1D6EFFFF9F
:1023F0001C8E000E1D6E06EF12F0FFFF000E1A6E0F
:10240000000E1B6E000E1C6E000E1D6EFFFF215095
:10241000800B2A1A21502124326E20AE12EF12F0C6
:1024200015EF12F0FFFF17EF12F0FFFF3280FFFFF2
:102430003250D8B41EEF12F021EF12F0FFFF3AEF46
:1024400012F0FFFF3228D8A428EF12F02BEF12F081
:10245000FFFF34EF12F0FFFF000E1E6E000E1F6E26
:10246000000E206E000E216EFFFF208E000E216EEA
:1024700043EF12F0FFFF000E1E6E000E1F6E000EE7
:10248000206E000E216EFFFF1E501F102010211025
:10249000D8A44DEF12F050EF12F0FFFF6AEF12F0E8
:1024A000FFFF000E1A6E000E1B6E000E1C6E000E5B
:1024B0001D6E800E1C127F0E1D12FFFF2A501D1272
:1024C0001AC01AF01BC01BF01CC01CF01DC01DF070
:1024D000DFEF13F0FFFF3150D8A471EF12F074EF6B
:1024E00012F0FFFF7FEF12F0FFFF000E1A6E000EDA
:1024F0001B6E000E1C6E000E1D6EDFEF13F0FFFF53
:10250000325031C022F0236A225E000E235A7F0E21
:1025100022242B6E000E23202C6E1AC026F01BC026
:1025200027F01CC028F01DC029F0000E1A6E000E06
:102530001B6E000E1C6E000E1D6E000E2D6E000E2A
:102540002E6E000E2F6E000E306E000E326EEBEF10
:1025500012F0FFFF3250D8B4B0EF12F0B3EF12F028
:10256000FFFFCEEF12F0FFFFD89026362736283631
:102570002936D8901A361B361C361D3630AEC3EFBE
:1025800012F0C6EF12F0FFFFC8EF12F0FFFF1A8043
:10259000FFFFD8902D362E362F363036FFFF1E50D7
:1025A000265C1F5027582050285821502958D8A061
:1025B000DCEF12F0DFEF12F0FFFFE9EF12F0FFFFA8
:1025C000308C1E50265E1F50275A2050285A21500A
:1025D000295AFFFF322AFFFF190E3264F2EF12F080
:1025E000F5EF12F0FFFFA9EF12F0FFFF26502710C2
:1025F00028102910D8B4FFEF12F002EF13F0FFFFFC
:102600001FEF13F0FFFF2D801FEF13F0FFFFD89097
:102610001A361B361C361D3630AE11EF13F014EF90
:1026200013F0FFFF16EF13F0FFFF1A80FFFFD890A3
:102630002D362E362F3630362B06D8A02C06FFFF2F
:102640001CAE25EF13F028EF13F0FFFF06EF13F099
:10265000FFFF000E326E30AE30EF13F033EF13F0A9
:10266000FFFF5EEF13F0FFFFFF0E2D14226EFF0E33
:102670002E14236EFF0E2F14246E7F0E3014256E41
:102680002250231024102510D8B449EF13F04CEF3A
:1026900013F0FFFF52EF13F0FFFFFFFF010E326E4A
:1026A0005EEF13F0FFFF1AA058EF13F05BEF13F08B
:1026B000FFFF5EEF13F0FFFF4DEF13F0FFFF32500F
:1026C000D8B465EF13F068EF13F0FFFF8FEF13F04E
:1026D000FFFF010E1A26000E1B221C221D221DA028
:1026E00074EF13F077EF13F0FFFF8FEF13F0FFFF9E
:1026F0001AC022F01BC023F01CC024F01DC025F01E
:102700002534253224322332223222C01AF023C04B
:102710001BF024C01CF025C01DF02B4A2C2AFFFF03
:102720002CBE9BEF13F02C5009E12B28D8A09BEF77
:1027300013F09EEF13F0FFFFAAEF13F0FFFF000E60
:102740002C6E2B68000E1A6E000E1B6E000E1C6E97
:10275000000E1D6EFFFF2CBEB9EF13F02C5006E1EA
:102760002B04D8B0B6EF13F0B9EF13F0FFFFC8EFAA
:1027700013F0FFFF000E2C6E000E2B6E000E1A6E73
:10278000000E1B6E000E1C6E000E1D6E000E2A6EDB
:10279000FFFF2BC031F031A0D0EF13F0D3EF13F0D7
:1027A000FFFFD7EF13F0FFFF1C8ED9EF13F0FFFFF1
:1027B0001C9EFFFFD89031301D6E5DEF12F0FFFFC1
:1027C0001200FFFFFFFF80C05DF081C05EF082C09D
:1027D0005FF083C060F04BC05DF04CC05EF04DC058
:1027E0005FF04EC060F05DC04FF05EC050F05FC063
:1027F00051F060C052F0180E04EF14F0FFFFD890B3
:102800005232513250324F32FFFFE82EFEEF13F0BA
:102810004F50576E586A58BE17EF14F058500AE1DF
:10282000960E575CD8A017EF14F01AEF14F0FFFFC4
:1028300025EF14F0FFFF4BC04BF04CC04CF04DC0E7
:102840004DF04EC04EF0D2EF15F0FFFF5DC04FF0DF
:102850005EC050F05FC051F060C052F0200E37EF04
:1028600014F0FFFFD8905232513250324F32FFFFF6
:10287000E82E31EF14F04F50501051105210D8B4D0
:1028800044EF14F047EF14F0FFFF5AEF14F0FFFF8E
:102890004BC001F04CC002F04DC003F04EC004F03C
:1028A00018EC37F001C04BF002C04CF003C04DF003
:1028B00004C04EF0FFFF58BE6AEF14F0585007E115
:1028C0007E0E575CD8B067EF14F06AEF14F0FFFF8C
:1028D00087EF14F0FFFF5DC001F05EC002F05FC043
:1028E00003F060C004F0000E056E000E066E000ED0
:1028F000076E000E086E77EC0FF001C04BF002C0BF
:102900004CF003C04DF004C04EF0D2EF15F0FFFFC5
:10291000000E376E000E386E000E396E4B0E3A6E9A
:102920004BC033F04CC034F04DC035F04EC036F0E3
:102930002CEC0AF033C059F034C05AF035C05BF0CB
:1029400036C05CF0000E376E000E386E000E396E29
:10295000CB0E3A6E59C033F05AC034F05BC035F03C
:102960005CC036F02CEC0AF033C053F034C054F0A5
:1029700035C055F036C056F053C043F054C044F053
:1029800055C045F056C046F04BC047F04CC048F02B
:102990004DC049F04EC04AF0BFEC37F043C061F083
:1029A00044C062F045C063F046C064F0000E016EA2
:1029B000000E026E000E036E3F0E046E61C005F045
:1029C00062C006F063C007F064C008F0E3EC3EF0BC
:1029D000D8B0EDEF14F0F0EF14F0FFFF27EF15F093
:1029E000FFFF4BC037F04CC038F04DC039F04EC03F
:1029F0003AF061C033F062C034F063C035F064C0B7
:102A000036F02CEC0AF033C059F034C05AF035C01F
:102A10005BF036C05CF059C033F05AC034F05BC094
:102A200035F05CC036F0000E376E000E386E800E4A
:102A3000396EBF0E3A6E2CEC0AF033C061F034C030
:102A400062F035C063F036C064F094EF15F0FFFF1C
:102A5000000E016E000E026E000E036EBF0E046EBD
:102A600061C005F062C006F063C007F064C008F002
:102A7000E3EC3EF0D8A03FEF15F042EF15F0FFFF7A
:102A800079EF15F0FFFF4BC037F04CC038F04DC068
:102A900039F04EC03AF061C033F062C034F063C028
:102AA00035F064C036F02CEC0AF033C059F034C075
:102AB0005AF035C05BF036C05CF059C033F05AC0F4
:102AC00034F05BC035F05CC036F0000E376E000E9F
:102AD000386E800E396E3F0E3A6E2CEC0AF033C021
:102AE00061F034C062F035C063F036C064F094EF3A
:102AF00015F0FFFF61C033F062C034F063C035F001
:102B000064C036F04BC037F04CC038F04DC039F0DF
:102B10004EC03AF02CEC0AF033C061F034C062F0E1
:102B200035C063F036C064F0FFFF5DC04FF05EC09B
:102B300050F05FC051F060C052F0200EA6EF15F0CB
:102B4000FFFFD8905232513250324F32FFFFE82E01
:102B5000A0EF15F04F50501051105210D8B4B3EFF1
:102B600015F0B6EF15F0FFFFC9EF15F0FFFF61C0DC
:102B700001F062C002F063C003F064C004F018EC1E
:102B800037F001C061F002C062F003C063F004C01E
:102B900064F0FFFF61C04BF062C04CF063C04DF0C9
:102BA00064C04EF0FFFF1200FFFFFFFF1EC036F0B3
:102BB0001FC037F020C038F021C039F022C03AF0F1
:102BC00023C03BF024C03CF025C03DF03DBEEBEF00
:102BD00015F0EFEF15F0FFFF010EF1EF15F0FFFF1D
:102BE000000EFFFF346E356A34503510D8B4FBEF59
:102BF00015F0FEEF15F0FFFF0FEF16F0FFFF3D1E83
:102C00003C1E3B1E3A1E391E381E371E366C000E07
:102C10003722382239223A223B223C223D22FFFF32
:102C2000000189BF16EF16F019EF16F0FFFF1BEF3A
:102C300016F0FFFF7D92FFFF89BF2AEF16F0895142
:102C400006E18805D8B027EF16F02AEF16F0FFFF4F
:102C500031EF16F0FFFF000E316E010E306E36EFD1
:102C600016F0FFFF88C030F089C031F0FFFF86C04A
:102C700032F087C033F034503510D8A442EF16F04C
:102C800045EF16F0FFFF4EEF16F0FFFF7DA44BEF70
:102C900016F04EEF16F0FFFF52EF16F0FFFF320670
:102CA000D8A03306FFFF000E3F6E1F0E3E6E000ED3
:102CB000B16FD8EF16F0FFFF3E06D8A03F06920E88
:102CC0003E24D96E000E3F20DA6E36C001F037C0C8
:102CD00002F038C003F039C004F03AC005F03BC040
:102CE00006F03CC007F03DC008F00A0E096E000E69
:102CF0000A6E000E0B6E000E0C6E000E0D6E000EB6
:102D00000E6E000E0F6E000E106ED2EC1DF001C0A4
:102D100026F002C027F003C028F004C029F005C047
:102D20002AF006C02BF007C02CF008C02DF026C0FA
:102D300013F028C014F0E4EC37F01350300FDF6EBE
:102D40003006D8A031063206D8A0330636C001F0CE
:102D500037C002F038C003F039C004F03AC005F0C3
:102D60003BC006F03CC007F03DC008F00A0E096EFB
:102D7000000E0A6E000E0B6E000E0C6E000E0D6E35
:102D8000000E0E6E000E0F6E000E106EF8EC1CF0B2
:102D900001C036F002C037F003C038F004C039F08B
:102DA00005C03AF006C03BF007C03CF008C03DF05B
:102DB000FFFF3FBEE4EF16F03F5009E13E04D8A00C
:102DC000E4EF16F0E7EF16F0FFFF1FEF17F0FFFF3D
:102DD00036503710381039103A103B103C103D1067
:102DE000D8A4F5EF16F0F8EF16F0FFFF5BEF16F042
:102DF000FFFF31BE07EF17F0315006E13004D8B0C5
:102E000004EF17F007EF17F0FFFF5BEF16F0FFFF7F
:102E100033BE13EF17F0335009E13204D8A013EF9B
:102E200017F016EF17F0FFFF1FEF17F0FFFF7DB24F
:102E30001CEF17F01FEF17F0FFFF5BEF16F0FFFF1F
:102E400034503510D8A427EF17F02AEF17F0FFFF02
:102E500033EF17F0FFFF7DA430EF17F033EF17F0DB
:102E6000FFFF56EF17F0FFFF3E06D8A03F06345095
:102E70003510D8A43EEF17F041EF17F0FFFF48EFF1
:102E800017F0FFFF000E2F6E2B0E2E6E4DEF17F07A
:102E9000FFFF000E2F6E2D0E2E6EFFFF920E3E24B2
:102EA000D96E000E3F20DA6E2EC0DFFFFFFF1CC080
:102EB00011F01DC012F0920E3E24136E000E3F2042
:102EC000146E32C015F033C016F0F6EC3BF011C0B2
:102ED0001CF012C01DF01200FFFFFFFF000189BFB0
:102EE00074EF17F077EF17F0FFFF79EF17F0FFFFA0
:102EF0007D92FFFF89BF88EF17F0895106E18805B1
:102F0000D8B085EF17F088EF17F0FFFF8FEF17F0BD
:102F1000FFFF000E346E010E336E94EF17F0FFFFCB
:102F200088C033F089C034F0FFFF86C035F087C019
:102F300036F07DA89EEF17F0A1EF17F0FFFFA6EF88
:102F400017F0FFFFFE0E3526FF0E3622FFFF1EC0D4
:102F500037F01FC038F020C039F021C03AF022C04D
:102F60003BF023C03CF024C03DF025C03EF0000EF5
:102F7000406E1F0E3F6E000EB16F84EF18F0FFFF22
:102F80003F06D8A040060F0E3714416E426A42BE7B
:102F9000D3EF17F042500AE10A0E415CD8A0D3EFFC
:102FA00017F0D6EF17F0FFFFDFEF17F0FFFF570E18
:102FB0004124416E000E4220426EE6EF17F0FFFF03
:102FC000300E4124416E000E4220426EFFFFBF0EC4
:102FD000276EFF0E286E2650296E2A6A2750292652
:102FE00028502A222A500BE11A0E295CD8A0FBEFA8
:102FF00017F0FFEF17F0FFFF010E01EF18F0FFFFD2
:10300000000EFFFF2F6E306A2F503010D8B40BEF38
:1030100018F00EEF18F0FFFF44EF18F0FFFF9F0EBF
:10302000276EFF0E286E200E4110296E000E4210F2
:103030002A6E2750292628502A222A500BE11A0EE0
:10304000295CD8A026EF18F02AEF18F0FFFF010E38
:103050002CEF18F0FFFF000EFFFF316E326A315087
:103060003210D8B436EF18F039EF18F0FFFF44EF04
:1030700018F0FFFF41C007F042C008F0CAEC38F07A
:1030800007C041F008C042F0FFFF920E3F24D96E06
:10309000000E4020DA6E41C0DFFF3306D8A03406B0
:1030A0003506D8A0360637C027F038C028F039C01A
:1030B00029F03AC02AF03BC02BF03CC02CF03DC0B8
:1030C0002DF03EC02EF0050E70EF18F0FFFFD890E7
:1030D0002E322D322C322B322A322932283227320C
:1030E000FFFFE82E66EF18F027C037F028C038F051
:1030F00029C039F02AC03AF02BC03BF02CC03CF07C
:103100002DC03DF02EC03EF0FFFF40BE91EF18F005
:1031100040500AE1020E3F5CD8A091EF18F094EF06
:1031200018F0FFFFCCEF18F0FFFF375038103910C0
:103130003A103B103C103D103E10D8A4A2EF18F0FE
:10314000A5EF18F0FFFFBFEF17F0FFFF34BEB4EF9D
:1031500018F0345006E13304D8B0B1EF18F0B4EFF2
:1031600018F0FFFFBFEF17F0FFFF36BEC0EF18F0FB
:10317000365009E13504D8A0C0EF18F0C3EF18F0BD
:10318000FFFFCCEF18F0FFFF7DB2C9EF18F0CCEFD6
:1031900018F0FFFFBFEF17F0FFFF7DA8D2EF18F088
:1031A000D5EF18F0FFFFECEF18F0FFFF3F06D8A0B7
:1031B0004006920E3F24D96E000E4020DA6E26C0E3
:1031C000DFFF3F06D8A04006920E3F24D96E000EC6
:1031D0004020DA6E300EDF6EFFFF1CC011F01DC004
:1031E00012F0920E3F24136E000E4020146E35C074
:1031F00015F036C016F0F6EC3BF011C01CF012C012
:103200001DF01200FFFFFFFF000189BF0AEF19F058
:103210000DEF19F0FFFF0FEF19F0FFFF7D92FFFF99
:1032200089BF1EEF19F0895106E18805D8B01BEF60
:1032300019F01EEF19F0FFFF25EF19F0FFFF000E48
:103240002F6E010E2E6E2AEF19F0FFFF88C02EF0B0
:1032500089C02FF0FFFF86C030F087C031F01EC05C
:1032600032F01FC033F020C034F021C035F022C04E
:1032700036F023C037F024C038F025C039F0000EF6
:103280003B6E1F0E3A6E000EB16FBEEF19F0FFFFDE
:103290003A06D8A03B06920E3A24D96E000E3B2087
:1032A000DA6E32C001F033C002F034C003F035C032
:1032B00004F036C005F037C006F038C007F039C05A
:1032C00008F00A0E096E000E0A6E000E0B6E000E5C
:1032D0000C6E000E0D6E000E0E6E000E0F6E000EC8
:1032E000106E67EC3CF001C026F002C027F003C06E
:1032F00028F004C029F005C02AF006C02BF007C052
:103300002CF008C02DF02650300FDF6E2E06D8A00E
:103310002F063006D8A0310632C001F033C002F0CB
:1033200034C003F035C004F036C005F037C006F0F5
:1033300038C007F039C008F00A0E096E000E0A6E98
:10334000000E0B6E000E0C6E000E0D6E000E0E6E5B
:10335000000E0F6E000E106E5EEC3EF001C032F0FB
:1033600002C033F003C034F004C035F005C036F0BD
:1033700006C037F007C038F008C039F0FFFF3A50F8
:103380003B10D8B4C6EF19F0C9EF19F0FFFF01EFF9
:103390001AF0FFFF3250331034103510361037104A
:1033A00038103910D8A4D7EF19F0DAEF19F0FFFF71
:1033B00047EF19F0FFFF2FBEE9EF19F02F5006E19C
:1033C0002E04D8B0E6EF19F0E9EF19F0FFFF47EF50
:1033D00019F0FFFF31BEF5EF19F0315009E130046B
:1033E000D8A0F5EF19F0F8EF19F0FFFF01EF1AF090
:1033F000FFFF7DB2FEEF19F001EF1AF0FFFF47EF7C
:1034000019F0FFFF1CC011F01DC012F0920E3A24FB
:10341000136E000E3B20146E30C015F031C016F054
:10342000F6EC3BF011C01CF012C01DF01200FFFFC3
:10343000FFFF000189BF1FEF1AF022EF1AF0FFFF14
:1034400024EF1AF0FFFF7D92FFFF89BF33EF1AF0E0
:10345000895106E18805D8B030EF1AF033EF1AF041
:10346000FFFF3AEF1AF0FFFF000E2F6E010E2E6ED7
:103470003FEF1AF0FFFF88C02EF089C02FF0FFFF4A
:1034800086C032F087C033F01EC034F01FC035F064
:1034900020C036F021C037F022C038F023C039F008
:1034A00024C03AF025C03BF0000E3D6E1F0E3C6E6E
:1034B000000EB16F000E316E000E306EA8EF1AF0E4
:1034C000FFFF3C06D8A03D06070E3414306E316A6B
:1034D000920E3C24D96E000E3D20DA6E3050300F33
:1034E000DF6E2E06D8A02F063206D8A0330634C0D1
:1034F00026F035C027F036C028F037C029F038C094
:103500002AF039C02BF03AC02CF03BC02DF0040E4D
:1035100094EF1AF0FFFFD8902D322C322B322A3242
:103520002932283227322632FFFFE82E8AEF1AF09E
:1035300026C034F027C035F028C036F029C037F057
:103540002AC038F02BC039F02CC03AF02DC03BF027
:10355000FFFF3DBEB4EF1AF03D5009E13C04D8A096
:10356000B4EF1AF0B7EF1AF0FFFFEFEF1AF0FFFF1A
:103570003450351036103710381039103A103B10CF
:10358000D8A4C5EF1AF0C8EF1AF0FFFF60EF1AF0E9
:10359000FFFF2FBED7EF1AF02F5006E12E04D8B050
:1035A000D4EF1AF0D7EF1AF0FFFF60EF1AF0FFFF29
:1035B00033BEE3EF1AF0335009E13204D8A0E3EF51
:1035C0001AF0E6EF1AF0FFFFEFEF1AF0FFFF7DB2FF
:1035D000ECEF1AF0EFEF1AF0FFFF60EF1AF0FFFFC9
:1035E0007DA8F5EF1AF0F8EF1AF0FFFF12EF1BF0CD
:1035F000FFFF30503110D8B400EF1BF003EF1BF089
:10360000FFFF12EF1BF0FFFF3C06D8A03D06920E15
:103610003C24D96E000E3D20DA6E300EDF6E32068D
:10362000D8A03306FFFF1CC011F01DC012F0920E8F
:103630003C24136E000E3D20146E32C015F033C0D2
:1036400016F0F6EC3BF011C01CF012C01DF0120099
:10365000FFFFFFFF20EEC8F010EE0FF0060EDBCFED
:10366000E3FFE806FCE20CC01AF00DC01BF01A5094
:103670001B10D8A43EEF1BF041EF1BF0FFFF46EFFD
:103680001BF0FFFF0F0E1A6E000E1B6EFFFF1AC01D
:1036900001F01BC002F0D2EC1FF001C01EF002C00E
:1036A0001FF088C01CF089C01DF01DBE5AEF1BF032
:1036B0005DEF1BF0FFFF76EF1BF0FFFF1E501C5C61
:1036C0001D50800A0E6E1F50800A0E58D8A06BEF56
:1036D0001BF06EEF1BF0FFFF71EF1BF0FFFF76EFAB
:1036E0001BF0FFFF1CC01EF01DC01FF0FFFF1EC01F
:1036F0001CF01FC01DF086C018F087C019F07DB007
:1037000084EF1BF087EF1BF0FFFFA8EF1BF0FFFF1C
:1037100097EF1BF0FFFF000E026E200E016E0AC035
:1037200003F00BC004F085EC3BF01E4A1F2AFFFF9C
:1037300018501E5C1F50800A0E6E1950800A0E58D9
:10374000D8A0A5EF1BF0A8EF1BF0FFFF8AEF1BF03E
:10375000FFFF000E176E000E166ECFEF1BF0FFFF7F
:103760001AC0F6FF1BC0F7FFF86A050EF76404D015
:103770000800FFFFF55005D0F6CFE1FFF7CFE2FFDD
:10378000E7500E6E0E50016E026A0AC003F00BC0C5
:1037900004F085EC3BF01A4A1B2A164A172AFFFF51
:1037A0001C50165C1750800A0E6E1D50800A0E5871
:1037B000D8A0DDEF1BF0E0EF1BF0FFFFAFEF1BF039
:1037C000FFFF7DA0E6EF1BF0E9EF1BF0FFFF0AEF24
:1037D0001CF0FFFFF9EF1BF0FFFF000E026E200E42
:1037E000016E0AC003F00BC004F085EC3BF01E4AEA
:1037F0001F2AFFFF18501E5C1F50800A0E6E1950C2
:10380000800A0E58D8A007EF1CF00AEF1CF0FFFF4B
:10381000ECEF1BF0FFFF1EC00AF01FC00BF0120000
:10382000FFFFFFFF000E166E000E156E000E0F6EEE
:10383000000E0E6E1FEF1CF0FFFF084A092AFFFF63
:10384000010E146E08C0F6FF09C0F7FF0800FFFF65
:10385000F550200AD8B42FEF1CF032EF1CF0FFFF18
:1038600053EF1CF0FFFFF70E0A6EFF0E0B6E08C041
:10387000F6FF09C0F7FF0800FFFFF5500C6E0D6A58
:103880000A500C260B500D220D500AE1050E0C5C5F
:10389000D8A04DEF1CF050EF1CF0FFFF53EF1CF0D1
:1038A000FFFF000E146EFFFF14C010F0116A1050DD
:1038B0001110D8A45EEF1CF061EF1CF0FFFF1CEFAD
:1038C0001CF0FFFF6EEF1CF0FFFF000E0F6E010EED
:1038D0000E6EFFFF084A092AA8EF1CF0FFFF08C080
:1038E000F6FF09C0F7FF0800FFFFF5500A6E0B6AEC
:1038F0000B50000AD8B47FEF1CF0A8EF1CF0FFFFBC
:103900000A502B0AD8B469EF1CF0060AD8B464EF49
:103910001CF0A8EF1CF0FFFF15C001F016C002F06C
:10392000000E046E0A0E036E7AEC36F008C0F6FF45
:1039300009C0F7FF0800FFFFF550015E000E025AB4
:10394000300E0124156E000E0220166E69EF1CF079
:10395000FFFFD00E0A6EFF0E0B6E08C0F6FF09C007
:10396000F7FF0800FFFFF5500C6E0D6A0A500C2699
:103970000B500D220D500BE10A0E0C5CD8A0C3EFCA
:103980001CF0C7EF1CF0FFFF010EC9EF1CF0FFFF9A
:10399000000EFFFF126E136A12501310D8A4D3EF5B
:1039A0001CF0D6EF1CF0FFFF8BEF1CF0FFFF0E505A
:1039B0000F10D8A4DEEF1CF0E1EF1CF0FFFFF0EFDA
:1039C0001CF0FFFF15C00AF016C00BF00A1E0B1EFC
:1039D0000A4A0B2A0AC008F00BC009F0F5EF1CF0E8
:1039E000FFFF15C008F016C009F0FFFF1200FFFF2F
:1039F000FFFF000E126E10BE03EF1DF000EF1DF072
:103A0000FFFF16EF1DF0FFFF101E0F1E0E1E0D1EF6
:103A10000C1E0B1E0A1E096C000E0A220B220C2221
:103A20000D220E220F221022010E126EFFFF08BE81
:103A30001FEF1DF01CEF1DF0FFFF32EF1DF0FFFF29
:103A4000081E071E061E051E041E031E021E016C14
:103A5000000E022203220422052206220722082247
:103A6000010E121AFFFF20EE13F0070EDE6AE806C1
:103A7000FDE209500A100B100C100D100E100F1063
:103A80001010D8B446EF1DF049EF1DF0FFFFA4EF72
:103A90001DF0FFFF010E116E59EF1DF0FFFFD890D2
:103AA00009360A360B360C360D360E360F36103602
:103AB000112AFFFF10AE5FEF1DF062EF1DF0FFFF58
:103AC0004EEF1DF0FFFFFFFFD8901336143615366A
:103AD00016361736183619361A360950015C0A5050
:103AE00002580B5003580C5004580D5005580E50F6
:103AF00006580F50075810500858D8A082EF1DF0F4
:103B000085EF1DF0FFFF97EF1DF0FFFF0950015EED
:103B10000A50025A0B50035A0C50045A0D50055AC1
:103B20000E50065A0F50075A1050085A1380FFFFC4
:103B3000D89010320F320E320D320C320B320A3264
:103B40000932112E63EF1DF0FFFF1250D8B4ABEF16
:103B50001DF0AEEF1DF0FFFFBFEF1DF0FFFF1A1EBF
:103B6000191E181E171E161E151E141E136C000E8D
:103B70001422152216221722182219221A22FFFFB8
:103B800013C001F014C002F015C003F016C004F019
:103B900017C005F018C006F019C007F01AC008F0E9
:103BA0001200FFFFFFFF000E126E08BEDDEF1DF0DA
:103BB000DAEF1DF0FFFFF0EF1DF0FFFF081E071EFC
:103BC000061E051E041E031E021E016C000E0222AC
:103BD000032204220522062207220822010E126E69
:103BE000FFFF10BEF9EF1DF0F6EF1DF0FFFF0AEF2B
:103BF0001EF0FFFF101E0F1E0E1E0D1E0C1E0B1EB4
:103C00000A1E096C000E0A220B220C220D220E2223
:103C10000F221022FFFF09500A100B100C100D107C
:103C20000E100F101010D8B418EF1EF01BEF1EF07E
:103C3000FFFF6CEF1EF0FFFF010E116E2BEF1EF069
:103C4000FFFFD89009360A360B360C360D360E3685
:103C50000F361036112AFFFF10AE31EF1EF034EF91
:103C60001EF0FFFF20EF1EF0FFFFFFFF0950015C79
:103C70000A5002580B5003580C5004580D50055868
:103C80000E5006580F50075810500858D8A04BEF48
:103C90001EF04EEF1EF0FFFF5FEF1EF0FFFF09501A
:103CA000015E0A50025A0B50035A0C50045A0D5030
:103CB000055A0E50065A0F50075A1050085AFFFF67
:103CC000D89010320F320E320D320C320B320A32D3
:103CD0000932112E35EF1EF0FFFF1250D8B473EFEA
:103CE0001EF076EF1EF0FFFF87EF1EF0FFFF081EAD
:103CF000071E061E051E041E031E021E016C000E7A
:103D00000222032204220522062207220822FFFFA4
:103D100001C001F002C002F003C003F004C004F0CF
:103D200005C005F006C006F007C007F008C008F09F
:103D30001200FFFFFFFF800E735CD8A0A2EF1EF001
:103D4000A5EF1EF0FFFFAFEF1EF0FFFF000E00011A
:103D50008B6F4B0E8A6F7068716834EF1FF0FFFF36
:103D600070C0B6F071C0B7F073500AE1020E725C19
:103D7000D8A0BDEF1EF0C0EF1EF0FFFFCEEF1EF08B
:103D8000FFFFFF0E72240001BA6FFF0E7320BB6F9E
:103D9000000EB96F000EB86FD8EF1EF0FFFF000ED7
:103DA0000001BB6F010EBA6F000EB96F010EB86F44
:103DB000FFFFB60E686E000E696E74C06AF075C0C3
:103DC0006BF076C06CF077C06DF002EC39F068C033
:103DD000B4F069C0B5F072507310D8B4F2EF1EF0B1
:103DE000F5EF1EF0FFFF2FEF1FF0FFFF0001B5BF43
:103DF000FCEF1EF0FFEF1EF0FFFF2FEF1FF0FFFFA5
:103E0000FF0E786EFF0E796E72C07AF073C07BF091
:103E100078507A2679507B227A50B45D7B50B55920
:103E2000D8A015EF1FF018EF1FF0FFFF21EF1FF0D4
:103E3000FFFFFF0E7224B26FFF0E7320B36F26EFE9
:103E40001FF0FFFFB4C0B2F0B5C0B3F0FFFFB25136
:103E50007024D96EB3517120DA6E000EDF6EFFFF51
:103E6000B4C070F0B5C071F0FFFF1200FFFFFFFF9C
:103E7000673468346E6E6E50D8A441EF1FF044EF83
:103E80001FF0FFFF50EF1FF0FFFFFFFF000E656EFA
:103E9000000E666E000E676E000E686ECFEF1FF0AC
:103EA000FFFF65C069F066C06AF067C06BF068C06C
:103EB0006CF0200E62EF1FF0FFFFD8906C326B3277
:103EC0006A326932FFFFE82E5CEF1FF069506D6EB9
:103ED000678EFF0E6516FF0E6616FF0E6716000E44
:103EE0006816960E6E5E6EBE7BEF1FF078EF1FF0C9
:103EF000FFFF95EF1FF0FFFF6E50800A970FD8B0BD
:103F000084EF1FF087EF1FF0FFFF8AEF1FF0FFFF26
:103F100045EF1FF0FFFFD890683267326632653296
:103F20006E3E8AEF1FF0B3EF1FF0FFFF1F0E6E64AF
:103F30009CEF1FF09FEF1FF0FFFFA9EF1FF0FFFFA7
:103F400045EF1FF0FFFFD890653666366736683656
:103F50006E06FFFF6E50D8A4B0EF1FF0B3EF1FF056
:103F6000FFFFA2EF1FF0FFFF6D50D8B4BAEF1FF0B4
:103F7000BDEF1FF0FFFFC6EF1FF0FFFF681E671EBB
:103F8000661E656C000E662267226822FFFF65C010
:103F900065F066C066F067C067F068C068F0FFFF54
:103FA0001200FFFFFFFF01C003F002C004F0DCEFCE
:103FB0001FF0FFFF014A022AFFFF01C0F6FF02C007
:103FC000F7FFF86A050EF76404D00800FFFFF5500C
:103FD00005D0F6CFE1FFF7CFE2FFE7500009D8A404
:103FE000F4EF1FF0F7EF1FF0FFFFD9EF1FF0FFFF17
:103FF0000350015C016E04500258026E1200FFFF74
:106BDE00FFFF1200FFFFFFFF9E9A9D8AF28C1200AC
:106BEE00FFFFFFFF016E01C083FF1200FFFFFFFFDB
:0E6BFE00AECF01F0000EAE6E01501200FFFF90
:106C0D00286E756C6C29000AD7A33CBD37863400FD
:106C1D00008041437F037FBA7F747FB17FC37F10B4
:106C2D00002000400080000100020004000800FF69
:106C3D00FF016E01C0ADFFFFFFACA228EF36F02BB8
:106C4D00EF36F0FFFF22EF36F0FFFF1200FFFFFFE0
:106C5D00FF000EBD6E0A0E6F6ED70E706EA30E7115
:106C6D006E3B0E726E51EC3AF0BD86BD841200FF84
:106C7D00FFFFFF000ED56E960ED66E980ED76EF2F4
:106C8D008AD59CD59AD596D580D582D584D58E12A8
:106C9D0000FFFFFFFF026E84820250F8EC35F08496
:106CAD0094C80EFFFF00F0E82EFCD78492C80EFFAB
:106CBD00FF00F0E82EFCD784821200FFFFFFFF02D9
:106CCD006E84820250F8EC35F08484C80EFFFF000C
:106CDD00F0E82EFCD78492C80EFFFF00F0E82EFCE2
:106CED00D784821200FFFFFFFF01500302F3CF058F
:106CFD00F0F4CF06F001500402F3500626025003C3
:106D0D0002F350062605C001F006C002F01200FF86
:106D1D00FFFFFF000E896E000E806EF00E926E006A
:106D2D000E8A6E000E816E000E936E000E8B6E003D
:106D3D000E826E9494948E949C1200FFFFFFFFC2FE
:106D4D000E0001C66F000EC76FBCC070F0BDC071E4
:106D5D00F0BEC072F0BFC073F0C0C074F0C1C0759A
:106D6D00F0C60E766E000E776E9AEC1EF01200FFD6
:106D7D00FFFFFF20EE04F00150D9260250DA22DE8B
:106D8D00CF03F0DDCF04F0031E041E034A042A20B6
:106D9D00EE04F00150D9260250DA2203C0DEFF04C2
:106DAD00C0DDFF1200FFFFFFFF01C0D9FF02C0DAF7
:106DBD00FFDECF03F0DDCF04F0D8900336043601AB
:106DCD00C005F002C006F003500526045006220649
:106DDD000E0524D96E000E0620DA6EDF508A6E1273
:106DED0000FFFFFFFF550E4B6E550E4C6EC80E4D3E
:106DFD006E410E4E6EE2EC13F04BC065F04CC0666A
:106E0D00F04DC067F04EC068F037EC1FF06550AF25
:106E1D006EAC9CAC8AAC98AC84AB8EAB9CAB881240
:106E2D0000FFFFFFFF0150021003100410D8B42221
:106E3D00EF37F025EF37F0FFFF2EEF37F0FFFF00B4
:106E4D000E011A000E021A000E031A800E041AFF0C
:106E5D00FF01C001F002C002F003C003F004C00442
:106E6D00F01200FFFFFFFFD00E036EFF0E046E0148
:106E7D00C005F002C006F003500526045006220698
:106E8D00500BE10A0E055CD8A04FEF37F053EF37EA
:106E9D00F0FFFF010E55EF37F0FFFF000EFFFF0172
:106EAD006E026A1200FFFFFFFFBF0E036EFF0E049E
:106EBD006E01C005F002C006F00350052604500611
:106ECD002206500BE11A0E055CD8A070EF37F07456
:106EDD00EF37F0FFFF010E76EF37F0FFFF000EFFEB
:106EED00FF016E026A1200FFFFFFFF9F0E036EFF90
:106EFD000E046E01C005F002C006F0035005260415
:106F0D0050062206500BE11A0E055CD8A091EF3702
:106F1D00F095EF37F0FFFF010E97EF37F0FFFF0011
:106F2D000EFFFF016E026A1200FFFFFFFF9F0E03AF
:106F3D006EFF0E046E200E0110056E000E0210067F
:106F4D006E035005260450062206500BE11A0E055D
:106F5D005CD8A0B4EF37F0B8EF37F0FFFF010EBAF1
:106F6D00EF37F0FFFF000EFFFF016E026A1200FF08
:106F7D00FFFFFF000E471A000E481A000E491A8037
:106F8D000E4A1A43C033F044C034F045C035F046C4
:106F9D00C036F047C037F048C038F049C039F04A24
:106FAD00C03AF02CEC0AF033C043F034C044F03555
:106FBD00C045F036C046F01200FFFFFFFF14BEF3D0
:106FCD00EF37F0145006E11304D8B0F0EF37F0F3BB
:106FDD00EF37F0FFFF02EF38F0FFFF13C015F0148D
:106FED00C016F0151E161E154A162A15C013F016DA
:106FFD00C014F007EF38F0FFFF13C013F014C014E6
:10700D00F0FFFF1200FFFFFFFF000E106E000E0FCE
:10701D006E1DEF38F0FFFF0EC001F0026A0CC003C9
:10702D00F00DC004F085EC3BF00F4A102AFFFF0F66
:10703D00500A24D96E10500B20DA6EDF500E6E0EF2
:10704D0050D8A42CEF38F02FEF38F0FFFF11EF38A8
:10705D00F0FFFF1200FFFFFFFF010E076E200E0174
:10706D00180210D8B43DEF38F040EF38F0FFFF5C58
:10707D00EF38F0FFFFF70E036EFF0E046E01C00533
:10708D00F002C006F0035005260450062206500AF1
:10709D00E1050E055CD8A056EF38F059EF38F0FF3A
:1070AD00FF5CEF38F0FFFF000E076EFFFF07C0011A
:1070BD00F0026A1200FFFFFFFF000186518711D811
:1070CD00A46BEF38F06EEF38F0FFFF75EF38F0FF7F
:1070DD00FF86C01FF087C020F07CEF38F0FFFFFF68
:1070ED000E86251F6EFF0E8721206EFFFF1EC0929C
:1070FD00F0000E936F1CC011F01DC012F0920E1314
:10710D006E000E146E1FC015F020C016F0F6EC3B8D
:10711D00F011C01CF012C01DF01200FFFF200EF682
:10712D006E6C0EF76E000EF86E01EEC9F010EE1CCF
:10713D00F00900F5CFEEFFE550E150FAE10D0EF646
:10714D006E6C0EF76E000EF86E00EEC8F010EE13BA
:10715D00F00900F5CFEEFFE550E150FAE101EEA1A7
:10716D00F0280EEE6AE806FDE100EE80F0320EEE3C
:10717D006AE806FDE17E6A7D6A7F907F92000EF8D7
:10718D006E000100EF0DF0FFFF9F0E096EFF0E0A5E
:10719D006E07C00BF008C00CF009500B260A500CFE
:1071AD00220C500BE11A0E0B5CD8A0E0EF38F0E486
:1071BD00EF38F0FFFF010EE6EF38F0FFFF000EFF96
:1071CD00FF0D6E0E6A0D500E10D8B4F0EF38F0F3BF
:1071DD00EF38F0FFFFFAEF38F0FFFF5F0E071407EF
:1071ED006E086AFFEF38F0FFFF07C007F008C00810
:1071FD00F0FFFF1200FFFFFFFF6AC06EF06BC06F64
:10720D00F0000E0001856F000E846F22EF39F0FF44
:10721D00FF68C043F069C044F06E0E456E000E4627
:10722D006E6CC047F06DC048F03DEC00F04350006F
:10723D0001842744508523FFFF6EC0F6FF6FC0F712
:10724D00FF0800FFFFF5500009D8A430EF39F033E7
:10725D00EF39F0FFFF0EEF39F0FFFF84C068F085C6
:10726D00C069F01200FFFFFFFF20EE02F00750D9BA
:10727D00260850DA220950DE5CDE50800A0D6E0AB7
:10728D0050800A0D58D8A04EEF39F051EF39F0FF6C
:10729D00FF62EF39F0FFFF20EE02F00750D926080C
:1072AD0050DA22000EDE6E000EDD6E000E086E014D
:1072BD000E076E73EF39F0FFFF07C001F008C00233
:1072CD00F0DAEC36F007C001F008C002F018EC3B24
:1072DD00F0000E086E000E076EFFFF1200FFFFFF9D
:1072ED00FF836A000E956E846A000E966E849284FA
:1072FD00941E0E036E3C0EFFFFE82EFDD7032EFBF2
:10730D00D700D08482380E50EC36F01E0E036E3C42
:10731D000EFFFFE82EFDD7032EFBD700D0380E5001
:10732D00EC36F01E0E036E3C0EFFFFE82EFDD7036C
:10733D002EFBD700D0380E50EC36F0080E50EC3640
:10734D00F00F0E50EC36F0010E50EC36F0380E50BA
:10735D00EC36F0800E50EC36F01200FFFFFFFF0010
:10736D000E076ED5EF39F0FFFF07500324056E00B1
:10737D000E0420066E05C0F6FF06C0F7FFF86A057D
:10738D000EF76404D00800FFFFF55005D0F6CFE1ED
:10739D00FFF7CFE2FFE75065EC36F0072AFFFF0756
:1073AD00500324056E000E0420066E05C0F6FF0680
:1073BD00C0F7FFF86A050EF76404D00800FFFFF56B
:1073CD005005D0F6CFE1FFF7CFE2FFE7500009D827
:1073DD00A4F3EF39F0F6EF39F0FFFFBAEF39F0FF14
:1073ED00FF1200FFFFFFFF000E106E000E0F6EFF6D
:1073FD00FFD8900F34D96E1034DA6E0950D9260AA1
:10740D0050DA220FC00BF010C00CF0D8900B360CD8
:10741D003601C00DF002C00EF00B500D260C500EB3
:10742D0022060E0D24E16E000E0E20E26EDECFE67A
:10743D00FFDDCFE5FF0F4A102A10BE2FEF3AF010F7
:10744D00500AE1040E0F5CD8A02FEF3AF032EF3A5C
:10745D00F0FFFFFEEF39F0FFFF01C0D9FF02C0DAE8
:10746D00FF03C0DEFF04C0DDFF20EE02F00150D9A6
:10747D00260250DA2205C0DEFF06C0DDFF20EE0435
:10748D00F00150D9260250DA2207C0DEFF08C0DD18
:10749D00FF1200FFFFFFFFBD0E056E370E066E8655
:1074AD000E076E350E086ED7C001F0D8C002F0D9A8
:1074BD00C003F0DAC004F077EC0FF001C01EF0024B
:1074CD00C01FF003C020F004C021F06F0E1A6E1221
:1074DD000E1B6E830E1C6E3A0E1D6EC9EC11F01A4A
:1074ED00C065F01BC066F01CC067F01DC068F037AA
:1074FD00EC1FF065C075F066C076F075C077F0775B
:10750D00A08BEF3AF08EEF3AF0FFFF92EF3AF0FFDB
:10751D00FFBD8894EF3AF0FFFFBD98FFFF77A29A69
:10752D00EF3AF09DEF3AF0FFFFA1EF3AF0FFFFBD0C
:10753D008AA3EF3AF0FFFFBD9AFFFF75C073F07697
:10754D00C074F0D89074327332D890743273327331
:10755D0050BE6E1200FFFFFFFF000ECA6E000ECC74
:10756D006ECA84CA80CA82000E376E000E386E80D5
:10757D000E396EBF0E3A6EBD0E056E370E066E8657
:10758D000E076E360E086ED7C001F0D8C002F0D9C6
:10759D00C003F0DAC004F077EC0FF001C01EF0026A
:1075AD00C01FF003C020F004C021F00A0E1A6ED7E0
:1075BD000E1B6EA30E1C6E3C0E1D6EC9EC11F01A47
:1075CD00C033F01BC034F01CC035F01DC036F02C9C
:1075DD00EC0AF033C06FF034C070F035C071F03686
:1075ED00C072F0000E056E000E066E800E076E4026
:1075FD000E086E6FC001F070C002F071C003F07222
:10760D00C004F077EC0FF001C065F002C066F00326
:10761D00C067F004C068F037EC1FF06550CB6E12F8
:10762D0000FFFFFFFF20EE04F00150D9260250DAD3
:10763D0022DECF03F0DDCF04F001C0D9FF02C0DAA6
:10764D00FFDECF05F0DDCF06F00350052604500612
:10765D002201C0D9FF02C0DAFF05C0DEFF06C0DD82
:10766D00FF20EE02F00150D9260250DA22DECF03C0
:10767D00F0DDCF04F0010E0326000E042220EE02F1
:10768D00F00150D9260250DA2203C0DEFF04C0DD1E
:10769D00FF01C0D9FF02C0DAFFDE2806E1DE28D8DF
:1076AD00A45BEF3BF05EEF3BF0FFFF69EF3BF0FFBC
:1076BD00FF01C0D9FF02C0DAFF030EDE6E000EDD42
:1076CD006E82EF3BF0FFFF01C0D9FF02C0DAFF046D
:1076DD000EDE18DE10D8A476EF3BF079EF3BF0FF0D
:1076ED00FF82EF3BF0FFFF01C0D9FF02C0DAFF00C0
:1076FD000EDE6E000EDD6EFFFF1200FFFFFFFF03BB
:10770D00500410D8B48DEF3BF090EF3BF0FFFF9B92
:10771D00EF3BF0FFFF03500410D8A498EF3BF09B14
:10772D00EF3BF0FFFFA1EF3BF0FFFF0150EFEC351A
:10773D00F0F3EF3BF0FFFF20EE04F00350D92604E9
:10774D0050DA22DE50DE10D8B4AFEF3BF0B2EF3B93
:10775D00F0FFFFCFEF3BF0FFFF20EE04F00350D919
:10776D00260450DA2210EE02F00350E1260450E216
:10777D0022DE50E65CE650800A096EDE50800A0972
:10778D0058D8B0CCEF3BF0CFEF3BF0FFFFF3EF3B22
:10779D00F0FFFF20EE02F00350D9260450DA22DE6E
:1077AD00CF05F0DDCF06F003C0D9FF04C0DAFFDE50
:1077BD00CF07F0DDCF08F005500724D96E0650082D
:1077CD0020DA6E01C0DFFF20EE02F00350D926044F
:1077DD0050DA22DE2A000EDD22FFFF1200FFFFFF2E
:1077ED00FF7DA0FCEF3BF0FFEF3BF0FFFF0AEF3C0E
:1077FD00F0FFFF13C00AF014C00BF011C00CF01213
:10780D00C00DF00AEC38F0FFFF16BE10EF3CF01380
:10781D00EF3CF0FFFF1AEF3CF0FFFF15C01AF0161A
:10782D00C01BF01FEF3CF0FFFF000E1B6E000E1A89
:10783D006EFFFF000E196E000E186E33EF3CF0FF59
:10784D00FF000E026E200E016E11C003F012C00477
:10785D00F085EC3BF0184A192AFFFF1A50185C19F5
:10786D0050800A176E1B50800A1758D8A041EF3C64
:10787D00F044EF3CF0FFFF26EF3CF0FFFF7DB04AF8
:10788D00EF3CF04DEF3CF0FFFF58EF3CF0FFFF13E6
:10789D00C00AF014C00BF011C00CF012C00DF00AAC
:1078AD00EC38F0FFFF13C001F014C002F0D2EC1F52
:1078BD00F01A500124116E1B500220126E1200FF9F
:1078CD00FFFFFF09500A100B100C100D100E100FBA
:1078DD00101010D8B475EF3CF078EF3CF0FFFFC9F5
:1078ED00EF3CF0FFFF010E116E88EF3CF0FFFFD86B
:1078FD009009360A360B360C360D360E360F36100D
:10790D0036112AFFFF10AE8EEF3CF091EF3CF0FFE9
:10791D00FF7DEF3CF0FFFFFFFF0950015C0A5002B5
:10792D00580B5003580C5004580D5005580E500666
:10793D00580F50075810500858D8A0A8EF3CF0AB7E
:10794D00EF3CF0FFFFBCEF3CF0FFFF0950015E0A7A
:10795D0050025A0B50035A0C50045A0D50055A0E32
:10796D0050065A0F50075A1050085AFFFFD8901062
:10797D00320F320E320D320C320B320A3209321105
:10798D002E92EF3CF0FFFF01C001F002C002F003A8
:10799D00C003F004C004F005C005F006C006F007F2
:1079AD00C007F008C008F01200FFFFFFFF056E05CD
:1079BD005065EC36F0410E0518D8A4E8EF3CF0EB1D
:1079CD00EF3CF0FFFFF6EF3CF0FFFF03C0D9FF04E3
:1079DD00C0DAFF010EDE6E000EDD6E57EF3DF0FFDB
:1079ED00FF420E0518D8A4FEEF3CF001EF3DF0FF6D
:1079FD00FF0CEF3DF0FFFF03C0D9FF04C0DAFF031A
:107A0D000EDE6E000EDD6E57EF3DF0FFFF440E05EE
:107A1D0018D8A414EF3DF017EF3DF0FFFF22EF3D16
:107A2D00F0FFFF03C0D9FF04C0DAFF040EDE6E00C5
:107A3D000EDD6E57EF3DF0FFFF400E0518D8A42A5E
:107A4D00EF3DF02DEF3DF0FFFF38EF3DF0FFFF0371
:107A5D00C0D9FF04C0DAFF050EDE6E000EDD6E57D5
:107A6D00EF3DF0FFFF480E0518D8A440EF3DF04361
:107A7D00EF3DF0FFFF4EEF3DF0FFFF03C0D9FF04D8
:107A8D00C0DAFF020EDE6E000EDD6E57EF3DF0FF29
:107A9D00FF03C0D9FF04C0DAFF000EDE6E000EDD5D
:107AAD006EFFFF1200FFFFFFFF01C0D9FF02C0DA1A
:107ABD00FFDE50DE10D8A466EF3DF069EF3DF0FF1C
:107ACD00FF6EEF3DF0FFFF000E056ED6EF3DF0FFB0
:107ADD00FF01C0D9FF02C0DAFFDE04DE10D8A47AA0
:107AED00EF3DF07DEF3DF0FFFF82EF3DF0FFFF41F9
:107AFD000E056ED6EF3DF0FFFF01C0D9FF02C0DAD3
:107B0D00FF030EDE18DE10D8A48FEF3DF092EF3D8F
:107B1D00F0FFFF97EF3DF0FFFF420E056ED6EF3DF4
:107B2D00F0FFFF01C0D9FF02C0DAFF040EDE18DE40
:107B3D0010D8A4A4EF3DF0A7EF3DF0FFFFACEF3D53
:107B4D00F0FFFF440E056ED6EF3DF0FFFF01C0D9EB
:107B5D00FF02C0DAFF050EDE18DE10D8A4B9EF3D26
:107B6D00F0BCEF3DF0FFFFC1EF3DF0FFFF400E0514
:107B7D006ED6EF3DF0FFFF01C0D9FF02C0DAFF0264
:107B8D000EDE18DE10D8A4CEEF3DF0D1EF3DF0FFA4
:107B9D00FFD6EF3DF0FFFF480E056ED6EF3DF0FF2F
:107BAD00FF05501200FFFFFFFF01C008F002C009E2
:107BBD00F003C00AF004C00BF00506D8A0060605B8
:107BCD002806E10628D8A4EEEF3DF0F1EF3DF0FFD9
:107BDD00FF00EF3EF0FFFF000E026E000E016E5B28
:107BED00EF3EF0FFFF084A092A0A4A0B2A0506D87C
:107BFD00A00606FFFF08C0F6FF09C0F7FF0800FF4B
:107C0D00FFF5500009D8B40EEF3EF011EF3EF0FF36
:107C1D00FF46EF3EF0FFFF0AC0F6FF0BC0F7FF086F
:107C2D0000FFFFF5500009D8B41FEF3EF022EF3EE4
:107C3D00F0FFFF46EF3EF0FFFF05500610D8B42AC7
:107C4D00EF3EF02DEF3EF0FFFF46EF3EF0FFFF0859
:107C5D00C0F6FF09C0F7FF0800FFFFF5CF07F00AD8
:107C6D00C0F6FF0BC0F7FF0800FFFFF5500718D84F
:107C7D00B443EF3EF046EF3EF0FFFFF8EF3DF0FF6F
:107C8D00FF08C0F6FF09C0F7FF0800FFFFF5CF079B
:107C9D00F00AC0F6FF0BC0F7FF0800FFFFF5500715
:107CAD005C016E026AD8A00206FFFF1200FFFFFF03
:107CBD00FF20EE11F0070EDE6AE806FDE209500A1C
:107CCD00100B100C100D100E100F101010D8B472E8
:107CDD00EF3EF075EF3EF0FFFFD0EF3EF0FFFF01FE
:107CED000E196E85EF3EF0FFFFD89009360A360B60
:107CFD00360C360D360E360F361036192AFFFF109C
:107D0D00AE8BEF3EF08EEF3EF0FFFF7AEF3EF0FFD1
:107D1D00FFFFFFD89011361236133614361536166E
:107D2D0036173618360950015C0A5002580B5003AD
:107D3D00580C5004580D5005580E5006580F50074A
:107D4D005810500858D8A0AEEF3EF0B1EF3EF0FFFE
:107D5D00FFC3EF3EF0FFFF0950015E0A50025A0BC0
:107D6D0050035A0C50045A0D50055A0E50065A0F16
:107D7D0050075A1050085A1180FFFFD89010320F3B
:107D8D00320E320D320C320B320A320932192E8F6D
:107D9D00EF3EF0FFFF11C001F012C002F013C0035F
:107DAD00F014C004F015C005F016C006F017C0079A
:107DBD00F018C008F01200FFFFFFFF000E011409BC
:107DCD006E000E02140A6E800E03140B6E7F0E04ED
:107DDD00140C6E09500A100B100C10D8A4F9EF3EBC
:107DED00F0FCEF3EF0FFFF05EF3FF0FFFF000E014F
:107DFD006E000E026E000E036E000E046EFFFF008D
:107E0D000E0514096E000E06140A6E800E07140B73
:107E1D006E7F0E08140C6E09500A100B100C10D842
:107E2D00A41BEF3FF01EEF3FF0FFFF27EF3FF0FFEA
:107E3D00FF000E056E000E066E000E076E000E089A
:107E4D006EFFFF04AE2DEF3FF030EF3FF0FFFF3A36
:107E5D00EF3FF0FFFF016C021ED8B0022A031ED8BF
:107E6D00B0032A800E0456FFFF08AE40EF3FF043EB
:107E7D00EF3FF0FFFF4DEF3FF0FFFF056C061ED803
:107E8D00B0062A071ED8B0072A800E0856FFFF003D
:107E9D000E011A000E021A000E031A800E041A00AB
:107EAD000E051A000E061A000E071A800E081A0586
:107EBD0050015C065002580750035808500458D81A
:107ECD00B06BEF3FF06EEF3FF0FFFF72EF3FF0FF53
:107EDD00FFD89074EF3FF0FFFFD880FFFF1200FF37
:107EED00FF000000004B00001646BD37863500240C
:107EFD0074490024744A494E49545F504F533A20F7
:107F0D00746865207669616C2069732061742074D2
:107F1D00686520696E697420706F736974696F6E1E
:107F2D002C2070726F636573732069732073746195
:107F3D007274696E670049444C453A2077616974E3
:107F4D00696E6720666F7220207669616C20746F90
:107F5D0020626520706C6163656420696E20696EB6
:107F6D00697420706F73004F56454E3A20726561EB
:107F7D006368696E672074686520636F72726563EC
:107F8D00742074656D7065726174757265004465F9
:107F9D007669636520686173206265656E20726520
:107FAD00736574004752415350494E47004D4F562B
:107FBD00454D454E54004D4958494E470068685847
:107FCD0000686864006868690068686E0068686FBA
:107FDD000068687500686878007A58007A64007ADD
:107FED0069007A6E007A6F007A75007A78002573D1
:027FFD00000082
:020000040020DA
:08000000FFFFFFFFFFFFFFFF00
:020000040030CA
:0E000000FF270F0EFF0185FF0FC00FE00F401E
:00000001FF
