:020000040000FA
:1000000000F03BEF00F0FFFFFFFF7F829DAA0BEFA8
:1000100000F00EEF00F0FFFF1EEF00F0FFFF9EAAC2
:1000200014EF00F017EF00F0FFFF1EEF00F0FFFFEE
:100030009E9A010E0101B06F010EAE6FFFFFF2AA92
:1000400024EF00F027EF00F0FFFF37EF00F0FFFF95
:10005000F2A42DEF00F030EF00F0FFFF37EF00F0DB
:10006000FFFF000ED56EF294010E0101AD6FFFFF90
:100070007F921100FFFF0FEF36F0FFFF45C0D9FF61
:1000800046C0DAFFDECFF6FFDDCFF7FF0800FFFF47
:10009000F550250AD8A44FEF00F052EF00F0FFFF13
:1000A00011EF0AF0FFFF45C0D9FF46C0DAFFDE2A94
:1000B000000EDD22000E0001876F000E866F86C0E5
:1000C0008AF087C08BF088698969000E506E000E37
:1000D0004F6EC0EF00F0FFFF00018A81FFFF45C0B7
:1000E000D9FF46C0DAFFDE2A000EDD22C0EF00F0A5
:1000F000FFFF00018A836EEF00F0FFFF00018A8599
:100100006EEF00F0FFFF00018A876EEF00F0FFFF47
:1001100000018A896EEF00F0FFFF000E506E010EA5
:100120004F6EC0EF00F0FFFF45C0D9FF46C0DAFFB9
:10013000DECFF6FFDDCFF7FF0800FFFFF550496E79
:100140004A6A4A50000AD8B4A8EF00F08CEF00F0D9
:10015000FFFF4950200AD8B482EF00F0030AD8B458
:1001600087EF00F0080AD8B47DEF00F0060AD8B493
:100170006BEF00F01D0AD8B478EF00F08CEF00F0C0
:10018000FFFF4F505010D8B4C8EF00F0CBEF00F095
:10019000FFFF93EF00F0FFFF00018AA1D2EF00F014
:1001A000D5EF00F0FFFFD7EF00F0FFFF8A93FFFFCE
:1001B00045C0D9FF46C0DAFFDECFF6FFDDCFF7FF3F
:1001C0000800FFFFF5502A0AD8A4E9EF00F0ECEF91
:1001D00000F0FFFF18EF01F0FFFF45C0D9FF46C058
:1001E000DAFFDE2A000EDD2247C0D9FF48C0DAFF61
:1001F000DFCF49F0020EDE26DFCF4AF0000EDD220F
:1002000049C0D9FF4AC0DAFFDECF86F0DDCF87F0E4
:1002100087BF10EF01F00DEF01F0FFFF63EF01F07A
:10022000FFFF8A81866D871FD8B0872B63EF01F0AF
:10023000FFFF45C0D9FF46C0DAFFDECF08F0DDCFB3
:1002400009F006EC1EF008C086F009C087F031EF17
:1002500001F0FFFF45C0D9FF46C0DAFFDE2A000EDD
:10026000DD22FFFFD00E496EFF0E4A6E45C0D9FF5A
:1002700046C0DAFFDECFF6FFDDCFF7FF0800FFFF55
:10028000F5504B6E4C6A49504B264A504C224C500C
:100290000BE10A0E4B5CD8A050EF01F054EF01F0D7
:1002A000FFFF010E56EF01F0FFFF000EFFFF516E42
:1002B000526A51505210D8A460EF01F063EF01F080
:1002C000FFFF29EF01F0FFFF45C0D9FF46C0DAFF6D
:1002D000DECFF6FFDDCFF7FF0800FFFFF5502E0A57
:1002E000D8A475EF01F078EF01F0FFFF02EF02F004
:1002F000FFFF000E0001896F000E886F45C0D9FF17
:1003000046C0DAFFDE2A000EDD2245C0D9FF46C016
:10031000DAFFDECFF6FFDDCFF7FF0800FFFFF55075
:100320002A0AD8A496EF01F099EF01F0FFFFB7EF8A
:1003300001F0FFFF45C0D9FF46C0DAFFDE2A000EFC
:10034000DD2247C0D9FF48C0DAFFDFCF49F0020EF7
:10035000DE26DFCF4AF0000EDD2249C0D9FF4AC0B9
:10036000DAFFDECF88F0DDCF89F002EF02F0FFFF89
:1003700045C0D9FF46C0DAFFDECF08F0DDCF09F077
:1003800006EC1EF008C088F009C089F0D0EF01F03B
:10039000FFFF45C0D9FF46C0DAFFDE2A000EDD228E
:1003A000FFFFD00E496EFF0E4A6E45C0D9FF46C012
:1003B000DAFFDECFF6FFDDCFF7FF0800FFFFF550D5
:1003C0004B6E4C6A49504B264A504C224C500BE124
:1003D0000A0E4B5CD8A0EFEF01F0F3EF01F0FFFF46
:1003E000010EF5EF01F0FFFF000EFFFF536E546AA0
:1003F00053505410D8A4FFEF01F002EF02F0FFFFBA
:10040000C8EF01F0FFFF45C0D9FF46C0DAFFDECFDD
:10041000F6FFDDCFF7FF0800FFFFF550630AD8A411
:1004200014EF02F017EF02F0FFFF3FEF02F0FFFFC3
:1004300045C0D9FF46C0DAFFDE2A000EDD2247C0E4
:10044000D9FF48C0DAFFDFCF49F0020EDE26DFCF4A
:100450004AF0000EDD2249C0D9FF4AC0DAFFDF5062
:100460005F6E43C01CF044C01DF05FC01EF0DCECAA
:1004700035F01CC043F01DC044F02EEF0AF0FFFF22
:1004800045C0D9FF46C0DAFFDECF01F0DDCF02F074
:10049000CF0E036E7F0E046E000E066E030E056E09
:1004A000BCEC3BF001500210D8B459EF02F05CEF05
:1004B00002F0FFFF79EF02F0FFFF45C0D9FF46C011
:1004C000DAFFDECF01F0DDCF02F0D30E036E7F0E38
:1004D000046E000E066E030E056EBCEC3BF0015080
:1004E0000210D8A476EF02F079EF02F0FFFFBBEF25
:1004F00002F0FFFF030E45C0D9FF46C0DAFFDE263B
:10050000000EDD2247C0D9FF48C0DAFFDFCF49F037
:10051000020EDE26DFCF4AF0000EDD2249C0D9FFF1
:100520004AC0DAFFDF50556E000E55BEFF0E566E04
:10053000576E586E596E5A6E5B6E5C6EFFFF43C00D
:100540001CF044C01DF055C01EF056C01FF057C02F
:1005500020F058C021F059C022F05AC023F05BC0EF
:1005600024F05CC025F0C5EC16F01CC043F01DC0A3
:1005700044F02EEF0AF0FFFF45C0D9FF46C0DAFF76
:10058000DECF01F0DDCF02F0D00E036E7F0E046EE1
:10059000000E066E020E056EBCEC3BF00150021020
:1005A000D8B4D5EF02F0D8EF02F0FFFFF5EF02F07C
:1005B000FFFF45C0D9FF46C0DAFFDECF01F0DDCF37
:1005C00002F0D40E036E7F0E046E000E066E020E55
:1005D000056EBCEC3BF001500210D8A4F2EF02F023
:1005E000F5EF02F0FFFF1DEF03F0FFFF020E45C025
:1005F000D9FF46C0DAFFDE26000EDD2247C0D9FF54
:1006000048C0DAFFDFCF49F0020EDE26DFCF4AF026
:10061000000EDD2249C0D9FF4AC0DAFFDECF55F017
:10062000DDCF56F0000E56BEFF0E576E586E596E57
:100630005A6E5B6E5C6E9EEF02F0FFFF45C0D9FF05
:1006400046C0DAFFDECFF6FFDDCFF7FF0800FFFF81
:10065000F550640AD8B42FEF03F032EF03F0FFFF38
:1006600047EF03F0FFFF45C0D9FF46C0DAFFDECFFA
:10067000F6FFDDCFF7FF0800FFFFF550690AD8A4A9
:1006800044EF03F047EF03F0FFFF6EEF03F0FFFFCF
:1006900045C0D9FF46C0DAFFDE2A000EDD2247C082
:1006A000D9FF48C0DAFFDFCF49F0020EDE26DFCFE8
:1006B0004AF0000EDD2249C0D9FF4AC0DAFFDECF82
:1006C00055F0DDCF56F0000E56BEFF0E576E586E39
:1006D000596E5A6E5B6E5C6E9EEF02F0FFFF45C076
:1006E000D9FF46C0DAFFDECF01F0DDCF02F0EA0E1F
:1006F000036E7F0E046E000E066E020E056EBCECDD
:100700003BF001500210D8B488EF03F08BEF03F0F8
:10071000FFFFA8EF03F0FFFF45C0D9FF46C0DAFF97
:10072000DECF01F0DDCF02F0ED0E036E7F0E046E22
:10073000000E066E020E056EBCEC3BF0015002107E
:10074000D8A4A5EF03F0A8EF03F0FFFFD1EF03F06B
:10075000FFFF020E45C0D9FF46C0DAFFDE26000EBD
:10076000DD2247C0D9FF48C0DAFFDFCF49F0020ED3
:10077000DE26DFCF4AF0000EDD2249C0D9FF4AC095
:10078000DAFFDECF4BF0DDCF4CF04BC055F04CC064
:1007900056F0576A586A596A5A6A5B6A5C6A9EEFF1
:1007A00002F0FFFF45C0D9FF46C0DAFFDECF01F0FF
:1007B000DDCF02F0DB0E036E7F0E046E000E066EC0
:1007C000030E056EBCEC3BF001500210D8A4EBEF19
:1007D00003F0EEEF03F0FFFF2FEF04F0FFFF030E37
:1007E00045C0D9FF46C0DAFFDE26000EDD2247C035
:1007F000D9FF48C0DAFFDFCF49F0020EDE26DFCF97
:100800004AF0000EDD2249C0D9FF4AC0DAFFDF50AE
:100810004B6E4B50606E616A626A636A646A656AB5
:10082000666A676AFFFF43C01CF044C01DF060C0E9
:100830001EF061C01FF062C020F063C021F064C0F0
:1008400022F065C023F066C024F067C025F00DECEF
:100850001BF01CC043F01DC044F02EEF0AF0FFFF58
:1008600045C0D9FF46C0DAFFDECF01F0DDCF02F090
:10087000DC0E036E7F0E046E000E066E020E056E19
:10088000BCEC3BF001500210D8A449EF04F04CEF4F
:1008900004F0FFFF75EF04F0FFFF020E45C0D9FF23
:1008A00046C0DAFFDE26000EDD2247C0D9FF48C071
:1008B000DAFFDFCF49F0020EDE26DFCF4AF0000E6E
:1008C000DD2249C0D9FF4AC0DAFFDECF4BF0DDCFD1
:1008D0004CF04BC060F04CC061F0626A636A646ABD
:1008E000656A666A676A12EF04F0FFFF45C0D9FFC8
:1008F00046C0DAFFDECFF6FFDDCFF7FF0800FFFFCF
:10090000F5506F0AD8A487EF04F08AEF04F0FFFFD8
:10091000B2EF04F0FFFF45C0D9FF46C0DAFFDE2A80
:10092000000EDD2247C0D9FF48C0DAFFDFCF49F013
:10093000020EDE26DFCF4AF0000EDD2249C0D9FFCD
:100940004AC0DAFFDECF4BF0DDCF4CF04BC060F099
:100950004CC061F0626A636A646A656A666A676A63
:1009600012EF04F0FFFF45C0D9FF46C0DAFFDECF2B
:1009700001F0DDCF02F0F30E036E7F0E046E000E69
:10098000066E020E056EBCEC3BF001500210D8A4BE
:10099000CCEF04F0CFEF04F0FFFFF8EF04F0FFFF1F
:1009A000020E45C0D9FF46C0DAFFDE26000EDD226A
:1009B00047C0D9FF48C0DAFFDFCF49F0020EDE267C
:1009C000DFCF4AF0000EDD2249C0D9FF4AC0DAFF6E
:1009D000DECF4BF0DDCF4CF04BC060F04CC061F08F
:1009E000626A636A646A656A666A676A12EF04F03B
:1009F000FFFF45C0D9FF46C0DAFFDECF01F0DDCFF3
:100A000002F0D70E036E7F0E046E000E066E030E0C
:100A1000056EBCEC3BF001500210D8A412EF05F0BB
:100A200015EF05F0FFFF4BEF05F0FFFF030E45C08C
:100A3000D9FF46C0DAFFDE26000EDD2247C0D9FF0F
:100A400048C0DAFFDFCF49F0020EDE26DFCF4AF0E2
:100A5000000EDD2249C0D9FF4AC0DAFFDECF5DF0CB
:100A6000DDCF5EF05DC0F6FF5EC0F7FFF86A050EF1
:100A7000F76404D084C0F5FF0C0006D0F6CFE1FF88
:100A8000F7CFE2FF84C0E7FFFFFF000E446E000EC9
:100A9000436E2EEF0AF0FFFF45C0D9FF46C0DAFFD4
:100AA000DECF01F0DDCF02F0D80E036E7F0E046EB4
:100AB000000E066E020E056EBCEC3BF001500210FB
:100AC000D8A465EF05F068EF05F0FFFF9EEF05F095
:100AD000FFFF020E45C0D9FF46C0DAFFDE26000E3A
:100AE000DD2247C0D9FF48C0DAFFDFCF49F0020E50
:100AF000DE26DFCF4AF0000EDD2249C0D9FF4AC012
:100B0000DAFFDECF5DF0DDCF5EF05DC0F6FF5EC0E8
:100B1000F7FFF86A050EF76407D084C0F5FF0D00F3
:100B200085C0F5FF0C0008D0F6CFE1FFF7CFE2FF5C
:100B300084C0E6FF85C0E7FF44EF05F0FFFF45C036
:100B4000D9FF46C0DAFFDECFF6FFDDCFF7FF0800A2
:100B5000FFFFF5506E0AD8A4B0EF05F0B3EF05F033
:100B6000FFFFE8EF05F0FFFF45C0D9FF46C0DAFF01
:100B7000DE2A000EDD2247C0D9FF48C0DAFFDFCFF2
:100B800049F0020EDE26DFCF4AF0000EDD2249C01A
:100B9000D9FF4AC0DAFFDECF5DF0DDCF5EF05DC089
:100BA000F6FF5EC0F7FFF86A050EF76407D084C051
:100BB000F5FF0D0085C0F5FF0C0008D0F6CFE1FF72
:100BC000F7CFE2FF84C0E6FF85C0E7FF44EF05F002
:100BD000FFFF45C0D9FF46C0DAFFDECF01F0DDCF11
:100BE00002F0F00E036E7F0E046E000E066E020E13
:100BF000056EBCEC3BF001500210D8A402EF06F0E9
:100C000005EF06F0FFFF3BEF06F0FFFF020E45C0C9
:100C1000D9FF46C0DAFFDE26000EDD2247C0D9FF2D
:100C200048C0DAFFDFCF49F0020EDE26DFCF4AF000
:100C3000000EDD2249C0D9FF4AC0DAFFDECF5DF0E9
:100C4000DDCF5EF05DC0F6FF5EC0F7FFF86A050E0F
:100C5000F76407D084C0F5FF0D0085C0F5FF0C00D8
:100C600008D0F6CFE1FFF7CFE2FF84C0E6FF85C0F2
:100C7000E7FF44EF05F0FFFF45C0D9FF46C0DAFFAC
:100C8000DECFF6FFDDCFF7FF0800FFFFF550700A5B
:100C9000D8A44DEF06F050EF06F0FFFF94EF06F0FA
:100CA000FFFF45C0D9FF46C0DAFFDE2A000EDD2275
:100CB00047C0D9FF48C0DAFFDFCF49F0020EDE2679
:100CC000DFCF4AF0000EDD2249C0D9FF4AC0DAFF6B
:100CD000DECF4BF0DDCF4CF04BC060F04CC061F08C
:100CE000626A636A646A656A666A676A43C01CF01E
:100CF00044C01DF060C01EF061C01FF062C020F053
:100D000063C021F064C022F065C023F066C024F007
:100D100067C025F0780E266E5FEC18F01CC043F01B
:100D20001DC044F02EEF0AF0FFFF45C0D9FF46C0BA
:100D3000DAFFDECFF6FFDDCFF7FF0800FFFFF5504B
:100D4000730AD8A4A6EF06F0A9EF06F0FFFFD5EFCF
:100D500006F0FFFF45C0D9FF46C0DAFFDE2A000ECD
:100D6000DD2247C0D9FF48C0DAFFDFCF49F0020ECD
:100D7000DE26DFCF4AF0000EDD2249C0D9FF4AC08F
:100D8000DAFFDECF4DF0DDCF4EF043C00AF044C0B5
:100D90000BF04DC00CF04EC00DF01CEC1DF00AC065
:100DA00043F00BC044F02EEF0AF0FFFF45C0D9FF1F
:100DB00046C0DAFFDECF01F0DDCF02F0DF0E036EBA
:100DC0007F0E046E000E066E030E056EBCEC3BF04B
:100DD00001500210D8A4EFEF06F0F2EF06F0FFFF8B
:100DE00033EF07F0FFFF030E45C0D9FF46C0DAFF1F
:100DF000DE26000EDD2247C0D9FF48C0DAFFDFCF74
:100E000049F0020EDE26DFCF4AF0000EDD2249C097
:100E1000D9FF4AC0DAFFDF504B6E4B50606E616AFB
:100E2000626A636A646A656A666A676AFFFF43C0EA
:100E30001CF044C01DF060C01EF061C01FF062C015
:100E400020F063C021F064C022F065C023F066C0CA
:100E500024F067C025F0F7EC19F01CC043F01DC06A
:100E600044F02EEF0AF0FFFF45C0D9FF46C0DAFF7D
:100E7000DECF01F0DDCF02F0E00E036E7F0E046ED8
:100E8000000E066E020E056EBCEC3BF00150021027
:100E9000D8A44DEF07F050EF07F0FFFF79EF07F010
:100EA000FFFF020E45C0D9FF46C0DAFFDE26000E66
:100EB000DD2247C0D9FF48C0DAFFDFCF49F0020E7C
:100EC000DE26DFCF4AF0000EDD2249C0D9FF4AC03E
:100ED000DAFFDECF4BF0DDCF4CF04BC060F04CC002
:100EE00061F0626A636A646A656A666A676A16EFD5
:100EF00007F0FFFF45C0D9FF46C0DAFFDECFF6FF9F
:100F0000DDCFF7FF0800FFFFF550750AD8A48BEF7F
:100F100007F08EEF07F0FFFFB6EF07F0FFFF45C0C9
:100F2000D9FF46C0DAFFDE2A000EDD2247C0D9FF16
:100F300048C0DAFFDFCF49F0020EDE26DFCF4AF0ED
:100F4000000EDD2249C0D9FF4AC0DAFFDECF4BF0E8
:100F5000DDCF4CF04BC060F04CC061F0626A636A58
:100F6000646A656A666A676A16EF07F0FFFF45C044
:100F7000D9FF46C0DAFFDECF01F0DDCF02F0F60E7A
:100F8000036E7F0E046E000E066E020E056EBCEC44
:100F90003BF001500210D8A4D0EF07F0D3EF07F0D8
:100FA000FFFFFCEF07F0FFFF020E45C0D9FF46C070
:100FB000DAFFDE26000EDD2247C0D9FF48C0DAFF87
:100FC000DFCF49F0020EDE26DFCF4AF0000EDD2231
:100FD00049C0D9FF4AC0DAFFDECF4BF0DDCF4CF07D
:100FE0004BC060F04CC061F0626A636A646A656A13
:100FF000666A676A16EF07F0FFFF45C0D9FF46C073
:10100000DAFFDECF01F0DDCF02F0E30E036E7F0EDC
:10101000046E000E066E030E056EBCEC3BF0015034
:101020000210D8B416EF08F019EF08F0FFFF36EF02
:1010300008F0FFFF45C0D9FF46C0DAFFDECF01F060
:10104000DDCF02F0CB0E036E7F0E046E000E066E37
:10105000030E056EBCEC3BF001500210D8A433EF38
:1010600008F036EF08F0FFFF8DEF08F0FFFF45C0F6
:10107000D9FF46C0DAFFDECF49F0DDCF4AF0020EDD
:101080004926000E4A2249C0F6FF4AC0F7FF080071
:10109000FFFFF5CF5FF0030E45C0D9FF46C0DAFF72
:1010A000DE26000EDD2247C0D9FF48C0DAFFDFCFC1
:1010B00049F0020EDE26DFCF4AF0000EDD2249C0E5
:1010C000D9FF4AC0DAFFDF504B6E4B50606E616A49
:1010D000626A636A646A656A666A676AFFFF43C038
:1010E0001CF044C01DF060C01EF061C01FF062C063
:1010F00020F063C021F064C022F065C023F066C018
:1011000024F067C025F05FC026F05FEC18F01CC02B
:1011100043F01DC044F02EEF0AF0FFFF45C0D9FF99
:1011200046C0DAFFDECF01F0DDCF02F0E40E036E41
:101130007F0E046E000E066E020E056EBCEC3BF0D8
:1011400001500210D8B4A7EF08F0AAEF08F0FFFF93
:10115000C7EF08F0FFFF45C0D9FF46C0DAFFDECF7A
:1011600001F0DDCF02F0CC0E036E7F0E046E000E98
:10117000066E020E056EBCEC3BF001500210D8A4C6
:10118000C4EF08F0C7EF08F0FFFF04EF09F0FFFF1E
:1011900045C0D9FF46C0DAFFDECF49F0DDCF4AF0C7
:1011A000010E4926000E4A2249C0F6FF4AC0F7FF49
:1011B0000800FFFFF5CF5FF0020E45C0D9FF46C023
:1011C000DAFFDE26000EDD2247C0D9FF48C0DAFF75
:1011D000DFCF49F0020EDE26DFCF4AF0000EDD221F
:1011E00049C0D9FF4AC0DAFFDECF4BF0DDCF4CF06B
:1011F0004BC060F04CC061F0626A636A646A656A01
:10120000666A676A6EEF08F0FFFF45C0D9FF46C007
:10121000DAFFDECFF6FFDDCFF7FF0800FFFFF55066
:10122000780AD8B416EF09F019EF09F0FFFF2EEF96
:1012300009F0FFFF45C0D9FF46C0DAFFDECFF6FF59
:10124000DDCFF7FF0800FFFFF550580AD8A42BEFB9
:1012500009F02EEF09F0FFFF62EF09F0FFFF45C034
:10126000D9FF46C0DAFFDECFF6FFDDCFF7FF08007B
:10127000FFFFF5CF5FF045C0D9FF46C0DAFFDE2A99
:10128000000EDD2247C0D9FF48C0DAFFDFCF49F0AA
:10129000020EDE26DFCF4AF0000EDD2249C0D9FF64
:1012A0004AC0DAFFDECF4BF0DDCF4CF04BC060F030
:1012B0004CC061F0626A636A646A656A666A676AFA
:1012C0006EEF08F0FFFF45C0D9FF46C0DAFFDECF62
:1012D00001F0DDCF02F0F90E036E7F0E046E000EFA
:1012E000066E020E056EBCEC3BF001500210D8B445
:1012F0007CEF09F07FEF09F0FFFF9CEF09F0FFFFA3
:1013000045C0D9FF46C0DAFFDECF01F0DDCF02F0E5
:10131000E70E036E7F0E046E000E066E020E056E63
:10132000BCEC3BF001500210D8A499EF09F09CEFFF
:1013300009F0FFFFD9EF09F0FFFF45C0D9FF46C014
:10134000DAFFDECF49F0DDCF4AF0010E4926000E6C
:101350004A2249C0F6FF4AC0F7FF0800FFFFF5CF59
:101360005FF0020E45C0D9FF46C0DAFFDE26000E50
:10137000DD2247C0D9FF48C0DAFFDFCF49F0020EB7
:10138000DE26DFCF4AF0000EDD2249C0D9FF4AC079
:10139000DAFFDECF4BF0DDCF4CF04BC060F04CC03D
:1013A00061F0626A636A646A656A666A676A6EEFB8
:1013B00008F0FFFF45C0D9FF46C0DAFFDECFF6FFD9
:1013C000DDCFF7FF0800FFFFF550250AD8A4EBEFAB
:1013D00009F0EEEF09F0FFFF07EF0AF0FFFF45C04D
:1013E000D9FF46C0DAFFDE2A000EDD22000E026EB3
:1013F000250E016E43C003F044C004F06DEC39F0DB
:10140000FFFF000E446E010E436E2EEF0AF0FFFF49
:1014100045C0D9FF46C0DAFFDE2A000EDD2244EFC8
:1014200005F0FFFF45C0D9FF46C0DAFFDECFF6FF6B
:10143000DDCFF7FF0800FFFFF550016E026A43C0E1
:1014400003F044C004F06DEC39F045C0D9FF46C04C
:10145000DAFFDE2A000EDD2200EF0AF0FFFF1200A5
:10146000FFFFFFFFAAEC33F034EC34F02BEC38F044
:1014700031EC33F0E2EC32F043EC33F0BF0E016EAE
:10148000010E026E000E046E000E036E000E066E5C
:10149000000E056E000E086E010E076EE70E096E57
:1014A000010E0A6E71EC37F0B10E016E010E026E84
:1014B000000E046E000E036E000E066E000E056E2A
:1014C000000E086E010E076EDF0E096E010E0A6E29
:1014D00071EC37F0EEEC36F00C0E6BEC33F0010EE5
:1014E0006BEC33F0800E6BEC33F0930E036E7F0EDB
:1014F000046E2DEC37F0F28E000E0101AC6F000E81
:10150000AB6FFFFF0101B051D8B489EF0AF08CEF47
:101510000AF0FFFFDFEF0AF0FFFFAE51D8B493EF00
:101520000AF096EF0AF0FFFFA7EF0AF0FFFFEEECDC
:1015300032F00101A26FCD0E036E010E046EA251B6
:101540003EEC3BF0000E0101AE6FB0EF0AF0FFFF82
:10155000CD0E016E010E026EACEC35F000EC33F0F6
:10156000FFFF000E0001C26F010EC36F000EC56FBA
:10157000A00EC46FFC0EC66F7F0EC76FD89001011E
:10158000CD35D96ECE35DA6ECF0ED926010EDA22E0
:10159000DECFC8F0DDCFC9F0C0EC33F0010E6BEC4C
:1015A00033F0800E6BEC33F0000E036E010E046E10
:1015B0002DEC37F0000E0101B06F000EAF6FFFFF92
:1015C000020ECD19CE11D8A4E8EF0AF0EBEF0AF025
:1015D000FFFF30EF0BF0FFFF8982A351A411D8B4B5
:1015E000F4EF0AF0F7EF0AF0FFFF0CEF0BF0FFFF4C
:1015F000A6BF07EF0BF0A65107E1640EA55DD8B0BA
:1016000004EF0BF007EF0BF0FFFF0CEF0BF0FFFF09
:10161000A54BA62B81EF0AF0FFFFA351A411D8B46C
:1016200014EF0BF017EF0BF0FFFF4DEF0BF0FFFF88
:10163000A6BF24EF0BF0A6510AE1640EA55DD8A069
:1016400024EF0BF027EF0BF0FFFF4DEF0BF0FFFF48
:10165000000ECE6F000ECD6F000EAF6F81EF0AF05F
:10166000FFFF8992CD51CE11D8A439EF0BF03CEF9A
:101670000BF0FFFF50EF0BF0FFFFAF51D8A443EF8B
:101680000BF046EF0BF0FFFF81EF0AF0FFFF010EBA
:10169000B06F010EAF6F81EF0AF0FFFF81EF0AF02C
:1016A000FFFFCD05CE11D8A458EF0BF05BEF0BF088
:1016B000FFFF64EF0BF0FFFF000ECE6F020ECD6F49
:1016C000010EB06F81EF0AF0FFFF030ECD19CE11AE
:1016D000D8A46DEF0BF070EF0BF0FFFFB1EF0BF044
:1016E000FFFFAD51D8B477EF0BF07AEF0BF0FFFFAF
:1016F0009AEF0BF0FFFFC7EC1FF0D4C0D6F0D5C0B7
:10170000D7F0FFEC38F00001D651D711D8B48BEFE9
:101710000BF08EEF0BF0FFFF4DEF0BF0FFFF000E15
:101720000101CE6F020ECD6F010EB06F000EAD6FD6
:1017300081EF0AF0FFFFD5BEA0EF0BF0A3EF0BF097
:10174000FFFFA8EF0BF0FFFF57EC33F020EC33F076
:10175000FFFFC7EC1FF0D4C0A0F1D5C0A1F181EF0D
:101760000AF0FFFF040ECD19CE11D8A4BAEF0BF08A
:10177000BDEF0BF0FFFF59EF0CF0FFFF030E000170
:10178000DD6FEB0EFFFFE82EFDD7DD2FFBD700D07E
:1017900000F00101A951AA11D8B4D1EF0BF0D4EF98
:1017A0000BF0FFFFEFEF0BF0FFFFBF0E076E010E18
:1017B000086E000E0A6E320E096EB2EC36F007505B
:1017C0000810D8B4E6EF0BF0E9EF0BF0FFFFEFEFF6
:1017D0000BF0FFFF000E0101AA6F000EA96FFFFFC3
:1017E0000101A951AA11D8A4F8EF0BF0FBEF0BF0FF
:1017F000FFFF21EF0CF0FFFFA751A811D8B403EFB2
:101800000CF006EF0CF0FFFF21EF0CF0FFFFB10E24
:10181000076E010E086E000E0A6E640E096EB2ECC1
:1018200036F007500810D8B418EF0CF01BEF0CF08E
:10183000FFFF21EF0CF0FFFF000E0101A86F000E6B
:10184000A76FFFFF0101A751A811D8B42AEF0CF030
:101850002EEF0CF0FFFF010E30EF0CF0FFFF000E3B
:10186000FFFF016E026AA951AA11D8B43AEF0CF039
:101870003EEF0CF0FFFF010E40EF0CF0FFFF000EFB
:10188000FFFF036E046A95EC33F001500210D8B4E8
:101890004CEF0CF04FEF0CF0FFFF81EF0AF0FFFF71
:1018A000000E0101CE6F050ECD6F010EB06F81EFFE
:1018B0000AF0FFFF050ECD19CE11D8A462EF0CF08F
:1018C00065EF0CF0FFFFCDEF0CF0FFFF030E000102
:1018D000DD6FEB0EFFFFE82EFDD7DD2FFBD700D02D
:1018E00000F0BF0E076E010E086E000E0A6E640E49
:1018F000096EB2EC36F007500810D8B482EF0CF045
:1019000085EF0CF0FFFF8FEF0CF0FFFFBF0E016EB5
:10191000010E026EDAEC33F00101AB4BAC2BFFFF92
:101920000101ACBF9DEF0CF0AC510AE1140EAB5DB0
:10193000D8A09DEF0CF0A0EF0CF0FFFF81EF0AF0B4
:10194000FFFF000ECE6F060ECD6F000EAC6F000EC7
:10195000AB6FBF0E016E010E026E000E046E000E24
:10196000036E000E066E000E056E000E086E010E70
:10197000076EE70E096E010E0A6E71EC37F0BF0EAE
:10198000016E010E026EDAEC33F0B10E016E010E43
:10199000026EDAEC33F081EF0AF0FFFF060ECD198C
:1019A000CE11D8A4D6EF0CF0D9EF0CF0FFFF5AEF10
:1019B0000DF0FFFF030E0001DD6FEB0EFFFFE82EC1
:1019C000FDD7DD2FFBD700D000F00101A751A811F2
:1019D000D8A4EDEF0CF0F0EF0CF0FFFF0BEF0DF0E3
:1019E000FFFFB10E076E010E086E000E0A6E640E48
:1019F000096EB2EC36F007500810D8B402EF0DF0C3
:101A000005EF0DF0FFFF0BEF0DF0FFFF000E0101E2
:101A1000A86F010EA76FFFFF0101A751A811D8B44D
:101A200014EF0DF017EF0DF0FFFF3DEF0DF0FFFF8E
:101A3000A951AA11D8A41FEF0DF022EF0DF0FFFF5E
:101A40003DEF0DF0FFFFBF0E076E010E086E000E9A
:101A50000A6E320E096EB2EC36F007500810D8B498
:101A600034EF0DF037EF0DF0FFFF3DEF0DF0FFFF0E
:101A7000000E0101AA6F010EA96FFFFFA7C101F0BF
:101A8000A8C102F0A9C103F0AAC104F095EC33F09B
:101A900001500210D8B44FEF0DF052EF0DF0FFFFE0
:101AA00081EF0AF0FFFF000E0101CE6F020ECD6F35
:101AB00081EF0AF0FFFF070ECD19CE11D8A463EF16
:101AC0000DF066EF0DF0FFFF4DEF0BF0FFFFAD5196
:101AD000D8B46DEF0DF070EF0DF0FFFF81EF0DF05A
:101AE000FFFF010EB06F000ECE6F020ECD6F000E25
:101AF000A46F010EA36F000EA66F000EA56F81EFFD
:101B00000AF0FFFFD5BE87EF0DF08AEF0DF0FFFF63
:101B10004DEF0BF0FFFF20EC33F081EF0AF03BEFCD
:101B200000F0FFFF6250800B6B6E625062246D6E9E
:101B300061AE9DEF0DF0A0EF0DF0FFFFA2EF0DF0F5
:101B4000FFFF6D80FFFF6D50D8B4A9EF0DF0ACEF33
:101B50000DF0FFFFC5EF0DF0FFFF6D28D8A4B3EF28
:101B60000DF0B6EF0DF0FFFFBFEF0DF0FFFF000E21
:101B70005F6E000E606E000E616E000E626EFFFF03
:101B8000618E000E626ECEEF0DF0FFFF000E5F6EF5
:101B9000000E606E000E616E000E626EFFFF6650FA
:101BA000800B6C6E6B506C18D8B4D9EF0DF0DCEF75
:101BB0000DF0FFFFDEEF0DF0FFFF6B8CFFFF6650B7
:101BC00066246C6E65AEE7EF0DF0EAEF0DF0FFFFF7
:101BD000ECEF0DF0FFFF6C80FFFF6C50D8B4F3EF1B
:101BE0000DF0F6EF0DF0FFFF0FEF0EF0FFFF6C288A
:101BF000D8A4FDEF0DF000EF0EF0FFFF09EF0EF09F
:101C0000FFFF000E636E000E646E000E656E000E28
:101C1000666EFFFF658E000E666E18EF0EF0FFFF1A
:101C2000000E636E000E646E000E656E000E666E32
:101C3000FFFF6D506C5CD8B020EF0EF023EF0EF07C
:101C4000FFFF4EEF0EF0FFFF6BAC29EF0EF02CEF15
:101C50000EF0FFFF2FEF0EF0FFFF800E6B1AFFFF5D
:101C60006DC06EF06CC06DF06EC06CF05FC06EF059
:101C700063C05FF06EC063F060C06EF064C060F07F
:101C80006EC064F061C06EF065C061F06EC065F05A
:101C900062C06EF066C062F06EC066F0FFFF000EBC
:101CA0006E6E6D506CC067F0686A675E000E685AB1
:101CB00068BE64EF0EF068500AE11A0E675CD8A0A7
:101CC00064EF0EF067EF0EF0FFFFAAEF0EF0FFFFDC
:101CD0005F50601061106210D8A471EF0EF075EFC4
:101CE0000EF0FFFF010E77EF0EF0FFFF000EFFFF7B
:101CF0006E6E000E5F6E000E606E000E616E000E66
:101D0000626E6CC06DF0B5EF0EF0FFFF6EA08BEF52
:101D10000EF08EEF0EF0FFFF95EF0EF0FFFFD89064
:101D20006E3001096E6E98EF0EF0FFFFD8906E32A4
:101D3000FFFF5FA09EEF0EF0A1EF0EF0FFFFA3EFFD
:101D40000EF0FFFF6E8EFFFF62346232613260324E
:101D50005F326D2AFFFF6C506D5CD8A0B2EF0EF0C1
:101D6000B5EF0EF0FFFF85EF0EF0FFFF6BBCBBEF92
:101D70000EF0BEEF0EF0FFFF0BEF0FF0FFFF6D5008
:101D8000D8A4C5EF0EF0C8EF0EF0FFFFD3EF0EF0B2
:101D9000FFFF000E5F6E000E606E000E616E000EA3
:101DA000626E62EF10F0FFFF63505F2664506022A6
:101DB000655061226650622262A0E1EF0EF0E4EF0E
:101DC0000EF0FFFFAFEF0FF0FFFF6EA0EAEF0EF097
:101DD000EDEF0EF0FFFFF4EF0EF0FFFFD8906E3046
:101DE00001096E6EF7EF0EF0FFFFD8906E32FFFF25
:101DF0005FA0FDEF0EF000EF0FF0FFFF02EF0FF01E
:101E0000FFFF6E8EFFFF62346232613260325F32FA
:101E10006D2AAFEF0FF0FFFF63505F5C64506058B6
:101E2000655061586250800A676E6650800A675834
:101E3000D8B01DEF0FF020EF0FF0FFFF4EEF0FF0C7
:101E4000FFFF5F50635C676E60506458686E61505E
:101E50006558696E625066586A6EFF0E67245F6E41
:101E6000FF0E6820606EFF0E6920616EFF0E6A2013
:101E7000626E800E6B1A6E6C6E50D8A442EF0FF03B
:101E800045EF0FF0FFFF57EF0FF0FFFF010E5F264A
:101E9000000E60226122622257EF0FF0FFFF6350B5
:101EA0005F5E6450605A6550615A6650625AFFFF27
:101EB0005F50601061106210D8A461EF0FF064EF02
:101EC0000FF0FFFFA6EF0FF0FFFF6E50D8A46BEFEF
:101ED0000FF06EEF0FF0FFFFA6EF0FF0FFFF000E09
:101EE0005F6E000E606E000E616E000E626E62EF3D
:101EF00010F0FFFFD8905F366036613662366EAE06
:101F000084EF0FF087EF0FF0FFFF89EF0FF0FFFF77
:101F10005F80FFFF6EA08FEF0FF092EF0FF0FFFFDB
:101F200097EF0FF0FFFFD8806E369AEF0FF0FFFFAC
:101F3000D8906E36FFFF6D50D8B4A1EF0FF0A4EF2C
:101F40000FF0FFFFA6EF0FF0FFFF6D06FFFF61AE82
:101F5000ACEF0FF0AFEF0FF0FFFF79EF0FF0FFFFE7
:101F6000000E6C6E6EAEB7EF0FF0BAEF0FF0FFFF22
:101F7000D9EF0FF0FFFF6EC067F07F0E6716D8B481
:101F8000C4EF0FF0C7EF0FF0FFFFCDEF0FF0FFFF33
:101F9000FFFF010E6C6ED9EF0FF0FFFF5FA0D3EFD4
:101FA0000FF0D6EF0FF0FFFFD9EF0FF0FFFFC8EFF4
:101FB0000FF0FFFF6C50D8B4E0EF0FF0E3EF0FF03D
:101FC000FFFF13EF10F0FFFF010E5F26000E6022EF
:101FD0006122622262A0EFEF0FF0F2EF0FF0FFFF3D
:101FE00013EF10F0FFFF5FC067F060C068F061C0E2
:101FF00069F062C06AF06A346A3269326832673204
:1020000067C05FF068C060F069C061F06AC062F0EC
:102010006D28D8B40EEF10F011EF10F0FFFF13EFA2
:1020200010F0FFFF6D2AFFFF6D28D8B41AEF10F0F3
:102030001DEF10F0FFFF27EF10F0FFFF6D50D8A449
:1020400024EF10F027EF10F0FFFF3CEF10F0FFFF40
:10205000000E5F6E000E606E000E616E000E626E0E
:102060006D50D8A436EF10F039EF10F0FFFF3CEFC1
:1020700010F0FFFF000E6B6EFFFF6DA042EF10F03F
:1020800045EF10F0FFFF49EF10F0FFFF618E4BEFBF
:1020900010F0FFFF619EFFFFD8906D30626E6BAE57
:1020A00054EF10F057EF10F0FFFF59EF10F0FFFF63
:1020B000628EFFFF5FC05FF060C060F061C061F0E2
:1020C00062C062F0FFFF1200FFFFFFFF3050800B85
:1020D000396E305030243F6E2FAE71EF10F074EF38
:1020E00010F0FFFF76EF10F0FFFF3F80FFFF3F5043
:1020F000D8B47DEF10F080EF10F0FFFF97EF10F0F5
:10210000FFFF3F28D8A487EF10F08AEF10F0FFFF01
:1021100093EF10F0FFFF000E2D6E000E2E6E000EDE
:102120002F6E000E306EFFFF2F8EA0EF10F0FFFF1E
:10213000000E2D6E000E2E6E000E2F6E000E306EF5
:10214000FFFF3450800B391A345034243E6E33AEC6
:10215000ACEF10F0AFEF10F0FFFFB1EF10F0FFFFAA
:102160003E80FFFF3E50D8B4B8EF10F0BBEF10F048
:10217000FFFFD2EF10F0FFFF3E28D8A4C2EF10F00F
:10218000C5EF10F0FFFFCEEF10F0FFFF000E316E35
:10219000000E326E000E336E000E346EFFFF338E73
:1021A000DBEF10F0FFFF000E316E000E326E000EFE
:1021B000336E000E346EFFFF3E50D8B4E2EF10F0E5
:1021C000E5EF10F0FFFFEFEF10F0FFFF3F50D8A456
:1021D000ECEF10F0EFEF10F0FFFFFAEF10F0FFFF61
:1021E000000E2D6E000E2E6E000E2F6E000E306E45
:1021F000B4EF12F0FFFF33502D02F3CF44F0F4CFD1
:1022000045F044503A6E3B6A3C6A3D6A4550406E28
:10221000416A426A436A32502E02F3CF44F0F4CF4F
:1022200045F044503A26000E3B223C223D224550C8
:102230004026000E41224222432231502F02F3CF8A
:1022400044F0F4CF45F044503A26000E3B223C22A5
:102250003D2245504026000E4122422243223CC0EE
:102260003DF03BC03CF03AC03BF03A6A31502E02A0
:10227000F3CF44F0F4CF45F044503A2645503B228A
:10228000000E3C22000E3D2232502D02F3CF44F0CE
:10229000F4CF45F044503A2645503B22000E3C22F4
:1022A000000E3D223CC03DF03BC03CF03AC03BF04C
:1022B0003A6A31502D02F3CF44F0F4CF45F0445048
:1022C0003A2645503B22000E3C22000E3D22335060
:1022D0002E02F3CF44F0F4CF45F044504026455051
:1022E0004122000E4222000E432232502F02F3CF31
:1022F00044F0F4CF45F04450402645504122000EB2
:102300004222000E432233502F02F3CF44F0F4CF89
:1023100045F04450356E4550366E376A386A37C0DE
:1023200038F036C037F035C036F0356A35504026C3
:102330003650412237504222385043223AC035F0BD
:102340003BC036F03CC037F03DC038F0190EAFEF5F
:1023500011F0FFFFD8903832373236323532FFFF76
:10236000E82EA9EF11F03550402636504122375063
:102370004222385043223CC03DF03BC03CF03AC0C2
:102380003BF03A6A3E503FC035F0366A3526000EC3
:102390003622820E3524446EFF0E3620456EEAEF5B
:1023A00011F0FFFFD89040364136423643363DAEFD
:1023B000DCEF11F0DFEF11F0FFFFE1EF11F0FFFFB5
:1023C0004080FFFFD8903A363B363C363D364406D7
:1023D000D8A04506FFFF42AEF0EF11F0F3EF11F089
:1023E000FFFFD1EF11F0FFFF000E3E6E3DAEFBEFA1
:1023F00011F0FEEF11F0FFFF29EF12F0FFFFFF0ECB
:102400003A14356EFF0E3B14366EFF0E3C14376ED9
:102410007F0E3D14386E3550361037103810D8B452
:1024200014EF12F017EF12F0FFFF1DEF12F0FFFF95
:10243000FFFF010E3E6E29EF12F0FFFF40A023EFD9
:1024400012F026EF12F0FFFF29EF12F0FFFF18EF56
:1024500012F0FFFF3E50D8B430EF12F033EF12F01D
:10246000FFFF5AEF12F0FFFF010E4026000E41223F
:102470004222432243A03FEF12F042EF12F0FFFF4F
:102480005AEF12F0FFFF40C035F041C036F042C0B5
:1024900037F043C038F038343832373236323532DC
:1024A00035C040F036C041F037C042F038C043F08C
:1024B000444A452AFFFF45BE66EF12F0455009E148
:1024C0004428D8A066EF12F069EF12F0FFFF74EF16
:1024D00012F0FFFF000E406E000E416E800E426E45
:1024E0007F0E436EA9EF12F0FFFF45BE83EF12F09F
:1024F000455006E14404D8B080EF12F083EF12F0AB
:10250000FFFF90EF12F0FFFF000E406E000E416ED5
:10251000000E426E000E436E000E396EA9EF12F0EF
:10252000FFFF44C03FF0FF0E4016FF0E41167F0E26
:102530004216000E43163FA0A0EF12F0A3EF12F0D8
:10254000FFFFA5EF12F0FFFF428EFFFFD8903F3054
:10255000436EFFFF3950431240C02DF041C02EF0B2
:1025600042C02FF043C030F0FFFF1200FFFFFFFF1B
:102570004950800B566E495049245D6E48AEC3EFFA
:1025800012F0C6EF12F0FFFFC8EF12F0FFFF5D8000
:10259000FFFF5D50D8B4CFEF12F0D2EF12F0FFFF83
:1025A000EBEF12F0FFFF5D28D8A4D9EF12F0DCEFBB
:1025B00012F0FFFFE5EF12F0FFFF000E466E000E77
:1025C000476E000E486E000E496EFFFF488E000EEB
:1025D000496EF4EF12F0FFFF000E466E000E476EDC
:1025E000000E486E000E496EFFFF4D50800B561ACC
:1025F0004D504D245E6E4CAE00EF13F003EF13F020
:10260000FFFF05EF13F0FFFF5E80FFFF5E50D8B4C1
:102610000CEF13F00FEF13F0FFFF28EF13F0FFFFA5
:102620005E28D8A416EF13F019EF13F0FFFF22EF86
:1026300013F0FFFF000E4A6E000E4B6E000E4C6E44
:10264000000E4D6EFFFF4C8E000E4D6E31EF13F0FD
:10265000FFFF000E4A6E000E4B6E000E4C6E000E19
:102660004D6EFFFF4A504B104C104D10D8A43BEF5D
:1026700013F03EEF13F0FFFF58EF13F0FFFF000ED3
:10268000466E000E476E000E486E000E496E800EBC
:1026900048127F0E4912FFFF5650491246C046F0BD
:1026A00047C047F048C048F049C049F0CDEF14F0AA
:1026B000FFFF5D50D8A45FEF13F062EF13F0FFFF50
:1026C0006DEF13F0FFFF000E466E000E476E000E1A
:1026D000486E000E496ECDEF14F0FFFF5E505DC0F6
:1026E0004EF04F6A4E5E000E4F5A7F0E4E24576ECC
:1026F000000E4F20586E46C052F047C053F048C0FD
:1027000054F049C055F0000E466E000E476E000EA4
:10271000486E000E496E000E596E000E5A6E000E85
:102720005B6E000E5C6E000E5E6ED9EF13F0FFFF65
:102730005E50D8B49EEF13F0A1EF13F0FFFFBCEF93
:1027400013F0FFFFD8905236533654365536D89092
:1027500046364736483649365CAEB1EF13F0B4EF33
:1027600013F0FFFFB6EF13F0FFFF4680FFFFD89096
:1027700059365A365B365C36FFFF4A50525C4B5036
:1027800053584C5054584D505558D8A0CAEF13F0D8
:10279000CDEF13F0FFFFD7EF13F0FFFF5C8C4A5033
:1027A000525E4B50535A4C50545A4D50555AFFFF9D
:1027B0005E2AFFFF190E5E64E0EF13F0E3EF13F003
:1027C000FFFF97EF13F0FFFF5250531054105510B6
:1027D000D8B4EDEF13F0F0EF13F0FFFF0DEF14F0AE
:1027E000FFFF59800DEF14F0FFFFD89046364736B3
:1027F000483649365CAEFFEF13F002EF14F0FFFFEE
:1028000004EF14F0FFFF4680FFFFD89059365A3688
:102810005B365C365706D8A05806FFFF48AE13EF6C
:1028200014F016EF14F0FFFFF4EF13F0FFFF000EAB
:102830005E6E5CAE1EEF14F021EF14F0FFFF4CEF64
:1028400014F0FFFFFF0E59144E6EFF0E5A144F6E18
:10285000FF0E5B14506E7F0E5C14516E4E504F1085
:1028600050105110D8B437EF14F03AEF14F0FFFFC6
:1028700040EF14F0FFFFFFFF010E5E6E4CEF14F00F
:10288000FFFF46A046EF14F049EF14F0FFFF4CEFB6
:1028900014F0FFFF3BEF14F0FFFF5E50D8B453EF8E
:1028A00014F056EF14F0FFFF7DEF14F0FFFF010E60
:1028B0004626000E47224822492249A062EF14F022
:1028C00065EF14F0FFFF7DEF14F0FFFF46C04EF000
:1028D00047C04FF048C050F049C051F05134513218
:1028E00050324F324E324EC046F04FC047F050C0CB
:1028F00048F051C049F0574A582AFFFF58BE89EFA7
:1029000014F0585009E15728D8A089EF14F08CEF43
:1029100014F0FFFF98EF14F0FFFF000E586E576899
:10292000000E466E000E476E000E486E000E496E99
:10293000FFFF58BEA7EF14F0585006E15704D8B077
:10294000A4EF14F0A7EF14F0FFFFB6EF14F0FFFFB1
:10295000000E586E000E576E000E466E000E476E4B
:10296000000E486E000E496E000E566EFFFF57C0F7
:102970005DF05DA0BEEF14F0C1EF14F0FFFFC5EFF6
:1029800014F0FFFF488EC7EF14F0FFFF489EFFFFD3
:10299000D8905D30496E4BEF13F0FFFF1200FFFF40
:1029A000FFFF80C0C2F081C0C3F082C0C4F083C00A
:1029B000C5F077C0C2F078C0C3F079C0C4F07AC067
:1029C000C5F0C2C07BF0C3C07CF0C4C07DF0C5C000
:1029D0007EF0180EF2EF14F0FFFFD8907E327D32B9
:1029E0007C327B32FFFFE82EECEF14F07B500001CD
:1029F000BC6FBD6BBDBF06EF15F0BD510AE1960E71
:102A0000BC5DD8A006EF15F009EF15F0FFFF14EF3D
:102A100015F0FFFF77C077F078C078F079C079F0D3
:102A20007AC07AF0C2EF16F0FFFFC2C07BF0C3C0DD
:102A30007CF0C4C07DF0C5C07EF0200E26EF15F0FE
:102A4000FFFFD8907E327D327C327B32FFFFE82E52
:102A500020EF15F07B507C107D107E10D8B433EF42
:102A600015F036EF15F0FFFF49EF15F0FFFF77C0C7
:102A700001F078C002F079C003F07AC004F013ECE2
:102A800034F001C077F002C078F003C079F004C0E0
:102A90007AF0FFFF0001BDBF5AEF15F0BD5107E10D
:102AA0007E0EBC5DD8B057EF15F05AEF15F0FFFF62
:102AB00077EF15F0FFFFC2C02DF0C3C02EF0C4C0E9
:102AC0002FF0C5C030F0000E316E000E326E000ED9
:102AD000336E000E346E65EC10F02DC077F02EC012
:102AE00078F02FC079F030C07AF0C2EF16F0FFFF17
:102AF000000E636E000E646E000E656E4B0E666E09
:102B000077C05FF078C060F079C061F07AC062F0A1
:102B100091EC0DF05FC0BEF060C0BFF061C0C0F0CE
:102B200062C0C1F0000E636E000E646E000E656E32
:102B3000CB0E666EBEC05FF0BFC060F0C0C061F07B
:102B4000C1C062F091EC0DF05FC0B8F060C0B9F0A8
:102B500061C0BAF062C0BBF0B8C06FF0B9C070F02D
:102B6000BAC071F0BBC072F077C073F078C074F077
:102B700079C075F07AC076F0DBEC34F06FC0C6F047
:102B800070C0C7F071C0C8F072C0C9F0000E016E0D
:102B9000000E026E000E036E3F0E046EC6C005F0FE
:102BA000C7C006F0C8C007F0C9C008F0C5EC3CF0CB
:102BB000D8B0DDEF15F0E0EF15F0FFFF17EF16F0DE
:102BC000FFFF77C063F078C064F079C065F07AC029
:102BD00066F0C6C05FF0C7C060F0C8C061F0C9C091
:102BE00062F091EC0DF05FC0BEF060C0BFF061C05C
:102BF000C0F062C0C1F0BEC05FF0BFC060F0C0C036
:102C000061F0C1C062F0000E636E000E646E800E53
:102C1000656EBF0E666E91EC0DF05FC0C6F060C0D1
:102C2000C7F061C0C8F062C0C9F084EF16F0FFFFC2
:102C3000000E016E000E026E000E036EBF0E046EDB
:102C4000C6C005F0C7C006F0C8C007F0C9C008F08C
:102C5000C5EC3CF0D8A02FEF16F032EF16F0FFFFD6
:102C600069EF16F0FFFF77C063F078C064F079C0B9
:102C700065F07AC066F0C6C05FF0C7C060F0C8C03B
:102C800061F0C9C062F091EC0DF05FC0BEF060C0B1
:102C9000BFF061C0C0F062C0C1F0BEC05FF0BFC095
:102CA00060F0C0C061F0C1C062F0000E636E000E43
:102CB000646E800E656E3F0E666E91EC0DF05FC027
:102CC000C6F060C0C7F061C0C8F062C0C9F084EF50
:102CD00016F0FFFFC6C05FF0C7C060F0C8C061F06B
:102CE000C9C062F077C063F078C064F079C065F065
:102CF0007AC066F091EC0DF05FC0C6F060C0C7F01E
:102D000061C0C8F062C0C9F0FFFFC2C07BF0C3C0A1
:102D10007CF0C4C07DF0C5C07EF0200E96EF16F0AA
:102D2000FFFFD8907E327D327C327B32FFFFE82E6F
:102D300090EF16F07B507C107D107E10D8B4A3EF7E
:102D400016F0A6EF16F0FFFFB9EF16F0FFFFC6C0B2
:102D500001F0C7C002F0C8C003F0C9C004F013EC12
:102D600034F001C0C6F002C0C7F003C0C8F004C010
:102D7000C9F0FFFFC6C077F0C7C078F0C8C079F0CF
:102D8000C9C07AF0FFFF1200FFFFFFFF1EC036F040
:102D90001FC037F020C038F021C039F022C03AF00F
:102DA00023C03BF024C03CF025C03DF03DBEDBEF2E
:102DB00016F0DFEF16F0FFFF010EE1EF16F0FFFF58
:102DC000000EFFFF346E356A34503510D8B4EBEF87
:102DD00016F0EEEF16F0FFFFFFEF16F0FFFF3D1EBF
:102DE0003C1E3B1E3A1E391E381E371E366C000E26
:102DF0003722382239223A223B223C223D22FFFF51
:102E0000000189BF06EF17F009EF17F0FFFF0BEF86
:102E100017F0FFFF8A93FFFF89BF1AEF17F0895160
:102E200006E18805D8B017EF17F01AEF17F0FFFF8B
:102E300021EF17F0FFFF000E316E010E306E26EF0E
:102E400017F0FFFF88C030F089C031F0FFFF86C067
:102E500032F087C033F034503510D8A432EF17F079
:102E600035EF17F0FFFF3EEF17F0FFFF8AA53BEFAE
:102E700017F03EEF17F0FFFF42EF17F0FFFF3206AB
:102E8000D8A03306FFFF000E3F6E1F0E3E6E000EF1
:102E9000B76FC8EF17F0FFFF3E06D8A03F06980EA9
:102EA0003E24D96E000E3F20DA6E36C001F037C0E6
:102EB00002F038C003F039C004F03AC005F03BC05E
:102EC00006F03CC007F03DC008F00A0E096E000E87
:102ED0000A6E000E0B6E000E0C6E000E0D6E000ED4
:102EE0000E6E000E0F6E000E106E92EC3EF001C0E2
:102EF00026F002C027F003C028F004C029F005C066
:102F00002AF006C02BF007C02CF008C02DF026C018
:102F100013F028C014F000EC35F01350300FDF6EC2
:102F20003006D8A031063206D8A0330636C001F0EC
:102F300037C002F038C003F039C004F03AC005F0E1
:102F40003BC006F03CC007F03DC008F00A0E096E19
:102F5000000E0A6E000E0B6E000E0C6E000E0D6E53
:102F6000000E0E6E000E0F6E000E106EEDEC1EF0D9
:102F700001C036F002C037F003C038F004C039F0A9
:102F800005C03AF006C03BF007C03CF008C03DF079
:102F9000FFFF3FBED4EF17F03F5009E13E04D8A039
:102FA000D4EF17F0D7EF17F0FFFF10EF18F0FFFF87
:102FB00036503710381039103A103B103C103D1085
:102FC000D8A4E5EF17F0E8EF17F0FFFF4BEF17F08D
:102FD000FFFF31BEF7EF17F0315006E13004D8B0F3
:102FE000F4EF17F0F7EF17F0FFFF4BEF17F0FFFFCD
:102FF00033BE03EF18F0335009E13204D8A003EFD9
:1030000018F006EF18F0FFFF10EF18F0FFFF0001B7
:103010008AB30DEF18F010EF18F0FFFF4BEF17F029
:10302000FFFF34503510D8A418EF18F01BEF18F03C
:10303000FFFF25EF18F0FFFF00018AA522EF18F02F
:1030400025EF18F0FFFF48EF18F0FFFF3E06D8A06D
:103050003F0634503510D8A430EF18F033EF18F095
:10306000FFFF3AEF18F0FFFF000E2F6E2B0E2E6EB3
:103070003FEF18F0FFFF000E2F6E2D0E2E6EFFFF9C
:10308000980E3E24D96E000E3F20DA6E2EC0DFFF70
:10309000FFFF1CC011F01DC012F0980E3E24136EED
:1030A000000E3F20146E32C015F033C016F0DEEC77
:1030B00039F011C01CF012C01DF01200FFFFFFFF1D
:1030C000000189BF66EF18F069EF18F0FFFF6BEFA2
:1030D00018F0FFFF8A93FFFF89BF7AEF18F089513C
:1030E00006E18805D8B077EF18F07AEF18F0FFFF07
:1030F00081EF18F0FFFF000E346E010E336E86EF85
:1031000018F0FFFF88C033F089C034F0FFFF86C09D
:1031100035F087C036F08AA990EF18F093EF18F0D9
:10312000FFFF98EF18F0FFFFFE0E3526FF0E362248
:10313000FFFF1EC037F01FC038F020C039F021C09B
:103140003AF022C03BF023C03CF024C03DF025C043
:103150003EF0000E406E1F0E3F6E000EB76F76EF12
:1031600019F0FFFF3F06D8A040060F0E3714416E3E
:10317000426A42BEC5EF18F042500AE10A0E415CB5
:10318000D8A0C5EF18F0C8EF18F0FFFFD1EF18F086
:10319000FFFF570E4124416E000E4220426ED8EFD1
:1031A00018F0FFFF300E4124416E000E4220426EA7
:1031B000FFFFBF0E276EFF0E286E2650296E2A6A6B
:1031C0002750292628502A222A500BE11A0E295C62
:1031D000D8A0EDEF18F0F1EF18F0FFFF010EF3EFBC
:1031E00018F0FFFF000EFFFF2F6E306A2F503010D7
:1031F000D8B4FDEF18F000EF19F0FFFF36EF19F02B
:10320000FFFF9F0E276EFF0E286E200E4110296EC5
:10321000000E42102A6E2750292628502A222A50B2
:103220000BE11A0E295CD8A018EF19F01CEF19F069
:10323000FFFF010E1EEF19F0FFFF000EFFFF316EC2
:10324000326A31503210D8B428EF19F02BEF19F050
:10325000FFFF36EF19F0FFFF41C007F042C008F052
:1032600042EC36F007C041F008C042F0FFFF980E74
:103270003F24D96E000E4020DA6E41C0DFFF3306D6
:10328000D8A034063506D8A0360637C027F038C097
:1032900028F039C029F03AC02AF03BC02BF03CC0DE
:1032A0002CF03DC02DF03EC02EF0050E62EF19F05F
:1032B000FFFFD8902E322D322C322B322A32293277
:1032C00028322732FFFFE82E58EF19F027C037F0D9
:1032D00028C038F029C039F02AC03AF02BC03BF0A2
:1032E0002CC03CF02DC03DF02EC03EF0FFFF40BE94
:1032F00083EF19F040500AE1020E3F5CD8A083EF43
:1033000019F086EF19F0FFFFBFEF19F0FFFF3750FC
:10331000381039103A103B103C103D103E10D8A424
:1033200094EF19F097EF19F0FFFFB1EF18F0FFFFDE
:1033300034BEA6EF19F0345006E13304D8B0A3EF41
:1033400019F0A6EF19F0FFFFB1EF18F0FFFF36BE3E
:10335000B2EF19F0365009E13504D8A0B2EF19F0F8
:10336000B5EF19F0FFFFBFEF19F0FFFF00018AB3BF
:10337000BCEF19F0BFEF19F0FFFFB1EF18F0FFFF3E
:1033800000018AA9C6EF19F0C9EF19F0FFFFE0EFBD
:1033900019F0FFFF3F06D8A04006980E3F24D96ED3
:1033A000000E4020DA6E26C0DFFF3F06D8A04006A0
:1033B000980E3F24D96E000E4020DA6E300EDF6E7C
:1033C000FFFF1CC011F01DC012F0980E3F24136EB9
:1033D000000E4020146E35C015F036C016F0DEEC3D
:1033E00039F011C01CF012C01DF01200FFFFFFFFEA
:1033F000000189BFFEEF19F001EF1AF0FFFF03EFA4
:103400001AF0FFFF8A93FFFF89BF12EF1AF089516C
:1034100006E18805D8B00FEF1AF012EF1AF0FFFF9F
:1034200019EF1AF0FFFF000E2F6E010E2E6E1EEF29
:103430001AF0FFFF88C02EF089C02FF0FFFF86C072
:1034400030F087C031F01EC032F01FC033F020C012
:1034500034F021C035F022C036F023C037F024C04C
:1034600038F025C039F0000E3B6E1F0E3A6E000E8C
:10347000B76FB2EF1AF0FFFF3A06D8A03B06980EDE
:103480003A24D96E000E3B20DA6E32C001F033C010
:1034900002F034C003F035C004F036C005F037C088
:1034A00006F038C007F039C008F00A0E096E000EA9
:1034B0000A6E000E0B6E000E0C6E000E0D6E000EEE
:1034C0000E6E000E0F6E000E106E51EC3AF001C041
:1034D00026F002C027F003C028F004C029F005C080
:1034E0002AF006C02BF007C02CF008C02DF02650A3
:1034F000300FDF6E2E06D8A02F063006D8A031067A
:1035000032C001F033C002F034C003F035C004F023
:1035100036C005F037C006F038C007F039C008F0F3
:103520000A0E096E000E0A6E000E0B6E000E0C6E77
:10353000000E0D6E000E0E6E000E0F6E000E106E61
:1035400040EC3CF001C032F002C033F003C034F074
:1035500004C035F005C036F006C037F007C038F0BB
:1035600008C039F0FFFF3A503B10D8B4BAEF1AF058
:10357000BDEF1AF0FFFFF6EF1AF0FFFF32503310E5
:10358000341035103610371038103910D8A4CBEF5E
:103590001AF0CEEF1AF0FFFF3BEF1AF0FFFF2FBE3D
:1035A000DDEF1AF02F5006E12E04D8B0DAEF1AF052
:1035B000DDEF1AF0FFFF3BEF1AF0FFFF31BEE9EF3E
:1035C0001AF0315009E13004D8A0E9EF1AF0ECEF1D
:1035D0001AF0FFFFF6EF1AF0FFFF00018AB3F3EFD6
:1035E0001AF0F6EF1AF0FFFF3BEF1AF0FFFF1CC0D6
:1035F00011F01DC012F0980E3A24136E000E3B20FD
:10360000146E30C015F031C016F0DEEC39F011C088
:103610001CF012C01DF01200FFFFFFFF000189BF68
:1036200014EF1BF017EF1BF0FFFF19EF1BF0FFFF6C
:103630008A93FFFF89BF28EF1BF0895106E18805B7
:10364000D8B025EF1BF028EF1BF0FFFF2FEF1BF08A
:10365000FFFF000E2F6E010E2E6E34EF1BF0FFFFEA
:1036600088C02EF089C02FF0FFFF86C032F087C0DF
:1036700033F01EC034F01FC035F020C036F021C03A
:1036800037F022C038F023C039F024C03AF025C00A
:103690003BF0000E3D6E1F0E3C6E000EB76F000E2D
:1036A000316E000E306E9DEF1BF0FFFF3C06D8A080
:1036B0003D06070E3414306E316A980E3C24D96EE4
:1036C000000E3D20DA6E3050300FDF6E2E06D8A08F
:1036D0002F063206D8A0330634C026F035C027F0B6
:1036E00036C028F037C029F038C02AF039C02BF096
:1036F0003AC02CF03BC02DF0040E89EF1BF0FFFF09
:10370000D8902D322C322B322A32293228322732CD
:103710002632FFFFE82E7FEF1BF026C034F027C0D3
:1037200035F028C036F029C037F02AC038F02BC059
:1037300039F02CC03AF02DC03BF0FFFF3DBEA9EFA1
:103740001BF03D5009E13C04D8A0A9EF1BF0ACEF01
:103750001BF0FFFFE5EF1BF0FFFF34503510361074
:103760003710381039103A103B10D8A4BAEF1BF0BC
:10377000BDEF1BF0FFFF55EF1BF0FFFF2FBECCEF9F
:103780001BF02F5006E12E04D8B0C9EF1BF0CCEF90
:103790001BF0FFFF55EF1BF0FFFF33BED8EF1BF010
:1037A000335009E13204D8A0D8EF1BF0DBEF1BF057
:1037B000FFFFE5EF1BF0FFFF00018AB3E2EF1BF014
:1037C000E5EF1BF0FFFF55EF1BF0FFFF00018AA99B
:1037D000ECEF1BF0EFEF1BF0FFFF09EF1CF0FFFF1A
:1037E00030503110D8B4F7EF1BF0FAEF1BF0FFFFA9
:1037F00009EF1CF0FFFF3C06D8A03D06980E3C24C4
:10380000D96E000E3D20DA6E300EDF6E3206D8A083
:103810003306FFFF1CC011F01DC012F0980E3C24AF
:10382000136E000E3D20146E32C015F033C016F03A
:10383000DEEC39F011C01CF012C01DF01200FFFFC9
:10384000FFFF276E2750D8B428EF1CF02BEF1CF099
:10385000FFFF50EF1CF0FFFF22BE34EF1CF031EFF2
:103860001CF0FFFF50EF1CF0FFFF1FC023F020C033
:1038700024F021C025F022C026F0231E241E251E80
:10388000261E232A000E24222522262223C029F0C8
:1038900024C02AF025C02BF026C02CF059EF1CF0D4
:1038A000FFFF1FC029F020C02AF021C02BF022C04A
:1038B0002CF0FFFF1F50201021102210D8A463EF1E
:1038C0001CF066EF1CF0FFFF71EF1CF0FFFF000E15
:1038D0001F6E000E206E000E216E000E226E19EF7C
:1038E0001DF0FFFF960E286E7DEF1CF0FFFF282ACB
:1038F000D8902C322B322A322932FFFF000E2914A5
:10390000236E000E2A14246E000E2B14256EFE0E5C
:103910002C14266E2350241025102610D8A493EFC3
:103920001CF096EF1CF0FFFF76EF1CF0FFFFA6EFF8
:103930001CF0FFFF282A010E2926000E2A222B2226
:103940002C22D8902C322B322A322932FFFF000E43
:103950002914236E000E2A14246E000E2B14256EDB
:10396000FF0E2C14266E2350241025102610D8A4E8
:10397000BCEF1CF0BFEF1CF0FFFF99EF1CF0FFFF46
:10398000C9EF1CF0FFFF2806D89029362A362B36BF
:103990002C36FFFF2BBECFEF1CF0D2EF1CF0FFFF49
:1039A000DCEF1CF0FFFF020E2860D9EF1CF0DCEF0B
:1039B0001CF0FFFFC2EF1CF0FFFF28B0E2EF1CF08D
:1039C000E5EF1CF0FFFFE7EF1CF0FFFF2B9EFFFF72
:1039D000D890283228C023F0246A256A266A23C09A
:1039E00026F0256A246A236A2350291224502A12B9
:1039F00025502B1226502C122750D8B402EF1DF060
:103A000005EF1DF0FFFF10EF1DF0FFFF22BE0EEFD0
:103A10001DF00BEF1DF0FFFF10EF1DF0FFFF2C8ED0
:103A2000FFFF29C01FF02AC020F02BC021F02CC0BE
:103A300022F0FFFF1200FFFFFFFF20EEDEF010EE8E
:103A40000FF0060EDBCFE3FFE806FCE20CC01AF035
:103A50000DC01BF01A501B10D8A431EF1DF034EF2D
:103A60001DF0FFFF39EF1DF0FFFF0F0E1A6E000E65
:103A70001B6EFFFF1AC001F01BC002F04EEC35F0C8
:103A800001C01EF002C01FF088C01CF089C01DF0EC
:103A90001DBE4DEF1DF050EF1DF0FFFF69EF1DF053
:103AA000FFFF1E501C5C1D50800A0E6E1F50800AC6
:103AB0000E58D8A05EEF1DF061EF1DF0FFFF64EF20
:103AC0001DF0FFFF69EF1DF0FFFF1CC01EF01DC0C1
:103AD0001FF0FFFF1EC01CF01FC01DF086C018F0B5
:103AE00087C019F000018AB178EF1DF07BEF1DF05F
:103AF000FFFF9CEF1DF0FFFF8BEF1DF0FFFF000E9F
:103B0000026E200E016E0AC003F00BC004F06DECD3
:103B100039F01E4A1F2AFFFF18501E5C1F50800AF2
:103B20000E6E1950800A0E58D8A099EF1DF09CEF28
:103B30001DF0FFFF7EEF1DF0FFFF000E176E000E61
:103B4000166EC3EF1DF0FFFF1AC0F6FF1BC0F7FF94
:103B5000F86A050EF76404D00800FFFFF55005D0A1
:103B6000F6CFE1FFF7CFE2FFE7500E6E0E50016E89
:103B7000026A0AC003F00BC004F06DEC39F01A4A77
:103B80001B2A164A172AFFFF1C50165C1750800A82
:103B90000E6E1D50800A0E58D8A0D1EF1DF0D4EF44
:103BA0001DF0FFFFA3EF1DF0FFFF00018AA1DBEF77
:103BB0001DF0DEEF1DF0FFFFFFEF1DF0FFFFEEEF4A
:103BC0001DF0FFFF000E026E200E016E0AC003F012
:103BD0000BC004F06DEC39F01E4A1F2AFFFF18508D
:103BE0001E5C1F50800A0E6E1950800A0E58D8A015
:103BF000FCEF1DF0FFEF1DF0FFFFE1EF1DF0FFFFF9
:103C00001EC00AF01FC00BF01200FFFFFFFF000EE6
:103C1000166E000E156E000E0F6E000E0E6E14EF77
:103C20001EF0FFFF084A092AFFFF010E146E08C0AC
:103C3000F6FF09C0F7FF0800FFFFF550200AD8B4CF
:103C400024EF1EF027EF1EF0FFFF48EF1EF0FFFFEE
:103C5000F70E0A6EFF0E0B6E08C0F6FF09C0F7FFE5
:103C60000800FFFFF5500C6E0D6A0A500C260B5031
:103C70000D220D500AE1050E0C5CD8A042EF1EF09B
:103C800045EF1EF0FFFF48EF1EF0FFFF000E146E21
:103C9000FFFF14C010F0116A10501110D8A453EF98
:103CA0001EF056EF1EF0FFFF11EF1EF0FFFF63EF57
:103CB0001EF0FFFF000E0F6E010E0E6EFFFF084A92
:103CC000092A9DEF1EF0FFFF08C0F6FF09C0F7FFAD
:103CD0000800FFFFF5500A6E0B6A0B50000AD8B4BB
:103CE00074EF1EF09DEF1EF0FFFF0A502B0AD8B4B0
:103CF0005EEF1EF0060AD8B459EF1EF09DEF1EF0DD
:103D0000FFFF15C001F016C002F0000E046E0A0E8F
:103D1000036E95EC33F008C0F6FF09C0F7FF08000A
:103D2000FFFFF550015E000E025A300E0124156EA1
:103D3000000E0220166E5EEF1EF0FFFFD00E0A6E20
:103D4000FF0E0B6E08C0F6FF09C0F7FF0800FFFF6B
:103D5000F5500C6E0D6A0A500C260B500D220D50BA
:103D60000BE10A0E0C5CD8A0B8EF1EF0BCEF1EF001
:103D7000FFFF010EBEEF1EF0FFFF000EFFFF126EF1
:103D8000136A12501310D8A4C8EF1EF0CBEF1EF028
:103D9000FFFF80EF1EF0FFFF0E500F10D8A4D3EFEF
:103DA0001EF0D6EF1EF0FFFFE5EF1EF0FFFF15C07F
:103DB0000AF016C00BF00A1E0B1E0A4A0B2A0AC094
:103DC00008F00BC009F0EAEF1EF0FFFF15C008F085
:103DD00016C009F0FFFF1200FFFFFFFF000E126E7A
:103DE00010BEF8EF1EF0F5EF1EF0FFFF0BEF1FF017
:103DF000FFFF101E0F1E0E1E0D1E0C1E0B1E0A1E98
:103E0000096C000E0A220B220C220D220E220F2218
:103E10001022010E126EFFFF08BE14EF1FF011EF0B
:103E20001FF0FFFF27EF1FF0FFFF081E071E061EF3
:103E3000051E041E031E021E016C000E0222032238
:103E400004220522062207220822010E121AFFFF71
:103E500020EE13F0070EDE6AE806FDE209500A10B4
:103E60000B100C100D100E100F101010D8B43BEFEB
:103E70001FF03EEF1FF0FFFF99EF1FF0FFFF010E55
:103E8000116E4EEF1FF0FFFFD89009360A360B3641
:103E90000C360D360E360F361036112AFFFF10AED7
:103EA00054EF1FF057EF1FF0FFFF43EF1FF0FFFF2E
:103EB000FFFFD890133614361536163617361836D7
:103EC00019361A360950015C0A5002580B50035833
:103ED0000C5004580D5005580E5006580F500758F6
:103EE00010500858D8A077EF1FF07AEF1FF0FFFFAF
:103EF0008CEF1FF0FFFF0950015E0A50025A0B5071
:103F0000035A0C50045A0D50055A0E50065A0F50C1
:103F1000075A1050085A1380FFFFD89010320F3202
:103F20000E320D320C320B320A320932112E58EF9A
:103F30001FF0FFFF1250D8B4A0EF1FF0A3EF1FF047
:103F4000FFFFB4EF1FF0FFFF1A1E191E181E171EE9
:103F5000161E151E141E136C000E14221522162296
:103F60001722182219221A22FFFF13C001F014C0D1
:103F700002F015C003F016C004F017C005F018C019
:103F800006F019C007F01AC008F01200FFFFFFFF8B
:103F9000C284FFFFC2B4CFEF1FF0D2EF1FF0FFFFCC
:103FA000C9EF1FF0FFFF000E316E000E326E800E63
:103FB000336E3E0E346EC4501F6E206A216A226A30
:103FC000010E20EC1CF01FC02DF020C02EF021C0EF
:103FD0002FF022C030F065EC10F02DC0CAF02EC0DA
:103FE000CBF02FC0CCF030C0CDF059EC3DF0C90E75
:103FF0000001CA25D46FFF0ECB21D56F1200FFFF41
:1065BE00FFFF1200FFFFFFFF9E9A9D8AF28C1200D2
:1065CE00FFFFFFFF016E01C083FF1200FFFFFFFF01
:0E65DE00AECF01F0000EAE6E01501200FFFFB6
:1065ED00286E756C6C29000AD7A33CBD3786340024
:1065FD00008041FFFF016E01C0ADFFFFFFACA20A9D
:10660D00EF33F00DEF33F0FFFF04EF33F0FFFF1228
:10661D0000FFFF3B7FC97EBB7F6C7FA97FC47FB22C
:10662D007F097F100020004000800001000200045F
:10663D00000800FFFF000ED56E960ED66E980ED791
:10664D006EF28AD59CD59AD596D580D582D584D52E
:10665D008E1200FFFFFFFF000EBD6E0A0E0001D46B
:10666D006FD70ED56FA30ED66F3B0ED76FC9EC3714
:10667D00F0BD86BD841200FFFFFFFF000E896E0086
:10668D000E806E9268000EC26EC296C298C28AC209
:10669D0080000EC46E000EC36E000EC16E1200FFA0
:1066AD00FFFFFFFFFFC7EC1FF0C90E0001D4190655
:1066BD00E1D529D8A465EF33F068EF33F0FFFF582B
:1066CD00EF33F0FFFF1200FFFFFFFF026E84820227
:1066DD0050E8EC32F08494C80EFFFF00F0E82EFC79
:1066ED00D78492C80EFFFF00F0E82EFCD7848212EB
:1066FD0000FFFFFFFF026E84820250E8EC32F0844F
:10670D0084C80EFFFF00F0E82EFCD78492C80EFF60
:10671D00FF00F0E82EFCD784821200FFFFFFFF017F
:10672D00500302F3CF05F0F4CF06F001500402F34D
:10673D0050062602500302F350062605C001F0064E
:10674D00C002F01200FFFFFFFF000E896E000E80E9
:10675D006EF00E926E000E8A6E000E816E000E931C
:10676D006E000E8B6E000E826E9494948E949C121D
:10677D0000FFFFFFFFC80E0001CC6F000ECD6FC2F2
:10678D00C070F0C3C071F0C4C072F0C5C073F0C664
:10679D00C074F0C7C075F0CC0E766E000E776EF536
:1067AD00EC3DF01200FFFFFFFF20EE04F00150D989
:1067BD00260250DA22DECF03F0DDCF04F0031E04F3
:1067CD001E034A042A20EE04F00150D9260250DAA5
:1067DD002203C0DEFF04C0DDFF1200FFFFFFFF013B
:1067ED00C0D9FF02C0DAFFDECF03F0DDCF04F0D851
:1067FD00900336043601C005F002C006F0035005C3
:10680D002604500622060E0524D96E000E0620DA47
:10681D006EDF508A6E1200FFFFFFFF015002100362
:10682D00100410D8B41DEF34F020EF34F0FFFF2921
:10683D00EF34F0FFFF000E011A000E021A000E03D6
:10684D001A800E041AFFFF01C001F002C002F0030E
:10685D00C003F004C004F01200FFFFFFFF550E77D8
:10686D006E550E786EC80E796E410E7A6ED0EC14A0
:10687D00F077C0CAF078C0CBF079C0CCF07AC0CD3B
:10688D00F059EC3DF00001CA51AF6EAC9CAC8AAC36
:10689D0098AC84AB8EAB9CAB881200FFFFFFFFD092
:1068AD000E036EFF0E046E01C005F002C006F0036C
:1068BD005005260450062206500BE10A0E055CD841
:1068CD00A06BEF34F06FEF34F0FFFF010E71EF347A
:1068DD00F0FFFF000EFFFF016E026A1200FFFFFFC7
:1068ED00FFBF0E036EFF0E046E01C005F002C00661
:1068FD00F0035005260450062206500BE11A0E0532
:10690D005CD8A08CEF34F090EF34F0FFFF010E92C5
:10691D00EF34F0FFFF000EFFFF016E026A1200FF61
:10692D00FFFFFF9F0E036EFF0E046E01C005F00208
:10693D00C006F0035005260450062206500BE11A3E
:10694D000E055CD8A0ADEF34F0B1EF34F0FFFF01D0
:10695D000EB3EF34F0FFFF000EFFFF016E026A125F
:10696D0000FFFFFFFF9F0E036EFF0E046E200E0152
:10697D0010056E000E0210066E035005260450061B
:10698D002206500BE11A0E055CD8A0D0EF34F0D4DE
:10699D00EF34F0FFFF010ED6EF34F0FFFF000EFFD6
:1069AD00FF016E026A1200FFFFFFFF000E731A0057
:1069BD000E741A000E751A800E761A6FC05FF07085
:1069CD00C060F071C061F072C062F073C063F074AA
:1069DD00C064F075C065F076C066F091EC0DF05FA7
:1069ED00C06FF060C070F061C071F062C072F012E3
:1069FD0000FFFFFFFF14BE0FEF35F0145006E1133B
:106A0D0004D8B00CEF35F00FEF35F0FFFF1EEF356A
:106A1D00F0FFFF13C015F014C016F0151E161E154D
:106A2D004A162A15C013F016C014F023EF35F0FFE7
:106A3D00FF13C013F014C014F0FFFF1200FFFFFF8F
:106A4D00FF000E106E000E0F6E39EF35F0FFFF0ECA
:106A5D00C001F0026A0CC003F00DC004F06DEC39FA
:106A6D00F00F4A102AFFFF0F500A24D96E10500B59
:106A7D0020DA6EDF500E6E0E50D8A448EF35F04B75
:106A8D00EF35F0FFFF2DEF35F0FFFF1200FFFFFF99
:106A9D00FF01C003F002C004F058EF35F0FFFF0115
:106AAD004A022AFFFF01C0F6FF02C0F7FFF86A0590
:106ABD000EF76404D00800FFFFF55005D0F6CFE1C6
:106ACD00FFF7CFE2FFE7500009D8A470EF35F07360
:106ADD00EF35F0FFFF55EF35F0FFFF0350015C017F
:106AED006E04500258026E1200FFFFFFFF010E07E9
:106AFD006E200E01180210D8B487EF35F08AEF35ED
:106B0D00F0FFFFA6EF35F0FFFFF70E036EFF0E044B
:106B1D006E01C005F002C006F003500526045006B4
:106B2D002206500AE1050E055CD8A0A0EF35F0A3B2
:106B3D00EF35F0FFFFA6EF35F0FFFF000E076EFFFC
:106B4D00FF07C001F0026A1200FFFFFFFF01C0D96D
:106B5D00FF02C0DAFF020EDE18DE10D8A4B9EF3541
:106B6D00F0BCEF35F0FFFFC1EF35F0FFFF480E052C
:106B7D006ED8EF35F0FFFF01C0D9FF02C0DAFFDE9E
:106B8D0050DE10D8A4CDEF35F0D0EF35F0FFFFD5A6
:106B9D00EF35F0FFFF450E056ED8EF35F0FFFF50D6
:106BAD000E056EFFFF05501200FFFFFFFF0001866F
:106BBD00518711D8A4E5EF35F0E8EF35F0FFFFEF81
:106BCD00EF35F0FFFF86C01FF087C020F0F6EF35E0
:106BDD00F0FFFFFF0E86251F6EFF0E8721206EFF33
:106BED00FF1EC098F0000E996F1CC011F01DC01251
:106BFD00F0980E136E000E146E1FC015F020C01607
:106C0D00F0DEEC39F011C01CF012C01DF01200FFC7
:106C1D00FF200EF66E660EF76E000EF86E01EECFCB
:106C2D00F010EE20F00900F5CFEEFFE550E150FA3F
:106C3D00E1ED0EF66E650EF76E000EF86E00EEDEEF
:106C4D00F010EE13F00900F5CFEEFFE550E150FA2C
:106C5D00E101EEA3F02C0EEE6AE806FDE100EE80F8
:106C6D00F0380EEE6AE806FDE17F907F92000EF897
:106C7D006E000131EF0AF0FFFF9F0E096EFF0E0A45
:106C8D006E07C00BF008C00CF009500B260A500C13
:106C9D00220C500BE11A0E0B5CD8A058EF36F05CAD
:106CAD00EF36F0FFFF010E5EEF36F0FFFF000EFF37
:106CBD00FF0D6E0E6A0D500E10D8B468EF36F06BE6
:106CCD00EF36F0FFFF72EF36F0FFFF5F0E07140790
:106CDD006E086A77EF36F0FFFF07C007F008C008AF
:106CED00F0FFFF1200FFFFFFFF6AC06EF06BC06F79
:106CFD00F0000E0001856F000E846F9AEF36F0FFE5
:106D0D00FF68C043F069C044F06E0E456E000E463C
:106D1D006E6CC047F06DC048F03DEC00F043500084
:106D2D0001842744508523FFFF6EC0F6FF6FC0F727
:106D3D00FF0800FFFFF5500009D8A4A8EF36F0AB0F
:106D4D00EF36F0FFFF86EF36F0FFFF84C068F08569
:106D5D00C069F01200FFFFFFFF20EE02F00750D9CF
:106D6D00260850DA220950DE5CDE50800A0D6E0ACC
:106D7D0050800A0D58D8A0C6EF36F0C9EF36F0FF97
:106D8D00FFDAEF36F0FFFF20EE02F00750D92608AC
:106D9D0050DA22000EDE6E000EDD6E000E086E0162
:106DAD000E076EEBEF36F0FFFF07C001F008C002D3
:106DBD00F0F5EC33F007C001F008C002F092EC38AA
:106DCD00F0000E086E000E076EFFFF1200FFFFFFB2
:106DDD00FF836A000E956E846A000E966E8492840F
:106DED00941E0E036E3C0EFFFFE82EFDD7032EFB07
:106DFD00D700D08482380E6BEC33F01E0E036E3C40
:106E0D000EFFFFE82EFDD7032EFBD700D0380E6BFB
:106E1D00EC33F01E0E036E3C0EFFFFE82EFDD70384
:106E2D002EFBD700D0380E6BEC33F0080E6BEC3325
:106E3D00F00F0E6BEC33F0010E6BEC33F0380E6B84
:106E4D00EC33F0800E6BEC33F01200FFFFFFFF0010
:106E5D000E076E4DEF37F0FFFF07500324056E0050
:106E6D000E0420066E05C0F6FF06C0F7FFF86A0592
:106E7D000EF76404D00800FFFFF55005D0F6CFE102
:106E8D00FFF7CFE2FFE75080EC33F0072AFFFF0753
:106E9D00500324056E000E0420066E05C0F6FF0695
:106EAD00C0F7FFF86A050EF76404D00800FFFFF580
:106EBD005005D0F6CFE1FFF7CFE2FFE7500009D83C
:106ECD00A46BEF37F06EEF37F0FFFF32EF37F0FFC7
:106EDD00FF1200FFFFFFFF000E106E000E0F6EFF82
:106EED00FFD8900F34D96E1034DA6E0950D9260AB6
:106EFD0050DA220FC00BF010C00CF0D8900B360CEE
:106F0D003601C00DF002C00EF00B500D260C500EC8
:106F1D0022060E0D24E16E000E0E20E26EDECFE68F
:106F2D00FFDDCFE5FF0F4A102A10BEA7EF37F01097
:106F3D00500AE1040E0F5CD8A0A7EF37F0AAEF3787
:106F4D00F0FFFF76EF37F0FFFF01C0D9FF02C0DA87
:106F5D00FF03C0DEFF04C0DDFF20EE02F00150D9BB
:106F6D00260250DA2205C0DEFF06C0DDFF20EE044A
:106F7D00F00150D9260250DA2207C0DEFF08C0DD2D
:106F8D00FF1200FFFFFFFFBD0E316E370E326E8612
:106F9D000E336E350E346EEDC02DF0EEC02EF0EFCB
:106FAD00C02FF0F0C030F065EC10F02DC04AF02E7F
:106FBD00C04BF02FC04CF030C04DF06F0E466E122E
:106FCD000E476E830E486E3A0E496EB7EC12F046C0
:106FDD00C0CAF047C0CBF048C0CCF049C0CDF05985
:106FED00EC3DF0CAC0DAF0CBC0DBF0DAC0DCF0006B
:106FFD0001DCA104EF38F007EF38F0FFFF0BEF389D
:10700D00F0FFFFBD880DEF38F0FFFFBD98FFFFDCEF
:10701D00A313EF38F016EF38F0FFFF1AEF38F0FF3B
:10702D00FFBD8A1CEF38F0FFFFBD9AFFFFDAC0D815
:10703D00F0DBC0D9F0D890D933D833D890D933D824
:10704D0033D851BE6E1200FFFFFFFF000ECA6E0057
:10705D000ECC6ECA84CA80CA82000E636E000E64A6
:10706D006E800E656EBF0E666EBD0E316E370E32C2
:10707D006E860E336E360E346EEDC02DF0EEC02ED4
:10708D00F0EFC02FF0F0C030F065EC10F02DC04ADD
:10709D00F02EC04BF02FC04CF030C04DF00A0E4614
:1070AD006ED70E476EA30E486E3C0E496EB7EC12AE
:1070BD00F046C05FF047C060F048C061F049C06263
:1070CD00F091EC0DF05FC0D4F060C0D5F061C0D68A
:1070DD00F062C0D7F0000E316E000E326E800E33AE
:1070ED006E400E346ED4C02DF0D5C02EF0D6C02F0C
:1070FD00F0D7C030F065EC10F02DC0CAF02EC0CB2B
:10710D00F02FC0CCF030C0CDF059EC3DF00001CAED
:10711D0051CB6E1200FFFFFFFF20EE04F00150D99E
:10712D00260250DA22DECF03F0DDCF04F001C0D904
:10713D00FF02C0DAFFDECF05F0DDCF06F00350050C
:10714D00260450062201C0D9FF02C0DAFF05C0DEB9
:10715D00FF06C0DDFF20EE02F00150D9260250DA05
:10716D0022DECF03F0DDCF04F0010E0326000E0466
:10717D002220EE02F00150D9260250DA2203C0DEA1
:10718D00FF04C0DDFF01C0D9FF02C0DAFFDE280613
:10719D00E1DE28D8A4D5EF38F0D8EF38F0FFFFE3C3
:1071AD00EF38F0FFFF01C0D9FF02C0DAFF030EDE9A
:1071BD006E000EDD6EFCEF38F0FFFF01C0D9FF024F
:1071CD00C0DAFF040EDE18DE10D8A4F0EF38F0F3AD
:1071DD00EF38F0FFFFFCEF38F0FFFF01C0D9FF02E1
:1071ED00C0DAFF000EDE6E000EDD6EFFFF1200FF37
:1071FD00FFFFFF000E1A6E050E196E3F0E0001D631
:10720D0025136E000ED721146E00EC35F013C01748
:10721D00F014C018F0C6EC3AF017C01FF018C020DB
:10722D00F0000E20BEFF0E216E226E010E20EC1C12
:10723D00F01FC0D8F020C0D9F021C0DAF022C0DB99
:10724D00F0D8C001F0D9C002F0DAC003F0DBC00401
:10725D00F0000E056E000E066E400E076E410E0814
:10726D006EC5EC3CF0D8A03EEF39F041EF39F0FFA0
:10727D00FF64EF39F0FFFF000E016E000E026E503D
:10728D000E036E410E046ED8C005F0D9C006F0DABB
:10729D00C007F0DBC008F0C5EC3CF0D8A059EF39C1
:1072AD00F05CEF39F0FFFF64EF39F0FFFF000E00E7
:1072BD0001D76F010ED66F6AEF39F0FFFF000E0098
:1072CD0001D76F000ED66FFFFF1200FFFFFFFF0308
:1072DD00500410D8B475EF39F078EF39F0FFFF8313
:1072ED00EF39F0FFFF03500410D8A480EF39F0837D
:1072FD00EF39F0FFFF89EF39F0FFFF0150DFEC327E
:10730D00F0DBEF39F0FFFF20EE04F00350D9260437
:10731D0050DA22DE50DE10D8B497EF39F09AEF39FB
:10732D00F0FFFFB7EF39F0FFFF20EE04F00350D967
:10733D00260450DA2210EE02F00350E1260450E24A
:10734D0022DE50E65CE650800A096EDE50800A09A6
:10735D0058D8B0B4EF39F0B7EF39F0FFFFDBEF39A4
:10736D00F0FFFF20EE02F00350D9260450DA22DEA2
:10737D00CF05F0DDCF06F003C0D9FF04C0DAFFDE84
:10738D00CF07F0DDCF08F005500724D96E06500861
:10739D0020DA6E01C0DFFF20EE02F00350D9260483
:1073AD0050DA22DE2A000EDD22FFFF1200FFFFFF62
:1073BD00FF00018AA1E5EF39F0E8EF39F0FFFFF3A7
:1073CD00EF39F0FFFF13C00AF014C00BF011C00C21
:1073DD00F012C00DF026EC35F0FFFF16BEF9EF39B7
:1073ED00F0FCEF39F0FFFF03EF3AF0FFFF15C01A85
:1073FD00F016C01BF008EF3AF0FFFF000E1B6E00F9
:10740D000E1A6EFFFF000E196E000E186E1CEF3A6D
:10741D00F0FFFF000E026E200E016E11C003F01280
:10742D00C004F06DEC39F0184A192AFFFF1A5018F4
:10743D005C1950800A176E1B50800A1758D8A02A65
:10744D00EF3AF02DEF3AF0FFFF0FEF3AF0FFFF00AC
:10745D00018AB134EF3AF037EF3AF0FFFF42EF3ADD
:10746D00F0FFFF13C00AF014C00BF011C00CF012A6
:10747D00C00DF026EC35F0FFFF13C001F014C00273
:10748D00F04EEC35F01A500124116E1B50022012F3
:10749D006E1200FFFFFFFF09500A100B100C100DAC
:1074AD00100E100F101010D8B45FEF3AF062EF3AD3
:1074BD00F0FFFFB3EF3AF0FFFF010E116E72EF3ADE
:1074CD00F0FFFFD89009360A360B360C360D360E06
:1074DD00360F361036112AFFFF10AE78EF3AF07BDB
:1074ED00EF3AF0FFFF67EF3AF0FFFFFFFF095001A2
:1074FD005C0A5002580B5003580C5004580D50059F
:10750D00580E5006580F50075810500858D8A092D2
:10751D00EF3AF095EF3AF0FFFFA6EF3AF0FFFF09D3
:10752D0050015E0A50025A0B50035A0C50045A0D6A
:10753D0050055A0E50065A0F50075A1050085AFF50
:10754D00FFD89010320F320E320D320C320B320A40
:10755D00320932112E7CEF3AF0FFFF01C001F0022B
:10756D00C002F003C003F004C004F005C005F0062E
:10757D00C006F007C007F008C008F01200FFFFFFBB
:10758D00FF000E1C6E1ABED1EF3AF0CEEF3AF0FFAF
:10759D00FFD8EF3AF0FFFF196C1A1ED8B01A2A0166
:1075AD000E1C6EFFFF18BEE1EF3AF0DEEF3AF0FF72
:1075BD00FFE8EF3AF0FFFF176C181ED8B0182A013C
:1075CD000E1C1AFFFF000E1E6E000E1D6E19501AB6
:1075DD0010D8B4F4EF3AF0F7EF3AF0FFFF28EF3B95
:1075ED00F0FFFF010E1B6E01EF3BF0FFFFD890196E
:1075FD00361A361B2AFFFF1AAE07EF3BF00AEF3B98
:10760D00F0FFFFFCEF3AF0FFFFFFFFD8901D361E95
:10761D00361950175C1A501858D8A018EF3BF01BAC
:10762D00EF3BF0FFFF21EF3BF0FFFF1950175E1A04
:10763D0050185A1D80FFFFD8901A3219321B2E0B8D
:10764D00EF3BF0FFFF1C50D8B42FEF3BF032EF3B78
:10765D00F0FFFF37EF3BF0FFFF1D6C1E1ED8B01E75
:10766D002AFFFF1DC017F01EC018F01200FFFFFF0C
:10767D00FF056E055080EC33F0410E0518D8A44A75
:10768D00EF3BF04DEF3BF0FFFF58EF3BF0FFFF03FB
:10769D00C0D9FF04C0DAFF010EDE6E000EDD6EB93B
:1076AD00EF3BF0FFFF420E0518D8A460EF3BF063EF
:1076BD00EF3BF0FFFF6EEF3BF0FFFF03C0D9FF0480
:1076CD00C0DAFF030EDE6E000EDD6EB9EF3BF0FF8C
:1076DD00FF440E0518D8A476EF3BF079EF3BF0FF91
:1076ED00FF84EF3BF0FFFF03C0D9FF04C0DAFF04B6
:1076FD000EDE6E000EDD6EB9EF3BF0FFFF400E05A6
:10770D0018D8A48CEF3BF08FEF3BF0FFFF9AEF3BC7
:10771D00F0FFFF03C0D9FF04C0DAFF050EDE6E00D7
:10772D000EDD6EB9EF3BF0FFFF480E0518D8A4A291
:10773D00EF3BF0A5EF3BF0FFFFB0EF3BF0FFFF039A
:10774D00C0D9FF04C0DAFF020EDE6E000EDD6EB989
:10775D00EF3BF0FFFF03C0D9FF04C0DAFF000EDEE0
:10776D006E000EDD6EFFFF1200FFFFFFFF01C00870
:10777D00F002C009F003C00AF004C00BF00506D8F2
:10778D00A00606052806E10628D8A4D0EF3BF0D3C5
:10779D00EF3BF0FFFFE2EF3BF0FFFF000E026E004C
:1077AD000E016E3DEF3CF0FFFF084A092A0A4A0B15
:1077BD002A0506D8A00606FFFF08C0F6FF09C0F788
:1077CD00FF0800FFFFF5500009D8B4F0EF3BF0F3D0
:1077DD00EF3BF0FFFF28EF3CF0FFFF0AC0F6FF0B79
:1077ED00C0F7FF0800FFFFF5500009D8B401EF3CCA
:1077FD00F004EF3CF0FFFF28EF3CF0FFFF055006D3
:10780D0010D8B40CEF3CF00FEF3CF0FFFF28EF3C2D
:10781D00F0FFFF08C0F6FF09C0F7FF0800FFFFF5F6
:10782D00CF07F00AC0F6FF0BC0F7FF0800FFFFF50A
:10783D00500718D8B425EF3CF028EF3CF0FFFFDAE5
:10784D00EF3BF0FFFF08C0F6FF09C0F7FF0800FF90
:10785D00FFF5CF07F00AC0F6FF0BC0F7FF0800FFDA
:10786D00FFF550075C016E026AD8A00206FFFF12F9
:10787D0000FFFFFFFF20EE11F0070EDE6AE806FDA8
:10788D00E209500A100B100C100D100E100F1010F5
:10789D0010D8B454EF3CF057EF3CF0FFFFB2EF3C83
:1078AD00F0FFFF010E196E67EF3CF0FFFFD8900956
:1078BD00360A360B360C360D360E360F3610361997
:1078CD002AFFFF10AE6DEF3CF070EF3CF0FFFF5C58
:1078DD00EF3CF0FFFFFFFFD8901136123613361430
:1078ED003615361636173618360950015C0A500211
:1078FD00580B5003580C5004580D5005580E500697
:10790D00580F50075810500858D8A090EF3CF093DE
:10791D00EF3CF0FFFFA5EF3CF0FFFF0950015E0AC1
:10792D0050025A0B50035A0C50045A0D50055A0E62
:10793D0050065A0F50075A1050085A1180FFFFD8A1
:10794D009010320F320E320D320C320B320A3209D8
:10795D0032192E71EF3CF0FFFF11C001F012C00281
:10796D00F013C003F014C004F015C005F016C006E6
:10797D00F017C007F018C008F01200FFFFFFFF005E
:10798D000E0114096E000E02140A6E800E03140B04
:10799D006E7F0E04140C6E09500A100B100C10D8CB
:1079AD00A4DBEF3CF0DEEF3CF0FFFFE7EF3CF0FF38
:1079BD00FF000E016E000E026E000E036E000E042F
:1079CD006EFFFF000E0514096E000E06140A6E8080
:1079DD000E07140B6E7F0E08140C6E09500A100B57
:1079ED00100C10D8A4FDEF3CF000EF3DF0FFFF09A7
:1079FD00EF3DF0FFFF000E056E000E066E000E0748
:107A0D006E000E086EFFFF04AE0FEF3DF012EF3D5E
:107A1D00F0FFFF1CEF3DF0FFFF016C021ED8B0021E
:107A2D002A031ED8B0032A800E0456FFFF08AE228B
:107A3D00EF3DF025EF3DF0FFFF2FEF3DF0FFFF0590
:107A4D006C061ED8B0062A071ED8B0072A800E086D
:107A5D0056FFFF000E011A000E021A000E031A80C7
:107A6D000E041A000E051A000E061A000E071A80D3
:107A7D000E081A0550015C065002580750035808AD
:107A8D00500458D8B04DEF3DF050EF3DF0FFFF548E
:107A9D00EF3DF0FFFFD89056EF3DF0FFFFD880FF90
:107AAD00FF1200FFFFFFFF0001CC35CD35D36FD3A3
:107ABD0051D8A464EF3DF067EF3DF0FFFF73EF3D4C
:107ACD00F0FFFFFFFF000ECA6F000ECB6F000ECC54
:107ADD006F000ECD6FF2EF3DF0FFFFCAC0CEF0CBC1
:107AED00C0CFF0CCC0D0F0CDC0D1F0200E85EF3D91
:107AFD00F0FFFFD890D133D033CF33CE33FFFFE833
:107B0D002E7FEF3DF0CE51D26FCC8FFF0ECA17FFF7
:107B1D000ECB17FF0ECC17000ECD17960ED35FD3DD
:107B2D00BF9EEF3DF09BEF3DF0FFFFB8EF3DF0FF47
:107B3D00FFD351800A970FD8B0A7EF3DF0AAEF3DC4
:107B4D00F0FFFFADEF3DF0FFFF68EF3DF0FFFFD819
:107B5D0090CD33CC33CB33CA33D33FADEF3DF0D6DD
:107B6D00EF3DF0FFFF1F0ED365BFEF3DF0C2EF3DC0
:107B7D00F0FFFFCCEF3DF0FFFF68EF3DF0FFFFD8CA
:107B8D0090CA37CB37CC37CD37D307FFFFD351D87A
:107B9D00A4D3EF3DF0D6EF3DF0FFFFC5EF3DF0FF75
:107BAD00FFD251D8B4DDEF3DF0E0EF3DF0FFFFE93E
:107BBD00EF3DF0FFFFCD1FCC1FCB1FCA6D000ECBCD
:107BCD0023CC23CD23FFFFCAC0CAF0CBC0CBF0CC52
:107BDD00C0CCF0CDC0CDF0FFFF1200FFFFFFFF8046
:107BED000E735CD8A0FDEF3DF000EF3EF0FFFF0AF5
:107BFD00EF3EF0FFFF000E00018D6F4B0E8C6F708E
:107C0D006871688FEF3EF0FFFF70C0BCF071C0BDB2
:107C1D00F073500AE1020E725CD8A018EF3EF01B13
:107C2D00EF3EF0FFFF29EF3EF0FFFFFF0E72240045
:107C3D0001C06FFF0E7320C16F000EBF6F000EBE2F
:107C4D006F33EF3EF0FFFF000E0001C16F010EC05C
:107C5D006F000EBF6F010EBE6FFFFFBC0E686E0092
:107C6D000E696E74C06AF075C06BF076C06CF077FB
:107C7D00C06DF07AEC36F068C0BAF069C0BBF07236
:107C8D00507310D8B44DEF3EF050EF3EF0FFFF8A29
:107C9D00EF3EF0FFFF0001BBBF57EF3EF05AEF3E46
:107CAD00F0FFFF8AEF3EF0FFFFFF0E786EFF0E79BB
:107CBD006E72C07AF073C07BF078507A2679507B63
:107CCD00227A50BA5D7B50BB59D8A070EF3EF0734D
:107CDD00EF3EF0FFFF7CEF3EF0FFFFFF0E7224B88A
:107CED006FFF0E7320B96F81EF3EF0FFFFBAC0B882
:107CFD00F0BBC0B9F0FFFFB8517024D96EB9517106
:107D0D0020DA6E000EDF6EFFFFBAC070F0BBC071DF
:107D1D00F0FFFF1200FFFFFFFF000E126E08BE9D69
:107D2D00EF3EF09AEF3EF0FFFFB0EF3EF0FFFF08A1
:107D3D001E071E061E051E041E031E021E016C00DC
:107D4D000E02220322042205220622072208220106
:107D5D000E126EFFFF10BEB9EF3EF0B6EF3EF0FF14
:107D6D00FFCAEF3EF0FFFF101E0F1E0E1E0D1E0C64
:107D7D001E0B1E0A1E096C000E0A220B220C220D70
:107D8D00220E220F221022FFFF09500A100B100C99
:107D9D00100D100E100F101010D8B4D8EF3EF0DBF0
:107DAD00EF3EF0FFFF2CEF3FF0FFFF010E116EEBEA
:107DBD00EF3EF0FFFFD89009360A360B360C360D24
:107DCD00360E360F361036112AFFFF10AEF1EF3E8C
:107DDD00F0F4EF3EF0FFFFE0EF3EF0FFFFFFFF0995
:107DED0050015C0A5002580B5003580C5004580DAA
:107DFD005005580E5006580F50075810500858D8B7
:107E0D00A00BEF3FF00EEF3FF0FFFF1FEF3FF0FF36
:107E1D00FF0950015E0A50025A0B50035A0C5004D0
:107E2D005A0D50055A0E50065A0F50075A10500849
:107E3D005AFFFFD89010320F320E320D320C320B2A
:107E4D00320A320932112EF5EF3EF0FFFF1250D8F3
:107E5D00B433EF3FF036EF3FF0FFFF47EF3FF0FF5A
:107E6D00FF081E071E061E051E041E031E021E0110
:107E7D006C000E022203220422052206220722088C
:107E8D0022FFFF01C001F002C002F003C003F004A5
:107E9D00C004F005C005F006C006F007C007F008E5
:107EAD00C008F01200FFFF000000004B0000164656
:107EBD00BD378635002474490024744A494E49540F
:107ECD005F504F533A20746865207669616C206964
:107EDD00732061742074686520696E697420706FF9
:107EED00736974696F6E2C2070726F636573732084
:107EFD006973207374617274696E67005049434BE6
:107F0D005F55503A20746865207669616C20686110
:107F1D00732072656163686564207468652070699B
:107F2D00636B2075702073746174696F6E004944C2
:107F3D004C453A2077616974696E6720666F7220CF
:107F4D00207669616C20746F20626520706C6163AE
:107F5D00656420696E20696E697420706F73004FBF
:107F6D0056454E3A207265616368696E6720746884
:107F7D006520636F72726563742074656D706572D0
:107F8D006174757265004465766963652068617317
:107F9D00206265656E2072657365740047524153AA
:107FAD0050494E470044494C5554494E47004D4F9A
:107FBD0056454D454E54004D4958494E4700686849
:107FCD005800686864006868690068686E006868D1
:107FDD006F0068687500686878007A58007A6400E8
:107FED007A69007A6E007A6F007A75007A780025CA
:037FFD007300000E
:020000040020DA
:08000000FFFFFFFFFFFFFFFF00
:020000040030CA
:0E000000FF270F0EFF0185FF0FC00FE00F401E
:00000001FF
