:020000040000FA
:0600000000F03BEF00F0F0
:10000800FFFF7F829DAA0BEF00F00EEF00F0FFFFCD
:100018001EEF00F0FFFF9EAA14EF00F017EF00F0AC
:10002800FFFF1EEF00F0FFFF9E9A010E0101B06F67
:10003800010EAE6FFFFFF2AA24EF00F027EF00F0E9
:10004800FFFF37EF00F0FFFFF2A42DEF00F030EFD5
:1000580000F0FFFF37EF00F0FFFF000ED56EF294BF
:10006800010E0101AD6FFFFF7F921100FFFFC0EF8E
:1000780035F0FFFF45C0D9FF46C0DAFFDECFF6FFF7
:10008800DDCFF7FF0800FFFFF550250AD8A44FEF92
:1000980000F052EF00F0FFFF11EF0AF0FFFF45C03C
:1000A800D9FF46C0DAFFDE2A000EDD22000E00016D
:1000B800876F000E866F86C08AF087C08BF08869CC
:1000C8008969000E506E000E4F6EC0EF00F0FFFF02
:1000D80000018A81FFFF45C0D9FF46C0DAFFDE2A4A
:1000E800000EDD22C0EF00F0FFFF00018A836EEFF3
:1000F80000F0FFFF00018A856EEF00F0FFFF0001AE
:100108008A876EEF00F0FFFF00018A896EEF00F02A
:10011800FFFF000E506E010E4F6EC0EF00F0FFFFA4
:1001280045C0D9FF46C0DAFFDECFF6FFDDCFF7FFC7
:100138000800FFFFF550496E4A6A4A50000AD8B4D1
:10014800A8EF00F08CEF00F0FFFF4950200AD8B468
:1001580082EF00F0030AD8B487EF00F0080AD8B499
:100168007DEF00F0060AD8B46BEF00F01D0AD8B492
:1001780078EF00F08CEF00F0FFFF4F505010D8B42C
:10018800C8EF00F0CBEF00F0FFFF93EF00F0FFFFA8
:1001980000018AA1D2EF00F0D5EF00F0FFFFD7EF02
:1001A80000F0FFFF8A93FFFF45C0D9FF46C0DAFF82
:1001B800DECFF6FFDDCFF7FF0800FFFFF5502A0A74
:1001C800D8A4E9EF00F0ECEF00F0FFFF18EF01F022
:1001D800FFFF45C0D9FF46C0DAFFDE2A000EDD2248
:1001E80047C0D9FF48C0DAFFDFCF49F0020EDE264C
:1001F800DFCF4AF0000EDD2249C0D9FF4AC0DAFF3E
:10020800DECF86F0DDCF87F087BF10EF01F00DEF6E
:1002180001F0FFFF63EF01F0FFFF8A81866D871F02
:10022800D8B0872B63EF01F0FFFF45C0D9FF46C068
:10023800DAFFDECF08F0DDCF09F0F8EC1DF008C0DA
:1002480086F009C087F031EF01F0FFFF45C0D9FF04
:1002580046C0DAFFDE2A000EDD22FFFFD00E496E0F
:10026800FF0E4A6E45C0D9FF46C0DAFFDECFF6FF63
:10027800DDCFF7FF0800FFFFF5504B6E4C6A495081
:100288004B264A504C224C500BE10A0E4B5CD8A02E
:1002980050EF01F054EF01F0FFFF010E56EF01F0AF
:1002A800FFFF000EFFFF516E526A51505210D8A442
:1002B80060EF01F063EF01F0FFFF29EF01F0FFFFAE
:1002C80045C0D9FF46C0DAFFDECFF6FFDDCFF7FF26
:1002D8000800FFFFF5502E0AD8A475EF01F078EF5B
:1002E80001F0FFFF02EF02F0FFFF000E0001896F2F
:1002F800000E886F45C0D9FF46C0DAFFDE2A000E1F
:10030800DD2245C0D9FF46C0DAFFDECFF6FFDDCFDC
:10031800F7FF0800FFFFF5502A0AD8A496EF01F06E
:1003280099EF01F0FFFFB7EF01F0FFFF45C0D9FFDC
:1003380046C0DAFFDE2A000EDD2247C0D9FF48C0DA
:10034800DAFFDFCF49F0020EDE26DFCF4AF0000EDB
:10035800DD2249C0D9FF4AC0DAFFDECF88F0DDCF01
:1003680089F002EF02F0FFFF45C0D9FF46C0DAFF6F
:10037800DECF08F0DDCF09F0F8EC1DF008C088F0FA
:1003880009C089F0D0EF01F0FFFF45C0D9FF46C092
:10039800DAFFDE2A000EDD22FFFFD00E496EFF0EC7
:1003A8004A6E45C0D9FF46C0DAFFDECFF6FFDDCF83
:1003B800F7FF0800FFFFF5504B6E4C6A49504B267B
:1003C8004A504C224C500BE10A0E4B5CD8A0EFEF80
:1003D80001F0F3EF01F0FFFF010EF5EF01F0FFFF71
:1003E800000EFFFF536E546A53505410D8A4FFEF09
:1003F80001F002EF02F0FFFFC8EF01F0FFFF45C078
:10040800D9FF46C0DAFFDECFF6FFDDCFF7FF0800E1
:10041800FFFFF550630AD8A414EF02F017EF02F0BB
:10042800FFFF3FEF02F0FFFF45C0D9FF46C0DAFFEC
:10043800DE2A000EDD2247C0D9FF48C0DAFFDFCF31
:1004480049F0020EDE26DFCF4AF0000EDD2249C059
:10045800D9FF4AC0DAFFDF505F6E43C01CF044C0CA
:100468001DF05FC01EF08DEC35F01CC043F01DC0C0
:1004780044F02EEF0AF0FFFF45C0D9FF46C0DAFF6F
:10048800DECF01F0DDCF02F0CF0E036E7F0E046EDB
:10049800000E066E030E056E28EC3BF001500210AC
:1004A800D8B459EF02F05CEF02F0FFFF79EF02F0E9
:1004B800FFFF45C0D9FF46C0DAFFDECF01F0DDCF30
:1004C80002F0D30E036E7F0E046E000E066E030E4E
:1004D800056E28EC3BF001500210D8A476EF02F02C
:1004E80079EF02F0FFFFBBEF02F0FFFF030E45C0FC
:1004F800D9FF46C0DAFFDE26000EDD2247C0D9FF4D
:1005080048C0DAFFDFCF49F0020EDE26DFCF4AF01F
:10051800000EDD2249C0D9FF4AC0DAFFDF50556E10
:10052800000E55BEFF0E566E576E586E596E5A6EB7
:100538005B6E5C6EFFFF43C01CF044C01DF055C0ED
:100548001EF056C01FF057C020F058C021F059C007
:1005580022F05AC023F05BC024F05CC025F0B7EC51
:1005680016F01CC043F01DC044F02EEF0AF0FFFF48
:1005780045C0D9FF46C0DAFFDECF01F0DDCF02F07B
:10058800D00E036E7F0E046E000E066E020E056E10
:1005980028EC3BF001500210D8B4D5EF02F0D8EFA8
:1005A80002F0FFFFF5EF02F0FFFF45C0D9FF46C09C
:1005B800DAFFDECF01F0DDCF02F0D40E036E7F0E3E
:1005C800046E000E066E020E056E28EC3BF001501C
:1005D8000210D8A4F2EF02F0F5EF02F0FFFF1DEFD2
:1005E80003F0FFFF020E45C0D9FF46C0DAFFDE2642
:1005F800000EDD2247C0D9FF48C0DAFFDFCF49F03F
:10060800020EDE26DFCF4AF0000EDD2249C0D9FFF8
:100618004AC0DAFFDECF55F0DDCF56F0000E56BEE9
:10062800FF0E576E586E596E5A6E5B6E5C6E9EEF7B
:1006380002F0FFFF45C0D9FF46C0DAFFDECFF6FF64
:10064800DDCFF7FF0800FFFFF550640AD8B42FEF9D
:1006580003F032EF03F0FFFF47EF03F0FFFF45C061
:10066800D9FF46C0DAFFDECFF6FFDDCFF7FF08007F
:10067800FFFFF550690AD8A444EF03F047EF03F0F1
:10068800FFFF6EEF03F0FFFF45C0D9FF46C0DAFF5A
:10069800DE2A000EDD2247C0D9FF48C0DAFFDFCFCF
:1006A80049F0020EDE26DFCF4AF0000EDD2249C0F7
:1006B800D9FF4AC0DAFFDECF55F0DDCF56F0000E85
:1006C80056BEFF0E576E586E596E5A6E5B6E5C6E54
:1006D8009EEF02F0FFFF45C0D9FF46C0DAFFDECF2C
:1006E80001F0DDCF02F0EA0E036E7F0E046E000EFD
:1006F800066E020E056E28EC3BF001500210D8B4CD
:1007080088EF03F08BEF03F0FFFFA8EF03F0FFFF84
:1007180045C0D9FF46C0DAFFDECF01F0DDCF02F0D9
:10072800ED0E036E7F0E046E000E066E020E056E51
:1007380028EC3BF001500210D8A4A5EF03F0A8EF75
:1007480003F0FFFFD1EF03F0FFFF020E45C0D9FF12
:1007580046C0DAFFDE26000EDD2247C0D9FF48C0BA
:10076800DAFFDFCF49F0020EDE26DFCF4AF0000EB7
:10077800DD2249C0D9FF4AC0DAFFDECF4BF0DDCF1A
:100788004CF04BC055F04CC056F0576A586A596A3D
:100798005A6A5B6A5C6A9EEF02F0FFFF45C0D9FFA8
:1007A80046C0DAFFDECF01F0DDCF02F0DB0E036ECC
:1007B8007F0E046E000E066E030E056E28EC3BF0ED
:1007C80001500210D8A4EBEF03F0EEEF03F0FFFFA7
:1007D8002FEF04F0FFFF030E45C0D9FF46C0DAFF34
:1007E800DE26000EDD2247C0D9FF48C0DAFFDFCF82
:1007F80049F0020EDE26DFCF4AF0000EDD2249C0A6
:10080800D9FF4AC0DAFFDF504B6E4B50606E616A09
:10081800626A636A646A656A666A676AFFFF43C0F8
:100828001CF044C01DF060C01EF061C01FF062C023
:1008380020F063C021F064C022F065C023F066C0D8
:1008480024F067C025F0FFEC1AF01CC043F01DC06F
:1008580044F02EEF0AF0FFFF45C0D9FF46C0DAFF8B
:10086800DECF01F0DDCF02F0DC0E036E7F0E046EEA
:10087800000E066E020E056E28EC3BF001500210C9
:10088800D8A449EF04F04CEF04F0FFFF75EF04F033
:10089800FFFF020E45C0D9FF46C0DAFFDE26000E74
:1008A800DD2247C0D9FF48C0DAFFDFCF49F0020E8A
:1008B800DE26DFCF4AF0000EDD2249C0D9FF4AC04C
:1008C800DAFFDECF4BF0DDCF4CF04BC060F04CC010
:1008D80061F0626A636A646A656A666A676A12EFE7
:1008E80004F0FFFF45C0D9FF46C0DAFFDECFF6FFB0
:1008F800DDCFF7FF0800FFFFF5506F0AD8A487EF98
:1009080004F08AEF04F0FFFFB2EF04F0FFFF45C0E8
:10091800D9FF46C0DAFFDE2A000EDD2247C0D9FF24
:1009280048C0DAFFDFCF49F0020EDE26DFCF4AF0FB
:10093800000EDD2249C0D9FF4AC0DAFFDECF4BF0F6
:10094800DDCF4CF04BC060F04CC061F0626A636A66
:10095800646A656A666A676A12EF04F0FFFF45C059
:10096800D9FF46C0DAFFDECF01F0DDCF02F0F30E8B
:10097800036E7F0E046E000E066E020E056E28ECE6
:100988003BF001500210D8A4CCEF04F0CFEF04F0F4
:10099800FFFFF8EF04F0FFFF020E45C0D9FF46C085
:1009A800DAFFDE26000EDD2247C0D9FF48C0DAFF95
:1009B800DFCF49F0020EDE26DFCF4AF0000EDD223F
:1009C80049C0D9FF4AC0DAFFDECF4BF0DDCF4CF08B
:1009D8004BC060F04CC061F0626A636A646A656A21
:1009E800666A676A12EF04F0FFFF45C0D9FF46C088
:1009F800DAFFDECF01F0DDCF02F0D70E036E7F0EF7
:100A0800046E000E066E030E056E28EC3BF00150D6
:100A18000210D8A412EF05F015EF05F0FFFF4BEF19
:100A280005F0FFFF030E45C0D9FF46C0DAFFDE26FA
:100A3800000EDD2247C0D9FF48C0DAFFDFCF49F0FA
:100A4800020EDE26DFCF4AF0000EDD2249C0D9FFB4
:100A58004AC0DAFFDECF5DF0DDCF5EF05DC0F6FFA5
:100A68005EC0F7FFF86A050EF76404D084C0F5FF8E
:100A78000C0006D0F6CFE1FFF7CFE2FF84C0E7FF16
:100A8800FFFF000E446E000E436E2EEF0AF0FFFFCC
:100A980045C0D9FF46C0DAFFDECF01F0DDCF02F056
:100AA800D80E036E7F0E046E000E066E020E056EE3
:100AB80028EC3BF001500210D8A465EF05F068EF70
:100AC80005F0FFFF9EEF05F0FFFF020E45C0D9FFBE
:100AD80046C0DAFFDE26000EDD2247C0D9FF48C037
:100AE800DAFFDFCF49F0020EDE26DFCF4AF0000E34
:100AF800DD2249C0D9FF4AC0DAFFDECF5DF0DDCF85
:100B08005EF05DC0F6FF5EC0F7FFF86A050EF76499
:100B180007D084C0F5FF0D0085C0F5FF0C0008D094
:100B2800F6CFE1FFF7CFE2FF84C0E6FF85C0E7FF1D
:100B380044EF05F0FFFF45C0D9FF46C0DAFFDECF1E
:100B4800F6FFDDCFF7FF0800FFFFF5506E0AD8A4C7
:100B5800B0EF05F0B3EF05F0FFFFE8EF05F0FFFF9A
:100B680045C0D9FF46C0DAFFDE2A000EDD2247C0A5
:100B7800D9FF48C0DAFFDFCF49F0020EDE26DFCF0B
:100B88004AF0000EDD2249C0D9FF4AC0DAFFDECFA5
:100B98005DF0DDCF5EF05DC0F6FF5EC0F7FFF86A7E
:100BA800050EF76407D084C0F5FF0D0085C0F5FF7A
:100BB8000C0008D0F6CFE1FFF7CFE2FF84C0E6FFD4
:100BC80085C0E7FF44EF05F0FFFF45C0D9FF46C0E9
:100BD800DAFFDECF01F0DDCF02F0F00E036E7F0EFC
:100BE800046E000E066E020E056E28EC3BF00150F6
:100BF8000210D8A402EF06F005EF06F0FFFF3BEF66
:100C080006F0FFFF020E45C0D9FF46C0DAFFDE2618
:100C1800000EDD2247C0D9FF48C0DAFFDFCF49F018
:100C2800020EDE26DFCF4AF0000EDD2249C0D9FFD2
:100C38004AC0DAFFDECF5DF0DDCF5EF05DC0F6FFC3
:100C48005EC0F7FFF86A050EF76407D084C0F5FFA9
:100C58000D0085C0F5FF0C0008D0F6CFE1FFF7CFF7
:100C6800E2FF84C0E6FF85C0E7FF44EF05F0FFFF21
:100C780045C0D9FF46C0DAFFDECFF6FFDDCFF7FF6C
:100C88000800FFFFF550700AD8A44DEF06F050EFAA
:100C980006F0FFFF94EF06F0FFFF45C0D9FF46C0FE
:100CA800DAFFDE2A000EDD2247C0D9FF48C0DAFF8E
:100CB800DFCF49F0020EDE26DFCF4AF0000EDD223C
:100CC80049C0D9FF4AC0DAFFDECF4BF0DDCF4CF088
:100CD8004BC060F04CC061F0626A636A646A656A1E
:100CE800666A676A43C01CF044C01DF060C01EF00D
:100CF80061C01FF062C020F063C021F064C022F020
:100D080065C023F066C024F067C025F0780E266E13
:100D180051EC18F01CC043F01DC044F02EEF0AF04F
:100D2800FFFF45C0D9FF46C0DAFFDECFF6FFDDCFB3
:100D3800F7FF0800FFFFF550730AD8A4A6EF06F0E6
:100D4800A9EF06F0FFFFD5EF06F0FFFF45C0D9FF7A
:100D580046C0DAFFDE2A000EDD2247C0D9FF48C0B0
:100D6800DAFFDFCF49F0020EDE26DFCF4AF0000EB1
:100D7800DD2249C0D9FF4AC0DAFFDECF4DF0DDCF12
:100D88004EF043C00AF044C00BF04DC00CF04EC00A
:100D98000DF00EEC1DF00AC043F00BC044F02EEF2E
:100DA8000AF0FFFF45C0D9FF46C0DAFFDECF01F0E9
:100DB800DDCF02F0DF0E036E7F0E046E000E066EAE
:100DC800030E056E28EC3BF001500210D8A4EFEF9B
:100DD80006F0F2EF06F0FFFF33EF07F0FFFF030E18
:100DE80045C0D9FF46C0DAFFDE26000EDD2247C027
:100DF800D9FF48C0DAFFDFCF49F0020EDE26DFCF89
:100E08004AF0000EDD2249C0D9FF4AC0DAFFDF50A0
:100E18004B6E4B50606E616A626A636A646A656AA7
:100E2800666A676AFFFF43C01CF044C01DF060C0DB
:100E38001EF061C01FF062C020F063C021F064C0E2
:100E480022F065C023F066C024F067C025F0E9EC05
:100E580019F01CC043F01DC044F02EEF0AF0FFFF4C
:100E680045C0D9FF46C0DAFFDECF01F0DDCF02F082
:100E7800E00E036E7F0E046E000E066E020E056E07
:100E880028EC3BF001500210D8A44DEF07F050EFCA
:100E980007F0FFFF79EF07F0FFFF020E45C0D9FF0B
:100EA80046C0DAFFDE26000EDD2247C0D9FF48C063
:100EB800DAFFDFCF49F0020EDE26DFCF4AF0000E60
:100EC800DD2249C0D9FF4AC0DAFFDECF4BF0DDCFC3
:100ED8004CF04BC060F04CC061F0626A636A646AAF
:100EE800656A666A676A16EF07F0FFFF45C0D9FFB3
:100EF80046C0DAFFDECFF6FFDDCFF7FF0800FFFFC1
:100F0800F550750AD8A48BEF07F08EEF07F0FFFFB6
:100F1800B6EF07F0FFFF45C0D9FF46C0DAFFDE2A6B
:100F2800000EDD2247C0D9FF48C0DAFFDFCF49F005
:100F3800020EDE26DFCF4AF0000EDD2249C0D9FFBF
:100F48004AC0DAFFDECF4BF0DDCF4CF04BC060F08B
:100F58004CC061F0626A636A646A656A666A676A55
:100F680016EF07F0FFFF45C0D9FF46C0DAFFDECF16
:100F780001F0DDCF02F0F60E036E7F0E046E000E58
:100F8800066E020E056E28EC3BF001500210D8A444
:100F9800D0EF07F0D3EF07F0FFFFFCEF07F0FFFFFC
:100FA800020E45C0D9FF46C0DAFFDE26000EDD225C
:100FB80047C0D9FF48C0DAFFDFCF49F0020EDE266E
:100FC800DFCF4AF0000EDD2249C0D9FF4AC0DAFF60
:100FD800DECF4BF0DDCF4CF04BC060F04CC061F081
:100FE800626A636A646A656A666A676A16EF07F026
:100FF800FFFF45C0D9FF46C0DAFFDECF01F0DDCFE5
:1010080002F0E30E036E7F0E046E000E066E030EF2
:10101800056E28EC3BF001500210D8B416EF08F02A
:1010280019EF08F0FFFF36EF08F0FFFF45C0D9FFC2
:1010380046C0DAFFDECF01F0DDCF02F0CB0E036E43
:101048007F0E046E000E066E030E056E28EC3BF054
:1010580001500210D8A433EF08F036EF08F0FFFF74
:101068008DEF08F0FFFF45C0D9FF46C0DAFFDECF9D
:1010780049F0DDCF4AF0020E4926000E4A2249C047
:10108800F6FF4AC0F7FF0800FFFFF5CF5FF0030E39
:1010980045C0D9FF46C0DAFFDE26000EDD2247C074
:1010A800D9FF48C0DAFFDFCF49F0020EDE26DFCFD6
:1010B8004AF0000EDD2249C0D9FF4AC0DAFFDF50EE
:1010C8004B6E4B50606E616A626A636A646A656AF5
:1010D800666A676AFFFF43C01CF044C01DF060C029
:1010E8001EF061C01FF062C020F063C021F064C030
:1010F80022F065C023F066C024F067C025F05FC009
:1011080026F051EC18F01CC043F01DC044F02EEF3F
:101118000AF0FFFF45C0D9FF46C0DAFFDECF01F075
:10112800DDCF02F0E40E036E7F0E046E000E066E35
:10113800020E056E28EC3BF001500210D8B4A7EF60
:1011480008F0AAEF08F0FFFFC7EF08F0FFFF45C05F
:10115800D9FF46C0DAFFDECF01F0DDCF02F0CC0EBA
:10116800036E7F0E046E000E066E020E056E28ECEE
:101178003BF001500210D8A4C4EF08F0C7EF08F004
:10118800FFFF04EF09F0FFFF45C0D9FF46C0DAFFB3
:10119800DECF49F0DDCF4AF0010E4926000E4A2283
:1011A80049C0F6FF4AC0F7FF0800FFFFF5CF5FF020
:1011B800020E45C0D9FF46C0DAFFDE26000EDD224A
:1011C80047C0D9FF48C0DAFFDFCF49F0020EDE265C
:1011D800DFCF4AF0000EDD2249C0D9FF4AC0DAFF4E
:1011E800DECF4BF0DDCF4CF04BC060F04CC061F06F
:1011F800626A636A646A656A666A676A6EEF08F0BB
:10120800FFFF45C0D9FF46C0DAFFDECFF6FFDDCFCE
:10121800F7FF0800FFFFF550780AD8B416EF09F079
:1012280019EF09F0FFFF2EEF09F0FFFF45C0D9FFC6
:1012380046C0DAFFDECFF6FFDDCFF7FF0800FFFF7D
:10124800F550580AD8A42BEF09F02EEF09F0FFFF4C
:1012580062EF09F0FFFF45C0D9FF46C0DAFFDECFD5
:10126800F6FFDDCFF7FF0800FFFFF5CF5FF045C0C1
:10127800D9FF46C0DAFFDE2A000EDD2247C0D9FFBB
:1012880048C0DAFFDFCF49F0020EDE26DFCF4AF092
:10129800000EDD2249C0D9FF4AC0DAFFDECF4BF08D
:1012A800DDCF4CF04BC060F04CC061F0626A636AFD
:1012B800646A656A666A676A6EEF08F0FFFF45C090
:1012C800D9FF46C0DAFFDECF01F0DDCF02F0F90E1C
:1012D800036E7F0E046E000E066E020E056E28EC7D
:1012E8003BF001500210D8B47CEF09F07FEF09F011
:1012F800FFFF9CEF09F0FFFF45C0D9FF46C0DAFFAA
:10130800DECF01F0DDCF02F0E70E036E7F0E046E34
:10131800000E066E020E056E28EC3BF0015002101E
:10132800D8A499EF09F09CEF09F0FFFFD9EF09F075
:10133800FFFF45C0D9FF46C0DAFFDECF49F0DDCF59
:101348004AF0010E4926000E4A2249C0F6FF4AC05B
:10135800F7FF0800FFFFF5CF5FF0020E45C0D9FF89
:1013680046C0DAFFDE26000EDD2247C0D9FF48C09E
:10137800DAFFDFCF49F0020EDE26DFCF4AF0000E9B
:10138800DD2249C0D9FF4AC0DAFFDECF4BF0DDCFFE
:101398004CF04BC060F04CC061F0626A636A646AEA
:1013A800656A666A676A6EEF08F0FFFF45C0D9FF95
:1013B80046C0DAFFDECFF6FFDDCFF7FF0800FFFFFC
:1013C800F550250AD8A4EBEF09F0EEEF09F0FFFF7E
:1013D80007EF0AF0FFFF45C0D9FF46C0DAFFDE2A53
:1013E800000EDD22000E026E250E016E43C003F0D2
:1013F80044C004F057EC39F0FFFF000E446E010EB4
:10140800436E2EEF0AF0FFFF45C0D9FF46C0DAFF52
:10141800DE2A000EDD2244EF05F0FFFF45C0D9FFAC
:1014280046C0DAFFDECFF6FFDDCFF7FF0800FFFF8B
:10143800F550016E026A43C003F044C004F057EC53
:1014480039F045C0D9FF46C0DAFFDE2A000EDD229A
:1014580000EF0AF0FFFF1200FFFFFFFF8BEC33F0F5
:1014680015EC34F015EC38F012EC33F0C3EC32F034
:1014780024EC33F0BF0E016E010E026E000E046EF6
:10148800000E036E000E066E000E056E000E086E4E
:10149800010E076EE70E096E010E0A6E5BEC37F05F
:1014A800B10E016E010E026E000E046E000E036E88
:1014B800000E066E000E056E000E086E010E076E19
:1014C800DF0E096E010E0A6E5BEC37F0D8EC36F0D1
:1014D8000C0E4CEC33F0010E4CEC33F0800E4CEC5F
:1014E80033F0930E036E7F0E046E17EC37F0F28E16
:1014F800000E0101AC6F000EAB6FFFFF0101B05190
:10150800D8B489EF0AF08CEF0AF0FFFFDFEF0AF09A
:10151800FFFFAE51D8B493EF0AF096EF0AF0FFFF41
:10152800A7EF0AF0FFFFCFEC32F00101A26FCD0E5A
:10153800036E010E046EA251C5EC3CF0000E0101D1
:10154800AE6FB0EF0AF0FFFFCD0E016E010E026E16
:10155800B9EC1FF0E1EC32F0FFFF000E0001C26FA2
:10156800010EC36F000EC56FA00EC46FFC0EC66FD0
:101578007F0EC76FD8900101CD35D96ECE35DA6EA2
:10158800CF0ED926010EDA22DECFC8F0DDCFC9F0A2
:10159800A1EC33F0010E4CEC33F0800E4CEC33F040
:1015A800000E036E010E046E17EC37F0000E0101F9
:1015B800B06F000EAF6FFFFF020ECD19CE11D8A489
:1015C800E8EF0AF0EBEF0AF0FFFF30EF0BF0FFFF58
:1015D8008982A351A411D8B4F4EF0AF0F7EF0AF006
:1015E800FFFF0CEF0BF0FFFFA6BF07EF0BF0A651B4
:1015F80007E1640EA55DD8B004EF0BF007EF0BF020
:10160800FFFF0CEF0BF0FFFFA54BA62B81EF0AF0B5
:10161800FFFFA351A411D8B414EF0BF017EF0BF090
:10162800FFFF3FEF0BF0FFFFA6BF24EF0BF0A65123
:101638000AE1640EA55DD8A024EF0BF027EF0BF0AC
:10164800FFFF3FEF0BF0FFFF000ECE6F000ECD6FD8
:10165800010EB06F81EF0AF0FFFF8992CD51CE11D4
:10166800D8A439EF0BF03CEF0BF0FFFF42EF0BF083
:10167800FFFF81EF0AF0FFFF81EF0AF0FFFFCD05C2
:10168800CE11D8A44AEF0BF04DEF0BF0FFFF56EF49
:101698000BF0FFFF000ECE6F020ECD6F010EB06F84
:1016A80081EF0AF0FFFF030ECD19CE11D8A45FEF2A
:1016B8000BF062EF0BF0FFFFA3EF0BF0FFFFAD5154
:1016C800D8B469EF0BF06CEF0BF0FFFF8CEF0BF069
:1016D800FFFF63EC36F0D4C0D6F0D5C0D7F0E9EC04
:1016E80038F00001D651D711D8B47DEF0BF080EF58
:1016F8000BF0FFFF3FEF0BF0FFFF000E0101CE6F75
:10170800020ECD6F010EB06F000EAD6F81EF0AF0C3
:10171800FFFFD5BE92EF0BF095EF0BF0FFFF9AEFAE
:101728000BF0FFFF38EC33F001EC33F0FFFF63EC14
:1017380036F0D4C0A0F1D5C0A1F181EF0AF0FFFFC7
:10174800040ECD19CE11D8A4ACEF0BF0AFEF0BF00F
:10175800FFFF4BEF0CF0FFFF030E0001DD6FEB0EF8
:10176800FFFFE82EFDD7DD2FFBD700D000F00101E9
:10177800A951AA11D8B4C3EF0BF0C6EF0BF0FFFFC5
:10178800E1EF0BF0FFFFBF0E076E010E086E000EB3
:101798000A6E320E096E9CEC36F007500810D8B469
:1017A800D8EF0BF0DBEF0BF0FFFFE1EF0BF0FFFFE3
:1017B800000E0101AA6F000EA96FFFFF0101A951D8
:1017C800AA11D8A4EAEF0BF0EDEF0BF0FFFF13EF2F
:1017D8000CF0FFFFA751A811D8B4F5EF0BF0F8EF04
:1017E8000BF0FFFF13EF0CF0FFFFB10E076E010EB9
:1017F800086E000E0A6E640E096E9CEC36F00750F7
:101808000810D8B40AEF0CF00DEF0CF0FFFF13EF3F
:101818000CF0FFFF000E0101A86F000EA76FFFFF7D
:101828000101A751A811D8B41CEF0CF020EF0CF05F
:10183800FFFF010E22EF0CF0FFFF000EFFFF016E0D
:10184800026AA951AA11D8B42CEF0CF030EF0CF0B1
:10185800FFFF010E32EF0CF0FFFF000EFFFF036EDB
:10186800046A76EC33F001500210D8B43EEF0CF065
:1018780041EF0CF0FFFF81EF0AF0FFFF000E0101BE
:10188800CE6F050ECD6F010EB06F81EF0AF0FFFF2E
:10189800050ECD19CE11D8A454EF0CF057EF0CF06B
:1018A800FFFFBFEF0CF0FFFF030E0001DD6FEB0E33
:1018B800FFFFE82EFDD7DD2FFBD700D000F0BF0ECD
:1018C800076E010E086E000E0A6E640E096E9CEC1F
:1018D80036F007500810D8B474EF0CF077EF0CF01E
:1018E800FFFF81EF0CF0FFFFBF0E016E010E026ECD
:1018F800BBEC33F00101AB4BAC2BFFFF0101ACBFDC
:101908008FEF0CF0AC510AE1140EAB5DD8A08FEF4D
:101918000CF092EF0CF0FFFF81EF0AF0FFFF000ED2
:10192800CE6F060ECD6F000EAC6F000EAB6FBF0E04
:10193800016E010E026E000E046E000E036E000EA4
:10194800066E000E056E000E086E010E076EE70E9D
:10195800096E010E0A6E5BEC37F0BF0E016E010EC8
:10196800026EBBEC33F0B10E016E010E026EBBECE1
:1019780033F081EF0AF0FFFF060ECD19CE11D8A47F
:10198800C8EF0CF0CBEF0CF0FFFF4CEF0DF0FFFFB2
:10199800030E0001DD6FEB0EFFFFE82EFDD7DD2FF4
:1019A800FBD700D000F00101A751A811D8A4DFEFA0
:1019B8000CF0E2EF0CF0FFFFFDEF0CF0FFFFB10EB3
:1019C800076E010E086E000E0A6E640E096E9CEC1E
:1019D80036F007500810D8B4F4EF0CF0F7EF0CF01D
:1019E800FFFFFDEF0CF0FFFF000E0101A86F010ED5
:1019F800A76FFFFF0101A751A811D8B406EF0DF09A
:101A080009EF0DF0FFFF2FEF0DF0FFFFA951AA110D
:101A1800D8A411EF0DF014EF0DF0FFFF2FEF0DF02C
:101A2800FFFFBF0E076E010E086E000E0A6E320E23
:101A3800096E9CEC36F007500810D8B426EF0DF06C
:101A480029EF0DF0FFFF2FEF0DF0FFFF000E010152
:101A5800AA6F010EA96FFFFFA7C101F0A8C102F08C
:101A6800A9C103F0AAC104F076EC33F001500210CA
:101A7800D8B441EF0DF044EF0DF0FFFF81EF0AF00D
:101A8800FFFF000E0101CE6F020ECD6F81EF0AF04D
:101A9800FFFF070ECD19CE11D8A455EF0DF058EF62
:101AA8000DF0FFFF3FEF0BF0FFFFAD51D8B45FEF34
:101AB8000DF062EF0DF0FFFF73EF0DF0FFFF010E69
:101AC800B06F000ECE6F020ECD6F000EA46F010E28
:101AD800A36F000EA66F000EA56F81EF0AF0FFFF3F
:101AE800D5BE79EF0DF07CEF0DF0FFFF3FEF0BF067
:101AF800FFFF01EC33F081EF0AF03BEF00F0FFFF4E
:101B08006250800B6B6E625062246D6E61AE8FEF17
:101B18000DF092EF0DF0FFFF94EF0DF0FFFF6D80D9
:101B2800FFFF6D50D8B49BEF0DF09EEF0DF0FFFF57
:101B3800B7EF0DF0FFFF6D28D8A4A5EF0DF0A8EFC3
:101B48000DF0FFFFB1EF0DF0FFFF000E5F6E000E0E
:101B5800606E000E616E000E626EFFFF618E000EF9
:101B6800626EC0EF0DF0FFFF000E5F6E000E606E3C
:101B7800000E616E000E626EFFFF6650800B6C6E89
:101B88006B506C18D8B4CBEF0DF0CEEF0DF0FFFF13
:101B9800D0EF0DF0FFFF6B8CFFFF665066246C6E74
:101BA80065AED9EF0DF0DCEF0DF0FFFFDEEF0DF0C5
:101BB800FFFF6C80FFFF6C50D8B4E5EF0DF0E8EF45
:101BC8000DF0FFFF01EF0EF0FFFF6C28D8A4EFEF38
:101BD8000DF0F2EF0DF0FFFFFBEF0DF0FFFF000E31
:101BE800636E000E646E000E656E000E666EFFFF7B
:101BF800658E000E666E0AEF0EF0FFFF000E636E34
:101C0800000E646E000E656E000E666EFFFF6D506E
:101C18006C5CD8B012EF0EF015EF0EF0FFFF40EF3E
:101C28000EF0FFFF6BAC1BEF0EF01EEF0EF0FFFF88
:101C380021EF0EF0FFFF800E6B1AFFFF6DC06EF0F4
:101C48006CC06DF06EC06CF05FC06EF063C05FF08A
:101C58006EC063F060C06EF064C060F06EC064F087
:101C680061C06EF065C061F06EC065F062C06EF074
:101C780066C062F06EC066F0FFFF000E6E6E6D50BB
:101C88006CC067F0686A675E000E685A68BE56EFF7
:101C98000EF068500AE11A0E675CD8A056EF0EF0F5
:101CA80059EF0EF0FFFF9CEF0EF0FFFF5F50601042
:101CB80061106210D8A463EF0EF067EF0EF0FFFF1B
:101CC800010E69EF0EF0FFFF000EFFFF6E6E000EB3
:101CD8005F6E000E606E000E616E000E626E6CC06C
:101CE8006DF0A7EF0EF0FFFF6EA07DEF0EF080EF16
:101CF8000EF0FFFF87EF0EF0FFFFD8906E3001095E
:101D08006E6E8AEF0EF0FFFFD8906E32FFFF5FA075
:101D180090EF0EF093EF0EF0FFFF95EF0EF0FFFF40
:101D28006E8EFFFF62346232613260325F326D2A3A
:101D3800FFFF6C506D5CD8A0A4EF0EF0A7EF0EF07B
:101D4800FFFF77EF0EF0FFFF6BBCADEF0EF0B0EFCB
:101D58000EF0FFFFFDEF0EF0FFFF6D50D8A4B7EFB8
:101D68000EF0BAEF0EF0FFFFC5EF0EF0FFFF000E0A
:101D78005F6E000E606E000E616E000E626E54EFB4
:101D880010F0FFFF63505F266450602265506122A7
:101D98006650622262A0D3EF0EF0D6EF0EF0FFFF7E
:101DA800A1EF0FF0FFFF6EA0DCEF0EF0DFEF0EF0FB
:101DB800FFFFE6EF0EF0FFFFD8906E3001096E6E60
:101DC800E9EF0EF0FFFFD8906E32FFFF5FA0EFEF54
:101DD8000EF0F2EF0EF0FFFFF4EF0EF0FFFF6E8E45
:101DE800FFFF62346232613260325F326D2AA1EFE6
:101DF8000FF0FFFF63505F5C645060586550615896
:101E08006250800A676E6650800A6758D8B00FEF34
:101E18000FF012EF0FF0FFFF40EF0FF0FFFF5F50E2
:101E2800635C676E60506458686E61506558696E8F
:101E3800625066586A6EFF0E67245F6EFF0E682058
:101E4800606EFF0E6920616EFF0E6A20626E800E62
:101E58006B1A6E6C6E50D8A434EF0FF037EF0FF09A
:101E6800FFFF49EF0FF0FFFF010E5F26000E602213
:101E78006122622249EF0FF0FFFF63505F5E6450FA
:101E8800605A6550615A6650625AFFFF5F50601091
:101E980061106210D8A453EF0FF056EF0FF0FFFF58
:101EA80098EF0FF0FFFF6E50D8A45DEF0FF060EFD2
:101EB8000FF0FFFF98EF0FF0FFFF000E5F6E000EB0
:101EC800606E000E616E000E626E54EF10F0FFFF40
:101ED800D8905F366036613662366EAE76EF0FF0B8
:101EE80079EF0FF0FFFF7BEF0FF0FFFF5F80FFFF41
:101EF8006EA081EF0FF084EF0FF0FFFF89EF0FF076
:101F0800FFFFD8806E368CEF0FF0FFFFD8906E364B
:101F1800FFFF6D50D8B493EF0FF096EF0FF0FFFF6F
:101F280098EF0FF0FFFF6D06FFFF61AE9EEF0FF019
:101F3800A1EF0FF0FFFF6BEF0FF0FFFF000E6C6ECD
:101F48006EAEA9EF0FF0ACEF0FF0FFFFCBEF0FF085
:101F5800FFFF6EC067F07F0E6716D8B4B6EF0FF0BC
:101F6800B9EF0FF0FFFFBFEF0FF0FFFFFFFF010E0C
:101F78006C6ECBEF0FF0FFFF5FA0C5EF0FF0C8EF5F
:101F88000FF0FFFFCBEF0FF0FFFFBAEF0FF0FFFFEF
:101F98006C50D8B4D2EF0FF0D5EF0FF0FFFF05EF7C
:101FA80010F0FFFF010E5F26000E60226122622200
:101FB80062A0E1EF0FF0E4EF0FF0FFFF05EF10F084
:101FC800FFFF5FC067F060C068F061C069F062C081
:101FD8006AF06A346A3269326832673267C05FF021
:101FE80068C060F069C061F06AC062F06D28D8B45A
:101FF80000EF10F003EF10F0FFFF05EF10F0FFFF08
:102008006D2AFFFF6D28D8B40CEF10F00FEF10F019
:10201800FFFF19EF10F0FFFF6D50D8A416EF10F076
:1020280019EF10F0FFFF2EEF10F0FFFF000E5F6EAC
:10203800000E606E000E616E000E626E6D50D8A4C8
:1020480028EF10F02BEF10F0FFFF2EEF10F0FFFF3E
:10205800000E6B6EFFFF6DA034EF10F037EF10F03D
:10206800FFFF3BEF10F0FFFF618E3DEF10F0FFFF29
:10207800619EFFFFD8906D30626E6BAE46EF10F038
:1020880049EF10F0FFFF4BEF10F0FFFF628EFFFFEC
:102098005FC05FF060C060F061C061F062C062F074
:1020A800FFFF1200FFFFFFFF3050800B396E3050EA
:1020B80030243F6E2FAE63EF10F066EF10F0FFFF95
:1020C80068EF10F0FFFF3F80FFFF3F50D8B46FEF7D
:1020D80010F072EF10F0FFFF89EF10F0FFFF3F28BC
:1020E800D8A479EF10F07CEF10F0FFFF85EF10F027
:1020F800FFFF000E2D6E000E2E6E000E2F6E000ECE
:10210800306EFFFF2F8E92EF10F0FFFF000E2D6E46
:10211800000E2E6E000E2F6E000E306EFFFF345034
:10212800800B391A345034243E6E33AE9EEF10F0D3
:10213800A1EF10F0FFFFA3EF10F0FFFF3E80FFFFBD
:102148003E50D8B4AAEF10F0ADEF10F0FFFFC4EF87
:1021580010F0FFFF3E28D8A4B4EF10F0B7EF10F04E
:10216800FFFFC0EF10F0FFFF000E316E000E326E61
:10217800000E336E000E346EFFFF338ECDEF10F07D
:10218800FFFF000E316E000E326E000E336E000E31
:10219800346EFFFF3E50D8B4D4EF10F0D7EF10F0F4
:1021A800FFFFE1EF10F0FFFF3F50D8A4DEEF10F083
:1021B800E1EF10F0FFFFECEF10F0FFFF000E2D6EC7
:1021C800000E2E6E000E2F6E000E306EA6EF12F06F
:1021D800FFFF33502D02F3CF44F0F4CF45F04450C5
:1021E8003A6E3B6A3C6A3D6A4550406E416A426AB3
:1021F800436A32502E02F3CF44F0F4CF45F04450F6
:102208003A26000E3B223C223D2245504026000E35
:1022180041224222432231502F02F3CF44F0F4CF1F
:1022280045F044503A26000E3B223C223D224550C0
:102238004026000E4122422243223CC03DF03BC0D2
:102248003CF03AC03BF03A6A31502E02F3CF44F0EA
:10225800F4CF45F044503A2645503B22000E3C222C
:10226800000E3D2232502D02F3CF44F0F4CF45F05A
:1022780044503A2645503B22000E3C22000E3D2297
:102288003CC03DF03BC03CF03AC03BF03A6A3150AC
:102298002D02F3CF44F0F4CF45F044503A26455090
:1022A8003B22000E3C22000E3D2233502E02F3CF7B
:1022B80044F0F4CF45F04450402645504122000EEA
:1022C8004222000E432232502F02F3CF44F0F4CFC3
:1022D80045F04450402645504122000E4222000E4F
:1022E800432233502F02F3CF44F0F4CF45F044504B
:1022F800356E4550366E376A386A37C038F036C0A2
:1023080037F035C036F0356A355040263650412210
:1023180037504222385043223AC035F03BC036F09D
:102328003CC037F03DC038F0190EA1EF11F0FFFFA7
:10233800D8903832373236323532FFFFE82E9BEFED
:1023480011F035504026365041223750422238503D
:1023580043223CC03DF03BC03CF03AC03BF03A6AF7
:102368003E503FC035F0366A3526000E3622820EC2
:102378003524446EFF0E3620456EDCEF11F0FFFF6A
:10238800D89040364136423643363DAECEEF11F056
:10239800D1EF11F0FFFFD3EF11F0FFFF4080FFFFF7
:1023A800D8903A363B363C363D364406D8A04506EA
:1023B800FFFF42AEE2EF11F0E5EF11F0FFFFC3EFD0
:1023C80011F0FFFF000E3E6E3DAEEDEF11F0F0EFA5
:1023D80011F0FFFF1BEF12F0FFFFFF0E3A14356EEE
:1023E800FF0E3B14366EFF0E3C14376E7F0E3D1405
:1023F800386E3550361037103810D8B406EF12F052
:1024080009EF12F0FFFF0FEF12F0FFFFFFFF010EC1
:102418003E6E1BEF12F0FFFF40A015EF12F018EF11
:1024280012F0FFFF1BEF12F0FFFF0AEF12F0FFFFA1
:102438003E50D8B422EF12F025EF12F0FFFF4CEF18
:1024480012F0FFFF010E4026000E412242224322D5
:1024580043A031EF12F034EF12F0FFFF4CEF12F00F
:10246800FFFF40C035F041C036F042C037F043C0EE
:1024780038F03834383237323632353235C040F0F9
:1024880036C041F037C042F038C043F0444A452ACC
:10249800FFFF45BE58EF12F0455009E14428D8A087
:1024A80058EF12F05BEF12F0FFFF66EF12F0FFFF3C
:1024B800000E406E000E416E800E426E7F0E436E1F
:1024C8009BEF12F0FFFF45BE75EF12F0455006E195
:1024D8004404D8B072EF12F075EF12F0FFFF82EFEC
:1024E80012F0FFFF000E406E000E416E000E426EAD
:1024F800000E436E000E396E9BEF12F0FFFF44C0D2
:102508003FF0FF0E4016FF0E41167F0E4216000EDA
:1025180043163FA092EF12F095EF12F0FFFF97EFEE
:1025280012F0FFFF428EFFFFD8903F30436EFFFF4F
:102538003950431240C02DF041C02EF042C02FF058
:1025480043C030F0FFFF1200FFFFFFFF4950800B30
:10255800566E495049245D6E48AEB5EF12F0B8EF9B
:1025680012F0FFFFBAEF12F0FFFF5D80FFFF5D5032
:10257800D8B4C1EF12F0C4EF12F0FFFFDDEF12F094
:10258800FFFF5D28D8A4CBEF12F0CEEF12F0FFFFCB
:10259800D7EF12F0FFFF000E466E000E476E000EDA
:1025A800486E000E496EFFFF488E000E496EE6EF3A
:1025B80012F0FFFF000E466E000E476E000E486ECA
:1025C800000E496EFFFF4D50800B561A4D504D249A
:1025D8005E6E4CAEF2EF12F0F5EF12F0FFFFF7EF80
:1025E80012F0FFFF5E80FFFF5E50D8B4FEEF12F0DE
:1025F80001EF13F0FFFF1AEF13F0FFFF5E28D8A4D6
:1026080008EF13F00BEF13F0FFFF14EF13F0FFFFC9
:10261800000E4A6E000E4B6E000E4C6E000E4D6E94
:10262800FFFF4C8E000E4D6E23EF13F0FFFF000EE0
:102638004A6E000E4B6E000E4C6E000E4D6EFFFF84
:102648004A504B104C104D10D8A42DEF13F030EF1A
:1026580013F0FFFF4AEF13F0FFFF000E466E000E67
:10266800476E000E486E000E496E800E48127F0EAF
:102678004912FFFF5650491246C046F047C047F07E
:1026880048C048F049C049F0BFEF14F0FFFF5D5063
:10269800D8A451EF13F054EF13F0FFFF5FEF13F0DE
:1026A800FFFF000E466E000E476E000E486E000ECD
:1026B800496EBFEF14F0FFFF5E505DC04EF04F6AE9
:1026C8004E5E000E4F5A7F0E4E24576E000E4F205E
:1026D800586E46C052F047C053F048C054F049C045
:1026E80055F0000E466E000E476E000E486E000E46
:1026F800496E000E596E000E5A6E000E5B6E000E8B
:102708005C6E000E5E6ECBEF13F0FFFF5E50D8B428
:1027180090EF13F093EF13F0FFFFAEEF13F0FFFF0E
:10272800D8905236533654365536D89046364736B2
:10273800483649365CAEA3EF13F0A6EF13F0FFFF5F
:10274800A8EF13F0FFFF4680FFFFD89059365A369E
:102758005B365C36FFFF4A50525C4B5053584C5026
:1027680054584D505558D8A0BCEF13F0BFEF13F094
:10277800FFFFC9EF13F0FFFF5C8C4A50525E4B50CD
:10278800535A4C50545A4D50555AFFFF5E2AFFFF7A
:10279800190E5E64D2EF13F0D5EF13F0FFFF89EF47
:1027A80013F0FFFF5250531054105510D8B4DFEFF8
:1027B80013F0E2EF13F0FFFFFFEF13F0FFFF598074
:1027C800FFEF13F0FFFFD8904636473648364936B4
:1027D8005CAEF1EF13F0F4EF13F0FFFFF6EF13F038
:1027E800FFFF4680FFFFD89059365A365B365C3675
:1027F8005706D8A05806FFFF48AE05EF14F008EFBB
:1028080014F0FFFFE6EF13F0FFFF000E5E6E5CAE04
:1028180010EF14F013EF14F0FFFF3EEF14F0FFFF7A
:10282800FF0E59144E6EFF0E5A144F6EFF0E5B14B6
:10283800506E7F0E5C14516E4E504F105010511058
:10284800D8B429EF14F02CEF14F0FFFF32EF14F096
:10285800FFFFFFFF010E5E6E3EEF14F0FFFF46A084
:1028680038EF14F03BEF14F0FFFF3EEF14F0FFFFDA
:102878002DEF14F0FFFF5E50D8B445EF14F048EF89
:1028880014F0FFFF6FEF14F0FFFF010E4626000E55
:1028980047224822492249A054EF14F057EF14F078
:1028A800FFFF6FEF14F0FFFF46C04EF047C04FF038
:1028B80048C050F049C051F05134513250324F3273
:1028C8004E324EC046F04FC047F050C048F051C09D
:1028D80049F0574A582AFFFF58BE7BEF14F058506A
:1028E80009E15728D8A07BEF14F07EEF14F0FFFF22
:1028F8008AEF14F0FFFF000E586E5768000E466E00
:10290800000E476E000E486E000E496EFFFF58BE5F
:1029180099EF14F0585006E15704D8B096EF14F028
:1029280099EF14F0FFFFA8EF14F0FFFF000E586EA8
:10293800000E576E000E466E000E476E000E486E73
:10294800000E496E000E566EFFFF57C05DF05DA089
:10295800B0EF14F0B3EF14F0FFFFB7EF14F0FFFF80
:10296800488EB9EF14F0FFFF489EFFFFD8905D3006
:10297800496E3DEF13F0FFFF1200FFFFFFFF80C01D
:10298800C2F081C0C3F082C0C4F083C0C5F077C074
:10299800C2F078C0C3F079C0C4F07AC0C5F0C2C034
:1029A8007BF0C3C07CF0C4C07DF0C5C07EF0180EBB
:1029B800E4EF14F0FFFFD8907E327D327C327B3218
:1029C800FFFFE82EDEEF14F07B500001BC6FBD6BFB
:1029D800BDBFF8EF14F0BD510AE1960EBC5DD8A05A
:1029E800F8EF14F0FBEF14F0FFFF06EF15F0FFFF10
:1029F80077C077F078C078F079C079F07AC07AF04B
:102A0800B4EF16F0FFFFC2C07BF0C3C07CF0C4C0B7
:102A18007DF0C5C07EF0200E18EF15F0FFFFD890AE
:102A28007E327D327C327B32FFFFE82E12EF15F0CA
:102A38007B507C107D107E10D8B425EF15F028EF60
:102A480015F0FFFF3BEF15F0FFFF77C001F078C0EE
:102A580002F079C003F07AC004F0F4EC33F001C05E
:102A680077F002C078F003C079F004C07AF0FFFF75
:102A78000001BDBF4CEF15F0BD5107E17E0EBC5DF6
:102A8800D8B049EF15F04CEF15F0FFFF69EF15F0DE
:102A9800FFFFC2C02DF0C3C02EF0C4C02FF0C5C0C8
:102AA80030F0000E316E000E326E000E336E000EE6
:102AB800346E57EC10F02DC077F02EC078F02FC090
:102AC80079F030C07AF0B4EF16F0FFFF000E636EB5
:102AD800000E646E000E656E4B0E666E77C05FF07A
:102AE80078C060F079C061F07AC062F083EC0DF0D4
:102AF8005FC0BEF060C0BFF061C0C0F062C0C1F08E
:102B0800000E636E000E646E000E656ECB0E666E70
:102B1800BEC05FF0BFC060F0C0C061F0C1C062F06D
:102B280083EC0DF05FC0B8F060C0B9F061C0BAF0D6
:102B380062C0BBF0B8C06FF0B9C070F0BAC071F035
:102B4800BBC072F077C073F078C074F079C075F0CC
:102B58007AC076F0BCEC34F06FC0C6F070C0C7F035
:102B680071C0C8F072C0C9F0000E016E000E026E8E
:102B7800000E036E3F0E046EC6C005F0C7C006F017
:102B8800C8C007F0C9C008F031EC3CF0D8B0CFEFAE
:102B980015F0D2EF15F0FFFF09EF16F0FFFF77C031
:102BA80063F078C064F079C065F07AC066F0C6C09A
:102BB8005FF0C7C060F0C8C061F0C9C062F083ECC4
:102BC8000DF05FC0BEF060C0BFF061C0C0F062C071
:102BD800C1F0BEC05FF0BFC060F0C0C061F0C1C04E
:102BE80062F0000E636E000E646E800E656EBF0E9E
:102BF800666E83EC0DF05FC0C6F060C0C7F061C0C0
:102C0800C8F062C0C9F076EF16F0FFFF000E016E43
:102C1800000E026E000E036EBF0E046EC6C005F0F5
:102C2800C7C006F0C8C007F0C9C008F031EC3CF0D6
:102C3800D8A021EF16F024EF16F0FFFF5BEF16F097
:102C4800FFFF77C063F078C064F079C065F07AC0A0
:102C580066F0C6C05FF0C7C060F0C8C061F0C9C008
:102C680062F083EC0DF05FC0BEF060C0BFF061C0E1
:102C7800C0F062C0C1F0BEC05FF0BFC060F0C0C0AD
:102C880061F0C1C062F0000E636E000E646E800ECB
:102C9800656E3F0E666E83EC0DF05FC0C6F060C0D7
:102CA800C7F061C0C8F062C0C9F076EF16F0FFFF48
:102CB800C6C05FF0C7C060F0C8C061F0C9C062F0AC
:102CC80077C063F078C064F079C065F07AC066F0C8
:102CD80083EC0DF05FC0C6F060C0C7F061C0C8F0FB
:102CE80062C0C9F0FFFFC2C07BF0C3C07CF0C4C0A3
:102CF8007DF0C5C07EF0200E88EF16F0FFFFD8905B
:102D08007E327D327C327B32FFFFE82E82EF16F076
:102D18007B507C107D107E10D8B495EF16F098EF9C
:102D280016F0FFFFABEF16F0FFFFC6C001F0C7C0FB
:102D380002F0C8C003F0C9C004F0F4EC33F001C0DD
:102D4800C6F002C0C7F003C0C8F004C0C9F0FFFF56
:102D5800C6C077F0C7C078F0C8C079F0C9C07AF0AB
:102D6800FFFF1200FFFFFFFF1EC036F01FC037F045
:102D780020C038F021C039F022C03AF023C03BF01F
:102D880024C03CF025C03DF03DBECDEF16F0D1EF9C
:102D980016F0FFFF010ED3EF16F0FFFF000EFFFF46
:102DA800346E356A34503510D8B4DDEF16F0E0EFE4
:102DB80016F0FFFFF1EF16F0FFFF3D1E3C1E3B1E15
:102DC8003A1E391E381E371E366C000E372238223E
:102DD80039223A223B223C223D22FFFF000189BFD3
:102DE800F8EF16F0FBEF16F0FFFFFDEF16F0FFFF10
:102DF8008A93FFFF89BF0CEF17F0895106E1880518
:102E0800D8B009EF17F00CEF17F0FFFF13EF17F02A
:102E1800FFFF000E316E010E306E18EF17F0FFFF46
:102E280088C030F089C031F0FFFF86C032F087C01B
:102E380033F034503510D8A424EF17F027EF17F0EB
:102E4800FFFF30EF17F0FFFF8AA52DEF17F030EFE7
:102E580017F0FFFF34EF17F0FFFF3206D8A0330654
:102E6800FFFF000E3F6E1F0E3E6E000EB76FBAEFEB
:102E780017F0FFFF3E06D8A03F06980E3E24D96EF5
:102E8800000E3F20DA6E36C001F037C002F038C0BD
:102E980003F039C004F03AC005F03BC006F03CC06E
:102EA80007F03DC008F00A0E096E000E0A6E000E0B
:102EB8000B6E000E0C6E000E0D6E000E0E6E000EE8
:102EC8000F6E000E106E92EC3EF001C026F002C0AC
:102ED80027F003C028F004C029F005C02AF006C076
:102EE8002BF007C02CF008C02DF026C013F028C026
:102EF80014F0E1EC34F01350300FDF6E3006D8A038
:102F080031063206D8A0330636C001F037C002F0C9
:102F180038C003F039C004F03AC005F03BC006F0F1
:102F28003CC007F03DC008F00A0E096E000E0A6E9C
:102F3800000E0B6E000E0C6E000E0D6E000E0E6E67
:102F4800000E0F6E000E106EDFEC1EF001C036F0A2
:102F580002C037F003C038F004C039F005C03AF0B9
:102F680006C03BF007C03CF008C03DF0FFFF3FBE85
:102F7800C6EF17F03F5009E13E04D8A0C6EF17F09E
:102F8800C9EF17F0FFFF02EF18F0FFFF36503710B8
:102F9800381039103A103B103C103D10D8A4D7EF28
:102FA80017F0DAEF17F0FFFF3DEF17F0FFFF31BE24
:102FB800E9EF17F0315006E13004D8B0E6EF17F02A
:102FC800E9EF17F0FFFF3DEF17F0FFFF33BEF5EF16
:102FD80017F0335009E13204D8A0F5EF17F0F8EFF5
:102FE80017F0FFFF02EF18F0FFFF00018AB3FFEFB1
:102FF80017F002EF18F0FFFF3DEF17F0FFFF345016
:103008003510D8A40AEF18F00DEF18F0FFFF17EFEE
:1030180018F0FFFF00018AA514EF18F017EF18F059
:10302800FFFF3AEF18F0FFFF3E06D8A03F063450E6
:103038003510D8A422EF18F025EF18F0FFFF2CEF79
:1030480018F0FFFF000E2F6E2B0E2E6E31EF18F0CA
:10305800FFFF000E2F6E2D0E2E6EFFFF980E3E24E2
:10306800D96E000E3F20DA6E2EC0DFFFFFFF1CC0B6
:1030780011F01DC012F0980E3E24136E000E3F2072
:10308800146E32C015F033C016F0C8EC39F011C018
:103098001CF012C01DF01200FFFFFFFF000189BFE6
:1030A80058EF18F05BEF18F0FFFF5DEF18F0FFFF27
:1030B8008A93FFFF89BF6CEF18F0895106E18805F4
:1030C800D8B069EF18F06CEF18F0FFFF73EF18F045
:1030D800FFFF000E346E010E336E78EF18F0FFFF1D
:1030E80088C033F089C034F0FFFF86C035F087C050
:1030F80036F08AA982EF18F085EF18F0FFFF8AEF03
:1031080018F0FFFFFE0E3526FF0E3622FFFF1EC009
:1031180037F01FC038F020C039F021C03AF022C083
:103128003BF023C03CF024C03DF025C03EF0000E2B
:10313800406E1F0E3F6E000EB76F68EF19F0FFFF6D
:103148003F06D8A040060F0E3714416E426A42BEB1
:10315800B7EF18F042500AE10A0E415CD8A0B7EF69
:1031680018F0BAEF18F0FFFFC3EF18F0FFFF570E83
:103178004124416E000E4220426ECAEF18F0FFFF54
:10318800300E4124416E000E4220426EFFFFBF0EFA
:10319800276EFF0E286E2650296E2A6A2750292688
:1031A80028502A222A500BE11A0E295CD8A0DFEFFA
:1031B80018F0E3EF18F0FFFF010EE5EF18F0FFFF3E
:1031C800000EFFFF2F6E306A2F503010D8B4EFEF8B
:1031D80018F0F2EF18F0FFFF28EF19F0FFFF9F0E2D
:1031E800276EFF0E286E200E4110296E000E421029
:1031F8002A6E2750292628502A222A500BE11A0E17
:10320800295CD8A00AEF19F00EEF19F0FFFF010EA4
:1032180010EF19F0FFFF000EFFFF316E326A3150D8
:103228003210D8B41AEF19F01DEF19F0FFFF28EF8C
:1032380019F0FFFF41C007F042C008F0F3EC35F089
:1032480007C041F008C042F0FFFF980E3F24D96E36
:10325800000E4020DA6E41C0DFFF3306D8A03406E6
:103268003506D8A0360637C027F038C028F039C050
:1032780029F03AC02AF03BC02BF03CC02CF03DC0EE
:103288002DF03EC02EF0050E54EF19F0FFFFD89038
:103298002E322D322C322B322A3229322832273242
:1032A800FFFFE82E4AEF19F027C037F028C038F0A2
:1032B80029C039F02AC03AF02BC03BF02CC03CF0B2
:1032C8002DC03DF02EC03EF0FFFF40BE75EF19F057
:1032D80040500AE1020E3F5CD8A075EF19F078EF74
:1032E80019F0FFFFB1EF19F0FFFF37503810391010
:1032F8003A103B103C103D103E10D8A486EF19F050
:1033080089EF19F0FFFFA3EF18F0FFFF34BE98EF25
:1033180019F0345006E13304D8B095EF19F098EF5E
:1033280019F0FFFFA3EF18F0FFFF36BEA4EF19F066
:10333800365009E13504D8A0A4EF19F0A7EF19F029
:10334800FFFFB1EF19F0FFFF00018AB3AEEF19F0EC
:10335800B1EF19F0FFFFA3EF18F0FFFF00018AA9F2
:10336800B8EF19F0BBEF19F0FFFFD2EF19F0FFFF2C
:103378003F06D8A04006980E3F24D96E000E402084
:10338800DA6E26C0DFFF3F06D8A04006980E3F241D
:10339800D96E000E4020DA6E300EDF6EFFFF1CC0C3
:1033A80011F01DC012F0980E3F24136E000E40203D
:1033B800146E35C015F036C016F0C8EC39F011C0DF
:1033C8001CF012C01DF01200FFFFFFFF000189BFB3
:1033D800F0EF19F0F3EF19F0FFFFF5EF19F0FFFF29
:1033E8008A93FFFF89BF04EF1AF0895106E1880527
:1033F800D8B001EF1AF004EF1AF0FFFF0BEF1AF044
:10340800FFFF000E2F6E010E2E6E10EF1AF0FFFF59
:1034180088C02EF089C02FF0FFFF86C030F087C02B
:1034280031F01EC032F01FC033F020C034F021C08C
:1034380035F022C036F023C037F024C038F025C05C
:1034480039F0000E3B6E1F0E3A6E000EB76FA4EFF8
:103458001AF0FFFF3A06D8A03B06980E3A24D96E18
:10346800000E3B20DA6E32C001F033C002F034C0E7
:1034780003F035C004F036C005F037C006F038C098
:1034880007F039C008F00A0E096E000E0A6E000E29
:103498000B6E000E0C6E000E0D6E000E0E6E000E02
:1034A8000F6E000E106E3BEC3AF001C026F002C021
:1034B80027F003C028F004C029F005C02AF006C090
:1034C8002BF007C02CF008C02DF02650300FDF6E0F
:1034D8002E06D8A02F063006D8A0310632C001F03B
:1034E80033C002F034C003F035C004F036C005F034
:1034F80037C006F038C007F039C008F00A0E096E68
:10350800000E0A6E000E0B6E000E0C6E000E0D6E95
:10351800000E0E6E000E0F6E000E106EACEC3BF03F
:1035280001C032F002C033F003C034F004C035F0FB
:1035380005C036F006C037F007C038F008C039F0CB
:10354800FFFF3A503B10D8B4ACEF1AF0AFEF1AF0C7
:10355800FFFFE8EF1AF0FFFF325033103410351038
:103568003610371038103910D8A4BDEF1AF0C0EF54
:103578001AF0FFFF2DEF1AF0FFFF2FBECFEF1AF062
:103588002F5006E12E04D8B0CCEF1AF0CFEF1AF086
:10359800FFFF2DEF1AF0FFFF31BEDBEF1AF03150BD
:1035A80009E13004D8A0DBEF1AF0DEEF1AF0FFFFD4
:1035B800E8EF1AF0FFFF00018AB3E5EF1AF0E8EF31
:1035C8001AF0FFFF2DEF1AF0FFFF1CC011F01DC00D
:1035D80012F0980E3A24136E000E3B20146E30C081
:1035E80015F031C016F0C8EC39F011C01CF012C04B
:1035F8001DF01200FFFFFFFF000189BF06EF1BF05F
:1036080009EF1BF0FFFF0BEF1BF0FFFF8A93FFFF93
:1036180089BF1AEF1BF0895106E18805D8B017EF6A
:103628001BF01AEF1BF0FFFF21EF1BF0FFFF000E4E
:103638002F6E010E2E6E26EF1BF0FFFF88C02EF0B6
:1036480089C02FF0FFFF86C032F087C033F01EC05C
:1036580034F01FC035F020C036F021C037F022C04A
:1036680038F023C039F024C03AF025C03BF0000EF2
:103678003D6E1F0E3C6E000EB76F000E316E000ED1
:10368800306E8FEF1BF0FFFF3C06D8A03D06070EFB
:103698003414306E316A980E3C24D96E000E3D20E9
:1036A800DA6E3050300FDF6E2E06D8A02F063206A5
:1036B800D8A0330634C026F035C027F036C028F02D
:1036C80037C029F038C02AF039C02BF03AC02CF0A6
:1036D8003BC02DF0040E7BEF1BF0FFFFD8902D327E
:1036E8002C322B322A322932283227322632FFFF57
:1036F800E82E71EF1BF026C034F027C035F028C043
:1037080036F029C037F02AC038F02BC039F02CC069
:103718003AF02DC03BF0FFFF3DBE9BEF1BF03D5044
:1037280009E13C04D8A09BEF1BF09EEF1BF0FFFFC4
:10373800D7EF1BF0FFFF3450351036103710381014
:1037480039103A103B10D8A4ACEF1BF0AFEF1BF0C8
:10375800FFFF47EF1BF0FFFF2FBEBEEF1BF02F5000
:1037680006E12E04D8B0BBEF1BF0BEEF1BF0FFFF45
:1037780047EF1BF0FFFF33BECAEF1BF0335009E1E0
:103788003204D8A0CAEF1BF0CDEF1BF0FFFFD7EF34
:103798001BF0FFFF00018AB3D4EF1BF0D7EF1BF03B
:1037A800FFFF47EF1BF0FFFF00018AA9DEEF1BF0C8
:1037B800E1EF1BF0FFFFFBEF1BF0FFFF3050311074
:1037C800D8B4E9EF1BF0ECEF1BF0FFFFFBEF1BF0A9
:1037D800FFFF3C06D8A03D06980E3C24D96E000E8B
:1037E8003D20DA6E300EDF6E3206D8A03306FFFFBA
:1037F8001CC011F01DC012F0980E3C24136E000E70
:103808003D20146E32C015F033C016F0C8EC39F004
:1038180011C01CF012C01DF01200FFFFFFFF276E41
:103828002750D8B41AEF1CF01DEF1CF0FFFF42EF31
:103838001CF0FFFF22BE26EF1CF023EF1CF0FFFF59
:1038480042EF1CF0FFFF1FC023F020C024F021C06E
:1038580025F022C026F0231E241E251E261E232AFC
:10386800000E24222522262223C029F024C02AF073
:1038780025C02BF026C02CF04BEF1CF0FFFF1FC01B
:1038880029F020C02AF021C02BF022C02CF0FFFF25
:103898001F50201021102210D8A455EF1CF058EF0B
:1038A8001CF0FFFF63EF1CF0FFFF000E1F6E000E01
:1038B800206E000E216E000E226E0BEF1DF0FFFF32
:1038C800960E286E6FEF1CF0FFFF282AD8902C3236
:1038D8002B322A322932FFFF000E2914236E000EE4
:1038E8002A14246E000E2B14256EFE0E2C14266E40
:1038F8002350241025102610D8A485EF1CF088EF3B
:103908001CF0FFFF68EF1CF0FFFF98EF1CF0FFFFB3
:10391800282A010E2926000E2A222B222C22D89092
:103928002C322B322A322932FFFF000E2914236E43
:10393800000E2A14246E000E2B14256EFF0E2C1474
:10394800266E2350241025102610D8A4AEEF1CF0A4
:10395800B1EF1CF0FFFF8BEF1CF0FFFFBBEF1CF07B
:10396800FFFF2806D89029362A362B362C36FFFF3B
:103978002BBEC1EF1CF0C4EF1CF0FFFFCEEF1CF014
:10398800FFFF020E2860CBEF1CF0CEEF1CF0FFFF0C
:10399800B4EF1CF0FFFF28B0D4EF1CF0D7EF1CF0F9
:1039A800FFFFD9EF1CF0FFFF2B9EFFFFD8902832B6
:1039B80028C023F0246A256A266A23C026F0256ACF
:1039C800246A236A2350291224502A1225502B12C4
:1039D80026502C122750D8B4F4EF1CF0F7EF1CF047
:1039E800FFFF02EF1DF0FFFF22BE00EF1DF0FDEF0D
:1039F8001CF0FFFF02EF1DF0FFFF2C8EFFFF29C018
:103A08001FF02AC020F02BC021F02CC022F0FFFFAD
:103A18001200FFFFFFFF20EEDEF010EE0FF0060EA3
:103A2800DBCFE3FFE806FCE20CC01AF00DC01BF088
:103A38001A501B10D8A423EF1DF026EF1DF0FFFF2E
:103A48002BEF1DF0FFFF0F0E1A6E000E1B6EFFFF0F
:103A58001AC001F01BC002F02FEC35F001C01EF0B7
:103A680002C01FF088C01CF089C01DF01DBE3FEFCA
:103A78001DF042EF1DF0FFFF5BEF1DF0FFFF1E5032
:103A88001C5C1D50800A0E6E1F50800A0E58D8A06C
:103A980050EF1DF053EF1DF0FFFF56EF1DF0FFFF35
:103AA8005BEF1DF0FFFF1CC01EF01DC01FF0FFFFE5
:103AB8001EC01CF01FC01DF086C018F087C019F08A
:103AC80000018AB16AEF1DF06DEF1DF0FFFF8EEF68
:103AD8001DF0FFFF7DEF1DF0FFFF000E026E200EB0
:103AE800016E0AC003F00BC004F057EC39F01E4A0F
:103AF8001F2AFFFF18501E5C1F50800A0E6E1950B7
:103B0800800A0E58D8A08BEF1DF08EEF1DF0FFFF36
:103B180070EF1DF0FFFF000E176E000E166EB5EF6A
:103B28001DF0FFFF1AC0F6FF1BC0F7FFF86A050E6D
:103B3800F76404D00800FFFFF55005D0F6CFE1FF89
:103B4800F7CFE2FFE7500E6E0E50016E026A0AC010
:103B580003F00BC004F057EC39F01A4A1B2A164A36
:103B6800172AFFFF1C50165C1750800A0E6E1D5056
:103B7800800A0E58D8A0C3EF1DF0C6EF1DF0FFFF56
:103B880095EF1DF0FFFF00018AA1CDEF1DF0D0EFEA
:103B98001DF0FFFFF1EF1DF0FFFFE0EF1DF0FFFF4D
:103BA800000E026E200E016E0AC003F00BC004F076
:103BB80057EC39F01E4A1F2AFFFF18501E5C1F5091
:103BC800800A0E6E1950800A0E58D8A0EEEF1DF02C
:103BD800F1EF1DF0FFFFD3EF1DF0FFFF1EC00AF04D
:103BE8001FC00BF01200FFFFFFFF000E166E000E45
:103BF800156E000E0F6E000E0E6E06EF1EF0FFFF24
:103C0800084A092AFFFF010E146E08C0F6FF09C012
:103C1800F7FF0800FFFFF550200AD8B416EF1EF092
:103C280019EF1EF0FFFF3AEF1EF0FFFFF70E0A6EC6
:103C3800FF0E0B6E08C0F6FF09C0F7FF0800FFFF74
:103C4800F5500C6E0D6A0A500C260B500D220D50C3
:103C58000AE1050E0C5CD8A034EF1EF037EF1EF019
:103C6800FFFF3AEF1EF0FFFF000E146EFFFF14C0B7
:103C780010F0116A10501110D8A445EF1EF048EF4B
:103C88001EF0FFFF03EF1EF0FFFF55EF1EF0FFFFD2
:103C9800000E0F6E010E0E6EFFFF084A092A8FEF05
:103CA8001EF0FFFF08C0F6FF09C0F7FF0800FFFF7E
:103CB800F5500A6E0B6A0B50000AD8B466EF1EF076
:103CC8008FEF1EF0FFFF0A502B0AD8B450EF1EF0FA
:103CD800060AD8B44BEF1EF08FEF1EF0FFFF15C099
:103CE80001F016C002F0000E046E0A0E036E76ECA8
:103CF80033F008C0F6FF09C0F7FF0800FFFFF550D2
:103D0800015E000E025A300E0124156E000E0220CC
:103D1800166E50EF1EF0FFFFD00E0A6EFF0E0B6EF0
:103D280008C0F6FF09C0F7FF0800FFFFF5500C6E4A
:103D38000D6A0A500C260B500D220D500BE10A0E8D
:103D48000C5CD8A0AAEF1EF0AEEF1EF0FFFF010E2C
:103D5800B0EF1EF0FFFF000EFFFF126E136A125045
:103D68001310D8A4BAEF1EF0BDEF1EF0FFFF72EFDC
:103D78001EF0FFFF0E500F10D8A4C5EF1EF0C8EFBD
:103D88001EF0FFFFD7EF1EF0FFFF15C00AF016C0A8
:103D98000BF00A1E0B1E0A4A0B2A0AC008F00BC0B9
:103DA80009F0DCEF1EF0FFFF15C008F016C009F09F
:103DB800FFFF1200FFFFFFFF000E126E10BEEAEFBA
:103DC8001EF0E7EF1EF0FFFFFDEF1EF0FFFF101ED5
:103DD8000F1E0E1E0D1E0C1E0B1E0A1E096C000E59
:103DE8000A220B220C220D220E220F221022010E73
:103DF800126EFFFF08BE06EF1FF003EF1FF0FFFF74
:103E080019EF1FF0FFFF081E071E061E051E041EE1
:103E1800031E021E016C000E022203220422052248
:103E2800062207220822010E121AFFFF20EE13F0C5
:103E3800070EDE6AE806FDE209500A100B100C10A6
:103E48000D100E100F101010D8B42DEF1FF030EF1A
:103E58001FF0FFFF8BEF1FF0FFFF010E116E40EF09
:103E68001FF0FFFFD89009360A360B360C360D3690
:103E78000E360F361036112AFFFF10AE46EF1FF030
:103E880049EF1FF0FFFF35EF1FF0FFFFFFFFD8904E
:103E980013361436153616361736183619361A36B6
:103EA8000950015C0A5002580B5003580C50045832
:103EB8000D5005580E5006580F5007581050085806
:103EC800D8A069EF1FF06CEF1FF0FFFF7EEF1FF027
:103ED800FFFF0950015E0A50025A0B50035A0C505A
:103EE800045A0D50055A0E50065A0F50075A1050D2
:103EF800085A1380FFFFD89010320F320E320D325D
:103F08000C320B320A320932112E4AEF1FF0FFFF32
:103F18001250D8B492EF1FF095EF1FF0FFFFA6EFF5
:103F28001FF0FFFF1A1E191E181E171E161E151E3B
:103F3800141E136C000E14221522162217221822A2
:103F480019221A22FFFF13C001F014C002F015C095
:103F580003F016C004F017C005F018C006F019C029
:103F680007F01AC008F01200FFFFFFFF01C0D9FFD9
:103F780002C0DAFF020EDE18DE10D8A4C6EF1FF06A
:103F8800C9EF1FF0FFFFCEEF1FF0FFFF900E056E89
:103F9800FAEF1FF0FFFF01C0D9FF02C0DAFFDE50C1
:103FA800DE10D8A4DAEF1FF0DDEF1FF0FFFFE2EF1D
:103FB8001FF0FFFF890E056EFAEF1FF0FFFF01C02B
:103FC800D9FF02C0DAFF080EDE18DE10D8A4EFEF22
:103FD8001FF0F2EF1FF0FFFFF7EF1FF0FFFFA00E3B
:103FE800056EFAEF1FF0FFFF930E056EFFFF0550F9
:063FF8001200FFFFFFFFB5
:10658000FFFF1200FFFFFFFF9E9A9D8AF28C120010
:10659000FFFFFFFF016E01C083FF1200FFFFFFFF3F
:0E65A000AECF01F0000EAE6E01501200FFFFF4
:1065AF00286E756C6C29000AD7A33CBD3786340062
:1065BF00008041FFFF016E01C0ADFFFFFFACA2EBFA
:1065CF00EF32F0EEEF32F0FFFFE5EF32F0FFFF12A8
:1065DF0000FFFF3B7FC97EBB7F6C7FA97FC47FB26B
:1065EF007F097F100020004000800001000200049E
:1065FF00000800FFFF000ED56E960ED66E980ED7D0
:10660F006EF28AD59CD59AD596D580D582D584D56C
:10661F008E1200FFFFFFFF000EBD6E0A0E0001D4A9
:10662F006FD70ED56FA30ED66F3B0ED76FB3EC3768
:10663F00F0BD86BD841200FFFFFFFF000E896E00C4
:10664F000E806E9268000EC26EC296C298C28AC247
:10665F0080000EC46E000EC36E000EC16E1200FFDE
:10666F00FFFFFFFFFF63EC36F0C90E0001D41906E0
:10667F00E1D529D8A446EF33F049EF33F0FFFF39C6
:10668F00EF33F0FFFF1200FFFFFFFF026E84820265
:10669F0050C9EC32F08494C80EFFFF00F0E82EFCD6
:1066AF00D78492C80EFFFF00F0E82EFCD784821229
:1066BF0000FFFFFFFF026E84820250C9EC32F084AC
:1066CF0084C80EFFFF00F0E82EFCD78492C80EFF9F
:1066DF00FF00F0E82EFCD784821200FFFFFFFF01BE
:1066EF00500302F3CF05F0F4CF06F001500402F38C
:1066FF0050062602500302F350062605C001F0068D
:10670F00C002F01200FFFFFFFF000E896E000E8027
:10671F006EF00E926E000E8A6E000E816E000E935A
:10672F006E000E8B6E000E826E9494948E949C125B
:10673F0000FFFFFFFFC80E0001CC6F000ECD6FC230
:10674F00C070F0C3C071F0C4C072F0C5C073F0C6A2
:10675F00C074F0C7C075F0CC0E766E000E776EF574
:10676F00EC3DF01200FFFFFFFF20EE04F00150D9C7
:10677F00260250DA22DECF03F0DDCF04F0031E0431
:10678F001E034A042A20EE04F00150D9260250DAE3
:10679F002203C0DEFF04C0DDFF1200FFFFFFFF0179
:1067AF00C0D9FF02C0DAFFDECF03F0DDCF04F0D88F
:1067BF00900336043601C005F002C006F003500501
:1067CF002604500622060E0524D96E000E0620DA86
:1067DF006EDF508A6E1200FFFFFFFF0150021003A1
:1067EF00100410D8B4FEEF33F001EF34F0FFFF0ABE
:1067FF00EF34F0FFFF000E011A000E021A000E0315
:10680F001A800E041AFFFF01C001F002C002F0034C
:10681F00C003F004C004F01200FFFFFFFF550E7716
:10682F006E550E786EC80E796E410E7A6EC2EC14EC
:10683F00F077C0CAF078C0CBF079C0CCF07AC0CD79
:10684F00F059EC3DF00001CA51AF6EAC9CAC8AAC74
:10685F0098AC84AB8EAB9CAB881200FFFFFFFFD0D0
:10686F000E036EFF0E046E01C005F002C006F003AA
:10687F005005260450062206500BE10A0E055CD87F
:10688F00A04CEF34F050EF34F0FFFF010E52EF3415
:10689F00F0FFFF000EFFFF016E026A1200FFFFFF05
:1068AF00FFBF0E036EFF0E046E01C005F002C0069F
:1068BF00F0035005260450062206500BE11A0E0570
:1068CF005CD8A06DEF34F071EF34F0FFFF010E7361
:1068DF00EF34F0FFFF000EFFFF016E026A1200FFA0
:1068EF00FFFFFF9F0E036EFF0E046E01C005F00247
:1068FF00C006F0035005260450062206500BE11A7D
:10690F000E055CD8A08EEF34F092EF34F0FFFF014C
:10691F000E94EF34F0FFFF000EFFFF016E026A12BC
:10692F0000FFFFFFFF9F0E036EFF0E046E200E0190
:10693F0010056E000E0210066E0350052604500659
:10694F002206500BE11A0E055CD8A0B1EF34F0B55A
:10695F00EF34F0FFFF010EB7EF34F0FFFF000EFF33
:10696F00FF016E026A1200FFFFFFFF000E731A0095
:10697F000E741A000E751A800E761A6FC05FF070C3
:10698F00C060F071C061F072C062F073C063F074E8
:10699F00C064F075C065F076C066F083EC0DF05FF3
:1069AF00C06FF060C070F061C071F062C072F01221
:1069BF0000FFFFFFFF14BEF0EF34F0145006E11399
:1069CF0004D8B0EDEF34F0F0EF34F0FFFFFFEF3409
:1069DF00F0FFFF13C015F014C016F0151E161E158C
:1069EF004A162A15C013F016C014F004EF35F0FF45
:1069FF00FF13C013F014C014F0FFFF1200FFFFFFCE
:106A0F00FF000E106E000E0F6E1AEF35F0FFFF0E27
:106A1F00C001F0026A0CC003F00DC004F057EC394E
:106A2F00F00F4A102AFFFF0F500A24D96E10500B97
:106A3F0020DA6EDF500E6E0E50D8A429EF35F02CF1
:106A4F00EF35F0FFFF0EEF35F0FFFF1200FFFFFFF6
:106A5F00FF01C003F002C004F039EF35F0FFFF0172
:106A6F004A022AFFFF01C0F6FF02C0F7FFF86A05CE
:106A7F000EF76404D00800FFFFF55005D0F6CFE104
:106A8F00FFF7CFE2FFE7500009D8A451EF35F054DC
:106A9F00EF35F0FFFF36EF35F0FFFF0350015C01DC
:106AAF006E04500258026E1200FFFFFFFF010E0727
:106ABF006E200E01180210D8B468EF35F06BEF3569
:106ACF00F0FFFF87EF35F0FFFFF70E036EFF0E04A9
:106ADF006E01C005F002C006F003500526045006F3
:106AEF002206500AE1050E055CD8A081EF35F0842F
:106AFF00EF35F0FFFF87EF35F0FFFF000E076EFF5A
:106B0F00FF07C001F0026A1200FFFFFFFF000186BE
:106B1F00518711D8A496EF35F099EF35F0FFFFA00C
:106B2F00EF35F0FFFF86C01FF087C020F0A7EF35CD
:106B3F00F0FFFFFF0E86251F6EFF0E8721206EFFD1
:106B4F00FF1EC098F0000E996F1CC011F01DC012EF
:106B5F00F0980E136E000E146E1FC015F020C016A5
:106B6F00F0C8EC39F011C01CF012C01DF01200FF7C
:106B7F00FFE20EF66E650EF76E000EF86E01EECFA9
:106B8F00F010EE20F00900F5CFEEFFE550E150FADE
:106B9F00E1AF0EF66E650EF76E000EF86E00EEDECC
:106BAF00F010EE13F00900F5CFEEFFE550E150FACB
:106BBF00E101EEA3F02C0EEE6AE806FDE100EE8097
:106BCF00F0380EEE6AE806FDE17F907F92000EF836
:106BDF006E000131EF0AF0FFFF9F0E096EFF0E0AE4
:106BEF006E07C00BF008C00CF009500B260A500CB2
:106BFF00220C500BE11A0E0B5CD8A009EF36F00DEA
:106C0F00EF36F0FFFF010E0FEF36F0FFFF000EFF24
:106C1F00FF0D6E0E6A0D500E10D8B419EF36F01C22
:106C2F00EF36F0FFFF23EF36F0FFFF5F0E0714077D
:106C3F006E086A28EF36F0FFFF07C007F008C0089C
:106C4F00F0FFFF1200FFFFFFFF6AC06EF06BC06F17
:106C5F00F0000E0001856F000E846F4BEF36F0FFD2
:106C6F00FF68C043F069C044F06E0E456E000E46DB
:106C7F006E6CC047F06DC048F03DEC00F043500023
:106C8F0001842744508523FFFF6EC0F6FF6FC0F7C6
:106C9F00FF0800FFFFF5500009D8A459EF36F05C4C
:106CAF00EF36F0FFFF37EF36F0FFFF84C068F08557
:106CBF00C069F01200FFFFFFFFC284FFFFC2B46B79
:106CCF00EF36F06EEF36F0FFFF65EF36F0FFFF00A7
:106CDF000E316E000E326E800E336E3E0E346EC469
:106CEF00501F6E206A216A226A010E12EC1CF01FDF
:106CFF00C02DF020C02EF021C02FF022C030F05751
:106D0F00EC10F02DC0CAF02EC0CBF02FC0CCF0305D
:106D1F00C0CDF059EC3DF0C90E0001CA25D46FFF6C
:106D2F000ECB21D56F1200FFFFFFFF20EE02F00701
:106D3F0050D9260850DA220950DE5CDE50800A0D49
:106D4F006E0A50800A0D58D8A0B0EF36F0B3EF3668
:106D5F00F0FFFFC4EF36F0FFFF20EE02F00750D92F
:106D6F00260850DA22000EDE6E000EDD6E000E08D1
:106D7F006E010E076ED5EF36F0FFFF07C001F0086A
:106D8F00C002F0D6EC33F007C001F008C002F07C6F
:106D9F00EC38F0000E086E000E076EFFFF1200FFBA
:106DAF00FFFFFF836A000E956E846A000E966E8455
:106DBF009284941E0E036E3C0EFFFFE82EFDD70348
:106DCF002EFBD700D08482380E4CEC33F01E0E030E
:106DDF006E3C0EFFFFE82EFDD7032EFBD700D038F9
:106DEF000E4CEC33F01E0E036E3C0EFFFFE82EFD33
:106DFF00D7032EFBD700D0380E4CEC33F0080E4CD7
:106E0F00EC33F00F0E4CEC33F0010E4CEC33F0384A
:106E1F000E4CEC33F0800E4CEC33F01200FFFFFF02
:106E2F00FF000E076E37EF37F0FFFF075003240503
:106E3F006E000E0420066E05C0F6FF06C0F7FFF8C1
:106E4F006A050EF76404D00800FFFFF55005D0F671
:106E5F00CFE1FFF7CFE2FFE75061EC33F0072AFFF6
:106E6F00FF07500324056E000E0420066E05C0F6C2
:106E7F00FF06C0F7FFF86A050EF76404D00800FF9D
:106E8F00FFF55005D0F6CFE1FFF7CFE2FFE7500057
:106E9F0009D8A455EF37F058EF37F0FFFF1CEF3745
:106EAF00F0FFFF1200FFFFFFFF000E106E000E0F2E
:106EBF006EFFFFD8900F34D96E1034DA6E0950D9A7
:106ECF00260A50DA220FC00BF010C00CF0D8900B2E
:106EDF00360C3601C00DF002C00EF00B500D260C13
:106EEF00500E22060E0D24E16E000E0E20E26EDE15
:106EFF00CFE6FFDDCFE5FF0F4A102A10BE91EF3727
:106F0F00F010500AE1040E0F5CD8A091EF37F09407
:106F1F00EF37F0FFFF60EF37F0FFFF01C0D9FF023F
:106F2F00C0DAFF03C0DEFF04C0DDFF20EE02F00178
:106F3F0050D9260250DA2205C0DEFF06C0DDFF2041
:106F4F00EE04F00150D9260250DA2207C0DEFF0806
:106F5F00C0DDFF1200FFFFFFFFBD0E316E370E3297
:106F6F006E860E336E350E346EEDC02DF0EEC02EE4
:106F7F00F0EFC02FF0F0C030F057EC10F02DC04AFA
:106F8F00F02EC04BF02FC04CF030C04DF06F0E46BE
:106F9F006E120E476E830E486E3A0E496EA9EC12B2
:106FAF00F046C0CAF047C0CBF048C0CCF049C0CDC6
:106FBF00F059EC3DF0CAC0DAF0CBC0DBF0DAC0DC40
:106FCF00F00001DCA1EEEF37F0F1EF37F0FFFFF546
:106FDF00EF37F0FFFFBD88F7EF37F0FFFFBD98FFEA
:106FEF00FFDCA3FDEF37F000EF38F0FFFF04EF38C1
:106FFF00F0FFFFBD8A06EF38F0FFFFBD9AFFFFDA03
:10700F00C0D8F0DBC0D9F0D890D933D833D890D9C5
:10701F0033D833D851BE6E1200FFFFFFFF000ECAE8
:10702F006E000ECC6ECA84CA80CA82000E636E00D8
:10703F000E646E800E656EBF0E666EBD0E316E37BE
:10704F000E326E860E336E360E346EEDC02DF0EEB0
:10705F00C02EF0EFC02FF0F0C030F057EC10F02D35
:10706F00C04AF02EC04BF02FC04CF030C04DF00A8C
:10707F000E466ED70E476EA30E486E3C0E496EA994
:10708F00EC12F046C05FF047C060F048C061F049B5
:10709F00C062F083EC0DF05FC0D4F060C0D5F0613A
:1070AF00C0D6F062C0D7F0000E316E000E326E8087
:1070BF000E336E400E346ED4C02DF0D5C02EF0D6E8
:1070CF00C02FF0D7C030F057EC10F02DC0CAF02E03
:1070DF00C0CBF02FC0CCF030C0CDF059EC3DF0005C
:1070EF0001CA51CB6E1200FFFFFFFF20EE04F0012B
:1070FF0050D9260250DA22DECF03F0DDCF04F001A3
:10710F00C0D9FF02C0DAFFDECF05F0DDCF06F003F6
:10711F005005260450062201C0D9FF02C0DAFF0530
:10712F00C0DEFF06C0DDFF20EE02F00150D92602BF
:10713F0050DA22DECF03F0DDCF04F0010E0326007C
:10714F000E042220EE02F00150D9260250DA22035B
:10715F00C0DEFF04C0DDFF01C0D9FF02C0DAFFDED1
:10716F002806E1DE28D8A4BFEF38F0C2EF38F0FFD1
:10717F00FFCDEF38F0FFFF01C0D9FF02C0DAFF03E8
:10718F000EDE6E000EDD6EE6EF38F0FFFF01C0D9A8
:10719F00FF02C0DAFF040EDE18DE10D8A4DAEF38D3
:1071AF00F0DDEF38F0FFFFE6EF38F0FFFF01C0D959
:1071BF00FF02C0DAFF000EDE6E000EDD6EFFFF1263
:1071CF0000FFFFFFFF000E1A6E050E196E3F0E0037
:1071DF0001D625136E000ED721146EE1EC34F01397
:1071EF00C017F014C018F0B0EC3AF017C01FF01829
:1071FF00C020F0000E20BEFF0E216E226E010E1277
:10720F00EC1CF01FC0D8F020C0D9F021C0DAF0225A
:10721F00C0DBF0D8C001F0D9C002F0DAC003F0DB58
:10722F00C004F0000E056E000E066E400E076E4194
:10723F000E086E31EC3CF0D8A028EF39F02BEF3967
:10724F00F0FFFF4EEF39F0FFFF000E016E000E0250
:10725F006E500E036E410E046ED8C005F0D9C006F5
:10726F00F0DAC007F0DBC008F031EC3CF0D8A043F7
:10727F00EF39F046EF39F0FFFF4EEF39F0FFFF0027
:10728F000E0001D76F010ED66F54EF39F0FFFF00DC
:10729F000E0001D76F000ED66FFFFF1200FFFFFF2A
:1072AF00FF03500410D8B45FEF39F062EF39F0FFED
:1072BF00FF6DEF39F0FFFF03500410D8A46AEF39C8
:1072CF00F06DEF39F0FFFF73EF39F0FFFF0150C0A2
:1072DF00EC32F0C5EF39F0FFFF20EE04F00350D988
:1072EF00260450DA22DE50DE10D8B481EF39F08454
:1072FF00EF39F0FFFFA1EF39F0FFFF20EE04F003AD
:10730F0050D9260450DA2210EE02F00350E1260481
:10731F0050E222DE50E65CE650800A096EDE5080B5
:10732F000A0958D8B09EEF39F0A1EF39F0FFFFC529
:10733F00EF39F0FFFF20EE02F00350D9260450DAA8
:10734F0022DECF05F0DDCF06F003C0D9FF04C0DA8F
:10735F00FFDECF07F0DDCF08F005500724D96E060A
:10736F00500820DA6E01C0DFFF20EE02F00350D983
:10737F00260450DA22DE2A000EDD22FFFF1200FF64
:10738F00FFFFFF00018AA1CFEF39F0D2EF39F0FFF5
:10739F00FFDDEF39F0FFFF13C00AF014C00BF0113F
:1073AF00C00CF012C00DF007EC35F0FFFF16BEE376
:1073BF00EF39F0E6EF39F0FFFFEDEF39F0FFFF1592
:1073CF00C01AF016C01BF0F2EF39F0FFFF000E1BD2
:1073DF006E000E1A6EFFFF000E196E000E186E066D
:1073EF00EF3AF0FFFF000E026E200E016E11C00388
:1073FF00F012C004F057EC39F0184A192AFFFF1A9F
:10740F0050185C1950800A176E1B50800A1758D8F5
:10741F00A014EF3AF017EF3AF0FFFFF9EF39F0FF52
:10742F00FF00018AB11EEF3AF021EF3AF0FFFF2C77
:10743F00EF3AF0FFFF13C00AF014C00BF011C00CAD
:10744F00F012C00DF007EC35F0FFFF13C001F01480
:10745F00C002F02FEC35F01A500124116E1B5002B0
:10746F0020126E1200FFFFFFFF09500A100B100CC5
:10747F00100D100E100F101010D8B449EF3AF04C39
:10748F00EF3AF0FFFF9DEF3AF0FFFF010E116E5C38
:10749F00EF3AF0FFFFD89009360A360B360C360D4F
:1074AF00360E360F361036112AFFFF10AE62EF3A46
:1074BF00F065EF3AF0FFFF51EF3AF0FFFFFFFF09E2
:1074CF0050015C0A5002580B5003580C5004580DD1
:1074DF005005580E5006580F50075810500858D8DE
:1074EF00A07CEF3AF07FEF3AF0FFFF90EF3AF0FF1A
:1074FF00FF0950015E0A50025A0B50035A0C5004F8
:10750F005A0D50055A0E50065A0F50075A10500870
:10751F005AFFFFD89010320F320E320D320C320B51
:10752F00320A320932112E66EF3AF0FFFF01C00125
:10753F00F002C002F003C003F004C004F005C00560
:10754F00F006C006F007C007F008C008F01200FFF1
:10755F00FFFFFF000E1C6E1ABEBBEF3AF0B8EF3AFA
:10756F00F0FFFFC2EF3AF0FFFF196C1A1ED8B01AE6
:10757F002A010E1C6EFFFF18BECBEF3AF0C8EF3A90
:10758F00F0FFFFD2EF3AF0FFFF176C181ED8B018BC
:10759F002A010E1C1AFFFF000E1E6E000E1D6E1923
:1075AF00501A10D8B4DEEF3AF0E1EF3AF0FFFF12C5
:1075BF00EF3BF0FFFF010E1B6EEBEF3AF0FFFFD832
:1075CF009019361A361B2AFFFF1AAEF1EF3AF0F474
:1075DF00EF3AF0FFFFE6EF3AF0FFFFFFFFD8901D05
:1075EF00361E361950175C1A501858D8A002EF3BA8
:1075FF00F005EF3BF0FFFF0BEF3BF0FFFF195017CC
:10760F005E1A50185A1D80FFFFD8901A3219321B7C
:10761F002EF5EF3AF0FFFF1C50D8B419EF3BF01CDA
:10762F00EF3BF0FFFF21EF3BF0FFFF1D6C1E1ED85D
:10763F00B01E2AFFFF1DC017F01EC018F01200FF6A
:10764F00FFFFFF01C008F002C009F003C00AF004F9
:10765F00C00BF00506D8A00606052806E10628D8B7
:10766F00A43CEF3BF03FEF3BF0FFFF4EEF3BF0FF53
:10767F00FF000E026E000E016EA9EF3BF0FFFF0838
:10768F004A092A0A4A0B2A0506D8A00606FFFF0850
:10769F00C0F6FF09C0F7FF0800FFFFF5500009D83B
:1076AF00B45CEF3BF05FEF3BF0FFFF94EF3BF0FF7D
:1076BF00FF0AC0F6FF0BC0F7FF0800FFFFF55000F1
:1076CF0009D8B46DEF3BF070EF3BF0FFFF94EF3B49
:1076DF00F0FFFF05500610D8B478EF3BF07BEF3B7F
:1076EF00F0FFFF94EF3BF0FFFF08C0F6FF09C0F774
:1076FF00FF0800FFFFF5CF07F00AC0F6FF0BC0F73A
:10770F00FF0800FFFFF5500718D8B491EF3BF09436
:10771F00EF3BF0FFFF46EF3BF0FFFF08C0F6FF091E
:10772F00C0F7FF0800FFFFF5CF07F00AC0F6FF0B09
:10773F00C0F7FF0800FFFFF550075C016E026AD823
:10774F00A00206FFFF1200FFFFFFFF20EE11F00760
:10775F000EDE6AE806FDE209500A100B100C100D40
:10776F00100E100F101010D8B4C0EF3BF0C3EF3B4A
:10777F00F0FFFF1EEF3CF0FFFF010E196ED3EF3B42
:10778F00F0FFFFD89009360A360B360C360D360E41
:10779F00360F361036192AFFFF10AED9EF3BF0DC4B
:1077AF00EF3BF0FFFFC8EF3BF0FFFFFFFFD890115B
:1077BF00361236133614361536163617361836096E
:1077CF0050015C0A5002580B5003580C5004580DCE
:1077DF005005580E5006580F50075810500858D8DB
:1077EF00A0FCEF3BF0FFEF3BF0FFFF11EF3CF0FF92
:1077FF00FF0950015E0A50025A0B50035A0C5004F5
:10780F005A0D50055A0E50065A0F50075A1050086D
:10781F005A1180FFFFD89010320F320E320D320CFA
:10782F00320B320A320932192EDDEF3BF0FFFF1116
:10783F00C001F012C002F013C003F014C004F01521
:10784F00C005F016C006F017C007F018C008F012F8
:10785F0000FFFFFFFF000E0114096E000E02140A55
:10786F006E800E03140B6E7F0E04140C6E09500AFB
:10787F00100B100C10D8A447EF3CF04AEF3CF0FF70
:10788F00FF53EF3CF0FFFF000E016E000E026E0083
:10789F000E036E000E046EFFFF000E0514096E003E
:1078AF000E06140A6E800E07140B6E7F0E08140C52
:1078BF006E09500A100B100C10D8A469EF3CF06C35
:1078CF00EF3CF0FFFF75EF3CF0FFFF000E056E0081
:1078DF000E066E000E076E000E086EFFFF04AE7BE5
:1078EF00EF3CF07EEF3CF0FFFF88EF3CF0FFFF0135
:1078FF006C021ED8B0022A031ED8B0032A800E04D1
:10790F0056FFFF08AE8EEF3CF091EF3CF0FFFF9B70
:10791F00EF3CF0FFFF056C061ED8B0062A071ED8F5
:10792F00B0072A800E0856FFFF000E011A000E0244
:10793F001A000E031A800E041A000E051A000E0606
:10794F001A000E071A800E081A0550015C06500225
:10795F00580750035808500458D8B0B9EF3CF0BC42
:10796F00EF3CF0FFFFC0EF3CF0FFFFD890C2EF3CC1
:10797F00F0FFFFD880FFFF1200FFFFFFFF056E052E
:10798F005061EC33F0810E0518D8A4D1EF3CF0D440
:10799F00EF3CF0FFFFDFEF3CF0FFFF03C0D9FF0428
:1079AF00C0DAFF010EDE6E000EDD6E56EF3DF0FF0A
:1079BF00FF820E0518D8A4E7EF3CF0EAEF3CF0FF8A
:1079CF00FFF5EF3CF0FFFF03C0D9FF04C0DAFF0360
:1079DF000EDE6E000EDD6E56EF3DF0FFFF840E05DE
:1079EF0018D8A4FDEF3CF000EF3DF0FFFF0BEF3D8B
:1079FF00F0FFFF03C0D9FF04C0DAFF040EDE6E00F4
:107A0F000EDD6E56EF3DF0FFFF880E0518D8A4135C
:107A1F00EF3DF016EF3DF0FFFF21EF3DF0FFFF03CD
:107A2F00C0D9FF04C0DAFF070EDE6E000EDD6E5602
:107A3F00EF3DF0FFFF900E0518D8A429EF3DF02C75
:107A4F00EF3DF0FFFF37EF3DF0FFFF03C0D9FF041D
:107A5F00C0DAFF020EDE6E000EDD6E56EF3DF0FF58
:107A6F00FFA00E0518D8A43FEF3DF042EF3DF0FF09
:107A7F00FF4DEF3DF0FFFF03C0D9FF04C0DAFF0851
:107A8F000EDE6E000EDD6E56EF3DF0FFFF03C0D928
:107A9F00FF04C0DAFF000EDE6E000EDD6EFFFF1278
:107AAF0000FFFFFFFF0001CC35CD35D36FD351D889
:107ABF00A464EF3DF067EF3DF0FFFF73EF3DF0FF84
:107ACF00FFFFFF000ECA6F000ECB6F000ECC6F00D2
:107ADF000ECD6FF2EF3DF0FFFFCAC0CEF0CBC0CF9F
:107AEF00F0CCC0D0F0CDC0D1F0200E85EF3DF0FF2F
:107AFF00FFD890D133D033CF33CE33FFFFE82E7F73
:107B0F00EF3DF0CE51D26FCC8FFF0ECA17FF0ECBC9
:107B1F0017FF0ECC17000ECD17960ED35FD3BF9E57
:107B2F00EF3DF09BEF3DF0FFFFB8EF3DF0FFFFD3D0
:107B3F0051800A970FD8B0A7EF3DF0AAEF3DF0FFA5
:107B4F00FFADEF3DF0FFFF68EF3DF0FFFFD890CDA9
:107B5F0033CC33CB33CA33D33FADEF3DF0D6EF3D0C
:107B6F00F0FFFF1F0ED365BFEF3DF0C2EF3DF0FFFB
:107B7F00FFCCEF3DF0FFFF68EF3DF0FFFFD890CA5D
:107B8F0037CB37CC37CD37D307FFFFD351D8A4D35B
:107B9F00EF3DF0D6EF3DF0FFFFC5EF3DF0FFFFD219
:107BAF0051D8B4DDEF3DF0E0EF3DF0FFFFE9EF3DE1
:107BBF00F0FFFFCD1FCC1FCB1FCA6D000ECB23CC08
:107BCF0023CD23FFFFCAC0CAF0CBC0CBF0CCC0CCB3
:107BDF00F0CDC0CDF0FFFF1200FFFFFFFF800E734F
:107BEF005CD8A0FDEF3DF000EF3EF0FFFF0AEF3E47
:107BFF00F0FFFF000E00018D6F4B0E8C6F706871E0
:107C0F00688FEF3EF0FFFF70C0BCF071C0BDF07326
:107C1F00500AE1020E725CD8A018EF3EF01BEF3E47
:107C2F00F0FFFF29EF3EF0FFFFFF0E72240001C0AF
:107C3F006FFF0E7320C16F000EBF6F000EBE6F334C
:107C4F00EF3EF0FFFF000E0001C16F010EC06F008D
:107C5F000EBF6F010EBE6FFFFFBC0E686E000E6988
:107C6F006E74C06AF075C06BF076C06CF077C06D43
:107C7F00F02BEC36F068C0BAF069C0BBF0725073ED
:107C8F0010D8B44DEF3EF050EF3EF0FFFF8AEF3EBD
:107C9F00F0FFFF0001BBBF57EF3EF05AEF3EF0FF82
:107CAF00FF8AEF3EF0FFFFFF0E786EFF0E796E72C8
:107CBF00C07AF073C07BF078507A2679507B227AA5
:107CCF0050BA5D7B50BB59D8A070EF3EF073EF3EBA
:107CDF00F0FFFF7CEF3EF0FFFFFF0E7224B86FFF47
:107CEF000E7320B96F81EF3EF0FFFFBAC0B8F0BB43
:107CFF00C0B9F0FFFFB8517024D96EB9517120DAB5
:107D0F006E000EDF6EFFFFBAC070F0BBC071F0FFE8
:107D1F00FF1200FFFFFFFF000E126E08BE9DEF3E29
:107D2F00F09AEF3EF0FFFFB0EF3EF0FFFF081E07A7
:107D3F001E061E051E041E031E021E016C000E02EF
:107D4F0022032204220522062207220822010E12F4
:107D5F006EFFFF10BEB9EF3EF0B6EF3EF0FFFFCA69
:107D6F00EF3EF0FFFF101E0F1E0E1E0D1E0C1E0B02
:107D7F001E0A1E096C000E0A220B220C220D220E67
:107D8F00220F221022FFFF09500A100B100C100DAA
:107D9F00100E100F101010D8B4D8EF3EF0DBEF3EDE
:107DAF00F0FFFF2CEF3FF0FFFF010E116EEBEF3EE8
:107DBF00F0FFFFD89009360A360B360C360D360E0B
:107DCF00360F361036112AFFFF10AEF1EF3EF0F4EA
:107DDF00EF3EF0FFFFE0EF3EF0FFFFFFFF09500126
:107DEF005C0A5002580B5003580C5004580D5005A4
:107DFF00580E5006580F50075810500858D8A00B5F
:107E0F00EF3FF00EEF3FF0FFFF1FEF3FF0FFFF09D7
:107E1F0050015E0A50025A0B50035A0C50045A0D6F
:107E2F0050055A0E50065A0F50075A1050085AFF55
:107E3F00FFD89010320F320E320D320C320B320A45
:107E4F00320932112EF5EF3EF0FFFF1250D8B43346
:107E5F00EF3FF036EF3FF0FFFF47EF3FF0FFFF0838
:107E6F001E071E061E051E041E031E021E016C00A9
:107E7F000E0222032204220522062207220822FFD5
:107E8F00FF01C001F002C002F003C003F004C00400
:107E9F00F005C005F006C006F007C007F008C008DF
:107EAF00F01200FFFF000000004B00001646BD3728
:107EBF008635002474490024744A494E49545F5052
:107ECF004F533A20746865207669616C206973207E
:107EDF0061742074686520696E697420706F7369AE
:107EEF0074696F6E2C2070726F6365737320697382
:107EFF00207374617274696E67005049434B5F550C
:107F0F00503A20746865207669616C20686173202F
:107F1F007265616368656420746865207069636B5E
:107F2F002075702073746174696F6E0049444C45FD
:107F3F003A2077616974696E6720666F72202076C8
:107F4F0069616C20746F20626520706C6163656479
:107F5F0020696E20696E697420706F73004F5645EB
:107F6F004E3A207265616368696E67207468652098
:107F7F00636F72726563742074656D70657261747E
:107F8F007572650044657669636520686173206268
:107F9F0065656E2072657365740047524153504991
:107FAF004E470044494C5554494E47004D4F564596
:107FBF004D454E54004D4958494E4700686858008A
:107FCF00686864006868690068686E0068686F00B8
:107FDF0068687500686878007A58007A64007A6972
:107FEF00007A6E007A6F007A75007A780025730038
:017FFF000081
:020000040020DA
:08000000FFFFFFFFFFFFFFFF00
:020000040030CA
:0E000000FF270F0EFF0185FF0FC00FE00F401E
:00000001FF
