:020000040000FA
:0600000000F01FEF00F00C
:10000800FFFF4B829DAA0BEF00F00EEF00F0FFFF01
:100018001BEF00F0FFFF9EAA14EF00F017EF00F0AF
:10002800FFFF1BEF00F0FFFF9E9A010E466EFFFFD9
:0A0038004B921100FFFFAFEF0CF038
:10060000000000004B000016460024744A48656C48
:100610006C6F207468652072656365697665643AFD
:03062000200000B7
:10062400FFFF0450800B0D6E045004240F6E03AEC4
:100634001EEF03F021EF03F0FFFF23EF03F0FFFFB2
:100644000F80FFFF0F50D8B42AEF03F02DEF03F013
:10065400FFFF46EF03F0FFFF0F28D8A434EF03F0A9
:1006640037EF03F0FFFF40EF03F0FFFF000E016ED2
:10067400000E026E000E036E000E046EFFFF038E6A
:10068400000E046E4FEF03F0FFFF000E016E000E2C
:10069400026E000E036E000E046EFFFF0850800B06
:1006A4000E6E0D500E18D8B45AEF03F05DEF03F040
:1006B400FFFF5FEF03F0FFFF0D8CFFFF08500824DE
:1006C4000E6E07AE68EF03F06BEF03F0FFFF6DEF04
:1006D40003F0FFFF0E80FFFF0E50D8B474EF03F059
:1006E40077EF03F0FFFF90EF03F0FFFF0E28D8A48D
:1006F4007EEF03F081EF03F0FFFF8AEF03F0FFFFCB
:10070400000E056E000E066E000E076E000E086EDB
:10071400FFFF078E000E086E99EF03F0FFFF000E37
:10072400056E000E066E000E076E000E086EFFFFCB
:100734000F500E5CD8B0A1EF03F0A4EF03F0FFFF5D
:10074400CFEF03F0FFFF0DACAAEF03F0ADEF03F022
:10075400FFFFB0EF03F0FFFF800E0D1AFFFF0FC085
:1007640010F00EC00FF010C00EF001C010F005C064
:1007740001F010C005F002C010F006C002F010C075
:1007840006F003C010F007C003F010C007F004C067
:1007940010F008C004F010C008F0FFFF000E106E47
:1007A4000F500EC009F00A6A095E000E0A5A0ABE0A
:1007B400E5EF03F00A500AE11A0E095CD8A0E5EF50
:1007C40003F0E8EF03F0FFFF2BEF04F0FFFF01500D
:1007D400021003100410D8A4F2EF03F0F6EF03F0B4
:1007E400FFFF010EF8EF03F0FFFF000EFFFF106E96
:1007F400000E016E000E026E000E036E000E046EFB
:100804000EC00FF036EF04F0FFFF10A00CEF04F061
:100814000FEF04F0FFFF16EF04F0FFFFD890103045
:100824000109106E19EF04F0FFFFD8901032FFFF9A
:1008340001A01FEF04F022EF04F0FFFF24EF04F007
:10084400FFFF108EFFFF0434043203320232013200
:100854000F2AFFFF0E500F5CD8A033EF04F036EFE1
:1008640004F0FFFF06EF04F0FFFF0DBC3CEF04F0C3
:100874003FEF04F0FFFF8CEF04F0FFFF0F50D8A40C
:1008840046EF04F049EF04F0FFFF54EF04F0FFFFDC
:10089400000E016E000E026E000E036E000E046E5A
:1008A400E3EF05F0FFFF0550012606500222075032
:1008B40003220850042204A062EF04F065EF04F060
:1008C400FFFF30EF05F0FFFF10A06BEF04F06EEFB9
:1008D40004F0FFFF75EF04F0FFFFD890103001091A
:1008E400106E78EF04F0FFFFD8901032FFFF01A0E4
:1008F4007EEF04F081EF04F0FFFF83EF04F0FFFFCD
:10090400108EFFFF043404320332023201320F2A04
:1009140030EF05F0FFFF0550015C06500258075008
:1009240003580450800A096E0850800A0958D8B048
:100934009EEF04F0A1EF04F0FFFFCFEF04F0FFFF00
:100944000150055C096E025006580A6E03500758A0
:100954000B6E045008580C6EFF0E0924016EFF0E36
:100964000A20026EFF0E0B20036EFF0E0C20046E95
:10097400800E0D1A106C1050D8A4C3EF04F0C6EF0B
:1009840004F0FFFFD8EF04F0FFFF010E0126000E74
:10099400022203220422D8EF04F0FFFF0550015E77
:1009A4000650025A0750035A0850045AFFFF0150D8
:1009B400021003100410D8A4E2EF04F0E5EF04F0F1
:1009C400FFFF27EF05F0FFFF1050D8A4ECEF04F071
:1009D400EFEF04F0FFFF27EF05F0FFFF000E016EBD
:1009E400000E026E000E036E000E046EE3EF05F0BF
:1009F400FFFFD890013602360336043610AE05EFF9
:100A040005F008EF05F0FFFF0AEF05F0FFFF018096
:100A1400FFFF10A010EF05F013EF05F0FFFF18EF34
:100A240005F0FFFFD88010361BEF05F0FFFFD890CC
:100A34001036FFFF0F50D8B422EF05F025EF05F074
:100A4400FFFF27EF05F0FFFF0F06FFFF03AE2DEFBB
:100A540005F030EF05F0FFFFFAEF04F0FFFF000EA2
:100A64000E6E10AE38EF05F03BEF05F0FFFF5AEFC6
:100A740005F0FFFF10C009F07F0E0916D8B445EF4A
:100A840005F048EF05F0FFFF4EEF05F0FFFFFFFF15
:100A9400010E0E6E5AEF05F0FFFF01A054EF05F0B2
:100AA40057EF05F0FFFF5AEF05F0FFFF49EF05F0A0
:100AB400FFFF0E50D8B461EF05F064EF05F0FFFFBF
:100AC40094EF05F0FFFF010E0126000E022203221F
:100AD400042204A070EF05F073EF05F0FFFF94EF1C
:100AE40005F0FFFF01C009F002C00AF003C00BF0DB
:100AF40004C00CF00C340C320B320A32093209C037
:100B040001F00AC002F00BC003F00CC004F00F287F
:100B1400D8B48FEF05F092EF05F0FFFF94EF05F0E6
:100B2400FFFF0F2AFFFF0F28D8B49BEF05F09EEFBD
:100B340005F0FFFFA8EF05F0FFFF0F50D8A4A5EFC5
:100B440005F0A8EF05F0FFFFBDEF05F0FFFF000E75
:100B5400016E000E026E000E036E000E046E0F5046
:100B6400D8A4B7EF05F0BAEF05F0FFFFBDEF05F02D
:100B7400FFFF000E0D6EFFFF0FA0C3EF05F0C6EFE1
:100B840005F0FFFFCAEF05F0FFFF038ECCEF05F081
:100B9400FFFF039EFFFFD8900F30046E0DAED5EF1C
:100BA40005F0D8EF05F0FFFFDAEF05F0FFFF048E44
:100BB400FFFF01C001F002C002F003C003F004C053
:100BC40004F0FFFF1200FFFFFFFF0450800B0D6EC7
:100BD40004500424136E03AEF2EF05F0F5EF05F0B4
:100BE400FFFFF7EF05F0FFFF1380FFFF1350D8B4AA
:100BF400FEEF05F001EF06F0FFFF18EF06F0FFFF30
:100C04001328D8A408EF06F00BEF06F0FFFF14EF4B
:100C140006F0FFFF000E016E000E026E000E036E62
:100C2400000E046EFFFF038E21EF06F0FFFF000E9F
:100C3400016E000E026E000E036E000E046EFFFFC6
:100C44000850800B0D1A08500824126E07AE2DEFC1
:100C540006F030EF06F0FFFF32EF06F0FFFF1280E0
:100C6400FFFF1250D8B439EF06F03CEF06F0FFFF57
:100C740053EF06F0FFFF1228D8A443EF06F046EF27
:100C840006F0FFFF4FEF06F0FFFF000E056E000EAB
:100C9400066E000E076E000E086EFFFF078E5CEFF7
:100CA40006F0FFFF000E056E000E066E000E076EC6
:100CB400000E086EFFFF1250D8B463EF06F066EF23
:100CC40006F0FFFF70EF06F0FFFF1350D8A46DEF9E
:100CD40006F070EF06F0FFFF7BEF06F0FFFF000E5B
:100CE400016E000E026E000E036E000E046E35EFF0
:100CF40008F0FFFF07500102F3CF18F0F4CF19F00A
:100D040018500E6E0F6A106A116A1950146E156A23
:100D1400166A176A06500202F3CF18F0F4CF19F0DE
:100D240018500E26000E0F221022112219501426DC
:100D3400000E15221622172205500302F3CF18F0D5
:100D4400F4CF19F018500E26000E0F221022112293
:100D540019501426000E15221622172210C011F065
:100D64000FC010F00EC00FF00E6A05500202F3CF50
:100D740018F0F4CF19F018500E2619500F22000E57
:100D84001022000E112206500102F3CF18F0F4CF06
:100D940019F018500E2619500F22000E1022000EC2
:100DA400112210C011F00FC010F00EC00FF00E6A27
:100DB40005500102F3CF18F0F4CF19F018500E26A5
:100DC40019500F22000E1022000E112207500202A9
:100DD400F3CF18F0F4CF19F0185014261950152237
:100DE400000E1622000E172206500302F3CF18F04D
:100DF400F4CF19F01850142619501522000E16229B
:100E0400000E172207500302F3CF18F0F4CF19F0A5
:100E14001850096E19500A6E0B6A0C6A0BC00CF05C
:100E24000AC00BF009C00AF0096A095014260A50D6
:100E340015220B5016220C5017220EC009F00FC0B9
:100E44000AF010C00BF011C00CF0190E30EF07F0CF
:100E5400FFFFD8900C320B320A320932FFFFE82E22
:100E64002AEF07F0095014260A5015220B501622B7
:100E74000C50172210C011F00FC010F00EC00FF06C
:100E84000E6A125013C009F00A6A0926000E0A22DB
:100E9400820E0924186EFF0E0A20196E6BEF07F0FC
:100EA400FFFFD890143615361636173611AE5DEF9F
:100EB40007F060EF07F0FFFF62EF07F0FFFF148019
:100EC400FFFFD8900E360F36103611361806D8A00C
:100ED4001906FFFF16AE71EF07F074EF07F0FFFF7E
:100EE40052EF07F0FFFF000E126E11AE7CEF07F019
:100EF4007FEF07F0FFFFAAEF07F0FFFFFF0E0E14CE
:100F0400096EFF0E0F140A6EFF0E10140B6E7F0E87
:100F140011140C6E09500A100B100C10D8B495EF74
:100F240007F098EF07F0FFFF9EEF07F0FFFFFFFFCA
:100F3400010E126EAAEF07F0FFFF14A0A4EF07F052
:100F4400A7EF07F0FFFFAAEF07F0FFFF99EF07F005
:100F5400FFFF1250D8B4B1EF07F0B4EF07F0FFFF72
:100F6400DBEF07F0FFFF010E1426000E15221622F8
:100F7400172217A0C0EF07F0C3EF07F0FFFFDBEF66
:100F840007F0FFFF14C009F015C00AF016C00BF0FB
:100F940017C00CF00C340C320B320A32093209C07F
:100FA40014F00AC015F00BC016F00CC017F0184A64
:100FB400192AFFFF19BEE7EF07F0195009E11828B5
:100FC400D8A0E7EF07F0EAEF07F0FFFFF5EF07F02F
:100FD400FFFF000E146E000E156E800E166E7F0E4F
:100FE400176E2AEF08F0FFFF19BE04EF08F019503E
:100FF40006E11804D8B001EF08F004EF08F0FFFF91
:1010040011EF08F0FFFF000E146E000E156E000EB7
:10101400166E000E176E000E0D6E2AEF08F0FFFF1D
:1010240018C013F0FF0E1416FF0E15167F0E1616B9
:10103400000E171613A021EF08F024EF08F0FFFFAD
:1010440026EF08F0FFFF168EFFFFD8901330176EBF
:10105400FFFF0D50171214C001F015C002F016C0A6
:1010640003F017C004F0FFFF1200FFFFFFFF42C0B0
:101074002CF043C02DF044C02EF045C02FF01AC010
:101084002CF01BC02DF01CC02EF01DC02FF02CC066
:101094001EF02DC01FF02EC020F02FC021F0180E1E
:1010A4005AEF08F0FFFFD890213220321F321E324F
:1010B400FFFFE82E54EF08F01E50266E276A27BE65
:1010C4006DEF08F027500AE1960E265CD8A06DEF6C
:1010D40008F070EF08F0FFFF7BEF08F0FFFF1AC085
:1010E4001AF01BC01BF01CC01CF01DC01DF028EF23
:1010F4000AF0FFFF2CC01EF02DC01FF02EC020F000
:101104002FC021F0200E8DEF08F0FFFFD890213280
:1011140020321F321E32FFFFE82E87EF08F01E50E8
:101124001F1020102110D8B49AEF08F09DEF08F09A
:10113400FFFFB0EF08F0FFFF1AC001F01BC002F080
:101144001CC003F01DC004F06EEC0CF001C01AF0DA
:1011540002C01BF003C01CF004C01DF0FFFF27BE3B
:10116400C0EF08F0275007E17E0E265CD8B0BDEF33
:1011740008F0C0EF08F0FFFFDDEF08F0FFFF2CC020
:1011840001F02DC002F02EC003F02FC004F0000EB9
:10119400056E000E066E000E076E000E086EE6EC7D
:1011A40005F001C01AF002C01BF003C01CF004C01B
:1011B4001DF028EF0AF0FFFF000E056E000E066E0C
:1011C400000E076E4B0E086E1AC001F01BC002F031
:1011D4001CC003F01DC004F012EC03F001C028F0A1
:1011E40002C029F003C02AF004C02BF0000E056EE3
:1011F400000E066E000E076ECB0E086E28C001F0BE
:1012040029C002F02AC003F02BC004F012EC03F052
:1012140001C022F002C023F003C024F004C025F072
:1012240022C011F023C012F024C013F025C014F022
:101234001AC015F01BC016F01CC017F01DC018F022
:1012440049EC0CF011C030F012C031F013C032F090
:1012540014C033F0000E016E000E026E000E036E19
:101264003F0E046E30C005F031C006F032C007F006
:1012740033C008F0C6EC0AF0D8B043EF09F046EFEB
:1012840009F0FFFF7DEF09F0FFFF1AC005F01BC056
:1012940006F01CC007F01DC008F030C001F031C0DA
:1012A40002F032C003F033C004F012EC03F001C0CA
:1012B40028F002C029F003C02AF004C02BF028C093
:1012C40001F029C002F02AC003F02BC004F0000E84
:1012D400056E000E066E800E076EBF0E086E12ECD1
:1012E40003F001C030F002C031F003C032F004C09A
:1012F40033F0EAEF09F0FFFF000E016E000E026EFC
:10130400000E036EBF0E046E30C005F031C006F04F
:1013140032C007F033C008F0C6EC0AF0D8A095EF4D
:1013240009F098EF09F0FFFFCFEF09F0FFFF1AC0B3
:1013340005F01BC006F01CC007F01DC008F030C04B
:1013440001F031C002F032C003F033C004F012ECFB
:1013540003F001C028F002C029F003C02AF004C041
:101364002BF028C001F029C002F02AC003F02BC0E2
:1013740004F0000E056E000E066E800E076E3F0E22
:10138400086E12EC03F001C030F002C031F003C06B
:1013940032F004C033F0EAEF09F0FFFF30C001F08F
:1013A40031C002F032C003F033C004F01AC005F0BB
:1013B4001BC006F01CC007F01DC008F012EC03F0BF
:1013C40001C030F002C031F003C032F004C033F089
:1013D400FFFF2CC01EF02DC01FF02EC020F02FC028
:1013E40021F0200EFCEF09F0FFFFD89021322032CB
:1013F4001F321E32FFFFE82EF6EF09F01E501F10B9
:1014040020102110D8B409EF0AF00CEF0AF0FFFF06
:101414001FEF0AF0FFFF30C001F031C002F032C00C
:1014240003F033C004F06EEC0CF001C030F002C0E5
:1014340031F003C032F004C033F0FFFF30C01AF0C3
:1014440031C01BF032C01CF033C01DF0FFFF12008E
:10145400FFFFFFFF363437343D6E3D50D8A435EFDF
:101464000AF038EF0AF0FFFF44EF0AF0FFFFFFFF36
:10147400000E346E000E356E000E366E000E376EA2
:10148400C3EF0AF0FFFF34C038F035C039F036C07E
:101494003AF037C03BF0200E56EF0AF0FFFFD89029
:1014A4003B323A3239323832FFFFE82E50EF0AF03D
:1014B40038503C6E368EFF0E3416FF0E3516FF0E76
:1014C4003616000E3716960E3D5E3DBE6FEF0AF0DF
:1014D4006CEF0AF0FFFF89EF0AF0FFFF3D50800A2E
:1014E400970FD8B078EF0AF07BEF0AF0FFFF7EEF9A
:1014F4000AF0FFFF39EF0AF0FFFFD8903732363297
:10150400353234323D3E7EEF0AF0A7EF0AF0FFFF9A
:101514001F0E3D6490EF0AF093EF0AF0FFFF9DEF7A
:101524000AF0FFFF39EF0AF0FFFFD8903436353662
:10153400363637363D06FFFF3D50D8A4A4EF0AF0F7
:10154400A7EF0AF0FFFF96EF0AF0FFFF3C50D8B474
:10155400AEEF0AF0B1EF0AF0FFFFBAEF0AF0FFFFB7
:10156400371E361E351E346C000E352236223722C5
:10157400FFFF34C034F035C035F036C036F037C024
:1015840037F0FFFF1200FFFFFFFF000E0114096E8A
:10159400000E02140A6E800E03140B6E7F0E0414E8
:1015A4000C6E09500A100B100C10D8A4DCEF0AF0D2
:1015B400DFEF0AF0FFFFE8EF0AF0FFFF000E016E15
:1015C400000E026E000E036E000E046EFFFF000E8E
:1015D4000514096E000E06140A6E800E07140B6EB5
:1015E4007F0E08140C6E09500A100B100C10D8A4AE
:1015F400FEEF0AF001EF0BF0FFFF0AEF0BF0FFFF25
:10160400000E056E000E066E000E076E000E086ECC
:10161400FFFF04AE10EF0BF013EF0BF0FFFF1DEF15
:101624000BF0FFFF016C021ED8B0022A031ED8B0D3
:10163400032A800E0456FFFF08AE23EF0BF026EFBB
:101644000BF0FFFF30EF0BF0FFFF056C061ED8B068
:10165400062A071ED8B0072A800E0856FFFF000E80
:10166400011A000E021A000E031A800E041A000E4C
:10167400051A000E061A000E071A800E081A0550E5
:10168400015C065002580750035808500458D8B05B
:101694004EEF0BF051EF0BF0FFFF55EF0BF0FFFF98
:1016A400D89057EF0BF0FFFFD880FFFF1200FFFF29
:1016B400FFFF17EC0DF08FEC0CF02CEC0DF0A7EC09
:1016C4000BF00C0EEAEC0CF0F28EFFFF4650D8B48F
:1016D4006EEF0BF071EF0BF0FFFF67EF0BF0FFFF06
:1016E400AECF41F00D0E41243F6E406A060E4022FB
:1016F4003FC002F040C003F0E6EC0BF0415007ECB1
:101704000DF08AA088EF0BF08DEF0BF0FFFF3E6A1F
:101714003E2A8FEF0BF0FFFF3E6AFFFF8A503E1810
:10172400FE0B3E188A6E000E466E010EEAEC0CF0BB
:10173400800EEAEC0CF03FC004F040C005F019EC58
:101744000CF067EF0BF01FEF00F0FFFF836A000E51
:10175400956E846A000E966E849284941E0E046EB6
:101764003C0EFFFFE82EFDD7042EFBD700D0848269
:10177400380EEAEC0CF01E0E046E3C0EFFFFE82E51
:10178400FDD7042EFBD700D0380EEAEC0CF01E0E69
:10179400046E3C0EFFFFE82EFDD7042EFBD700D0CD
:1017A400380EEAEC0CF0080EEAEC0CF00F0EEAEC42
:1017B4000CF0010EEAEC0CF0380EEAEC0CF0800EA2
:1017C400EAEC0CF01200FFFFFFFF000E076E000EA4
:1017D400066EFFEF0BF0FFFF06500224046E075065
:1017E4000320056E04C0F6FF05C0F7FF0800FFFFE5
:1017F400F55007EC0DF0064A072AFFFF06500224B5
:10180400046E07500320056E04C0F6FF05C0F7FF01
:101814000800FFFFF5500009D8A413EF0CF016EFF1
:101824000CF0FFFFEDEF0BF0FFFF1200FFFFFFFFD7
:10183400000E086E2FEF0CF0FFFF08500424066E14
:10184400000E0520076E06C0F6FF07C0F7FF08006C
:10185400FFFFF550CDEC0CF0082AFFFF08500424DC
:10186400066E000E0520076E06C0F6FF07C0F7FFE0
:101874000800FFFFF5500009D8A443EF0CF046EF31
:101884000CF0FFFF1EEF0CF0FFFF1200FFFFFFFF45
:10189400000E151A000E161A000E171A800E181ACA
:1018A40011C001F012C002F013C003F014C004F020
:1018B40015C005F016C006F017C007F018C008F0F0
:1018C40012EC03F001C011F002C012F003C013F0D7
:1018D40004C014F01200FFFFFFFF015002100310B8
:1018E4000410D8B478EF0CF07BEF0CF0FFFF84EF1A
:1018F4000CF0FFFF000E011A000E021A000E031A6C
:10190400800E041AFFFF01C001F002C002F003C000
:1019140003F004C004F01200FFFFFFFF550E1A6E1F
:10192400550E1B6EC80E1C6E410E1D6E38EC08F071
:101934001AC034F01BC035F01CC036F01DC037F09F
:101944002BEC0AF03450AF6EAC9CAC8AAC98AC84EF
:10195400AB8EAB9CAB881200FFFF640EF66E1A0EC2
:10196400F76E000EF86E00EE47F010EE04F009007A
:10197400F5CFEEFFE550E150FAE1466A456A446A64
:10198400436A426A4B904B92000EF86E060EF76E55
:1019940000015AEF0BF0FFFF036E8482035026EC24
:1019A4000DF084841E0E026E3C0EFFFFE82EFDD760
:1019B400022EFBD700D084921E0E026E3C0EFFFF57
:1019C400E82EFDD7022EFBD700D084821200FFFF41
:1019D400FFFF036E8482035026EC0DF084941E0EE8
:1019E400026E3C0EFFFFE82EFDD7022EFBD700D07F
:1019F40084921E0E026E3C0EFFFFE82EFDD7022ECF
:101A0400FBD700D084821200FFFFFFFF016E01C0EC
:101A1400ADFFFFFFACA211EF0DF014EF0DF0FFFFCF
:101A24000BEF0DF0FFFF1200FFFFFFFF000E8A6EA9
:101A3400000E816EF00E936E000E8B6E000E826EA1
:101A4400948E949C1200FFFFFFFF016E01C083FF80
:101A54001200FFFFFFFF9E9A9D8AF28C1200FFFF87
:061A6400BD378634FFFFD0
:020000040020DA
:08000000FFFFFFFFFFFFFFFF00
:020000040030CA
:0E000000FF270F0EFF0185FF0FC00FE00F401E
:00000001FF
