:020000040000FA
:0600000000F046EF00F0E5
:10000800FFFF7E829DAA0BEF00F00EEF00F0FFFFCE
:1000180029EF00F0FFFF9EAA14EF00F017EF00F0A1
:10002800FFFF29EF00F0FFFF9E9A0E0E7C187D104F
:10003800D8B421EF00F024EF00F0FFFF29EF00F023
:10004800FFFF010E7B6E010E7A6EFFFFF2AA2FEF03
:1000580000F032EF00F0FFFF42EF00F0FFFFF2A4E4
:1000680038EF00F03BEF00F0FFFF42EF00F0FFFF3A
:10007800000ED56EF294010E796ED59EFFFF7E922A
:100088001100FFFF1FEF13F0FFFF9EEC13F063EC6E
:1000980013F05AEC14F0AE0E016E000E026E000E54
:1000A800046E000E036E000E066E000E056E000E46
:1000B800086E010E076EC40E096E000E0A6E8A0ED7
:1000C8000B6E0F0E0C6EF9EC10F0A20E016E000E06
:1000D800026E000E046E000E036E000E066E000E19
:1000E800056E000E086E010E076EC00E096E000E3A
:1000F8000A6E8A0E0B6E0F0E0C6EF9EC10F0960E4F
:10010800016E000E026E000E046E000E036E000EED
:10011800066E000E056E000E086E010E076EC40E08
:10012800096E000E0A6E8B0E0B6E0F0E0C6EF9EC3C
:1001380010F092EC11F00C0EDEEC13F0010EDEEC78
:1001480013F0800EDEEC13F0E90E076E7F0E086EDA
:100158007BEC12F0F28E000E786E000E776EFFFFC9
:100168007B50D8B4BAEF00F0BDEF00F0FFFFF5EF19
:1001780000F0FFFF7A50D8B4C4EF00F0C7EF00F0EA
:10018800FFFFE3EF00F0FFFF45EC14F06A6E7C0E12
:10019800036E000E046E6A5065EC0DF0000E7A6E68
:1001A8000E0E7C187D10D8A4DCEF00F0DFEF00F015
:1001B800FFFFECEF00F0FFFF8B88ECEF00F0FFFF94
:1001C8007C0E016E000E026E4DEC11F017EC14F06F
:1001D800FFFF7CC00CF07DC00DF09BEC10F0000E12
:1001E8007B6EFFFF020E7C187D10D8A4FEEF00F096
:1001F80001EF01F0FFFF05EF01F0FFFF8982B3EF88
:1002080000F0FFFF89927C507D10D8A40EEF01F01A
:1002180011EF01F0FFFF57EF01F0FFFF27EC14F09B
:1002280045EC12F03EC06BF03FC06CF0000E6CBEA7
:10023800FF0E6D6E6E6E6BC00DF06CC00EF06DC073
:100248000FF06EC010F0010E69EC0CF00DC040F01C
:100258000EC041F00FC042F010C043F0CD0E446E06
:10026800CC0E456ECC0E466E3D0E476EB7EC0EF0CA
:10027800D8B041EF01F044EF01F0FFFFF1EF04F0D7
:10028800FFFF8B8A8B88000E7D6E0E0E7C6E010E32
:100298007B6E000E0001BF6F000EBE6FF1EF04F021
:1002A800FFFFF1EF04F0FFFF7C047D10D8A45FEF9F
:1002B80001F062EF01F0FFFF6CEF01F0FFFFFFFFBD
:1002C800000E7D6E020E7C6E010E7B6EF1EF04F067
:1002D800FFFF030E7C187D10D8A475EF01F078EFAE
:1002E80001F0FFFF81EF01F0FFFF000E7D6E040EAD
:1002F8007C6E010E7B6EF1EF04F0FFFF040E7C189C
:100308007D10D8A48AEF01F08DEF01F0FFFFD7EF41
:1003180001F0FFFF7950D8B494EF01F097EF01F0A6
:10032800FFFFBEEF01F0FFFF0DEC12F03EC04CF0F6
:100338003FC04DF030EC10F04C504D10D8B4A7EF42
:1003480001F0AAEF01F0FFFFB1EF01F0FFFF000E8F
:100358007D6E020E7C6EB7EF01F0FFFF000E7D6E22
:100368000E0E7C6E8B88FFFF010E7B6E000E796E81
:10037800F1EF04F0FFFFD5BEC4EF01F0C7EF01F0C5
:10038800FFFFCEEF01F0FFFF36EC14F0F3EC13F0B3
:1003980006EC14F0FFFF0DEC12F03EC068F03FC011
:1003A80069F0F1EF04F0FFFF050E7C187D10D8A46A
:1003B800E0EF01F0E3EF01F0FFFF4BEF02F0FFFF8A
:1003C800AE0E016E000E026E000E046E000E036E7D
:1003D800000E066E000E056E000E086E010E076E0A
:1003E800C40E096E000E0A6E8A0E0B6E0F0E0C6E8E
:1003F800F9EC10F0A20E016E000E026E000E046EF3
:10040800000E036E000E066E000E056E000E086EDE
:10041800010E076EC00E096E000E0A6E8A0E0B6E74
:100428000F0E0C6EF9EC10F0960E016E000E026EB7
:10043800000E046E000E036E000E066E000E056EB2
:10044800000E086E010E076EC40E096E000E0A6ECD
:100458008B0E0B6E0F0E0C6EF9EC10F0000E726E18
:10046800000E716E000E00018F6F000E8E6F000E71
:10047800706E000E6F6E000E8B6F000E8A6F000E8E
:100488007D6E060E7C6E010E7B6EF1EF04F0FFFFB1
:10049800060E7C187D10D8A454EF02F057EF02F036
:1004A800FFFFBEEF02F0FFFF140E666E7D0EFFFF2A
:1004B800E82EFDD7662EFBD700D071507210D8A455
:1004C80068EF02F06BEF02F0FFFF7AEF02F0FFFF38
:1004D800AE0E096E000E0A6E000E0C6E320E0B6E1A
:1004E800D1EC11F009C071F00AC072F0FFFF715031
:1004F8007210D8B482EF02F085EF02F0FFFFA0EF90
:1005080002F0FFFF00018E518F11D8A48EEF02F088
:1005180091EF02F0FFFFA0EF02F0FFFFA20E096EBD
:10052800000E0A6E000E0C6E640E0B6ED1EC11F00C
:1005380009C08EF00AC08FF0FFFF71C001F072C0D1
:1005480002F08EC003F08FC004F0C9EC13F0015024
:100558000210D8B4B2EF02F0B5EF02F0FFFFF1EFEE
:1005680004F0FFFF000E7D6E070E7C6E010E7B6EA1
:10057800F1EF04F0FFFF070E7C187D10D8A4C7EF39
:1005880002F0CAEF02F0FFFF39EF03F0FFFF050E9C
:10059800666EDF0EFFFFE82EFDD7662EFBD7AE0E88
:1005A800096E000E0A6E000E0C6E640E0B6ED1EC16
:1005B80011F009500A10D8B4E4EF02F0E7EF02F0A6
:1005C800FFFFF0EF02F0FFFFAE0E016E000E026EAD
:1005D80083EC13F0774A782AFFFF140E7718781007
:1005E800D8A4F9EF02F0FCEF02F0FFFF10EF03F0E0
:1005F800FFFF75507610D8A404EF03F007EF03F05F
:10060800FFFF10EF03F0FFFF000E7D6E080E7C6EFB
:10061800010E7B6EF1EF04F0FFFF280E77187810BB
:10062800D8A419EF03F01CEF03F0FFFF54EF01F01B
:10063800FFFF000E766E000E756E000E7D6E090EC1
:100648007C6E010E7B6E000E786E000E776EAE0E1D
:10065800016E000E026E83EC13F0A20E016E000E06
:10066800026E83EC13F0F1EF04F0FFFF080E7C1824
:100678007D10D8A442EF03F045EF03F0FFFFE3EF4E
:1006880003F0FFFF050E666EDF0EFFFFE82EFDD7B5
:10069800662EFBD700018C518D11D8A456EF03F0BC
:1006A80059EF03F0FFFF6AEF03F0FFFF960E096EA4
:1006B800000E0A6E000E0C6EC80E0B6ED1EC11F017
:1006C80009C08CF00AC08DF0F1EF04F0FFFF7550FF
:1006D8007610D8A472EF03F075EF03F0FFFF99EFDF
:1006E80003F0FFFF8C518D11D8B47DEF03F080EF3C
:1006F80003F0FFFF99EF03F0FFFF080E676E9E0EF1
:10070800666E4C0EFFFFE82EFDD7662EFBD7672ED0
:10071800F9D7000E766E010E756E960E016E000EFC
:10072800026E83EC13F0F1EF04F0FFFF75507610C2
:10073800D8B4A1EF03F0A4EF03F0FFFFC0EF03F07C
:10074800FFFF88518911D8A4ACEF03F0AFEF03F095
:10075800FFFFC0EF03F0FFFF960E096E000E0A6E52
:10076800000E0C6EC80E0B6ED1EC11F009C088F0AB
:100778000AC089F0F1EF04F0FFFF75507610D8B485
:10078800C8EF03F0CBEF03F0FFFF54EF01F0FFFFDA
:1007980088518911D8B4D3EF03F0D6EF03F0FFFFE7
:1007A80054EF01F0FFFF000E7D6E070E7C6E010E08
:1007B8007B6E000E8D6F000E8C6FF1EF04F0FFFF63
:1007C800090E7C187D10D8A4ECEF03F0EFEF03F0CE
:1007D800FFFF50EF04F0FFFF140E666E7D0EFFFF63
:1007E800E82EFDD7662EFBD700D06F507010D8A426
:1007F80000EF04F003EF04F0FFFF12EF04F0FFFF37
:10080800A20E096E000E0A6E000E0C6E640E0B6EC0
:10081800D1EC11F009C06FF00AC070F0FFFF6F5003
:100828007010D8B41AEF04F01DEF04F0FFFF38EF92
:1008380004F0FFFF00018A518B11D8A426EF04F0C1
:1008480029EF04F0FFFF38EF04F0FFFFAE0E096E4A
:10085800000E0A6E000E0C6E320E0B6ED1EC11F00B
:1008680009C08AF00AC08BF0FFFF6FC001F070C0AA
:1008780002F08AC003F08BC004F0C9EC13F00150F9
:100888000210D8B44AEF04F04DEF04F0FFFFF1EF87
:1008980004F0FFFF63EF01F0FFFF0A0E7C187D10E4
:1008A800D8A459EF04F05CEF04F0FFFF65EF04F003
:1008B800FFFF000E7D6E0B0E7C6E010E7B6EF1EF5E
:1008C80004F0FFFF0B0E7C187D10D8A46EEF04F027
:1008D80071EF04F0FFFF98EF04F0FFFF7950D8B4F0
:1008E80078EF04F07BEF04F0FFFF8AEF04F0FFFFDE
:1008F800010E7B6E000E7D6E0D0E7C6E000E746E0A
:10090800000E736E000E796EF1EF04F0FFFFD5BE96
:1009180090EF04F093EF04F0FFFF54EF01F0FFFFB6
:1009280006EC14F0F1EF04F0FFFF0C0E7C187D10BC
:10093800D8A4A1EF04F0A4EF04F0FFFFAEEF04F099
:10094800FFFF000E7D6E000E7C6E010E7B6ED59E45
:10095800F1EF04F0FFFF0D0E7C187D10D8A4B7EF5F
:1009680004F0BAEF04F0FFFFF1EF04F0FFFF898213
:1009780074BECBEF04F0745007E1640E735CD8B01A
:10098800C8EF04F0CBEF04F0FFFFD9EF04F0FFFF4E
:100998000A0E666EBE0EFFFFE82EFDD7662EFBD749
:1009A80000D0734A742AF1EF04F0FFFF74BEE6EF3B
:1009B80004F074500AE1640E735CD8A0E6EF04F00A
:1009C800E9EF04F0FFFF54EF01F0FFFF000E7D6E2A
:1009D800000E7C6E010E7B6ED59EFFFF0E0E7C18FE
:1009E8007D10D8A4FAEF04F0FDEF04F0FFFFB3EF99
:1009F80000F0FFFF8BA803EF05F006EF05F0FFFFFF
:100A08004BEF05F0FFFF8BAA0CEF05F00FEF05F099
:100A1800FFFF4BEF05F0FFFF45EC12F03EC06BF017
:100A28003FC06CF0000E6CBEFF0E6D6E6E6ECD0E8C
:100A3800406ECC0E416ECC0E426E3D0E436E6BC0C6
:100A48000DF06CC00EF06DC00FF06EC010F0010E0E
:100A580069EC0CF00DC044F00EC045F00FC046F034
:100A680010C047F0B7EC0EF0D8B03DEF05F040EFFE
:100A780005F0FFFF4BEF05F0FFFF8B988B9ABEC088
:100A88007CF0BFC07DF0010E7B6EB3EF00F0FFFF7E
:100A9800B3EF00F046EF00F0FFFF0450800B0D6E3F
:100AA800045004240F6E03AE5CEF05F05FEF05F011
:100AB800FFFF61EF05F0FFFF0F80FFFF0F50D8B475
:100AC80068EF05F06BEF05F0FFFF84EF05F0FFFF1F
:100AD8000F28D8A472EF05F075EF05F0FFFF7EEF41
:100AE80005F0FFFF000E016E000E026E000E036E91
:100AF800000E046EFFFF038E000E046E8DEF05F0EE
:100B0800FFFF000E016E000E026E000E036E000E57
:100B1800046EFFFF0850800B0E6E0D500E18D8B4EF
:100B280098EF05F09BEF05F0FFFF9DEF05F0FFFF45
:100B38000D8CFFFF085008240E6E07AEA6EF05F0D7
:100B4800A9EF05F0FFFFABEF05F0FFFF0E80FFFFF9
:100B58000E50D8B4B2EF05F0B5EF05F0FFFFCEEFB9
:100B680005F0FFFF0E28D8A4BCEF05F0BFEF05F095
:100B7800FFFFC8EF05F0FFFF000E056E000E066EC2
:100B8800000E076E000E086EFFFF078E000E086E3F
:100B9800D7EF05F0FFFF000E056E000E066E000E83
:100BA800076E000E086EFFFF0F500E5CD8B0DFEF27
:100BB80005F0E2EF05F0FFFF0DEF06F0FFFF0DACCB
:100BC800E8EF05F0EBEF05F0FFFFEEEF05F0FFFFB4
:100BD800800E0D1AFFFF0FC010F00EC00FF010C0EE
:100BE8000EF001C010F005C001F010C005F002C001
:100BF80010F006C002F010C006F003C010F007C0E5
:100C080003F010C007F004C010F008C004F010C0D2
:100C180008F0FFFF000E106E0F500EC009F00A6AB0
:100C2800095E000E0A5A0ABE23EF06F00A500AE1CE
:100C38001A0E095CD8A023EF06F026EF06F0FFFF96
:100C480069EF06F0FFFF0150021003100410D8A44A
:100C580030EF06F034EF06F0FFFF010E36EF06F036
:100C6800FFFF000EFFFF106E000E016E000E026EF9
:100C7800000E036E000E046E0EC00FF074EF06F047
:100C8800FFFF10A04AEF06F04DEF06F0FFFF54EF0C
:100C980006F0FFFFD89010300109106E57EF06F0EC
:100CA800FFFFD8901032FFFF01A05DEF06F060EF64
:100CB80006F0FFFF62EF06F0FFFF108EFFFF04341F
:100CC80004320332023201320F2AFFFF0E500F5C4A
:100CD800D8A071EF06F074EF06F0FFFF44EF06F0BE
:100CE800FFFF0DBC7AEF06F07DEF06F0FFFFCAEFBD
:100CF80006F0FFFF0F50D8A484EF06F087EF06F048
:100D0800FFFF92EF06F0FFFF000E016E000E026E6D
:100D1800000E036E000E046E21EF08F0FFFF055071
:100D2800012606500222075003220850042204A07C
:100D3800A0EF06F0A3EF06F0FFFF6EEF07F0FFFF4E
:100D480010A0A9EF06F0ACEF06F0FFFFB3EF06F036
:100D5800FFFFD89010300109106EB6EF06F0FFFFC4
:100D6800D8901032FFFF01A0BCEF06F0BFEF06F0ED
:100D7800FFFFC1EF06F0FFFF108EFFFF04340432BF
:100D88000332023201320F2A6EEF07F0FFFF0550DF
:100D9800015C06500258075003580450800A096E37
:100DA8000850800A0958D8B0DCEF06F0DFEF06F0EB
:100DB800FFFF0DEF07F0FFFF0150055C096E0250C1
:100DC80006580A6E035007580B6E045008580C6EEC
:100DD800FF0E0924016EFF0E0A20026EFF0E0B2083
:100DE800036EFF0E0C20046E800E0D1A106C10504E
:100DF800D8A401EF07F004EF07F0FFFF16EF07F0A4
:100E0800FFFF010E0126000E02220322042216EF24
:100E180007F0FFFF0550015E0650025A0750035ABB
:100E28000850045AFFFF0150021003100410D8A400
:100E380020EF07F023EF07F0FFFF65EF07F0FFFF54
:100E48001050D8A42AEF07F02DEF07F0FFFF65EF49
:100E580007F0FFFF000E016E000E026E000E036E1B
:100E6800000E046E21EF08F0FFFFD890013602361D
:100E78000336043610AE43EF07F046EF07F0FFFFE6
:100E880048EF07F0FFFF0180FFFF10A04EEF07F0CB
:100E980051EF07F0FFFF56EF07F0FFFFD88010363D
:100EA80059EF07F0FFFFD8901036FFFF0F50D8B466
:100EB80060EF07F063EF07F0FFFF65EF07F0FFFF54
:100EC8000F06FFFF03AE6BEF07F06EEF07F0FFFFB3
:100ED80038EF07F0FFFF000E0E6E10AE76EF07F04A
:100EE80079EF07F0FFFF98EF07F0FFFF10C009F058
:100EF8007F0E0916D8B483EF07F086EF07F0FFFFDF
:100F08008CEF07F0FFFFFFFF010E0E6E98EF07F062
:100F1800FFFF01A092EF07F095EF07F0FFFF98EFB2
:100F280007F0FFFF87EF07F0FFFF0E50D8B49FEFE1
:100F380007F0A2EF07F0FFFFD2EF07F0FFFF010E67
:100F48000126000E02220322042204A0AEEF07F0BD
:100F5800B1EF07F0FFFFD2EF07F0FFFF01C009F084
:100F680002C00AF003C00BF004C00CF00C340C32C1
:100F78000B320A32093209C001F00AC002F00BC074
:100F880003F00CC004F00F28D8B4CDEF07F0D0EF71
:100F980007F0FFFFD2EF07F0FFFF0F2AFFFF0F2830
:100FA800D8B4D9EF07F0DCEF07F0FFFFE6EF07F062
:100FB800FFFF0F50D8A4E3EF07F0E6EF07F0FFFFBD
:100FC800FBEF07F0FFFF000E016E000E026E000E31
:100FD800036E000E046E0F50D8A4F5EF07F0F8EF7B
:100FE80007F0FFFFFBEF07F0FFFF000E0D6EFFFF9E
:100FF8000FA001EF08F004EF08F0FFFF08EF08F07A
:10100800FFFF038E0AEF08F0FFFF039EFFFFD89053
:101018000F30046E0DAE13EF08F016EF08F0FFFF67
:1010280018EF08F0FFFF048EFFFF01C001F002C0B7
:1010380002F003C003F004C004F0FFFF1200FFFF3A
:10104800FFFF1E50800B276E1E501E242D6E1DAEF6
:1010580030EF08F033EF08F0FFFF35EF08F0FFFF3F
:101068002D80FFFF2D50D8B43CEF08F03FEF08F07B
:10107800FFFF56EF08F0FFFF2D28D8A446EF08F031
:1010880049EF08F0FFFF52EF08F0FFFF000E1B6E5C
:10109800000E1C6E000E1D6E000E1E6EFFFF1D8ED4
:1010A8005FEF08F0FFFF000E1B6E000E1C6E000EB7
:1010B8001D6E000E1E6EFFFF2250800B271A225055
:1010C80022242C6E21AE6BEF08F06EEF08F0FFFFC4
:1010D80070EF08F0FFFF2C80FFFF2C50D8B477EF9B
:1010E80008F07AEF08F0FFFF91EF08F0FFFF2C28D7
:1010F800D8A481EF08F084EF08F0FFFF8DEF08F027
:10110800FFFF000E1F6E000E206E000E216E000EF7
:10111800226EFFFF218E9AEF08F0FFFF000E1F6E70
:10112800000E206E000E216E000E226EFFFF2C5066
:10113800D8B4A1EF08F0A4EF08F0FFFFAEEF08F075
:10114800FFFF2D50D8A4ABEF08F0AEEF08F0FFFF7B
:10115800B9EF08F0FFFF000E1B6E000E1C6E000EAC
:101168001D6E000E1E6E73EF0AF0FFFF21501B026A
:10117800F3CF32F0F4CF33F03250286E296A2A6A5E
:101188002B6A33502E6E2F6A306A316A20501C0247
:10119800F3CF32F0F4CF33F032502826000E292254
:1011A8002A222B2233502E26000E2F2230223122C3
:1011B8001F501D02F3CF32F0F4CF33F032502826FF
:1011C800000E29222A222B2233502E26000E2F22EF
:1011D800302231222AC02BF029C02AF028C029F059
:1011E800286A1F501C02F3CF32F0F4CF33F032508C
:1011F800282633502922000E2A22000E2B222050A6
:101208001B02F3CF32F0F4CF33F03250282633509C
:101218002922000E2A22000E2B222AC02BF029C0D8
:101228002AF028C029F0286A1F501B02F3CF32F099
:10123800F4CF33F03250282633502922000E2A22C8
:10124800000E2B2221501C02F3CF32F0F4CF33F0E2
:1012580032502E2633502F22000E3022000E31221B
:1012680020501D02F3CF32F0F4CF33F032502E2647
:1012780033502F22000E3022000E312221501D0241
:10128800F3CF32F0F4CF33F03250236E3350246E64
:10129800256A266A25C026F024C025F023C024F03C
:1012A800236A23502E2624502F22255030222650E0
:1012B800312228C023F029C024F02AC025F02BC0F1
:1012C80026F0190E6EEF09F0FFFFD890263225326E
:1012D80024322332FFFFE82E68EF09F023502E2630
:1012E80024502F2225503022265031222AC02BF09C
:1012F80029C02AF028C029F0286A2C502DC023F0D4
:10130800246A2326000E2422820E2324326EFF0E26
:101318002420336EA9EF09F0FFFFD8902E362F3620
:10132800303631362BAE9BEF09F09EEF09F0FFFF08
:10133800A0EF09F0FFFF2E80FFFFD890283629364E
:101348002A362B363206D8A03306FFFF30AEAFEF71
:1013580009F0B2EF09F0FFFF90EF09F0FFFF000E70
:101368002C6E2BAEBAEF09F0BDEF09F0FFFFE8EFE6
:1013780009F0FFFFFF0E2814236EFF0E2914246EB8
:10138800FF0E2A14256E7F0E2B14266E2350241070
:1013980025102610D8B4D3EF09F0D6EF09F0FFFFD7
:1013A800DCEF09F0FFFFFFFF010E2C6EE8EF09F0FC
:1013B800FFFF2EA0E2EF09F0E5EF09F0FFFFE8EFED
:1013C80009F0FFFFD7EF09F0FFFF2C50D8B4EFEF7B
:1013D80009F0F2EF09F0FFFF19EF0AF0FFFF010E25
:1013E8002E26000E2F223022312231A0FEEF09F0E6
:1013F80001EF0AF0FFFF19EF0AF0FFFF2EC023F0FC
:101408002FC024F030C025F031C026F02634263213
:1014180025322432233223C02EF024C02FF025C0D9
:1014280030F026C031F0324A332AFFFF33BE25EFB1
:101438000AF0335009E13228D8A025EF0AF028EF46
:101448000AF0FFFF33EF0AF0FFFF000E2E6E000ECA
:101458002F6E800E306E7F0E316E68EF0AF0FFFF40
:1014680033BE42EF0AF0335006E13204D8B03FEF02
:101478000AF042EF0AF0FFFF4FEF0AF0FFFF000EFD
:101488002E6E000E2F6E000E306E000E316E000EA6
:10149800276E68EF0AF0FFFF32C02DF0FF0E2E1600
:1014A800FF0E2F167F0E3016000E31162DA05FEF9F
:1014B8000AF062EF0AF0FFFF64EF0AF0FFFF308ED8
:1014C800FFFFD8902D30316EFFFF275031122EC00C
:1014D8001BF02FC01CF030C01DF031C01EF0FFFF04
:1014E8001200FFFFFFFF80C05EF081C05FF082C086
:1014F80060F083C061F04CC05EF04DC05FF04EC03C
:1015080060F04FC061F05EC050F05FC051F060C045
:1015180052F061C053F0180E98EF0AF0FFFFD89010
:101528005332523251325032FFFFE82E92EF0AF016
:101538005050586E596A59BEABEF0AF059500AE13B
:10154800960E585CD8A0ABEF0AF0AEEF0AF0FFFF9A
:10155800B9EF0AF0FFFF4CC04CF04DC04DF04EC043
:101568004EF04FC04FF066EF0CF0FFFF5EC050F03A
:101578005FC051F060C052F061C053F0200ECBEF55
:101588000AF0FFFFD8905332523251325032FFFFE7
:10159800E82EC5EF0AF05050511052105310D8B42D
:1015A800D8EF0AF0DBEF0AF0FFFFEEEF0AF0FFFFDB
:1015B8004CC001F04DC002F04EC003F04FC004F023
:1015C80042EC13F001C04CF002C04DF003C04EF0E5
:1015D80004C04FF0FFFF59BEFEEF0AF0595007E173
:1015E8007E0E585CD8B0FBEF0AF0FEEF0AF0FFFF62
:1015F8001BEF0BF0FFFF5EC01BF05FC01CF060C06C
:101608001DF061C01EF0000E1F6E000E206E000E51
:10161800216E000E226E24EC08F01BC04CF01CC09A
:101628004DF01DC04EF01EC04FF066EF0CF0FFFFEE
:10163800000E056E000E066E000E076E4B0E086E4D
:101648004CC001F04DC002F04EC003F04FC004F092
:1016580050EC05F001C05AF002C05BF003C05CF02A
:1016680004C05DF0000E056E000E066E000E076EDB
:10167800CB0E086E5AC001F05BC002F05CC003F0EC
:101688005DC004F050EC05F001C054F002C055F004
:1016980003C056F004C057F054C011F055C012F002
:1016A80056C013F057C014F04CC015F04DC016F0DA
:1016B8004EC017F04FC018F0FAEC12F011C062F0EB
:1016C80012C063F013C064F014C065F0000E406EE1
:1016D800000E416E000E426E3F0E436E62C044F033
:1016E80063C045F064C046F065C047F0B7EC0EF043
:1016F800D8B081EF0BF084EF0BF0FFFFBBEF0BF0DE
:10170800FFFF4CC005F04DC006F04EC007F04FC0BB
:1017180008F062C001F063C002F064C003F065C065
:1017280004F050EC05F001C05AF002C05BF003C0B1
:101738005CF004C05DF05AC001F05BC002F05CC010
:1017480003F05DC004F0000E056E000E066E800EFC
:10175800076EBF0E086E50EC05F001C062F002C0C3
:1017680063F003C064F004C065F028EF0CF0FFFFDD
:10177800000E406E000E416E000E426EBF0E436EAC
:1017880062C044F063C045F064C046F065C047F0ED
:10179800B7EC0EF0D8A0D3EF0BF0D6EF0BF0FFFFAD
:1017A8000DEF0CF0FFFF4CC005F04DC006F04EC029
:1017B80007F04FC008F062C001F063C002F064C0D7
:1017C80003F065C004F050EC05F001C05AF002C007
:1017D8005BF003C05CF004C05DF05AC001F05BC070
:1017E80002F05CC003F05DC004F0000E056E000E50
:1017F800066E800E076E3F0E086E50EC05F001C0B5
:1018080062F002C063F003C064F004C065F028EF22
:101818000CF0FFFF62C001F063C002F064C003F087
:1018280065C004F04CC005F04DC006F04EC007F08E
:101838004FC008F050EC05F001C062F002C063F040
:1018480003C064F004C065F0FFFF5EC050F05FC0E5
:1018580051F060C052F061C053F0200E3AEF0CF026
:10186800FFFFD8905332523251325032FFFFE82EE8
:1018780034EF0CF05050511052105310D8B447EFB9
:101888000CF04AEF0CF0FFFF5DEF0CF0FFFF62C0B9
:1018980001F063C002F064C003F065C004F042ECDC
:1018A80013F001C062F002C063F003C064F004C02A
:1018B80065F0FFFF62C04CF063C04DF064C04EF0AD
:1018C80065C04FF0FFFF1200FFFFFFFF156E1550B8
:1018D800D8B471EF0CF074EF0CF0FFFF99EF0CF037
:1018E800FFFF10BE7DEF0CF07AEF0CF0FFFF99EFD1
:1018F8000CF0FFFF0DC011F00EC012F00FC013F076
:1019080010C014F0111E121E131E141E112A000EF0
:1019180012221322142211C017F012C018F013C09B
:1019280019F014C01AF0A2EF0CF0FFFF0DC017F069
:101938000EC018F00FC019F010C01AF0FFFF0D50BC
:101948000E100F101010D8A4ACEF0CF0AFEF0CF085
:10195800FFFFBAEF0CF0FFFF000E0D6E000E0E6ECB
:10196800000E0F6E000E106E62EF0DF0FFFF960E68
:10197800166EC6EF0CF0FFFF162AD8901A321932ED
:1019880018321732FFFF000E1714116E000E1814CC
:10199800126E000E1914136EFE0E1A14146E1150E6
:1019A800121013101410D8A4DCEF0CF0DFEF0CF0B9
:1019B800FFFFBFEF0CF0FFFFEFEF0CF0FFFF162A61
:1019C800010E1726000E182219221A22D8901A3250
:1019D800193218321732FFFF000E1714116E000E5D
:1019E8001814126E000E1914136EFF0E1A14146ECA
:1019F8001150121013101410D8A405EF0DF008EFB1
:101A08000DF0FFFFE2EF0CF0FFFF12EF0DF0FFFF0C
:101A18001606D8901736183619361A36FFFF19BE2B
:101A280018EF0DF01BEF0DF0FFFF25EF0DF0FFFF96
:101A3800020E166022EF0DF025EF0DF0FFFF0BEF01
:101A48000DF0FFFF16B02BEF0DF02EEF0DF0FFFF9E
:101A580030EF0DF0FFFF199EFFFFD890163216C029
:101A680011F0126A136A146A11C014F0136A126A28
:101A7800116A1150171212501812135019121450DB
:101A88001A121550D8B44BEF0DF04EEF0DF0FFFFC2
:101A980059EF0DF0FFFF10BE57EF0DF054EF0DF0AA
:101AA800FFFF59EF0DF0FFFF1A8EFFFF17C00DF073
:101AB80018C00EF019C00FF01AC010F0FFFF120086
:101AC800FFFFFFFF056E0550B4EC13F00504D8A422
:101AD80070EF0DF073EF0DF0FFFF7EEF0DF0FFFFDD
:101AE80003C0D9FF04C0DAFF010EDE6E000EDD6E02
:101AF80019EF0EF0FFFF020E0518D8A486EF0DF0BF
:101B080089EF0DF0FFFF94EF0DF0FFFF03C0D9FF41
:101B180004C0DAFF030EDE6E000EDD6E19EF0EF064
:101B2800FFFF040E0518D8A49CEF0DF09FEF0DF0F1
:101B3800FFFFAAEF0DF0FFFF03C0D9FF04C0DAFFD3
:101B4800050EDE6E000EDD6E19EF0EF0FFFF080EBB
:101B58000518D8A4B2EF0DF0B5EF0DF0FFFFC0EFF8
:101B68000DF0FFFF03C0D9FF04C0DAFF0A0EDE6ED6
:101B7800000EDD6E19EF0EF0FFFF100E0518D8A449
:101B8800C8EF0DF0CBEF0DF0FFFFD6EF0DF0FFFF24
:101B980003C0D9FF04C0DAFF020EDE6E000EDD6E50
:101BA80019EF0EF0FFFF400E0518D8A4DEEF0DF078
:101BB800E1EF0DF0FFFFECEF0DF0FFFF03C0D9FFE1
:101BC80004C0DAFF0E0EDE6E000EDD6E19EF0EF0A9
:101BD800FFFF800E0518D8A4F4EF0DF0F7EF0DF015
:101BE800FFFFFAEF0DF0FFFF19EF0EF0FFFFA00E59
:101BF8000518D8A402EF0EF005EF0EF0FFFF10EF66
:101C08000EF0FFFF03C0D9FF04C0DAFF0C0EDE6E32
:101C1800000EDD6E19EF0EF0FFFF03C0D9FF04C000
:101C2800DAFF000EDE6E000EDD6EFFFF1200FFFF12
:101C3800FFFF363437343D6E3D50D8A426EF0EF002
:101C480029EF0EF0FFFF35EF0EF0FFFFFFFF000E4C
:101C5800346E000E356E000E366E000E376EB4EF21
:101C68000EF0FFFF34C038F035C039F036C03AF016
:101C780037C03BF0200E47EF0EF0FFFFD8903B3205
:101C88003A3239323832FFFFE82E41EF0EF0385041
:101C98003C6E368EFF0E3416FF0E3516FF0E3616C6
:101CA800000E3716960E3D5E3DBE60EF0EF05DEFFE
:101CB8000EF0FFFF7AEF0EF0FFFF3D50800A970FFE
:101CC800D8B069EF0EF06CEF0EF0FFFF6FEF0EF07B
:101CD800FFFF2AEF0EF0FFFFD89037323632353249
:101CE80034323D3E6FEF0EF098EF0EF0FFFF1F0EFF
:101CF8003D6481EF0EF084EF0EF0FFFF8EEF0EF0E3
:101D0800FFFF2AEF0EF0FFFFD8903436353636360F
:101D180037363D06FFFF3D50D8A495EF0EF098EFFB
:101D28000EF0FFFF87EF0EF0FFFF3C50D8B49FEF97
:101D38000EF0A2EF0EF0FFFFABEF0EF0FFFF371E25
:101D4800361E351E346C000E352236223722FFFF30
:101D580034C034F035C035F036C036F037C037F00F
:101D6800FFFF1200FFFFFFFF000E4014486E000E39
:101D78004114496E800E42144A6E7F0E43144B6E16
:101D8800485049104A104B10D8A4CDEF0EF0D0EFB0
:101D98000EF0FFFFD9EF0EF0FFFF000E406E000EB1
:101DA800416E000E426E000E436EFFFF000E44149B
:101DB800486E000E4514496E800E46144A6E7F0E1A
:101DC80047144B6E485049104A104B10D8A4EFEFF7
:101DD8000EF0F2EF0EF0FFFFFBEF0EF0FFFF000E2C
:101DE800446E000E456E000E466E000E476EFFFFF5
:101DF80043AE01EF0FF004EF0FF0FFFF0EEF0FF00F
:101E0800FFFF406C411ED8B0412A421ED8B0422A7A
:101E1800800E4356FFFF47AE14EF0FF017EF0FF099
:101E2800FFFF21EF0FF0FFFF446C451ED8B0452A95
:101E3800461ED8B0462A800E4756FFFF000E401AAD
:101E4800000E411A000E421A800E431A000E441A60
:101E5800000E451A000E461A800E471A4450405C80
:101E6800455041584650425847504358D8B03FEF24
:101E78000FF042EF0FF0FFFF46EF0FF0FFFFD89093
:101E880048EF0FF0FFFFD880FFFF1200FFFFFFFFB2
:101E9800000E0A6E08BE56EF0FF053EF0FF0FFFF6B
:101EA8005DEF0FF0FFFF076C081ED8B0082A010E7F
:101EB8000A6EFFFF06BE66EF0FF063EF0FF0FFFF3D
:101EC8006DEF0FF0FFFF056C061ED8B0062A010E55
:101ED8000A1AFFFF000E0C6E000E0B6E075008105A
:101EE800D8B479EF0FF07CEF0FF0FFFFADEF0FF0F4
:101EF800FFFF010E096E86EF0FF0FFFFD89007363F
:101F08000836092AFFFF08AE8CEF0FF08FEF0FF0AD
:101F1800FFFF81EF0FF0FFFFFFFFD8900B360C3665
:101F28000750055C08500658D8A09DEF0FF0A0EFA9
:101F38000FF0FFFFA6EF0FF0FFFF0750055E0850F8
:101F4800065A0B80FFFFD89008320732092E90EF0F
:101F58000FF0FFFF0A50D8B4B4EF0FF0B7EF0FF04F
:101F6800FFFFBCEF0FF0FFFF0B6C0C1ED8B00C2A64
:101F7800FFFF0BC005F00CC006F01200FFFFFFFFCB
:101F880020EE04F00150D9260250DA22DECF03F009
:101F9800DDCF04F001C0D9FF02C0DAFFDECF05F0C3
:101FA800DDCF06F0035005260450062201C0D9FFF4
:101FB80002C0DAFF05C0DEFF06C0DDFF20EE02F03A
:101FC8000150D9260250DA22DECF03F0DDCF04F02B
:101FD800010E0326000E042220EE02F00150D9263D
:101FE8000250DA2203C0DEFF04C0DDFF01C0D9FFC2
:101FF80002C0DAFFDE2806E1DE28D8A406EF10F0DA
:1020080009EF10F0FFFF14EF10F0FFFF01C0D9FF38
:1020180002C0DAFF030EDE6E000EDD6E2DEF10F04B
:10202800FFFF01C0D9FF02C0DAFF040EDE18DE1080
:10203800D8A421EF10F024EF10F0FFFF2DEF10F0DF
:10204800FFFF01C0D9FF02C0DAFF000EDE6E000EEE
:10205800DD6EFFFF1200FFFFFFFF000E086E050E8A
:10206800076E370E4C24016E000E4D20026ED4EC24
:1020780012F001C005F002C006F04BEC0FF005C0ED
:102088000DF006C00EF0000E0EBEFF0E0F6E106EA5
:10209800010E69EC0CF00DC04EF00EC04FF00FC0F1
:1020A80050F010C051F04EC040F04FC041F050C049
:1020B80042F051C043F0000E446E000E456E400ED3
:1020C800466E410E476EB7EC0EF0D8A06EEF10F0DA
:1020D80071EF10F0FFFF93EF10F0FFFF000E406E5E
:1020E800000E416E580E426E410E436E4EC044F0D3
:1020F8004FC045F050C046F051C047F0B7EC0EF065
:10210800D8A089EF10F08CEF10F0FFFF93EF10F0DC
:10211800FFFF000E4D6E010E4C6E98EF10F0FFFFA2
:10212800000E4D6E000E4C6EFFFF1200FFFFFFFF0A
:10213800010EDEEC13F02D0EF66E7B0EF76E090025
:10214800FFFFF5CF10F00900FFFFF5CF11F00900F0
:10215800FFFFF5CF12F00A00FFFFF5CF13F0000ED6
:10216800156E000E146EFFFF100E1424D96E000EAB
:102178001520DA6EDF50DEEC13F00CC001F00DC054
:1021880002F0000E046E500E036EC9EC13F0350E0B
:102198000E6E7B0E0F6E01500E2602500F2214C0D9
:1021A80001F015C002F0000E046E140E036EC9ECA7
:1021B80013F001500E24076E02500F20086E7BECBE
:1021C80012F0144A152A15BEF3EF10F015500AE163
:1021D800040E145CD8A0F3EF10F0F6EF10F0FFFF38
:1021E800B7EF10F0FFFF1200FFFFFFFF000E106EA9
:1021F800000E0F6EFFFF0F500924D96E10500A20F1
:10220800DA6E0F5001240D6E105002200E6E060E6D
:102218000D24E16E000E0E20E26EDFCFE7FF0F4ABD
:10222800102A10BE21EF11F010500AE1040E0F5CC5
:10223800D8A021EF11F024EF11F0FFFFFEEF10F00E
:10224800FFFF01C0D9FF02C0DAFF03C0DEFF04C0F0
:10225800DDFF20EE02F00150D9260250DA2205C037
:10226800DEFF06C0DDFF20EE04F00150D926025043
:10227800DA2207C0DEFF08C0DDFF20EE0AF00150B9
:10228800D9260250DA220BC0DEFF0CC0DDFF120097
:10229800FFFFFFFF01C0D9FF02C0DAFF020EDE1800
:1022A800DE10D8A45AEF11F05DEF11F0FFFF62EFD6
:1022B80011F0FFFF100E056E8EEF11F0FFFF01C049
:1022C800D9FF02C0DAFFDE50DE10D8A46EEF11F09D
:1022D80071EF11F0FFFF76EF11F0FFFF000E056EB2
:1022E8008EEF11F0FFFF01C0D9FF02C0DAFF0E0E1A
:1022F800DE18DE10D8A483EF11F086EF11F0FFFF8F
:102308008BEF11F0FFFF400E056E8EEF11F0FFFF0F
:10231800800E056EFFFF05501200FFFFFFFF836A66
:10232800000E956E846A000E966E849284941E0E3A
:10233800036E3C0EFFFFE82EFDD7032EFBD700D01F
:102348008482380EDEEC13F01E0E036E3C0EFFFF87
:10235800E82EFDD7032EFBD700D0380EDEEC13F0A5
:102368001E0E036E3C0EFFFFE82EFDD7032EFBD793
:1023780000D0380EDEEC13F0080EDEEC13F00F0E72
:10238800DEEC13F0010EDEEC13F0380EDEEC13F089
:10239800800EDEEC13F01200FFFFFFFF20EE02F0CC
:1023A8000950D9260A50DA220B50DE5CDE50800A2A
:1023B8000F6E0C50800A0F58D8A0E5EF11F0E8EF27
:1023C80011F0FFFFF9EF11F0FFFF20EE02F00950C6
:1023D800D9260A50DA22000EDE6E000EDD6E000EDF
:1023E8000A6E010E096E0AEF12F0FFFF09C001F034
:1023F8000AC002F0ABEC12F009C001F00AC002F00A
:10240800C3EC0FF0000E0A6E000E096EFFFF1200FB
:10241800FFFFFFFFC284FFFFC2B415EF12F018EFF1
:1024280012F0FFFF0FEF12F0FFFF000E1F6E000EFD
:10243800206E800E216E3E0E226EC4500D6E0E6A06
:102448000F6A106A010E69EC0CF00DC01BF00EC08B
:102458001CF00FC01DF010C01EF024EC08F01BC0CB
:1024680034F01CC035F01DC036F01EC037F01CEC2F
:102478000EF0C90E34243E6EFF0E35203F6E12005A
:10248800FFFFFFFFC284FFFFC2B44DEF12F050EF11
:1024980012F0FFFF47EF12F0FFFF0A0E1F6ED70E74
:1024A800206E230E216E3C0E226EC4500D6E0E6AF5
:1024B8000F6A106A010E69EC0CF00DC01BF00EC01B
:1024C8001CF00FC01DF010C01EF024EC08F01BC05B
:1024D80034F01CC035F01DC036F01EC037F01CECBF
:1024E8000EF034C03EF035C03FF01200FFFFFFFF92
:1024F800000E0B6E91EF12F0FFFF0B500724096ED0
:10250800000E08200A6E09C0F6FF0AC0F7FF08008F
:10251800FFFFF550B4EC13F00B2AFFFF0B50072414
:10252800096E000E08200A6E09C0F6FF0AC0F7FF00
:102538000800FFFFF5500009D8A4A5EF12F0A8EF96
:1025480012F0FFFF80EF12F0FFFF1200FFFFFFFF06
:1025580001C0D9FF02C0DAFFDECF03F0DDCF04F0FF
:1025680001C005F002C006F00350052604500622FB
:10257800060E0524D96E000E0620DA6E10EE0AF05B
:102588000150E1260250E222E6CF07F0E5CF08F03D
:1025980007C0E1FF08C0E2FFDFCFE7FF1200FFFF3F
:1025A800FFFF02BEE3EF12F0025006E10104D8B0CB
:1025B800E0EF12F0E3EF12F0FFFFF2EF12F0FFFF8F
:1025C80001C003F002C004F0031E041E034A042ADB
:1025D80003C001F004C002F0F7EF12F0FFFF01C0E2
:1025E80001F002C002F0FFFF1200FFFFFFFF000E24
:1025F800151A000E161A000E171A800E181A11C096
:1026080001F012C002F013C003F014C004F015C0AA
:1026180005F016C006F017C007F018C008F050EC17
:1026280005F001C011F002C012F003C013F004C09D
:1026380014F01200FFFF9A0EF66E280EF76E000EC9
:10264800F86E00EEBAF010EE0EF00900F5CFEEFFCE
:10265800E550E150FAE100EE80F03A0EEE6AE80645
:10266800FDE100EE6FF00F0EEE6AE806FDE17E90E8
:102678007E92000EF86E000148EF00F0FFFF015057
:10268800021003100410D8B44CEF13F04FEF13F0FE
:10269800FFFF58EF13F0FFFF000E011A000E021A99
:1026A800000E031A800E041AFFFF01C001F002C0D9
:1026B80002F003C003F004C004F01200FFFFFFFFA4
:1026C800550E4C6E550E4D6EC80E4E6E410E4F6E29
:1026D80076EC0AF04CC034F04DC035F04EC036F000
:1026E8004FC037F01CEC0EF03450AF6EAC9CAC8A87
:1026F800AC98AC84AB8EAB9CAB881200FFFFFFFF9D
:1027080020EE04F00150D9260250DA22DECF03F081
:10271800DDCF04F0031E041E034A042A20EE04F051
:102728000150D9260250DA2203C0DEFF04C0DDFFC3
:102738001200FFFFFFFF000E896E000E806EF10E83
:10274800926E000E8A6E000E816E000E936E000E61
:102758008B6E000E826E000E946E948E1200FFFF38
:10276800FFFF026E8482025054EC14F08484C80E79
:10277800FFFF00F0E82EFCD78492C80EFFFF00F0A0
:10278800E82EFCD784821200FFFFFFFF01500302EE
:10279800F3CF05F0F4CF06F001500402F3500626FB
:1027A80002500302F350062605C001F006C002F0ED
:1027B8001200FFFFFFFF026E8482025054EC14F0F7
:1027C8008494C80EFFFF00F0E82EFCD78492C80E50
:1027D800FFFF00F0E82EFCD784821200FFFFFFFF06
:1027E800FFFF0DEC12F0C90E3E1806E13F28D8A4F1
:1027F80000EF14F003EF14F0FFFFF4EF13F0FFFF06
:102808001200FFFFFFFF000ED56E690ED66E670E31
:10281800D76EF28AD59CD59AD596D590D582D5848F
:10282800D58E1200FFFFFFFF016E01C0ADFFFFFF55
:10283800ACA221EF14F024EF14F0FFFF1BEF14F00B
:10284800FFFF1200FFFFFFFF000EC26EC296C29884
:10285800C29AC280000EC46E000EC36E000EC16E16
:102868001200FFFFFFFF000EC26EC296C298C28A16
:10287800C280000EC46E000EC36E000EC16E120040
:10288800FFFFFFFFAECF01F0000EAE6E0150120049
:10289800FFFFBD378634080010204080010204087D
:1028A800FFFF016E01C083FF1200FFFFFFFF9E9A2A
:0A28B8009D8AF28C1200FFFFFFFF63
:107B2800000000004B80C094D40000164649444C25
:107B3800453A2077616974696E6720666F72000044
:107B4800007669616C20746F20626520706C6163D7
:107B58006564000000696E20696E697420706F7337
:107B6800000000000000000000000000000000000D
:107B780000000000000000000000000000494E491D
:107B8800545F504F533A20746865207669616C00E1
:107B98000069732061742074686520696E697420B7
:107BA800706F73000070726F636573732069732060
:107BB8007374617274696E67000000000000000051
:107BC800000000000000000000000000004D4F56BB
:107BD800454D454E54000000000000000000000024
:107BE800000000000000000000000000000000008D
:107BF800000000000000000000000000000000007D
:107C0800000000000000000000000000000000006C
:107C1800000000000000000000000000004F564572
:107C28004E3A0000000000000000000000000000C4
:107C3800007669616C2068617320726561636865AC
:107C48006400000000746865206F76656E000000AF
:107C5800000000000000000000000000000000001C
:107C6800000000000000000000000000004F564522
:107C78004E3A207265616368696E672074686500B2
:107C880000636F72726563742074656D70657261EC
:107C9800747572650000000000000000000000001C
:107CA80000000000000000000000000000000000CC
:107CB80000000000000000000000000000475241E2
:107CC8005350494E473A20746865207669616C00C4
:107CD8000068617320726561636865642074686513
:107CE80000000000006D6978696E67207374617424
:107CF800696F6E0000000000000000000000000036
:107D08000000000000000000000000000047524191
:107D18005350494E473A00000000000000000000A0
:107D2800006772617370696E672068617300000094
:107D38000000000000737461727465640000000044
:107D4800000000000000000000000000000000002B
:107D5800000000000000000000000000004D49582D
:107D6800494E473A20746865207669616C000000C6
:107D78000077696C6C206E6F7720626500000000E8
:107D8800000000000074696C746564203130207450
:107D9800696D65730000000000000000000000002D
:107DA8000000000000000000000000000044494CF2
:107DB8005554494E473A2074686500000000000099
:107DC8000076616363696E652077696C6C206E6FFD
:107DD800770000000062652064696C757465640052
:107DE800000000000000000000000000000000008B
:107DF8000000000000000000000000000052454C98
:107E0800454153494E473A00000000000000000079
:107E18000072656C656173696E6720686173000044
:107E28000000000000737461727465640000000053
:107E3800000000000000000000000000000000003A
:107E4800000000000000000000000000005049434E
:107E58004B5F55503A20746865207669616C000064
:107E68000068617320726561636865642074686581
:107E780000000000007069636B20757020737461E6
:107E880074696F6E00000000000000000000000030
:107E980000000000000000000000000000504943FE
:107EA8004B5F55503A20706C6561736500000000A7
:107EB800007069636B2075702074686500000000AD
:107EC80000000000007669616C206265666F72656B
:107ED80000000000000000000074696D656F757493
:107EE80000000000000000000000000000504943AE
:107EF8004B5F55503A20746865207669616C0000C4
:107F080000686173206265656E207069636B6564E3
:107F18000000000000676F696E67206261636B2074
:107F2800746F0000000000000069646C65000000C8
:107F38000000000000000000000000000054524152
:107F480053483A2074696D656F757400000000002D
:107F58000065786365656465642074686500000081
:107F680000000000007669616C2077696C6C206203
:107F780065000000000000000074726173686564A9
:107F88000000000000000000000000000045525200
:107F98004F52000000000000000000000000000038
:107FA80000000000000000000000000000000000C9
:107FB80000000000000000000000000000000000B9
:107FC80000000000000000000000000000000000A9
:107FD8000000000000000000000000000000247401
:107FE8004A44657669636520686173206265656ED9
:087FF80020726573657400003E
:020000040020DA
:08000000FFFFFFFFFFFFFFFF00
:020000040030CA
:0E000000FF270F0EFF0185FF0FC00FE00F401E
:00000001FF
