:020000040000FA
:1000000000F03BEF00F0FFFFFFFF7F829DAA0BEFA8
:1000100000F00EEF00F0FFFF1EEF00F0FFFF9EAAC2
:1000200014EF00F017EF00F0FFFF1EEF00F0FFFFEE
:100030009E9A010E0101B06F010EAE6FFFFFF2AA92
:1000400024EF00F027EF00F0FFFF37EF00F0FFFF95
:10005000F2A42DEF00F030EF00F0FFFF37EF00F0DB
:10006000FFFF000ED56EF294010E0101AD6FFFFF90
:100070007F921100FFFF35EF35F0FFFF45C0D9FF3C
:1000800046C0DAFFDECFF6FFDDCFF7FF0800FFFF47
:10009000F550250AD8A44FEF00F052EF00F0FFFF13
:1000A00011EF0AF0FFFF45C0D9FF46C0DAFFDE2A94
:1000B000000EDD22000E0001876F000E866F86C0E5
:1000C0008AF087C08BF088698969000E506E000E37
:1000D0004F6EC0EF00F0FFFF00018A81FFFF45C0B7
:1000E000D9FF46C0DAFFDE2A000EDD22C0EF00F0A5
:1000F000FFFF00018A836EEF00F0FFFF00018A8599
:100100006EEF00F0FFFF00018A876EEF00F0FFFF47
:1001100000018A896EEF00F0FFFF000E506E010EA5
:100120004F6EC0EF00F0FFFF45C0D9FF46C0DAFFB9
:10013000DECFF6FFDDCFF7FF0800FFFFF550496E79
:100140004A6A4A50000AD8B4A8EF00F08CEF00F0D9
:10015000FFFF4950200AD8B482EF00F0030AD8B458
:1001600087EF00F0080AD8B47DEF00F0060AD8B493
:100170006BEF00F01D0AD8B478EF00F08CEF00F0C0
:10018000FFFF4F505010D8B4C8EF00F0CBEF00F095
:10019000FFFF93EF00F0FFFF00018AA1D2EF00F014
:1001A000D5EF00F0FFFFD7EF00F0FFFF8A93FFFFCE
:1001B00045C0D9FF46C0DAFFDECFF6FFDDCFF7FF3F
:1001C0000800FFFFF5502A0AD8A4E9EF00F0ECEF91
:1001D00000F0FFFF18EF01F0FFFF45C0D9FF46C058
:1001E000DAFFDE2A000EDD2247C0D9FF48C0DAFF61
:1001F000DFCF49F0020EDE26DFCF4AF0000EDD220F
:1002000049C0D9FF4AC0DAFFDECF86F0DDCF87F0E4
:1002100087BF10EF01F00DEF01F0FFFF63EF01F07A
:10022000FFFF8A81866D871FD8B0872B63EF01F0AF
:10023000FFFF45C0D9FF46C0DAFFDECF08F0DDCFB3
:1002400009F064EC1EF008C086F009C087F031EFB9
:1002500001F0FFFF45C0D9FF46C0DAFFDE2A000EDD
:10026000DD22FFFFD00E496EFF0E4A6E45C0D9FF5A
:1002700046C0DAFFDECFF6FFDDCFF7FF0800FFFF55
:10028000F5504B6E4C6A49504B264A504C224C500C
:100290000BE10A0E4B5CD8A050EF01F054EF01F0D7
:1002A000FFFF010E56EF01F0FFFF000EFFFF516E42
:1002B000526A51505210D8A460EF01F063EF01F080
:1002C000FFFF29EF01F0FFFF45C0D9FF46C0DAFF6D
:1002D000DECFF6FFDDCFF7FF0800FFFFF5502E0A57
:1002E000D8A475EF01F078EF01F0FFFF02EF02F004
:1002F000FFFF000E0001896F000E886F45C0D9FF17
:1003000046C0DAFFDE2A000EDD2245C0D9FF46C016
:10031000DAFFDECFF6FFDDCFF7FF0800FFFFF55075
:100320002A0AD8A496EF01F099EF01F0FFFFB7EF8A
:1003300001F0FFFF45C0D9FF46C0DAFFDE2A000EFC
:10034000DD2247C0D9FF48C0DAFFDFCF49F0020EF7
:10035000DE26DFCF4AF0000EDD2249C0D9FF4AC0B9
:10036000DAFFDECF88F0DDCF89F002EF02F0FFFF89
:1003700045C0D9FF46C0DAFFDECF08F0DDCF09F077
:1003800064EC1EF008C088F009C089F0D0EF01F0DD
:10039000FFFF45C0D9FF46C0DAFFDE2A000EDD228E
:1003A000FFFFD00E496EFF0E4A6E45C0D9FF46C012
:1003B000DAFFDECFF6FFDDCFF7FF0800FFFFF550D5
:1003C0004B6E4C6A49504B264A504C224C500BE124
:1003D0000A0E4B5CD8A0EFEF01F0F3EF01F0FFFF46
:1003E000010EF5EF01F0FFFF000EFFFF536E546AA0
:1003F00053505410D8A4FFEF01F002EF02F0FFFFBA
:10040000C8EF01F0FFFF45C0D9FF46C0DAFFDECFDD
:10041000F6FFDDCFF7FF0800FFFFF550630AD8A411
:1004200014EF02F017EF02F0FFFF3FEF02F0FFFFC3
:1004300045C0D9FF46C0DAFFDE2A000EDD2247C0E4
:10044000D9FF48C0DAFFDFCF49F0020EDE26DFCF4A
:100450004AF0000EDD2249C0D9FF4AC0DAFFDF5062
:100460005F6E43C01CF044C01DF05FC01EF002EC84
:1004700035F01CC043F01DC044F02EEF0AF0FFFF22
:1004800045C0D9FF46C0DAFFDECF01F0DDCF02F074
:10049000CF0E036E7F0E046E000E066E030E056E09
:1004A000E2EC3AF001500210D8B459EF02F05CEFE0
:1004B00002F0FFFF79EF02F0FFFF45C0D9FF46C011
:1004C000DAFFDECF01F0DDCF02F0D30E036E7F0E38
:1004D000046E000E066E030E056EE2EC3AF001505B
:1004E0000210D8A476EF02F079EF02F0FFFFBBEF25
:1004F00002F0FFFF030E45C0D9FF46C0DAFFDE263B
:10050000000EDD2247C0D9FF48C0DAFFDFCF49F037
:10051000020EDE26DFCF4AF0000EDD2249C0D9FFF1
:100520004AC0DAFFDF50556E000E55BEFF0E566E04
:10053000576E586E596E5A6E5B6E5C6EFFFF43C00D
:100540001CF044C01DF055C01EF056C01FF057C02F
:1005500020F058C021F059C022F05AC023F05BC0EF
:1005600024F05CC025F023EC17F01CC043F01DC044
:1005700044F02EEF0AF0FFFF45C0D9FF46C0DAFF76
:10058000DECF01F0DDCF02F0D00E036E7F0E046EE1
:10059000000E066E020E056EE2EC3AF001500210FB
:1005A000D8B4D5EF02F0D8EF02F0FFFFF5EF02F07C
:1005B000FFFF45C0D9FF46C0DAFFDECF01F0DDCF37
:1005C00002F0D40E036E7F0E046E000E066E020E55
:1005D000056EE2EC3AF001500210D8A4F2EF02F0FE
:1005E000F5EF02F0FFFF1DEF03F0FFFF020E45C025
:1005F000D9FF46C0DAFFDE26000EDD2247C0D9FF54
:1006000048C0DAFFDFCF49F0020EDE26DFCF4AF026
:10061000000EDD2249C0D9FF4AC0DAFFDECF55F017
:10062000DDCF56F0000E56BEFF0E576E586E596E57
:100630005A6E5B6E5C6E9EEF02F0FFFF45C0D9FF05
:1006400046C0DAFFDECFF6FFDDCFF7FF0800FFFF81
:10065000F550640AD8B42FEF03F032EF03F0FFFF38
:1006600047EF03F0FFFF45C0D9FF46C0DAFFDECFFA
:10067000F6FFDDCFF7FF0800FFFFF550690AD8A4A9
:1006800044EF03F047EF03F0FFFF6EEF03F0FFFFCF
:1006900045C0D9FF46C0DAFFDE2A000EDD2247C082
:1006A000D9FF48C0DAFFDFCF49F0020EDE26DFCFE8
:1006B0004AF0000EDD2249C0D9FF4AC0DAFFDECF82
:1006C00055F0DDCF56F0000E56BEFF0E576E586E39
:1006D000596E5A6E5B6E5C6E9EEF02F0FFFF45C076
:1006E000D9FF46C0DAFFDECF01F0DDCF02F0EA0E1F
:1006F000036E7F0E046E000E066E020E056EE2ECB7
:100700003AF001500210D8B488EF03F08BEF03F0F9
:10071000FFFFA8EF03F0FFFF45C0D9FF46C0DAFF97
:10072000DECF01F0DDCF02F0ED0E036E7F0E046E22
:10073000000E066E020E056EE2EC3AF00150021059
:10074000D8A4A5EF03F0A8EF03F0FFFFD1EF03F06B
:10075000FFFF020E45C0D9FF46C0DAFFDE26000EBD
:10076000DD2247C0D9FF48C0DAFFDFCF49F0020ED3
:10077000DE26DFCF4AF0000EDD2249C0D9FF4AC095
:10078000DAFFDECF4BF0DDCF4CF04BC055F04CC064
:1007900056F0576A586A596A5A6A5B6A5C6A9EEFF1
:1007A00002F0FFFF45C0D9FF46C0DAFFDECF01F0FF
:1007B000DDCF02F0DB0E036E7F0E046E000E066EC0
:1007C000030E056EE2EC3AF001500210D8A4EBEFF4
:1007D00003F0EEEF03F0FFFF2FEF04F0FFFF030E37
:1007E00045C0D9FF46C0DAFFDE26000EDD2247C035
:1007F000D9FF48C0DAFFDFCF49F0020EDE26DFCF97
:100800004AF0000EDD2249C0D9FF4AC0DAFFDF50AE
:100810004B6E4B50606E616A626A636A646A656AB5
:10082000666A676AFFFF43C01CF044C01DF060C0E9
:100830001EF061C01FF062C020F063C021F064C0F0
:1008400022F065C023F066C024F067C025F06BEC91
:100850001BF01CC043F01DC044F02EEF0AF0FFFF58
:1008600045C0D9FF46C0DAFFDECF01F0DDCF02F090
:10087000DC0E036E7F0E046E000E066E020E056E19
:10088000E2EC3AF001500210D8A449EF04F04CEF2A
:1008900004F0FFFF75EF04F0FFFF020E45C0D9FF23
:1008A00046C0DAFFDE26000EDD2247C0D9FF48C071
:1008B000DAFFDFCF49F0020EDE26DFCF4AF0000E6E
:1008C000DD2249C0D9FF4AC0DAFFDECF4BF0DDCFD1
:1008D0004CF04BC060F04CC061F0626A636A646ABD
:1008E000656A666A676A12EF04F0FFFF45C0D9FFC8
:1008F00046C0DAFFDECFF6FFDDCFF7FF0800FFFFCF
:10090000F5506F0AD8A487EF04F08AEF04F0FFFFD8
:10091000B2EF04F0FFFF45C0D9FF46C0DAFFDE2A80
:10092000000EDD2247C0D9FF48C0DAFFDFCF49F013
:10093000020EDE26DFCF4AF0000EDD2249C0D9FFCD
:100940004AC0DAFFDECF4BF0DDCF4CF04BC060F099
:100950004CC061F0626A636A646A656A666A676A63
:1009600012EF04F0FFFF45C0D9FF46C0DAFFDECF2B
:1009700001F0DDCF02F0F30E036E7F0E046E000E69
:10098000066E020E056EE2EC3AF001500210D8A499
:10099000CCEF04F0CFEF04F0FFFFF8EF04F0FFFF1F
:1009A000020E45C0D9FF46C0DAFFDE26000EDD226A
:1009B00047C0D9FF48C0DAFFDFCF49F0020EDE267C
:1009C000DFCF4AF0000EDD2249C0D9FF4AC0DAFF6E
:1009D000DECF4BF0DDCF4CF04BC060F04CC061F08F
:1009E000626A636A646A656A666A676A12EF04F03B
:1009F000FFFF45C0D9FF46C0DAFFDECF01F0DDCFF3
:100A000002F0D70E036E7F0E046E000E066E030E0C
:100A1000056EE2EC3AF001500210D8A412EF05F096
:100A200015EF05F0FFFF4BEF05F0FFFF030E45C08C
:100A3000D9FF46C0DAFFDE26000EDD2247C0D9FF0F
:100A400048C0DAFFDFCF49F0020EDE26DFCF4AF0E2
:100A5000000EDD2249C0D9FF4AC0DAFFDECF5DF0CB
:100A6000DDCF5EF05DC0F6FF5EC0F7FFF86A050EF1
:100A7000F76404D084C0F5FF0C0006D0F6CFE1FF88
:100A8000F7CFE2FF84C0E7FFFFFF000E446E000EC9
:100A9000436E2EEF0AF0FFFF45C0D9FF46C0DAFFD4
:100AA000DECF01F0DDCF02F0D80E036E7F0E046EB4
:100AB000000E066E020E056EE2EC3AF001500210D6
:100AC000D8A465EF05F068EF05F0FFFF9EEF05F095
:100AD000FFFF020E45C0D9FF46C0DAFFDE26000E3A
:100AE000DD2247C0D9FF48C0DAFFDFCF49F0020E50
:100AF000DE26DFCF4AF0000EDD2249C0D9FF4AC012
:100B0000DAFFDECF5DF0DDCF5EF05DC0F6FF5EC0E8
:100B1000F7FFF86A050EF76407D084C0F5FF0D00F3
:100B200085C0F5FF0C0008D0F6CFE1FFF7CFE2FF5C
:100B300084C0E6FF85C0E7FF44EF05F0FFFF45C036
:100B4000D9FF46C0DAFFDECFF6FFDDCFF7FF0800A2
:100B5000FFFFF5506E0AD8A4B0EF05F0B3EF05F033
:100B6000FFFFE8EF05F0FFFF45C0D9FF46C0DAFF01
:100B7000DE2A000EDD2247C0D9FF48C0DAFFDFCFF2
:100B800049F0020EDE26DFCF4AF0000EDD2249C01A
:100B9000D9FF4AC0DAFFDECF5DF0DDCF5EF05DC089
:100BA000F6FF5EC0F7FFF86A050EF76407D084C051
:100BB000F5FF0D0085C0F5FF0C0008D0F6CFE1FF72
:100BC000F7CFE2FF84C0E6FF85C0E7FF44EF05F002
:100BD000FFFF45C0D9FF46C0DAFFDECF01F0DDCF11
:100BE00002F0F00E036E7F0E046E000E066E020E13
:100BF000056EE2EC3AF001500210D8A402EF06F0C4
:100C000005EF06F0FFFF3BEF06F0FFFF020E45C0C9
:100C1000D9FF46C0DAFFDE26000EDD2247C0D9FF2D
:100C200048C0DAFFDFCF49F0020EDE26DFCF4AF000
:100C3000000EDD2249C0D9FF4AC0DAFFDECF5DF0E9
:100C4000DDCF5EF05DC0F6FF5EC0F7FFF86A050E0F
:100C5000F76407D084C0F5FF0D0085C0F5FF0C00D8
:100C600008D0F6CFE1FFF7CFE2FF84C0E6FF85C0F2
:100C7000E7FF44EF05F0FFFF45C0D9FF46C0DAFFAC
:100C8000DECFF6FFDDCFF7FF0800FFFFF550700A5B
:100C9000D8A44DEF06F050EF06F0FFFF94EF06F0FA
:100CA000FFFF45C0D9FF46C0DAFFDE2A000EDD2275
:100CB00047C0D9FF48C0DAFFDFCF49F0020EDE2679
:100CC000DFCF4AF0000EDD2249C0D9FF4AC0DAFF6B
:100CD000DECF4BF0DDCF4CF04BC060F04CC061F08C
:100CE000626A636A646A656A666A676A43C01CF01E
:100CF00044C01DF060C01EF061C01FF062C020F053
:100D000063C021F064C022F065C023F066C024F007
:100D100067C025F0780E266EBDEC18F01CC043F0BD
:100D20001DC044F02EEF0AF0FFFF45C0D9FF46C0BA
:100D3000DAFFDECFF6FFDDCFF7FF0800FFFFF5504B
:100D4000730AD8A4A6EF06F0A9EF06F0FFFFD5EFCF
:100D500006F0FFFF45C0D9FF46C0DAFFDE2A000ECD
:100D6000DD2247C0D9FF48C0DAFFDFCF49F0020ECD
:100D7000DE26DFCF4AF0000EDD2249C0D9FF4AC08F
:100D8000DAFFDECF4DF0DDCF4EF043C00AF044C0B5
:100D90000BF04DC00CF04EC00DF07AEC1DF00AC007
:100DA00043F00BC044F02EEF0AF0FFFF45C0D9FF1F
:100DB00046C0DAFFDECF01F0DDCF02F0DF0E036EBA
:100DC0007F0E046E000E066E030E056EE2EC3AF026
:100DD00001500210D8A4EFEF06F0F2EF06F0FFFF8B
:100DE00033EF07F0FFFF030E45C0D9FF46C0DAFF1F
:100DF000DE26000EDD2247C0D9FF48C0DAFFDFCF74
:100E000049F0020EDE26DFCF4AF0000EDD2249C097
:100E1000D9FF4AC0DAFFDF504B6E4B50606E616AFB
:100E2000626A636A646A656A666A676AFFFF43C0EA
:100E30001CF044C01DF060C01EF061C01FF062C015
:100E400020F063C021F064C022F065C023F066C0CA
:100E500024F067C025F055EC1AF01CC043F01DC00B
:100E600044F02EEF0AF0FFFF45C0D9FF46C0DAFF7D
:100E7000DECF01F0DDCF02F0E00E036E7F0E046ED8
:100E8000000E066E020E056EE2EC3AF00150021002
:100E9000D8A44DEF07F050EF07F0FFFF79EF07F010
:100EA000FFFF020E45C0D9FF46C0DAFFDE26000E66
:100EB000DD2247C0D9FF48C0DAFFDFCF49F0020E7C
:100EC000DE26DFCF4AF0000EDD2249C0D9FF4AC03E
:100ED000DAFFDECF4BF0DDCF4CF04BC060F04CC002
:100EE00061F0626A636A646A656A666A676A16EFD5
:100EF00007F0FFFF45C0D9FF46C0DAFFDECFF6FF9F
:100F0000DDCFF7FF0800FFFFF550750AD8A48BEF7F
:100F100007F08EEF07F0FFFFB6EF07F0FFFF45C0C9
:100F2000D9FF46C0DAFFDE2A000EDD2247C0D9FF16
:100F300048C0DAFFDFCF49F0020EDE26DFCF4AF0ED
:100F4000000EDD2249C0D9FF4AC0DAFFDECF4BF0E8
:100F5000DDCF4CF04BC060F04CC061F0626A636A58
:100F6000646A656A666A676A16EF07F0FFFF45C044
:100F7000D9FF46C0DAFFDECF01F0DDCF02F0F60E7A
:100F8000036E7F0E046E000E066E020E056EE2EC1E
:100F90003AF001500210D8A4D0EF07F0D3EF07F0D9
:100FA000FFFFFCEF07F0FFFF020E45C0D9FF46C070
:100FB000DAFFDE26000EDD2247C0D9FF48C0DAFF87
:100FC000DFCF49F0020EDE26DFCF4AF0000EDD2231
:100FD00049C0D9FF4AC0DAFFDECF4BF0DDCF4CF07D
:100FE0004BC060F04CC061F0626A636A646A656A13
:100FF000666A676A16EF07F0FFFF45C0D9FF46C073
:10100000DAFFDECF01F0DDCF02F0E30E036E7F0EDC
:10101000046E000E066E030E056EE2EC3AF001500F
:101020000210D8B416EF08F019EF08F0FFFF36EF02
:1010300008F0FFFF45C0D9FF46C0DAFFDECF01F060
:10104000DDCF02F0CB0E036E7F0E046E000E066E37
:10105000030E056EE2EC3AF001500210D8A433EF13
:1010600008F036EF08F0FFFF8DEF08F0FFFF45C0F6
:10107000D9FF46C0DAFFDECF49F0DDCF4AF0020EDD
:101080004926000E4A2249C0F6FF4AC0F7FF080071
:10109000FFFFF5CF5FF0030E45C0D9FF46C0DAFF72
:1010A000DE26000EDD2247C0D9FF48C0DAFFDFCFC1
:1010B00049F0020EDE26DFCF4AF0000EDD2249C0E5
:1010C000D9FF4AC0DAFFDF504B6E4B50606E616A49
:1010D000626A636A646A656A666A676AFFFF43C038
:1010E0001CF044C01DF060C01EF061C01FF062C063
:1010F00020F063C021F064C022F065C023F066C018
:1011000024F067C025F05FC026F0BDEC18F01CC0CD
:1011100043F01DC044F02EEF0AF0FFFF45C0D9FF99
:1011200046C0DAFFDECF01F0DDCF02F0E40E036E41
:101130007F0E046E000E066E020E056EE2EC3AF0B3
:1011400001500210D8B4A7EF08F0AAEF08F0FFFF93
:10115000C7EF08F0FFFF45C0D9FF46C0DAFFDECF7A
:1011600001F0DDCF02F0CC0E036E7F0E046E000E98
:10117000066E020E056EE2EC3AF001500210D8A4A1
:10118000C4EF08F0C7EF08F0FFFF04EF09F0FFFF1E
:1011900045C0D9FF46C0DAFFDECF49F0DDCF4AF0C7
:1011A000010E4926000E4A2249C0F6FF4AC0F7FF49
:1011B0000800FFFFF5CF5FF0020E45C0D9FF46C023
:1011C000DAFFDE26000EDD2247C0D9FF48C0DAFF75
:1011D000DFCF49F0020EDE26DFCF4AF0000EDD221F
:1011E00049C0D9FF4AC0DAFFDECF4BF0DDCF4CF06B
:1011F0004BC060F04CC061F0626A636A646A656A01
:10120000666A676A6EEF08F0FFFF45C0D9FF46C007
:10121000DAFFDECFF6FFDDCFF7FF0800FFFFF55066
:10122000780AD8B416EF09F019EF09F0FFFF2EEF96
:1012300009F0FFFF45C0D9FF46C0DAFFDECFF6FF59
:10124000DDCFF7FF0800FFFFF550580AD8A42BEFB9
:1012500009F02EEF09F0FFFF62EF09F0FFFF45C034
:10126000D9FF46C0DAFFDECFF6FFDDCFF7FF08007B
:10127000FFFFF5CF5FF045C0D9FF46C0DAFFDE2A99
:10128000000EDD2247C0D9FF48C0DAFFDFCF49F0AA
:10129000020EDE26DFCF4AF0000EDD2249C0D9FF64
:1012A0004AC0DAFFDECF4BF0DDCF4CF04BC060F030
:1012B0004CC061F0626A636A646A656A666A676AFA
:1012C0006EEF08F0FFFF45C0D9FF46C0DAFFDECF62
:1012D00001F0DDCF02F0F90E036E7F0E046E000EFA
:1012E000066E020E056EE2EC3AF001500210D8B420
:1012F0007CEF09F07FEF09F0FFFF9CEF09F0FFFFA3
:1013000045C0D9FF46C0DAFFDECF01F0DDCF02F0E5
:10131000E70E036E7F0E046E000E066E020E056E63
:10132000E2EC3AF001500210D8A499EF09F09CEFDA
:1013300009F0FFFFD9EF09F0FFFF45C0D9FF46C014
:10134000DAFFDECF49F0DDCF4AF0010E4926000E6C
:101350004A2249C0F6FF4AC0F7FF0800FFFFF5CF59
:101360005FF0020E45C0D9FF46C0DAFFDE26000E50
:10137000DD2247C0D9FF48C0DAFFDFCF49F0020EB7
:10138000DE26DFCF4AF0000EDD2249C0D9FF4AC079
:10139000DAFFDECF4BF0DDCF4CF04BC060F04CC03D
:1013A00061F0626A636A646A656A666A676A6EEFB8
:1013B00008F0FFFF45C0D9FF46C0DAFFDECFF6FFD9
:1013C000DDCFF7FF0800FFFFF550250AD8A4EBEFAB
:1013D00009F0EEEF09F0FFFF07EF0AF0FFFF45C04D
:1013E000D9FF46C0DAFFDE2A000EDD22000E026EB3
:1013F000250E016E43C003F044C004F011EC39F037
:10140000FFFF000E446E010E436E2EEF0AF0FFFF49
:1014100045C0D9FF46C0DAFFDE2A000EDD2244EFC8
:1014200005F0FFFF45C0D9FF46C0DAFFDECFF6FF6B
:10143000DDCFF7FF0800FFFFF550016E026A43C0E1
:1014400003F044C004F011EC39F045C0D9FF46C0A8
:10145000DAFFDE2A000EDD2200EF0AF0FFFF1200A5
:10146000FFFFFFFF00EC33F08AEC33F0CFEC37F0F6
:1014700086EC32F03DEC32F0ACEC32F0CD0E016E89
:10148000010E026E000E046E000E036E000E066E5C
:10149000000E056E000E086E010E076EF50E096E49
:1014A000010E0A6E15EC37F0BF0E016E010E026ED2
:1014B000000E046E000E036E000E066E000E056E2A
:1014C000000E086E010E076EED0E096E010E0A6E1B
:1014D00015EC37F0B10E016E010E026E000E046EB7
:1014E000000E036E000E066E000E056E000E086EF6
:1014F000010E076EED0E096E010E0A6E15EC37F047
:101500004DEC36F00C0EC1EC32F0010EC1EC32F0B5
:10151000800EC1EC32F0930E036E7F0E046E8CECE5
:1015200036F0F28E000E0101AC6F000EAB6FFFFFC4
:101530000101B051D8B49FEF0AF0A2EF0AF0FFFF0B
:10154000F5EF0AF0FFFFAE51D8B4A9EF0AF0ACEF07
:101550000AF0FFFFE6EF0AF0FFFF43EC32F0010173
:10156000A26FDB0E036E010E046EA2514BEC1FF056
:10157000000E0101AE6F000E0001C26F010EC36FBD
:10158000000EC56FA00EC46FFC0EC66F7F0EC76F36
:10159000D8900101DB35D96EDC35DA6EDD0ED92647
:1015A000010EDA22DECFC8F0DDCFC9F016EC33F041
:1015B000010EC1EC32F0800EC1EC32F0000E036E71
:1015C000010E046E8CEC36F0EFEF0AF0FFFFDB0E3D
:1015D000016E010E026ED0EC36F055EC32F0FFFFDA
:1015E000000E0101B06F000EAF6FFFFF020EDB199E
:1015F000DC11D8A4FEEF0AF001EF0BF0FFFF4AEF79
:101600000BF0FFFF8982A351A411D8B40AEF0BF0AD
:101610000DEF0BF0FFFF22EF0BF0FFFFA6BF1DEF5A
:101620000BF0A65107E1640EA55DD8B01AEF0BF0E0
:101630001DEF0BF0FFFF22EF0BF0FFFFA54BA62BDA
:1016400097EF0AF0FFFFA351A411D8B42AEF0BF0D3
:101650002DEF0BF0FFFF59EF0BF0FFFFA6BF3AEFA6
:101660000BF0A6510AE1640EA55DD8A03AEF0BF08D
:101670003DEF0BF0FFFF59EF0BF0FFFF000EA46FE3
:10168000000EA36F000EDC6F000EDB6F010EB06F5B
:1016900097EF0AF0FFFF8992DB51DC11D8A453EFDA
:1016A0000BF056EF0BF0FFFF5CEF0BF0FFFF97EF37
:1016B0000AF0FFFF97EF0AF0FFFFDB05DC11D8A46B
:1016C00064EF0BF067EF0BF0FFFF72EF0BF0FFFF23
:1016D000FFFF000E0101DC6F020EDB6F010EB06F29
:1016E00097EF0AF0FFFF030EDB19DC11D8A47BEFA4
:1016F0000BF07EEF0BF0FFFF87EF0BF0FFFF000E0C
:10170000DC6F090EDB6F010EB06F97EF0AF0FFFF81
:10171000090EDB19DC11D8A490EF0BF093EF0BF05E
:10172000FFFFD4EF0BF0FFFFAD51D8B49AEF0BF0F1
:101730009DEF0BF0FFFFBDEF0BF0FFFFD8EC35F096
:10174000D4C0D6F0D5C0D7F0A3EC38F00001D65104
:10175000D711D8B4AEEF0BF0B1EF0BF0FFFF59EF9C
:101760000BF0FFFF000E0101DC6F020EDB6F010EBC
:10177000B06F000EAD6F97EF0AF0FFFFD5BEC3EF5D
:101780000BF0C6EF0BF0FFFFCBEF0BF0FFFF98EC79
:1017900032F075EC32F0FFFFD8EC35F0D4C0A0F198
:1017A000D5C0A1F197EF0AF0FFFF040EDB19DC11A1
:1017B000D8A4DDEF0BF0E0EF0BF0FFFFE9EF0BF04B
:1017C000FFFF000EDC6F0A0EDB6F010EB06F97EFAC
:1017D0000AF0FFFF0A0EDB19DC11D8A4F2EF0BF0C0
:1017E000F5EF0BF0FFFF91EF0CF0FFFF030E000190
:1017F000DD6FEB0EFFFFE82EFDD7DD2FFBD700D00E
:1018000000F00101A951AA11D8B409EF0CF00CEFB6
:101810000CF0FFFF27EF0CF0FFFFCD0E076E010E5F
:10182000086E000E0A6E320E096E11EC36F007508B
:101830000810D8B41EEF0CF021EF0CF0FFFF27EFDB
:101840000CF0FFFF000E0101AA6F000EA96FFFFF51
:101850000101A951AA11D8A430EF0CF033EF0CF01C
:10186000FFFF59EF0CF0FFFFA751A811D8B43BEFD1
:101870000CF03EEF0CF0FFFF59EF0CF0FFFFBF0E36
:10188000076E010E086E000E0A6E640E096E11ECF2
:1018900036F007500810D8B450EF0CF053EF0CF0AE
:1018A000FFFF59EF0CF0FFFF000E0101A86F000EC3
:1018B000A76FFFFF0101A751A811D8B462EF0CF088
:1018C00066EF0CF0FFFF010E68EF0CF0FFFF000E5B
:1018D000FFFF016E026AA951AA11D8B472EF0CF091
:1018E00076EF0CF0FFFF010E78EF0CF0FFFF000E1B
:1018F000FFFF036E046AEBEC32F001500210D8B423
:1019000084EF0CF087EF0CF0FFFF97EF0AF0FFFF7A
:10191000000E0101DC6F050EDB6F010EB06F97EF5B
:101920000AF0FFFF050EDB19DC11D8A49AEF0CF0CA
:101930009DEF0CF0FFFF05EF0DF0FFFF030E000120
:10194000DD6FEB0EFFFFE82EFDD7DD2FFBD700D0BC
:1019500000F0CD0E076E010E086E000E0A6E640ECA
:10196000096E11EC36F007500810D8B4BAEF0CF03D
:10197000BDEF0CF0FFFFC7EF0CF0FFFFCD0E016EC7
:10198000010E026E30EC33F00101AB4BAC2BFFFFCC
:101990000101ACBFD5EF0CF0AC510AE1140EAB5D08
:1019A000D8A0D5EF0CF0D8EF0CF0FFFF97EF0AF0BE
:1019B000FFFF000EDC6F060EDB6F000EAC6F000E3B
:1019C000AB6FCD0E016E010E026E000E046E000EA6
:1019D000036E000E066E000E056E000E086E010E00
:1019E000076EF50E096E010E0A6E15EC37F0CD0E7E
:1019F000016E010E026E30EC33F0BF0E016E010E6F
:101A0000026E30EC33F097EF0AF0FFFF060EDB19A1
:101A1000DC11D8A40EEF0DF011EF0DF0FFFF8DEFEC
:101A20000DF0FFFF030E0001DD6FEB0EFFFFE82E50
:101A3000FDD7DD2FFBD700D000F00101A751A81181
:101A4000D8A425EF0DF028EF0DF0FFFF43EF0DF0C8
:101A5000FFFFBF0E076E010E086E000E0A6E640EC9
:101A6000096E11EC36F007500810D8B43AEF0DF0BB
:101A70003DEF0DF0FFFF43EF0DF0FFFF000E010102
:101A8000A86F010EA76FFFFF0101A751A811D8B4DD
:101A90004CEF0DF04FEF0DF0FFFF75EF0DF0FFFF76
:101AA000A951AA11D8A457EF0DF05AEF0DF0FFFF7E
:101AB00075EF0DF0FFFFCD0E076E010E086E000EE4
:101AC0000A6E320E096E11EC36F007500810D8B4C9
:101AD0006CEF0DF06FEF0DF0FFFF75EF0DF0FFFFF6
:101AE000000E0101AA6F010EA96FFFFFA7C101F04F
:101AF000A8C102F0A9C103F0AAC104F0EBEC32F0D6
:101B000001500210D8B487EF0DF08AEF0DF0FFFFFF
:101B100097EF0AF0FFFF68EF0BF0FFFF070EDB19EE
:101B2000DC11D8A496EF0DF099EF0DF0FFFFA2EFB6
:101B30000DF0FFFF000EDC6F0B0EDB6F010EB06FC0
:101B400097EF0AF0FFFF0B0EDB19DC11D8A4ABEF07
:101B50000DF0AEEF0DF0FFFFD7EF0DF0FFFFAD5131
:101B6000D8B4B5EF0DF0B8EF0DF0FFFFC9EF0DF0F1
:101B7000FFFF010EB06F000EDC6F020EDB6F000E78
:101B8000A46F010EA36F000EA66F000EA56F97EF56
:101B90000AF0FFFFD5BECFEF0DF0D2EF0DF0FFFF43
:101BA00059EF0BF0FFFF75EC32F097EF0AF0FFFFF3
:101BB0000C0EDB19DC11D8A4E0EF0DF0E3EF0DF013
:101BC000FFFF59EF0BF0FFFF000EDC6F000EDB6F25
:101BD000010EB06FD59E97EF0AF03BEF00F0FFFFCC
:101BE0006250800B6B6E625062246D6E61AEFBEFD3
:101BF0000DF0FEEF0DF0FFFF00EF0EF0FFFF6D8028
:101C0000FFFF6D50D8B407EF0EF00AEF0EF0FFFFA4
:101C100023EF0EF0FFFF6D28D8A411EF0EF014EFA4
:101C20000EF0FFFF1DEF0EF0FFFF000E5F6E000EC7
:101C3000606E000E616E000E626EFFFF618E000E20
:101C4000626E2CEF0EF0FFFF000E5F6E000E606EF6
:101C5000000E616E000E626EFFFF6650800B6C6EB0
:101C60006B506C18D8B437EF0EF03AEF0EF0FFFF60
:101C70003CEF0EF0FFFF6B8CFFFF665066246C6E2E
:101C800065AE45EF0EF048EF0EF0FFFF4AEF0EF0A5
:101C9000FFFF6C80FFFF6C50D8B451EF0EF054EF93
:101CA0000EF0FFFF6DEF0EF0FFFF6C28D8A45BEF86
:101CB0000EF05EEF0EF0FFFF67EF0EF0FFFF000E7D
:101CC000636E000E646E000E656E000E666EFFFFA2
:101CD000658E000E666E76EF0EF0FFFF000E636EEF
:101CE000000E646E000E656E000E666EFFFF6D5096
:101CF0006C5CD8B07EEF0EF081EF0EF0FFFFACEF22
:101D00000EF0FFFF6BAC87EF0EF08AEF0EF0FFFFD7
:101D10008DEF0EF0FFFF800E6B1AFFFF6DC06EF0AF
:101D20006CC06DF06EC06CF05FC06EF063C05FF0B1
:101D30006EC063F060C06EF064C060F06EC064F0AE
:101D400061C06EF065C061F06EC065F062C06EF09B
:101D500066C062F06EC066F0FFFF000E6E6E6D50E2
:101D60006CC067F0686A675E000E685A68BEC2EFB2
:101D70000EF068500AE11A0E675CD8A0C2EF0EF0B0
:101D8000C5EF0EF0FFFF08EF0FF0FFFF5F50601090
:101D900061106210D8A4CFEF0EF0D3EF0EF0FFFF6A
:101DA000010ED5EF0EF0FFFF000EFFFF6E6E000E6E
:101DB0005F6E000E606E000E616E000E626E6CC093
:101DC0006DF013EF0FF0FFFF6EA0E9EF0EF0ECEFF8
:101DD0000EF0FFFFF3EF0EF0FFFFD8906E30010919
:101DE0006E6EF6EF0EF0FFFFD8906E32FFFF5FA031
:101DF000FCEF0EF0FFEF0EF0FFFF01EF0FF0FFFF23
:101E00006E8EFFFF62346232613260325F326D2A61
:101E1000FFFF6C506D5CD8A010EF0FF013EF0FF0C8
:101E2000FFFFE3EF0EF0FFFF6BBC19EF0FF01CEFAD
:101E30000FF0FFFF69EF0FF0FFFF6D50D8A423EF05
:101E40000FF026EF0FF0FFFF31EF0FF0FFFF000E56
:101E50005F6E000E606E000E616E000E626EC0EF6F
:101E600010F0FFFF63505F266450602265506122CE
:101E70006650622262A03FEF0FF042EF0FF0FFFFCB
:101E80000DEF10F0FFFF6EA048EF0FF04BEF0FF0DB
:101E9000FFFF52EF0FF0FFFFD8906E3001096E6E1A
:101EA00055EF0FF0FFFFD8906E32FFFF5FA05BEFA2
:101EB0000FF05EEF0FF0FFFF60EF0FF0FFFF6E8E91
:101EC000FFFF62346232613260325F326D2A0DEFA1
:101ED00010F0FFFF63505F5C6450605865506158BC
:101EE0006250800A676E6650800A6758D8B07BEFF0
:101EF0000FF07EEF0FF0FFFFACEF0FF0FFFF5F5032
:101F0000635C676E60506458686E61506558696EB6
:101F1000625066586A6EFF0E67245F6EFF0E68207F
:101F2000606EFF0E6920616EFF0E6A20626E800E89
:101F30006B1A6E6C6E50D8A4A0EF0FF0A3EF0FF0E9
:101F4000FFFFB5EF0FF0FFFF010E5F26000E6022CE
:101F500061226222B5EF0FF0FFFF63505F5E6450B5
:101F6000605A6550615A6650625AFFFF5F506010B8
:101F700061106210D8A4BFEF0FF0C2EF0FF0FFFFA7
:101F800004EF10F0FFFF6E50D8A4C9EF0FF0CCEFB4
:101F90000FF0FFFF04EF10F0FFFF000E5F6E000E6A
:101FA000606E000E616E000E626EC0EF10F0FFFFFB
:101FB000D8905F366036613662366EAEE2EF0FF073
:101FC000E5EF0FF0FFFFE7EF0FF0FFFF5F80FFFF90
:101FD0006EA0EDEF0FF0F0EF0FF0FFFFF5EF0FF059
:101FE000FFFFD8806E36F8EF0FF0FFFFD8906E3607
:101FF000FFFF6D50D8B4FFEF0FF002EF10F0FFFFBE
:1020000004EF10F0FFFF6D06FFFF61AE0AEF10F066
:102010000DEF10F0FFFFD7EF0FF0FFFF000E6C6E1B
:102020006EAE15EF10F018EF10F0FFFF37EF10F065
:10203000FFFF6EC067F07F0E6716D8B422EF10F076
:1020400025EF10F0FFFF2BEF10F0FFFFFFFF010E59
:102050006C6E37EF10F0FFFF5FA031EF10F034EF40
:1020600010F0FFFF37EF10F0FFFF26EF10F0FFFF3B
:102070006C50D8B43EEF10F041EF10F0FFFF71EF5D
:1020800010F0FFFF010E5F26000E60226122622227
:1020900062A04DEF10F050EF10F0FFFF71EF10F065
:1020A000FFFF5FC067F060C068F061C069F062C0A8
:1020B0006AF06A346A3269326832673267C05FF048
:1020C00068C060F069C061F06AC062F06D28D8B481
:1020D0006CEF10F06FEF10F0FFFF71EF10F0FFFFEB
:1020E0006D2AFFFF6D28D8B478EF10F07BEF10F069
:1020F000FFFF85EF10F0FFFF6D50D8A482EF10F0C6
:1021000085EF10F0FFFF9AEF10F0FFFF000E5F6EFB
:10211000000E606E000E616E000E626E6D50D8A4EF
:1021200094EF10F097EF10F0FFFF9AEF10F0FFFF21
:10213000000E6B6EFFFF6DA0A0EF10F0A3EF10F08C
:10214000FFFFA7EF10F0FFFF618EA9EF10F0FFFF78
:10215000619EFFFFD8906D30626E6BAEB2EF10F0F3
:10216000B5EF10F0FFFFB7EF10F0FFFF628EFFFF3B
:102170005FC05FF060C060F061C061F062C062F09B
:10218000FFFF1200FFFFFFFF3050800B396E305011
:1021900030243F6E2FAECFEF10F0D2EF10F0FFFFE4
:1021A000D4EF10F0FFFF3F80FFFF3F50D8B4DBEFCC
:1021B00010F0DEEF10F0FFFFF5EF10F0FFFF3F280B
:1021C000D8A4E5EF10F0E8EF10F0FFFFF1EF10F00A
:1021D000FFFF000E2D6E000E2E6E000E2F6E000EF5
:1021E000306EFFFF2F8EFEEF10F0FFFF000E2D6E02
:1021F000000E2E6E000E2F6E000E306EFFFF34505C
:10220000800B391A345034243E6E33AE0AEF11F08D
:102210000DEF11F0FFFF0FEF11F0FFFF3E80FFFF0A
:102220003E50D8B416EF11F019EF11F0FFFF30EF68
:1022300011F0FFFF3E28D8A420EF11F023EF11F09A
:10224000FFFF2CEF11F0FFFF000E316E000E326E1B
:10225000000E336E000E346EFFFF338E39EF11F037
:10226000FFFF000E316E000E326E000E336E000E58
:10227000346EFFFF3E50D8B440EF11F043EF11F041
:10228000FFFF4DEF11F0FFFF3F50D8A44AEF11F0D0
:102290004DEF11F0FFFF58EF11F0FFFF000E2D6E14
:1022A000000E2E6E000E2F6E000E306E12EF13F029
:1022B000FFFF33502D02F3CF44F0F4CF45F04450EC
:1022C0003A6E3B6A3C6A3D6A4550406E416A426ADA
:1022D000436A32502E02F3CF44F0F4CF45F044501D
:1022E0003A26000E3B223C223D2245504026000E5D
:1022F00041224222432231502F02F3CF44F0F4CF47
:1023000045F044503A26000E3B223C223D224550E7
:102310004026000E4122422243223CC03DF03BC0F9
:102320003CF03AC03BF03A6A31502E02F3CF44F011
:10233000F4CF45F044503A2645503B22000E3C2253
:10234000000E3D2232502D02F3CF44F0F4CF45F081
:1023500044503A2645503B22000E3C22000E3D22BE
:102360003CC03DF03BC03CF03AC03BF03A6A3150D3
:102370002D02F3CF44F0F4CF45F044503A264550B7
:102380003B22000E3C22000E3D2233502E02F3CFA2
:1023900044F0F4CF45F04450402645504122000E11
:1023A0004222000E432232502F02F3CF44F0F4CFEA
:1023B00045F04450402645504122000E4222000E76
:1023C000432233502F02F3CF44F0F4CF45F0445072
:1023D000356E4550366E376A386A37C038F036C0C9
:1023E00037F035C036F0356A355040263650412238
:1023F00037504222385043223AC035F03BC036F0C5
:102400003CC037F03DC038F0190E0DEF12F0FFFF61
:10241000D8903832373236323532FFFFE82E07EFA8
:1024200012F0355040263650412237504222385063
:1024300043223CC03DF03BC03CF03AC03BF03A6A1E
:102440003E503FC035F0366A3526000E3622820EE9
:102450003524446EFF0E3620456E48EF12F0FFFF24
:10246000D89040364136423643363DAE3AEF12F010
:102470003DEF12F0FFFF3FEF12F0FFFF4080FFFF44
:10248000D8903A363B363C363D364406D8A0450611
:10249000FFFF42AE4EEF12F051EF12F0FFFF2FEFB1
:1024A00012F0FFFF000E3E6E3DAE59EF12F05CEFF2
:1024B00012F0FFFF87EF12F0FFFFFF0E3A14356EA8
:1024C000FF0E3B14366EFF0E3C14376E7F0E3D142C
:1024D000386E3550361037103810D8B472EF12F00D
:1024E00075EF12F0FFFF7BEF12F0FFFFFFFF010E11
:1024F0003E6E87EF12F0FFFF40A081EF12F084EFF5
:1025000012F0FFFF87EF12F0FFFF76EF12F0FFFFF0
:102510003E50D8B48EEF12F091EF12F0FFFFB8EFFB
:1025200012F0FFFF010E4026000E412242224322FC
:1025300043A09DEF12F0A0EF12F0FFFFB8EF12F0F2
:10254000FFFF40C035F041C036F042C037F043C015
:1025500038F03834383237323632353235C040F020
:1025600036C041F037C042F038C043F0444A452AF3
:10257000FFFF45BEC4EF12F0455009E14428D8A042
:10258000C4EF12F0C7EF12F0FFFFD2EF12F0FFFF1F
:10259000000E406E000E416E800E426E7F0E436E46
:1025A00007EF13F0FFFF45BEE1EF12F0455006E1E3
:1025B0004404D8B0DEEF12F0E1EF12F0FFFFEEEFCF
:1025C00012F0FFFF000E406E000E416E000E426ED4
:1025D000000E436E000E396E07EF13F0FFFF44C08C
:1025E0003FF0FF0E4016FF0E41167F0E4216000E02
:1025F00043163FA0FEEF12F001EF13F0FFFF03EFD1
:1026000013F0FFFF428EFFFFD8903F30436EFFFF75
:102610003950431240C02DF041C02EF042C02FF07F
:1026200043C030F0FFFF1200FFFFFFFF4950800B57
:10263000566E495049245D6E48AE21EF13F024EFE9
:1026400013F0FFFF26EF13F0FFFF5D80FFFF5D50EB
:10265000D8B42DEF13F030EF13F0FFFF49EF13F074
:10266000FFFF5D28D8A437EF13F03AEF13F0FFFF18
:1026700043EF13F0FFFF000E466E000E476E000E94
:10268000486E000E496EFFFF488E000E496E52EFF5
:1026900013F0FFFF000E466E000E476E000E486EF0
:1026A000000E496EFFFF4D50800B561A4D504D24C1
:1026B0005E6E4CAE5EEF13F061EF13F0FFFF63EF61
:1026C00013F0FFFF5E80FFFF5E50D8B46AEF13F097
:1026D0006DEF13F0FFFF86EF13F0FFFF5E28D8A425
:1026E00074EF13F077EF13F0FFFF80EF13F0FFFFAD
:1026F000000E4A6E000E4B6E000E4C6E000E4D6EBC
:10270000FFFF4C8E000E4D6E8FEF13F0FFFF000E9B
:102710004A6E000E4B6E000E4C6E000E4D6EFFFFAB
:102720004A504B104C104D10D8A499EF13F09CEF69
:1027300013F0FFFFB6EF13F0FFFF000E466E000E22
:10274000476E000E486E000E496E800E48127F0ED6
:102750004912FFFF5650491246C046F047C047F0A5
:1027600048C048F049C049F02BEF15F0FFFF5D501D
:10277000D8A4BDEF13F0C0EF13F0FFFFCBEF13F0C1
:10278000FFFF000E466E000E476E000E486E000EF4
:10279000496E2BEF15F0FFFF5E505DC04EF04F6AA3
:1027A0004E5E000E4F5A7F0E4E24576E000E4F2085
:1027B000586E46C052F047C053F048C054F049C06C
:1027C00055F0000E466E000E476E000E486E000E6D
:1027D000496E000E596E000E5A6E000E5B6E000EB2
:1027E0005C6E000E5E6E37EF14F0FFFF5E50D8B4E3
:1027F000FCEF13F0FFEF13F0FFFF1AEF14F0FFFFF1
:10280000D8905236533654365536D89046364736D9
:10281000483649365CAE0FEF14F012EF14F0FFFFAC
:1028200014EF14F0FFFF4680FFFFD89059365A3658
:102830005B365C36FFFF4A50525C4B5053584C504D
:1028400054584D505558D8A028EF14F02BEF14F0E1
:10285000FFFF35EF14F0FFFF5C8C4A50525E4B5087
:10286000535A4C50545A4D50555AFFFF5E2AFFFFA1
:10287000190E5E643EEF14F041EF14F0FFFFF5EF28
:1028800013F0FFFF5250531054105510D8B44BEFB3
:1028900014F04EEF14F0FFFF6BEF14F0FFFF5980C0
:1028A0006BEF14F0FFFFD89046364736483649366E
:1028B0005CAE5DEF14F060EF14F0FFFF62EF14F018
:1028C000FFFF4680FFFFD89059365A365B365C369C
:1028D0005706D8A05806FFFF48AE71EF14F074EF0A
:1028E00014F0FFFF52EF14F0FFFF000E5E6E5CAEBF
:1028F0007CEF14F07FEF14F0FFFFAAEF14F0FFFF5E
:10290000FF0E59144E6EFF0E5A144F6EFF0E5B14DD
:10291000506E7F0E5C14516E4E504F10501051107F
:10292000D8B495EF14F098EF14F0FFFF9EEF14F079
:10293000FFFFFFFF010E5E6EAAEF14F0FFFF46A03F
:10294000A4EF14F0A7EF14F0FFFFAAEF14F0FFFFBD
:1029500099EF14F0FFFF5E50D8B4B1EF14F0B4EF6C
:1029600014F0FFFFDBEF14F0FFFF010E4626000E10
:1029700047224822492249A0C0EF14F0C3EF14F0C7
:10298000FFFFDBEF14F0FFFF46C04EF047C04FF0F3
:1029900048C050F049C051F05134513250324F329A
:1029A0004E324EC046F04FC047F050C048F051C0C4
:1029B00049F0574A582AFFFF58BEE7EF14F0585025
:1029C00009E15728D8A0E7EF14F0EAEF14F0FFFF71
:1029D000F6EF14F0FFFF000E586E5768000E466EBB
:1029E000000E476E000E486E000E496EFFFF58BE87
:1029F00005EF15F0585006E15704D8B002EF15F076
:102A000005EF15F0FFFF14EF15F0FFFF000E586EF5
:102A1000000E576E000E466E000E476E000E486E9A
:102A2000000E496E000E566EFFFF57C05DF05DA0B0
:102A30001CEF15F01FEF15F0FFFF23EF15F0FFFF60
:102A4000488E25EF15F0FFFF489EFFFFD8905D30C0
:102A5000496EA9EF13F0FFFF1200FFFFFFFF80C0D8
:102A6000C2F081C0C3F082C0C4F083C0C5F077C09B
:102A7000C2F078C0C3F079C0C4F07AC0C5F0C2C05B
:102A80007BF0C3C07CF0C4C07DF0C5C07EF0180EE2
:102A900050EF15F0FFFFD8907E327D327C327B32D2
:102AA000FFFFE82E4AEF15F07B500001BC6FBD6BB5
:102AB000BDBF64EF15F0BD510AE1960EBC5DD8A014
:102AC00064EF15F067EF15F0FFFF72EF15F0FFFFF1
:102AD00077C077F078C078F079C079F07AC07AF072
:102AE00020EF17F0FFFFC2C07BF0C3C07CF0C4C072
:102AF0007DF0C5C07EF0200E84EF15F0FFFFD8906A
:102B00007E327D327C327B32FFFFE82E7EEF15F085
:102B10007B507C107D107E10D8B491EF15F094EFAF
:102B200015F0FFFFA7EF15F0FFFF77C001F078C0A9
:102B300002F079C003F07AC004F069EC33F001C010
:102B400077F002C078F003C079F004C07AF0FFFF9C
:102B50000001BDBFB8EF15F0BD5107E17E0EBC5DB1
:102B6000D8B0B5EF15F0B8EF15F0FFFFD5EF15F0C1
:102B7000FFFFC2C02DF0C3C02EF0C4C02FF0C5C0EF
:102B800030F0000E316E000E326E000E336E000E0D
:102B9000346EC3EC10F02DC077F02EC078F02FC04B
:102BA00079F030C07AF020EF17F0FFFF000E636E6F
:102BB000000E646E000E656E4B0E666E77C05FF0A1
:102BC00078C060F079C061F07AC062F0EFEC0DF08F
:102BD0005FC0BEF060C0BFF061C0C0F062C0C1F0B5
:102BE000000E636E000E646E000E656ECB0E666E98
:102BF000BEC05FF0BFC060F0C0C061F0C1C062F095
:102C0000EFEC0DF05FC0B8F060C0B9F061C0BAF091
:102C100062C0BBF0B8C06FF0B9C070F0BAC071F05C
:102C2000BBC072F077C073F078C074F079C075F0F3
:102C30007AC076F031EC34F06FC0C6F070C0C7F0E7
:102C400071C0C8F072C0C9F0000E016E000E026EB5
:102C5000000E036E3F0E046EC6C005F0C7C006F03E
:102C6000C8C007F0C9C008F0EBEC3BF0D8B03BEFB0
:102C700016F03EEF16F0FFFF75EF16F0FFFF77C07E
:102C800063F078C064F079C065F07AC066F0C6C0C1
:102C90005FF0C7C060F0C8C061F0C9C062F0EFEC7F
:102CA0000DF05FC0BEF060C0BFF061C0C0F062C098
:102CB000C1F0BEC05FF0BFC060F0C0C061F0C1C075
:102CC00062F0000E636E000E646E800E656EBF0EC5
:102CD000666EEFEC0DF05FC0C6F060C0C7F061C07B
:102CE000C8F062C0C9F0E2EF16F0FFFF000E016EFF
:102CF000000E026E000E036EBF0E046EC6C005F01D
:102D0000C7C006F0C8C007F0C9C008F0EBEC3BF044
:102D1000D8A08DEF16F090EF16F0FFFFC7EF16F07A
:102D2000FFFF77C063F078C064F079C065F07AC0C7
:102D300066F0C6C05FF0C7C060F0C8C061F0C9C02F
:102D400062F0EFEC0DF05FC0BEF060C0BFF061C09C
:102D5000C0F062C0C1F0BEC05FF0BFC060F0C0C0D4
:102D600061F0C1C062F0000E636E000E646E800EF2
:102D7000656E3F0E666EEFEC0DF05FC0C6F060C092
:102D8000C7F061C0C8F062C0C9F0E2EF16F0FFFF03
:102D9000C6C05FF0C7C060F0C8C061F0C9C062F0D3
:102DA00077C063F078C064F079C065F07AC066F0EF
:102DB000EFEC0DF05FC0C6F060C0C7F061C0C8F0B6
:102DC00062C0C9F0FFFFC2C07BF0C3C07CF0C4C0CA
:102DD0007DF0C5C07EF0200EF4EF16F0FFFFD89016
:102DE0007E327D327C327B32FFFFE82EEEEF16F032
:102DF0007B507C107D107E10D8B401EF17F004EFEB
:102E000017F0FFFF17EF17F0FFFFC6C001F0C7C0B4
:102E100002F0C8C003F0C9C004F069EC33F001C08F
:102E2000C6F002C0C7F003C0C8F004C0C9F0FFFF7D
:102E3000C6C077F0C7C078F0C8C079F0C9C07AF0D2
:102E4000FFFF1200FFFFFFFF1EC036F01FC037F06C
:102E500020C038F021C039F022C03AF023C03BF046
:102E600024C03CF025C03DF03DBE39EF17F03DEFEA
:102E700017F0FFFF010E3FEF17F0FFFF000EFFFFFF
:102E8000346E356A34503510D8B449EF17F04CEF32
:102E900017F0FFFF5DEF17F0FFFF3D1E3C1E3B1ECE
:102EA0003A1E391E381E371E366C000E3722382265
:102EB00039223A223B223C223D22FFFF000189BFFA
:102EC00064EF17F067EF17F0FFFF69EF17F0FFFFF0
:102ED0008A93FFFF89BF78EF17F0895106E18805D3
:102EE000D8B075EF17F078EF17F0FFFF7FEF17F00E
:102EF000FFFF000E316E010E306E84EF17F0FFFF02
:102F000088C030F089C031F0FFFF86C032F087C042
:102F100033F034503510D8A490EF17F093EF17F03A
:102F2000FFFF9CEF17F0FFFF8AA599EF17F09CEFCA
:102F300017F0FFFFA0EF17F0FFFF3206D8A033060F
:102F4000FFFF000E3F6E1F0E3E6E000EB76F26EFA6
:102F500018F0FFFF3E06D8A03F06980E3E24D96E1B
:102F6000000E3F20DA6E36C001F037C002F038C0E4
:102F700003F039C004F03AC005F03BC006F03CC095
:102F800007F03DC008F00A0E096E000E0A6E000E32
:102F90000B6E000E0C6E000E0D6E000E0E6E000E0F
:102FA0000F6E000E106EB8EC3DF001C026F002C0AE
:102FB00027F003C028F004C029F005C02AF006C09D
:102FC0002BF007C02CF008C02DF026C013F028C04D
:102FD00014F056EC34F01350300FDF6E3006D8A0EA
:102FE00031063206D8A0330636C001F037C002F0F1
:102FF00038C003F039C004F03AC005F03BC006F019
:103000003CC007F03DC008F00A0E096E000E0A6EC3
:10301000000E0B6E000E0C6E000E0D6E000E0E6E8E
:10302000000E0F6E000E106E80EC3EF001C036F008
:1030300002C037F003C038F004C039F005C03AF0E0
:1030400006C03BF007C03CF008C03DF0FFFF3FBEAC
:1030500032EF18F03F5009E13E04D8A032EF18F0EB
:1030600035EF18F0FFFF6EEF18F0FFFF3650371006
:10307000381039103A103B103C103D10D8A443EFE3
:1030800018F046EF18F0FFFFA9EF17F0FFFF31BE71
:1030900055EF18F0315006E13004D8B052EF18F077
:1030A00055EF18F0FFFFA9EF17F0FFFF33BE61EFF8
:1030B00018F0335009E13204D8A061EF18F064EF42
:1030C00018F0FFFF6EEF18F0FFFF00018AB36BEFFF
:1030D00018F06EEF18F0FFFFA9EF17F0FFFF345064
:1030E0003510D8A476EF18F079EF18F0FFFF83EFD2
:1030F00018F0FFFF00018AA580EF18F083EF18F0A9
:10310000FFFFA6EF18F0FFFF3E06D8A03F063450A1
:103110003510D8A48EEF18F091EF18F0FFFF98EF5C
:1031200018F0FFFF000E2F6E2B0E2E6E9DEF18F085
:10313000FFFF000E2F6E2D0E2E6EFFFF980E3E2409
:10314000D96E000E3F20DA6E2EC0DFFFFFFF1CC0DD
:1031500011F01DC012F0980E3E24136E000E3F2099
:10316000146E32C015F033C016F082EC39F011C085
:103170001CF012C01DF01200FFFFFFFF000189BF0D
:10318000C4EF18F0C7EF18F0FFFFC9EF18F0FFFF0A
:103190008A93FFFF89BFD8EF18F0895106E18805AF
:1031A000D8B0D5EF18F0D8EF18F0FFFFDFEF18F028
:1031B000FFFF000E346E010E336EE4EF18F0FFFFD8
:1031C00088C033F089C034F0FFFF86C035F087C077
:1031D00036F08AA9EEEF18F0F1EF18F0FFFFF6EFE6
:1031E00018F0FFFFFE0E3526FF0E3622FFFF1EC031
:1031F00037F01FC038F020C039F021C03AF022C0AB
:103200003BF023C03CF024C03DF025C03EF0000E52
:10321000406E1F0E3F6E000EB76FD4EF19F0FFFF28
:103220003F06D8A040060F0E3714416E426A42BED8
:1032300023EF19F042500AE10A0E415CD8A023EFB7
:1032400019F026EF19F0FFFF2FEF19F0FFFF570ECF
:103250004124416E000E4220426E36EF19F0FFFF0E
:10326000300E4124416E000E4220426EFFFFBF0E21
:10327000276EFF0E286E2650296E2A6A27502926AF
:1032800028502A222A500BE11A0E295CD8A04BEFB5
:1032900019F04FEF19F0FFFF010E51EF19F0FFFF8A
:1032A000000EFFFF2F6E306A2F503010D8B45BEF46
:1032B00019F05EEF19F0FFFF94EF19F0FFFF9F0E7A
:1032C000276EFF0E286E200E4110296E000E421050
:1032D0002A6E2750292628502A222A500BE11A0E3E
:1032E000295CD8A076EF19F07AEF19F0FFFF010EF4
:1032F0007CEF19F0FFFF000EFFFF316E326A315094
:103300003210D8B486EF19F089EF19F0FFFF94EF6F
:1033100019F0FFFF41C007F042C008F068EC35F03B
:1033200007C041F008C042F0FFFF980E3F24D96E5D
:10333000000E4020DA6E41C0DFFF3306D8A034060D
:103340003506D8A0360637C027F038C028F039C077
:1033500029F03AC02AF03BC02BF03CC02CF03DC015
:103360002DF03EC02EF0050EC0EF19F0FFFFD890F3
:103370002E322D322C322B322A3229322832273269
:10338000FFFFE82EB6EF19F027C037F028C038F05D
:1033900029C039F02AC03AF02BC03BF02CC03CF0D9
:1033A0002DC03DF02EC03EF0FFFF40BEE1EF19F012
:1033B00040500AE1020E3F5CD8A0E1EF19F0E4EFC3
:1033C00019F0FFFF1DEF1AF0FFFF375038103910CA
:1033D0003A103B103C103D103E10D8A4F2EF19F00B
:1033E000F5EF19F0FFFF0FEF19F0FFFF34BE04EF08
:1033F0001AF0345006E13304D8B001EF1AF004EFAC
:103400001AF0FFFF0FEF19F0FFFF36BE10EF1AF0B2
:10341000365009E13504D8A010EF1AF013EF1AF076
:10342000FFFF1DEF1AF0FFFF00018AB31AEF1AF039
:103430001DEF1AF0FFFF0FEF19F0FFFF00018AA93F
:1034400024EF1AF027EF1AF0FFFF3EEF1AF0FFFF0C
:103450003F06D8A04006980E3F24D96E000E4020AB
:10346000DA6E26C0DFFF3F06D8A04006980E3F2444
:10347000D96E000E4020DA6E300EDF6EFFFF1CC0EA
:1034800011F01DC012F0980E3F24136E000E402064
:10349000146E35C015F036C016F082EC39F011C04C
:1034A0001CF012C01DF01200FFFFFFFF000189BFDA
:1034B0005CEF1AF05FEF1AF0FFFF61EF1AF0FFFF09
:1034C0008A93FFFF89BF70EF1AF0895106E18805E2
:1034D000D8B06DEF1AF070EF1AF0FFFF77EF1AF027
:1034E000FFFF000E2F6E010E2E6E7CEF1AF0FFFF15
:1034F00088C02EF089C02FF0FFFF86C030F087C053
:1035000031F01EC032F01FC033F020C034F021C0B3
:1035100035F022C036F023C037F024C038F025C083
:1035200039F0000E3B6E1F0E3A6E000EB76F10EFB3
:103530001BF0FFFF3A06D8A03B06980E3A24D96E3E
:10354000000E3B20DA6E32C001F033C002F034C00E
:1035500003F035C004F036C005F037C006F038C0BF
:1035600007F039C008F00A0E096E000E0A6E000E50
:103570000B6E000E0C6E000E0D6E000E0E6E000E29
:103580000F6E000E106EF5EC39F001C026F002C08F
:1035900027F003C028F004C029F005C02AF006C0B7
:1035A0002BF007C02CF008C02DF02650300FDF6E36
:1035B0002E06D8A02F063006D8A0310632C001F062
:1035C00033C002F034C003F035C004F036C005F05B
:1035D00037C006F038C007F039C008F00A0E096E8F
:1035E000000E0A6E000E0B6E000E0C6E000E0D6EBD
:1035F000000E0E6E000E0F6E000E106E66EC3BF0AD
:1036000001C032F002C033F003C034F004C035F022
:1036100005C036F006C037F007C038F008C039F0F2
:10362000FFFF3A503B10D8B418EF1BF01BEF1BF014
:10363000FFFF54EF1BF0FFFF3250331034103510F2
:103640003610371038103910D8A429EF1BF02CEFA2
:103650001BF0FFFF99EF1AF0FFFF2FBE3BEF1BF0AF
:103660002F5006E12E04D8B038EF1BF03BEF1BF0D3
:10367000FFFF99EF1AF0FFFF31BE47EF1BF031500B
:1036800009E13004D8A047EF1BF04AEF1BF0FFFF21
:1036900054EF1BF0FFFF00018AB351EF1BF054EF12
:1036A0001BF0FFFF99EF1AF0FFFF1CC011F01DC0C7
:1036B00012F0980E3A24136E000E3B20146E30C0A8
:1036C00015F031C016F082EC39F011C01CF012C0B8
:1036D0001DF01200FFFFFFFF000189BF72EF1BF01A
:1036E00075EF1BF0FFFF77EF1BF0FFFF8A93FFFFE3
:1036F00089BF86EF1BF0895106E18805D8B083EFBA
:103700001BF086EF1BF0FFFF8DEF1BF0FFFF000E9D
:103710002F6E010E2E6E92EF1BF0FFFF88C02EF071
:1037200089C02FF0FFFF86C032F087C033F01EC083
:1037300034F01FC035F020C036F021C037F022C071
:1037400038F023C039F024C03AF025C03BF0000E19
:103750003D6E1F0E3C6E000EB76F000E316E000EF8
:10376000306EFBEF1BF0FFFF3C06D8A03D06070EB6
:103770003414306E316A980E3C24D96E000E3D2010
:10378000DA6E3050300FDF6E2E06D8A02F063206CC
:10379000D8A0330634C026F035C027F036C028F054
:1037A00037C029F038C02AF039C02BF03AC02CF0CD
:1037B0003BC02DF0040EE7EF1BF0FFFFD8902D3239
:1037C0002C322B322A322932283227322632FFFF7E
:1037D000E82EDDEF1BF026C034F027C035F028C0FE
:1037E00036F029C037F02AC038F02BC039F02CC091
:1037F0003AF02DC03BF0FFFF3DBE07EF1CF03D50FF
:1038000009E13C04D8A007EF1CF00AEF1CF0FFFF11
:1038100043EF1CF0FFFF34503510361037103810CE
:1038200039103A103B10D8A418EF1CF01BEF1CF015
:10383000FFFFB3EF1BF0FFFF2FBE2AEF1CF02F504E
:1038400006E12E04D8B027EF1CF02AEF1CF0FFFF92
:10385000B3EF1BF0FFFF33BE36EF1CF0335009E12E
:103860003204D8A036EF1CF039EF1CF0FFFF43EF15
:103870001CF0FFFF00018AB340EF1CF043EF1CF087
:10388000FFFFB3EF1BF0FFFF00018AA94AEF1CF016
:103890004DEF1CF0FFFF67EF1CF0FFFF30503110C1
:1038A000D8B455EF1CF058EF1CF0FFFF67EF1CF089
:1038B000FFFF3C06D8A03D06980E3C24D96E000EB2
:1038C0003D20DA6E300EDF6E3206D8A03306FFFFE1
:1038D0001CC011F01DC012F0980E3C24136E000E97
:1038E0003D20146E32C015F033C016F082EC39F072
:1038F00011C01CF012C01DF01200FFFFFFFF276E69
:103900002750D8B486EF1CF089EF1CF0FFFFAEEF14
:103910001CF0FFFF22BE92EF1CF08FEF1CF0FFFFA8
:10392000AEEF1CF0FFFF1FC023F020C024F021C029
:1039300025F022C026F0231E241E251E261E232A23
:10394000000E24222522262223C029F024C02AF09A
:1039500025C02BF026C02CF0B7EF1CF0FFFF1FC0D6
:1039600029F020C02AF021C02BF022C02CF0FFFF4C
:103970001F50201021102210D8A4C1EF1CF0C4EF5A
:103980001CF0FFFFCFEF1CF0FFFF000E1F6E000EBC
:10399000206E000E216E000E226E77EF1DF0FFFFED
:1039A000960E286EDBEF1CF0FFFF282AD8902C32F1
:1039B0002B322A322932FFFF000E2914236E000E0B
:1039C0002A14246E000E2B14256EFE0E2C14266E67
:1039D0002350241025102610D8A4F1EF1CF0F4EF8A
:1039E0001CF0FFFFD4EF1CF0FFFF04EF1DF0FFFF02
:1039F000282A010E2926000E2A222B222C22D890BA
:103A00002C322B322A322932FFFF000E2914236E6A
:103A1000000E2A14246E000E2B14256EFF0E2C149B
:103A2000266E2350241025102610D8A41AEF1DF05E
:103A30001DEF1DF0FFFFF7EF1CF0FFFF27EF1DF05C
:103A4000FFFF2806D89029362A362B362C36FFFF62
:103A50002BBE2DEF1DF030EF1DF0FFFF3AEF1DF0F4
:103A6000FFFF020E286037EF1DF03AEF1DF0FFFF59
:103A700020EF1DF0FFFF28B040EF1DF043EF1DF0D9
:103A8000FFFF45EF1DF0FFFF2B9EFFFFD890283270
:103A900028C023F0246A256A266A23C026F0256AF6
:103AA000246A236A2350291224502A1225502B12EB
:103AB00026502C122750D8B460EF1DF063EF1DF094
:103AC000FFFF6EEF1DF0FFFF22BE6CEF1DF069EFF0
:103AD0001DF0FFFF6EEF1DF0FFFF2C8EFFFF29C0D2
:103AE0001FF02AC020F02BC021F02CC022F0FFFFD5
:103AF0001200FFFFFFFF20EEDEF010EE0FF0060ECB
:103B0000DBCFE3FFE806FCE20CC01AF00DC01BF0AF
:103B10001A501B10D8A48FEF1DF092EF1DF0FFFF7D
:103B200097EF1DF0FFFF0F0E1A6E000E1B6EFFFFCA
:103B30001AC001F01BC002F0A4EC34F001C01EF06A
:103B400002C01FF088C01CF089C01DF01DBEABEF85
:103B50001DF0AEEF1DF0FFFFC7EF1DF0FFFF1E5081
:103B60001C5C1D50800A0E6E1F50800A0E58D8A093
:103B7000BCEF1DF0BFEF1DF0FFFFC2EF1DF0FFFF18
:103B8000C7EF1DF0FFFF1CC01EF01DC01FF0FFFFA0
:103B90001EC01CF01FC01DF086C018F087C019F0B1
:103BA00000018AB1D6EF1DF0D9EF1DF0FFFFFAEF4B
:103BB0001DF0FFFFE9EF1DF0FFFF000E026E200E6B
:103BC000016E0AC003F00BC004F011EC39F01E4A7C
:103BD0001F2AFFFF18501E5C1F50800A0E6E1950DE
:103BE000800A0E58D8A0F7EF1DF0FAEF1DF0FFFF86
:103BF000DCEF1DF0FFFF000E176E000E166E21EFBA
:103C00001EF0FFFF1AC0F6FF1BC0F7FFF86A050E93
:103C1000F76404D00800FFFFF55005D0F6CFE1FFB0
:103C2000F7CFE2FFE7500E6E0E50016E026A0AC037
:103C300003F00BC004F011EC39F01A4A1B2A164AA3
:103C4000172AFFFF1C50165C1750800A0E6E1D507D
:103C5000800A0E58D8A02FEF1EF032EF1EF0FFFFA3
:103C600001EF1EF0FFFF00018AA139EF1EF03CEFCB
:103C70001EF0FFFF5DEF1EF0FFFF4CEF1EF0FFFF99
:103C8000000E026E200E016E0AC003F00BC004F09D
:103C900011EC39F01E4A1F2AFFFF18501E5C1F50FE
:103CA000800A0E6E1950800A0E58D8A05AEF1EF0E6
:103CB0005DEF1EF0FFFF3FEF1EF0FFFF1EC00AF09A
:103CC0001FC00BF01200FFFFFFFF000E166E000E6C
:103CD000156E000E0F6E000E0E6E72EF1EF0FFFFDF
:103CE000084A092AFFFF010E146E08C0F6FF09C03A
:103CF000F7FF0800FFFFF550200AD8B482EF1EF04E
:103D000085EF1EF0FFFFA6EF1EF0FFFFF70E0A6E15
:103D1000FF0E0B6E08C0F6FF09C0F7FF0800FFFF9B
:103D2000F5500C6E0D6A0A500C260B500D220D50EA
:103D30000AE1050E0C5CD8A0A0EF1EF0A3EF1EF068
:103D4000FFFFA6EF1EF0FFFF000E146EFFFF14C072
:103D500010F0116A10501110D8A4B1EF1EF0B4EF9A
:103D60001EF0FFFF6FEF1EF0FFFFC1EF1EF0FFFF21
:103D7000000E0F6E010E0E6EFFFF084A092AFBEFC0
:103D80001EF0FFFF08C0F6FF09C0F7FF0800FFFFA5
:103D9000F5500A6E0B6A0B50000AD8B4D2EF1EF031
:103DA000FBEF1EF0FFFF0A502B0AD8B4BCEF1EF049
:103DB000060AD8B4B7EF1EF0FBEF1EF0FFFF15C0E8
:103DC00001F016C002F0000E046E0A0E036EEBEC5A
:103DD00032F008C0F6FF09C0F7FF0800FFFFF550FA
:103DE000015E000E025A300E0124156E000E0220F4
:103DF000166EBCEF1EF0FFFFD00E0A6EFF0E0B6EAC
:103E000008C0F6FF09C0F7FF0800FFFFF5500C6E71
:103E10000D6A0A500C260B500D220D500BE10A0EB4
:103E20000C5CD8A016EF1FF01AEF1FF0FFFF010E79
:103E30001CEF1FF0FFFF000EFFFF126E136A1250FF
:103E40001310D8A426EF1FF029EF1FF0FFFFDEEFBD
:103E50001EF0FFFF0E500F10D8A431EF1FF034EF0B
:103E60001FF0FFFF43EF1FF0FFFF15C00AF016C061
:103E70000BF00A1E0B1E0A4A0B2A0AC008F00BC0E0
:103E800009F048EF1FF0FFFF15C008F016C009F059
:103E9000FFFF1200FFFFFFFF056E0550D6EC32F06A
:103EA0000504D8A456EF1FF059EF1FF0FFFF64EF91
:103EB0001FF0FFFF03C0D9FF04C0DAFF010EDE6E62
:103EC000000EDD6EF7EF1FF0FFFF020E0518D8A4FD
:103ED0006CEF1FF06FEF1FF0FFFF7AEF1FF0FFFF97
:103EE00003C0D9FF04C0DAFF030EDE6E000EDD6EE4
:103EF000F7EF1FF0FFFF040E0518D8A482EF1FF0A4
:103F000085EF1FF0FFFF90EF1FF0FFFF03C0D9FF09
:103F100004C0DAFF040EDE6E000EDD6EF7EF1FF058
:103F2000FFFF080E0518D8A498EF1FF09BEF1FF0B5
:103F3000FFFFA6EF1FF0FFFF03C0D9FF04C0DAFFA9
:103F4000070EDE6E000EDD6EF7EF1FF0FFFF100EA6
:103F50000518D8A4AEEF1FF0B1EF1FF0FFFFBCEFC4
:103F60001FF0FFFF03C0D9FF04C0DAFF020EDE6EB0
:103F7000000EDD6EF7EF1FF0FFFF400E0518D8A40E
:103F8000C4EF1FF0C7EF1FF0FFFFD2EF1FF0FFFFDE
:103F900003C0D9FF04C0DAFF080EDE6E000EDD6E2E
:103FA000F7EF1FF0FFFF800E0518D8A4DAEF1FF01F
:103FB000DDEF1FF0FFFFE0EF1FF0FFFFF7EF1FF057
:103FC000FFFF200E0518D8A4E8EF1FF0EBEF1FF05D
:103FD000FFFFEEEF1FF0FFFFF7EF1FF0FFFF03C043
:103FE000D9FF04C0DAFF000EDE6E000EDD6EFFFFAB
:103FF0001200FFFFFFFF016E01C083FF1200FFFFF1
:10647400FFFF1200FFFFFFFF9E9A9D8AF28C12001D
:10648400FFFFFFFFAECF01F0000EAE6E0150120011
:02649400FFFF08
:10649700286E756C6C29000AD7A33CBD378634007B
:1064A700008041FFFF016E01C0ADFFFFFFACA25F9F
:1064B700EF32F062EF32F0FFFF59EF32F0FFFF12D9
:1064C70000FFFF3B7FC97EBB7F6C7FA97FC47FB284
:1064D7007F097F10002000400080000100020004B7
:1064E700000800FFFF000ED56E960ED66E980ED7E9
:1064F7006EF28AD59CD59AD596D580D582D584D586
:106507008E1200FFFFFFFF000EBD6E0A0E0001D4C2
:106517006FD70ED56FA30ED66F3B0ED76F6DEC37C7
:10652700F0BD86BD841200FFFFFFFFFFFFD8EC35EB
:10653700F0C90E0001D41906E1D529D8A4A6EF3277
:10654700F0A9EF32F0FFFF99EF32F0FFFF1200FFE3
:10655700FFFFFF000E896E000E806EF00E926E0038
:106567000EC26EC296C298C28AC280000EC46E0066
:106577000EC36E000EC16E1200FFFFFFFF026E8496
:10658700820250FAEC1FF08494C80EFFFF00F0E877
:106597002EFCD78492C80EFFFF00F0E82EFCD784AC
:1065A700821200FFFFFFFF026E84820250FAEC1F87
:1065B700F08484C80EFFFF00F0E82EFCD78492C851
:1065C7000EFFFF00F0E82EFCD784821200FFFFFFCA
:1065D700FF01500302F3CF05F0F4CF06F00150049A
:1065E70002F350062602500302F350062605C001A7
:1065F700F006C002F01200FFFFFFFF000E896E00D9
:106607000E806EF00E926E000E8A6E000E816E0086
:106617000E936E000E8B6E000E826E9494948E9481
:106627009C1200FFFFFFFFC80E0001CC6F000ECDCC
:106637006FC2C070F0C3C071F0C4C072F0C5C07340
:10664700F0C6C074F0C7C075F0CC0E766E000E773A
:106657006E1BEC3DF01200FFFFFFFF20EE04F00180
:1066670050D9260250DA22DECF03F0DDCF04F00343
:106677001E041E034A042A20EE04F00150D9260204
:1066870050DA2203C0DEFF04C0DDFF1200FFFFFF68
:10669700FF01C0D9FF02C0DAFFDECF03F0DDCF0470
:1066A700F0D8900336043601C005F002C006F003A7
:1066B70050052604500622060E0524D96E000E0644
:1066C70020DA6EDF508A6E1200FFFFFFFF015002D3
:1066D7001003100410D8B473EF33F076EF33F0FFE4
:1066E700FF7FEF33F0FFFF000E011A000E021A00C2
:1066F7000E031A800E041AFFFF01C001F002C00248
:10670700F003C003F004C004F01200FFFFFFFF55C1
:106717000E776E550E786EC80E796E410E7A6E2E14
:10672700EC15F077C0CAF078C0CBF079C0CCF07A1E
:10673700C0CDF07FEC3CF00001CA51AF6EAC9CAC11
:106747008AAC98AC84AB8EAB9CAB881200FFFFFF82
:10675700FFD00E036EFF0E046E01C005F002C006E7
:10676700F0035005260450062206500BE10A0E05D9
:106777005CD8A0C1EF33F0C5EF33F0FFFF010EC7C0
:10678700EF33F0FFFF000EFFFF016E026A1200FFFA
:10679700FFFFFFBF0E036EFF0E046E01C005F00280
:1067A700C006F0035005260450062206500BE11AD6
:1067B7000E055CD8A0E2EF33F0E6EF33F0FFFF0100
:1067C7000EE8EF33F0FFFF000EFFFF016E026A12C3
:1067D70000FFFFFFFF9F0E036EFF0E046E01C00553
:1067E700F002C006F0035005260450062206500B9F
:1067F700E11A0E055CD8A003EF34F007EF34F0FF81
:10680700FF010E09EF34F0FFFF000EFFFF016E02DC
:106817006A1200FFFFFFFF9F0E036EFF0E046E203C
:106827000E0110056E000E0210066E0350052604B9
:1068370050062206500BE11A0E055CD8A026EF344D
:10684700F02AEF34F0FFFF010E2CEF34F0FFFF00CA
:106857000EFFFF016E026A1200FFFFFFFF000E73BB
:106867001A000E741A000E751A800E761A6FC05F22
:10687700F070C060F071C061F072C062F073C06305
:10688700F074C064F075C065F076C066F0EFEC0D8B
:10689700F05FC06FF060C070F061C071F062C072ED
:1068A700F01200FFFFFFFF14BE65EF34F01450062F
:1068B700E11304D8B062EF34F065EF34F0FFFF74F2
:1068C700EF34F0FFFF13C015F014C016F0151E16B5
:1068D7001E154A162A15C013F016C014F079EF34A6
:1068E700F0FFFF13C013F014C014F0FFFF1200FFF6
:1068F700FFFFFF000E106E000E0F6E8FEF34F0FFDC
:10690700FF0EC001F0026A0CC003F00DC004F011C5
:10691700EC39F00F4A102AFFFF0F500A24D96E10E6
:10692700500B20DA6EDF500E6E0E50D8A49EEF3457
:10693700F0A1EF34F0FFFF83EF34F0FFFF1200FF09
:10694700FFFFFF01C003F002C004F0AEEF34F0FF19
:10695700FF014A022AFFFF01C0F6FF02C0F7FFF856
:106967006A050EF76404D00800FFFFF55005D0F65E
:10697700CFE1FFF7CFE2FFE7500009D8A4C6EF3415
:10698700F0C9EF34F0FFFFABEF34F0FFFF03500126
:106997005C016E04500258026E1200FFFFFFFF01F8
:1069A7000E076E200E01180210D8B4DDEF34F0E0A8
:1069B700EF34F0FFFFFCEF34F0FFFFF70E036EFF3D
:1069C7000E046E01C005F002C006F0035005260450
:1069D70050062206500AE1050E055CD8A0F6EF34F2
:1069E700F0F9EF34F0FFFFFCEF34F0FFFF000E0784
:1069F7006EFFFF07C001F0026A1200FFFFFFFF00F2
:106A07000186518711D8A40BEF35F00EEF35F0FF53
:106A1700FF15EF35F0FFFF86C01FF087C020F01C81
:106A2700EF35F0FFFFFF0E86251F6EFF0E87212033
:106A37006EFFFF1EC098F0000E996F1CC011F01D6D
:106A4700C012F0980E136E000E146E1FC015F020C2
:106A5700C016F082EC39F011C01CF012C01DF01204
:106A670000FFFFCA0EF66E640EF76E000EF86E0199
:106A7700EEDDF010EE20F00900F5CFEEFFE550E176
:106A870050FAE1970EF66E640EF76E000EF86E0080
:106A9700EEDEF010EE13F00900F5CFEEFFE550E162
:106AA70050FAE101EEA3F03A0EEE6AE806FDE100C6
:106AB700EE80F0380EEE6AE806FDE17F907F9200E7
:106AC7000EF86E000131EF0AF0FFFF9F0E096EFF0F
:106AD7000E0A6E07C00BF008C00CF009500B260A0F
:106AE700500C220C500BE11A0E0B5CD8A07EEF3530
:106AF700F082EF35F0FFFF010E84EF35F0FFFF0066
:106B07000EFFFF0D6E0E6A0D500E10D8B48EEF35C6
:106B1700F091EF35F0FFFF98EF35F0FFFF5F0E07BD
:106B270014076E086A9DEF35F0FFFF07C007F008EE
:106B3700C008F0FFFF1200FFFFFFFF6AC06EF06B97
:106B4700C06FF0000E0001856F000E846FC0EF3537
:106B5700F0FFFF68C043F069C044F06E0E456E0059
:106B67000E466E6CC047F06DC048F03DEC00F04338
:106B7700500001842744508523FFFF6EC0F6FF6F46
:106B8700C0F7FF0800FFFFF5500009D8A4CEEF3586
:106B9700F0D1EF35F0FFFFACEF35F0FFFF84C068B1
:106BA700F085C069F01200FFFFFFFFC284FFFFC23C
:106BB700B4E0EF35F0E3EF35F0FFFFDAEF35F0FF44
:106BC700FF000E316E000E326E800E336E3E0E34B5
:106BD7006EC4501F6E206A216A226A010E7EEC1C69
:106BE700F01FC02DF020C02EF021C02FF022C030A2
:106BF700F0C3EC10F02DC0CAF02EC0CBF02FC0CCE4
:106C0700F030C0CDF07FEC3CF0C90E0001CA25D4AE
:106C17006FFF0ECB21D56F1200FFFFFFFF20EE02A3
:106C2700F00750D9260850DA220950DE5CDE508082
:106C37000A0D6E0A50800A0D58D8A025EF36F028A5
:106C4700EF36F0FFFF39EF36F0FFFF20EE02F007D7
:106C570050D9260850DA22000EDE6E000EDD6E00D7
:106C67000E086E010E076E4AEF36F0FFFF07C001F0
:106C7700F008C002F04BEC33F007C001F008C00287
:106C8700F036EC38F0000E086E000E076EFFFF12AC
:106C970000FFFFFFFF836A000E956E846A000E9661
:106CA7006E849284941E0E036E3C0EFFFFE82EFD49
:106CB700D7032EFBD700D08482380EC1EC32F01EEA
:106CC7000E036E3C0EFFFFE82EFDD7032EFBD70009
:106CD700D0380EC1EC32F01E0E036E3C0EFFFFE8FB
:106CE7002EFDD7032EFBD700D0380EC1EC32F008AB
:106CF7000EC1EC32F00F0EC1EC32F0010EC1EC32D6
:106D0700F0380EC1EC32F0800EC1EC32F01200FF09
:106D1700FFFFFF000E076EACEF36F0FFFF075003D3
:106D270024056E000E0420066E05C0F6FF06C0F7A8
:106D3700FFF86A050EF76404D00800FFFFF5500559
:106D4700D0F6CFE1FFF7CFE2FFE750D6EC32F007FE
:106D57002AFFFF07500324056E000E0420066E0568
:106D6700C0F6FF06C0F7FFF86A050EF76404D008FF
:106D770000FFFFF55005D0F6CFE1FFF7CFE2FFE7C1
:106D8700500009D8A4CAEF36F0CDEF36F0FFFF91D7
:106D9700EF36F0FFFF1200FFFFFFFF01C0D9FF0230
:106DA700C0DAFF020EDE18DE10D8A4DDEF36F0E001
:106DB700EF36F0FFFFE5EF36F0FFFF100E056E111F
:106DC700EF37F0FFFF01C0D9FF02C0DAFFDE50DE68
:106DD70010D8A4F1EF36F0F4EF36F0FFFFF9EF36F5
:106DE700F0FFFF090E056E11EF37F0FFFF01C0D965
:106DF700FF02C0DAFF080EDE18DE10D8A406EF3750
:106E0700F009EF37F0FFFF0EEF37F0FFFF400E05F9
:106E17006E11EF37F0FFFF800E056EFFFF05501272
:106E270000FFFFFFFF000E106E000E0F6EFFFFD872
:106E3700900F34D96E1034DA6E0950D9260A50DA19
:106E4700220FC00BF010C00CF0D8900B360C360197
:106E5700C00DF002C00EF00B500D260C500E22068E
:106E67000E0D24E16E000E0E20E26EDECFE6FFDD92
:106E7700CFE5FF0F4A102A10BE4BEF37F010500A2C
:106E8700E1040E0F5CD8A04BEF37F04EEF37F0FF61
:106E9700FF1AEF37F0FFFF01C0D9FF02C0DAFF0387
:106EA700C0DEFF04C0DDFF20EE02F00150D926024C
:106EB70050DA2205C0DEFF06C0DDFF20EE04F00138
:106EC70050D9260250DA2207C0DEFF08C0DDFF12C4
:106ED70000FFFFFFFFBD0E316E370E326E860E3399
:106EE7006E350E346EEDC02DF0EEC02EF0EFC02FD4
:106EF700F0F0C030F0C3EC10F02DC04AF02EC04BBC
:106F0700F02FC04CF030C04DF06F0E466E120E479A
:106F17006E830E486E3A0E496E15EC13F046C0CAE2
:106F2700F047C0CBF048C0CCF049C0CDF07FEC3C77
:106F3700F0CAC0DAF0CBC0DBF0DAC0DCF00001DC6D
:106F4700A1A8EF37F0ABEF37F0FFFFAFEF37F0FF58
:106F5700FFBD88B1EF37F0FFFFBD98FFFFDCA3B798
:106F6700EF37F0BAEF37F0FFFFBEEF37F0FFFFBDA7
:106F77008AC0EF37F0FFFFBD9AFFFFDAC0D8F0DB1A
:106F8700C0D9F0D890D933D833D890D933D833D89B
:106F970051BE6E1200FFFFFFFF000ECA6E000ECC3F
:106FA7006ECA84CA80CA82000E636E000E646E8049
:106FB7000E656EBF0E666EBD0E316E370E326E8673
:106FC7000E336E360E346EEDC02DF0EEC02EF0EFA0
:106FD700C02FF0F0C030F0C3EC10F02DC04AF02EF7
:106FE700C04BF02FC04CF030C04DF00A0E466ED7A4
:106FF7000E476EA30E486E3C0E496E15EC13F04615
:10700700C05FF047C060F048C061F049C062F0EF70
:10701700EC0DF05FC0D4F060C0D5F061C0D6F0626F
:10702700C0D7F0000E316E000E326E800E336E4008
:107037000E346ED4C02DF0D5C02EF0D6C02FF0D7A9
:10704700C030F0C3EC10F02DC0CAF02EC0CBF02F2B
:10705700C0CCF030C0CDF07FEC3CF00001CA51CB82
:107067006E1200FFFFFFFF20EE04F00150D9260249
:1070770050DA22DECF03F0DDCF04F001C0D9FF02E2
:10708700C0DAFFDECF05F0DDCF06F003500526049A
:1070970050062201C0D9FF02C0DAFF05C0DEFF0695
:1070A700C0DDFF20EE02F00150D9260250DA22DEC1
:1070B700CF03F0DDCF04F0010E0326000E042220DB
:1070C700EE02F00150D9260250DA2203C0DEFF0497
:1070D700C0DDFF01C0D9FF02C0DAFFDE2806E1DE0E
:1070E70028D8A479EF38F07CEF38F0FFFF87EF3826
:1070F700F0FFFF01C0D9FF02C0DAFF030EDE6E000A
:107107000EDD6EA0EF38F0FFFF01C0D9FF02C0DA35
:10711700FF040EDE18DE10D8A494EF38F097EF388E
:10712700F0FFFFA0EF38F0FFFF01C0D9FF02C0DA80
:10713700FF000EDE6E000EDD6EFFFF1200FFFFFF89
:10714700FF000E1A6E050E196E3F0E0001D62513AD
:107157006E000ED721146E56EC34F013C017F014DE
:10716700C018F06AEC3AF017C01FF018C020F00002
:107177000E20BEFF0E216E226E010E7EEC1CF01F4C
:10718700C0D8F020C0D9F021C0DAF022C0DBF0D897
:10719700C001F0D9C002F0DAC003F0DBC004F00090
:1071A7000E056E000E066E400E076E410E086EEB62
:1071B700EC3BF0D8A0E2EF38F0E5EF38F0FFFF083E
:1071C700EF39F0FFFF000E016E000E026E500E0346
:1071D7006E410E046ED8C005F0D9C006F0DAC007BC
:1071E700F0DBC008F0EBEC3BF0D8A0FDEF38F00087
:1071F700EF39F0FFFF08EF39F0FFFF000E0001D76E
:107207006F010ED66F0EEF39F0FFFF000E0001D7AA
:107217006F000ED66FFFFF1200FFFFFFFF03500442
:1072270010D8B419EF39F01CEF39F0FFFF27EF3909
:10723700F0FFFF03500410D8A424EF39F027EF39EB
:10724700F0FFFF2DEF39F0FFFF01503AEC32F07FEE
:10725700EF39F0FFFF20EE04F00350D9260450DA8F
:1072670022DE50DE10D8B43BEF39F03EEF39F0FFA5
:10727700FF5BEF39F0FFFF20EE04F00350D926043F
:1072870050DA2210EE02F00350E1260450E222DE2B
:1072970050E65CE650800A096EDE50800A0958D82D
:1072A700B058EF39F05BEF39F0FFFF7FEF39F0FFB0
:1072B700FF20EE02F00350D9260450DA22DECF0574
:1072C700F0DDCF06F003C0D9FF04C0DAFFDECF0739
:1072D700F0DDCF08F005500724D96E06500820DAF4
:1072E7006E01C0DFFF20EE02F00350D9260450DA0A
:1072F70022DE2A000EDD22FFFF1200FFFFFFFF0044
:10730700018AA189EF39F08CEF39F0FFFF97EF3948
:10731700F0FFFF13C00AF014C00BF011C00CF012FD
:10732700C00DF07CEC34F0FFFF16BE9DEF39F0A0E6
:10733700EF39F0FFFFA7EF39F0FFFF15C01AF0167E
:10734700C01BF0ACEF39F0FFFF000E1B6E000E1AEA
:107357006EFFFF000E196E000E186EC0EF39F0FFBA
:10736700FF000E026E200E016E11C003F012C00462
:10737700F011EC39F0184A192AFFFF1A50185C1956
:1073870050800A176E1B50800A1758D8A0CEEF39C5
:10739700F0D1EF39F0FFFFB3EF39F0FFFF00018ABB
:1073A700B1D8EF39F0DBEF39F0FFFFE6EF39F0FF47
:1073B700FF13C00AF014C00BF011C00CF012C00D7F
:1073C700F07CEC34F0FFFF13C001F014C002F0A40E
:1073D700EC34F01A500124116E1B500220126E1269
:1073E70000FFFFFFFF09500A100B100C100D100EC5
:1073F700100F101010D8B403EF3AF006EF3AF0FF71
:10740700FF57EF3AF0FFFF010E116E16EF3AF0FF4C
:10741700FFD89009360A360B360C360D360E360F66
:10742700361036112AFFFF10AE1CEF3AF01FEF3A65
:10743700F0FFFF0BEF3AF0FFFFFFFF0950015C0A77
:107447005002580B5003580C5004580D5005580E55
:107457005006580F50075810500858D8A036EF3A22
:10746700F039EF3AF0FFFF4AEF3AF0FFFF0950011A
:107477005E0A50025A0B50035A0C50045A0D50051D
:107487005A0E50065A0F50075A1050085AFFFFD885
:107497009010320F320E320D320C320B320A320993
:1074A70032112E20EF3AF0FFFF01C001F002C002B7
:1074B700F003C003F004C004F005C005F006C006E1
:1074C700F007C007F008C008F01200FFFFFFFF0039
:1074D7000E1C6E1ABE75EF3AF072EF3AF0FFFF7CA2
:1074E700EF3AF0FFFF196C1A1ED8B01A2A010E1CCA
:1074F7006EFFFF18BE85EF3AF082EF3AF0FFFF8C80
:10750700EF3AF0FFFF176C181ED8B0182A010E1CAF
:107517001AFFFF000E1E6E000E1D6E19501A10D8AE
:10752700B498EF3AF09BEF3AF0FFFFCCEF3AF0FF59
:10753700FF010E1B6EA5EF3AF0FFFFD89019361A20
:10754700361B2AFFFF1AAEABEF3AF0AEEF3AF0FF69
:10755700FFA0EF3AF0FFFFFFFFD8901D361E361948
:1075670050175C1A501858D8A0BCEF3AF0BFEF3A42
:10757700F0FFFFC5EF3AF0FFFF1950175E1A5018DA
:107587005A1D80FFFFD8901A3219321B2EAFEF3ADF
:10759700F0FFFF1C50D8B4D3EF3AF0D6EF3AF0FF24
:1075A700FFDBEF3AF0FFFF1D6C1E1ED8B01E2AFF4F
:1075B700FF1DC017F01EC018F01200FFFFFFFF01EC
:1075C700C008F002C009F003C00AF004C00BF005C0
:1075D70006D8A00606052806E10628D8A4F6EF3A3D
:1075E700F0F9EF3AF0FFFF08EF3BF0FFFF000E0264
:1075F7006E000E016E63EF3BF0FFFF084A092A0A8F
:107607004A0B2A0506D8A00606FFFF08C0F6FF09A1
:10761700C0F7FF0800FFFFF5500009D8B416EF3B8D
:10762700F019EF3BF0FFFF4EEF3BF0FFFF0AC0F60C
:10763700FF0BC0F7FF0800FFFFF5500009D8B4277C
:10764700EF3BF02AEF3BF0FFFF4EEF3BF0FFFF056C
:10765700500610D8B432EF3BF035EF3BF0FFFF4E4A
:10766700EF3BF0FFFF08C0F6FF09C0F7FF0800FF78
:10767700FFF5CF07F00AC0F6FF0BC0F7FF0800FFC2
:10768700FFF5500718D8B44BEF3BF04EEF3BF0FF38
:10769700FF00EF3BF0FFFF08C0F6FF09C0F7FF0848
:1076A70000FFFFF5CF07F00AC0F6FF0BC0F7FF0892
:1076B70000FFFFF550075C016E026AD8A00206FFC3
:1076C700FF1200FFFFFFFF20EE11F0070EDE6AE852
:1076D70006FDE209500A100B100C100D100E100FCA
:1076E700101010D8B47AEF3BF07DEF3BF0FFFFD8D6
:1076F700EF3BF0FFFF010E196E8DEF3BF0FFFFD858
:107707009009360A360B360C360D360E360F361004
:1077170036192AFFFF10AE93EF3BF096EF3BF0FFD1
:10772700FF82EF3BF0FFFFFFFFD8901136123613B1
:1077370036143615361636173618360950015C0AD0
:107747005002580B5003580C5004580D5005580E52
:107757005006580F50075810500858D8A0B6EF3B9E
:10776700F0B9EF3BF0FFFFCBEF3BF0FFFF09500114
:107777005E0A50025A0B50035A0C50045A0D50051A
:107787005A0E50065A0F50075A1050085A1180FFC8
:10779700FFD89010320F320E320D320C320B320AF4
:1077A700320932192E97EF3BF0FFFF11C001F0129B
:1077B700C002F013C003F014C004F015C005F016A2
:1077C700C006F017C007F018C008F01200FFFFFF4F
:1077D700FF000E0114096E000E02140A6E800E03DC
:1077E700140B6E7F0E04140C6E09500A100B100C4C
:1077F70010D8A401EF3CF004EF3CF0FFFF0DEF3C85
:10780700F0FFFF000E016E000E026E000E036E0009
:107817000E046EFFFF000E0514096E000E06140A13
:107827006E800E07140B6E7F0E08140C6E09500A3B
:10783700100B100C10D8A423EF3CF026EF3CF0FF00
:10784700FF2FEF3CF0FFFF000E056E000E066E00E7
:107857000E076E000E086EFFFF04AE35EF3CF038E2
:10786700EF3CF0FFFF42EF3CF0FFFF016C021ED838
:10787700B0022A031ED8B0032A800E0456FFFF0861
:10788700AE48EF3CF04BEF3CF0FFFF55EF3CF0FF0D
:10789700FF056C061ED8B0062A071ED8B0072A8037
:1078A7000E0856FFFF000E011A000E021A000E0303
:1078B7001A800E041A000E051A000E061A000E078B
:1078C7001A800E081A0550015C065002580750032B
:1078D7005808500458D8B073EF3CF076EF3CF0FFEF
:1078E700FF7AEF3CF0FFFFD8907CEF3CF0FFFFD82A
:1078F70080FFFF1200FFFFFFFF0001CC35CD35D31E
:107907006FD351D8A48AEF3CF08DEF3CF0FFFF997D
:10791700EF3CF0FFFFFFFF000ECA6F000ECB6F00BA
:107927000ECC6F000ECD6F18EF3DF0FFFFCAC0CE33
:10793700F0CBC0CFF0CCC0D0F0CDC0D1F0200EAB93
:10794700EF3CF0FFFFD890D133D033CF33CE33FFA6
:10795700FFE82EA5EF3CF0CE51D26FCC8FFF0ECAB9
:1079670017FF0ECB17FF0ECC17000ECD17960ED3B1
:107977005FD3BFC4EF3CF0C1EF3CF0FFFFDEEF3C4D
:10798700F0FFFFD351800A970FD8B0CDEF3CF0D06E
:10799700EF3CF0FFFFD3EF3CF0FFFF8EEF3CF0FF33
:1079A700FFD890CD33CC33CB33CA33D33FD3EF3C5F
:1079B700F0FCEF3CF0FFFF1F0ED365E5EF3CF0E86E
:1079C700EF3CF0FFFFF2EF3CF0FFFF8EEF3CF0FFE4
:1079D700FFD890CA37CB37CC37CD37D307FFFFD384
:1079E70051D8A4F9EF3CF0FCEF3CF0FFFFEBEF3C84
:1079F700F0FFFFD251D8B403EF3DF006EF3DF0FFA3
:107A0700FF0FEF3DF0FFFFCD1FCC1FCB1FCA6D004F
:107A17000ECB23CC23CD23FFFFCAC0CAF0CBC0CBEC
:107A2700F0CCC0CCF0CDC0CDF0FFFF1200FFFFFFC0
:107A3700FF800E735CD8A023EF3DF026EF3DF0FFEB
:107A4700FF30EF3DF0FFFF000E00018D6F4B0E8CF6
:107A57006F70687168B5EF3DF0FFFF70C0BCF071E3
:107A6700C0BDF073500AE1020E725CD8A03EEF3D34
:107A7700F041EF3DF0FFFF4FEF3DF0FFFFFF0E72CC
:107A8700240001C06FFF0E7320C16F000EBF6F008F
:107A97000EBE6F59EF3DF0FFFF000E0001C16F01F1
:107AA7000EC06F000EBF6F010EBE6FFFFFBC0E68EA
:107AB7006E000E696E74C06AF075C06BF076C06CAC
:107AC700F077C06DF0A0EC35F068C0BAF069C0BBC4
:107AD700F072507310D8B473EF3DF076EF3DF0FFBE
:107AE700FFB0EF3DF0FFFF0001BBBF7DEF3DF08032
:107AF700EF3DF0FFFFB0EF3DF0FFFFFF0E786EFFA9
:107B07000E796E72C07AF073C07BF078507A26795E
:107B1700507B227A50BA5D7B50BB59D8A096EF3D77
:107B2700F099EF3DF0FFFFA2EF3DF0FFFFFF0E7270
:107B370024B86FFF0E7320B96FA7EF3DF0FFFFBAB0
:107B4700C0B8F0BBC0B9F0FFFFB8517024D96EB907
:107B5700517120DA6E000EDF6EFFFFBAC070F0BB06
:107B6700C071F0FFFF1200FFFFFFFF000E126E084B
:107B7700BEC3EF3DF0C0EF3DF0FFFFD6EF3DF0FF96
:107B8700FF081E071E061E051E041E031E021E01F9
:107B97006C000E0222032204220522062207220875
:107BA70022010E126EFFFF10BEDFEF3DF0DCEF3D4E
:107BB700F0FFFFF0EF3DF0FFFF101E0F1E0E1E0D32
:107BC7001E0C1E0B1E0A1E096C000E0A220B220C2D
:107BD700220D220E220F221022FFFF09500A100B3E
:107BE700100C100D100E100F101010D8B4FEEF3D32
:107BF700F001EF3EF0FFFF52EF3EF0FFFF010E11E5
:107C07006E11EF3EF0FFFFD89009360A360B360C9F
:107C1700360D360E360F361036112AFFFF10AE1707
:107C2700EF3EF01AEF3EF0FFFF06EF3EF0FFFFFFDB
:107C3700FF0950015C0A5002580B5003580C5004BE
:107C4700580D5005580E5006580F50075810500839
:107C570058D8A031EF3EF034EF3EF0FFFF45EF3E3E
:107C6700F0FFFF0950015E0A50025A0B50035A0CED
:107C770050045A0D50055A0E50065A0F50075A1005
:107C870050085AFFFFD89010320F320E320D320CC7
:107C9700320B320A320932112E1BEF3EF0FFFF1270
:107CA70050D8B459EF3EF05CEF3EF0FFFF6DEF3E6A
:107CB700F0FFFF081E071E061E051E041E031E02F8
:107CC7001E016C000E02220322042205220622074F
:107CD700220822FFFF01C001F002C002F003C00327
:107CE700F004C004F005C005F006C006F007C007A1
:107CF700F008C008F01200FFFFFFFF000E126E1021
:107D0700BE8BEF3EF088EF3EF0FFFF9EEF3EF0FFA9
:107D1700FF101E0F1E0E1E0D1E0C1E0B1E0A1E0927
:107D27006C000E0A220B220C220D220E220F2210AB
:107D370022010E126EFFFF08BEA7EF3EF0A4EF3E32
:107D4700F0FFFFBAEF3EF0FFFF081E071E061E05F5
:107D57001E041E031E021E016C000E0222032204D3
:107D6700220522062207220822010E121AFFFF20EF
:107D7700EE13F0070EDE6AE806FDE209500A100B63
:107D8700100C100D100E100F101010D8B4CEEF3EBF
:107D9700F0D1EF3EF0FFFF2CEF3FF0FFFF010E1198
:107DA7006EE1EF3EF0FFFFD89009360A360B360C2E
:107DB700360D360E360F361036112AFFFF10AEE796
:107DC700EF3EF0EAEF3EF0FFFFD6EF3EF0FFFFFF9A
:107DD700FFD8901336143615361636173618361957
:107DE700361A360950015C0A5002580B5003580CDA
:107DF7005004580D5005580E5006580F500758108C
:107E0700500858D8A00AEF3FF00DEF3FF0FFFF1FD3
:107E1700EF3FF0FFFF0950015E0A50025A0B500373
:107E27005A0C50045A0D50055A0E50065A0F500757
:107E37005A1050085A1380FFFFD89010320F320E95
:107E4700320D320C320B320A320932112EEBEF3E71
:107E5700F0FFFF1250D8B433EF3FF036EF3FF0FF9B
:107E6700FF47EF3FF0FFFF1A1E191E181E171E16B9
:107E77001E151E141E136C000E142215221622172F
:107E870022182219221A22FFFF13C001F014C00280
:107E9700F015C003F016C004F017C005F018C006AF
:107EA700F019C007F01AC008F01200FFFF00000029
:107EB700004B00001646BD37863500247449002460
:107EC700744A494E49545F504F533A2074686520AD
:107ED7007669616C20697320617420746865206914
:107EE7006E697420706F736974696F6E2C2070727D
:107EF7006F63657373206973207374617274696E3D
:107F070067005049434B5F55503A207468652076A7
:107F170069616C20686173207265616368656420BC
:107F2700746865207069636B207570207374617461
:107F3700696F6E0049444C453A2077616974696EF0
