:020000040000FA
:1000000000F039EF00F0FFFFFFFF7E829DAA0BEFAB
:1000100000F00EEF00F0FFFF1CEF00F0FFFF9EAAC4
:1000200014EF00F017EF00F0FFFF1CEF00F0FFFFF0
:100030009E9A010E0101A46FFFFFF2AA22EF00F0C9
:1000400025EF00F0FFFF35EF00F0FFFFF2A42BEFEC
:1000500000F02EEF00F0FFFF35EF00F0FFFF000E85
:10006000D56EF294010E0101A36FFFFF7E92110085
:10007000FFFFBDEF3DF0FFFF056E410E0518D8A450
:1000800044EF00F047EF00F0FFFF56EF00F0FFFFF6
:10009000300E036E060E046E01C0D9FF02C0DAFFF7
:1000A000010EDE6E000EDD6EC3EF00F0FFFF420EAC
:1000B0000518D8A45EEF00F061EF00F0FFFF70EFCD
:1000C00000F0FFFF520E036E060E046E01C0D9FF52
:1000D00002C0DAFF030EDE6E000EDD6EC3EF00F02D
:1000E000FFFF440E0518D8A478EF00F07BEF00F076
:1000F000FFFF8AEF00F0FFFF250E036E060E046E71
:1001000001C0D9FF02C0DAFF040EDE6E000EDD6E04
:10011000C3EF00F0FFFF400E0518D8A492EF00F0E7
:1001200095EF00F0FFFFA4EF00F0FFFF4A0E036E13
:10013000060E046E01C0D9FF02C0DAFF050EDE6EA6
:10014000000EDD6EC3EF00F0FFFF480E0518D8A4C7
:10015000ACEF00F0AFEF00F0FFFFBEEF00F0FFFFED
:10016000390E036E060E046E01C0D9FF02C0DAFF1D
:10017000020EDE6E000EDD6EC3EF00F0FFFF420EDA
:10018000036E060E046EFFFF03C001F004C002F010
:100190001200FFFFFFFF20EE11F0070EDE6AE806F7
:1001A000FDE209500A100B100C100D100E100F106C
:1001B0001010D8B4DEEF00F0E1EF00F0FFFF3CEFED
:1001C00001F0FFFF010E196EF1EF00F0FFFFD89074
:1001D00009360A360B360C360D360E360F3610360B
:1001E000192AFFFF10AEF7EF00F0FAEF00F0FFFF63
:1001F000E6EF00F0FFFFFFFFD890113612361336FE
:10020000143615361636173618360950015C0A5062
:1002100002580B5003580C5004580D5005580E50FE
:1002200006580F50075810500858D8A01AEF01F080
:100230001DEF01F0FFFF2FEF01F0FFFF0950015EFE
:100240000A50025A0B50035A0C50045A0D50055ACA
:100250000E50065A0F50075A1050085A1180FFFFCF
:10026000D89010320F320E320D320C320B320A326D
:100270000932192EFBEF00F0FFFF11C001F012C090
:1002800002F013C003F014C004F015C005F016C04E
:1002900006F017C007F018C008F01200FFFFFFFFBC
:1002A00001C008F002C009F003C00AF004C00BF05E
:1002B0000506D8A00606052806E10628D8A463EF9F
:1002C00001F066EF01F0FFFF75EF01F0FFFF000E98
:1002D000026E000E016ED0EF01F0FFFF084A092AFE
:1002E0000A4A0B2A0506D8A00606FFFF08C0F6FF3B
:1002F00009C0F7FF0800FFFFF5500009D8B483EFED
:1003000001F086EF01F0FFFFBBEF01F0FFFF0AC035
:10031000F6FF0BC0F7FF0800FFFFF5500009D8B447
:1003200094EF01F097EF01F0FFFFBBEF01F0FFFF4B
:1003300005500610D8B49FEF01F0A2EF01F0FFFFC7
:10034000BBEF01F0FFFF08C0F6FF09C0F7FF080090
:10035000FFFFF5CF07F00AC0F6FF0BC0F7FF08005C
:10036000FFFFF5500718D8B4B8EF01F0BBEF01F06C
:10037000FFFF6DEF01F0FFFF08C0F6FF09C0F7FFB8
:100380000800FFFFF5CF07F00AC0F6FF0BC0F7FF2C
:100390000800FFFFF550075C016E026AD8A0020654
:1003A000FFFF1200FFFFFFFF09500A100B100C1097
:1003B0000D100E100F101010D8B4E1EF01F0E4EFA3
:1003C00001F0FFFF35EF02F0FFFF010E116EF4EFB9
:1003D00001F0FFFFD89009360A360B360C360D3681
:1003E0000E360F361036112AFFFF10AEFAEF01F06D
:1003F000FDEF01F0FFFFE9EF01F0FFFFFFFF095004
:10040000015C0A5002580B5003580C5004580D5010
:1004100005580E5006580F50075810500858D8A0CD
:1004200014EF02F017EF02F0FFFF28EF02F0FFFFDA
:100430000950015E0A50025A0B50035A0C50045ADC
:100440000D50055A0E50065A0F50075A1050085AB0
:10045000FFFFD89010320F320E320D320C320B32B9
:100460000A320932112EFEEF01F0FFFF01C001F048
:1004700002C002F003C003F004C004F005C005F0A0
:1004800006C006F007C007F008C008F01200FFFF22
:10049000FFFF00018AA14FEF02F052EF02F0FFFFD1
:1004A0005DEF02F0FFFF13C00AF014C00BF011C0A3
:1004B0000CF012C00DF096EC3EF0FFFF16BE63EF9D
:1004C00002F066EF02F0FFFF6DEF02F0FFFF15C0D4
:1004D0001AF016C01BF072EF02F0FFFF000E1B6E49
:1004E000000E1A6EFFFF000E196E000E186E86EFDA
:1004F00002F0FFFF000E026E200E016E11C003F02D
:1005000012C004F08FEC3FF0184A192AFFFF1A506E
:10051000185C1950800A176E1B50800A1758D8A013
:1005200094EF02F097EF02F0FFFF79EF02F0FFFF88
:1005300000018AB19EEF02F0A1EF02F0FFFFACEFE5
:1005400002F0FFFF13C00AF014C00BF011C00CF052
:1005500012C00DF096EC3EF0FFFF13C001F014C086
:1005600002F0BEEC3EF01A500124116E1B50022026
:10057000126E1200FFFFFFFF836A000E956E846A01
:10058000000E966E849284941E0E046E3C0EFFFF45
:10059000E82EFDD7042EFBD700D08482380EDFEC86
:1005A0003CF01E0E046E3C0EFFFFE82EFDD7042E1D
:1005B000FBD700D0380EDFEC3CF01E0E046E3C0E74
:1005C000FFFFE82EFDD7042EFBD700D0380EDFEC5E
:1005D0003CF0080EDFEC3CF00F0EDFEC3CF0010EBF
:1005E000DFEC3CF0380EDFEC3CF0800EDFEC3CF052
:1005F0001200FFFFFFFF016E01C083FF1200FFFF2B
:10060000000000004B000016460024744A54686540
:100610002063757272656E742073746174652069ED
:1006200073202573006D6978696E675F706F730062
:10063000696E69745F706F73006D6F76656D656E5E
:1006400074004E4F5448494E47007069636B5F75A4
:1006500070006F76656E00686858006868640068AE
:1006600068690068686E0068686F0068687500688F
:100670006878007A58007A64007A69007A6E007AA5
:090680006F007A75007A78000021
:10068A00FFFF45C0D9FF46C0DAFFDECFF6FFDDCF58
:10069A00F7FF0800FFFFF550250AD8A457EF03F02B
:1006AA005AEF03F0FFFF19EF0DF0FFFF45C0D9FF26
:1006BA0046C0DAFFDE2A000EDD22000E0001876F37
:1006CA00000E866F86C08AF087C08BF088698969B8
:1006DA00000E506E000E4F6EC8EF03F0FFFF0001D0
:1006EA008A81FFFF45C0D9FF46C0DAFFDE2A000E25
:1006FA00DD22C8EF03F0FFFF00018A8376EF03F0E3
:10070A00FFFF00018A8576EF03F0FFFF00018A8769
:10071A0076EF03F0FFFF00018A8976EF03F0FFFF0F
:10072A00000E506E010E4F6EC8EF03F0FFFF45C07A
:10073A00D9FF46C0DAFFDECFF6FFDDCFF7FF0800AC
:10074A00FFFFF550496E4A6A4A50000AD8B4B0EF22
:10075A0003F094EF03F0FFFF4950200AD8B48AEF60
:10076A0003F0030AD8B48FEF03F0080AD8B485EF70
:10077A0003F0060AD8B473EF03F01D0AD8B480EF69
:10078A0003F094EF03F0FFFF4F505010D8B4D0EFAE
:10079A0003F0D3EF03F0FFFF9BEF03F0FFFF00012D
:1007AA008AA1DAEF03F0DDEF03F0FFFFDFEF03F0DA
:1007BA00FFFF8A93FFFF45C0D9FF46C0DAFFDECFAD
:1007CA00F6FFDDCFF7FF0800FFFFF5502A0AD8A48D
:1007DA00F1EF03F0F4EF03F0FFFF20EF04F0FFFF67
:1007EA0045C0D9FF46C0DAFFDE2A000EDD2247C027
:1007FA00D9FF48C0DAFFDFCF49F0020EDE26DFCF8D
:10080A004AF0000EDD2249C0D9FF4AC0DAFFDECF26
:10081A0086F0DDCF87F087BF18EF04F015EF04F0FC
:10082A00FFFF6BEF04F0FFFF8A81866D871FD8B048
:10083A00872B6BEF04F0FFFF45C0D9FF46C0DAFFF4
:10084A00DECF08F0DDCF09F097EC1AF008C086F089
:10085A0009C087F039EF04F0FFFF45C0D9FF46C051
:10086A00DAFFDE2A000EDD22FFFFD00E496EFF0EF0
:10087A004A6E45C0D9FF46C0DAFFDECFF6FFDDCFAC
:10088A00F7FF0800FFFFF5504B6E4C6A49504B26A4
:10089A004A504C224C500BE10A0E4B5CD8A058EF40
:1008AA0004F05CEF04F0FFFF010E5EEF04F0FFFFBF
:1008BA00000EFFFF516E526A51505210D8A468EFD1
:1008CA0004F06BEF04F0FFFF31EF04F0FFFF45C0C7
:1008DA00D9FF46C0DAFFDECFF6FFDDCFF7FF08000B
:1008EA00FFFFF5502E0AD8A47DEF04F080EF04F044
:1008FA00FFFF0AEF05F0FFFF000E0001896F000EEF
:10090A00886F45C0D9FF46C0DAFFDE2A000EDD2215
:10091A0045C0D9FF46C0DAFFDECFF6FFDDCFF7FFCD
:10092A000800FFFFF5502A0AD8A49EEF04F0A1EFB1
:10093A0004F0FFFFBFEF04F0FFFF45C0D9FF46C038
:10094A00DAFFDE2A000EDD2247C0D9FF48C0DAFFEF
:10095A00DFCF49F0020EDE26DFCF4AF0000EDD229D
:10096A0049C0D9FF4AC0DAFFDECF88F0DDCF89F06F
:10097A000AEF05F0FFFF45C0D9FF46C0DAFFDECF18
:10098A0008F0DDCF09F097EC1AF008C088F009C02A
:10099A0089F0D8EF04F0FFFF45C0D9FF46C0DAFF5F
:1009AA00DE2A000EDD22FFFFD00E496EFF0E4A6ED0
:1009BA0045C0D9FF46C0DAFFDECFF6FFDDCFF7FF2D
:1009CA000800FFFFF5504B6E4C6A49504B264A50BF
:1009DA004C224C500BE10A0E4B5CD8A0F7EF04F006
:1009EA00FBEF04F0FFFF010EFDEF04F0FFFF000E26
:1009FA00FFFF536E546A53505410D8A407EF05F002
:100A0A000AEF05F0FFFFD0EF04F0FFFF45C0D9FF62
:100A1A0046C0DAFFDECFF6FFDDCFF7FF0800FFFFA3
:100A2A00F550630AD8A41CEF05F01FEF05F0FFFF8D
:100A3A0047EF05F0FFFF45C0D9FF46C0DAFFDE2ABF
:100A4A00000EDD2247C0D9FF48C0DAFFDFCF49F0E8
:100A5A00020EDE26DFCF4AF0000EDD2249C0D9FFA2
:100A6A004AC0DAFFDF505F6E43C01CF044C01DF07D
:100A7A005FC01EF0ECEC3EF01CC043F01DC044F019
:100A8A0036EF0DF0FFFF45C0D9FF46C0DAFFDECFD3
:100A9A0001F0DDCF02F05B0E036E060E046E000E4F
:100AAA00066E030E056E4FEC01F001500210D8B429
:100ABA0061EF05F064EF05F0FFFF81EF05F0FFFF3E
:100ACA0045C0D9FF46C0DAFFDECF01F0DDCF02F024
:100ADA005F0E036E060E046E000E066E030E056EA2
:100AEA004FEC01F001500210D8A47EEF05F081EF1F
:100AFA0005F0FFFFC3EF05F0FFFF030E45C0D9FF66
:100B0A0046C0DAFFDE26000EDD2247C0D9FF48C004
:100B1A00DAFFDFCF49F0020EDE26DFCF4AF0000E01
:100B2A00DD2249C0D9FF4AC0DAFFDF50556E000EF8
:100B3A0055BEFF0E566E576E586E596E5A6E5B6EE4
:100B4A005C6EFFFF43C01CF044C01DF055C01EF090
:100B5A0056C01FF057C020F058C021F059C022F0EB
:100B6A005AC023F05BC024F05CC025F052EC14F0AC
:100B7A001CC043F01DC044F036EF0DF0FFFF45C026
:100B8A00D9FF46C0DAFFDECF01F0DDCF02F05C0EFE
:100B9A00036E060E046E000E066E020E056E4FEC14
:100BAA0001F001500210D8B4DDEF05F0E0EF05F0D6
:100BBA00FFFFFDEF05F0FFFF45C0D9FF46C0DAFF92
:100BCA00DECF01F0DDCF02F0600E036E060E046E7A
:100BDA00000E066E020E056E4FEC01F00150021077
:100BEA00D8A4FAEF05F0FDEF05F0FFFF25EF06F0B8
:100BFA00FFFF020E45C0D9FF46C0DAFFDE26000E0F
:100C0A00DD2247C0D9FF48C0DAFFDFCF49F0020E24
:100C1A00DE26DFCF4AF0000EDD2249C0D9FF4AC0E6
:100C2A00DAFFDECF55F0DDCF56F0000E56BEFF0ECE
:100C3A00576E586E596E5A6E5B6E5C6EA6EF05F073
:100C4A00FFFF45C0D9FF46C0DAFFDECFF6FFDDCF92
:100C5A00F7FF0800FFFFF550640AD8B437EF06F033
:100C6A003AEF06F0FFFF4FEF06F0FFFF45C0D9FF4E
:100C7A0046C0DAFFDECFF6FFDDCFF7FF0800FFFF41
:100C8A00F550690AD8A44CEF06F04FEF06F0FFFFC3
:100C9A0076EF06F0FFFF45C0D9FF46C0DAFFDE2A2D
:100CAA00000EDD2247C0D9FF48C0DAFFDFCF49F086
:100CBA00020EDE26DFCF4AF0000EDD2249C0D9FF40
:100CCA004AC0DAFFDECF55F0DDCF56F0000E56BE31
:100CDA00FF0E576E586E596E5A6E5B6E5C6EA6EFBB
:100CEA0005F0FFFF45C0D9FF46C0DAFFDECF01F0AD
:100CFA00DDCF02F0760E036E060E046E000E066E4F
:100D0A00020E056E4FEC01F001500210D8B490EFBC
:100D1A0006F093EF06F0FFFFB0EF06F0FFFF45C0C5
:100D2A00D9FF46C0DAFFDECF01F0DDCF02F0790E3F
:100D3A00036E060E046E000E066E020E056E4FEC72
:100D4A0001F001500210D8A4ADEF06F0B0EF06F0A2
:100D5A00FFFFD9EF06F0FFFF020E45C0D9FF46C0DC
:100D6A00DAFFDE26000EDD2247C0D9FF48C0DAFFCF
:100D7A00DFCF49F0020EDE26DFCF4AF0000EDD2279
:100D8A0049C0D9FF4AC0DAFFDECF4BF0DDCF4CF0C5
:100D9A004BC055F04CC056F0576A586A596A5A6A9D
:100DAA005B6A5C6AA6EF05F0FFFF45C0D9FF46C043
:100DBA00DAFFDECF01F0DDCF02F0670E036E060E1A
:100DCA00046E000E066E030E056E4FEC01F0015024
:100DDA000210D8A4F3EF06F0F6EF06F0FFFF37EFA4
:100DEA0007F0FFFF030E45C0D9FF46C0DAFFDE2633
:100DFA00000EDD2247C0D9FF48C0DAFFDFCF49F035
:100E0A00020EDE26DFCF4AF0000EDD2249C0D9FFEE
:100E1A004AC0DAFFDF504B6E4B50606E616A626AFD
:100E2A00636A646A656A666A676AFFFF43C01CF0A0
:100E3A0044C01DF060C01EF061C01FF062C020F007
:100E4A0063C021F064C022F065C023F066C024F0BC
:100E5A0067C025F09AEC18F01CC043F01DC044F09E
:100E6A0036EF0DF0FFFF45C0D9FF46C0DAFFDECFEF
:100E7A0001F0DDCF02F0680E036E060E046E000E5E
:100E8A00066E020E056E4FEC01F001500210D8A456
:100E9A0051EF07F054EF07F0FFFF7DEF07F0FFFF78
:100EAA00020E45C0D9FF46C0DAFFDE26000EDD225B
:100EBA0047C0D9FF48C0DAFFDFCF49F0020EDE266D
:100ECA00DFCF4AF0000EDD2249C0D9FF4AC0DAFF5F
:100EDA00DECF4BF0DDCF4CF04BC060F04CC061F080
:100EEA00626A636A646A656A666A676A1AEF07F021
:100EFA00FFFF45C0D9FF46C0DAFFDECFF6FFDDCFE0
:100F0A00F7FF0800FFFFF5506F0AD8A48FEF07F02C
:100F1A0092EF07F0FFFFBAEF07F0FFFF45C0D9FFD6
:100F2A0046C0DAFFDE2A000EDD2247C0D9FF48C0DC
:100F3A00DAFFDFCF49F0020EDE26DFCF4AF0000EDD
:100F4A00DD2249C0D9FF4AC0DAFFDECF4BF0DDCF40
:100F5A004CF04BC060F04CC061F0626A636A646A2C
:100F6A00656A666A676A1AEF07F0FFFF45C0D9FF2C
:100F7A0046C0DAFFDECF01F0DDCF02F07F0E036E4E
:100F8A00060E046E000E066E020E056E4FEC01F0A0
:100F9A0001500210D8A4D4EF07F0D7EF07F0FFFFF3
:100FAA0000EF08F0FFFF020E45C0D9FF46C0DAFF86
:100FBA00DE26000EDD2247C0D9FF48C0DAFFDFCFA8
:100FCA0049F0020EDE26DFCF4AF0000EDD2249C0CC
:100FDA00D9FF4AC0DAFFDECF4BF0DDCF4CF04BC071
:100FEA0060F04CC061F0626A636A646A656A666A44
:100FFA00676A1AEF07F0FFFF45C0D9FF46C0DAFF5C
:10100A00DECF01F0DDCF02F0630E036E060E046E32
:10101A00000E066E030E056E4FEC01F00150021031
:10102A00D8A41AEF08F01DEF08F0FFFF53EF08F0FD
:10103A00FFFF030E45C0D9FF46C0DAFFDE26000EC9
:10104A00DD2247C0D9FF48C0DAFFDFCF49F0020EE0
:10105A00DE26DFCF4AF0000EDD2249C0D9FF4AC0A2
:10106A00DAFFDECF5DF0DDCF5EF05DC0F6FF5EC079
:10107A00F7FFF86A050EF76404D084C0F5FF0C0088
:10108A0006D0F6CFE1FFF7CFE2FF84C0E7FFFFFF0C
:10109A00000E446E000E436E36EF0DF0FFFF45C0A2
:1010AA00D9FF46C0DAFFDECF01F0DDCF02F0640ED1
:1010BA00036E060E046E000E066E020E056E4FECEF
:1010CA0001F001500210D8A46DEF08F070EF08F09B
:1010DA00FFFFA6EF08F0FFFF020E45C0D9FF46C08A
:1010EA00DAFFDE26000EDD2247C0D9FF48C0DAFF4C
:1010FA00DFCF49F0020EDE26DFCF4AF0000EDD22F6
:10110A0049C0D9FF4AC0DAFFDECF5DF0DDCF5EF01D
:10111A005DC0F6FF5EC0F7FFF86A050EF76407D0F8
:10112A0084C0F5FF0D0085C0F5FF0C0008D0F6CF8E
:10113A00E1FFF7CFE2FF84C0E6FF85C0E7FF4CEF8F
:10114A0008F0FFFF45C0D9FF46C0DAFFDECFF6FF41
:10115A00DDCFF7FF0800FFFFF5506E0AD8A4B8EFFD
:10116A0008F0BBEF08F0FFFFF0EF08F0FFFF45C003
:10117A00D9FF46C0DAFFDE2A000EDD2247C0D9FFBA
:10118A0048C0DAFFDFCF49F0020EDE26DFCF4AF091
:10119A00000EDD2249C0D9FF4AC0DAFFDECF5DF07A
:1011AA00DDCF5EF05DC0F6FF5EC0F7FFF86A050EA0
:1011BA00F76407D084C0F5FF0D0085C0F5FF0C0069
:1011CA0008D0F6CFE1FFF7CFE2FF84C0E6FF85C083
:1011DA00E7FF4CEF08F0FFFF45C0D9FF46C0DAFF32
:1011EA00DECF01F0DDCF02F07C0E036E060E046E38
:1011FA00000E066E020E056E4FEC01F00150021051
:10120A00D8A40AEF09F00DEF09F0FFFF43EF09F048
:10121A00FFFF020E45C0D9FF46C0DAFFDE26000EE8
:10122A00DD2247C0D9FF48C0DAFFDFCF49F0020EFE
:10123A00DE26DFCF4AF0000EDD2249C0D9FF4AC0C0
:10124A00DAFFDECF5DF0DDCF5EF05DC0F6FF5EC097
:10125A00F7FFF86A050EF76407D084C0F5FF0D00A2
:10126A0085C0F5FF0C0008D0F6CFE1FFF7CFE2FF0B
:10127A0084C0E6FF85C0E7FF4CEF08F0FFFF45C0DA
:10128A00D9FF46C0DAFFDECFF6FFDDCFF7FF080051
:10129A00FFFFF550700AD8A455EF09F058EF09F08E
:1012AA00FFFF9CEF09F0FFFF45C0D9FF46C0DAFFF8
:1012BA00DE2A000EDD2247C0D9FF48C0DAFFDFCFA1
:1012CA0049F0020EDE26DFCF4AF0000EDD2249C0C9
:1012DA00D9FF4AC0DAFFDECF4BF0DDCF4CF04BC06E
:1012EA0060F04CC061F0626A636A646A656A666A41
:1012FA00676A43C01CF044C01DF060C01EF061C0A4
:10130A001FF062C020F063C021F064C022F065C003
:10131A0023F066C024F067C025F0780E266EECEC48
:10132A0015F01CC043F01DC044F036EF0DF0FFFF6E
:10133A0045C0D9FF46C0DAFFDECFF6FFDDCFF7FFA3
:10134A000800FFFFF550730AD8A4AEEF09F0B1EF19
:10135A0009F0FFFFDDEF09F0FFFF45C0D9FF46C0E6
:10136A00DAFFDE2A000EDD2247C0D9FF48C0DAFFC5
:10137A00DFCF49F0020EDE26DFCF4AF0000EDD2273
:10138A0049C0D9FF4AC0DAFFDECF4DF0DDCF4EF0BB
:10139A0043C00AF044C00BF04DC00CF04EC00DF033
:1013AA00ADEC19F00AC043F00BC044F036EF0DF073
:1013BA00FFFF45C0D9FF46C0DAFFDECF01F0DDCF1F
:1013CA0002F06B0E036E060E046E000E066E030E1E
:1013DA00056E4FEC01F001500210D8A4F7EF09F0A6
:1013EA00FAEF09F0FFFF3BEF0AF0FFFF030E45C0DB
:1013FA00D9FF46C0DAFFDE26000EDD2247C0D9FF3C
:10140A0048C0DAFFDFCF49F0020EDE26DFCF4AF00E
:10141A00000EDD2249C0D9FF4AC0DAFFDF504B6E09
:10142A004B50606E616A626A636A646A656A666A78
:10143A00676AFFFF43C01CF044C01DF060C01EF085
:10144A0061C01FF062C020F063C021F064C022F0C6
:10145A0065C023F066C024F067C025F084EC17F05D
:10146A001CC043F01DC044F036EF0DF0FFFF45C02D
:10147A00D9FF46C0DAFFDECF01F0DDCF02F06C0EF5
:10148A00036E060E046E000E066E020E056E4FEC1B
:10149A0001F001500210D8A455EF0AF058EF0AF0F3
:1014AA00FFFF81EF0AF0FFFF020E45C0D9FF46C0D9
:1014BA00DAFFDE26000EDD2247C0D9FF48C0DAFF78
:1014CA00DFCF49F0020EDE26DFCF4AF0000EDD2222
:1014DA0049C0D9FF4AC0DAFFDECF4BF0DDCF4CF06E
:1014EA004BC060F04CC061F0626A636A646A656A04
:1014FA00666A676A1EEF0AF0FFFF45C0D9FF46C059
:10150A00DAFFDECFF6FFDDCFF7FF0800FFFFF55069
:10151A00750AD8A493EF0AF096EF0AF0FFFFBEEF20
:10152A000AF0FFFF45C0D9FF46C0DAFFDE2A000EE7
:10153A00DD2247C0D9FF48C0DAFFDFCF49F0020EEB
:10154A00DE26DFCF4AF0000EDD2249C0D9FF4AC0AD
:10155A00DAFFDECF4BF0DDCF4CF04BC060F04CC071
:10156A0061F0626A636A646A656A666A676A1EEF3C
:10157A000AF0FFFF45C0D9FF46C0DAFFDECF01F00F
:10158A00DDCF02F0820E036E060E046E000E066EAA
:10159A00020E056E4FEC01F001500210D8A4D8EFEC
:1015AA000AF0DBEF0AF0FFFF04EF0BF0FFFF020E79
:1015BA0045C0D9FF46C0DAFFDE26000EDD2247C04D
:1015CA00D9FF48C0DAFFDFCF49F0020EDE26DFCFAF
:1015DA004AF0000EDD2249C0D9FF4AC0DAFFDECF49
:1015EA004BF0DDCF4CF04BC060F04CC061F0626A4A
:1015FA00636A646A656A666A676A1EEF0AF0FFFFD1
:10160A0045C0D9FF46C0DAFFDECF01F0DDCF02F0D8
:10161A006F0E036E060E046E000E066E030E056E46
:10162A004FEC01F001500210D8B41EEF0BF021EF7D
:10163A000BF0FFFF3EEF0BF0FFFF45C0D9FF46C09E
:10164A00DAFFDECF01F0DDCF02F0570E036E060E91
:10165A00046E000E066E030E056E4FEC01F001508B
:10166A000210D8A43BEF0BF03EEF0BF0FFFF95EF13
:10167A000BF0FFFF45C0D9FF46C0DAFFDECF49F0C5
:10168A00DDCF4AF0020E4926000E4A2249C0F6FF73
:10169A004AC0F7FF0800FFFFF5CF5FF0030E45C011
:1016AA00D9FF46C0DAFFDE26000EDD2247C0D9FF89
:1016BA0048C0DAFFDFCF49F0020EDE26DFCF4AF05C
:1016CA00000EDD2249C0D9FF4AC0DAFFDF504B6E57
:1016DA004B50606E616A626A636A646A656A666AC6
:1016EA00676AFFFF43C01CF044C01DF060C01EF0D3
:1016FA0061C01FF062C020F063C021F064C022F014
:10170A0065C023F066C024F067C025F05FC026F0EC
:10171A00ECEC15F01CC043F01DC044F036EF0DF0A0
:10172A00FFFF45C0D9FF46C0DAFFDECF01F0DDCFAB
:10173A0002F0700E036E060E046E000E066E020EA6
:10174A00056E4FEC01F001500210D8B4AFEF0BF068
:10175A00B2EF0BF0FFFFCFEF0BF0FFFF45C0D9FF51
:10176A0046C0DAFFDECF01F0DDCF02F0580E036E7D
:10177A00060E046E000E066E020E056E4FEC01F0A8
:10178A0001500210D8A4CCEF0BF0CFEF0BF0FFFF03
:10179A000CEF0CF0FFFF45C0D9FF46C0DAFFDECFE1
:1017AA0049F0DDCF4AF0010E4926000E4A2249C00F
:1017BA00F6FF4AC0F7FF0800FFFFF5CF5FF0020E01
:1017CA0045C0D9FF46C0DAFFDE26000EDD2247C03B
:1017DA00D9FF48C0DAFFDFCF49F0020EDE26DFCF9D
:1017EA004AF0000EDD2249C0D9FF4AC0DAFFDECF37
:1017FA004BF0DDCF4CF04BC060F04CC061F0626A38
:10180A00636A646A656A666A676A76EF0BF0FFFF65
:10181A0045C0D9FF46C0DAFFDECFF6FFDDCFF7FFBE
:10182A000800FFFFF550780AD8B41EEF0CF021EF3C
:10183A000CF0FFFF36EF0CF0FFFF45C0D9FF46C0A2
:10184A00DAFFDECFF6FFDDCFF7FF0800FFFFF55026
:10185A00580AD8A433EF0CF036EF0CF0FFFF6AEF0A
:10186A000CF0FFFF45C0D9FF46C0DAFFDECFF6FF16
:10187A00DDCFF7FF0800FFFFF5CF5FF045C0D9FFC6
:10188A0046C0DAFFDE2A000EDD2247C0D9FF48C073
:10189A00DAFFDFCF49F0020EDE26DFCF4AF0000E74
:1018AA00DD2249C0D9FF4AC0DAFFDECF4BF0DDCFD7
:1018BA004CF04BC060F04CC061F0626A636A646AC3
:1018CA00656A666A676A76EF0BF0FFFF45C0D9FF63
:1018DA0046C0DAFFDECF01F0DDCF02F0850E036EDF
:1018EA00060E046E000E066E020E056E4FEC01F037
:1018FA0001500210D8B484EF0CF087EF0CF0FFFF10
:10190A00A4EF0CF0FFFF45C0D9FF46C0DAFFDECFD7
:10191A0001F0DDCF02F0730E036E060E046E000EA8
:10192A00066E020E056E4FEC01F001500210D8A4AB
:10193A00A1EF0CF0A4EF0CF0FFFFE1EF0CF0FFFFBA
:10194A0045C0D9FF46C0DAFFDECF49F0DDCF4AF005
:10195A00010E4926000E4A2249C0F6FF4AC0F7FF87
:10196A000800FFFFF5CF5FF0020E45C0D9FF46C061
:10197A00DAFFDE26000EDD2247C0D9FF48C0DAFFB3
:10198A00DFCF49F0020EDE26DFCF4AF0000EDD225D
:10199A0049C0D9FF4AC0DAFFDECF4BF0DDCF4CF0A9
:1019AA004BC060F04CC061F0626A636A646A656A3F
:1019BA00666A676A76EF0BF0FFFF45C0D9FF46C03B
:1019CA00DAFFDECFF6FFDDCFF7FF0800FFFFF550A5
:1019DA00250AD8A4F3EF0CF0F6EF0CF0FFFF0FEF97
:1019EA000DF0FFFF45C0D9FF46C0DAFFDE2A000E20
:1019FA00DD22000E026E250E016E43C003F044C0C4
:101A0A0004F08FEC3FF0FFFF000E446E010E436EB0
:101A1A0036EF0DF0FFFF45C0D9FF46C0DAFFDE2AD8
:101A2A00000EDD224CEF08F0FFFF45C0D9FF46C08B
:101A3A00DAFFDECFF6FFDDCFF7FF0800FFFFF55034
:101A4A00016E026A43C003F044C004F08FEC3FF019
:101A5A0045C0D9FF46C0DAFFDE2A000EDD2208EFB4
:101A6A000DF0FFFF1200FFFFFFFF0450800B0D6E09
:101A7A00045004240F6E03AE45EF0DF048EF0DF04D
:101A8A00FFFF4AEF0DF0FFFF0F80FFFF0F50D8B4A2
:101A9A0051EF0DF054EF0DF0FFFF6DEF0DF0FFFF6A
:101AAA000F28D8A45BEF0DF05EEF0DF0FFFF67EF94
:101ABA000DF0FFFF000E016E000E026E000E036EA7
:101ACA00000E046EFFFF038E000E046E76EF0DF01B
:101ADA00FFFF000E016E000E026E000E036E000E76
:101AEA00046EFFFF0850800B0E6E0D500E18D8B40E
:101AFA0081EF0DF084EF0DF0FFFF86EF0DF0FFFF91
:101B0A000D8CFFFF085008240E6E07AE8FEF0DF004
:101B1A0092EF0DF0FFFF94EF0DF0FFFF0E80FFFF35
:101B2A000E50D8B49BEF0DF09EEF0DF0FFFFB7EF0C
:101B3A000DF0FFFF0E28D8A4A5EF0DF0A8EF0DF0C9
:101B4A00FFFFB1EF0DF0FFFF000E056E000E066EEF
:101B5A00000E076E000E086EFFFF078E000E086E5D
:101B6A00C0EF0DF0FFFF000E056E000E066E000EB0
:101B7A00076E000E086EFFFF0F500E5CD8B0C8EF5C
:101B8A000DF0CBEF0DF0FFFFF6EF0DF0FFFF0DAC00
:101B9A00D1EF0DF0D4EF0DF0FFFFD7EF0DF0FFFFFF
:101BAA00800E0D1AFFFF0FC010F00EC00FF010C00C
:101BBA000EF001C010F005C001F010C005F002C01F
:101BCA0010F006C002F010C006F003C010F007C003
:101BDA0003F010C007F004C010F008C004F010C0F1
:101BEA0008F0FFFF000E106E0F500EC009F00A6ACF
:101BFA00095E000E0A5A0ABE0CEF0EF00A500AE1FC
:101C0A001A0E095CD8A00CEF0EF00FEF0EF0FFFFD2
:101C1A0052EF0EF0FFFF0150021003100410D8A477
:101C2A0019EF0EF01DEF0EF0FFFF010E1FEF0EF081
:101C3A00FFFF000EFFFF106E000E016E000E026E17
:101C4A00000E036E000E046E0EC00FF05DEF0EF074
:101C5A00FFFF10A033EF0EF036EF0EF0FFFF3DEF5F
:101C6A000EF0FFFFD89010300109106E40EF0EF011
:101C7A00FFFFD8901032FFFF01A046EF0EF049EFA8
:101C8A000EF0FFFF4BEF0EF0FFFF108EFFFF043444
:101C9A0004320332023201320F2AFFFF0E500F5C68
:101CAA00D8A05AEF0EF05DEF0EF0FFFF2DEF0EF009
:101CBA00FFFF0DBC63EF0EF066EF0EF0FFFFB3EF10
:101CCA000EF0FFFF0F50D8A46DEF0EF070EF0EF07C
:101CDA00FFFF7BEF0EF0FFFF000E016E000E026E9B
:101CEA00000E036E000E046E0AEF10F0FFFF05509F
:101CFA00012606500222075003220850042204A09B
:101D0A0089EF0EF08CEF0EF0FFFF57EF0FF0FFFF99
:101D1A0010A092EF0EF095EF0EF0FFFF9CEF0EF081
:101D2A00FFFFD89010300109106E9FEF0EF0FFFFF1
:101D3A00D8901032FFFF01A0A5EF0EF0A8EF0EF029
:101D4A00FFFFAAEF0EF0FFFF108EFFFF04340432EC
:101D5A000332023201320F2A57EF0FF0FFFF05500C
:101D6A00015C06500258075003580450800A096E55
:101D7A000850800A0958D8B0C5EF0EF0C8EF0EF027
:101D8A00FFFFF6EF0EF0FFFF0150055C096E0250EF
:101D9A0006580A6E035007580B6E045008580C6E0A
:101DAA00FF0E0924016EFF0E0A20026EFF0E0B20A1
:101DBA00036EFF0E0C20046E800E0D1A106C10506C
:101DCA00D8A4EAEF0EF0EDEF0EF0FFFFFFEF0EF0F2
:101DDA00FFFF010E0126000E022203220422FFEF5A
:101DEA000EF0FFFF0550015E0650025A0750035AD3
:101DFA000850045AFFFF0150021003100410D8A41F
:101E0A0009EF0FF00CEF0FF0FFFF4EEF0FF0FFFF9F
:101E1A001050D8A413EF0FF016EF0FF0FFFF4EEF9C
:101E2A000FF0FFFF000E016E000E026E000E036E31
:101E3A00000E046E0AEF10F0FFFFD890013602364A
:101E4A000336043610AE2CEF0FF02FEF0FF0FFFF22
:101E5A0031EF0FF0FFFF0180FFFF10A037EF0FF007
:101E6A003AEF0FF0FFFF3FEF0FF0FFFFD880103679
:101E7A0042EF0FF0FFFFD8901036FFFF0F50D8B493
:101E8A0049EF0FF04CEF0FF0FFFF4EEF0FF0FFFF9F
:101E9A000F06FFFF03AE54EF0FF057EF0FF0FFFFEF
:101EAA0021EF0FF0FFFF000E0E6E10AE5FEF0FF086
:101EBA0062EF0FF0FFFF81EF0FF0FFFF10C009F094
:101ECA007F0E0916D8B46CEF0FF06FEF0FF0FFFF1B
:101EDA0075EF0FF0FFFFFFFF010E0E6E81EF0FF09F
:101EEA00FFFF01A07BEF0FF07EEF0FF0FFFF81EF06
:101EFA000FF0FFFF70EF0FF0FFFF0E50D8B488EF1E
:101F0A000FF08BEF0FF0FFFFBBEF0FF0FFFF010E9B
:101F1A000126000E02220322042204A097EF0FF0EA
:101F2A009AEF0FF0FFFFBBEF0FF0FFFF01C009F0C0
:101F3A0002C00AF003C00BF004C00CF00C340C32DF
:101F4A000B320A32093209C001F00AC002F00BC092
:101F5A0003F00CC004F00F28D8B4B6EF0FF0B9EFB5
:101F6A000FF0FFFFBBEF0FF0FFFF0F2AFFFF0F2855
:101F7A00D8B4C2EF0FF0C5EF0FF0FFFFCFEF0FF0AD
:101F8A00FFFF0F50D8A4CCEF0FF0CFEF0FF0FFFFF9
:101F9A00E4EF0FF0FFFF000E016E000E026E000E5E
:101FAA00036E000E046E0F50D8A4DEEF0FF0E1EFBF
:101FBA000FF0FFFFE4EF0FF0FFFF000E0D6EFFFFC3
:101FCA000FA0EAEF0FF0EDEF0FF0FFFFF1EF0FF0C8
:101FDA00FFFF038EF3EF0FF0FFFF039EFFFFD89082
:101FEA000F30046E0DAEFCEF0FF0FFEF0FF0FFFFA6
:101FFA0001EF10F0FFFF048EFFFF01C001F002C0E5
:10200A0002F003C003F004C004F0FFFF1200FFFF58
:10201A00FFFF0450800B0D6E04500424136E03AEB0
:10202A0019EF10F01CEF10F0FFFF1EEF10F0FFFF8A
:10203A001380FFFF1350D8B425EF10F028EF10F0EB
:10204A00FFFF3FEF10F0FFFF1328D8A42FEF10F087
:10205A0032EF10F0FFFF3BEF10F0FFFF000E016EB2
:10206A00000E026E000E036E000E046EFFFF038E5A
:10207A0048EF10F0FFFF000E016E000E026E000E18
:10208A00036E000E046EFFFF0850800B0D1A0850F5
:10209A000824126E07AE54EF10F057EF10F0FFFF4E
:1020AA0059EF10F0FFFF1280FFFF1250D8B460EF13
:1020BA0010F063EF10F0FFFF7AEF10F0FFFF122825
:1020CA00D8A46AEF10F06DEF10F0FFFF76EF10F072
:1020DA00FFFF000E056E000E066E000E076E000E64
:1020EA00086EFFFF078E83EF10F0FFFF000E056EEC
:1020FA00000E066E000E076E000E086EFFFF1250ED
:10210A00D8B48AEF10F08DEF10F0FFFF97EF10F0C0
:10211A00FFFF1350D8A494EF10F097EF10F0FFFFD1
:10212A00A2EF10F0FFFF000E016E000E026E000E0D
:10213A00036E000E046E5CEF12F0FFFF07500102FF
:10214A00F3CF18F0F4CF19F018500E6E0F6A106A18
:10215A00116A1950146E156A166A176A0650020235
:10216A00F3CF18F0F4CF19F018500E26000E0F22F4
:10217A001022112219501426000E15221622172297
:10218A0005500302F3CF18F0F4CF19F018500E26B9
:10219A00000E0F221022112219501426000E1522A9
:1021AA001622172210C011F00FC010F00EC00FF047
:1021BA000E6A05500202F3CF18F0F4CF19F0185046
:1021CA000E2619500F22000E1022000E1122065060
:1021DA000102F3CF18F0F4CF19F018500E26195057
:1021EA000F22000E1022000E112210C011F00FC093
:1021FA0010F00EC00FF00E6A05500102F3CF18F06E
:10220A00F4CF19F018500E2619500F22000E102282
:10221A00000E112207500202F3CF18F0F4CF19F082
:10222A001850142619501522000E1622000E1722D5
:10223A0006500302F3CF18F0F4CF19F01850142601
:10224A0019501522000E1622000E172207500302FB
:10225A00F3CF18F0F4CF19F01850096E19500A6E1E
:10226A000B6A0C6A0BC00CF00AC00BF009C00AF02A
:10227A00096A095014260A5015220B5016220C50CE
:10228A0017220EC009F00FC00AF010C00BF011C0DF
:10229A000CF0190E57EF11F0FFFFD8900C320B32E9
:1022AA000A320932FFFFE82E51EF11F009501426C5
:1022BA000A5015220B5016220C50172210C011F08A
:1022CA000FC010F00EC00FF00E6A125013C009F0C2
:1022DA000A6A0926000E0A22820E0924186EFF0EC7
:1022EA000A20196E92EF11F0FFFFD89014361536B6
:1022FA001636173611AE84EF11F087EF11F0FFFF93
:10230A0089EF11F0FFFF1480FFFFD8900E360F36C9
:10231A00103611361806D8A01906FFFF16AE98EF28
:10232A0011F09BEF11F0FFFF79EF11F0FFFF000EA4
:10233A00126E11AEA3EF11F0A6EF11F0FFFFD1EF6D
:10234A0011F0FFFFFF0E0E14096EFF0E0F140A6E36
:10235A00FF0E10140B6E7F0E11140C6E09500A102A
:10236A000B100C10D8B4BCEF11F0BFEF11F0FFFF47
:10237A00C5EF11F0FFFFFFFF010E126ED1EF11F052
:10238A00FFFF14A0CBEF11F0CEEF11F0FFFFD1EF5A
:10239A0011F0FFFFC0EF11F0FFFF1250D8B4D8EFD1
:1023AA0011F0DBEF11F0FFFF02EF12F0FFFF010E59
:1023BA001426000E15221622172217A0E7EF11F095
:1023CA00EAEF11F0FFFF02EF12F0FFFF14C009F06D
:1023DA0015C00AF016C00BF017C00CF00C340C3202
:1023EA000B320A32093209C014F00AC015F00BC0C8
:1023FA0016F00CC017F0184A192AFFFF19BE0EEF83
:10240A0012F0195009E11828D8A00EEF12F011EFB6
:10241A0012F0FFFF1CEF12F0FFFF000E146E000E09
:10242A00156E800E166E7F0E176E51EF12F0FFFFBB
:10243A0019BE2BEF12F0195006E11804D8B028EF94
:10244A0012F02BEF12F0FFFF38EF12F0FFFF000E31
:10245A00146E000E156E000E166E000E176E000E2C
:10246A000D6E51EF12F0FFFF18C013F0FF0E141695
:10247A00FF0E15167F0E1616000E171613A048EF3C
:10248A0012F04BEF12F0FFFF4DEF12F0FFFF168E26
:10249A00FFFFD8901330176EFFFF0D50171214C0AC
:1024AA0001F015C002F016C003F017C004F0FFFFD8
:1024BA001200FFFFFFFF80C02CF081C02DF082C008
:1024CA002EF083C02FF01AC02CF01BC02DF01CC0B8
:1024DA002EF01DC02FF02CC01EF02DC01FF02EC0F4
:1024EA0020F02FC021F0180E81EF12F0FFFFD890D4
:1024FA00213220321F321E32FFFFE82E7BEF12F00C
:10250A001E50266E276A27BE94EF12F027500AE162
:10251A00960E265CD8A094EF12F097EF12F0FFFF08
:10252A00A2EF12F0FFFF1AC01AF01BC01BF01CC06A
:10253A001CF01DC01DF04FEF14F0FFFF2CC01EF061
:10254A002DC01FF02EC020F02FC021F0200EB4EFB6
:10255A0012F0FFFFD890213220321F321E32FFFFC5
:10256A00E82EAEEF12F01E501F1020102110D8B422
:10257A00C1EF12F0C4EF12F0FFFFD7EF12F0FFFF26
:10258A001AC001F01BC002F01CC003F01DC004F009
:10259A0039EC3DF001C01AF002C01BF003C01CF078
:1025AA0004C01DF0FFFF27BEE7EF12F0275007E136
:1025BA007E0E265CD8B0E4EF12F0E7EF12F0FFFFD0
:1025CA0004EF13F0FFFF2CC001F02DC002F02EC063
:1025DA0003F02FC004F0000E056E000E066E000E0A
:1025EA00076E000E086E0DEC10F001C01AF002C062
:1025FA001BF003C01CF004C01DF04FEF14F0FFFFE6
:10260A00000E056E000E066E000E076E4B0E086E6B
:10261A001AC001F01BC002F01CC003F01DC004F078
:10262A0039EC0DF001C028F002C029F003C02AF0ED
:10263A0004C02BF0000E056E000E066E000E076E2B
:10264A00CB0E086E28C001F029C002F02AC003F0A0
:10265A002BC004F039EC0DF001C022F002C023F0C7
:10266A0003C024F004C025F022C011F023C012F0E8
:10267A0024C013F025C014F01AC015F01BC016F0C0
:10268A001CC017F01DC018F025EC3EF011C030F048
:10269A0012C031F013C032F014C033F0000E016ED4
:1026AA00000E026E000E036E3F0E046E30C005F07F
:1026BA0031C006F032C007F033C008F03CEC1FF01E
:1026CA00D8B06AEF13F06DEF13F0FFFFA4EF13F029
:1026DA00FFFF1AC005F01BC006F01CC007F01DC0A2
:1026EA0008F030C001F031C002F032C003F033C04C
:1026FA0004F039EC0DF001C028F002C029F003C043
:10270A002AF004C02BF028C001F029C002F02AC028
:10271A0003F02BC004F0000E056E000E066E800E4C
:10272A00076EBF0E086E39EC0DF001C030F002C022
:10273A0031F003C032F004C033F011EF14F0FFFFA0
:10274A00000E016E000E026E000E036EBF0E046EC6
:10275A0030C005F031C006F032C007F033C008F0CF
:10276A003CEC1FF0D8A0BCEF13F0BFEF13F0FFFF53
:10277A00F6EF13F0FFFF1AC005F01BC006F01CC0ED
:10278A0007F01DC008F030C001F031C002F032C0BD
:10279A0003F033C004F039EC0DF001C028F002C098
:1027AA0029F003C02AF004C02BF028C001F029C088
:1027BA0002F02AC003F02BC004F0000E056E000ED2
:1027CA00066E800E076E3F0E086E39EC0DF001C0E2
:1027DA0030F002C031F003C032F004C033F011EF20
:1027EA0014F0FFFF30C001F031C002F032C003F034
:1027FA0033C004F01AC005F01BC006F01CC007F075
:10280A001DC008F039EC0DF001C030F002C031F003
:10281A0003C032F004C033F0FFFF2CC01EF02DC0FD
:10282A001FF02EC020F02FC021F0200E23EF14F04D
:10283A00FFFFD890213220321F321E32FFFFE82ECE
:10284A001DEF14F01E501F1020102110D8B430EFC5
:10285A0014F033EF14F0FFFF46EF14F0FFFF30C01F
:10286A0001F031C002F032C003F033C004F039EC99
:10287A003DF001C030F002C031F003C032F004C0B4
:10288A0033F0FFFF30C01AF031C01BF032C01CF029
:10289A0033C01DF0FFFF1200FFFFFFFF1EC036F01E
:1028AA001FC037F020C038F021C039F022C03AF0FA
:1028BA0023C03BF024C03CF025C03DF03DBE68EF8C
:1028CA0014F06CEF14F0FFFF010E6EEF14F0FFFF2F
:1028DA00000EFFFF346E356A34503510D8B478EFE5
:1028EA0014F07BEF14F0FFFF8CEF14F0FFFF3D1E96
:1028FA003C1E3B1E3A1E391E381E371E366C000E11
:10290A003722382239223A223B223C223D22FFFF3B
:10291A00000189BF93EF14F096EF14F0FFFF98EFD0
:10292A0014F0FFFF8A93FFFF89BFA7EF14F08951C4
:10293A0006E18805D8B0A4EF14F0A7EF14F0FFFF62
:10294A00AEEF14F0FFFF000E316E010E306EB3EFE2
:10295A0014F0FFFF88C030F089C031F0FFFF86C055
:10296A0032F087C033F034503510D8A4BFEF14F0DA
:10297A00C2EF14F0FFFFCBEF14F0FFFF8AA5C8EFF8
:10298A0014F0CBEF14F0FFFFCFEF14F0FFFF320685
:10299A00D8A03306FFFF000E3F6E1F0E3E6E000EDC
:1029AA00AD6F55EF15F0FFFF3E06D8A03F068E0E1D
:1029BA003E24D96E000E3F20DA6E36C001F037C0D1
:1029CA0002F038C003F039C004F03AC005F03BC049
:1029DA0006F03CC007F03DC008F00A0E096E000E72
:1029EA000A6E000E0B6E000E0C6E000E0D6E000EBF
:1029FA000E6E000E0F6E000E106E3CEC1DF001C044
:102A0A0026F002C027F003C028F004C029F005C050
:102A1A002AF006C02BF007C02CF008C02DF026C003
:102A2A0013F028C014F070EC3EF01350300FDF6E34
:102A3A003006D8A031063206D8A0330636C001F0D7
:102A4A0037C002F038C003F039C004F03AC005F0CC
:102A5A003BC006F03CC007F03DC008F00A0E096E04
:102A6A00000E0A6E000E0B6E000E0C6E000E0D6E3E
:102A7A00000E0E6E000E0F6E000E106E62EC1CF051
:102A8A0001C036F002C037F003C038F004C039F094
:102A9A0005C03AF006C03BF007C03CF008C03DF064
:102AAA00FFFF3FBE61EF15F03F5009E13E04D8A099
:102ABA0061EF15F064EF15F0FFFF9DEF15F0FFFFD2
:102ACA0036503710381039103A103B103C103D1070
:102ADA00D8A472EF15F075EF15F0FFFFD8EF14F0D8
:102AEA00FFFF31BE84EF15F0315006E13004D8B053
:102AFA0081EF15F084EF15F0FFFFD8EF14F0FFFF18
:102B0A0033BE90EF15F0335009E13204D8A090EFAC
:102B1A0015F093EF15F0FFFF9DEF15F0FFFF000191
:102B2A008AB39AEF15F09DEF15F0FFFFD8EF14F076
:102B3A00FFFF34503510D8A4A5EF15F0A8EF15F013
:102B4A00FFFFB2EF15F0FFFF00018AA5AFEF15F006
:102B5A00B2EF15F0FFFFD5EF15F0FFFF3E06D8A044
:102B6A003F0634503510D8A4BDEF15F0C0EF15F06C
:102B7A00FFFFC7EF15F0FFFF000E2F6E2B0E2E6E14
:102B8A00CCEF15F0FFFF000E2F6E2D0E2E6EFFFFFD
:102B9A008E0E3E24D96E000E3F20DA6E2EC0DFFF65
:102BAA00FFFF1CC011F01DC012F08E0E3E24136EE2
:102BBA00000E3F20146E32C015F033C016F048ECF8
:102BCA0002F011C01CF012C01DF01200FFFFFFFF3F
:102BDA00000189BFF3EF15F0F6EF15F0FFFFF8EFEC
:102BEA0015F0FFFF8A93FFFF89BF07EF16F089519F
:102BFA0006E18805D8B004EF16F007EF16F0FFFFDC
:102C0A000EEF16F0FFFF000E346E010E336E13EF57
:102C1A0016F0FFFF88C033F089C034F0FFFF86C08A
:102C2A0035F087C036F08AA91DEF16F020EF16F0AE
:102C3A00FFFF25EF16F0FFFFFE0E3526FF0E3622A8
:102C4A00FFFF1EC037F01FC038F020C039F021C086
:102C5A003AF022C03BF023C03CF024C03DF025C02E
:102C6A003EF0000E406E1F0E3F6E000EAD6F03EF7A
:102C7A0017F0FFFF3F06D8A040060F0E3714416E2B
:102C8A00426A42BE52EF16F042500AE10A0E415C15
:102C9A00D8A052EF16F055EF16F0FFFF5EEF16F0D0
:102CAA00FFFF570E4124416E000E4220426E65EF2F
:102CBA0016F0FFFF300E4124416E000E4220426E94
:102CCA00FFFFBF0E276EFF0E286E2650296E2A6A56
:102CDA002750292628502A222A500BE11A0E295C4D
:102CEA00D8A07AEF16F07EEF16F0FFFF010E80EF04
:102CFA0016F0FFFF000EFFFF2F6E306A2F503010C4
:102D0A00D8B48AEF16F08DEF16F0FFFFC3EF16F076
:102D1A00FFFF9F0E276EFF0E286E200E4110296EB0
:102D2A00000E42102A6E2750292628502A222A509D
:102D3A000BE11A0E295CD8A0A5EF16F0A9EF16F040
:102D4A00FFFF010EABEF16F0FFFF000EFFFF316E23
:102D5A00326A31503210D8B4B5EF16F0B8EF16F027
:102D6A00FFFFC3EF16F0FFFF41C007F042C008F0B3
:102D7A001FEC3FF007C041F008C042F0FFFF8E0E83
:102D8A003F24D96E000E4020DA6E41C0DFFF3306C1
:102D9A00D8A034063506D8A0360637C027F038C082
:102DAA0028F039C029F03AC02AF03BC02BF03CC0C9
:102DBA002CF03DC02DF03EC02EF0050EEFEF16F0C0
:102DCA00FFFFD8902E322D322C322B322A32293262
:102DDA0028322732FFFFE82EE5EF16F027C037F03A
:102DEA0028C038F029C039F02AC03AF02BC03BF08D
:102DFA002CC03CF02DC03DF02EC03EF0FFFF40BE7F
:102E0A0010EF17F040500AE1020E3F5CD8A010EF15
:102E1A0017F013EF17F0FFFF4CEF17F0FFFF3750D3
:102E2A00381039103A103B103C103D103E10D8A40F
:102E3A0021EF17F024EF17F0FFFF3EEF16F0FFFF28
:102E4A0034BE33EF17F0345006E13304D8B030EF14
:102E5A0017F033EF17F0FFFF3EEF16F0FFFF36BE15
:102E6A003FEF17F0365009E13504D8A03FEF17F0CD
:102E7A0042EF17F0FFFF4CEF17F0FFFF00018AB394
:102E8A0049EF17F04CEF17F0FFFF3EEF16F0FFFF88
:102E9A0000018AA953EF17F056EF17F0FFFF6DEF05
:102EAA0017F0FFFF3F06D8A040068E0E3F24D96ECA
:102EBA00000E4020DA6E26C0DFFF3F06D8A040068B
:102ECA008E0E3F24D96E000E4020DA6E300EDF6E71
:102EDA00FFFF1CC011F01DC012F08E0E3F24136EAE
:102EEA00000E4020146E35C015F036C016F048ECBE
:102EFA0002F011C01CF012C01DF01200FFFFFFFF0C
:102F0A00000189BF8BEF17F08EEF17F0FFFF90EFEC
:102F1A0017F0FFFF8A93FFFF89BF9FEF17F08951D0
:102F2A0006E18805D8B09CEF17F09FEF17F0FFFF76
:102F3A00A6EF17F0FFFF000E2F6E010E2E6EABEFFD
:102F4A0017F0FFFF88C02EF089C02FF0FFFF86C060
:102F5A0030F087C031F01EC032F01FC033F020C0FD
:102F6A0034F021C035F022C036F023C037F024C037
:102F7A0038F025C039F0000E3B6E1F0E3A6E000E77
:102F8A00AD6F3FEF18F0FFFF3A06D8A03B068E0E52
:102F9A003A24D96E000E3B20DA6E32C001F033C0FB
:102FAA0002F034C003F035C004F036C005F037C073
:102FBA0006F038C007F039C008F00A0E096E000E94
:102FCA000A6E000E0B6E000E0C6E000E0D6E000ED9
:102FDA000E6E000E0F6E000E106ED3EC01F001C0E3
:102FEA0026F002C027F003C028F004C029F005C06B
:102FFA002AF006C02BF007C02CF008C02DF026508E
:10300A00300FDF6E2E06D8A02F063006D8A0310664
:10301A0032C001F033C002F034C003F035C004F00E
:10302A0036C005F037C006F038C007F039C008F0DE
:10303A000A0E096E000E0A6E000E0B6E000E0C6E62
:10304A00000E0D6E000E0E6E000E0F6E000E106E4C
:10305A00CAEC00F001C032F002C033F003C034F011
:10306A0004C035F005C036F006C037F007C038F0A6
:10307A0008C039F0FFFF3A503B10D8B447EF18F0B8
:10308A004AEF18F0FFFF83EF18F0FFFF32503310BA
:10309A00341035103610371038103910D8A458EFBC
:1030AA0018F05BEF18F0FFFFC8EF17F0FFFF2FBE15
:1030BA006AEF18F02F5006E12E04D8B067EF18F027
:1030CA006AEF18F0FFFFC8EF17F0FFFF31BE76EF87
:1030DA0018F0315009E13004D8A076EF18F079EFF2
:1030EA0018F0FFFF83EF18F0FFFF00018AB380EFAB
:1030FA0018F083EF18F0FFFFC8EF17F0FFFF1CC0AE
:10310A0011F01DC012F08E0E3A24136E000E3B20F1
:10311A00146E30C015F031C016F048EC02F011C040
:10312A001CF012C01DF01200FFFFFFFF000189BF53
:10313A00A1EF18F0A4EF18F0FFFFA6EF18F0FFFFB9
:10314A008A93FFFF89BFB5EF18F0895106E1880518
:10315A00D8B0B2EF18F0B5EF18F0FFFFBCEF18F0D7
:10316A00FFFF000E2F6E010E2E6EC1EF18F0FFFF4B
:10317A0088C02EF089C02FF0FFFF86C032F087C0CA
:10318A0033F01EC034F01FC035F020C036F021C025
:10319A0037F022C038F023C039F024C03AF025C0F5
:1031AA003BF0000E3D6E1F0E3C6E000EAD6F000E22
:1031BA00316E000E306E2AEF19F0FFFF3C06D8A0E0
:1031CA003D06070E3414306E316A8E0E3C24D96ED9
:1031DA00000E3D20DA6E3050300FDF6E2E06D8A07A
:1031EA002F063206D8A0330634C026F035C027F0A1
:1031FA0036C028F037C029F038C02AF039C02BF081
:10320A003AC02CF03BC02DF0040E16EF19F0FFFF68
:10321A00D8902D322C322B322A32293228322732B8
:10322A002632FFFFE82E0CEF19F026C034F027C033
:10323A0035F028C036F029C037F02AC038F02BC044
:10324A0039F02CC03AF02DC03BF0FFFF3DBE36EFFF
:10325A0019F03D5009E13C04D8A036EF19F039EFD6
:10326A0019F0FFFF72EF19F0FFFF345035103610D6
:10327A003710381039103A103B10D8A447EF19F01C
:10328A004AEF19F0FFFFE2EF18F0FFFF2FBE59EFE8
:10329A0019F02F5006E12E04D8B056EF19F059EF65
:1032AA0019F0FFFFE2EF18F0FFFF33BE65EF19F0E8
:1032BA00335009E13204D8A065EF19F068EF19F02C
:1032CA00FFFF72EF19F0FFFF00018AB36FEF19F0E9
:1032DA0072EF19F0FFFFE2EF18F0FFFF00018AA971
:1032EA0079EF19F07CEF19F0FFFF96EF19F0FFFF65
:1032FA0030503110D8B484EF19F087EF19F0FFFF7E
:10330A0096EF19F0FFFF3C06D8A03D068E0E3C242E
:10331A00D96E000E3D20DA6E300EDF6E3206D8A06E
:10332A003306FFFF1CC011F01DC012F08E0E3C24A4
:10333A00136E000E3D20146E32C015F033C016F025
:10334A0048EC02F011C01CF012C01DF01200FFFF81
:10335A00FFFF20EEC4F010EE0FF0060EDBCFE3FF06
:10336A00E806FCE20CC01AF00DC01BF01A501B1044
:10337A00D8A4C2EF19F0C5EF19F0FFFFCAEF19F090
:10338A00FFFF0F0E1A6E000E1B6EFFFF1AC001F030
:10339A001BC002F0BEEC3EF001C01EF002C01FF0DE
:1033AA0088C01CF089C01DF01DBEDEEF19F0E1EFE8
:1033BA0019F0FFFFFAEF19F0FFFF1E501C5C1D50B9
:1033CA00800A0E6E1F50800A0E58D8A0EFEF19F02F
:1033DA00F2EF19F0FFFFF5EF19F0FFFFFAEF19F01E
:1033EA00FFFF1CC01EF01DC01FF0FFFF1EC01CF017
:1033FA001FC01DF086C018F087C019F000018AB1FD
:10340A0009EF1AF00CEF1AF0FFFF2DEF1AF0FFFF89
:10341A001CEF1AF0FFFF000E026E200E016E0AC0AA
:10342A0003F00BC004F08FEC3FF01E4A1F2AFFFF87
:10343A0018501E5C1F50800A0E6E1950800A0E58D2
:10344A00D8A02AEF1AF02DEF1AF0FFFF0FEF1AF0AB
:10345A00FFFF000E176E000E166E54EF1AF0FFFFF4
:10346A001AC0F6FF1BC0F7FFF86A050EF76404D00E
:10347A000800FFFFF55005D0F6CFE1FFF7CFE2FFD6
:10348A00E7500E6E0E50016E026A0AC003F00BC0BE
:10349A0004F08FEC3FF01A4A1B2A164A172AFFFF3C
:1034AA001C50165C1750800A0E6E1D50800A0E586A
:1034BA00D8A062EF1AF065EF1AF0FFFF34EF1AF0A6
:1034CA00FFFF00018AA16CEF1AF06FEF1AF0FFFFFD
:1034DA0090EF1AF0FFFF7FEF1AF0FFFF000E026E67
:1034EA00200E016E0AC003F00BC004F08FEC3FF00F
:1034FA001E4A1F2AFFFF18501E5C1F50800A0E6EBC
:10350A001950800A0E58D8A08DEF1AF090EF1AF0D1
:10351A00FFFF72EF1AF0FFFF1EC00AF01FC00BF088
:10352A001200FFFFFFFF000E166E000E156E000E52
:10353A000F6E000E0E6EA5EF1AF0FFFF084A092A59
:10354A00FFFF010E146E08C0F6FF09C0F7FF08005E
:10355A00FFFFF550200AD8B4B5EF1AF0B8EF1AF009
:10356A00FFFFD9EF1AF0FFFFF70E0A6EFF0E0B6E80
:10357A0008C0F6FF09C0F7FF0800FFFFF5500C6E00
:10358A000D6A0A500C260B500D220D500AE1050E49
:10359A000C5CD8A0D3EF1AF0D6EF1AF0FFFFD9EFE0
:1035AA001AF0FFFF000E146EFFFF14C010F0116A2C
:1035BA0010501110D8A4E4EF1AF0E7EF1AF0FFFF49
:1035CA00A2EF1AF0FFFFF4EF1AF0FFFF000E0F6EE2
:1035DA00010E0E6EFFFF084A092A2EEF1BF0FFFFAD
:1035EA0008C0F6FF09C0F7FF0800FFFFF5500A6E92
:1035FA000B6A0B50000AD8B405EF1BF02EEF1BF034
:10360A00FFFF0A502B0AD8B4EFEF1AF0060AD8B413
:10361A00EAEF1AF02EEF1BF0FFFF15C001F016C0FB
:10362A0002F0000E046E0A0E036EB0EC3CF008C005
:10363A00F6FF09C0F7FF0800FFFFF550015E000E14
:10364A00025A300E0124156E000E0220166EEFEF9C
:10365A001AF0FFFFD00E0A6EFF0E0B6E08C0F6FFBF
:10366A0009C0F7FF0800FFFFF5500C6E0D6A0A50FB
:10367A000C260B500D220D500BE10A0E0C5CD8A043
:10368A0049EF1BF04DEF1BF0FFFF010E4FEF1BF050
:10369A00FFFF000EFFFF126E136A12501310D8A418
:1036AA0059EF1BF05CEF1BF0FFFF11EF1BF0FFFF60
:1036BA000E500F10D8A464EF1BF067EF1BF0FFFF4A
:1036CA0076EF1BF0FFFF15C00AF016C00BF00A1EBA
:1036DA000B1E0A4A0B2A0AC008F00BC009F07BEF3E
:1036EA001BF0FFFF15C008F016C009F0FFFF12001B
:1036FA00FFFFFFFF80EC3CF019EC3DF072EC3CF070
:10370A00BBEC02F00C0EDFEC3CF0F28EFFFF010185
:10371A00A451D8B493EF1BF096EF1BF0FFFFE4EF30
:10372A001BF0FFFF78EC3CF00101A26FA50E016EC1
:10373A00010E026EA2513BEC00F001C0A0F102C0E2
:10374A00A1F1000E0001B86F010EB96F000EBB6F38
:10375A00A00EBA6F0D0EBC6F060EBD6FA0C1BEF0F3
:10376A00A1C1BFF0C5EC3CF0000E026E010E036E63
:10377A004AEC3EF00101A2518FEC3CF08AA0C8EF5E
:10378A001BF0CDEF1BF0FFFF7C6A7C2ACFEF1BF00A
:10379A00FFFF7C6AFFFF8A507C18FE0B7C188A6E3A
:1037AA00000E0101A46F010EDFEC3CF0800EDFEC8D
:1037BA003CF0000E046E010E056EDFEC3DF0FFFFDB
:1037CA00020E0101A519A611D8A4EEEF1BF0F1EF24
:1037DA001BF0FFFFF5EF1BF0FFFF8A828BEF1BF058
:1037EA00FFFF8A92030EA519A611D8A4FFEF1BF0BA
:1037FA0002EF1CF0FFFF23EF1CF0FFFFA351D8B428
:10380A0009EF1CF00CEF1CF0FFFF15EF1CF0FFFF97
:10381A00FFFF000E0101A66F020EA56F8BEF1BF0D2
:10382A00FFFFD5BE1BEF1CF01EEF1CF0FFFF5DEF84
:10383A001CF0FFFF9FEC3CF08BEF1BF0FFFF040E28
:10384A00A519A611D8A42CEF1CF02FEF1CF0FFFF2E
:10385A003FEF1CF0FFFFFFFF080E7D6E9E0E7C6E91
:10386A004C0EFFFFE82EFDD77C2EFBD77D2EF9D715
:10387A000DEF1CF0FFFF050EA519A611D8A448EFFD
:10388A001CF04BEF1CF0FFFF4EEF1CF0FFFF30EF78
:10389A001CF0FFFF060EA519A611D8A457EF1CF0BD
:1038AA005AEF1CF0FFFF5DEF1CF0FFFF30EF1CF03A
:1038BA00FFFF8BEF1BF039EF00F0FFFF000E126ED7
:1038CA0010BE6DEF1CF06AEF1CF0FFFF80EF1CF0DA
:1038DA00FFFF101E0F1E0E1E0D1E0C1E0B1E0A1EB3
:1038EA00096C000E0A220B220C220D220E220F2234
:1038FA001022010E126EFFFF08BE89EF1CF086EF40
:10390A001CF0FFFF9CEF1CF0FFFF081E071E061E9F
:10391A00051E041E031E021E016C000E0222032253
:10392A0004220522062207220822010E121AFFFF8C
:10393A0020EE13F0070EDE6AE806FDE209500A10CF
:10394A000B100C100D100E100F101010D8B4B0EF91
:10395A001CF0B3EF1CF0FFFF0EEF1DF0FFFF010E8E
:10396A00116EC3EF1CF0FFFFD89009360A360B36EA
:10397A000C360D360E360F361036112AFFFF10AEF2
:10398A00C9EF1CF0CCEF1CF0FFFFB8EF1CF0FFFFF3
:10399A00FFFFD890133614361536163617361836F2
:1039AA0019361A360950015C0A5002580B5003584E
:1039BA000C5004580D5005580E5006580F50075811
:1039CA0010500858D8A0ECEF1CF0EFEF1CF0FFFFE6
:1039DA0001EF1DF0FFFF0950015E0A50025A0B5019
:1039EA00035A0C50045A0D50055A0E50065A0F50DD
:1039FA00075A1050085A1380FFFFD89010320F321E
:103A0A000E320D320C320B320A320932112ECDEF40
:103A1A001CF0FFFF1250D8B415EF1DF018EF1DF07F
:103A2A00FFFF29EF1DF0FFFF1A1E191E181E171E91
:103A3A00161E151E141E136C000E142215221622B1
:103A4A001722182219221A22FFFF13C001F014C0EC
:103A5A0002F015C003F016C004F017C005F018C034
:103A6A0006F019C007F01AC008F01200FFFFFFFFA6
:103A7A00000E126E08BE47EF1DF044EF1DF0FFFF67
:103A8A005AEF1DF0FFFF081E071E061E051E041E24
:103A9A00031E021E016C000E0222032204220522CA
:103AAA00062207220822010E126EFFFF10BE63EFE4
:103ABA001DF060EF1DF0FFFF74EF1DF0FFFF101EF9
:103ACA000F1E0E1E0D1E0C1E0B1E0A1E096C000E6A
:103ADA000A220B220C220D220E220F221022FFFF95
:103AEA0009500A100B100C100D100E100F101010A8
:103AFA00D8B482EF1DF085EF1DF0FFFFD6EF1DF061
:103B0A00FFFF010E116E95EF1DF0FFFFD8900936E9
:103B1A000A360B360C360D360E360F361036112A8B
:103B2A00FFFF10AE9BEF1DF09EEF1DF0FFFF8AEF27
:103B3A001DF0FFFFFFFF0950015C0A5002580B50AD
:103B4A0003580C5004580D5005580E5006580F5083
:103B5A00075810500858D8A0B5EF1DF0B8EF1DF05F
:103B6A00FFFFC9EF1DF0FFFF0950015E0A50025A1C
:103B7A000B50035A0C50045A0D50055A0E50065A4F
:103B8A000F50075A1050085AFFFFD89010320F32C0
:103B9A000E320D320C320B320A320932112E9FEFDD
:103BAA001DF0FFFF1250D8B4DDEF1DF0E0EF1DF05D
:103BBA00FFFFF1EF1DF0FFFF081E071E061E051E80
:103BCA00041E031E021E016C000E0222032204229E
:103BDA000522062207220822FFFF01C001F002C0C7
:103BEA0002F003C003F004C004F005C005F006C0EB
:103BFA0006F007C007F008C008F01200FFFFFFFF39
:103C0A00800E735CD8A00CEF1EF00FEF1EF0FFFFC2
:103C1A0019EF1EF0FFFF000E00018D6F4B0E8C6F27
:103C2A00706871689EEF1EF0FFFF70C0B2F071C03D
:103C3A00B3F073500AE1020E725CD8A027EF1EF0AF
:103C4A002AEF1EF0FFFF38EF1EF0FFFFFF0E72246F
:103C5A000001B66FFF0E7320B76F000EB56F000E2E
:103C6A00B46F42EF1EF0FFFF000E0001B76F010EA6
:103C7A00B66F000EB56F010EB46FFFFFB20E686E1D
:103C8A00000E696E74C06AF075C06BF076C06CF095
:103C9A0077C06DF057EC3FF068C0B0F069C0B1F082
:103CAA0072507310D8B45CEF1EF05FEF1EF0FFFF86
:103CBA0099EF1EF0FFFF0001B1BF66EF1EF069EF3A
:103CCA001EF0FFFF99EF1EF0FFFFFF0E786EFF0E4A
:103CDA00796E72C07AF073C07BF078507A26795088
:103CEA007B227A50B05D7B50B159D8A07FEF1EF08D
:103CFA0082EF1EF0FFFF8BEF1EF0FFFFFF0E722414
:103D0A00AE6FFF0E7320AF6F90EF1EF0FFFFB0C0D3
:103D1A00AEF0B1C0AFF0FFFFAE517024D96EAF5113
:103D2A007120DA6E000EDF6EFFFFB0C070F0B1C016
:103D3A0071F0FFFF1200FFFFFFFF363437343D6E8C
:103D4A003D50D8A4ABEF1EF0AEEF1EF0FFFFBAEF66
:103D5A001EF0FFFFFFFF000E346E000E356E000EE0
:103D6A00366E000E376E39EF1FF0FFFF34C038F0A1
:103D7A0035C039F036C03AF037C03BF0200ECCEFF0
:103D8A001EF0FFFFD8903B323A3239323832FFFF09
:103D9A00E82EC6EF1EF038503C6E368EFF0E3416F3
:103DAA00FF0E3516FF0E3616000E3716960E3D5EBE
:103DBA003DBEE5EF1EF0E2EF1EF0FFFFFFEF1EF043
:103DCA00FFFF3D50800A970FD8B0EEEF1EF0F1EFDB
:103DDA001EF0FFFFF4EF1EF0FFFFAFEF1EF0FFFF34
:103DEA00D89037323632353234323D3EF4EF1EF057
:103DFA001DEF1FF0FFFF1F0E3D6406EF1FF009EFD6
:103E0A001FF0FFFF13EF1FF0FFFFAFEF1EF0FFFFE2
:103E1A00D89034363536363637363D06FFFF3D50B4
:103E2A00D8A41AEF1FF01DEF1FF0FFFF0CEF1FF0D1
:103E3A00FFFF3C50D8B424EF1FF027EF1FF0FFFF1D
:103E4A0030EF1FF0FFFF371E361E351E346C000E92
:103E5A00352236223722FFFF34C034F035C035F020
:103E6A0036C036F037C037F0FFFF1200FFFFFFFF02
:103E7A00000E0114096E000E02140A6E800E03145D
:103E8A000B6E7F0E04140C6E09500A100B100C10E6
:103E9A00D8A452EF1FF055EF1FF0FFFF5EEF1FF09F
:103EAA00FFFF000E016E000E026E000E036E000E82
:103EBA00046EFFFF000E0514096E000E06140A6E4A
:103ECA00800E07140B6E7F0E08140C6E09500A1030
:103EDA000B100C10D8A474EF1FF077EF1FF0FFFF40
:103EEA0080EF1FF0FFFF000E056E000E066E000E3B
:103EFA00076E000E086EFFFF04AE86EF1FF089EF13
:103F0A001FF0FFFF93EF1FF0FFFF016C021ED8B0F6
:103F1A00022A031ED8B0032A800E0456FFFF08AEF9
:103F2A0099EF1FF09CEF1FF0FFFFA6EF1FF0FFFFB6
:103F3A00056C061ED8B0062A071ED8B0072A800EBE
:103F4A000856FFFF000E011A000E021A000E031A8D
:103F5A00800E041A000E051A000E061A000E071A21
:103F6A00800E081A0550015C065002580750035883
:103F7A0008500458D8B0C4EF1FF0C7EF1FF0FFFF76
:103F8A00CBEF1FF0FFFFD890CDEF1FF0FFFFD880D7
:103F9A00FFFF1200FFFFFFFF010E076E200E011840
:103FAA000210D8B4DBEF1FF0DEEF1FF0FFFFFAEFCD
:103FBA001FF0FFFFF70E036EFF0E046E01C005F03F
:103FCA0002C006F0035005260450062206500AE1F4
:103FDA00050E055CD8A0F4EF1FF0F7EF1FF0FFFF06
:103FEA00FAEF1FF0FFFF000E076EFFFF07C001F098
:063FFA00026A1200FFFF45
:0678D200FFFF1200FFFFA2
:1078D900286E756C6C2900BD378634FFFF9E9A9D12
:1078E9008AF28C1200FFFFFFFFAECF01F0000EAE4F
:1078F9006E01501200FFFFFFFF000E8A6E000E811D
:107909006EF00E936E000E8B6E000E826E948E9446
:107919009C1200FFFFFFFF016E01C0ADFFFFFFAC2E
:10792900A299EF3CF09CEF3CF0FFFF93EF3CF0FF96
:10793900FF1200FFFFFFFF000ED56E960ED66E9860
:107949000ED76EF28AD59CD59AD596D580D582D593
:1079590084D58E1200FFFFFFFF01500302F3CF050C
:10796900F0F4CF06F001500402F35006260250034A
:1079790002F350062605C001F006C002F01200FF0E
:10798900FFFFFFBE0E0001C26F000EC36FB8C070CB
:10799900F0B9C071F0BAC072F0BBC073F0BCC0746A
:1079A900F0BDC075F0C20E766E000E776E04EC1E47
:1079B900F01200FFFFFFFF036E84820350FAEC020E
:1079C900F084941E0E026E3C0EFFFFE82EFDD702D6
:1079D9002EFBD700D084921E0E026E3C0EFFFFE8EC
:1079E9002EFDD7022EFBD700D084821200FFFFFFA5
:1079F900FF036E84820350FAEC02F084841E0E02A7
:107A09006E3C0EFFFFE82EFDD7022EFBD700D08477
:107A1900921E0E026E3C0EFFFFE82EFDD7022EFBD2
:107A2900D700D084821200FFFFFFFF550E1A6E5552
:107A39000E1B6EC80E1C6E410E1D6E5FEC12F01A05
:107A4900C034F01BC035F01CC036F01DC037F0A1A2
:107A5900EC1EF03450AF6EAC9CAC8AAC98AC84ABE5
:107A69008EAB9CAB881200FFFFFFFF015002100391
:107A7900100410D8B443EF3DF046EF3DF0FFFF4F3F
:107A8900EF3DF0FFFF000E011A000E021A000E036F
:107A99001A800E041AFFFF01C001F002C002F003B0
:107AA900C003F004C004F01200FFFFFFFFD00E0373
:107AB9006EFF0E046E01C005F002C006F00350050A
:107AC900260450062206500BE10A0E055CD8A07068
:107AD900EF3DF074EF3DF0FFFF010E76EF3DF0FF53
:107AE900FF000EFFFF016E026A1200FFFFFFFFBFDA
:107AF9000E036EFF0E046E01C005F002C006F0030E
:107B09005005260450062206500BE11A0E055CD8D2
:107B1900A091EF3DF095EF3DF0FFFF010E97EF3D8E
:107B2900F0FFFF000EFFFF016E026A1200FFFFFF68
:107B3900FF9F0E036EFF0E046E01C005F002C00622
:107B4900F0035005260450062206500BE11A0E05D3
:107B59005CD8A0B2EF3DF0B6EF3DF0FFFF010EB8E3
:107B6900EF3DF0FFFF000EFFFF016E026A1200FFFA
:107B7900FFD90EF66E780EF76E000EF86E00EEC4A1
:107B8900F010EE0BF00900F5CFEEFFE550E150FAE9
:107B9900E10101A66BA56BA46BA36B00EE80F02E2F
:107BA9000EEE6AE806FDE17E907E92000EF86E0008
:107BB900017EEF1BF0FFFF000E066EEFEF3DF0FFB9
:107BC900FF06500424D96E000E0520DA6EDF50FC42
:107BD900EC3CF0062AFFFF06500424D96E000E057E
:107BE90020DA6EDF50D8A4FCEF3DF0FFEF3DF0FF47
:107BF900FFE4EF3DF0FFFF1200FFFFFFFF9F0E03C1
:107C09006EFF0E046E200E0110056E000E021006A6
:107C19006E035005260450062206500BE11A0E0584
:107C29005CD8A01AEF3EF01EEF3EF0FFFF010E20D8
:107C3900EF3EF0FFFF000EFFFF016E026A1200FF28
:107C4900FFFFFF000E151A000E161A000E171A80F4
:107C59000E181A11C001F012C002F013C003F0147B
:107C6900C004F015C005F016C006F017C007F018DB
:107C7900C008F039EC0DF001C011F002C012F00398
:107C8900C013F004C014F01200FFFFFFFF000E053F
:107C99006E000E046E5DEF3EF0FFFF04500224D922
:107CA9006E05500320DA6EDF508FEC3CF0044A0574
:107CB9002AFFFF04500224D96E05500320DA6EDF33
:107CC90050D8A46AEF3EF06DEF3EF0FFFF51EF3E52
:107CD900F0FFFF1200FFFFFFFF14BE7FEF3EF0141D
:107CE9005006E11304D8B07CEF3EF07FEF3EF0FF81
:107CF900FF8EEF3EF0FFFF13C015F014C016F0150C
:107D09001E161E154A162A15C013F016C014F09334
:107D1900EF3EF0FFFF13C013F014C014F0FFFF1281
:107D290000FFFFFFFF000E106E000E0F6EA9EF3E61
:107D3900F0FFFF0EC001F0026A0CC003F00DC00491
:107D4900F08FEC3FF00F4A102AFFFF0F500A24D999
:107D59006E10500B20DA6EDF500E6E0E50D8A4B89C
:107D6900EF3EF0BBEF3EF0FFFF9DEF3EF0FFFF124D
:107D790000FFFFFFFF01C003F002C004F0C8EF3E9F
:107D8900F0FFFF014A022AFFFF01C0F6FF02C0F718
:107D9900FFF86A050EF76404D00800FFFFF55005E7
:107DA900D0F6CFE1FFF7CFE2FFE7500009D8A4E012
:107DB900EF3EF0E3EF3EF0FFFFC5EF3EF0FFFF03BC
:107DC90050015C016E04500258026E1200FFFFFF61
:107DD900FF000186518711D8A4F5EF3EF0F8EF3E78
:107DE900F0FFFFFFEF3EF0FFFF86C01FF087C020C6
:107DF900F006EF3FF0FFFFFF0E86251F6EFF0E878F
:107E090021206EFFFF1EC08EF0000E8F6F1CC01167
:107E1900F01DC012F08E0E136E000E146E1FC015E9
:107E2900F020C016F048EC02F011C01CF012C01D81
:107E3900F01200FFFFFFFF9F0E096EFF0E0A6E078B
:107E4900C00BF008C00CF009500B260A500C220C8C
:107E5900500BE11A0E0B5CD8A035EF3FF039EF3F1C
:107E6900F0FFFF010E3BEF3FF0FFFF000EFFFF0D9C
:107E79006E0E6A0D500E10D8B445EF3FF048EF3F33
:107E8900F0FFFF4FEF3FF0FFFF5F0E0714076E088B
:107E99006A54EF3FF0FFFF07C007F008C008F0FF82
:107EA900FF1200FFFFFFFF6AC06EF06BC06FF000AA
:107EB9000E0001856F000E846F77EF3FF0FFFF68BA
:107EC900C043F069C044F06E0E456E000E466E6CFC
:107ED900C047F06DC048F045EC03F0435000018401
:107EE9002744508523FFFF6EC0F6FF6FC0F7FF08D8
:107EF90000FFFFF5500009D8A485EF3FF088EF3F58
:107F0900F0FFFF63EF3FF0FFFF84C068F085C069B1
:107F1900F01200FFFFFFFF03500410D8B497EF3FA2
:107F2900F09AEF3FF0FFFFA5EF3FF0FFFF0350048A
:107F390010D8A4A2EF3FF0A5EF3FF0FFFFABEF3F52
:107F4900F0FFFF015069EC3CF0FDEF3FF0FFFF202F
:107F5900EE04F00350D9260450DA22DE50DE10D8A0
:107F6900B4B9EF3FF0BCEF3FF0FFFFD9EF3FF0FFAF
:107F7900FF20EE04F00350D9260450DA2210EE0255
:107F8900F00350E1260450E222DE50E65CE6508020
:107F99000A096EDE50800A0958D8B0D6EF3FF0D9E9
:107FA900EF3FF0FFFFFDEF3FF0FFFF20EE02F00390
:107FB90050D9260450DA22DECF05F0DDCF06F003D2
:107FC900C0D9FF04C0DAFFDECF07F0DDCF08F00526
:107FD900500724D96E06500820DA6E01C0DFFF2051
:107FE900EE02F00350D9260450DA22DE2A000EDD13
:077FF90022FFFF1200FFFF51
:020000040020DA
:08000000FFFFFFFFFFFFFFFF00
:020000040030CA
:0E000000FF270F0EFF0185FF0FC00FE00F401E
:00000001FF
