:020000040000FA
:0600000000F03AEF00F0F1
:10000800FFFF7F829DAA0BEF00F00EEF00F0FFFFCD
:100018001DEF00F0FFFF9EAA14EF00F017EF00F0AD
:10002800FFFF1DEF00F0FFFF9E9A010E7C6E010E90
:100038007A6EFFFFF2AA23EF00F026EF00F0FFFF31
:1000480036EF00F0FFFFF2A42CEF00F02FEF00F0E6
:10005800FFFF36EF00F0FFFF000ED56EF294010EA1
:10006800796ED59EFFFF7F921100FFFFB5EF12F06A
:10007800FFFF34EC13F0F9EC12F0F0EC13F0AE0ED5
:10008800016E000E026E000E046E000E036E000E6E
:10009800066E000E056E000E086E010E076EC40E89
:1000A800096E000E0A6E8A0E0B6E0F0E0C6E8FEC28
:1000B80010F0A20E016E000E026E000E046E000E0D
:1000C800036E000E066E000E056E000E086E010E21
:1000D800076EC00E096E000E0A6E8A0E0B6E0F0EAA
:1000E8000C6E8FEC10F0960E016E000E026E000E74
:1000F800046E000E036E000E066E000E056E000EF6
:10010800086E010E076EC40E096E000E0A6E8B0E85
:100118000B6E0F0E0C6E8FEC10F028EC11F00C0E1D
:1001280074EC13F0010E74EC13F0800E74EC13F001
:10013800E90E076E7F0E086E11EC12F0F28E000EBB
:10014800786E000E776EFFFF7C50D8B4AEEF00F0EB
:10015800B1EF00F0FFFFEBEF00F0FFFF7A50D8B4EB
:10016800B8EF00F0BBEF00F0FFFFD7EF00F0FFFFA4
:10017800DBEC13F06A6E7D0E036E000E046E6A509F
:10018800FBEC0CF0000E7A6E0E0E7D187E10D8A4D3
:10019800D0EF00F0D3EF00F0FFFFE0EF00F0FFFF3B
:1001A8008B88E0EF00F0FFFF7D0E016E000E026EFF
:1001B800E3EC10F0ADEC13F0FFFF7DC00CF07EC057
:1001C8000DF031EC10F0000E7C6E000E7B6EFFFF20
:1001D800020E7D187E10D8A4F4EF00F0F7EF00F0BF
:1001E800FFFFFBEF00F0FFFF8982A7EF00F0FFFFA2
:1001F80089927D507E10D8A404EF01F007EF01F03A
:10020800FFFF4DEF01F0FFFFBDEC13F0DBEC11F049
:100218003EC06BF03FC06CF0000E6CBEFF0E6D6E02
:100228006E6E6BC00DF06CC00EF06DC00FF06EC03E
:1002380010F0010EFFEC0BF00DC040F00EC041F0C5
:100248000FC042F010C043F0CD0E446ECC0E456E88
:10025800CC0E466E3D0E476E4DEC0EF0D8B037EF23
:1002680001F03AEF01F0FFFF87EF04F0FFFF8B8A00
:100278008B88000E7E6E0E0E7D6E010E7C6E000E5B
:100288000001BF6F000EBE6F87EF04F0FFFF87EF1E
:1002980004F0FFFF7D047E10D8A455EF01F058EF5D
:1002A80001F0FFFF62EF01F0FFFFFFFF000E7E6E1F
:1002B800020E7D6E010E7C6E87EF04F0FFFF030EC9
:1002C8007D187E10D8A46BEF01F06EEF01F0FFFFF0
:1002D80077EF01F0FFFF000E7E6E040E7D6E010EBB
:1002E8007C6E87EF04F0FFFF040E7D187E10D8A403
:1002F80080EF01F083EF01F0FFFFCDEF01F0FFFF8A
:100308007950D8B48AEF01F08DEF01F0FFFFB4EF18
:1003180001F0FFFFA3EC11F03EC04CF03FC04DF0E0
:10032800C6EC0FF04C504D10D8B49DEF01F0A0EF83
:1003380001F0FFFFA7EF01F0FFFF000E7E6E020E37
:100348007D6EADEF01F0FFFF000E7E6E0E0E7D6E2E
:100358008B88FFFF010E7C6E000E796E87EF04F02C
:10036800FFFFD5BEBAEF01F0BDEF01F0FFFFC4EF0C
:1003780001F0FFFFCCEC13F089EC13F09CEC13F0C8
:10038800FFFFA3EC11F03EC068F03FC069F087EFB3
:1003980004F0FFFF050E7D187E10D8A4D6EF01F0FB
:1003A800D9EF01F0FFFFE2EF01F0FFFF000E7E6ED4
:1003B800060E7D6E010E7C6E87EF04F0FFFF060EC1
:1003C8007D187E10D8A4EBEF01F0EEEF01F0FFFFEF
:1003D80054EF02F0FFFF030E666EEC0EFFFFE82EEF
:1003E800FDD7662EFBD771507210D8A4FEEF01F02E
:1003F80001EF02F0FFFF10EF02F0FFFFAE0E096EF3
:10040800000E0A6E000E0C6E320E0B6E67EC11F0C9
:1004180009C071F00AC072F0FFFF71507210D8B4B1
:1004280018EF02F01BEF02F0FFFF36EF02F0FFFFBC
:1004380000018E518F11D8A424EF02F027EF02F0AB
:10044800FFFF36EF02F0FFFFA20E096E000E0A6EE4
:10045800000E0C6E640E0B6E67EC11F009C08EF086
:100468000AC08FF0FFFF71C001F072C002F08EC0A9
:1004780003F08FC004F05FEC13F001500210D8B401
:1004880048EF02F04BEF02F0FFFF87EF04F0FFFFA9
:10049800000E7E6E070E7D6E010E7C6E87EF04F0F7
:1004A800FFFF070E7D187E10D8A45DEF02F060EF05
:1004B80002F0FFFFCFEF02F0FFFF030E666EEC0EB7
:1004C800FFFFE82EFDD7662EFBD7AE0E096E000E95
:1004D8000A6E000E0C6E640E0B6E67EC11F009507C
:1004E8000A10D8B47AEF02F07DEF02F0FFFF86EF32
:1004F80002F0FFFFAE0E016E000E026E19EC13F053
:10050800774A782AFFFF140E77187810D8A48FEF4F
:1005180002F092EF02F0FFFFA6EF02F0FFFF755026
:100528007610D8A49AEF02F09DEF02F0FFFFA6EF35
:1005380002F0FFFF000E7E6E080E7D6E010E7C6ECF
:1005480087EF04F0FFFF280E77187810D8A4AFEFD4
:1005580002F0B2EF02F0FFFF4AEF01F0FFFF000EDA
:10056800766E000E756E000E7E6E090E7D6E010EA3
:100578007C6E000E786E000E776EAE0E016E000E69
:10058800026E19EC13F0A20E016E000E026E19EC49
:1005980013F087EF04F0FFFF080E7D187E10D8A433
:1005A800D8EF02F0DBEF02F0FFFF7AEF03F0FFFF76
:1005B800030E666EEC0EFFFFE82EFDD7662EFBD706
:1005C80000018C518D11D8A4ECEF02F0EFEF02F08E
:1005D800FFFF00EF03F0FFFF960E096E000E0A6E94
:1005E800000E0C6EC80E0B6E67EC11F009C08CF093
:1005F8000AC08DF087EF04F0FFFF75507610D8A47D
:1006080008EF03F00BEF03F0FFFF30EF03F0FFFFFD
:100618008C518D11D8B413EF03F016EF03F0FFFFE0
:1006280030EF03F0FFFF040E676ECF0E666EA50E67
:10063800FFFFE82EFDD7662EFBD7672EF9D700D02F
:10064800000E766E010E756E960E016E000E026E2D
:1006580019EC13F087EF04F0FFFF75507610D8B44B
:1006680038EF03F03BEF03F0FFFF57EF03F0FFFF16
:1006780088518911D8A443EF03F046EF03F0FFFF38
:1006880057EF03F0FFFF960E096E000E0A6E000E7C
:100698000C6EC80E0B6E67EC11F009C088F00AC02A
:1006A80089F087EF04F0FFFF75507610D8B45FEF3C
:1006B80003F062EF03F0FFFF4AEF01F0FFFF8851FC
:1006C8008911D8B46AEF03F06DEF03F0FFFF4AEF2A
:1006D80001F0FFFF000E7E6E070E7D6E010E7C6E30
:1006E800000E8D6F000E8C6F87EF04F0FFFF090E70
:1006F8007D187E10D8A483EF03F086EF03F0FFFF88
:10070800E6EF03F0FFFF030E666EEC0EFFFFE82E28
:10071800FDD7662EFBD76F507010D8A496EF03F064
:1007280099EF03F0FFFFA8EF03F0FFFFA20E096E99
:10073800000E0A6E000E0C6E640E0B6E67EC11F064
:1007480009C06FF00AC070F0FFFF6F507010D8B486
:10075800B0EF03F0B3EF03F0FFFFCEEF03F0FFFFBE
:1007680000018A518B11D8A4BCEF03F0BFEF03F04E
:10077800FFFFCEEF03F0FFFFAE0E096E000E0A6E0C
:10078800000E0C6E320E0B6E67EC11F009C08AF089
:100798000AC08BF0FFFF6FC001F070C002F08AC082
:1007A80003F08BC004F05FEC13F001500210D8B4D2
:1007B800E0EF03F0E3EF03F0FFFF87EF04F0FFFF44
:1007C80059EF01F0FFFF0A0E7D187E10D8A4EFEF55
:1007D80003F0F2EF03F0FFFFFBEF03F0FFFF000E63
:1007E8007E6E0B0E7D6E010E7C6E87EF04F0FFFFB0
:1007F8000B0E7D187E10D8A404EF04F007EF04F068
:10080800FFFF2EEF04F0FFFF7950D8B40EEF04F08D
:1008180011EF04F0FFFF20EF04F0FFFF010E7C6EE4
:10082800000E7E6E0D0E7D6E000E746E000E736EE1
:10083800000E796E87EF04F0FFFFD5BE26EF04F0B7
:1008480029EF04F0FFFF4AEF01F0FFFF9CEC13F0E3
:1008580087EF04F0FFFF0C0E7D187E10D8A437EF49
:1008680004F03AEF04F0FFFF44EF04F0FFFF000E3E
:100878007E6E000E7D6E010E7C6ED59E87EF04F0B5
:10088800FFFF0D0E7D187E10D8A44DEF04F050EF39
:1008980004F0FFFF87EF04F0FFFF898274BE61EF69
:1008A80004F0745007E1640E735CD8B05EEF04F096
:1008B80061EF04F0FFFF6FEF04F0FFFF0A0E666EB2
:1008C800BE0EFFFFE82EFDD7662EFBD700D0734A79
:1008D800742A87EF04F0FFFF74BE7CEF04F07450B5
:1008E8000AE1640E735CD8A07CEF04F07FEF04F09B
:1008F800FFFF4AEF01F0FFFF000E7E6E000E7D6ED7
:10090800010E7C6ED59EFFFF0E0E7D187E10D8A4BA
:1009180090EF04F093EF04F0FFFFA7EF00F0FFFF64
:100928008BA899EF04F09CEF04F0FFFFE1EF04F0CF
:10093800FFFF8BAAA2EF04F0A5EF04F0FFFFE1EFA1
:1009480004F0FFFFDBEC11F03EC06BF03FC06CF031
:10095800000E6CBEFF0E6D6E6E6ECD0E406ECC0E30
:10096800416ECC0E426E3D0E436E6BC00DF06CC0F6
:100978000EF06DC00FF06EC010F0010EFFEC0BF022
:100988000DC044F00EC045F00FC046F010C047F04F
:100998004DEC0EF0D8B0D3EF04F0D6EF04F0FFFF23
:1009A800E1EF04F0FFFF8B988B9ABEC07DF0BFC0CB
:1009B8007EF0010E7C6EA7EF00F0FFFFA7EF00F0BE
:1009C8003AEF00F0FFFF0450800B0D6E0450042432
:1009D8000F6E03AEF2EF04F0F5EF04F0FFFFF7EF50
:1009E80004F0FFFF0F80FFFF0F50D8B4FEEF04F0B4
:1009F80001EF05F0FFFF1AEF05F0FFFF0F28D8A45D
:100A080008EF05F00BEF05F0FFFF14EF05F0FFFF0F
:100A1800000E016E000E026E000E036E000E046ED4
:100A2800FFFF038E000E046E23EF05F0FFFF000E9C
:100A3800016E000E026E000E036E000E046EFFFFC4
:100A48000850800B0E6E0D500E18D8B42EEF05F01E
:100A580031EF05F0FFFF33EF05F0FFFF0D8CFFFFCF
:100A6800085008240E6E07AE3CEF05F03FEF05F086
:100A7800FFFF41EF05F0FFFF0E80FFFF0E50D8B4D7
:100A880048EF05F04BEF05F0FFFF64EF05F0FFFFBF
:100A98000E28D8A452EF05F055EF05F0FFFF5EEFE2
:100AA80005F0FFFF000E056E000E066E000E076EC5
:100AB800000E086EFFFF078E000E086E6DEF05F042
:100AC800FFFF000E056E000E066E000E076E000E8C
:100AD800086EFFFF0F500E5CD8B075EF05F078EF89
:100AE80005F0FFFFA3EF05F0FFFF0DAC7EEF05F06B
:100AF80081EF05F0FFFF84EF05F0FFFF800E0D1A70
:100B0800FFFF0FC010F00EC00FF010C00EF001C0B4
:100B180010F005C001F010C005F002C010F006C0CA
:100B280002F010C006F003C010F007C003F010C0B8
:100B380007F004C010F008C004F010C008F0FFFF70
:100B4800000E106E0F500EC009F00A6A095E000E02
:100B58000A5A0ABEB9EF05F00A500AE11A0E095CF2
:100B6800D8A0B9EF05F0BCEF05F0FFFFFFEF05F0E7
:100B7800FFFF0150021003100410D8A4C6EF05F0BF
:100B8800CAEF05F0FFFF010ECCEF05F0FFFF000EE6
:100B9800FFFF106E000E016E000E026E000E036E57
:100BA800000E046E0EC00FF00AEF06F0FFFF10A053
:100BB800E0EF05F0E3EF05F0FFFFEAEF05F0FFFFD8
:100BC800D89010300109106EEDEF05F0FFFFD890B6
:100BD8001032FFFF01A0F3EF05F0F6EF05F0FFFF7D
:100BE800F8EF05F0FFFF108EFFFF043404320332E4
:100BF800023201320F2AFFFF0E500F5CD8A007EF18
:100C080006F00AEF06F0FFFFDAEF05F0FFFF0DBC74
:100C180010EF06F013EF06F0FFFF60EF06F0FFFF9E
:100C28000F50D8A41AEF06F01DEF06F0FFFF28EFCB
:100C380006F0FFFF000E016E000E026E000E036E3E
:100C4800000E046EB7EF07F0FFFF055001260650AF
:100C58000222075003220850042204A036EF06F0AF
:100C680039EF06F0FFFF04EF07F0FFFF10A03FEF9A
:100C780006F042EF06F0FFFF49EF06F0FFFFD890BD
:100C880010300109106E4CEF06F0FFFFD8901032BB
:100C9800FFFF01A052EF06F055EF06F0FFFF57EFF8
:100CA80006F0FFFF108EFFFF0434043203320232D5
:100CB80001320F2A04EF07F0FFFF0550015C0650D0
:100CC8000258075003580450800A096E0850800AD9
:100CD8000958D8B072EF06F075EF06F0FFFFA3EFE2
:100CE80006F0FFFF0150055C096E025006580A6EB7
:100CF800035007580B6E045008580C6EFF0E092459
:100D0800016EFF0E0A20026EFF0E0B20036EFF0E0F
:100D18000C20046E800E0D1A106C1050D8A497EF9A
:100D280006F09AEF06F0FFFFACEF06F0FFFF010EAA
:100D38000126000E022203220422ACEF06F0FFFF78
:100D48000550015E0650025A0750035A0850045ACB
:100D5800FFFF0150021003100410D8A4B6EF06F0EC
:100D6800B9EF06F0FFFFFBEF06F0FFFF1050D8A425
:100D7800C0EF06F0C3EF06F0FFFFFBEF06F0FFFF42
:100D8800000E016E000E026E000E036E000E046E61
:100D9800B7EF07F0FFFFD890013602360336043666
:100DA80010AED9EF06F0DCEF06F0FFFFDEEF06F03D
:100DB800FFFF0180FFFF10A0E4EF06F0E7EF06F069
:100DC800FFFFECEF06F0FFFFD8801036EFEF06F0DC
:100DD800FFFFD8901036FFFF0F50D8B4F6EF06F09B
:100DE800F9EF06F0FFFFFBEF06F0FFFF0F06FFFF2E
:100DF80003AE01EF07F004EF07F0FFFFCEEF06F0B8
:100E0800FFFF000E0E6E10AE0CEF07F00FEF07F0AD
:100E1800FFFF2EEF07F0FFFF10C009F07F0E091645
:100E2800D8B419EF07F01CEF07F0FFFF22EF07F027
:100E3800FFFFFFFF010E0E6E2EEF07F0FFFF01A070
:100E480028EF07F02BEF07F0FFFF2EEF07F0FFFF6B
:100E58001DEF07F0FFFF0E50D8B435EF07F038EF5D
:100E680007F0FFFF68EF07F0FFFF010E0126000EF5
:100E780002220322042204A044EF07F047EF07F000
:100E8800FFFF68EF07F0FFFF01C009F002C00AF09A
:100E980003C00BF004C00CF00C340C320B320A32D5
:100EA800093209C001F00AC002F00BC003F00CC0FF
:100EB80004F00F28D8B463EF07F066EF07F0FFFFE0
:100EC80068EF07F0FFFF0F2AFFFF0F28D8B46FEF76
:100ED80007F072EF07F0FFFF7CEF07F0FFFF0F50FE
:100EE800D8A479EF07F07CEF07F0FFFF91EF07F048
:100EF800FFFF000E016E000E026E000E036E000E64
:100F0800046E0F50D8A48BEF07F08EEF07F0FFFFA9
:100F180091EF07F0FFFF000E0D6EFFFF0FA097EF98
:100F280007F09AEF07F0FFFF9EEF07F0FFFF038E31
:100F3800A0EF07F0FFFF039EFFFFD8900F30046E6D
:100F48000DAEA9EF07F0ACEF07F0FFFFAEEF07F02B
:100F5800FFFF048EFFFF01C001F002C002F003C0D2
:100F680003F004C004F0FFFF1200FFFFFFFF1E5054
:100F7800800B276E1E501E242D6E1DAEC6EF07F087
:100F8800C9EF07F0FFFFCBEF07F0FFFF2D80FFFF52
:100F98002D50D8B4D2EF07F0D5EF07F0FFFFECEFF4
:100FA80007F0FFFF2D28D8A4DCEF07F0DFEF07F0EC
:100FB800FFFFE8EF07F0FFFF000E1B6E000E1C6E30
:100FC800000E1D6E000E1E6EFFFF1D8EF5EF07F062
:100FD800FFFF000E1B6E000E1C6E000E1D6E000E35
:100FE8001E6EFFFF2250800B271A225022242C6EDF
:100FF80021AE01EF08F004EF08F0FFFF06EF08F05C
:10100800FFFF2C80FFFF2C50D8B40DEF08F010EF35
:1010180008F0FFFF27EF08F0FFFF2C28D8A417EFF0
:1010280008F01AEF08F0FFFF23EF08F0FFFF000EAB
:101038001F6E000E206E000E216E000E226EFFFF46
:10104800218E30EF08F0FFFF000E1F6E000E206E9D
:10105800000E216E000E226EFFFF2C50D8B437EF21
:1010680008F03AEF08F0FFFF44EF08F0FFFF2D50BB
:10107800D8A441EF08F044EF08F0FFFF4FEF08F065
:10108800FFFF000E1B6E000E1C6E000E1D6E000E84
:101098001E6E09EF0AF0FFFF21501B02F3CF32F05A
:1010A800F4CF33F03250286E296A2A6A2B6A3350FB
:1010B8002E6E2F6A306A316A20501C02F3CF32F04C
:1010C800F4CF33F032502826000E29222A222B2270
:1010D80033502E26000E2F22302231221F501D029F
:1010E800F3CF32F0F4CF33F032502826000E292205
:1010F8002A222B2233502E26000E2F223022312274
:101108002AC02BF029C02AF028C029F0286A1F50CD
:101118001C02F3CF32F0F4CF33F03250282633508C
:101128002922000E2A22000E2B2220501B02F3CF68
:1011380032F0F4CF33F03250282633502922000EF3
:101148002A22000E2B222AC02BF029C02AF028C000
:1011580029F0286A1F501B02F3CF32F0F4CF33F086
:101168003250282633502922000E2A22000E2B2224
:1011780021501C02F3CF32F0F4CF33F032502E2638
:1011880033502F22000E3022000E312220501D0233
:10119800F3CF32F0F4CF33F032502E2633502F22D3
:1011A800000E3022000E312221501D02F3CF32F002
:1011B800F4CF33F03250236E3350246E256A266AFA
:1011C80025C026F024C025F023C024F0236A23502C
:1011D8002E2624502F22255030222650312228C076
:1011E80023F029C024F02AC025F02BC026F0190EC0
:1011F80004EF09F0FFFFD89026322532243223323B
:10120800FFFFE82EFEEF08F023502E2624502F2251
:1012180025503022265031222AC02BF029C02AF02E
:1012280028C029F0286A2C502DC023F0246A2326D0
:10123800000E2422820E2324326EFF0E2420336EE9
:101248003FEF09F0FFFFD8902E362F363036313673
:101258002BAE31EF09F034EF09F0FFFF36EF09F05C
:10126800FFFF2E80FFFFD890283629362A362B36E6
:101278003206D8A03306FFFF30AE45EF09F048EF3D
:1012880009F0FFFF26EF09F0FFFF000E2C6E2BAED2
:1012980050EF09F053EF09F0FFFF7EEF09F0FFFF71
:1012A800FF0E2814236EFF0E2914246EFF0E2A1435
:1012B800256E7F0E2B14266E235024102510261021
:1012C800D8B469EF09F06CEF09F0FFFF72EF09F08D
:1012D800FFFFFFFF010E2C6E7EEF09F0FFFF2EA02F
:1012E80078EF09F07BEF09F0FFFF7EEF09F0FFFFD1
:1012F8006DEF09F0FFFF2C50D8B485EF09F088EFA7
:1013080009F0FFFFAFEF09F0FFFF010E2E26000ED8
:101318002F223022312231A094EF09F097EF09F003
:10132800FFFFAFEF09F0FFFF2EC023F02FC024F01E
:1013380030C025F031C026F026342632253224323A
:10134800233223C02EF024C02FF025C030F026C051
:1013580031F0324A332AFFFF33BEBBEF09F0335076
:1013680009E13228D8A0BBEF09F0BEEF09F0FFFF72
:10137800C9EF09F0FFFF000E2E6E000E2F6E800ED3
:10138800306E7F0E316EFEEF09F0FFFF33BED8EFEF
:1013980009F0335006E13204D8B0D5EF09F0D8EFA0
:1013A80009F0FFFFE5EF09F0FFFF000E2E6E000EBB
:1013B8002F6E000E306E000E316E000E276EFEEF9F
:1013C80009F0FFFF32C02DF0FF0E2E16FF0E2F166C
:1013D8007F0E3016000E31162DA0F5EF09F0F8EF4C
:1013E80009F0FFFFFAEF09F0FFFF308EFFFFD890FA
:1013F8002D30316EFFFF275031122EC01BF02FC049
:101408001CF030C01DF031C01EF0FFFF1200FFFFBE
:10141800FFFF80C05EF081C05FF082C060F083C0D3
:1014280061F04CC05EF04DC05FF04EC060F04FC040
:1014380061F05EC050F05FC051F060C052F061C012
:1014480053F0180E2EEF0AF0FFFFD89053325232A5
:1014580051325032FFFFE82E28EF0AF05050586EF4
:10146800596A59BE41EF0AF059500AE1960E585C84
:10147800D8A041EF0AF044EF0AF0FFFF4FEF0AF05F
:10148800FFFF4CC04CF04DC04DF04EC04EF04FC069
:101498004FF0FCEF0BF0FFFF5EC050F05FC051F063
:1014A80060C052F061C053F0200E61EF0AF0FFFFF8
:1014B800D8905332523251325032FFFFE82E5BEF50
:1014C8000AF05050511052105310D8B46EEF0AF071
:1014D80071EF0AF0FFFF84EF0AF0FFFF4CC001F044
:1014E8004DC002F04EC003F04FC004F0D8EC12F02B
:1014F80001C04CF002C04DF003C04EF004C04FF0E4
:10150800FFFF59BE94EF0AF0595007E17E0E585C70
:10151800D8B091EF0AF094EF0AF0FFFFB1EF0AF0AC
:10152800FFFF5EC01BF05FC01CF060C01DF061C013
:101538001EF0000E1F6E000E206E000E216E000EB3
:10154800226EBAEC07F01BC04CF01CC04DF01DC059
:101558004EF01EC04FF0FCEF0BF0FFFF000E056EC3
:10156800000E066E000E076E4B0E086E4CC001F0A2
:101578004DC002F04EC003F04FC004F0E6EC04F09A
:1015880001C05AF002C05BF003C05CF004C05DF01B
:10159800000E056E000E066E000E076ECB0E086E6E
:1015A8005AC001F05BC002F05CC003F05DC004F0FB
:1015B800E6EC04F001C054F002C055F003C056F048
:1015C80004C057F054C011F055C012F056C013F0C3
:1015D80057C014F04CC015F04DC016F04EC017F0AF
:1015E8004FC018F090EC12F011C062F012C063F016
:1015F80013C064F014C065F0000E406E000E416E1A
:10160800000E426E3F0E436E62C044F063C045F068
:1016180064C046F065C047F04DEC0EF0D8B017EF47
:101628000BF01AEF0BF0FFFF51EF0BF0FFFF4CC070
:1016380005F04DC006F04EC007F04FC008F062C07C
:1016480001F063C002F064C003F065C004F0E6EC8A
:1016580004F001C05AF002C05BF003C05CF004C0A3
:101668005DF05AC001F05BC002F05CC003F05DC0E1
:1016780004F0000E056E000E066E800E076EBF0E9B
:10168800086EE6EC04F001C062F002C063F003C02B
:1016980064F004C065F0BEEF0BF0FFFF000E406E73
:1016A800000E416E000E426EBF0E436E62C044F0E3
:1016B80063C045F064C046F065C047F04DEC0EF0DD
:1016C800D8A069EF0BF06CEF0BF0FFFFA3EF0BF066
:1016D800FFFF4CC005F04DC006F04EC007F04FC0EC
:1016E80008F062C001F063C002F064C003F065C096
:1016F80004F0E6EC04F001C05AF002C05BF003C04D
:101708005CF004C05DF05AC001F05BC002F05CC040
:1017180003F05DC004F0000E056E000E066E800E2C
:10172800076E3F0E086EE6EC04F001C062F002C0DE
:1017380063F003C064F004C065F0BEEF0BF0FFFF78
:1017480062C001F063C002F064C003F065C004F039
:101758004CC005F04DC006F04EC007F04FC008F071
:10176800E6EC04F001C062F002C063F003C064F06C
:1017780004C065F0FFFF5EC050F05FC051F060C06C
:1017880052F061C053F0200ED0EF0BF0FFFFD8905D
:101798005332523251325032FFFFE82ECAEF0BF06B
:1017A8005050511052105310D8B4DDEF0BF0E0EF49
:1017B8000BF0FFFFF3EF0BF0FFFF62C001F063C017
:1017C80002F064C003F065C004F0D8EC12F001C068
:1017D80062F002C063F003C064F004C065F0FFFF6C
:1017E80062C04CF063C04DF064C04EF065C04FF06D
:1017F800FFFF1200FFFFFFFF156E1550D8B407EF6B
:101808000CF00AEF0CF0FFFF2FEF0CF0FFFF10BEFB
:1018180013EF0CF010EF0CF0FFFF2FEF0CF0FFFFB1
:101828000DC011F00EC012F00FC013F010C014F06C
:10183800111E121E131E141E112A000E122213222C
:10184800142211C017F012C018F013C019F014C0F8
:101858001AF038EF0CF0FFFF0DC017F00EC018F0AB
:101868000FC019F010C01AF0FFFF0D500E100F1026
:101878001010D8A442EF0CF045EF0CF0FFFF50EF2A
:101888000CF0FFFF000E0D6E000E0E6E000E0F6EB8
:10189800000E106EF8EF0CF0FFFF960E166E5CEF60
:1018A8000CF0FFFF162AD8901A3219321832173264
:1018B800FFFF000E1714116E000E1814126E000EA2
:1018C8001914136EFE0E1A14146E11501210131000
:1018D8001410D8A472EF0CF075EF0CF0FFFF55EF61
:1018E8000CF0FFFF85EF0CF0FFFF162A010E1726FC
:1018F800000E182219221A22D8901A3219321832D8
:101908001732FFFF000E1714116E000E1814126E16
:10191800000E1914136EFF0E1A14146E11501210C3
:1019280013101410D8A49BEF0CF09EEF0CF0FFFFDF
:1019380078EF0CF0FFFFA8EF0CF0FFFF1606D89029
:101948001736183619361A36FFFF19BEAEEF0CF0E7
:10195800B1EF0CF0FFFFBBEF0CF0FFFF020E1660BB
:10196800B8EF0CF0BBEF0CF0FFFFA1EF0CF0FFFF9E
:1019780016B0C1EF0CF0C4EF0CF0FFFFC6EF0CF08F
:10198800FFFF199EFFFFD890163216C011F0126A99
:10199800136A146A11C014F0136A126A116A11509A
:1019A8001712125018121350191214501A121550F7
:1019B800D8B4E1EF0CF0E4EF0CF0FFFFEFEF0CF020
:1019C800FFFF10BEEDEF0CF0EAEF0CF0FFFFEFEFBA
:1019D8000CF0FFFF1A8EFFFF17C00DF018C00EF0B5
:1019E80019C00FF01AC010F0FFFF1200FFFFFFFF31
:1019F800056E05504AEC13F00504D8A406EF0DF067
:101A080009EF0DF0FFFF14EF0DF0FFFF03C0D9FF42
:101A180004C0DAFF010EDE6E000EDD6EAFEF0DF0D2
:101A2800FFFF020E0518D8A41CEF0DF01FEF0DF0F4
:101A3800FFFF2AEF0DF0FFFF03C0D9FF04C0DAFF54
:101A4800030EDE6E000EDD6EAFEF0DF0FFFF040E2D
:101A58000518D8A432EF0DF035EF0DF0FFFF40EF79
:101A68000DF0FFFF03C0D9FF04C0DAFF050EDE6EDC
:101A7800000EDD6EAFEF0DF0FFFF080E0518D8A4BD
:101A880048EF0DF04BEF0DF0FFFF56EF0DF0FFFFA5
:101A980003C0D9FF04C0DAFF0A0EDE6E000EDD6E49
:101AA800AFEF0DF0FFFF100E0518D8A45EEF0DF094
:101AB80061EF0DF0FFFF6CEF0DF0FFFF03C0D9FFE2
:101AC80004C0DAFF020EDE6E000EDD6EAFEF0DF021
:101AD800FFFF400E0518D8A474EF0DF077EF0DF056
:101AE800FFFF82EF0DF0FFFF03C0D9FF04C0DAFF4C
:101AF8000E0EDE6E000EDD6EAFEF0DF0FFFF800EF6
:101B08000518D8A48AEF0DF08DEF0DF0FFFF90EFC8
:101B18000DF0FFFFAFEF0DF0FFFF200E0518D8A462
:101B280098EF0DF09BEF0DF0FFFFA6EF0DF0FFFF14
:101B380003C0D9FF04C0DAFF0C0EDE6E000EDD6EA6
:101B4800AFEF0DF0FFFF03C0D9FF04C0DAFF000EAE
:101B5800DE6E000EDD6EFFFF1200FFFFFFFF363462
:101B680037343D6E3D50D8A4BCEF0DF0BFEF0DF0FB
:101B7800FFFFCBEF0DF0FFFFFFFF000E346E000EEE
:101B8800356E000E366E000E376E4AEF0EF0FFFF10
:101B980034C038F035C039F036C03AF037C03BF0C1
:101BA800200EDDEF0DF0FFFFD8903B323A3239328C
:101BB8003832FFFFE82ED7EF0DF038503C6E368EE6
:101BC800FF0E3416FF0E3516FF0E3616000E3716AA
:101BD800960E3D5E3DBEF6EF0DF0F3EF0DF0FFFF04
:101BE80010EF0EF0FFFF3D50800A970FD8B0FFEFBF
:101BF8000DF002EF0EF0FFFF05EF0EF0FFFFC0EF54
:101C08000DF0FFFFD89037323632353234323D3E50
:101C180005EF0EF02EEF0EF0FFFF1F0E3D6417EFDD
:101C28000EF01AEF0EF0FFFF24EF0EF0FFFFC0EFEB
:101C38000DF0FFFFD89034363536363637363D0648
:101C4800FFFF3D50D8A42BEF0EF02EEF0EF0FFFF54
:101C58001DEF0EF0FFFF3C50D8B435EF0EF038EF13
:101C68000EF0FFFF41EF0EF0FFFF371E361E351E48
:101C7800346C000E352236223722FFFF34C034F090
:101C880035C035F036C036F037C037F0FFFF1200E8
:101C9800FFFFFFFF000E4014486E000E4114496E0E
:101CA800800E42144A6E7F0E43144B6E4850491002
:101CB8004A104B10D8A463EF0EF066EF0EF0FFFF4A
:101CC8006FEF0EF0FFFF000E406E000E416E000E2B
:101CD800426E000E436EFFFF000E4414486E000E65
:101CE8004514496E800E46144A6E7F0E47144B6E9B
:101CF800485049104A104B10D8A485EF0EF088EFD1
:101D08000EF0FFFF91EF0EF0FFFF000E446E000E85
:101D1800456E000E466E000E476EFFFF43AE97EF0E
:101D28000EF09AEF0EF0FFFFA4EF0EF0FFFF406CED
:101D3800411ED8B0412A421ED8B0422A800E4356CE
:101D4800FFFF47AEAAEF0EF0ADEF0EF0FFFFB7EFC3
:101D58000EF0FFFF446C451ED8B0452A461ED8B089
:101D6800462A800E4756FFFF000E401A000E411A01
:101D7800000E421A800E431A000E441A000E451A2D
:101D8800000E461A800E471A4450405C4550415890
:101D98004650425847504358D8B0D5EF0EF0D8EFC8
:101DA8000EF0FFFFDCEF0EF0FFFFD890DEEF0EF035
:101DB800FFFFD880FFFF1200FFFFFFFF000E0A6E33
:101DC80008BEECEF0EF0E9EF0EF0FFFFF3EF0EF0B8
:101DD800FFFF076C081ED8B0082A010E0A6EFFFF25
:101DE80006BEFCEF0EF0F9EF0EF0FFFF03EF0FF069
:101DF800FFFF056C061ED8B0062A010E0A1AFFFF5F
:101E0800000E0C6E000E0B6E07500810D8B40FEFC2
:101E18000FF012EF0FF0FFFF43EF0FF0FFFF010E7F
:101E2800096E1CEF0FF0FFFFD89007360836092A15
:101E3800FFFF08AE22EF0FF025EF0FF0FFFF17EFBF
:101E48000FF0FFFFFFFFD8900B360C360750055CEC
:101E580008500658D8A033EF0FF036EF0FF0FFFF09
:101E68003CEF0FF0FFFF0750055E0850065A0B8045
:101E7800FFFFD89008320732092E26EF0FF0FFFF38
:101E88000A50D8B44AEF0FF04DEF0FF0FFFF52EFB2
:101E98000FF0FFFF0B6C0C1ED8B00C2AFFFF0BC015
:101EA80005F00CC006F01200FFFFFFFF20EE04F063
:101EB8000150D9260250DA22DECF03F0DDCF04F03C
:101EC80001C0D9FF02C0DAFFDECF05F0DDCF06F092
:101ED800035005260450062201C0D9FF02C0DAFFCC
:101EE80005C0DEFF06C0DDFF20EE02F00150D92656
:101EF8000250DA22DECF03F0DDCF04F0010E032614
:101F0800000E042220EE02F00150D9260250DA22F7
:101F180003C0DEFF04C0DDFF01C0D9FF02C0DAFF45
:101F2800DE2806E1DE28D8A49CEF0FF09FEF0FF023
:101F3800FFFFAAEF0FF0FFFF01C0D9FF02C0DAFFD1
:101F4800030EDE6E000EDD6EC3EF0FF0FFFF01C063
:101F5800D9FF02C0DAFF040EDE18DE10D8A4B7EFEE
:101F68000FF0BAEF0FF0FFFFC3EF0FF0FFFF01C054
:101F7800D9FF02C0DAFF000EDE6E000EDD6EFFFF35
:101F88001200FFFFFFFF000E086E050E076E370EEA
:101F98004C24016E000E4D20026E6AEC12F001C056
:101FA80005F002C006F0E1EC0EF005C00DF006C029
:101FB8000EF0000E0EBEFF0E0F6E106E010EFFEC3F
:101FC8000BF00DC04EF00EC04FF00FC050F010C017
:101FD80051F04EC040F04FC041F050C042F051C0E7
:101FE80043F0000E446E000E456E400E466E410EE4
:101FF800476E4DEC0EF0D8A004EF10F007EF10F08C
:10200800FFFF29EF10F0FFFF000E406E000E416E3B
:10201800500E426E410E436E4EC044F04FC045F024
:1020280050C046F051C047F04DEC0EF0D8A01FEF5D
:1020380010F022EF10F0FFFF29EF10F0FFFF000E65
:102048004D6E010E4C6E2EEF10F0FFFF000E4D6E20
:10205800000E4C6EFFFF1200FFFFFFFF010E74EC35
:1020680013F02D0EF66E7B0EF76E0900FFFFF5CF0D
:1020780010F00900FFFFF5CF11F00900FFFFF5CFC1
:1020880012F00A00FFFFF5CF13F0000E156E000ED8
:10209800146EFFFF100E1424D96E000E1520DA6E90
:1020A800DF5074EC13F00CC001F00DC002F0000E0C
:1020B800046E500E036E5FEC13F0350E0E6E7B0E41
:1020C8000F6E01500E2602500F2214C001F015C0E9
:1020D80002F0000E046E140E036E5FEC13F0015054
:1020E8000E24076E02500F20086E11EC12F0144AED
:1020F800152A15BE89EF10F015500AE1040E145C7C
:10210800D8A089EF10F08CEF10F0FFFF4DEF10F022
:10211800FFFF1200FFFFFFFF000E106E000E0F6E94
:10212800FFFF0F500924D96E10500A20DA6E0F50A5
:1021380001240D6E105002200E6E060E0D24E16E65
:10214800000E0E20E26EDFCFE7FF0F4A102A10BE06
:10215800B7EF10F010500AE1040E0F5CD8A0B7EFEB
:1021680010F0BAEF10F0FFFF94EF10F0FFFF01C07E
:10217800D9FF02C0DAFF03C0DEFF04C0DDFF20EE96
:1021880002F00150D9260250DA2205C0DEFF06C04F
:10219800DDFF20EE04F00150D9260250DA2207C0F4
:1021A800DEFF08C0DDFF20EE0AF00150D9260250FC
:1021B800DA220BC0DEFF0CC0DDFF1200FFFFFFFFBD
:1021C80001C0D9FF02C0DAFF020EDE18DE10D8A463
:1021D800F0EF10F0F3EF10F0FFFFF8EF10F0FFFF53
:1021E800100E056E24EF11F0FFFF01C0D9FF02C0E9
:1021F800DAFFDE50DE10D8A404EF11F007EF11F07B
:10220800FFFF0CEF11F0FFFF090E056E24EF11F030
:10221800FFFF01C0D9FF02C0DAFF0E0EDE18DE1084
:10222800D8A419EF11F01CEF11F0FFFF21EF11F006
:10223800FFFF400E056E24EF11F0FFFF800E056EC4
:10224800FFFF05501200FFFFFFFF836A000E956E27
:10225800846A000E966E849284941E0E036E3C0E61
:10226800FFFFE82EFDD7032EFBD700D08482380E5F
:1022780074EC13F01E0E036E3C0EFFFFE82EFDD724
:10228800032EFBD700D0380E74EC13F01E0E036E2D
:102298003C0EFFFFE82EFDD7032EFBD700D0380EEB
:1022A80074EC13F0080E74EC13F00F0E74EC13F0CA
:1022B800010E74EC13F0380E74EC13F0800E74EC0D
:1022C80013F01200FFFFFFFF20EE02F00950D9269D
:1022D8000A50DA220B50DE5CDE50800A0F6E0C507A
:1022E800800A0F58D8A07BEF11F07EEF11F0FFFFA6
:1022F8008FEF11F0FFFF20EE02F00950D9260A50A7
:10230800DA22000EDE6E000EDD6E000E0A6E010E81
:10231800096EA0EF11F0FFFF09C001F00AC002F03A
:1023280041EC12F009C001F00AC002F059EC0FF0BC
:10233800000E0A6E000E096EFFFF1200FFFFFFFF7E
:10234800C284FFFFC2B4ABEF11F0AEEF11F0FFFF94
:10235800A5EF11F0FFFF000E1F6E000E206E800E1D
:10236800216E3E0E226EC4500D6E0E6A0F6A106A00
:10237800010EFFEC0BF00DC01BF00EC01CF00FC0DF
:102388001DF010C01EF0BAEC07F01BC034F01CC0E2
:1023980035F01DC036F01EC037F0B2EC0DF0C90E96
:1023A80034243E6EFF0E35203F6E1200FFFFFFFF04
:1023B800C284FFFFC2B4E3EF11F0E6EF11F0FFFFB4
:1023C800DDEF11F0FFFF0A0E1F6ED70E206E230EF1
:1023D800216E3C0E226EC4500D6E0E6A0F6A106A92
:1023E800010EFFEC0BF00DC01BF00EC01CF00FC06F
:1023F8001DF010C01EF0BAEC07F01BC034F01CC072
:1024080035F01DC036F01EC037F0B2EC0DF034C008
:102418003EF035C03FF01200FFFFFFFF000E0B6ECD
:1024280027EF12F0FFFF0B500724096E000E08205B
:102438000A6E09C0F6FF0AC0F7FF0800FFFFF55053
:102448004AEC13F00B2AFFFF0B500724096E000E0D
:1024580008200A6E09C0F6FF0AC0F7FF0800FFFF50
:10246800F5500009D8A43BEF12F03EEF12F0FFFF41
:1024780016EF12F0FFFF1200FFFFFFFF01C0D9FFA8
:1024880002C0DAFFDECF03F0DDCF04F001C005F0B3
:1024980002C006F00350052604500622060E052445
:1024A800D96E000E0620DA6E10EE0AF00150E12611
:1024B8000250E222E6CF07F0E5CF08F007C0E1FFBF
:1024C80008C0E2FFDFCFE7FF1200FFFFFFFF02BEF9
:1024D80079EF12F0025006E10104D8B076EF12F05D
:1024E80079EF12F0FFFF88EF12F0FFFF01C003F051
:1024F80002C004F0031E041E034A042A03C001F0AC
:1025080004C002F08DEF12F0FFFF01C001F002C01D
:1025180002F0FFFF1200FFFFFFFF000E151A000E6A
:10252800161A000E171A800E181A11C001F012C0E0
:1025380002F013C003F014C004F015C005F016C073
:1025480006F017C007F018C008F0E6EC04F001C068
:1025580011F002C012F003C013F004C014F012000E
:10256800FFFFC60EF66E270EF76E000EF86E00EE31
:10257800BAF010EE0EF00900F5CFEEFFE550E1508D
:10258800FAE100EE80F03A0EEE6AE806FDE100EEB0
:102598006FF0100EEE6AE806FDE17F907F92000E64
:1025A800F86E00013CEF00F0FFFF0150021003102D
:1025B8000410D8B4E2EF12F0E5EF12F0FFFFEEEFEF
:1025C80012F0FFFF000E011A000E021A000E031A85
:1025D800800E041AFFFF01C001F002C002F003C020
:1025E80003F004C004F01200FFFFFFFF550E4C6E0D
:1025F800550E4D6EC80E4E6E410E4F6E0CEC0AF025
:102608004CC034F04DC035F04EC036F04FC037F0F6
:10261800B2EC0DF03450AF6EAC9CAC8AAC98AC8484
:10262800AB8EAB9CAB881200FFFFFFFF20EE04F0DF
:102638000150D9260250DA22DECF03F0DDCF04F0B4
:10264800031E041E034A042A20EE04F00150D92672
:102658000250DA2203C0DEFF04C0DDFF1200FFFFD4
:10266800FFFF000E896E000E806EF10E926E000E56
:102678008A6E000E816E000E936E000E8B6E000E39
:10268800826E000E946E948E1200FFFFFFFF026EA2
:1026980084820250EAEC13F08484C80EFFFF00F035
:1026A800E82EFCD78492C80EFFFF00F0E82EFCD776
:1026B80084821200FFFFFFFF01500302F3CF05F0F1
:1026C800F4CF06F001500402F3500626025003022C
:1026D800F350062605C001F006C002F01200FFFF05
:1026E800FFFF026E84820250EAEC13F08494C80E55
:1026F800FFFF00F0E82EFCD78492C80EFFFF00F021
:10270800E82EFCD784821200FFFFFFFFFFFFA3EC37
:1027180011F0C90E3E1806E13F28D8A496EF13F031
:1027280099EF13F0FFFF8AEF13F0FFFF1200FFFF8E
:10273800FFFF000ED56E690ED66E670ED76EF28A51
:10274800D59CD59AD596D590D582D584D58E1200AC
:10275800FFFFFFFF016E01C0ADFFFFFFACA2B7EFA7
:1027680013F0BAEF13F0FFFFB1EF13F0FFFF120001
:10277800FFFFFFFF000EC26EC296C298C29AC280C7
:10278800000EC46E000EC36E000EC16E1200FFFF75
:10279800FFFF000EC26EC296C298C28AC280000EA7
:1027A800C46E000EC36E000EC16E1200FFFFFFFF65
:1027B800AECF01F0000EAE6E01501200FFFFBD3724
:1027C800863408001020408001020408FFFF016ED3
:1027D80001C083FF1200FFFFFFFF9E9A9D8AF28CC3
:0627E8001200FFFFFFFFDD
:107B2800000000004B80C094D40000164649444C25
:107B3800453A2077616974696E6720666F72000044
:107B4800007669616C20746F20626520706C6163D7
:107B58006564000000696E20696E697420706F7337
:107B6800000000000000000000000000000000000D
:107B780000000000000000000000000000494E491D
:107B8800545F504F533A20746865207669616C00E1
:107B98000069732061742074686520696E697420B7
:107BA800706F73000070726F636573732069732060
:107BB8007374617274696E67000000000000000051
:107BC800000000000000000000000000004D4F56BB
:107BD800454D454E54000000000000000000000024
:107BE800000000000000000000000000000000008D
:107BF800000000000000000000000000000000007D
:107C0800000000000000000000000000000000006C
:107C1800000000000000000000000000004F564572
:107C28004E3A0000000000000000000000000000C4
:107C3800007669616C2068617320726561636865AC
:107C48006400000000746865206F76656E000000AF
:107C5800000000000000000000000000000000001C
:107C6800000000000000000000000000004F564522
:107C78004E3A207265616368696E672074686500B2
:107C880000636F72726563742074656D70657261EC
:107C9800747572650000000000000000000000001C
:107CA80000000000000000000000000000000000CC
:107CB80000000000000000000000000000475241E2
:107CC8005350494E473A20746865207669616C00C4
:107CD8000068617320726561636865642074686513
:107CE80000000000006D6978696E67207374617424
:107CF800696F6E0000000000000000000000000036
:107D08000000000000000000000000000047524191
:107D18005350494E473A00000000000000000000A0
:107D2800006772617370696E672068617300000094
:107D38000000000000737461727465640000000044
:107D4800000000000000000000000000000000002B
:107D5800000000000000000000000000004D49582D
:107D6800494E473A20746865207669616C000000C6
:107D78000077696C6C206E6F7720626500000000E8
:107D8800000000000074696C746564203130207450
:107D9800696D65730000000000000000000000002D
:107DA8000000000000000000000000000044494CF2
:107DB8005554494E473A2074686500000000000099
:107DC8000076616363696E652077696C6C206E6FFD
:107DD800770000000062652064696C757465640052
:107DE800000000000000000000000000000000008B
:107DF8000000000000000000000000000052454C98
:107E0800454153494E473A00000000000000000079
:107E18000072656C656173696E6720686173000044
:107E28000000000000737461727465640000000053
:107E3800000000000000000000000000000000003A
:107E4800000000000000000000000000005049434E
:107E58004B5F55503A20746865207669616C000064
:107E68000068617320726561636865642074686581
:107E780000000000007069636B20757020737461E6
:107E880074696F6E00000000000000000000000030
:107E980000000000000000000000000000504943FE
:107EA8004B5F55503A20706C6561736500000000A7
:107EB800007069636B2075702074686500000000AD
:107EC80000000000007669616C206265666F72656B
:107ED80000000000000000000074696D656F757493
:107EE80000000000000000000000000000504943AE
:107EF8004B5F55503A20746865207669616C0000C4
:107F080000686173206265656E207069636B6564E3
:107F18000000000000676F696E67206261636B2074
:107F2800746F0000000000000069646C65000000C8
:107F38000000000000000000000000000054524152
:107F480053483A2074696D656F757400000000002D
:107F58000065786365656465642074686500000081
:107F680000000000007669616C2077696C6C206203
:107F780065000000000000000074726173686564A9
:107F88000000000000000000000000000045525200
:107F98004F52000000000000000000000000000038
:107FA80000000000000000000000000000000000C9
:107FB80000000000000000000000000000000000B9
:107FC80000000000000000000000000000000000A9
:107FD8000000000000000000000000000000247401
:107FE8004A44657669636520686173206265656ED9
:087FF80020726573657400003E
:020000040020DA
:08000000FFFFFFFFFFFFFFFF00
:020000040030CA
:0E000000FF270F0EFF0185FF0FC00FE00F401E
:00000001FF
