:020000040000FA
:1000000000F03BEF00F0FFFFFFFF7F829DAA0BEFA8
:1000100000F00EEF00F0FFFF1EEF00F0FFFF9EAAC2
:1000200014EF00F017EF00F0FFFF1EEF00F0FFFFEE
:100030009E9A010E0101B06F010EAE6FFFFFF2AA92
:1000400024EF00F027EF00F0FFFF37EF00F0FFFF95
:10005000F2A42DEF00F030EF00F0FFFF37EF00F0DB
:10006000FFFF000ED56EF294010E0101AD6FFFFF90
:100070007F921100FFFF56EF35F0FFFF45C0D9FF1B
:1000800046C0DAFFDECFF6FFDDCFF7FF0800FFFF47
:10009000F550250AD8A44FEF00F052EF00F0FFFF13
:1000A00011EF0AF0FFFF45C0D9FF46C0DAFFDE2A94
:1000B000000EDD22000E0001876F000E866F86C0E5
:1000C0008AF087C08BF088698969000E506E000E37
:1000D0004F6EC0EF00F0FFFF00018A81FFFF45C0B7
:1000E000D9FF46C0DAFFDE2A000EDD22C0EF00F0A5
:1000F000FFFF00018A836EEF00F0FFFF00018A8599
:100100006EEF00F0FFFF00018A876EEF00F0FFFF47
:1001100000018A896EEF00F0FFFF000E506E010EA5
:100120004F6EC0EF00F0FFFF45C0D9FF46C0DAFFB9
:10013000DECFF6FFDDCFF7FF0800FFFFF550496E79
:100140004A6A4A50000AD8B4A8EF00F08CEF00F0D9
:10015000FFFF4950200AD8B482EF00F0030AD8B458
:1001600087EF00F0080AD8B47DEF00F0060AD8B493
:100170006BEF00F01D0AD8B478EF00F08CEF00F0C0
:10018000FFFF4F505010D8B4C8EF00F0CBEF00F095
:10019000FFFF93EF00F0FFFF00018AA1D2EF00F014
:1001A000D5EF00F0FFFFD7EF00F0FFFF8A93FFFFCE
:1001B00045C0D9FF46C0DAFFDECFF6FFDDCFF7FF3F
:1001C0000800FFFFF5502A0AD8A4E9EF00F0ECEF91
:1001D00000F0FFFF18EF01F0FFFF45C0D9FF46C058
:1001E000DAFFDE2A000EDD2247C0D9FF48C0DAFF61
:1001F000DFCF49F0020EDE26DFCF4AF0000EDD220F
:1002000049C0D9FF4AC0DAFFDECF86F0DDCF87F0E4
:1002100087BF10EF01F00DEF01F0FFFF63EF01F07A
:10022000FFFF8A81866D871FD8B0872B63EF01F0AF
:10023000FFFF45C0D9FF46C0DAFFDECF08F0DDCFB3
:1002400009F02BEC1EF008C086F009C087F031EFF2
:1002500001F0FFFF45C0D9FF46C0DAFFDE2A000EDD
:10026000DD22FFFFD00E496EFF0E4A6E45C0D9FF5A
:1002700046C0DAFFDECFF6FFDDCFF7FF0800FFFF55
:10028000F5504B6E4C6A49504B264A504C224C500C
:100290000BE10A0E4B5CD8A050EF01F054EF01F0D7
:1002A000FFFF010E56EF01F0FFFF000EFFFF516E42
:1002B000526A51505210D8A460EF01F063EF01F080
:1002C000FFFF29EF01F0FFFF45C0D9FF46C0DAFF6D
:1002D000DECFF6FFDDCFF7FF0800FFFFF5502E0A57
:1002E000D8A475EF01F078EF01F0FFFF02EF02F004
:1002F000FFFF000E0001896F000E886F45C0D9FF17
:1003000046C0DAFFDE2A000EDD2245C0D9FF46C016
:10031000DAFFDECFF6FFDDCFF7FF0800FFFFF55075
:100320002A0AD8A496EF01F099EF01F0FFFFB7EF8A
:1003300001F0FFFF45C0D9FF46C0DAFFDE2A000EFC
:10034000DD2247C0D9FF48C0DAFFDFCF49F0020EF7
:10035000DE26DFCF4AF0000EDD2249C0D9FF4AC0B9
:10036000DAFFDECF88F0DDCF89F002EF02F0FFFF89
:1003700045C0D9FF46C0DAFFDECF08F0DDCF09F077
:100380002BEC1EF008C088F009C089F0D0EF01F016
:10039000FFFF45C0D9FF46C0DAFFDE2A000EDD228E
:1003A000FFFFD00E496EFF0E4A6E45C0D9FF46C012
:1003B000DAFFDECFF6FFDDCFF7FF0800FFFFF550D5
:1003C0004B6E4C6A49504B264A504C224C500BE124
:1003D0000A0E4B5CD8A0EFEF01F0F3EF01F0FFFF46
:1003E000010EF5EF01F0FFFF000EFFFF536E546AA0
:1003F00053505410D8A4FFEF01F002EF02F0FFFFBA
:10040000C8EF01F0FFFF45C0D9FF46C0DAFFDECFDD
:10041000F6FFDDCFF7FF0800FFFFF550630AD8A411
:1004200014EF02F017EF02F0FFFF3FEF02F0FFFFC3
:1004300045C0D9FF46C0DAFFDE2A000EDD2247C0E4
:10044000D9FF48C0DAFFDFCF49F0020EDE26DFCF4A
:100450004AF0000EDD2249C0D9FF4AC0DAFFDF5062
:100460005F6E43C01CF044C01DF05FC01EF023EC63
:1004700035F01CC043F01DC044F02EEF0AF0FFFF22
:1004800045C0D9FF46C0DAFFDECF01F0DDCF02F074
:10049000CF0E036E7F0E046E000E066E030E056E09
:1004A000BCEC3BF001500210D8B459EF02F05CEF05
:1004B00002F0FFFF79EF02F0FFFF45C0D9FF46C011
:1004C000DAFFDECF01F0DDCF02F0D30E036E7F0E38
:1004D000046E000E066E030E056EBCEC3BF0015080
:1004E0000210D8A476EF02F079EF02F0FFFFBBEF25
:1004F00002F0FFFF030E45C0D9FF46C0DAFFDE263B
:10050000000EDD2247C0D9FF48C0DAFFDFCF49F037
:10051000020EDE26DFCF4AF0000EDD2249C0D9FFF1
:100520004AC0DAFFDF50556E000E55BEFF0E566E04
:10053000576E586E596E5A6E5B6E5C6EFFFF43C00D
:100540001CF044C01DF055C01EF056C01FF057C02F
:1005500020F058C021F059C022F05AC023F05BC0EF
:1005600024F05CC025F0EAEC16F01CC043F01DC07E
:1005700044F02EEF0AF0FFFF45C0D9FF46C0DAFF76
:10058000DECF01F0DDCF02F0D00E036E7F0E046EE1
:10059000000E066E020E056EBCEC3BF00150021020
:1005A000D8B4D5EF02F0D8EF02F0FFFFF5EF02F07C
:1005B000FFFF45C0D9FF46C0DAFFDECF01F0DDCF37
:1005C00002F0D40E036E7F0E046E000E066E020E55
:1005D000056EBCEC3BF001500210D8A4F2EF02F023
:1005E000F5EF02F0FFFF1DEF03F0FFFF020E45C025
:1005F000D9FF46C0DAFFDE26000EDD2247C0D9FF54
:1006000048C0DAFFDFCF49F0020EDE26DFCF4AF026
:10061000000EDD2249C0D9FF4AC0DAFFDECF55F017
:10062000DDCF56F0000E56BEFF0E576E586E596E57
:100630005A6E5B6E5C6E9EEF02F0FFFF45C0D9FF05
:1006400046C0DAFFDECFF6FFDDCFF7FF0800FFFF81
:10065000F550640AD8B42FEF03F032EF03F0FFFF38
:1006600047EF03F0FFFF45C0D9FF46C0DAFFDECFFA
:10067000F6FFDDCFF7FF0800FFFFF550690AD8A4A9
:1006800044EF03F047EF03F0FFFF6EEF03F0FFFFCF
:1006900045C0D9FF46C0DAFFDE2A000EDD2247C082
:1006A000D9FF48C0DAFFDFCF49F0020EDE26DFCFE8
:1006B0004AF0000EDD2249C0D9FF4AC0DAFFDECF82
:1006C00055F0DDCF56F0000E56BEFF0E576E586E39
:1006D000596E5A6E5B6E5C6E9EEF02F0FFFF45C076
:1006E000D9FF46C0DAFFDECF01F0DDCF02F0EA0E1F
:1006F000036E7F0E046E000E066E020E056EBCECDD
:100700003BF001500210D8B488EF03F08BEF03F0F8
:10071000FFFFA8EF03F0FFFF45C0D9FF46C0DAFF97
:10072000DECF01F0DDCF02F0ED0E036E7F0E046E22
:10073000000E066E020E056EBCEC3BF0015002107E
:10074000D8A4A5EF03F0A8EF03F0FFFFD1EF03F06B
:10075000FFFF020E45C0D9FF46C0DAFFDE26000EBD
:10076000DD2247C0D9FF48C0DAFFDFCF49F0020ED3
:10077000DE26DFCF4AF0000EDD2249C0D9FF4AC095
:10078000DAFFDECF4BF0DDCF4CF04BC055F04CC064
:1007900056F0576A586A596A5A6A5B6A5C6A9EEFF1
:1007A00002F0FFFF45C0D9FF46C0DAFFDECF01F0FF
:1007B000DDCF02F0DB0E036E7F0E046E000E066EC0
:1007C000030E056EBCEC3BF001500210D8A4EBEF19
:1007D00003F0EEEF03F0FFFF2FEF04F0FFFF030E37
:1007E00045C0D9FF46C0DAFFDE26000EDD2247C035
:1007F000D9FF48C0DAFFDFCF49F0020EDE26DFCF97
:100800004AF0000EDD2249C0D9FF4AC0DAFFDF50AE
:100810004B6E4B50606E616A626A636A646A656AB5
:10082000666A676AFFFF43C01CF044C01DF060C0E9
:100830001EF061C01FF062C020F063C021F064C0F0
:1008400022F065C023F066C024F067C025F032ECCA
:100850001BF01CC043F01DC044F02EEF0AF0FFFF58
:1008600045C0D9FF46C0DAFFDECF01F0DDCF02F090
:10087000DC0E036E7F0E046E000E066E020E056E19
:10088000BCEC3BF001500210D8A449EF04F04CEF4F
:1008900004F0FFFF75EF04F0FFFF020E45C0D9FF23
:1008A00046C0DAFFDE26000EDD2247C0D9FF48C071
:1008B000DAFFDFCF49F0020EDE26DFCF4AF0000E6E
:1008C000DD2249C0D9FF4AC0DAFFDECF4BF0DDCFD1
:1008D0004CF04BC060F04CC061F0626A636A646ABD
:1008E000656A666A676A12EF04F0FFFF45C0D9FFC8
:1008F00046C0DAFFDECFF6FFDDCFF7FF0800FFFFCF
:10090000F5506F0AD8A487EF04F08AEF04F0FFFFD8
:10091000B2EF04F0FFFF45C0D9FF46C0DAFFDE2A80
:10092000000EDD2247C0D9FF48C0DAFFDFCF49F013
:10093000020EDE26DFCF4AF0000EDD2249C0D9FFCD
:100940004AC0DAFFDECF4BF0DDCF4CF04BC060F099
:100950004CC061F0626A636A646A656A666A676A63
:1009600012EF04F0FFFF45C0D9FF46C0DAFFDECF2B
:1009700001F0DDCF02F0F30E036E7F0E046E000E69
:10098000066E020E056EBCEC3BF001500210D8A4BE
:10099000CCEF04F0CFEF04F0FFFFF8EF04F0FFFF1F
:1009A000020E45C0D9FF46C0DAFFDE26000EDD226A
:1009B00047C0D9FF48C0DAFFDFCF49F0020EDE267C
:1009C000DFCF4AF0000EDD2249C0D9FF4AC0DAFF6E
:1009D000DECF4BF0DDCF4CF04BC060F04CC061F08F
:1009E000626A636A646A656A666A676A12EF04F03B
:1009F000FFFF45C0D9FF46C0DAFFDECF01F0DDCFF3
:100A000002F0D70E036E7F0E046E000E066E030E0C
:100A1000056EBCEC3BF001500210D8A412EF05F0BB
:100A200015EF05F0FFFF4BEF05F0FFFF030E45C08C
:100A3000D9FF46C0DAFFDE26000EDD2247C0D9FF0F
:100A400048C0DAFFDFCF49F0020EDE26DFCF4AF0E2
:100A5000000EDD2249C0D9FF4AC0DAFFDECF5DF0CB
:100A6000DDCF5EF05DC0F6FF5EC0F7FFF86A050EF1
:100A7000F76404D084C0F5FF0C0006D0F6CFE1FF88
:100A8000F7CFE2FF84C0E7FFFFFF000E446E000EC9
:100A9000436E2EEF0AF0FFFF45C0D9FF46C0DAFFD4
:100AA000DECF01F0DDCF02F0D80E036E7F0E046EB4
:100AB000000E066E020E056EBCEC3BF001500210FB
:100AC000D8A465EF05F068EF05F0FFFF9EEF05F095
:100AD000FFFF020E45C0D9FF46C0DAFFDE26000E3A
:100AE000DD2247C0D9FF48C0DAFFDFCF49F0020E50
:100AF000DE26DFCF4AF0000EDD2249C0D9FF4AC012
:100B0000DAFFDECF5DF0DDCF5EF05DC0F6FF5EC0E8
:100B1000F7FFF86A050EF76407D084C0F5FF0D00F3
:100B200085C0F5FF0C0008D0F6CFE1FFF7CFE2FF5C
:100B300084C0E6FF85C0E7FF44EF05F0FFFF45C036
:100B4000D9FF46C0DAFFDECFF6FFDDCFF7FF0800A2
:100B5000FFFFF5506E0AD8A4B0EF05F0B3EF05F033
:100B6000FFFFE8EF05F0FFFF45C0D9FF46C0DAFF01
:100B7000DE2A000EDD2247C0D9FF48C0DAFFDFCFF2
:100B800049F0020EDE26DFCF4AF0000EDD2249C01A
:100B9000D9FF4AC0DAFFDECF5DF0DDCF5EF05DC089
:100BA000F6FF5EC0F7FFF86A050EF76407D084C051
:100BB000F5FF0D0085C0F5FF0C0008D0F6CFE1FF72
:100BC000F7CFE2FF84C0E6FF85C0E7FF44EF05F002
:100BD000FFFF45C0D9FF46C0DAFFDECF01F0DDCF11
:100BE00002F0F00E036E7F0E046E000E066E020E13
:100BF000056EBCEC3BF001500210D8A402EF06F0E9
:100C000005EF06F0FFFF3BEF06F0FFFF020E45C0C9
:100C1000D9FF46C0DAFFDE26000EDD2247C0D9FF2D
:100C200048C0DAFFDFCF49F0020EDE26DFCF4AF000
:100C3000000EDD2249C0D9FF4AC0DAFFDECF5DF0E9
:100C4000DDCF5EF05DC0F6FF5EC0F7FFF86A050E0F
:100C5000F76407D084C0F5FF0D0085C0F5FF0C00D8
:100C600008D0F6CFE1FFF7CFE2FF84C0E6FF85C0F2
:100C7000E7FF44EF05F0FFFF45C0D9FF46C0DAFFAC
:100C8000DECFF6FFDDCFF7FF0800FFFFF550700A5B
:100C9000D8A44DEF06F050EF06F0FFFF94EF06F0FA
:100CA000FFFF45C0D9FF46C0DAFFDE2A000EDD2275
:100CB00047C0D9FF48C0DAFFDFCF49F0020EDE2679
:100CC000DFCF4AF0000EDD2249C0D9FF4AC0DAFF6B
:100CD000DECF4BF0DDCF4CF04BC060F04CC061F08C
:100CE000626A636A646A656A666A676A43C01CF01E
:100CF00044C01DF060C01EF061C01FF062C020F053
:100D000063C021F064C022F065C023F066C024F007
:100D100067C025F0780E266E84EC18F01CC043F0F6
:100D20001DC044F02EEF0AF0FFFF45C0D9FF46C0BA
:100D3000DAFFDECFF6FFDDCFF7FF0800FFFFF5504B
:100D4000730AD8A4A6EF06F0A9EF06F0FFFFD5EFCF
:100D500006F0FFFF45C0D9FF46C0DAFFDE2A000ECD
:100D6000DD2247C0D9FF48C0DAFFDFCF49F0020ECD
:100D7000DE26DFCF4AF0000EDD2249C0D9FF4AC08F
:100D8000DAFFDECF4DF0DDCF4EF043C00AF044C0B5
:100D90000BF04DC00CF04EC00DF041EC1DF00AC040
:100DA00043F00BC044F02EEF0AF0FFFF45C0D9FF1F
:100DB00046C0DAFFDECF01F0DDCF02F0DF0E036EBA
:100DC0007F0E046E000E066E030E056EBCEC3BF04B
:100DD00001500210D8A4EFEF06F0F2EF06F0FFFF8B
:100DE00033EF07F0FFFF030E45C0D9FF46C0DAFF1F
:100DF000DE26000EDD2247C0D9FF48C0DAFFDFCF74
:100E000049F0020EDE26DFCF4AF0000EDD2249C097
:100E1000D9FF4AC0DAFFDF504B6E4B50606E616AFB
:100E2000626A636A646A656A666A676AFFFF43C0EA
:100E30001CF044C01DF060C01EF061C01FF062C015
:100E400020F063C021F064C022F065C023F066C0CA
:100E500024F067C025F01CEC1AF01CC043F01DC044
:100E600044F02EEF0AF0FFFF45C0D9FF46C0DAFF7D
:100E7000DECF01F0DDCF02F0E00E036E7F0E046ED8
:100E8000000E066E020E056EBCEC3BF00150021027
:100E9000D8A44DEF07F050EF07F0FFFF79EF07F010
:100EA000FFFF020E45C0D9FF46C0DAFFDE26000E66
:100EB000DD2247C0D9FF48C0DAFFDFCF49F0020E7C
:100EC000DE26DFCF4AF0000EDD2249C0D9FF4AC03E
:100ED000DAFFDECF4BF0DDCF4CF04BC060F04CC002
:100EE00061F0626A636A646A656A666A676A16EFD5
:100EF00007F0FFFF45C0D9FF46C0DAFFDECFF6FF9F
:100F0000DDCFF7FF0800FFFFF550750AD8A48BEF7F
:100F100007F08EEF07F0FFFFB6EF07F0FFFF45C0C9
:100F2000D9FF46C0DAFFDE2A000EDD2247C0D9FF16
:100F300048C0DAFFDFCF49F0020EDE26DFCF4AF0ED
:100F4000000EDD2249C0D9FF4AC0DAFFDECF4BF0E8
:100F5000DDCF4CF04BC060F04CC061F0626A636A58
:100F6000646A656A666A676A16EF07F0FFFF45C044
:100F7000D9FF46C0DAFFDECF01F0DDCF02F0F60E7A
:100F8000036E7F0E046E000E066E020E056EBCEC44
:100F90003BF001500210D8A4D0EF07F0D3EF07F0D8
:100FA000FFFFFCEF07F0FFFF020E45C0D9FF46C070
:100FB000DAFFDE26000EDD2247C0D9FF48C0DAFF87
:100FC000DFCF49F0020EDE26DFCF4AF0000EDD2231
:100FD00049C0D9FF4AC0DAFFDECF4BF0DDCF4CF07D
:100FE0004BC060F04CC061F0626A636A646A656A13
:100FF000666A676A16EF07F0FFFF45C0D9FF46C073
:10100000DAFFDECF01F0DDCF02F0E30E036E7F0EDC
:10101000046E000E066E030E056EBCEC3BF0015034
:101020000210D8B416EF08F019EF08F0FFFF36EF02
:1010300008F0FFFF45C0D9FF46C0DAFFDECF01F060
:10104000DDCF02F0CB0E036E7F0E046E000E066E37
:10105000030E056EBCEC3BF001500210D8A433EF38
:1010600008F036EF08F0FFFF8DEF08F0FFFF45C0F6
:10107000D9FF46C0DAFFDECF49F0DDCF4AF0020EDD
:101080004926000E4A2249C0F6FF4AC0F7FF080071
:10109000FFFFF5CF5FF0030E45C0D9FF46C0DAFF72
:1010A000DE26000EDD2247C0D9FF48C0DAFFDFCFC1
:1010B00049F0020EDE26DFCF4AF0000EDD2249C0E5
:1010C000D9FF4AC0DAFFDF504B6E4B50606E616A49
:1010D000626A636A646A656A666A676AFFFF43C038
:1010E0001CF044C01DF060C01EF061C01FF062C063
:1010F00020F063C021F064C022F065C023F066C018
:1011000024F067C025F05FC026F084EC18F01CC006
:1011100043F01DC044F02EEF0AF0FFFF45C0D9FF99
:1011200046C0DAFFDECF01F0DDCF02F0E40E036E41
:101130007F0E046E000E066E020E056EBCEC3BF0D8
:1011400001500210D8B4A7EF08F0AAEF08F0FFFF93
:10115000C7EF08F0FFFF45C0D9FF46C0DAFFDECF7A
:1011600001F0DDCF02F0CC0E036E7F0E046E000E98
:10117000066E020E056EBCEC3BF001500210D8A4C6
:10118000C4EF08F0C7EF08F0FFFF04EF09F0FFFF1E
:1011900045C0D9FF46C0DAFFDECF49F0DDCF4AF0C7
:1011A000010E4926000E4A2249C0F6FF4AC0F7FF49
:1011B0000800FFFFF5CF5FF0020E45C0D9FF46C023
:1011C000DAFFDE26000EDD2247C0D9FF48C0DAFF75
:1011D000DFCF49F0020EDE26DFCF4AF0000EDD221F
:1011E00049C0D9FF4AC0DAFFDECF4BF0DDCF4CF06B
:1011F0004BC060F04CC061F0626A636A646A656A01
:10120000666A676A6EEF08F0FFFF45C0D9FF46C007
:10121000DAFFDECFF6FFDDCFF7FF0800FFFFF55066
:10122000780AD8B416EF09F019EF09F0FFFF2EEF96
:1012300009F0FFFF45C0D9FF46C0DAFFDECFF6FF59
:10124000DDCFF7FF0800FFFFF550580AD8A42BEFB9
:1012500009F02EEF09F0FFFF62EF09F0FFFF45C034
:10126000D9FF46C0DAFFDECFF6FFDDCFF7FF08007B
:10127000FFFFF5CF5FF045C0D9FF46C0DAFFDE2A99
:10128000000EDD2247C0D9FF48C0DAFFDFCF49F0AA
:10129000020EDE26DFCF4AF0000EDD2249C0D9FF64
:1012A0004AC0DAFFDECF4BF0DDCF4CF04BC060F030
:1012B0004CC061F0626A636A646A656A666A676AFA
:1012C0006EEF08F0FFFF45C0D9FF46C0DAFFDECF62
:1012D00001F0DDCF02F0F90E036E7F0E046E000EFA
:1012E000066E020E056EBCEC3BF001500210D8B445
:1012F0007CEF09F07FEF09F0FFFF9CEF09F0FFFFA3
:1013000045C0D9FF46C0DAFFDECF01F0DDCF02F0E5
:10131000E70E036E7F0E046E000E066E020E056E63
:10132000BCEC3BF001500210D8A499EF09F09CEFFF
:1013300009F0FFFFD9EF09F0FFFF45C0D9FF46C014
:10134000DAFFDECF49F0DDCF4AF0010E4926000E6C
:101350004A2249C0F6FF4AC0F7FF0800FFFFF5CF59
:101360005FF0020E45C0D9FF46C0DAFFDE26000E50
:10137000DD2247C0D9FF48C0DAFFDFCF49F0020EB7
:10138000DE26DFCF4AF0000EDD2249C0D9FF4AC079
:10139000DAFFDECF4BF0DDCF4CF04BC060F04CC03D
:1013A00061F0626A636A646A656A666A676A6EEFB8
:1013B00008F0FFFF45C0D9FF46C0DAFFDECFF6FFD9
:1013C000DDCFF7FF0800FFFFF550250AD8A4EBEFAB
:1013D00009F0EEEF09F0FFFF07EF0AF0FFFF45C04D
:1013E000D9FF46C0DAFFDE2A000EDD22000E026EB3
:1013F000250E016E43C003F044C004F0EDEC38F05C
:10140000FFFF000E446E010E436E2EEF0AF0FFFF49
:1014100045C0D9FF46C0DAFFDE2A000EDD2244EFC8
:1014200005F0FFFF45C0D9FF46C0DAFFDECFF6FF6B
:10143000DDCFF7FF0800FFFFF550016E026A43C0E1
:1014400003F044C004F0EDEC38F045C0D9FF46C0CD
:10145000DAFFDE2A000EDD2200EF0AF0FFFF1200A5
:10146000FFFFFFFF21EC33F0ABEC33F0ABEC37F0D8
:10147000BCEC32F06DEC32F0CEEC32F0BF0E016E0F
:10148000010E026E000E046E000E036E000E066E5C
:10149000000E056E000E086E010E076EE70E096E57
:1014A000010E0A6EF1EC36F0B10E016E010E026E05
:1014B000000E046E000E036E000E066E000E056E2A
:1014C000000E086E010E076EDF0E096E010E0A6E29
:1014D000F1EC36F06EEC36F00C0EE2EC32F0010E70
:1014E000E2EC32F0800EE2EC32F0930E036E7F0EEF
:1014F000046EADEC36F0F28E000E0101AC6F000E02
:10150000AB6FFFFF0101B051D8B489EF0AF08CEF47
:101510000AF0FFFFE6EF0AF0FFFFAE51D8B493EFF9
:101520000AF096EF0AF0FFFFB9EF0AF0FFFF79EC3F
:1015300032F00101A26F750EA219D8A4A2EF0AF031
:10154000A5EF0AF0FFFFA9EF0AF0FFFFA2518BEC15
:1015500032F0FFFF0101A2518BEC32F0CD0E036E91
:10156000010E046E0101A251BEEC3AF0000E010121
:10157000AE6FFFFF000E0001C26F010EC36F000EC1
:10158000C56FA00EC46FFC0EC66F7F0EC76FD890DC
:101590000101CD35D96ECE35DA6ECF0ED926010ECA
:1015A000DA22DECFC8F0DDCFC9F037EC33F0010E20
:1015B000E2EC32F0800EE2EC32F0000E036E010E2F
:1015C000046EADEC36F0000E0101B06FFFFF020EAD
:1015D000CD19CE11D8A4EFEF0AF0F2EF0AF0FFFF19
:1015E00035EF0BF0FFFF8982A351A411D8B4FBEFB4
:1015F0000AF0FEEF0AF0FFFF13EF0BF0FFFFA6BFAC
:101600000EEF0BF0A65107E1640EA55DD8B00BEF0D
:101610000BF00EEF0BF0FFFF13EF0BF0FFFFA54BEE
:10162000A62B81EF0AF0FFFFA351A411D8B41BEF42
:101630000BF01EEF0BF0FFFF59EF0BF0FFFFA6BF03
:101640002BEF0BF0A6510AE1640EA55DD8A02BEF9D
:101650000BF02EEF0BF0FFFF59EF0BF0FFFF000E2A
:10166000CE6F000ECD6F81EF0AF0FFFF8992CD5152
:10167000CE11D8A43EEF0BF041EF0BF0FFFF5CEF73
:101680000BF0FFFFAF51D8A448EF0BF04BEF0BF07E
:10169000FFFF81EF0AF0FFFFCD0E016E010E026E1B
:1016A0003CEC3BF08BEC32F0010E0101AF6F81EFAF
:1016B0000AF0FFFF81EF0AF0FFFFCD05CE11D8A49D
:1016C00064EF0BF067EF0BF0FFFF78EF0BF0FFFF1D
:1016D000000ECE6F020ECD6F010EB06FCD0E016EFB
:1016E000010E026E3CEC3BF08BEC32F081EF0AF025
:1016F000FFFF030ECD19CE11D8A481EF0BF084EFBC
:101700000BF0FFFFCDEF0BF0FFFFAD51D8B48BEF27
:101710000BF08EEF0BF0FFFFB6EF0BF0FFFFF9ECD5
:1017200035F0D4C0D6F0D5C0D7F07FEC38F000014A
:10173000D651D711D8B49FEF0BF0A2EF0BF0FFFFFB
:1017400059EF0BF0FFFF000E0101CE6F020ECD6FBF
:10175000010EB06F000EAD6FCD0E016E010E026E68
:101760003CEC3BF08BEC32F081EF0AF0FFFFD5BE92
:10177000BCEF0BF0BFEF0BF0FFFFC4EF0BF0FFFF70
:10178000ECEC1FF0ABEC32F0FFFFF9EC35F0D4C01D
:10179000A0F1D5C0A1F181EF0AF0FFFF040ECD1931
:1017A000CE11D8A4D6EF0BF0D9EF0BF0FFFF75EFF9
:1017B0000CF0FFFF030E0001DD6FEB0EFFFFE82EC4
:1017C000FDD7DD2FFBD700D000F00101A951AA11F0
:1017D000D8B4EDEF0BF0F0EF0BF0FFFF0BEF0CF0D8
:1017E000FFFFBF0E076E010E086E000E0A6E320E6E
:1017F000096E32EC36F007500810D8B402EF0CF046
:1018000005EF0CF0FFFF0BEF0CF0FFFF000E0101E6
:10181000AA6F000EA96FFFFF0101A951AA11D8A458
:1018200014EF0CF017EF0CF0FFFF3DEF0CF0FFFF93
:10183000A751A811D8B41FEF0CF022EF0CF0FFFF56
:101840003DEF0CF0FFFFB10E076E010E086E000EAB
:101850000A6E640E096E32EC36F007500810D8B4E8
:1018600034EF0CF037EF0CF0FFFF3DEF0CF0FFFF13
:10187000000E0101A86F000EA76FFFFF0101A75125
:10188000A811D8B446EF0CF04AEF0CF0FFFF010EA0
:101890004CEF0CF0FFFF000EFFFF016E026AA95132
:1018A000AA11D8B456EF0CF05AEF0CF0FFFF010E5E
:1018B0005CEF0CF0FFFF000EFFFF036E046A0CEC00
:1018C00033F001500210D8B468EF0CF06BEF0CF05D
:1018D000FFFF81EF0AF0FFFF000E0101CE6F050E42
:1018E000CD6F010EB06F81EF0AF0FFFF050ECD192D
:1018F000CE11D8A47EEF0CF081EF0CF0FFFFE9EFE2
:101900000CF0FFFF030E0001DD6FEB0EFFFFE82E72
:10191000FDD7DD2FFBD700D000F0BF0E076E010E04
:10192000086E000E0A6E640E096E32EC36F0075037
:101930000810D8B49EEF0CF0A1EF0CF0FFFFABEF56
:101940000CF0FFFFBF0E016E010E026E51EC33F082
:101950000101AB4BAC2BFFFF0101ACBFB9EF0CF0A9
:10196000AC510AE1140EAB5DD8A0B9EF0CF0BCEF9E
:101970000CF0FFFF81EF0AF0FFFF000ECE6F060EA6
:10198000CD6F000EAC6F000EAB6FBF0E016E010E7F
:10199000026E000E046E000E036E000E066E000E48
:1019A000056E000E086E010E076EE70E096E010E41
:1019B0000A6EF1EC36F0BF0E016E010E026E51ECB4
:1019C00033F0B10E016E010E026E51EC33F081EF77
:1019D0000AF0FFFF060ECD19CE11D8A4F2EF0CF0DD
:1019E000F5EF0CF0FFFF76EF0DF0FFFF030E0001A7
:1019F000DD6FEB0EFFFFE82EFDD7DD2FFBD700D00C
:101A000000F00101A751A811D8A409EF0DF00CEFC7
:101A10000DF0FFFF27EF0DF0FFFFB10E076E010E77
:101A2000086E000E0A6E640E096E32EC36F0075036
:101A30000810D8B41EEF0DF021EF0DF0FFFF27EFD7
:101A40000DF0FFFF000E0101A86F010EA76FFFFF51
:101A50000101A751A811D8B430EF0DF033EF0DF00C
:101A6000FFFF59EF0DF0FFFFA951AA11D8A43BEFDA
:101A70000DF03EEF0DF0FFFF59EF0DF0FFFFBF0E31
:101A8000076E010E086E000E0A6E320E096E32EC01
:101A900036F007500810D8B450EF0DF053EF0DF0AA
:101AA000FFFF59EF0DF0FFFF000E0101AA6F010EBD
:101AB000A96FFFFFA7C101F0A8C102F0A9C103F0FF
:101AC000AAC104F00CEC33F001500210D8B46BEF53
:101AD0000DF06EEF0DF0FFFF81EF0AF0FFFF000E3B
:101AE0000101CE6F020ECD6F81EF0AF0FFFF070EEE
:101AF000CD19CE11D8A47FEF0DF082EF0DF0FFFFCE
:101B000059EF0BF0FFFFAD51D8B489EF0DF08CEF1A
:101B10000DF0FFFFA6EF0DF0FFFF010EB06FCD0E31
:101B2000016E010E026E3CEC3BF08BEC32F0000ECD
:101B30000101CE6F020ECD6F000EA46F010EA36FD8
:101B4000000EA66F000EA56F81EF0AF0FFFFD5BE55
:101B5000ACEF0DF0AFEF0DF0FFFF59EF0BF0FFFF13
:101B6000ABEC32F081EF0AF03BEF00F0FFFF625088
:101B7000800B6B6E625062246D6E61AEC2EF0DF031
:101B8000C5EF0DF0FFFFC7EF0DF0FFFF6D80FFFF0A
:101B90006D50D8B4CEEF0DF0D1EF0DF0FFFFEAEFAE
:101BA0000DF0FFFF6D28D8A4D8EF0DF0DBEF0DF09E
:101BB000FFFFE4EF0DF0FFFF000E5F6E000E606EA2
:101BC000000E616E000E626EFFFF618E000E626E8F
:101BD000F3EF0DF0FFFF000E5F6E000E606E000E63
:101BE000616E000E626EFFFF6650800B6C6E6B5074
:101BF0006C18D8B4FEEF0DF001EF0EF0FFFF03EF0D
:101C00000EF0FFFF6B8CFFFF665066246C6E65AEB6
:101C10000CEF0EF00FEF0EF0FFFF11EF0EF0FFFFD5
:101C20006C80FFFF6C50D8B418EF0EF01BEF0EF075
:101C3000FFFF34EF0EF0FFFF6C28D8A422EF0EF068
:101C400025EF0EF0FFFF2EEF0EF0FFFF000E636E8C
:101C5000000E646E000E656E000E666EFFFF658EF0
:101C6000000E666E3DEF0EF0FFFF000E636E000E7D
:101C7000646E000E656E000E666EFFFF6D506C5C4C
:101C8000D8B045EF0EF048EF0EF0FFFF73EF0EF007
:101C9000FFFF6BAC4EEF0EF051EF0EF0FFFF54EF75
:101CA0000EF0FFFF800E6B1AFFFF6DC06EF06CC070
:101CB0006DF06EC06CF05FC06EF063C05FF06EC020
:101CC00063F060C06EF064C060F06EC064F061C02C
:101CD0006EF065C061F06EC065F062C06EF066C007
:101CE00062F06EC066F0FFFF000E6E6E6D506CC04D
:101CF00067F0686A675E000E685A68BE89EF0EF08A
:101D000068500AE11A0E675CD8A089EF0EF08CEFDC
:101D10000EF0FFFFCFEF0EF0FFFF5F50601061107D
:101D20006210D8A496EF0EF09AEF0EF0FFFF010EAE
:101D30009CEF0EF0FFFF000EFFFF6E6E000E5F6E59
:101D4000000E606E000E616E000E626E6CC06DF073
:101D5000DAEF0EF0FFFF6EA0B0EF0EF0B3EF0EF073
:101D6000FFFFBAEF0EF0FFFFD8906E3001096E6EE4
:101D7000BDEF0EF0FFFFD8906E32FFFF5FA0C3EF04
:101D80000EF0C6EF0EF0FFFFC8EF0EF0FFFF6E8EF5
:101D9000FFFF62346232613260325F326D2AFFFFD0
:101DA0006C506D5CD8A0D7EF0EF0DAEF0EF0FFFFAD
:101DB000AAEF0EF0FFFF6BBCE0EF0EF0E3EF0EF0CA
:101DC000FFFF30EF0FF0FFFF6D50D8A4EAEF0EF0E9
:101DD000EDEF0EF0FFFFF8EF0EF0FFFF000E5F6E6D
:101DE000000E606E000E616E000E626E87EF10F0E6
:101DF000FFFF63505F266450602265506122665089
:101E0000622262A006EF0FF009EF0FF0FFFFD4EFA0
:101E10000FF0FFFF6EA00FEF0FF012EF0FF0FFFFBC
:101E200019EF0FF0FFFFD8906E3001096E6E1CEFB6
:101E30000FF0FFFFD8906E32FFFF5FA022EF0FF090
:101E400025EF0FF0FFFF27EF0FF0FFFF6E8EFFFF74
:101E500062346232613260325F326D2AD4EF0FF049
:101E6000FFFF63505F5C645060586550615862507A
:101E7000800A676E6650800A6758D8B042EF0FF04C
:101E800045EF0FF0FFFF73EF0FF0FFFF5F50635C54
:101E9000676E60506458686E61506558696E625034
:101EA00066586A6EFF0E67245F6EFF0E6820606ED4
:101EB000FF0E6920616EFF0E6A20626E800E6B1A43
:101EC0006E6C6E50D8A467EF0FF06AEF0FF0FFFF53
:101ED0007CEF0FF0FFFF010E5F26000E60226122F3
:101EE00062227CEF0FF0FFFF63505F5E6450605A28
:101EF0006550615A6650625AFFFF5F506010611072
:101F00006210D8A486EF0FF089EF0FF0FFFFCBEF40
:101F10000FF0FFFF6E50D8A490EF0FF093EF0FF08B
:101F2000FFFFCBEF0FF0FFFF000E5F6E000E606E45
:101F3000000E616E000E626E87EF10F0FFFFD8900A
:101F40005F366036613662366EAEA9EF0FF0ACEFE9
:101F50000FF0FFFFAEEF0FF0FFFF5F80FFFF6EA0FF
:101F6000B4EF0FF0B7EF0FF0FFFFBCEF0FF0FFFF84
:101F7000D8806E36BFEF0FF0FFFFD8906E36FFFFB0
:101F80006D50D8B4C6EF0FF0C9EF0FF0FFFFCBEFE5
:101F90000FF0FFFF6D06FFFF61AED1EF0FF0D4EF42
:101FA0000FF0FFFF9EEF0FF0FFFF000E6C6E6EAEA6
:101FB000DCEF0FF0DFEF0FF0FFFFFEEF0FF0FFFFA2
:101FC0006EC067F07F0E6716D8B4E9EF0FF0ECEF44
:101FD0000FF0FFFFF2EF0FF0FFFFFFFF010E6C6E3F
:101FE000FEEF0FF0FFFF5FA0F8EF0FF0FBEF0FF039
:101FF000FFFFFEEF0FF0FFFFEDEF0FF0FFFF6C5064
:10200000D8B405EF10F008EF10F0FFFF38EF10F034
:10201000FFFF010E5F26000E60226122622262A095
:1020200014EF10F017EF10F0FFFF38EF10F0FFFF84
:102030005FC067F060C068F061C069F062C06AF0BC
:102040006A346A3269326832673267C05FF068C0EA
:1020500060F069C061F06AC062F06D28D8B433EFF7
:1020600010F036EF10F0FFFF38EF10F0FFFF6D2A91
:10207000FFFF6D28D8B43FEF10F042EF10F0FFFFE4
:102080004CEF10F0FFFF6D50D8A449EF10F04CEF6B
:1020900010F0FFFF61EF10F0FFFF000E5F6E000E0B
:1020A000606E000E616E000E626E6D50D8A45BEF24
:1020B00010F05EEF10F0FFFF61EF10F0FFFF000E79
:1020C0006B6EFFFF6DA067EF10F06AEF10F0FFFF7F
:1020D0006EEF10F0FFFF618E70EF10F0FFFF619E5A
:1020E000FFFFD8906D30626E6BAE79EF10F07CEF31
:1020F00010F0FFFF7EEF10F0FFFF628EFFFF5FC06A
:102100005FF060C060F061C061F062C062F0FFFF2C
:102110001200FFFFFFFF3050800B396E305030242B
:102120003F6E2FAE96EF10F099EF10F0FFFF9BEF90
:1021300010F0FFFF3F80FFFF3F50D8B4A2EF10F038
:10214000A5EF10F0FFFFBCEF10F0FFFF3F28D8A471
:10215000ACEF10F0AFEF10F0FFFFB8EF10F0FFFFA3
:10216000000E2D6E000E2E6E000E2F6E000E306EC5
:10217000FFFF2F8EC5EF10F0FFFF000E2D6E000E3B
:102180002E6E000E2F6E000E306EFFFF3450800B4F
:10219000391A345034243E6E33AED1EF10F0D4EF00
:1021A00010F0FFFFD6EF10F0FFFF3E80FFFF3E5024
:1021B000D8B4DDEF10F0E0EF10F0FFFFF7EF10F014
:1021C000FFFF3E28D8A4E7EF10F0EAEF10F0FFFF82
:1021D000F3EF10F0FFFF000E316E000E326E000EB6
:1021E000336E000E346EFFFF338E00EF11F0FFFFF1
:1021F000000E316E000E326E000E336E000E346E25
:10220000FFFF3E50D8B407EF11F00AEF11F0FFFFC7
:1022100014EF11F0FFFF3F50D8A411EF11F014EFAD
:1022200011F0FFFF1FEF11F0FFFF000E2D6E000EEB
:102230002E6E000E2F6E000E306ED9EF12F0FFFFE3
:1022400033502D02F3CF44F0F4CF45F044503A6EB2
:102250003B6A3C6A3D6A4550406E416A426A436A45
:1022600032502E02F3CF44F0F4CF45F044503A26DA
:10227000000E3B223C223D2245504026000E4122CA
:102280004222432231502F02F3CF44F0F4CF45F0E5
:1022900044503A26000E3B223C223D224550402627
:1022A000000E4122422243223CC03DF03BC03CF0A4
:1022B0003AC03BF03A6A31502E02F3CF44F0F4CFEB
:1022C00045F044503A2645503B22000E3C22000E79
:1022D0003D2232502D02F3CF44F0F4CF45F044506C
:1022E0003A2645503B22000E3C22000E3D223CC0C7
:1022F0003DF03BC03CF03AC03BF03A6A31502D0211
:10230000F3CF44F0F4CF45F044503A2645503B22F9
:10231000000E3C22000E3D2233502E02F3CF44F03B
:10232000F4CF45F04450402645504122000E422251
:10233000000E432232502F02F3CF44F0F4CF45F089
:102340004450402645504122000E4222000E4322B6
:1023500033502F02F3CF44F0F4CF45F04450356EA4
:102360004550366E376A386A37C038F036C037F0B5
:1023700035C036F0356A3550402636504122375048
:102380004222385043223AC035F03BC036F03CC0C0
:1023900037F03DC038F0190ED4EF11F0FFFFD890A0
:1023A0003832373236323532FFFFE82ECEEF11F0B9
:1023B0003550402636504122375042223850432271
:1023C0003CC03DF03BC03CF03AC03BF03A6A3E5066
:1023D0003FC035F0366A3526000E3622820E35248F
:1023E000446EFF0E3620456E0FEF12F0FFFFD890BF
:1023F00040364136423643363DAE01EF12F004EF2F
:1024000012F0FFFF06EF12F0FFFF4080FFFFD890B1
:102410003A363B363C363D364406D8A04506FFFFEB
:1024200042AE15EF12F018EF12F0FFFFF6EF11F0C9
:10243000FFFF000E3E6E3DAE20EF12F023EF12F0D4
:10244000FFFF4EEF12F0FFFFFF0E3A14356EFF0E46
:102450003B14366EFF0E3C14376E7F0E3D14386E03
:102460003550361037103810D8B439EF12F03CEF31
:1024700012F0FFFF42EF12F0FFFFFFFF010E3E6E72
:102480004EEF12F0FFFF40A048EF12F04BEF12F0BA
:10249000FFFF4EEF12F0FFFF3DEF12F0FFFF3E5047
:1024A000D8B455EF12F058EF12F0FFFF7FEF12F0A3
:1024B000FFFF010E4026000E41224222432243A08C
:1024C00064EF12F067EF12F0FFFF7FEF12F0FFFFF3
:1024D00040C035F041C036F042C037F043C038F05C
:1024E0003834383237323632353235C040F036C0C3
:1024F00041F037C042F038C043F0444A452AFFFF5C
:1025000045BE8BEF12F0455009E14428D8A08BEF6F
:1025100012F08EEF12F0FFFF99EF12F0FFFF000EA6
:10252000406E000E416E800E426E7F0E436ECEEF07
:1025300012F0FFFF45BEA8EF12F0455006E144043B
:10254000D8B0A5EF12F0A8EF12F0FFFFB5EF12F030
:10255000FFFF000E406E000E416E000E426E000E38
:10256000436E000E396ECEEF12F0FFFF44C03FF015
:10257000FF0E4016FF0E41167F0E4216000E431648
:102580003FA0C5EF12F0C8EF12F0FFFFCAEF12F044
:10259000FFFF428EFFFFD8903F30436EFFFF395060
:1025A000431240C02DF041C02EF042C02FF043C076
:1025B00030F0FFFF1200FFFFFFFF4950800B566E07
:1025C000495049245D6E48AEE8EF12F0EBEF12F08F
:1025D000FFFFEDEF12F0FFFF5D80FFFF5D50D8B40D
:1025E000F4EF12F0F7EF12F0FFFF10EF13F0FFFF20
:1025F0005D28D8A4FEEF12F001EF13F0FFFF0AEF01
:1026000013F0FFFF000E466E000E476E000E486E80
:10261000000E496EFFFF488E000E496E19EF13F051
:10262000FFFF000E466E000E476E000E486E000E55
:10263000496EFFFF4D50800B561A4D504D245E6E73
:102640004CAE25EF13F028EF13F0FFFF2AEF13F045
:10265000FFFF5E80FFFF5E50D8B431EF13F034EF20
:1026600013F0FFFF4DEF13F0FFFF5E28D8A43BEF00
:1026700013F03EEF13F0FFFF47EF13F0FFFF000EE4
:102680004A6E000E4B6E000E4C6E000E4D6EFFFF3C
:102690004C8E000E4D6E56EF13F0FFFF000E4A6E8B
:1026A000000E4B6E000E4C6E000E4D6EFFFF4A503A
:1026B0004B104C104D10D8A460EF13F063EF13F0E3
:1026C000FFFF7DEF13F0FFFF000E466E000E476E1A
:1026D000000E486E000E496E800E48127F0E4912A1
:1026E000FFFF5650491246C046F047C047F048C069
:1026F00048F049C049F0F2EF14F0FFFF5D50D8A454
:1027000084EF13F087EF13F0FFFF92EF13F0FFFF5A
:10271000000E466E000E476E000E486E000E496EAB
:10272000F2EF14F0FFFF5E505DC04EF04F6A4E5E58
:10273000000E4F5A7F0E4E24576E000E4F20586EDB
:1027400046C052F047C053F048C054F049C055F05D
:10275000000E466E000E476E000E486E000E496E6B
:10276000000E596E000E5A6E000E5B6E000E5C6E0F
:10277000000E5E6EFEEF13F0FFFF5E50D8B4C3EFA5
:1027800013F0C6EF13F0FFFFE1EF13F0FFFFD89057
:102790005236533654365536D89046364736483634
:1027A00049365CAED6EF13F0D9EF13F0FFFFDBEF45
:1027B00013F0FFFF4680FFFFD89059365A365B363C
:1027C0005C36FFFF4A50525C4B5053584C505458A3
:1027D0004D505558D8A0EFEF13F0F2EF13F0FFFF74
:1027E000FCEF13F0FFFF5C8C4A50525E4B50535A83
:1027F0004C50545A4D50555AFFFF5E2AFFFF190E98
:102800005E6405EF14F008EF14F0FFFFBCEF13F067
:10281000FFFF5250531054105510D8B412EF14F05B
:1028200015EF14F0FFFF32EF14F0FFFF598032EF85
:1028300014F0FFFFD89046364736483649365CAE2E
:1028400024EF14F027EF14F0FFFF29EF14F0FFFF3F
:102850004680FFFFD89059365A365B365C365706AD
:10286000D8A05806FFFF48AE38EF14F03BEF14F045
:10287000FFFF19EF14F0FFFF000E5E6E5CAE43EF3A
:1028800014F046EF14F0FFFF71EF14F0FFFFFF0E9E
:1028900059144E6EFF0E5A144F6EFF0E5B14506E9D
:1028A0007F0E5C14516E4E504F1050105110D8B422
:1028B0005CEF14F05FEF14F0FFFF65EF14F0FFFF23
:1028C000FFFF010E5E6E71EF14F0FFFF46A06BEF8D
:1028D00014F06EEF14F0FFFF71EF14F0FFFF60EFE4
:1028E00014F0FFFF5E50D8B478EF14F07BEF14F0D3
:1028F000FFFFA2EF14F0FFFF010E4626000E472255
:102900004822492249A087EF14F08AEF14F0FFFF14
:10291000A2EF14F0FFFF46C04EF047C04FF048C092
:1029200050F049C051F05134513250324F324E3292
:102930004EC046F04FC047F050C048F051C049F07B
:10294000574A582AFFFF58BEAEEF14F0585009E11D
:102950005728D8A0AEEF14F0B1EF14F0FFFFBDEF91
:1029600014F0FFFF000E586E5768000E466E000E02
:10297000476E000E486E000E496EFFFF58BECCEF4A
:1029800014F0585006E15704D8B0C9EF14F0CCEF5A
:1029900014F0FFFFDBEF14F0FFFF000E586E000E87
:1029A000576E000E466E000E476E000E486E000E0B
:1029B000496E000E566EFFFF57C05DF05DA0E3EF5D
:1029C00014F0E6EF14F0FFFFEAEF14F0FFFF488E7B
:1029D000ECEF14F0FFFF489EFFFFD8905D30496E8A
:1029E00070EF13F0FFFF1200FFFFFFFF80C0C2F087
:1029F00081C0C3F082C0C4F083C0C5F077C0C2F00C
:102A000078C0C3F079C0C4F07AC0C5F0C2C07BF012
:102A1000C3C07CF0C4C07DF0C5C07EF0180E17EFB7
:102A200015F0FFFFD8907E327D327C327B32FFFF83
:102A3000E82E11EF15F07B500001BC6FBD6BBDBFE0
:102A40002BEF15F0BD510AE1960EBC5DD8A02BEF1F
:102A500015F02EEF15F0FFFF39EF15F0FFFF77C0EF
:102A600077F078C078F079C079F07AC07AF0E7EF43
:102A700016F0FFFFC2C07BF0C3C07CF0C4C07DF085
:102A8000C5C07EF0200E4BEF15F0FFFFD8907E32D0
:102A90007D327C327B32FFFFE82E45EF15F07B5014
:102AA0007C107D107E10D8B458EF15F05BEF15F058
:102AB000FFFF6EEF15F0FFFF77C001F078C002F066
:102AC00079C003F07AC004F08AEC33F001C077F0EB
:102AD00002C078F003C079F004C07AF0FFFF000173
:102AE000BDBF7FEF15F0BD5107E17E0EBC5DD8B0D4
:102AF0007CEF15F07FEF15F0FFFF9CEF15F0FFFF67
:102B0000C2C02DF0C3C02EF0C4C02FF0C5C030F03D
:102B1000000E316E000E326E000E336E000E346EFB
:102B20008AEC10F02DC077F02EC078F02FC079F02D
:102B300030C07AF0E7EF16F0FFFF000E636E000E74
:102B4000646E000E656E4B0E666E77C05FF078C0E7
:102B500060F079C061F07AC062F0B6EC0DF05FC051
:102B6000BEF060C0BFF061C0C0F062C0C1F0000E36
:102B7000636E000E646E000E656ECB0E666EBEC098
:102B80005FF0BFC060F0C0C061F0C1C062F0B6ECE1
:102B90000DF05FC0B8F060C0B9F061C0BAF062C0BB
:102BA000BBF0B8C06FF0B9C070F0BAC071F0BBC074
:102BB00072F077C073F078C074F079C075F07AC0A5
:102BC00076F052EC34F06FC0C6F070C0C7F071C040
:102BD000C8F072C0C9F0000E016E000E026E000E49
:102BE000036E3F0E046EC6C005F0C7C006F0C8C035
:102BF00007F0C9C008F0C5EC3CF0D8B002EF16F001
:102C000005EF16F0FFFF3CEF16F0FFFF77C063F013
:102C100078C064F079C065F07AC066F0C6C05FF035
:102C2000C7C060F0C8C061F0C9C062F0B6EC0DF07A
:102C30005FC0BEF060C0BFF061C0C0F062C0C1F054
:102C4000BEC05FF0BFC060F0C0C061F0C1C062F044
:102C5000000E636E000E646E800E656EBF0E666EB3
:102C6000B6EC0DF05FC0C6F060C0C7F061C0C8F040
:102C700062C0C9F0A9EF16F0FFFF000E016E000E52
:102C8000026E000E036EBF0E046EC6C005F0C7C014
:102C900006F0C8C007F0C9C008F0C5EC3CF0D8A0E9
:102CA00054EF16F057EF16F0FFFF8EEF16F0FFFF10
:102CB00077C063F078C064F079C065F07AC066F0E0
:102CC000C6C05FF0C7C060F0C8C061F0C9C062F0A4
:102CD000B6EC0DF05FC0BEF060C0BFF061C0C0F0E8
:102CE00062C0C1F0BEC05FF0BFC060F0C0C061F0A4
:102CF000C1C062F0000E636E000E646E800E656EE1
:102D00003F0E666EB6EC0DF05FC0C6F060C0C7F057
:102D100061C0C8F062C0C9F0A9EF16F0FFFFC6C0DD
:102D20005FF0C7C060F0C8C061F0C9C062F077C092
:102D300063F078C064F079C065F07AC066F0B6ECF4
:102D40000DF05FC0C6F060C0C7F061C0C8F062C0DF
:102D5000C9F0FFFFC2C07BF0C3C07CF0C4C07DF0EF
:102D6000C5C07EF0200EBBEF16F0FFFFD8907E327C
:102D70007D327C327B32FFFFE82EB5EF16F07B50C0
:102D80007C107D107E10D8B4C8EF16F0CBEF16F093
:102D9000FFFFDEEF16F0FFFFC6C001F0C7C002F074
:102DA000C8C003F0C9C004F08AEC33F001C0C6F01B
:102DB00002C0C7F003C0C8F004C0C9F0FFFFC6C01E
:102DC00077F0C7C078F0C8C079F0C9C07AF0FFFFCB
:102DD0001200FFFFFFFF1EC036F01FC037F020C0FB
:102DE00038F021C039F022C03AF023C03BF024C0B3
:102DF0003CF025C03DF03DBE00EF17F004EF17F0AA
:102E0000FFFF010E06EF17F0FFFF000EFFFF346E0D
:102E1000356A34503510D8B410EF17F013EF17F0AF
:102E2000FFFF24EF17F0FFFF3D1E3C1E3B1E3A1E26
:102E3000391E381E371E366C000E372238223922D2
:102E40003A223B223C223D22FFFF000189BF2BEFAB
:102E500017F02EEF17F0FFFF30EF17F0FFFF8A9308
:102E6000FFFF89BF3FEF17F0895106E18805D8B011
:102E70003CEF17F03FEF17F0FFFF46EF17F0FFFFB3
:102E8000000E316E010E306E4BEF17F0FFFF88C061
:102E900030F089C031F0FFFF86C032F087C033F0D8
:102EA00034503510D8A457EF17F05AEF17F0FFFF42
:102EB00063EF17F0FFFF8AA560EF17F063EF17F0DD
:102EC000FFFF67EF17F0FFFF3206D8A03306FFFFC2
:102ED000000E3F6E1F0E3E6E000EB76FEDEF17F047
:102EE000FFFF3E06D8A03F06980E3E24D96E000E86
:102EF0003F20DA6E36C001F037C002F038C003F070
:102F000039C004F03AC005F03BC006F03CC007F001
:102F10003DC008F00A0E096E000E0A6E000E0B6E20
:102F2000000E0C6E000E0D6E000E0E6E000E0F6E7B
:102F3000000E106E92EC3EF001C026F002C027F0A9
:102F400003C028F004C029F005C02AF006C02BF009
:102F500007C02CF008C02DF026C013F028C014F0D4
:102F600077EC34F01350300FDF6E3006D8A0310606
:102F70003206D8A0330636C001F037C002F038C0A0
:102F800003F039C004F03AC005F03BC006F03CC085
:102F900007F03DC008F00A0E096E000E0A6E000E22
:102FA0000B6E000E0C6E000E0D6E000E0E6E000EFF
:102FB0000F6E000E106E12EC1FF001C036F002C052
:102FC00037F003C038F004C039F005C03AF006C04D
:102FD0003BF007C03CF008C03DF0FFFF3FBEF9EFFB
:102FE00017F03F5009E13E04D8A0F9EF17F0FCEFCD
:102FF00017F0FFFF35EF18F0FFFF3650371038108D
:1030000039103A103B103C103D10D8A40AEF18F0CC
:103010000DEF18F0FFFF70EF17F0FFFF31BE1CEF50
:1030200018F0315006E13004D8B019EF18F01CEF59
:1030300018F0FFFF70EF17F0FFFF33BE28EF18F016
:10304000335009E13204D8A028EF18F02BEF18F024
:10305000FFFF35EF18F0FFFF00018AB332EF18F0E1
:1030600035EF18F0FFFF70EF17F0FFFF3450351009
:10307000D8A43DEF18F040EF18F0FFFF4AEF18F02A
:10308000FFFF00018AA547EF18F04AEF18F0FFFF95
:103090006DEF18F0FFFF3E06D8A03F063450351004
:1030A000D8A455EF18F058EF18F0FFFF5FEF18F0B5
:1030B000FFFF000E2F6E2B0E2E6E64EF18F0FFFF39
:1030C000000E2F6E2D0E2E6EFFFF980E3E24D96E31
:1030D000000E3F20DA6E2EC0DFFFFFFF1CC011F094
:1030E0001DC012F0980E3E24136E000E3F20146E89
:1030F00032C015F033C016F05EEC39F011C01CF090
:1031000012C01DF01200FFFFFFFF000189BF8BEF0F
:1031100018F08EEF18F0FFFF90EF18F0FFFF8A9382
:10312000FFFF89BF9FEF18F0895106E18805D8B0ED
:103130009CEF18F09FEF18F0FFFFA6EF18F0FFFFCD
:10314000000E346E010E336EABEF18F0FFFF88C037
:1031500033F089C034F0FFFF86C035F087C036F009
:103160008AA9B5EF18F0B8EF18F0FFFFBDEF18F01F
:10317000FFFFFE0E3526FF0E3622FFFF1EC037F082
:103180001FC038F020C039F021C03AF022C03BF017
:1031900023C03CF024C03DF025C03EF0000E406E40
:1031A0001F0E3F6E000EB76F9BEF19F0FFFF3F063B
:1031B000D8A040060F0E3714416E426A42BEEAEFB5
:1031C00018F042500AE10A0E415CD8A0EAEF18F06C
:1031D000EDEF18F0FFFFF6EF18F0FFFF570E412458
:1031E000416E000E4220426EFDEF18F0FFFF300EE0
:1031F0004124416E000E4220426EFFFFBF0E276E3B
:10320000FF0E286E2650296E2A6A2750292628503C
:103210002A222A500BE11A0E295CD8A012EF19F0CD
:1032200016EF19F0FFFF010E18EF19F0FFFF000E67
:10323000FFFF2F6E306A2F503010D8B422EF19F0F4
:1032400025EF19F0FFFF5BEF19F0FFFF9F0E276ED0
:10325000FF0E286E200E4110296E000E42102A6EBD
:103260002750292628502A222A500BE11A0E295CC1
:10327000D8A03DEF19F041EF19F0FFFF010E43EF29
:1032800019F0FFFF000EFFFF316E326A315032102D
:10329000D8B44DEF19F050EF19F0FFFF5BEF19F0C4
:1032A000FFFF41C007F042C008F089EC35F007C0CD
:1032B00041F008C042F0FFFF980E3F24D96E000E87
:1032C0004020DA6E41C0DFFF3306D8A03406350651
:1032D000D8A0360637C027F038C028F039C029F00A
:1032E0003AC02AF03BC02BF03CC02CF03DC02DF082
:1032F0003EC02EF0050E87EF19F0FFFFD8902E325A
:103300002D322C322B322A32293228322732FFFF3B
:10331000E82E7DEF19F027C037F028C038F029C01B
:1033200039F02AC03AF02BC03BF02CC03CF02DC045
:103330003DF02EC03EF0FFFF40BEA8EF19F0405018
:103340000AE1020E3F5CD8A0A8EF19F0ABEF19F02C
:10335000FFFFE4EF19F0FFFF3750381039103A1033
:103360003B103C103D103E10D8A4B9EF19F0BCEF53
:1033700019F0FFFFD6EF18F0FFFF34BECBEF19F0C6
:10338000345006E13304D8B0C8EF19F0CBEF19F090
:10339000FFFFD6EF18F0FFFF36BED7EF19F036501B
:1033A00009E13504D8A0D7EF19F0DAEF19F0FFFFE3
:1033B000E4EF19F0FFFF00018AB3E1EF19F0E4EF49
:1033C00019F0FFFFD6EF18F0FFFF00018AA9EBEF1D
:1033D00019F0EEEF19F0FFFF05EF1AF0FFFF3F06BF
:1033E000D8A04006980E3F24D96E000E4020DA6E19
:1033F00026C0DFFF3F06D8A04006980E3F24D96EB6
:10340000000E4020DA6E300EDF6EFFFF1CC011F0A0
:103410001DC012F0980E3F24136E000E4020146E53
:1034200035C015F036C016F05EEC39F011C01CF056
:1034300012C01DF01200FFFFFFFF000189BF23EF44
:103440001AF026EF1AF0FFFF28EF1AF0FFFF8A9319
:10345000FFFF89BF37EF1AF0895106E18805D8B020
:1034600034EF1AF037EF1AF0FFFF3EEF1AF0FFFFCC
:10347000000E2F6E010E2E6E43EF1AF0FFFF88C074
:103480002EF089C02FF0FFFF86C030F087C031F0EA
:103490001EC032F01FC033F020C034F021C035F020
:1034A00022C036F023C037F024C038F025C039F0F0
:1034B000000E3B6E1F0E3A6E000EB76FD7EF1AF07C
:1034C000FFFF3A06D8A03B06980E3A24D96E000EAC
:1034D0003B20DA6E32C001F033C002F034C003F09A
:1034E00035C004F036C005F037C006F038C007F02C
:1034F00039C008F00A0E096E000E0A6E000E0B6E3F
:10350000000E0C6E000E0D6E000E0E6E000E0F6E95
:10351000000E106ED1EC39F001C026F002C027F089
:1035200003C028F004C029F005C02AF006C02BF023
:1035300007C02CF008C02DF02650300FDF6E2E068D
:10354000D8A02F063006D8A0310632C001F033C013
:1035500002F034C003F035C004F036C005F037C0C7
:1035600006F038C007F039C008F00A0E096E000EE8
:103570000A6E000E0B6E000E0C6E000E0D6E000E2D
:103580000E6E000E0F6E000E106E40EC3CF001C08F
:1035900032F002C033F003C034F004C035F005C08F
:1035A00036F006C037F007C038F008C039F0FFFF2A
:1035B0003A503B10D8B4DFEF1AF0E2EF1AF0FFFFF9
:1035C0001BEF1BF0FFFF3250331034103510361054
:1035D000371038103910D8A4F0EF1AF0F3EF1AF0C2
:1035E000FFFF60EF1AF0FFFF2FBE02EF1BF02F501E
:1035F00006E12E04D8B0FFEF1AF002EF1BF0FFFF38
:1036000060EF1AF0FFFF31BE0EEF1BF0315009E101
:103610003004D8A00EEF1BF011EF1BF0FFFF1BEFE3
:103620001BF0FFFF00018AB318EF1BF01BEF1BF02C
:10363000FFFF60EF1AF0FFFF1CC011F01DC012F079
:10364000980E3A24136E000E3B20146E30C015F015
:1036500031C016F05EEC39F011C01CF012C01DF044
:103660001200FFFFFFFF000189BF39EF1BF03CEFA5
:103670001BF0FFFF3EEF1BF0FFFF8A93FFFF89BFA8
:103680004DEF1BF0895106E18805D8B04AEF1BF0D9
:103690004DEF1BF0FFFF54EF1BF0FFFF000E2F6EEE
:1036A000010E2E6E59EF1BF0FFFF88C02EF089C06F
:1036B0002FF0FFFF86C032F087C033F01EC034F019
:1036C0001FC035F020C036F021C037F022C038F0DE
:1036D00023C039F024C03AF025C03BF0000E3D6E07
:1036E0001F0E3C6E000EB76F000E316E000E306E76
:1036F000C2EF1BF0FFFF3C06D8A03D06070E3414B6
:10370000306E316A980E3C24D96E000E3D20DA6E80
:103710003050300FDF6E2E06D8A02F063206D8A00C
:10372000330634C026F035C027F036C028F037C045
:1037300029F038C02AF039C02BF03AC02CF03BC039
:103740002DF0040EAEEF1BF0FFFFD8902D322C327F
:103750002B322A322932283227322632FFFFE82E36
:10376000A4EF1BF026C034F027C035F028C036F097
:1037700029C037F02AC038F02BC039F02CC03AF0FD
:103780002DC03BF0FFFF3DBECEEF1BF03D5009E1E9
:103790003C04D8A0CEEF1BF0D1EF1BF0FFFF0AEFE7
:1037A0001CF0FFFF34503510361037103810391028
:1037B0003A103B10D8A4DFEF1BF0E2EF1BF0FFFF45
:1037C0007AEF1BF0FFFF2FBEF1EF1BF02F5006E149
:1037D0002E04D8B0EEEF1BF0F1EF1BF0FFFF7AEFF5
:1037E0001BF0FFFF33BEFDEF1BF0335009E1320445
:1037F000D8A0FDEF1BF000EF1CF0FFFF0AEF1CF05C
:10380000FFFF00018AB307EF1CF00AEF1CF0FFFF77
:103810007AEF1BF0FFFF00018AA911EF1CF014EFF3
:103820001CF0FFFF2EEF1CF0FFFF30503110D8B41A
:103830001CEF1CF01FEF1CF0FFFF2EEF1CF0FFFF32
:103840003C06D8A03D06980E3C24D96E000E3D20C3
:10385000DA6E300EDF6E3206D8A03306FFFF1CC0D2
:1038600011F01DC012F0980E3C24136E000E3D2086
:10387000146E32C015F033C016F05EEC39F011C092
:103880001CF012C01DF01200FFFFFFFF276E275033
:10389000D8B44DEF1CF050EF1CF0FFFF75EF1CF09B
:1038A000FFFF22BE59EF1CF056EF1CF0FFFF75EF33
:1038B0001CF0FFFF1FC023F020C024F021C025F022
:1038C00022C026F0231E241E251E261E232A000E9B
:1038D00024222522262223C029F024C02AF025C034
:1038E0002BF026C02CF07EEF1CF0FFFF1FC029F04C
:1038F00020C02AF021C02BF022C02CF0FFFF1F5067
:10390000201021102210D8A488EF1CF08BEF1CF09F
:10391000FFFF96EF1CF0FFFF000E1F6E000E206EE3
:10392000000E216E000E226E3EEF1DF0FFFF960E80
:10393000286EA2EF1CF0FFFF282AD8902C322B32E1
:103940002A322932FFFF000E2914236E000E2A149A
:10395000246E000E2B14256EFE0E2C14266E2350A2
:10396000241025102610D8A4B8EF1CF0BBEF1CF0D3
:10397000FFFF9BEF1CF0FFFFCBEF1CF0FFFF282A9F
:10398000010E2926000E2A222B222C22D8902C321E
:103990002B322A322932FFFF000E2914236E000E2B
:1039A0002A14246E000E2B14256EFF0E2C14266E86
:1039B0002350241025102610D8A4E1EF1CF0E4EFCA
:1039C0001CF0FFFFBEEF1CF0FFFFEEEF1CF0FFFF4F
:1039D0002806D89029362A362B362C36FFFF2BBEE8
:1039E000F4EF1CF0F7EF1CF0FFFF01EF1DF0FFFFFD
:1039F000020E2860FEEF1CF001EF1DF0FFFFE7EF65
:103A00001CF0FFFF28B007EF1DF00AEF1DF0FFFFCD
:103A10000CEF1DF0FFFF2B9EFFFFD890283228C02F
:103A200023F0246A256A266A23C026F0256A246AC0
:103A3000236A2350291224502A1225502B12265073
:103A40002C122750D8B427EF1DF02AEF1DF0FFFFEE
:103A500035EF1DF0FFFF22BE33EF1DF030EF1DF0FC
:103A6000FFFF35EF1DF0FFFF2C8EFFFF29C01FF079
:103A70002AC020F02BC021F02CC022F0FFFF120042
:103A8000FFFFFFFF20EEDEF010EE0FF0060EDBCFA3
:103A9000E3FFE806FCE20CC01AF00DC01BF01A5060
:103AA0001B10D8A456EF1DF059EF1DF0FFFF5EEF7D
:103AB0001DF0FFFF0F0E1A6E000E1B6EFFFF1AC0E7
:103AC00001F01BC002F0C5EC34F001C01EF002C0D2
:103AD0001FF088C01CF089C01DF01DBE72EF1DF0E4
:103AE00075EF1DF0FFFF8EEF1DF0FFFF1E501C5CF9
:103AF0001D50800A0E6E1F50800A0E58D8A083EF0A
:103B00001DF086EF1DF0FFFF89EF1DF0FFFF8EEF28
:103B10001DF0FFFF1CC01EF01DC01FF0FFFF1EC0E8
:103B20001CF01FC01DF086C018F087C019F00001FE
:103B30008AB19DEF1DF0A0EF1DF0FFFFC1EF1DF05A
:103B4000FFFFB0EF1DF0FFFF000E026E200E016EB2
:103B50000AC003F00BC004F0EDEC38F01E4A1F2A37
:103B6000FFFF18501E5C1F50800A0E6E1950800A0D
:103B70000E58D8A0BEEF1DF0C1EF1DF0FFFFA3EF60
:103B80001DF0FFFF000E176E000E166EE8EF1DF021
:103B9000FFFF1AC0F6FF1BC0F7FFF86A050EF764B7
:103BA00004D00800FFFFF55005D0F6CFE1FFF7CFB6
:103BB000E2FFE7500E6E0E50016E026A0AC003F07B
:103BC0000BC004F0EDEC38F01A4A1B2A164A172AEB
:103BD000FFFF1C50165C1750800A0E6E1D50800AA5
:103BE0000E58D8A0F6EF1DF0F9EF1DF0FFFFC8EF5B
:103BF0001DF0FFFF00018AA100EF1EF003EF1EF091
:103C0000FFFF24EF1EF0FFFF13EF1EF0FFFF000E7B
:103C1000026E200E016E0AC003F00BC004F0EDEC42
:103C200038F01E4A1F2AFFFF18501E5C1F50800AE2
:103C30000E6E1950800A0E58D8A021EF1EF024EF06
:103C40001EF0FFFF06EF1EF0FFFF1EC00AF01FC0B0
:103C50000BF01200FFFFFFFF000E166E000E156E38
:103C6000000E0F6E000E0E6E39EF1EF0FFFF084AB9
:103C7000092AFFFF010E146E08C0F6FF09C0F7FF06
:103C80000800FFFFF550200AD8B449EF1EF04CEFB2
:103C90001EF0FFFF6DEF1EF0FFFFF70E0A6EFF0E26
:103CA0000B6E08C0F6FF09C0F7FF0800FFFFF550D4
:103CB0000C6E0D6A0A500C260B500D220D500AE1B5
:103CC000050E0C5CD8A067EF1EF06AEF1EF0FFFF38
:103CD0006DEF1EF0FFFF000E146EFFFF14C010F01A
:103CE000116A10501110D8A478EF1EF07BEF1EF06F
:103CF000FFFF36EF1EF0FFFF88EF1EF0FFFF000E04
:103D00000F6E010E0E6EFFFF084A092AC2EF1EF069
:103D1000FFFF08C0F6FF09C0F7FF0800FFFFF550DE
:103D20000A6E0B6A0B50000AD8B499EF1EF0C2EF6E
:103D30001EF0FFFF0A502B0AD8B483EF1EF0060ACC
:103D4000D8B47EEF1EF0C2EF1EF0FFFF15C001F0E9
:103D500016C002F0000E046E0A0E036E0CEC33F077
:103D600008C0F6FF09C0F7FF0800FFFFF550015E2D
:103D7000000E025A300E0124156E000E0220166E3F
:103D800083EF1EF0FFFFD00E0A6EFF0E0B6E08C011
:103D9000F6FF09C0F7FF0800FFFFF5500C6E0D6A33
:103DA0000A500C260B500D220D500BE10A0E0C5C34
:103DB000D8A0DDEF1EF0E1EF1EF0FFFF010EE3EFF4
:103DC0001EF0FFFF000EFFFF126E136A1250131059
:103DD000D8A4EDEF1EF0F0EF1EF0FFFFA5EF1EF0F0
:103DE000FFFF0E500F10D8A4F8EF1EF0FBEF1EF0EF
:103DF000FFFF0AEF1FF0FFFF15C00AF016C00BF01F
:103E00000A1E0B1E0A4A0B2A0AC008F00BC009F052
:103E10000FEF1FF0FFFF15C008F016C009F0FFFFFD
:103E20001200FFFFFFFF000E126E10BE1DEF1FF00D
:103E30001AEF1FF0FFFF30EF1FF0FFFF101E0F1EE5
:103E40000E1E0D1E0C1E0B1E0A1E096C000E0A22F1
:103E50000B220C220D220E220F221022010E126EB6
:103E6000FFFF08BE39EF1FF036EF1FF0FFFF4CEFEA
:103E70001FF0FFFF081E071E061E051E041E031E60
:103E8000021E016C000E02220322042205220622D9
:103E900007220822010E121AFFFF20EE13F0070E70
:103EA000DE6AE806FDE209500A100B100C100D1036
:103EB0000E100F101010D8B460EF1FF063EF1FF05A
:103EC000FFFFBEEF1FF0FFFF010E116E73EF1FF03B
:103ED000FFFFD89009360A360B360C360D360E36F3
:103EE0000F361036112AFFFF10AE79EF1FF07CEF6E
:103EF0001FF0FFFF68EF1FF0FFFFFFFFD8901336A2
:103F00001436153616361736183619361A3609503D
:103F1000015C0A5002580B5003580C5004580D50C5
:103F200005580E5006580F50075810500858D8A082
:103F30009CEF1FF09FEF1FF0FFFFB1EF1FF0FFFF9F
:103F40000950015E0A50025A0B50035A0C50045A91
:103F50000D50055A0E50065A0F50075A1050085A65
:103F60001380FFFFD89010320F320E320D320C3218
:103F70000B320A320932112E7DEF1FF0FFFF125073
:103F8000D8B4C5EF1FF0C8EF1FF0FFFFD9EF1FF047
:103F9000FFFF1A1E191E181E171E161E151E141EB0
:103FA000136C000E14221522162217221822192231
:103FB0001A22FFFF13C001F014C002F015C003F075
:103FC00016C004F017C005F018C006F019C007F0BD
:103FD0001AC008F01200FFFFFFFFFFFFF9EC35F0F9
:103FE000C90E0001D41906E1D529D8A4FAEF1FF0B3
:103FF000FDEF1FF0FFFFEDEF1FF0FFFF1200FFFFCF
:1064D400FFFF1200FFFFFFFF9E9A9D8AF28C1200BD
:1064E400FFFFFFFF016E01C083FF1200FFFFFFFFEC
:0E64F400AECF01F0000EAE6E01501200FFFFA1
:10650300286E756C6C29000AD7A33CBD378634000E
:10651300008041FFFF016E01C0ADFFFFFFACA295FC
:10652300EF32F098EF32F0FFFF8FEF32F0FFFF1200
:1065330000FFFF3B7FC97EBB7F6C7FA97FC47FB217
:106543007F097F100020004000800001000200044A
:10655300000800FFFF000ED56E960ED66E980ED77C
:106563006EF28AD59CD59AD596D580D582D584D519
:106573008E1200FFFFFFFF000EBD6E0A0E0001D456
:106583006FD70ED56FA30ED66F3B0ED76F49EC377F
:10659300F0BD86BD841200FFFFFFFF000E896E0071
:1065A3000E806E9268000EC26EC296C298C28AC2F4
:1065B30080000EC46E000EC36E000EC16E1200FF8B
:1065C300FFFFFF026E8482025073EC32F08494C8A2
:1065D3000EFFFF00F0E82EFCD78492C80EFFFF00E9
:1065E300F0E82EFCD784821200FFFFFFFF026E84C7
:1065F30082025073EC32F08484C80EFFFF00F0E88F
:106603002EFCD78492C80EFFFF00F0E82EFCD7843F
:10661300821200FFFFFFFF01500302F3CF05F0F4E6
:10662300CF06F001500402F350062602500302F392
:1066330050062605C001F006C002F01200FFFFFF5E
:10664300FF000E896E000E806EF00E926E000E8AB1
:106653006E000E816E000E936E000E8B6E000E8226
:106663006E9494948E949C1200FFFFFFFFC80E005B
:1066730001CC6F000ECD6FC2C070F0C3C071F0C407
:10668300C072F0C5C073F0C6C074F0C7C075F0CC5B
:106693000E766E000E776EF5EC3DF01200FFFFFFF5
:1066A300FF20EE04F00150D9260250DA22DECF0398
:1066B300F0DDCF04F0031E041E034A042A20EE0477
:1066C300F00150D9260250DA2203C0DEFF04C0DDF8
:1066D300FF1200FFFFFFFF01C0D9FF02C0DAFFDE98
:1066E300CF03F0DDCF04F0D8900336043601C005A4
:1066F300F002C006F00350052604500622060E05DC
:1067030024D96E000E0620DA6EDF508A6E1200FF67
:10671300FFFFFF0150021003100410D8B494EF33AD
:10672300F097EF33F0FFFFA0EF33F0FFFF000E0110
:106733001A000E021A000E031A800E041AFFFF013C
:10674300C001F002C002F003C003F004C004F01261
:1067530000FFFFFFFF550E776E550E786EC80E795A
:106763006E410E7A6EF5EC14F077C0CAF078C0CBA8
:10677300F079C0CCF07AC0CDF059EC3DF00001CAFD
:1067830051AF6EAC9CAC8AAC98AC84AB8EAB9CAB7B
:10679300881200FFFFFFFFD00E036EFF0E046E0191
:1067A300C005F002C006F003500526045006220679
:1067B300500BE10A0E055CD8A0E2EF33F0E6EF33AD
:1067C300F0FFFF010EE8EF33F0FFFF000EFFFF01C4
:1067D3006E026A1200FFFFFFFFBF0E036EFF0E047F
:1067E3006E01C005F002C006F003500526045006F2
:1067F3002206500BE11A0E055CD8A003EF34F00714
:10680300EF34F0FFFF010E09EF34F0FFFF000EFF3E
:10681300FF016E026A1200FFFFFFFF9F0E036EFF70
:106823000E046E01C005F002C006F00350052604F5
:1068330050062206500BE11A0E055CD8A024EF3453
:10684300F028EF34F0FFFF010E2AEF34F0FFFF00D2
:106853000EFFFF016E026A1200FFFFFFFF9F0E0390
:106863006EFF0E046E200E0110056E000E02100660
:106873006E035005260450062206500BE11A0E053E
:106883005CD8A047EF34F04BEF34F0FFFF010E4D1F
:10689300EF34F0FFFF000EFFFF016E026A1200FFEC
:1068A300FFFFFF000E731A000E741A000E751A8094
:1068B3000E761A6FC05FF070C060F071C061F07245
:1068C300C062F073C063F074C064F075C065F076A5
:1068D300C066F0B6EC0DF05FC06FF060C070F061A1
:1068E300C071F062C072F01200FFFFFFFF14BE869A
:1068F300EF34F0145006E11304D8B083EF34F0867C
:10690300EF34F0FFFF95EF34F0FFFF13C015F014E1
:10691300C016F0151E161E154A162A15C013F016BA
:10692300C014F09AEF34F0FFFF13C013F014C01437
:10693300F0FFFF1200FFFFFFFF000E106E000E0FAF
:106943006EB0EF34F0FFFF0EC001F0026A0CC0031B
:10695300F00DC004F0EDEC38F00F4A102AFFFF0FE2
:10696300500A24D96E10500B20DA6EDF500E6E0ED3
:1069730050D8A4BFEF34F0C2EF34F0FFFFA4EF34DC
:10698300F0FFFF1200FFFFFFFF01C003F002C0048E
:10699300F0CFEF34F0FFFF014A022AFFFF01C0F6F8
:1069A300FF02C0F7FFF86A050EF76404D00800FF82
:1069B300FFF55005D0F6CFE1FFF7CFE2FFE7500038
:1069C30009D8A4E7EF34F0EAEF34F0FFFFCCEF345B
:1069D300F0FFFF0350015C016E04500258026E1277
:1069E30000FFFFFFFF010E076E200E01180210D8F3
:1069F300B4FEEF34F001EF35F0FFFF1DEF35F0FF8C
:106A0300FFF70E036EFF0E046E01C005F002C00611
:106A1300F0035005260450062206500AE1050E0530
:106A23005CD8A017EF35F01AEF35F0FFFF1DEF35F7
:106A3300F0FFFF000E076EFFFF07C001F0026A12AE
:106A430000FFFFFFFF000186518711D8A42CEF350B
:106A5300F02FEF35F0FFFF36EF35F0FFFF86C01F55
:106A6300F087C020F03DEF35F0FFFFFF0E86251FB6
:106A73006EFF0E8721206EFFFF1EC098F0000E9957
:106A83006F1CC011F01DC012F0980E136E000E148F
:106A93006E1FC015F020C016F05EEC39F011C01C5B
:106AA300F012C01DF01200FFFF360EF66E650EF7F2
:106AB3006E000EF86E01EECFF010EE20F00900F537
:106AC300CFEEFFE550E150FAE1030EF66E650EF7E7
:106AD3006E000EF86E00EEDEF010EE13F00900F516
:106AE300CFEEFFE550E150FAE101EEA3F02C0EEEFC
:106AF3006AE806FDE100EE80F0380EEE6AE806FD76
:106B0300E17F907F92000EF86E000131EF0AF0FFF3
:106B1300FF9F0E096EFF0E0A6E07C00BF008C00C34
:106B2300F009500B260A500C220C500BE11A0E0BE5
:106B33005CD8A09FEF35F0A3EF35F0FFFF010EA562
:106B4300EF35F0FFFF000EFFFF0D6E0E6A0D500EC6
:106B530010D8B4AFEF35F0B2EF35F0FFFFB9EF3532
:106B6300F0FFFF5F0E0714076E086ABEEF35F0FFF4
:106B7300FF07C007F008C008F0FFFF1200FFFFFF88
:106B8300FF6AC06EF06BC06FF0000E0001856F00EE
:106B93000E846FE1EF35F0FFFF68C043F069C04436
:106BA300F06E0E456E000E466E6CC047F06DC04829
:106BB300F03DEC00F043500001842744508523FF4F
:106BC300FF6EC0F6FF6FC0F7FF0800FFFFF5500030
:106BD30009D8A4EFEF35F0F2EF35F0FFFFCDEF3535
:106BE300F0FFFF84C068F085C069F01200FFFFFF6B
:106BF300FFC284FFFFC2B401EF36F004EF36F0FFAB
:106C0300FFFBEF35F0FFFF000E316E000E326E809A
:106C13000E336E3E0E346EC4501F6E206A216A22FC
:106C23006A010E45EC1CF01FC02DF020C02EF02190
:106C3300C02FF022C030F08AEC10F02DC0CAF02E25
:106C4300C0CBF02FC0CCF030C0CDF059EC3DF0C933
:106C53000E0001CA25D46FFF0ECB21D56F1200FFA2
:106C6300FFFFFF20EE02F00750D9260850DA220971
:106C730050DE5CDE50800A0D6E0A50800A0D58D833
:106C8300A046EF36F049EF36F0FFFF5AEF36F0FF3C
:106C9300FF20EE02F00750D9260850DA22000EDE5C
:106CA3006E000EDD6E000E086E010E076E6BEF3682
:106CB300F0FFFF07C001F008C002F06CEC33F007EF
:106CC300C001F008C002F012EC38F0000E086E00AC
:106CD3000E076EFFFF1200FFFFFFFF836A000E9592
:106CE3006E846A000E966E849284941E0E036E3C2C
:106CF3000EFFFFE82EFDD7032EFBD700D08482388A
:106D03000EE2EC32F01E0E036E3C0EFFFFE82EFD8A
:106D1300D7032EFBD700D0380EE2EC32F01E0E0361
:106D23006E3C0EFFFFE82EFDD7032EFBD700D038B5
:106D33000EE2EC32F0080EE2EC32F00F0EE2EC322F
:106D4300F0010EE2EC32F0380EE2EC32F0800EE2AB
:106D5300EC32F01200FFFFFFFF000E076ECDEF369F
:106D6300F0FFFF07500324056E000E0420066E0596
:106D7300C0F6FF06C0F7FFF86A050EF76404D008F3
:106D830000FFFFF55005D0F6CFE1FFF7CFE2FFE7B5
:106D930050F7EC32F0072AFFFF07500324056E007B
:106DA3000E0420066E05C0F6FF06C0F7FFF86A055D
:106DB3000EF76404D00800FFFFF55005D0F6CFE1CD
:106DC300FFF7CFE2FFE7500009D8A4EBEF36F0EE70
:106DD300EF36F0FFFFB2EF36F0FFFF1200FFFFFFC9
:106DE300FF000E106E000E0F6EFFFFD8900F34D908
:106DF3006E1034DA6E0950D9260A50DA220FC00B0E
:106E0300F010C00CF0D8900B360C3601C00DF00218
:106E1300C00EF00B500D260C500E22060E0D24E171
:106E23006E000E0E20E26EDECFE6FFDDCFE5FF0F34
:106E33004A102A10BE27EF37F010500AE1040E0F54
:106E43005CD8A027EF37F02AEF37F0FFFFF6EF36D5
:106E5300F0FFFF01C0D9FF02C0DAFF03C0DEFF0469
:106E6300C0DDFF20EE02F00150D9260250DA2205E0
:106E7300C0DEFF06C0DDFF20EE04F00150D926027C
:106E830050DA2207C0DEFF08C0DDFF1200FFFFFF5C
:106E9300FFBD0E316E370E326E860E336E350E34F5
:106EA3006EEDC02DF0EEC02EF0EFC02FF0F0C0302D
:106EB300F08AEC10F02DC04AF02EC04BF02FC04CDE
:106EC300F030C04DF06F0E466E120E476E830E48C3
:106ED3006E3A0E496EDCEC12F046C0CAF047C0CBE6
:106EE300F048C0CCF049C0CDF059EC3DF0CAC0DA4F
:106EF300F0CBC0DBF0DAC0DCF00001DCA184EF37BB
:106F0300F087EF37F0FFFF8BEF37F0FFFFBD888D82
:106F1300EF37F0FFFFBD98FFFFDCA393EF37F09649
:106F2300EF37F0FFFF9AEF37F0FFFFBD8A9CEF3793
:106F3300F0FFFFBD9AFFFFDAC0D8F0DBC0D9F0D86D
:106F430090D933D833D890D933D833D851BE6E12B1
:106F530000FFFFFFFF000ECA6E000ECC6ECA84CA8C
:106F630080CA82000E636E000E646E800E656EBF73
:106F73000E666EBD0E316E370E326E860E336E3672
:106F83000E346EEDC02DF0EEC02EF0EFC02FF0F0FA
:106F9300C030F08AEC10F02DC04AF02EC04BF02F19
:106FA300C04CF030C04DF00A0E466ED70E476EA3AC
:106FB3000E486E3C0E496EDCEC12F046C05FF047A3
:106FC300C060F048C061F049C062F0B6EC0DF05FFC
:106FD300C0D4F060C0D5F061C0D6F062C0D7F00075
:106FE3000E316E000E326E800E336E400E346ED450
:106FF300C02DF0D5C02EF0D6C02FF0D7C030F08A08
:10700300EC10F02DC0CAF02EC0CBF02FC0CCF03066
:10701300C0CDF059EC3DF00001CA51CB6E1200FF18
:10702300FFFFFF20EE04F00150D9260250DA22DEE2
:10703300CF03F0DDCF04F001C0D9FF02C0DAFFDED9
:10704300CF05F0DDCF06F0035005260450062201DC
:10705300C0D9FF02C0DAFF05C0DEFF06C0DDFF2096
:10706300EE02F00150D9260250DA22DECF03F0DD22
:10707300CF04F0010E0326000E042220EE02F001DD
:1070830050D9260250DA2203C0DEFF04C0DDFF011F
:10709300C0D9FF02C0DAFFDE2806E1DE28D8A455F6
:1070A300EF38F058EF38F0FFFF63EF38F0FFFF01E0
:1070B300C0D9FF02C0DAFF030EDE6E000EDD6E7C68
:1070C300EF38F0FFFF01C0D9FF02C0DAFF040EDE84
:1070D30018DE10D8A470EF38F073EF38F0FFFF7CA0
:1070E300EF38F0FFFF01C0D9FF02C0DAFF000EDE68
:1070F3006E000EDD6EFFFF1200FFFFFFFF000E1A92
:107103006E050E196E3F0E0001D625136E000ED7C5
:1071130021146E77EC34F013C017F014C018F04646
:10712300EC3AF017C01FF018C020F0000E20BEFF8D
:107133000E216E226E010E45EC1CF01FC0D8F0200C
:10714300C0D9F021C0DAF022C0DBF0D8C001F0D9F9
:10715300C002F0DAC003F0DBC004F0000E056E00DD
:107163000E066E400E076E410E086EC5EC3CF0D85D
:10717300A0BEEF38F0C1EF38F0FFFFE4EF38F0FFC7
:10718300FF000E016E000E026E500E036E410E04E0
:107193006ED8C005F0D9C006F0DAC007F0DBC0082E
:1071A300F0C5EC3CF0D8A0D9EF38F0DCEF38F0FFB5
:1071B300FFE4EF38F0FFFF000E0001D76F010ED69A
:1071C3006FEAEF38F0FFFF000E0001D76F000ED615
:1071D3006FFFFF1200FFFFFFFF03500410D8B4F549
:1071E300EF38F0F8EF38F0FFFF03EF39F0FFFF035C
:1071F300500410D8A400EF39F003EF39F0FFFF0972
:10720300EF39F0FFFF01506AEC32F05BEF39F0FF2A
:10721300FF20EE04F00350D9260450DA22DE50DEBC
:1072230010D8B417EF39F01AEF39F0FFFF37EF3901
:10723300F0FFFF20EE04F00350D9260450DA2210A9
:10724300EE02F00350E1260450E222DE50E65CE653
:1072530050800A096EDE50800A0958D8B034EF39DD
:10726300F037EF39F0FFFF5BEF39F0FFFF20EE025D
:10727300F00350D9260450DA22DECF05F0DDCF0625
:10728300F003C0D9FF04C0DAFFDECF07F0DDCF087B
:10729300F005500724D96E06500820DA6E01C0DFCE
:1072A300FF20EE02F00350D9260450DA22DE2A0032
:1072B3000EDD22FFFF1200FFFFFFFF00018AA16521
:1072C300EF39F068EF39F0FFFF73EF39F0FFFF1389
:1072D300C00AF014C00BF011C00CF012C00DF09DE9
:1072E300EC34F0FFFF16BE79EF39F07CEF39F0FF95
:1072F300FF83EF39F0FFFF15C01AF016C01BF088AB
:10730300EF39F0FFFF000E1B6E000E1A6EFFFF0039
:107313000E196E000E186E9CEF39F0FFFF000E027F
:107323006E200E016E11C003F012C004F0EDEC38B4
:10733300F0184A192AFFFF1A50185C1950800A17CF
:107343006E1B50800A1758D8A0AAEF39F0ADEF3959
:10735300F0FFFF8FEF39F0FFFF00018AB1B4EF397F
:10736300F0B7EF39F0FFFFC2EF39F0FFFF13C00AA8
:10737300F014C00BF011C00CF012C00DF09DEC34F2
:10738300F0FFFF13C001F014C002F0C5EC34F01A93
:10739300500124116E1B500220126E1200FFFFFFDA
:1073A300FF09500A100B100C100D100E100F1010C7
:1073B30010D8B4DFEF39F0E2EF39F0FFFF33EF3AE3
:1073C300F0FFFF010E116EF2EF39F0FFFFD89009C5
:1073D300360A360B360C360D360E360F361036118E
:1073E3002AFFFF10AEF8EF39F0FBEF39F0FFFFE7AC
:1073F300EF39F0FFFFFFFF0950015C0A5002580B01
:107403005003580C5004580D5005580E5006580F91
:1074130050075810500858D8A012EF3AF015EF3A19
:10742300F0FFFF26EF3AF0FFFF0950015E0A50021A
:107433005A0B50035A0C50045A0D50055A0E50065D
:107443005A0F50075A1050085AFFFFD89010320FA6
:10745300320E320D320C320B320A320932112EFC4B
:10746300EF39F0FFFF01C001F002C002F003C003D7
:10747300F004C004F005C005F006C006F007C0071D
:10748300F008C008F01200FFFFFFFF000E1C6E1A89
:10749300BE51EF3AF04EEF3AF0FFFF58EF3AF0FFEC
:1074A300FF196C1A1ED8B01A2A010E1C6EFFFF18A2
:1074B300BE61EF3AF05EEF3AF0FFFF68EF3AF0FF9C
:1074C300FF176C181ED8B0182A010E1C1AFFFF00F4
:1074D3000E1E6E000E1D6E19501A10D8B474EF3ABA
:1074E300F077EF3AF0FFFFA8EF3AF0FFFF010E1B32
:1074F3006E81EF3AF0FFFFD89019361A361B2AFF38
:10750300FF1AAE87EF3AF08AEF3AF0FFFF7CEF3ACB
:10751300F0FFFFFFFFD8901D361E361950175C1A77
:10752300501858D8A098EF3AF09BEF3AF0FFFFA11C
:10753300EF3AF0FFFF1950175E1A50185A1D80FFDB
:10754300FFD8901A3219321B2E8BEF3AF0FFFF1C33
:1075530050D8B4AFEF3AF0B2EF3AF0FFFFB7EF3ADB
:10756300F0FFFF1D6C1E1ED8B01E2AFFFF1DC017A3
:10757300F01EC018F01200FFFFFFFF056E0550F765
:10758300EC32F0410E0518D8A4CAEF3AF0CDEF3A29
:10759300F0FFFFD8EF3AF0FFFF03C0D9FF04C0DAD2
:1075A300FF010EDE6E000EDD6E39EF3BF0FFFF4292
:1075B3000E0518D8A4E0EF3AF0E3EF3AF0FFFFEE40
:1075C300EF3AF0FFFF03C0D9FF04C0DAFF030EDE7A
:1075D3006E000EDD6E39EF3BF0FFFF440E0518D849
:1075E300A4F6EF3AF0F9EF3AF0FFFF04EF3BF0FFB8
:1075F300FF03C0D9FF04C0DAFF040EDE6E000EDD08
:107603006E39EF3BF0FFFF400E0518D8A40CEF3B9B
:10761300F00FEF3BF0FFFF1AEF3BF0FFFF03C0D982
:10762300FF04C0DAFF050EDE6E000EDD6E39EF3BA0
:10763300F0FFFF480E0518D8A422EF3BF025EF3BDF
:10764300F0FFFF30EF3BF0FFFF03C0D9FF04C0DAC8
:10765300FF020EDE6E000EDD6E39EF3BF0FFFF031F
:10766300C0D9FF04C0DAFF000EDE6E000EDD6EFF30
:10767300FF1200FFFFFFFF01C0D9FF02C0DAFFDEE8
:1076830050DE10D8A448EF3BF04BEF3BF0FFFF5028
:10769300EF3BF0FFFF000E056EB8EF3BF0FFFF017D
:1076A300C0D9FF02C0DAFFDE04DE10D8A45CEF3BD2
:1076B300F05FEF3BF0FFFF64EF3BF0FFFF410E0590
:1076C3006EB8EF3BF0FFFF01C0D9FF02C0DAFF0342
:1076D3000EDE18DE10D8A471EF3BF074EF3BF0FF21
:1076E300FF79EF3BF0FFFF420E056EB8EF3BF0FF73
:1076F300FF01C0D9FF02C0DAFF040EDE18DE10D886
:10770300A486EF3BF089EF3BF0FFFF8EEF3BF0FFEA
:10771300FF440E056EB8EF3BF0FFFF01C0D9FF0237
:10772300C0DAFF050EDE18DE10D8A49BEF3BF09EF7
:10773300EF3BF0FFFFA3EF3BF0FFFF400E056EB8FA
:10774300EF3BF0FFFF01C0D9FF02C0DAFF020EDEFC
:1077530018DE10D8A4B0EF3BF0B3EF3BF0FFFFB857
:10776300EF3BF0FFFF480E056EB8EF3BF0FFFF0560
:10777300501200FFFFFFFF01C008F002C009F00331
:10778300C00AF004C00BF00506D8A00606052806BB
:10779300E10628D8A4D0EF3BF0D3EF3BF0FFFFE2A4
:1077A300EF3BF0FFFF000E026E000E016E3DEF3C5B
:1077B300F0FFFF084A092A0A4A0B2A0506D8A00641
:1077C30006FFFF08C0F6FF09C0F7FF0800FFFFF53B
:1077D300500009D8B4F0EF3BF0F3EF3BF0FFFF2884
:1077E300EF3CF0FFFF0AC0F6FF0BC0F7FF0800FFF6
:1077F300FFF5500009D8B401EF3CF004EF3CF0FF73
:10780300FF28EF3CF0FFFF05500610D8B40CEF3C07
:10781300F00FEF3CF0FFFF28EF3CF0FFFF08C0F64E
:10782300FF09C0F7FF0800FFFFF5CF07F00AC0F616
:10783300FF0BC0F7FF0800FFFFF5500718D8B4256A
:10784300EF3CF028EF3CF0FFFFDAEF3BF0FFFF08DF
:10785300C0F6FF09C0F7FF0800FFFFF5CF07F00AE6
:10786300C0F6FF0BC0F7FF0800FFFFF550075C01F0
:107873006E026AD8A00206FFFF1200FFFFFFFF207F
:10788300EE11F0070EDE6AE806FDE209500A100B5E
:10789300100C100D100E100F101010D8B454EF3C34
:1078A300F057EF3CF0FFFFB2EF3CF0FFFF010E1982
:1078B3006E67EF3CF0FFFFD89009360A360B360CA3
:1078C300360D360E360F361036192AFFFF10AE6D01
:1078D300EF3CF070EF3CF0FFFF5CEF3CF0FFFFFF8D
:1078E300FFD890113612361336143615361636175E
:1078F3003618360950015C0A5002580B5003580CD5
:107903005004580D5005580E5006580F5007581084
:10791300500858D8A090EF3CF093EF3CF0FFFFA540
:10792300EF3CF0FFFF0950015E0A50025A0B50036F
:107933005A0C50045A0D50055A0E50065A0F500750
:107943005A1050085A1180FFFFD89010320F320E90
:10795300320D320C320B320A320932192E71EF3CDE
:10796300F0FFFF11C001F012C002F013C003F014C6
:10797300C004F015C005F016C006F017C007F018D4
:10798300C008F01200FFFFFFFF000E0114096E0094
:107993000E02140A6E800E03140B6E7F0E04140C79
:1079A3006E09500A100B100C10D8A4DBEF3CF0DE6C
:1079B300EF3CF0FFFFE7EF3CF0FFFF000E016E002E
:1079C3000E026E000E036E000E046EFFFF000E0526
:1079D30014096E000E06140A6E800E07140B6E7FD8
:1079E3000E08140C6E09500A100B100C10D8A4FDCD
:1079F300EF3CF000EF3DF0FFFF09EF3DF0FFFF002C
:107A03000E056E000E066E000E076E000E086EFF6A
:107A1300FF04AE0FEF3DF012EF3DF0FFFF1CEF3D13
:107A2300F0FFFF016C021ED8B0022A031ED8B00378
:107A33002A800E0456FFFF08AE22EF3DF025EF3DEE
:107A4300F0FFFF2FEF3DF0FFFF056C061ED8B006D9
:107A53002A071ED8B0072A800E0856FFFF000E0122
:107A63001A000E021A000E031A800E041A000E05E5
:107A73001A000E061A000E071A800E081A05500186
:107A83005C065002580750035808500458D8B04DAC
:107A9300EF3DF050EF3DF0FFFF54EF3DF0FFFFD817
:107AA3009056EF3DF0FFFFD880FFFF1200FFFFFF6E
:107AB300FF0001CC35CD35D36FD351D8A464EF3D4E
:107AC300F067EF3DF0FFFF73EF3DF0FFFFFFFF00B7
:107AD3000ECA6F000ECB6F000ECC6F000ECD6FF28F
:107AE300EF3DF0FFFFCAC0CEF0CBC0CFF0CCC0D08B
:107AF300F0CDC0D1F0200E85EF3DF0FFFFD890D13F
:107B030033D033CF33CE33FFFFE82E7FEF3DF0CEBC
:107B130051D26FCC8FFF0ECA17FF0ECB17FF0ECCBF
:107B230017000ECD17960ED35FD3BF9EEF3DF09B8C
:107B3300EF3DF0FFFFB8EF3DF0FFFFD351800A9711
:107B43000FD8B0A7EF3DF0AAEF3DF0FFFFADEF3D3B
:107B5300F0FFFF68EF3DF0FFFFD890CD33CC33CB80
:107B630033CA33D33FADEF3DF0D6EF3DF0FFFF1FF8
:107B73000ED365BFEF3DF0C2EF3DF0FFFFCCEF3D0D
:107B8300F0FFFF68EF3DF0FFFFD890CA37CB37CC4B
:107B930037CD37D307FFFFD351D8A4D3EF3DF0D66A
:107BA300EF3DF0FFFFC5EF3DF0FFFFD251D8B4DD4D
:107BB300EF3DF0E0EF3DF0FFFFE9EF3DF0FFFFCDDC
:107BC3001FCC1FCB1FCA6D000ECB23CC23CD23FFAD
:107BD300FFCAC0CAF0CBC0CBF0CCC0CCF0CDC0CD77
:107BE300F0FFFF1200FFFFFFFF800E735CD8A0FDC4
:107BF300EF3DF000EF3EF0FFFF0AEF3EF0FFFF0026
:107C03000E00018D6F4B0E8C6F706871688FEF3EA5
:107C1300F0FFFF70C0BCF071C0BDF073500AE10209
:107C23000E725CD8A018EF3EF01BEF3EF0FFFF2969
:107C3300EF3EF0FFFFFF0E72240001C06FFF0E73D3
:107C430020C16F000EBF6F000EBE6F33EF3EF0FF1B
:107C5300FF000E0001C16F010EC06F000EBF6F0168
:107C63000EBE6FFFFFBC0E686E000E696E74C06AB5
:107C7300F075C06BF076C06CF077C06DF0C1EC3579
:107C8300F068C0BAF069C0BBF072507310D8B44D3D
:107C9300EF3EF050EF3EF0FFFF8AEF3EF0FFFF00B4
:107CA30001BBBF57EF3EF05AEF3EF0FFFF8AEF3EB6
:107CB300F0FFFFFF0E786EFF0E796E72C07AF073DD
:107CC300C07BF078507A2679507B227A50BA5D7B5C
:107CD30050BB59D8A070EF3EF073EF3EF0FFFF7C2E
:107CE300EF3EF0FFFFFF0E7224B86FFF0E7320B953
:107CF3006F81EF3EF0FFFFBAC0B8F0BBC0B9F0FF31
:107D0300FFB8517024D96EB9517120DA6E000EDFBD
:107D13006EFFFFBAC070F0BBC071F0FFFF1200FF2F
:107D2300FFFFFF000E126E08BE9DEF3EF09AEF3E7E
:107D3300F0FFFFB0EF3EF0FFFF081E071E061E0513
:107D43001E041E031E021E016C000E0222032204E7
:107D5300220522062207220822010E126EFFFF10BF
:107D6300BEB9EF3EF0B6EF3EF0FFFFCAEF3EF0FFC5
:107D7300FF101E0F1E0E1E0D1E0C1E0B1E0A1E09CB
:107D83006C000E0A220B220C220D220E220F22104F
:107D930022FFFF09500A100B100C100D100E100FCC
:107DA300101010D8B4D8EF3EF0DBEF3EF0FFFF2CFD
:107DB300EF3FF0FFFF010E116EEBEF3EF0FFFFD838
:107DC3009009360A360B360C360D360E360F361042
:107DD30036112AFFFF10AEF1EF3EF0F4EF3EF0FF55
:107DE300FFE0EF3EF0FFFFFFFF0950015C0A500286
:107DF300580B5003580C5004580D5005580E50069C
:107E0300580F50075810500858D8A00BEF3FF00EEA
:107E1300EF3FF0FFFF1FEF3FF0FFFF0950015E0A46
:107E230050025A0B50035A0C50045A0D50055A0E67
:107E330050065A0F50075A1050085AFFFFD8901097
:107E4300320F320E320D320C320B320A320932113A
:107E53002EF5EF3EF0FFFF1250D8B433EF3FF0366C
:107E6300EF3FF0FFFF47EF3FF0FFFF081E071E063F
:107E73001E051E041E031E021E016C000E022203B9
:107E83002204220522062207220822FFFF01C00145
:107E9300F002C002F003C003F004C004F005C00503
:107EA300F006C006F007C007F008C008F01200FF94
:107EB300FF000000004B00001646BD378635002446
:107EC30074490024744A494E49545F504F533A2031
:107ED300746865207669616C20697320617420740D
:107EE300686520696E697420706F736974696F6E59
:107EF3002C2070726F6365737320697320737461D0
:107F03007274696E67005049434B5F55503A207451
:107F13006865207669616C206861732072656163AE
:107F230068656420746865207069636B20757020D0
:107F330073746174696F6E0049444C453A207761EC
:107F43006974696E6720666F7220207669616C20A0
:107F5300746F20626520706C6163656420696E20B4
:107F6300696E697420706F73004F56454E3A2072E4
:107F730065616368696E672074686520636F7272F8
:107F83006563742074656D706572617475726500E4
:107F930044657669636520686173206265656E2058
:107FA3007265736574004752415350494E4700440C
