:020000040000FA
:0600000000F0DBEF1EF032
:103CEA00FFFFFFFF016E01C083FF1200FFFF1020DC
:103CFA004080010204080AD7A33CBD37863400007D
:103D0A008041FFFF026E8482025076EC1EF084949A
:103D1A00C80EFFFF00F0E82EFCD78492C80EFFFF02
:103D2A0000F0E82EFCD784821200FFFFFFFF01504B
:103D3A000302F3CF05F0F4CF06F001500402F3506A
:103D4A00062602500302F350062605C001F006C0FB
:103D5A0002F01200FFFFFFFF026E8482025076EC2F
:103D6A001EF08484C80EFFFF00F0E82EFCD7849270
:103D7A00C80EFFFF00F0E82EFCD784821200FFFF76
:103D8A00FFFF000E896E000E806EF10E926E000E1D
:103D9A008A6E000E816E000E936E000E8B6E000E00
:103DAA00826EF00E946E949C1200FFFFF80EF66E6F
:103DBA003C0EF76E000EF86E00EE2CF010EE14F0CA
:103DCA000900F5CFEEFFE550E150FAE100EE18F0F8
:103DDA00140EEE6AE806FDE1000EF86E000126EF09
:103DEA001FF0FFFF000E0B6E0CEF1FF0FFFF0B50D2
:103DFA000724096E000E08200A6E09C0F6FF0AC0E1
:103E0A00F7FF0800FFFFF550B0EC1EF00B2AFFFF8A
:103E1A000B500724096E000E08200A6E09C0F6FF2F
:103E2A000AC0F7FF0800FFFFF5500009D8A420EFE9
:103E3A001FF023EF1FF0FFFFFBEF1EF0FFFF120042
:103E4A00FFFFFFFFC5EC1EF063EC1FF00C0E86ECC3
:103E5A001EF0010E86EC1EF0800E86EC1EF0E90EB6
:103E6A00076E7F0E086EF6EC1EF0FFFF000E0D6E59
:103E7A00000E0C6EA2EC1FF0080E176E9E0E166E48
:103E8A004C0EFFFFE82EFDD7162EFBD7172EF9D7BB
:103E9A00000E0D6E010E0C6EA2EC1FF0080E176ECE
:103EAA009E0E166E4C0EFFFFE82EFDD7162EFBD780
:103EBA00172EF9D73AEF1FF001EF00F0FFFF836AE0
:103ECA00000E956E846A000E966E849284941E0E7D
:103EDA00036E3C0EFFFFE82EFDD7032EFBD700D062
:103EEA008482380E86EC1EF01E0E036E3C0EFFFF17
:103EFA00E82EFDD7032EFBD700D0380E86EC1EF035
:103F0A001E0E036E3C0EFFFFE82EFDD7032EFBD7D5
:103F1A0000D0380E86EC1EF0080E86EC1EF00F0E4E
:103F2A0086EC1EF0010E86EC1EF0380E86EC1EF0B2
:103F3A00800E86EC1EF01200FFFFFFFF010E86ECDA
:103F4A001EF0950EF66E7E0EF76E0900FFFFF5CF96
:103F5A0010F00900FFFFF5CF11F00900FFFFF5CFC0
:103F6A0012F00A00FFFFF5CF13F0000E156E000ED7
:103F7A00146EFFFF100E1424D96E000E1520DA6E8F
:103F8A00DF5086EC1EF014C001F015C002F0000EDE
:103F9A00046EA00E036E9BEC1EF09D0E0E6E7E0E3E
:103FAA000F6E01500E2602500F220CC001F00DC0F8
:103FBA0002F0000E046E140E036E9BEC1EF001500C
:103FCA000E24076E02500F20086EF6EC1EF0144AFB
:103FDA00152A15BEFAEF1FF015500AE1040E145CFB
:103FEA00D8A0FAEF1FF0FDEF1FF0FFFFBEEF1FF0A2
:063FFA00FFFF1200FFFFB3
:107E9000000000004B80C094D40000164649444CBA
:107EA000453A2077616974696E6720666F720000D9
:107EB000007669616C20746F20626520706C61636C
:107EC0006564000000696E20696E697420706F73CC
:107ED00000000000000000000000000000000000A2
:107EE0000000000000000000000000000000000092
:107EF0000000000000000000000000000000000082
:107F00000000000000000000000000000000000071
:107F10000000000000000000000000000000000061
:107F20000000000000000000000000000000000051
:107F30000000000000000000000000000064656216
:107F40007567000000000000000000000000000055
:107F50000072690000000000000000000000000046
:107F60000000000000000000000000000000000011
:107F70000000000000000000006A6565700000005D
:107F800000000000000000000000000000000000F1
:107F900000000000000000000000000000000000E1
:107FA00000000000000000000000000000000000D1
:107FB00000000000000000000000000000000000C1
:107FC00000000000000000000000000000000000B1
:107FD00000000000000000000000000000BD378627
:107FE00035002474490024744A4465766963652029
:107FF000686173206265656E207265736574000048
:020000040020DA
:08000000FFFFFFFFFFFFFFFF00
:020000040030CA
:0E000000FF270F0EFF0185FF0FC00FE00F401E
:00000001FF
