:020000040000FA
:1000000000F03BEF00F0FFFFFFFF7E829DAA0BEFA9
:1000100000F00EEF00F0FFFF1EEF00F0FFFF9EAAC2
:1000200014EF00F017EF00F0FFFF1EEF00F0FFFFEE
:100030009E9A010E0101A46F010EA26FFFFFF2AAAA
:1000400024EF00F027EF00F0FFFF37EF00F0FFFF95
:10005000F2A42DEF00F030EF00F0FFFF37EF00F0DB
:10006000FFFF000ED56EF294010E0101A16FFFFF9C
:100070007E921100FFFF57EF39F0FFFF45C0D9FF17
:1000800046C0DAFFDECFF6FFDDCFF7FF0800FFFF47
:10009000F550250AD8A44FEF00F052EF00F0FFFF13
:1000A00011EF0AF0FFFF45C0D9FF46C0DAFFDE2A94
:1000B000000EDD22000E0001876F000E866F86C0E5
:1000C0008AF087C08BF088698969000E506E000E37
:1000D0004F6EC0EF00F0FFFF00018A81FFFF45C0B7
:1000E000D9FF46C0DAFFDE2A000EDD22C0EF00F0A5
:1000F000FFFF00018A836EEF00F0FFFF00018A8599
:100100006EEF00F0FFFF00018A876EEF00F0FFFF47
:1001100000018A896EEF00F0FFFF000E506E010EA5
:100120004F6EC0EF00F0FFFF45C0D9FF46C0DAFFB9
:10013000DECFF6FFDDCFF7FF0800FFFFF550496E79
:100140004A6A4A50000AD8B4A8EF00F08CEF00F0D9
:10015000FFFF4950200AD8B482EF00F0030AD8B458
:1001600087EF00F0080AD8B47DEF00F0060AD8B493
:100170006BEF00F01D0AD8B478EF00F08CEF00F0C0
:10018000FFFF4F505010D8B4C8EF00F0CBEF00F095
:10019000FFFF93EF00F0FFFF00018AA1D2EF00F014
:1001A000D5EF00F0FFFFD7EF00F0FFFF8A93FFFFCE
:1001B00045C0D9FF46C0DAFFDECFF6FFDDCFF7FF3F
:1001C0000800FFFFF5502A0AD8A4E9EF00F0ECEF91
:1001D00000F0FFFF18EF01F0FFFF45C0D9FF46C058
:1001E000DAFFDE2A000EDD2247C0D9FF48C0DAFF61
:1001F000DFCF49F0020EDE26DFCF4AF0000EDD220F
:1002000049C0D9FF4AC0DAFFDECF86F0DDCF87F0E4
:1002100087BF10EF01F00DEF01F0FFFF63EF01F07A
:10022000FFFF8A81866D871FD8B0872B63EF01F0AF
:10023000FFFF45C0D9FF46C0DAFFDECF08F0DDCFB3
:1002400009F07DEC1BF008C086F009C087F031EFA3
:1002500001F0FFFF45C0D9FF46C0DAFFDE2A000EDD
:10026000DD22FFFFD00E496EFF0E4A6E45C0D9FF5A
:1002700046C0DAFFDECFF6FFDDCFF7FF0800FFFF55
:10028000F5504B6E4C6A49504B264A504C224C500C
:100290000BE10A0E4B5CD8A050EF01F054EF01F0D7
:1002A000FFFF010E56EF01F0FFFF000EFFFF516E42
:1002B000526A51505210D8A460EF01F063EF01F080
:1002C000FFFF29EF01F0FFFF45C0D9FF46C0DAFF6D
:1002D000DECFF6FFDDCFF7FF0800FFFFF5502E0A57
:1002E000D8A475EF01F078EF01F0FFFF02EF02F004
:1002F000FFFF000E0001896F000E886F45C0D9FF17
:1003000046C0DAFFDE2A000EDD2245C0D9FF46C016
:10031000DAFFDECFF6FFDDCFF7FF0800FFFFF55075
:100320002A0AD8A496EF01F099EF01F0FFFFB7EF8A
:1003300001F0FFFF45C0D9FF46C0DAFFDE2A000EFC
:10034000DD2247C0D9FF48C0DAFFDFCF49F0020EF7
:10035000DE26DFCF4AF0000EDD2249C0D9FF4AC0B9
:10036000DAFFDECF88F0DDCF89F002EF02F0FFFF89
:1003700045C0D9FF46C0DAFFDECF08F0DDCF09F077
:100380007DEC1BF008C088F009C089F0D0EF01F0C7
:10039000FFFF45C0D9FF46C0DAFFDE2A000EDD228E
:1003A000FFFFD00E496EFF0E4A6E45C0D9FF46C012
:1003B000DAFFDECFF6FFDDCFF7FF0800FFFFF550D5
:1003C0004B6E4C6A49504B264A504C224C500BE124
:1003D0000A0E4B5CD8A0EFEF01F0F3EF01F0FFFF46
:1003E000010EF5EF01F0FFFF000EFFFF536E546AA0
:1003F00053505410D8A4FFEF01F002EF02F0FFFFBA
:10040000C8EF01F0FFFF45C0D9FF46C0DAFFDECFDD
:10041000F6FFDDCFF7FF0800FFFFF550630AD8A411
:1004200014EF02F017EF02F0FFFF3FEF02F0FFFFC3
:1004300045C0D9FF46C0DAFFDE2A000EDD2247C0E4
:10044000D9FF48C0DAFFDFCF49F0020EDE26DFCF4A
:100450004AF0000EDD2249C0D9FF4AC0DAFFDF5062
:100460005F6E43C01CF044C01DF05FC01EF024EC62
:1004700039F01CC043F01DC044F02EEF0AF0FFFF1E
:1004800045C0D9FF46C0DAFFDECF01F0DDCF02F074
:10049000CF0E036E7F0E046E000E066E030E056E09
:1004A00044EC3EF001500210D8B459EF02F05CEF7A
:1004B00002F0FFFF79EF02F0FFFF45C0D9FF46C011
:1004C000DAFFDECF01F0DDCF02F0D30E036E7F0E38
:1004D000046E000E066E030E056E44EC3EF00150F5
:1004E0000210D8A476EF02F079EF02F0FFFFBBEF25
:1004F00002F0FFFF030E45C0D9FF46C0DAFFDE263B
:10050000000EDD2247C0D9FF48C0DAFFDFCF49F037
:10051000020EDE26DFCF4AF0000EDD2249C0D9FFF1
:100520004AC0DAFFDF50556E000E55BEFF0E566E04
:10053000576E586E596E5A6E5B6E5C6EFFFF43C00D
:100540001CF044C01DF055C01EF056C01FF057C02F
:1005500020F058C021F059C022F05AC023F05BC0EF
:1005600024F05CC025F038EC15F01CC043F01DC031
:1005700044F02EEF0AF0FFFF45C0D9FF46C0DAFF76
:10058000DECF01F0DDCF02F0D00E036E7F0E046EE1
:10059000000E066E020E056E44EC3EF00150021095
:1005A000D8B4D5EF02F0D8EF02F0FFFFF5EF02F07C
:1005B000FFFF45C0D9FF46C0DAFFDECF01F0DDCF37
:1005C00002F0D40E036E7F0E046E000E066E020E55
:1005D000056E44EC3EF001500210D8A4F2EF02F098
:1005E000F5EF02F0FFFF1DEF03F0FFFF020E45C025
:1005F000D9FF46C0DAFFDE26000EDD2247C0D9FF54
:1006000048C0DAFFDFCF49F0020EDE26DFCF4AF026
:10061000000EDD2249C0D9FF4AC0DAFFDECF55F017
:10062000DDCF56F0000E56BEFF0E576E586E596E57
:100630005A6E5B6E5C6E9EEF02F0FFFF45C0D9FF05
:1006400046C0DAFFDECFF6FFDDCFF7FF0800FFFF81
:10065000F550640AD8B42FEF03F032EF03F0FFFF38
:1006600047EF03F0FFFF45C0D9FF46C0DAFFDECFFA
:10067000F6FFDDCFF7FF0800FFFFF550690AD8A4A9
:1006800044EF03F047EF03F0FFFF6EEF03F0FFFFCF
:1006900045C0D9FF46C0DAFFDE2A000EDD2247C082
:1006A000D9FF48C0DAFFDFCF49F0020EDE26DFCFE8
:1006B0004AF0000EDD2249C0D9FF4AC0DAFFDECF82
:1006C00055F0DDCF56F0000E56BEFF0E576E586E39
:1006D000596E5A6E5B6E5C6E9EEF02F0FFFF45C076
:1006E000D9FF46C0DAFFDECF01F0DDCF02F0EA0E1F
:1006F000036E7F0E046E000E066E020E056E44EC55
:100700003EF001500210D8B488EF03F08BEF03F0F5
:10071000FFFFA8EF03F0FFFF45C0D9FF46C0DAFF97
:10072000DECF01F0DDCF02F0ED0E036E7F0E046E22
:10073000000E066E020E056E44EC3EF001500210F3
:10074000D8A4A5EF03F0A8EF03F0FFFFD1EF03F06B
:10075000FFFF020E45C0D9FF46C0DAFFDE26000EBD
:10076000DD2247C0D9FF48C0DAFFDFCF49F0020ED3
:10077000DE26DFCF4AF0000EDD2249C0D9FF4AC095
:10078000DAFFDECF4BF0DDCF4CF04BC055F04CC064
:1007900056F0576A586A596A5A6A5B6A5C6A9EEFF1
:1007A00002F0FFFF45C0D9FF46C0DAFFDECF01F0FF
:1007B000DDCF02F0DB0E036E7F0E046E000E066EC0
:1007C000030E056E44EC3EF001500210D8A4EBEF8E
:1007D00003F0EEEF03F0FFFF2FEF04F0FFFF030E37
:1007E00045C0D9FF46C0DAFFDE26000EDD2247C035
:1007F000D9FF48C0DAFFDFCF49F0020EDE26DFCF97
:100800004AF0000EDD2249C0D9FF4AC0DAFFDF50AE
:100810004B6E4B50606E616A626A636A646A656AB5
:10082000666A676AFFFF43C01CF044C01DF060C0E9
:100830001EF061C01FF062C020F063C021F064C0F0
:1008400022F065C023F066C024F067C025F080EC7C
:1008500019F01CC043F01DC044F02EEF0AF0FFFF5A
:1008600045C0D9FF46C0DAFFDECF01F0DDCF02F090
:10087000DC0E036E7F0E046E000E066E020E056E19
:1008800044EC3EF001500210D8A449EF04F04CEFC4
:1008900004F0FFFF75EF04F0FFFF020E45C0D9FF23
:1008A00046C0DAFFDE26000EDD2247C0D9FF48C071
:1008B000DAFFDFCF49F0020EDE26DFCF4AF0000E6E
:1008C000DD2249C0D9FF4AC0DAFFDECF4BF0DDCFD1
:1008D0004CF04BC060F04CC061F0626A636A646ABD
:1008E000656A666A676A12EF04F0FFFF45C0D9FFC8
:1008F00046C0DAFFDECFF6FFDDCFF7FF0800FFFFCF
:10090000F5506F0AD8A487EF04F08AEF04F0FFFFD8
:10091000B2EF04F0FFFF45C0D9FF46C0DAFFDE2A80
:10092000000EDD2247C0D9FF48C0DAFFDFCF49F013
:10093000020EDE26DFCF4AF0000EDD2249C0D9FFCD
:100940004AC0DAFFDECF4BF0DDCF4CF04BC060F099
:100950004CC061F0626A636A646A656A666A676A63
:1009600012EF04F0FFFF45C0D9FF46C0DAFFDECF2B
:1009700001F0DDCF02F0F30E036E7F0E046E000E69
:10098000066E020E056E44EC3EF001500210D8A433
:10099000CCEF04F0CFEF04F0FFFFF8EF04F0FFFF1F
:1009A000020E45C0D9FF46C0DAFFDE26000EDD226A
:1009B00047C0D9FF48C0DAFFDFCF49F0020EDE267C
:1009C000DFCF4AF0000EDD2249C0D9FF4AC0DAFF6E
:1009D000DECF4BF0DDCF4CF04BC060F04CC061F08F
:1009E000626A636A646A656A666A676A12EF04F03B
:1009F000FFFF45C0D9FF46C0DAFFDECF01F0DDCFF3
:100A000002F0D70E036E7F0E046E000E066E030E0C
:100A1000056E44EC3EF001500210D8A412EF05F030
:100A200015EF05F0FFFF4BEF05F0FFFF030E45C08C
:100A3000D9FF46C0DAFFDE26000EDD2247C0D9FF0F
:100A400048C0DAFFDFCF49F0020EDE26DFCF4AF0E2
:100A5000000EDD2249C0D9FF4AC0DAFFDECF5DF0CB
:100A6000DDCF5EF05DC0F6FF5EC0F7FFF86A050EF1
:100A7000F76404D084C0F5FF0C0006D0F6CFE1FF88
:100A8000F7CFE2FF84C0E7FFFFFF000E446E000EC9
:100A9000436E2EEF0AF0FFFF45C0D9FF46C0DAFFD4
:100AA000DECF01F0DDCF02F0D80E036E7F0E046EB4
:100AB000000E066E020E056E44EC3EF00150021070
:100AC000D8A465EF05F068EF05F0FFFF9EEF05F095
:100AD000FFFF020E45C0D9FF46C0DAFFDE26000E3A
:100AE000DD2247C0D9FF48C0DAFFDFCF49F0020E50
:100AF000DE26DFCF4AF0000EDD2249C0D9FF4AC012
:100B0000DAFFDECF5DF0DDCF5EF05DC0F6FF5EC0E8
:100B1000F7FFF86A050EF76407D084C0F5FF0D00F3
:100B200085C0F5FF0C0008D0F6CFE1FFF7CFE2FF5C
:100B300084C0E6FF85C0E7FF44EF05F0FFFF45C036
:100B4000D9FF46C0DAFFDECFF6FFDDCFF7FF0800A2
:100B5000FFFFF5506E0AD8A4B0EF05F0B3EF05F033
:100B6000FFFFE8EF05F0FFFF45C0D9FF46C0DAFF01
:100B7000DE2A000EDD2247C0D9FF48C0DAFFDFCFF2
:100B800049F0020EDE26DFCF4AF0000EDD2249C01A
:100B9000D9FF4AC0DAFFDECF5DF0DDCF5EF05DC089
:100BA000F6FF5EC0F7FFF86A050EF76407D084C051
:100BB000F5FF0D0085C0F5FF0C0008D0F6CFE1FF72
:100BC000F7CFE2FF84C0E6FF85C0E7FF44EF05F002
:100BD000FFFF45C0D9FF46C0DAFFDECF01F0DDCF11
:100BE00002F0F00E036E7F0E046E000E066E020E13
:100BF000056E44EC3EF001500210D8A402EF06F05E
:100C000005EF06F0FFFF3BEF06F0FFFF020E45C0C9
:100C1000D9FF46C0DAFFDE26000EDD2247C0D9FF2D
:100C200048C0DAFFDFCF49F0020EDE26DFCF4AF000
:100C3000000EDD2249C0D9FF4AC0DAFFDECF5DF0E9
:100C4000DDCF5EF05DC0F6FF5EC0F7FFF86A050E0F
:100C5000F76407D084C0F5FF0D0085C0F5FF0C00D8
:100C600008D0F6CFE1FFF7CFE2FF84C0E6FF85C0F2
:100C7000E7FF44EF05F0FFFF45C0D9FF46C0DAFFAC
:100C8000DECFF6FFDDCFF7FF0800FFFFF550700A5B
:100C9000D8A44DEF06F050EF06F0FFFF94EF06F0FA
:100CA000FFFF45C0D9FF46C0DAFFDE2A000EDD2275
:100CB00047C0D9FF48C0DAFFDFCF49F0020EDE2679
:100CC000DFCF4AF0000EDD2249C0D9FF4AC0DAFF6B
:100CD000DECF4BF0DDCF4CF04BC060F04CC061F08C
:100CE000626A636A646A656A666A676A43C01CF01E
:100CF00044C01DF060C01EF061C01FF062C020F053
:100D000063C021F064C022F065C023F066C024F007
:100D100067C025F0780E266ED2EC16F01CC043F0AA
:100D20001DC044F02EEF0AF0FFFF45C0D9FF46C0BA
:100D3000DAFFDECFF6FFDDCFF7FF0800FFFFF5504B
:100D4000730AD8A4A6EF06F0A9EF06F0FFFFD5EFCF
:100D500006F0FFFF45C0D9FF46C0DAFFDE2A000ECD
:100D6000DD2247C0D9FF48C0DAFFDFCF49F0020ECD
:100D7000DE26DFCF4AF0000EDD2249C0D9FF4AC08F
:100D8000DAFFDECF4DF0DDCF4EF043C00AF044C0B5
:100D90000BF04DC00CF04EC00DF093EC1AF00AC0F1
:100DA00043F00BC044F02EEF0AF0FFFF45C0D9FF1F
:100DB00046C0DAFFDECF01F0DDCF02F0DF0E036EBA
:100DC0007F0E046E000E066E030E056E44EC3EF0C0
:100DD00001500210D8A4EFEF06F0F2EF06F0FFFF8B
:100DE00033EF07F0FFFF030E45C0D9FF46C0DAFF1F
:100DF000DE26000EDD2247C0D9FF48C0DAFFDFCF74
:100E000049F0020EDE26DFCF4AF0000EDD2249C097
:100E1000D9FF4AC0DAFFDF504B6E4B50606E616AFB
:100E2000626A636A646A656A666A676AFFFF43C0EA
:100E30001CF044C01DF060C01EF061C01FF062C015
:100E400020F063C021F064C022F065C023F066C0CA
:100E500024F067C025F06AEC18F01CC043F01DC0F8
:100E600044F02EEF0AF0FFFF45C0D9FF46C0DAFF7D
:100E7000DECF01F0DDCF02F0E00E036E7F0E046ED8
:100E8000000E066E020E056E44EC3EF0015002109C
:100E9000D8A44DEF07F050EF07F0FFFF79EF07F010
:100EA000FFFF020E45C0D9FF46C0DAFFDE26000E66
:100EB000DD2247C0D9FF48C0DAFFDFCF49F0020E7C
:100EC000DE26DFCF4AF0000EDD2249C0D9FF4AC03E
:100ED000DAFFDECF4BF0DDCF4CF04BC060F04CC002
:100EE00061F0626A636A646A656A666A676A16EFD5
:100EF00007F0FFFF45C0D9FF46C0DAFFDECFF6FF9F
:100F0000DDCFF7FF0800FFFFF550750AD8A48BEF7F
:100F100007F08EEF07F0FFFFB6EF07F0FFFF45C0C9
:100F2000D9FF46C0DAFFDE2A000EDD2247C0D9FF16
:100F300048C0DAFFDFCF49F0020EDE26DFCF4AF0ED
:100F4000000EDD2249C0D9FF4AC0DAFFDECF4BF0E8
:100F5000DDCF4CF04BC060F04CC061F0626A636A58
:100F6000646A656A666A676A16EF07F0FFFF45C044
:100F7000D9FF46C0DAFFDECF01F0DDCF02F0F60E7A
:100F8000036E7F0E046E000E066E020E056E44ECBC
:100F90003EF001500210D8A4D0EF07F0D3EF07F0D5
:100FA000FFFFFCEF07F0FFFF020E45C0D9FF46C070
:100FB000DAFFDE26000EDD2247C0D9FF48C0DAFF87
:100FC000DFCF49F0020EDE26DFCF4AF0000EDD2231
:100FD00049C0D9FF4AC0DAFFDECF4BF0DDCF4CF07D
:100FE0004BC060F04CC061F0626A636A646A656A13
:100FF000666A676A16EF07F0FFFF45C0D9FF46C073
:10100000DAFFDECF01F0DDCF02F0E30E036E7F0EDC
:10101000046E000E066E030E056E44EC3EF00150A9
:101020000210D8B416EF08F019EF08F0FFFF36EF02
:1010300008F0FFFF45C0D9FF46C0DAFFDECF01F060
:10104000DDCF02F0CB0E036E7F0E046E000E066E37
:10105000030E056E44EC3EF001500210D8A433EFAD
:1010600008F036EF08F0FFFF8DEF08F0FFFF45C0F6
:10107000D9FF46C0DAFFDECF49F0DDCF4AF0020EDD
:101080004926000E4A2249C0F6FF4AC0F7FF080071
:10109000FFFFF5CF5FF0030E45C0D9FF46C0DAFF72
:1010A000DE26000EDD2247C0D9FF48C0DAFFDFCFC1
:1010B00049F0020EDE26DFCF4AF0000EDD2249C0E5
:1010C000D9FF4AC0DAFFDF504B6E4B50606E616A49
:1010D000626A636A646A656A666A676AFFFF43C038
:1010E0001CF044C01DF060C01EF061C01FF062C063
:1010F00020F063C021F064C022F065C023F066C018
:1011000024F067C025F05FC026F0D2EC16F01CC0BA
:1011100043F01DC044F02EEF0AF0FFFF45C0D9FF99
:1011200046C0DAFFDECF01F0DDCF02F0E40E036E41
:101130007F0E046E000E066E020E056E44EC3EF04D
:1011400001500210D8B4A7EF08F0AAEF08F0FFFF93
:10115000C7EF08F0FFFF45C0D9FF46C0DAFFDECF7A
:1011600001F0DDCF02F0CC0E036E7F0E046E000E98
:10117000066E020E056E44EC3EF001500210D8A43B
:10118000C4EF08F0C7EF08F0FFFF04EF09F0FFFF1E
:1011900045C0D9FF46C0DAFFDECF49F0DDCF4AF0C7
:1011A000010E4926000E4A2249C0F6FF4AC0F7FF49
:1011B0000800FFFFF5CF5FF0020E45C0D9FF46C023
:1011C000DAFFDE26000EDD2247C0D9FF48C0DAFF75
:1011D000DFCF49F0020EDE26DFCF4AF0000EDD221F
:1011E00049C0D9FF4AC0DAFFDECF4BF0DDCF4CF06B
:1011F0004BC060F04CC061F0626A636A646A656A01
:10120000666A676A6EEF08F0FFFF45C0D9FF46C007
:10121000DAFFDECFF6FFDDCFF7FF0800FFFFF55066
:10122000780AD8B416EF09F019EF09F0FFFF2EEF96
:1012300009F0FFFF45C0D9FF46C0DAFFDECFF6FF59
:10124000DDCFF7FF0800FFFFF550580AD8A42BEFB9
:1012500009F02EEF09F0FFFF62EF09F0FFFF45C034
:10126000D9FF46C0DAFFDECFF6FFDDCFF7FF08007B
:10127000FFFFF5CF5FF045C0D9FF46C0DAFFDE2A99
:10128000000EDD2247C0D9FF48C0DAFFDFCF49F0AA
:10129000020EDE26DFCF4AF0000EDD2249C0D9FF64
:1012A0004AC0DAFFDECF4BF0DDCF4CF04BC060F030
:1012B0004CC061F0626A636A646A656A666A676AFA
:1012C0006EEF08F0FFFF45C0D9FF46C0DAFFDECF62
:1012D00001F0DDCF02F0F90E036E7F0E046E000EFA
:1012E000066E020E056E44EC3EF001500210D8B4BA
:1012F0007CEF09F07FEF09F0FFFF9CEF09F0FFFFA3
:1013000045C0D9FF46C0DAFFDECF01F0DDCF02F0E5
:10131000E70E036E7F0E046E000E066E020E056E63
:1013200044EC3EF001500210D8A499EF09F09CEF74
:1013300009F0FFFFD9EF09F0FFFF45C0D9FF46C014
:10134000DAFFDECF49F0DDCF4AF0010E4926000E6C
:101350004A2249C0F6FF4AC0F7FF0800FFFFF5CF59
:101360005FF0020E45C0D9FF46C0DAFFDE26000E50
:10137000DD2247C0D9FF48C0DAFFDFCF49F0020EB7
:10138000DE26DFCF4AF0000EDD2249C0D9FF4AC079
:10139000DAFFDECF4BF0DDCF4CF04BC060F04CC03D
:1013A00061F0626A636A646A656A666A676A6EEFB8
:1013B00008F0FFFF45C0D9FF46C0DAFFDECFF6FFD9
:1013C000DDCFF7FF0800FFFFF550250AD8A4EBEFAB
:1013D00009F0EEEF09F0FFFF07EF0AF0FFFF45C04D
:1013E000D9FF46C0DAFFDE2A000EDD22000E026EB3
:1013F000250E016E43C003F044C004F0EDEC3BF059
:10140000FFFF000E446E010E436E2EEF0AF0FFFF49
:1014100045C0D9FF46C0DAFFDE2A000EDD2244EFC8
:1014200005F0FFFF45C0D9FF46C0DAFFDECFF6FF6B
:10143000DDCFF7FF0800FFFFF550016E026A43C0E1
:1014400003F044C004F0EDEC3BF045C0D9FF46C0CA
:10145000DAFFDE2A000EDD2200EF0AF0FFFF1200A5
:10146000FFFFFFFF3650800B3F6E36503624416E33
:1014700035AE3DEF0AF040EF0AF0FFFF42EF0AF011
:10148000FFFF4180FFFF4150D8B449EF0AF04CEF15
:101490000AF0FFFF65EF0AF0FFFF4128D8A453EFE1
:1014A0000AF056EF0AF0FFFF5FEF0AF0FFFF000EB1
:1014B000336E000E346E000E356E000E366EFFFF7A
:1014C000358E000E366E6EEF0AF0FFFF000E336EA3
:1014D000000E346E000E356E000E366EFFFF3A5071
:1014E000800B406E3F504018D8B479EF0AF07CEF83
:1014F0000AF0FFFF7EEF0AF0FFFF3F8CFFFF3A503C
:101500003A24406E39AE87EF0AF08AEF0AF0FFFF07
:101510008CEF0AF0FFFF4080FFFF4050D8B493EFFC
:101520000AF096EF0AF0FFFFAFEF0AF0FFFF402846
:10153000D8A49DEF0AF0A0EF0AF0FFFFA9EF0AF090
:10154000FFFF000E376E000E386E000E396E000E73
:101550003A6EFFFF398E000E3A6EB8EF0AF0FFFFC9
:10156000000E376E000E386E000E396E000E3A6EA9
:10157000FFFF4150405CD8B0C0EF0AF0C3EF0AF063
:10158000FFFFEEEF0AF0FFFF3FACC9EF0AF0CCEF30
:101590000AF0FFFFCFEF0AF0FFFF800E3F1AFFFFB8
:1015A00041C042F040C041F042C040F033C042F080
:1015B00037C033F042C037F034C042F038C034F0A6
:1015C00042C038F035C042F039C035F042C039F081
:1015D00036C042F03AC036F042C03AF0FFFF000E8B
:1015E000426E415040C03BF03C6A3B5E000E3C5AAC
:1015F0003CBE04EF0BF03C500AE11A0E3B5CD8A055
:1016000004EF0BF007EF0BF0FFFF4AEF0BF0FFFFCB
:101610003350341035103610D8A411EF0BF015EFFD
:101620000BF0FFFF010E17EF0BF0FFFF000EFFFFA7
:10163000426E000E336E000E346E000E356E000EDC
:10164000366E40C041F055EF0BF0FFFF42A02BEF8C
:101650000BF02EEF0BF0FFFF35EF0BF0FFFFD890F4
:1016600042300109426E38EF0BF0FFFFD890423252
:10167000FFFF33A03EEF0BF041EF0BF0FFFF43EF16
:101680000BF0FFFF428EFFFF3634363235323432F4
:101690003332412AFFFF4050415CD8A052EF0BF09B
:1016A00055EF0BF0FFFF25EF0BF0FFFF3FBC5BEFAB
:1016B0000BF05EEF0BF0FFFFABEF0BF0FFFF4150C5
:1016C000D8A465EF0BF068EF0BF0FFFF73EF0BF0A2
:1016D000FFFF000E336E000E346E000E356E000EEE
:1016E000366E02EF0DF0FFFF3750332638503422AC
:1016F000395035223A50362236A081EF0BF084EF74
:101700000BF0FFFF4FEF0CF0FFFF42A08AEF0BF052
:101710008DEF0BF0FFFF94EF0BF0FFFFD8904230FE
:101720000109426E97EF0BF0FFFFD8904232FFFFA6
:1017300033A09DEF0BF0A0EF0BF0FFFFA2EF0BF03B
:10174000FFFF428EFFFF36343632353234323332C9
:10175000412A4FEF0CF0FFFF3750335C38503458BC
:10176000395035583650800A3B6E3A50800A3B5803
:10177000D8B0BDEF0BF0C0EF0BF0FFFFEEEF0BF0BA
:10178000FFFF3350375C3B6E345038583C6E355059
:1017900039583D6E36503A583E6EFF0E3B24336E3C
:1017A000FF0E3C20346EFF0E3D20356EFF0E3E20B6
:1017B000366E800E3F1A426C4250D8A4E2EF0BF016
:1017C000E5EF0BF0FFFFF7EF0BF0FFFF010E332605
:1017D000000E342235223622F7EF0BF0FFFF375090
:1017E000335E3850345A3950355A3A50365AFFFF22
:1017F0003350341035103610D8A401EF0CF004EF3C
:101800000CF0FFFF46EF0CF0FFFF4250D8A40BEFA7
:101810000CF00EEF0CF0FFFF46EF0CF0FFFF000E98
:10182000336E000E346E000E356E000E366E02EF13
:101830000DF0FFFFD890333634363536363642AEAB
:1018400024EF0CF027EF0CF0FFFF29EF0CF0FFFF67
:101850003380FFFF42A02FEF0CF032EF0CF0FFFFC0
:1018600037EF0CF0FFFFD88042363AEF0CF0FFFF65
:10187000D8904236FFFF4150D8B441EF0CF044EF0E
:101880000CF0FFFF46EF0CF0FFFF4106FFFF35AE07
:101890004CEF0CF04FEF0CF0FFFF19EF0CF0FFFFD7
:1018A000000E406E42AE57EF0CF05AEF0CF0FFFF07
:1018B00079EF0CF0FFFF42C03BF07F0E3B16D8B42F
:1018C00064EF0CF067EF0CF0FFFF6DEF0CF0FFFF23
:1018D000FFFF010E406E79EF0CF0FFFF33A073EFB6
:1018E0000CF076EF0CF0FFFF79EF0CF0FFFF68EFE4
:1018F0000CF0FFFF4050D8B480EF0CF083EF0CF0F9
:10190000FFFFB3EF0CF0FFFF010E3326000E342271
:101910003522362236A08FEF0CF092EF0CF0FFFF4D
:10192000B3EF0CF0FFFF33C03BF034C03CF035C0E8
:101930003DF036C03EF03E343E323D323C323B322A
:101940003BC033F03CC034F03DC035F03EC036F013
:101950004128D8B4AEEF0CF0B1EF0CF0FFFFB3EFBD
:101960000CF0FFFF412AFFFF4128D8B4BAEF0CF07A
:10197000BDEF0CF0FFFFC7EF0CF0FFFF4150D8A404
:10198000C4EF0CF0C7EF0CF0FFFFDCEF0CF0FFFF33
:10199000000E336E000E346E000E356E000E366E85
:1019A0004150D8A4D6EF0CF0D9EF0CF0FFFFDCEFDC
:1019B0000CF0FFFF000E3F6EFFFF41A0E2EF0CF0C6
:1019C000E5EF0CF0FFFFE9EF0CF0FFFF358EEBEFDA
:1019D0000CF0FFFF359EFFFFD8904130366E3FAED2
:1019E000F4EF0CF0F7EF0CF0FFFFF9EF0CF0FFFF56
:1019F000368EFFFF33C033F034C034F035C035F0DD
:101A000036C036F0FFFF1200FFFFFFFF0450800BCF
:101A10000D6E04500424136E03AE11EF0DF014EF9D
:101A20000DF0FFFF16EF0DF0FFFF1380FFFF1350C7
:101A3000D8B41DEF0DF020EF0DF0FFFF37EF0DF0E4
:101A4000FFFF1328D8A427EF0DF02AEF0DF0FFFFBA
:101A500033EF0DF0FFFF000E016E000E026E000E60
:101A6000036E000E046EFFFF038E40EF0DF0FFFFCC
:101A7000000E016E000E026E000E036E000E046E6C
:101A8000FFFF0850800B0D1A08500824126E07AE95
:101A90004CEF0DF04FEF0DF0FFFF51EF0DF0FFFF9A
:101AA0001280FFFF1250D8B458EF0DF05BEF0DF02D
:101AB000FFFF72EF0DF0FFFF1228D8A462EF0DF0C8
:101AC00065EF0DF0FFFF6EEF0DF0FFFF000E056EEE
:101AD000000E066E000E076E000E086EFFFF078EEA
:101AE0007BEF0DF0FFFF000E056E000E066E000E80
:101AF000076E000E086EFFFF1250D8B482EF0DF093
:101B000085EF0DF0FFFF8FEF0DF0FFFF1350D8A40E
:101B10008CEF0DF08FEF0DF0FFFF9AEF0DF0FFFF50
:101B2000000E016E000E026E000E036E000E046EBB
:101B300054EF0FF0FFFF07500102F3CF18F0F4CF7E
:101B400019F018500E6E0F6A106A116A1950146E4F
:101B5000156A166A176A06500202F3CF18F0F4CF1E
:101B600019F018500E26000E0F22102211221950C3
:101B70001426000E15221622172205500302F3CF59
:101B800018F0F4CF19F018500E26000E0F22102274
:101B9000112219501426000E15221622172210C0E9
:101BA00011F00FC010F00EC00FF00E6A05500202C7
:101BB000F3CF18F0F4CF19F018500E2619500F2259
:101BC000000E1022000E112206500102F3CF18F071
:101BD000F4CF19F018500E2619500F22000E1022C3
:101BE000000E112210C011F00FC010F00EC00FF047
:101BF0000E6A05500102F3CF18F0F4CF19F0185017
:101C00000E2619500F22000E1022000E112207502E
:101C10000202F3CF18F0F4CF19F01850142619501F
:101C20001522000E1622000E172206500302F3CFD3
:101C300018F0F4CF19F01850142619501522000E80
:101C40001622000E172207500302F3CF18F0F4CF2C
:101C500019F01850096E19500A6E0B6A0C6A0BC005
:101C60000CF00AC00BF009C00AF0096A09501426EA
:101C70000A5015220B5016220C5017220EC009F0E4
:101C80000FC00AF010C00BF011C00CF0190E4FEF8E
:101C90000EF0FFFFD8900C320B320A320932FFFFF0
:101CA000E82E49EF0EF0095014260A5015220B5069
:101CB00016220C50172210C011F00FC010F00EC0E9
:101CC0000FF00E6A125013C009F00A6A0926000EBE
:101CD0000A22820E0924186EFF0E0A20196E8AEF5E
:101CE0000EF0FFFFD890143615361636173611AEA3
:101CF0007CEF0EF07FEF0EF0FFFF81EF0EF0FFFFA5
:101D00001480FFFFD8900E360F36103611361806A5
:101D1000D8A01906FFFF16AE90EF0EF093EF0EF06D
:101D2000FFFF71EF0EF0FFFF000E126E11AE9BEF82
:101D30000EF09EEF0EF0FFFFC9EF0EF0FFFFFF0E5B
:101D40000E14096EFF0E0F140A6EFF0E10140B6EA8
:101D50007F0E11140C6E09500A100B100C10D8B421
:101D6000B4EF0EF0B7EF0EF0FFFFBDEF0EF0FFFF88
:101D7000FFFF010E126EC9EF0EF0FFFF14A0C3EFBC
:101D80000EF0C6EF0EF0FFFFC9EF0EF0FFFFB8EF49
:101D90000EF0FFFF1250D8B4D0EF0EF0D3EF0EF0DC
:101DA000FFFFFAEF0EF0FFFF010E1426000E1522C2
:101DB0001622172217A0DFEF0EF0E2EF0EF0FFFF62
:101DC000FAEF0EF0FFFF14C009F015C00AF016C0BC
:101DD0000BF017C00CF00C340C320B320A32093203
:101DE00009C014F00AC015F00BC016F00CC017F0B3
:101DF000184A192AFFFF19BE06EF0FF0195009E122
:101E00001828D8A006EF0FF009EF0FF0FFFF14EF2E
:101E10000FF0FFFF000E146E000E156E800E166E92
:101E20007F0E176E49EF0FF0FFFF19BE23EF0FF083
:101E3000195006E11804D8B020EF0FF023EF0FF08F
:101E4000FFFF30EF0FF0FFFF000E146E000E156E57
:101E5000000E166E000E176E000E0D6E49EF0FF09D
:101E6000FFFF18C013F0FF0E1416FF0E15167F0E9D
:101E70001616000E171613A040EF0FF043EF0FF0E9
:101E8000FFFF45EF0FF0FFFF168EFFFFD8901330D6
:101E9000176EFFFF0D50171214C001F015C002F0AD
:101EA00016C003F017C004F0FFFF1200FFFFFFFF92
:101EB0001D50800B2A6E1D501D24316E1CAE63EF29
:101EC0000FF066EF0FF0FFFF68EF0FF0FFFF3180BC
:101ED000FFFF3150D8B46FEF0FF072EF0FF0FFFF3C
:101EE0008BEF0FF0FFFF3128D8A479EF0FF07CEFD4
:101EF0000FF0FFFF85EF0FF0FFFF000E1A6E000ED0
:101F00001B6E000E1C6E000E1D6EFFFF1C8E000E61
:101F10001D6E94EF0FF0FFFF000E1A6E000E1B6E89
:101F2000000E1C6E000E1D6EFFFF2150800B2A1A42
:101F300021502124326E20AEA0EF0FF0A3EF0FF05E
:101F4000FFFFA5EF0FF0FFFF3280FFFF3250D8B444
:101F5000ACEF0FF0AFEF0FF0FFFFC8EF0FF0FFFF98
:101F60003228D8A4B6EF0FF0B9EF0FF0FFFFC2EFA1
:101F70000FF0FFFF000E1E6E000E1F6E000E206E93
:101F8000000E216EFFFF208E000E216ED1EF0FF0AC
:101F9000FFFF000E1E6E000E1F6E000E206E000E64
:101FA000216EFFFF1E501F1020102110D8A4DBEF60
:101FB0000FF0DEEF0FF0FFFFF8EF0FF0FFFF000E66
:101FC0001A6E000E1B6E000E1C6E000E1D6E800E33
:101FD0001C127F0E1D12FFFF2A501D121AC01AF08C
:101FE0001BC01BF01CC01CF01DC01DF06DEF11F0DC
:101FF000FFFF3150D8A4FFEF0FF002EF10F0FFFF0A
:102000000DEF10F0FFFF000E1A6E000E1B6E000E9B
:102010001C6E000E1D6E6DEF11F0FFFF325031C0CF
:1020200022F0236A225E000E235A7F0E22242B6E9A
:10203000000E23202C6E1AC026F01BC027F01CC0F7
:1020400028F01DC029F0000E1A6E000E1B6E000E47
:102050001C6E000E1D6E000E2D6E000E2E6E000EFC
:102060002F6E000E306E000E326E79EF10F0FFFF13
:102070003250D8B43EEF10F041EF10F0FFFF5CEFAC
:1020800010F0FFFFD8902636273628362936D8900C
:102090001A361B361C361D3630AE51EF10F054EF99
:1020A00010F0FFFF56EF10F0FFFF1A80FFFFD890EF
:1020B0002D362E362F363036FFFF1E50265C1F5031
:1020C00027582050285821502958D8A06AEF10F0DE
:1020D0006DEF10F0FFFF77EF10F0FFFF308C1E5018
:1020E000265E1F50275A2050285A2150295AFFFF98
:1020F000322AFFFF190E326480EF10F083EF10F0E8
:10210000FFFF37EF10F0FFFF26502710281029108F
:10211000D8B48DEF10F090EF10F0FFFFADEF10F09E
:10212000FFFF2D80ADEF10F0FFFFD8901A361B3661
:102130001C361D3630AE9FEF10F0A2EF10F0FFFFFF
:10214000A4EF10F0FFFF1A80FFFFD8902D362E3637
:102150002F3630362B06D8A02C06FFFF1CAEB3EF6F
:1021600010F0B6EF10F0FFFF94EF10F0FFFF000E3D
:10217000326E30AEBEEF10F0C1EF10F0FFFFECEFAB
:1021800010F0FFFFFF0E2D14226EFF0E2E14236E93
:10219000FF0E2F14246E7F0E3014256E2250231054
:1021A00024102510D8B4D7EF10F0DAEF10F0FFFFAD
:1021B000E0EF10F0FFFFFFFF010E326EECEF10F0CA
:1021C000FFFF1AA0E6EF10F0E9EF10F0FFFFECEFD1
:1021D00010F0FFFFDBEF10F0FFFF3250D8B4F3EF49
:1021E00010F0F6EF10F0FFFF1DEF11F0FFFF010EF2
:1021F0001A26000E1B221C221D221DA002EF11F028
:1022000005EF11F0FFFF1DEF11F0FFFF1AC022F0E4
:102210001BC023F01CC024F01DC025F0253425323E
:1022200024322332223222C01AF023C01BF024C0F1
:102230001CF025C01DF02B4A2C2AFFFF2CBE29EFD5
:1022400011F02C5009E12B28D8A029EF11F02CEF28
:1022500011F0FFFF38EF11F0FFFF000E2C6E2B681E
:10226000000E1A6E000E1B6E000E1C6E000E1D6E10
:10227000FFFF2CBE47EF11F02C5006E12B04D8B025
:1022800044EF11F047EF11F0FFFF56EF11F0FFFFA1
:10229000000E2C6E000E2B6E000E1A6E000E1B6EC2
:1022A000000E1C6E000E1D6E000E2A6EFFFF2BC06E
:1022B00031F031A05EEF11F061EF11F0FFFF65EF3B
:1022C00011F0FFFF1C8E67EF11F0FFFF1C9EFFFF58
:1022D000D89031301D6EEBEF0FF0FFFF1200FFFFC3
:1022E000FFFF80C05DF081C05EF082C05FF083C000
:1022F00060F04BC05DF04CC05EF04DC05FF04EC072
:1023000060F05DC04FF05EC050F05FC051F060C043
:1023100052F0180E92EF11F0FFFFD8905232513266
:1023200050324F32FFFFE82E8CEF11F04F50576EB6
:10233000586A58BEA5EF11F058500AE1960E575C46
:10234000D8A0A5EF11F0A8EF11F0FFFFB3EF11F047
:10235000FFFF4BC04BF04CC04CF04DC04DF04EC099
:102360004EF060EF13F0FFFF5DC04FF05EC050F025
:102370005FC051F060C052F0200EC5EF11F0FFFFBA
:10238000D8905232513250324F32FFFFE82EBFEF19
:1023900011F04F50501051105210D8B4D2EF11F02C
:1023A000D5EF11F0FFFFE8EF11F0FFFF4BC001F098
:1023B0004CC002F04DC003F04EC004F0DAEC37F030
:1023C00001C04BF002C04CF003C04DF004C04EF011
:1023D000FFFF58BEF8EF11F0585007E17E0E575C32
:1023E000D8B0F5EF11F0F8EF11F0FFFF15EF12F094
:1023F000FFFF5DC001F05EC002F05FC003F060C08F
:1024000004F0000E056E000E066E000E076E000E44
:10241000086E05EC0DF001C04BF002C04CF003C09B
:102420004DF004C04EF060EF13F0FFFF000E376E6A
:10243000000E386E000E396E4B0E3A6E4BC033F004
:102440004CC034F04DC035F04EC036F031EC0AF0DF
:1024500033C059F034C05AF035C05BF036C05CF080
:10246000000E376E000E386E000E396ECB0E3A6ECF
:1024700059C033F05AC034F05BC035F05CC036F060
:1024800031EC0AF033C053F034C054F035C055F08D
:1024900036C056F053C043F054C044F055C045F028
:1024A00056C046F04BC047F04CC048F04DC049F014
:1024B0004EC04AF081EC38F043C061F044C062F095
:1024C00045C063F046C064F0000E016E000E026E5F
:1024D000000E036E3F0E046E61C005F062C006F090
:1024E00063C007F064C008F03EEC1FF0D8B07BEF8B
:1024F00012F07EEF12F0FFFFB5EF12F0FFFF4BC0BE
:1025000037F04CC038F04DC039F04EC03AF061C0E1
:1025100033F062C034F063C035F064C036F031ECA3
:102520000AF033C059F034C05AF035C05BF036C001
:102530005CF059C033F05AC034F05BC035F05CC079
:1025400036F0000E376E000E386E800E396EBF0EFC
:102550003A6E31EC0AF033C061F034C062F035C03D
:1025600063F036C064F022EF13F0FFFF000E016E3F
:10257000000E026E000E036EBF0E046E61C005F009
:1025800062C006F063C007F064C008F03EEC1FF0C4
:10259000D8A0CDEF12F0D0EF12F0FFFF07EF13F04D
:1025A000FFFF4BC037F04CC038F04DC039F04EC083
:1025B0003AF061C033F062C034F063C035F064C0FB
:1025C00036F031EC0AF033C059F034C05AF035C05F
:1025D0005BF036C05CF059C033F05AC034F05BC0D9
:1025E00035F05CC036F0000E376E000E386E800E8F
:1025F000396E3F0E3A6E31EC0AF033C061F034C0F0
:1026000062F035C063F036C064F022EF13F0FFFFD4
:1026100061C033F062C034F063C035F064C036F09E
:102620004BC037F04CC038F04DC039F04EC03AF0D6
:1026300031EC0AF033C061F034C062F035C063F0B1
:1026400036C064F0FFFF5DC04FF05EC050F05FC069
:1026500051F060C052F0200E34EF13F0FFFFD8901D
:102660005232513250324F32FFFFE82E2EEF13F02C
:102670004F50501051105210D8B441EF13F044EFA6
:1026800013F0FFFF57EF13F0FFFF61C001F062C0CE
:1026900002F063C003F064C004F0DAEC37F001C06C
:1026A00061F002C062F003C063F004C064F0FFFF99
:1026B00061C04BF062C04CF063C04DF064C04EF09E
:1026C000FFFF1200FFFFFFFF6EEC37F0BAEC37F0B0
:1026D00087EC3BF00DEC37F0D9EC36F0FAEC39F042
:1026E0000C0E2FEC37F0010E2FEC37F0800E2FEC94
:1026F00037F0AC0E036E7F0E046E39EC3AF0F28EBA
:10270000000E0101AC6F000EAB6F000EAA6F010E40
:10271000A96F000EA86F000EA76F000EA66F000E27
:10272000A56FFFFF0101A451D8B499EF13F09CEFFE
:1027300013F0FFFFF6EF13F0FFFFA251D8B4A3EFA1
:1027400013F0A6EF13F0FFFFC9EF13F0FFFFEBEC60
:1027500036F00101A06F750EA019D8A4B2EF13F0E6
:10276000B5EF13F0FFFFB9EF13F0FFFFA051FDEC41
:1027700036F0FFFF0101A051FDEC36F0AD0E036E07
:10278000010E046E0101A05146EC3DF0000E010166
:10279000A26FFFFF000E0001B86F010EB96F000EAF
:1027A000BB6FA00EBA6FFC0EBC6F7F0EBD6FD890D2
:1027B0000101AD35D96EAE35DA6EAF0ED926010EF8
:1027C000DA22DECFBEF0DDCFBFF084EC37F0010EB1
:1027D0002FEC37F0800E2FEC37F0000E036E010E59
:1027E000046E39EC3AF0000E0101A46FFFFF020EF7
:1027F000AD19AE11D8A4FFEF13F002EF14F0FFFFF4
:1028000006EF14F0FFFF8A8291EF13F0FFFF8A9228
:10281000AD51AE11D8A40FEF14F012EF14F0FFFF7A
:102820002DEF14F0FFFFA351D8A419EF14F01CEF03
:1028300014F0FFFF91EF13F0FFFFAD0E016E010EDC
:10284000026EC4EC3DF0FDEC36F0010E0101A36F09
:1028500091EF13F0FFFF91EF13F0FFFFAD05AE1105
:10286000D8A435EF14F038EF14F0FFFF49EF14F05F
:10287000FFFF000EAE6F020EAD6F010EA46FAD0E26
:10288000016E010E026EC4EC3DF0FDEC36F091EFEE
:1028900013F0FFFF030EAD19AE11D8A452EF14F0E0
:1028A00055EF14F0FFFF7FEF14F0FFFFA151D8B4F4
:1028B0005CEF14F05FEF14F0FFFF70EF14F0FFFF18
:1028C000000EAE6F020EAD6F010EA46FAD0E016E65
:1028D000010E026EC4EC3DF0FDEC36F091EF13F00A
:1028E000FFFFD5BE76EF14F079EF14F0FFFF2AEF6B
:1028F00014F0FFFFFFFF1EEC37F091EF13F0FFFF26
:10290000040EAD19AE11D8A488EF14F08BEF14F0BB
:10291000FFFF03EF15F0FFFF000EAA6F010EA96F76
:10292000000EA86F000EA76F000EA66F000EA56F19
:10293000DFEF14F0FFFF010E896EFFFFAB0E016E9B
:10294000010E026EA9C103F0AAC104F07DEC3AF0B9
:10295000A70E016E010E026EA90E036E010E046E2B
:10296000A50E056E010E066EC8EC3AF0A5C101F089
:10297000A6C102F0AB0E036E010E046E9EEC37F0A2
:10298000C80EFFFF00F0E82EFCD791EF13F0FFFF19
:10299000020E896E9DEF14F0FFFF040E896E9DEF0D
:1029A00014F0FFFF080E896E9DEF14F0FFFF000E7C
:1029B000AE6F020EAD6F010EA46F91EF13F0FFFF2B
:1029C000ABC17CF0ACC17DF07D50000AD8B4EBEF18
:1029D00014F091EF13F0FFFF7C50000AD8B49AEF87
:1029E00014F0010AD8B4C7EF14F0030AD8B4CCEF3E
:1029F00014F0010AD8B4D1EF14F0090AD8B4D6EF14
:102A000014F091EF13F0FFFF050EAD19AE11D8A42D
:102A10000CEF15F00FEF15F0FFFF2AEF14F0FFFF9A
:102A2000A151D8B416EF15F019EF15F0FFFF2AEFFA
:102A300015F0FFFF000EAE6F020EAD6F010EA46F1A
:102A4000AD0E016E010E026EC4EC3DF0FDEC36F0F1
:102A500091EF13F0FFFFD5BE30EF15F033EF15F017
:102A6000FFFF2AEF14F0FFFF7AEF14F03BEF00F0C6
:102A7000FFFF1EC036F01FC037F020C038F021C065
:102A800039F022C03AF023C03BF024C03CF025C00E
:102A90003DF03DBE4EEF15F052EF15F0FFFF010E79
:102AA00054EF15F0FFFF000EFFFF346E356A34500F
:102AB0003510D8B45EEF15F061EF15F0FFFF72EF3F
:102AC00015F0FFFF3D1E3C1E3B1E3A1E391E381EF0
:102AD000371E366C000E3722382239223A223B222A
:102AE0003C223D22FFFF000189BF79EF15F07CEF0A
:102AF00015F0FFFF7EEF15F0FFFF8A93FFFF89BF00
:102B00008DEF15F0895106E18805D8B08AEF15F0F0
:102B10008DEF15F0FFFF94EF15F0FFFF000E316E03
:102B2000010E306E99EF15F0FFFF88C030F089C0BC
:102B300031F0FFFF86C032F087C033F034503510DB
:102B4000D8A4A5EF15F0A8EF15F0FFFFB1EF15F031
:102B5000FFFF8AA5AEEF15F0B1EF15F0FFFFB5EF5F
:102B600015F0FFFF3206D8A03306FFFF000E3F6EC0
:102B70001F0E3E6E000EAD6F3BEF16F0FFFF3E06E0
:102B8000D8A03F068E0E3E24D96E000E3F20DA6E8E
:102B900036C001F037C002F038C003F039C004F08D
:102BA0003AC005F03BC006F03CC007F03DC008F05D
:102BB0000A0E096E000E0A6E000E0B6E000E0C6EF1
:102BC000000E0D6E000E0E6E000E0F6E000E106EDB
:102BD0003EEC1DF001C026F002C027F003C028F033
:102BE00004C029F005C02AF006C02BF007C02CF065
:102BF00008C02DF026C013F028C014F0A6EC38F061
:102C00001350300FDF6E3006D8A031063206D8A040
:102C1000330636C001F037C002F038C003F039C0C7
:102C200004F03AC005F03BC006F03CC007F03DC0E0
:102C300008F00A0E096E000E0A6E000E0B6E000EF2
:102C40000C6E000E0D6E000E0E6E000E0F6E000E5E
:102C5000106E64EC1CF001C036F002C037F003C007
:102C600038F004C039F005C03AF006C03BF007C0A8
:102C70003CF008C03DF0FFFF3FBE47EF16F03F506D
:102C800009E13E04D8A047EF16F04AEF16F0FFFF27
:102C900083EF16F0FFFF36503710381039103A1016
:102CA0003B103C103D10D8A458EF16F05BEF16F027
:102CB000FFFFBEEF15F0FFFF31BE6AEF16F0315097
:102CC00006E13004D8B067EF16F06AEF16F0FFFFA8
:102CD000BEEF15F0FFFF33BE76EF16F0335009E17B
:102CE0003204D8A076EF16F079EF16F0FFFF83EFED
:102CF00016F0FFFF00018AB380EF16F083EF16F0A5
:102D0000FFFFBEEF15F0FFFF34503510D8A48BEF56
:102D100016F08EEF16F0FFFF98EF16F0FFFF0001A0
:102D20008AA595EF16F098EF16F0FFFFBBEF16F0AF
:102D3000FFFF3E06D8A03F0634503510D8A4A3EFBD
:102D400016F0A6EF16F0FFFFADEF16F0FFFF000E36
:102D50002F6E2B0E2E6EB2EF16F0FFFF000E2F6EB1
:102D60002D0E2E6EFFFF8E0E3E24D96E000E3F20DC
:102D7000DA6E2EC0DFFFFFFF1CC011F01DC012F085
:102D80008E0E3E24136E000E3F20146E32C015F0DE
:102D900033C016F05EEC3CF011C01CF012C01DF008
:102DA0001200FFFFFFFF000189BFD9EF16F0DCEF33
:102DB00016F0FFFFDEEF16F0FFFF8A93FFFF89BFDB
:102DC000EDEF16F0895106E18805D8B0EAEF16F06C
:102DD000EDEF16F0FFFFF4EF16F0FFFF000E346E7C
:102DE000010E336EF9EF16F0FFFF88C033F089C093
:102DF00034F0FFFF86C035F087C036F08AA903EFB4
:102E000017F006EF17F0FFFF0BEF17F0FFFFFE0EB6
:102E10003526FF0E3622FFFF1EC037F01FC038F0E8
:102E200020C039F021C03AF022C03BF023C03CF072
:102E300024C03DF025C03EF0000E406E1F0E3F6ED8
:102E4000000EAD6FE9EF17F0FFFF3F06D8A0400678
:102E50000F0E3714416E426A42BE38EF17F04250EF
:102E60000AE10A0E415CD8A038EF17F03BEF17F0EB
:102E7000FFFF44EF17F0FFFF570E4124416E000E95
:102E80004220426E4BEF17F0FFFF300E4124416E9F
:102E9000000E4220426EFFFFBF0E276EFF0E286E0F
:102EA0002650296E2A6A2750292628502A222A507D
:102EB0000BE11A0E295CD8A060EF17F064EF17F051
:102EC000FFFF010E66EF17F0FFFF000EFFFF2F6EF2
:102ED000306A2F503010D8B470EF17F073EF17F03E
:102EE000FFFFA9EF17F0FFFF9F0E276EFF0E286E62
:102EF000200E4110296E000E42102A6E27502926FE
:102F000028502A222A500BE11A0E295CD8A08BEFF8
:102F100017F08FEF17F0FFFF010E91EF17F0FFFF93
:102F2000000EFFFF316E326A31503210D8B49BEF81
:102F300017F09EEF17F0FFFFA9EF17F0FFFF41C05A
:102F400007F042C008F08AEC39F007C041F008C031
:102F500042F0FFFF8E0E3F24D96E000E4020DA6E45
:102F600041C0DFFF3306D8A034063506D8A03606A8
:102F700037C027F038C028F039C029F03AC02AF00D
:102F80003BC02BF03CC02CF03DC02DF03EC02EF0DD
:102F9000050ED5EF17F0FFFFD8902E322D322C32D0
:102FA0002B322A32293228322732FFFFE82ECBEF8C
:102FB00017F027C037F028C038F029C039F02AC0F0
:102FC0003AF02BC03BF02CC03CF02DC03DF02EC0A1
:102FD0003EF0FFFF40BEF6EF17F040500AE1020E50
:102FE0003F5CD8A0F6EF17F0F9EF17F0FFFF32EFD4
:102FF00018F0FFFF3750381039103A103B103C10D2
:103000003D103E10D8A407EF18F00AEF18F0FFFFAC
:1030100024EF17F0FFFF34BE19EF18F0345006E12B
:103020003304D8B016EF18F019EF18F0FFFF24EFB3
:1030300017F0FFFF36BE25EF18F0365009E13504D2
:10304000D8A025EF18F028EF18F0FFFF32EF18F0A6
:10305000FFFF00018AB32FEF18F032EF18F0FFFFE7
:1030600024EF17F0FFFF00018AA939EF18F03CEFB9
:1030700018F0FFFF53EF18F0FFFF3F06D8A04006FF
:103080008E0E3F24D96E000E4020DA6E26C0DFFF80
:103090003F06D8A040068E0E3F24D96E000E402079
:1030A000DA6E300EDF6EFFFF1CC011F01DC012F093
:1030B0008E0E3F24136E000E4020146E35C015F0A6
:1030C00036C016F05EEC3CF011C01CF012C01DF0D2
:1030D0001200FFFFFFFF000189BF71EF18F074EFCE
:1030E00018F0FFFF76EF18F0FFFF8A93FFFF89BF0C
:1030F00085EF18F0895106E18805D8B082EF18F005
:1031000085EF18F0FFFF8CEF18F0FFFF000E2F6E19
:10311000010E2E6E91EF18F0FFFF88C02EF089C0CF
:103120002FF0FFFF86C030F087C031F01EC032F0B4
:103130001FC033F020C034F021C035F022C036F07B
:1031400023C037F024C038F025C039F0000E3B6EA4
:103150001F0E3A6E000EAD6F25EF19F0FFFF3A0615
:10316000D8A03B068E0E3A24D96E000E3B20DA6EB4
:1031700032C001F033C002F034C003F035C004F0B7
:1031800036C005F037C006F038C007F039C008F087
:103190000A0E096E000E0A6E000E0B6E000E0C6E0B
:1031A000000E0D6E000E0E6E000E0F6E000E106EF5
:1031B000D1EC3CF001C026F002C027F003C028F09B
:1031C00004C029F005C02AF006C02BF007C02CF07F
:1031D00008C02DF02650300FDF6E2E06D8A02F0627
:1031E0003006D8A0310632C001F033C002F034C03E
:1031F00003F035C004F036C005F037C006F038C023
:1032000007F039C008F00A0E096E000E0A6E000EB3
:103210000B6E000E0C6E000E0D6E000E0E6E000E8C
:103220000F6E000E106EC8EC3EF001C032F002C00E
:1032300033F003C034F004C035F005C036F006C0EA
:1032400037F007C038F008C039F0FFFF3A503B10A4
:10325000D8B42DEF19F030EF19F0FFFF69EF19F036
:10326000FFFF32503310341035103610371038103D
:103270003910D8A43EEF19F041EF19F0FFFFAEEF7F
:1032800018F0FFFF2FBE50EF19F02F5006E12E046B
:10329000D8B04DEF19F050EF19F0FFFFAEEF18F076
:1032A000FFFF31BE5CEF19F0315009E13004D8A0C6
:1032B0005CEF19F05FEF19F0FFFF69EF19F0FFFF06
:1032C00000018AB366EF19F069EF19F0FFFFAEEF66
:1032D00018F0FFFF1CC011F01DC012F08E0E3A2432
:1032E000136E000E3B20146E30C015F031C016F086
:1032F0005EEC3CF011C01CF012C01DF01200FFFF8C
:10330000FFFF000189BF87EF19F08AEF19F0FFFF77
:103310008CEF19F0FFFF8A93FFFF89BF9BEF19F035
:10332000895106E18805D8B098EF19F09BEF19F0A4
:10333000FFFFA2EF19F0FFFF000E2F6E010E2E6EA1
:10334000A7EF19F0FFFF88C02EF089C02FF0FFFF14
:1033500086C032F087C033F01EC034F01FC035F095
:1033600020C036F021C037F022C038F023C039F039
:1033700024C03AF025C03BF0000E3D6E1F0E3C6E9F
:10338000000EAD6F000E316E000E306E10EF1AF0B1
:10339000FFFF3C06D8A03D06070E3414306E316A9C
:1033A0008E0E3C24D96E000E3D20DA6E3050300F68
:1033B000DF6E2E06D8A02F063206D8A0330634C002
:1033C00026F035C027F036C028F037C029F038C0C5
:1033D0002AF039C02BF03AC02CF03BC02DF0040E7F
:1033E000FCEF19F0FFFFD8902D322C322B322A320D
:1033F0002932283227322632FFFFE82EF2EF19F069
:1034000026C034F027C035F028C036F029C037F088
:103410002AC038F02BC039F02CC03AF02DC03BF058
:10342000FFFF3DBE1CEF1AF03D5009E13C04D8A05F
:103430001CEF1AF01FEF1AF0FFFF58EF1AF0FFFF12
:103440003450351036103710381039103A103B1000
:10345000D8A42DEF1AF030EF1AF0FFFFC8EF19F0E3
:10346000FFFF2FBE3FEF1AF02F5006E12E04D8B019
:103470003CEF1AF03FEF1AF0FFFFC8EF19F0FFFF23
:1034800033BE4BEF1AF0335009E13204D8A04BEFB2
:103490001AF04EEF1AF0FFFF58EF1AF0FFFF00018D
:1034A0008AB355EF1AF058EF1AF0FFFFC8EF19F082
:1034B000FFFF00018AA95FEF1AF062EF1AF0FFFF29
:1034C0007CEF1AF0FFFF30503110D8B46AEF1AF0D9
:1034D0006DEF1AF0FFFF7CEF1AF0FFFF3C06D8A05B
:1034E0003D068E0E3C24D96E000E3D20DA6E300E65
:1034F000DF6E3206D8A03306FFFF1CC011F01DC0DE
:1035000012F08E0E3C24136E000E3D20146E32C05D
:1035100015F033C016F05EEC3CF011C01CF012C088
:103520001DF01200FFFFFFFF20EEC4F010EE0FF0C1
:10353000060EDBCFE3FFE806FCE20CC01AF00DC07C
:103540001BF01A501B10D8A4A8EF1AF0ABEF1AF01A
:10355000FFFFB0EF1AF0FFFF0F0E1A6E000E1B6E8A
:10356000FFFF1AC001F01BC002F0D2EC1FF001C037
:103570001EF002C01FF088C01CF089C01DF01DBEE7
:10358000C4EF1AF0C7EF1AF0FFFFE0EF1AF0FFFFE9
:103590001E501C5C1D50800A0E6E1F50800A0E5873
:1035A000D8A0D5EF1AF0D8EF1AF0FFFFDBEF1AF032
:1035B000FFFFE0EF1AF0FFFF1CC01EF01DC01FF060
:1035C000FFFF1EC01CF01FC01DF086C018F087C092
:1035D00019F000018AB1EFEF1AF0F2EF1AF0FFFFD5
:1035E00013EF1BF0FFFF02EF1BF0FFFF000E026E58
:1035F000200E016E0AC003F00BC004F0EDEC3BF0AE
:103600001E4A1F2AFFFF18501E5C1F50800A0E6EB4
:103610001950800A0E58D8A010EF1BF013EF1BF0C2
:10362000FFFFF5EF1AF0FFFF000E176E000E166E8B
:103630003AEF1BF0FFFF1AC0F6FF1BC0F7FFF86A56
:10364000050EF76404D00800FFFFF55005D0F6CF53
:10365000E1FFF7CFE2FFE7500E6E0E50016E026AF7
:103660000AC003F00BC004F0EDEC3BF01A4A1B2A31
:10367000164A172AFFFF1C50165C1750800A0E6E60
:103680001D50800A0E58D8A048EF1BF04BEF1BF0DE
:10369000FFFF1AEF1BF0FFFF00018AA152EF1BF0A2
:1036A00055EF1BF0FFFF76EF1BF0FFFF65EF1BF000
:1036B000FFFF000E026E200E016E0AC003F00BC069
:1036C00004F0EDEC3BF01E4A1F2AFFFF18501E5C71
:1036D0001F50800A0E6E1950800A0E58D8A073EF42
:1036E0001BF076EF1BF0FFFF58EF1BF0FFFF1EC033
:1036F0000AF01FC00BF01200FFFFFFFF000E166E56
:10370000000E156E000E0F6E000E0E6E8BEF1BF08E
:10371000FFFF084A092AFFFF010E146E08C0F6FFDA
:1037200009C0F7FF0800FFFFF550200AD8B49BEF4F
:103730001BF09EEF1BF0FFFFBFEF1BF0FFFFF70E2C
:103740000A6EFF0E0B6E08C0F6FF09C0F7FF0800F7
:10375000FFFFF5500C6E0D6A0A500C260B500D221F
:103760000D500AE1050E0C5CD8A0B9EF1BF0BCEFC0
:103770001BF0FFFFBFEF1BF0FFFF000E146EFFFFFB
:1037800014C010F0116A10501110D8A4CAEF1BF029
:10379000CDEF1BF0FFFF88EF1BF0FFFFDAEF1BF010
:1037A000FFFF000E0F6E010E0E6EFFFF084A092A82
:1037B00014EF1CF0FFFF08C0F6FF09C0F7FF080078
:1037C000FFFFF5500A6E0B6A0B50000AD8B4EBEFFE
:1037D0001BF014EF1CF0FFFF0A502B0AD8B4D5EFF2
:1037E0001BF0060AD8B4D0EF1BF014EF1CF0FFFF5B
:1037F00015C001F016C002F0000E046E0A0E036E32
:1038000059EC37F008C0F6FF09C0F7FF0800FFFFCA
:10381000F550015E000E025A300E0124156E000EA6
:103820000220166ED5EF1BF0FFFFD00E0A6EFF0EC2
:103830000B6E08C0F6FF09C0F7FF0800FFFFF55048
:103840000C6E0D6A0A500C260B500D220D500BE128
:103850000A0E0C5CD8A02FEF1CF033EF1CF0FFFF1A
:10386000010E35EF1CF0FFFF000EFFFF126E136A12
:1038700012501310D8A43FEF1CF042EF1CF0FFFFD2
:10388000F7EF1BF0FFFF0E500F10D8A44AEF1CF00B
:103890004DEF1CF0FFFF5CEF1CF0FFFF15C00AF0BE
:1038A00016C00BF00A1E0B1E0A4A0B2A0AC008F0AB
:1038B0000BC009F061EF1CF0FFFF15C008F016C047
:1038C00009F0FFFF1200FFFFFFFF000E126E10BE97
:1038D0006FEF1CF06CEF1CF0FFFF82EF1CF0FFFF9E
:1038E000101E0F1E0E1E0D1E0C1E0B1E0A1E096C36
:1038F000000E0A220B220C220D220E220F22102271
:10390000010E126EFFFF08BE8BEF1CF088EF1CF05B
:10391000FFFF9EEF1CF0FFFF081E071E061E051E80
:10392000041E031E021E016C000E0222032204224A
:103930000522062207220822010E121AFFFF20EE9E
:1039400013F0070EDE6AE806FDE209500A100B10BC
:103950000C100D100E100F101010D8B4B2EF1CF098
:10396000B5EF1CF0FFFF10EF1DF0FFFF010E116E11
:10397000C5EF1CF0FFFFD89009360A360B360C361F
:103980000D360E360F361036112AFFFF10AECBEF74
:103990001CF0CEEF1CF0FFFFBAEF1CF0FFFFFFFFA3
:1039A000D89013361436153616361736183619369B
:1039B0001A360950015C0A5002580B5003580C503B
:1039C00004580D5005580E5006580F500758105007
:1039D0000858D8A0EEEF1CF0F1EF1CF0FFFF03EF4A
:1039E0001DF0FFFF0950015E0A50025A0B50035AA6
:1039F0000C50045A0D50055A0E50065A0F50075AD3
:103A00001050085A1380FFFFD89010320F320E3238
:103A10000D320C320B320A320932112ECFEF1CF06C
:103A2000FFFF1250D8B417EF1DF01AEF1DF0FFFF83
:103A30002BEF1DF0FFFF1A1E191E181E171E161E53
:103A4000151E141E136C000E1422152216221722A6
:103A5000182219221A22FFFF13C001F014C002F02D
:103A600015C003F016C004F017C005F018C006F02A
:103A700019C007F01AC008F01200FFFFFFFF000E88
:103A8000126E08BE49EF1DF046EF1DF0FFFF5CEF20
:103A90001DF0FFFF081E071E061E051E041E031E46
:103AA000021E016C000E02220322042205220622BD
:103AB00007220822010E126EFFFF10BE65EF1DF0F7
:103AC00062EF1DF0FFFF76EF1DF0FFFF101E0F1ECF
:103AD0000E1E0D1E0C1E0B1E0A1E096C000E0A2265
:103AE0000B220C220D220E220F221022FFFF095062
:103AF0000A100B100C100D100E100F101010D8B46F
:103B000084EF1DF087EF1DF0FFFFD8EF1DF0FFFFE2
:103B1000010E116E97EF1DF0FFFFD89009360A369F
:103B20000B360C360D360E360F361036112AFFFFC7
:103B300010AE9DEF1DF0A0EF1DF0FFFF8CEF1DF00C
:103B4000FFFFFFFF0950015C0A5002580B50035859
:103B50000C5004580D5005580E5006580F50075879
:103B600010500858D8A0B7EF1DF0BAEF1DF0FFFFB6
:103B7000CBEF1DF0FFFF0950015E0A50025A0B50B7
:103B8000035A0C50045A0D50055A0E50065A0F5045
:103B9000075A1050085AFFFFD89010320F320E32D9
:103BA0000D320C320B320A320932112EA1EF1DF008
:103BB000FFFF1250D8B4DFEF1DF0E2EF1DF0FFFF62
:103BC000F3EF1DF0FFFF081E071E061E051E041E54
:103BD000031E021E016C000E022203220422052293
:103BE000062207220822FFFF01C001F002C002F0F6
:103BF00003C003F004C004F005C005F006C006F0E1
:103C000007C007F008C008F01200FFFFFFFF800E9A
:103C1000735CD8A00EEF1EF011EF1EF0FFFF1BEF3C
:103C20001EF0FFFF000E00018D6F4B0E8C6F706851
:103C30007168A0EF1EF0FFFF70C0B2F071C0B3F06A
:103C400073500AE1020E725CD8A029EF1EF02CEF2F
:103C50001EF0FFFF3AEF1EF0FFFFFF0E722400017F
:103C6000B66FFF0E7320B76F000EB56F000EB46F06
:103C700044EF1EF0FFFF000E0001B76F010EB66F9C
:103C8000000EB56F010EB46FFFFFB20E686E000E2E
:103C9000696E74C06AF075C06BF076C06CF077C066
:103CA0006DF0C2EC39F068C0B0F069C0B1F072508C
:103CB0007310D8B45EEF1EF061EF1EF0FFFF9BEFB4
:103CC0001EF0FFFF0001B1BF68EF1EF06BEF1EF0AA
:103CD000FFFF9BEF1EF0FFFFFF0E786EFF0E796E69
:103CE00072C07AF073C07BF078507A2679507B22CC
:103CF0007A50B05D7B50B159D8A081EF1EF084EFAF
:103D00001EF0FFFF8DEF1EF0FFFFFF0E7224AE6F5F
:103D1000FF0E7320AF6F92EF1EF0FFFFB0C0AEF04A
:103D2000B1C0AFF0FFFFAE517024D96EAF5171201A
:103D3000DA6E000EDF6EFFFFB0C070F0B1C071F040
:103D4000FFFF1200FFFFFFFF673468346E6E6E5096
:103D5000D8A4ADEF1EF0B0EF1EF0FFFFBCEF1EF0D9
:103D6000FFFFFFFF000E656E000E666E000E676EB1
:103D7000000E686E3BEF1FF0FFFF65C069F066C084
:103D80006AF067C06BF068C06CF0200ECEEF1EF0DA
:103D9000FFFFD8906C326B326A326932FFFFE82E37
:103DA000C8EF1EF069506D6E678EFF0E6516FF0E30
:103DB0006616FF0E6716000E6816960E6E5E6EBED5
:103DC000E7EF1EF0E4EF1EF0FFFF01EF1FF0FFFF33
:103DD0006E50800A970FD8B0F0EF1EF0F3EF1EF090
:103DE000FFFFF6EF1EF0FFFFB1EF1EF0FFFFD890D0
:103DF00068326732663265326E3EF6EF1EF01FEFB4
:103E00001FF0FFFF1F0E6E6408EF1FF00BEF1FF097
:103E1000FFFF15EF1FF0FFFFB1EF1EF0FFFFD8907F
:103E200065366636673668366E06FFFF6E50D8A474
:103E30001CEF1FF01FEF1FF0FFFF0EEF1FF0FFFF43
:103E40006D50D8B426EF1FF029EF1FF0FFFF32EFBF
:103E50001FF0FFFF681E671E661E656C000E66225F
:103E600067226822FFFF65C065F066C066F067C024
:103E700067F068C068F0FFFF1200FFFFFFFF000E51
:103E80000114096E000E02140A6E800E03140B6EEC
:103E90007F0E04140C6E09500A100B100C10D8A4DD
:103EA00054EF1FF057EF1FF0FFFF60EF1FF0FFFF11
:103EB000000E016E000E026E000E036E000E046E08
:103EC000FFFF000E0514096E000E06140A6E800E28
:103ED00007140B6E7F0E08140C6E09500A100B109D
:103EE0000C10D8A476EF1FF079EF1FF0FFFF82EFE0
:103EF0001FF0FFFF000E056E000E066E000E076E2F
:103F0000000E086EFFFF04AE88EF1FF08BEF1FF06E
:103F1000FFFF95EF1FF0FFFF016C021ED8B0022AD1
:103F2000031ED8B0032A800E0456FFFF08AE9BEF95
:103F30001FF09EEF1FF0FFFFA8EF1FF0FFFF056CC3
:103F4000061ED8B0062A071ED8B0072A800E0856CB
:103F5000FFFF000E011A000E021A000E031A800E57
:103F6000041A000E051A000E061A000E071A800E1B
:103F7000081A0550015C06500258075003580850B3
:103F80000458D8B0C6EF1FF0C9EF1FF0FFFFCDEF08
:103F90001FF0FFFFD890CFEF1FF0FFFFD880FFFF8B
:103FA0001200FFFFFFFF01C003F002C004F0DCEFCE
:103FB0001FF0FFFF014A022AFFFF01C0F6FF02C007
:103FC000F7FFF86A050EF76404D00800FFFFF5500C
:103FD00005D0F6CFE1FFF7CFE2FFE7500009D8A404
:103FE000F4EF1FF0F7EF1FF0FFFFD9EF1FF0FFFF17
:103FF0000350015C016E04500258026E1200FFFF74
:106DAC00FFFF1200FFFFFFFF9E9A9D8AF28C1200DC
:106DBC00FFFFFFFF016E01C083FF1200FFFF567F34
:106DCC00AF7EC27F857FEE7E257FFFFFAECF01F0C9
:0A6DDC00000EAE6E01501200FFFF22
:106DE700286E756C6C29000AD7A33CBD3786340022
:106DF700008041FFFF016E01C0ADFFFFFFACA2079E
:106E0700EF37F00AEF37F0FFFF01EF37F0FFFF1220
:106E170000FFFFFFFF000EBD6E0A0E6F6ED70E70EC
:106E27006EA30E716E3B0E726E26EC3BF0BD86BDF7
:106E3700841200FFFFFFFF000ED56E960ED66E98E8
:106E47000ED76EF28AD59CD59AD596D580D582D5A0
:106E570084D58E1200FFFFFFFF026E84820250DF8F
:106E6700EC36F08494C80EFFFF00F0E82EFCD784C0
:106E770092C80EFFFF00F0E82EFCD784821200FFB5
:106E8700FFFFFF026E84820250DFEC36F08484C875
:106E97000EFFFF00F0E82EFCD78492C80EFFFF001C
:106EA700F0E82EFCD784821200FFFFFFFF0150039A
:106EB70002F3CF05F0F4CF06F001500402F35006B9
:106EC7002602500302F350062605C001F006C00251
:106ED700F01200FFFFFFFF000E896E000E806E00AC
:106EE7000E926E000E8A6E000E816EF00E936E008B
:106EF7000E8B6E000E826E9494948E949C1200FFFB
:106F0700FFFFFFBE0E0001C26F000EC36FB8C07057
:106F1700F0B9C071F0BAC072F0BBC073F0BCC074F6
:106F2700F0BDC075F0C20E766E000E776E06EC1ED1
:106F3700F01200FFFFFFFF02BEABEF37F002500A6F
:106F4700E1140E015CD8A0ABEF37F0AEEF37F0FFDE
:106F5700FFB7EF37F0FFFF03C0D9FF04C0DAFF0A1E
:106F67000EDE6E000EDD6EFFFF1200FFFFFFFF5506
:106F77000E4B6E550E4C6EC80E4D6E410E4E6E701A
:106F8700EC11F04BC065F04CC066F04DC067F04E99
:106F9700C068F0A3EC1EF06550AF6EAC9CAC8AAC39
:106FA70098AC84AB8EAB9CAB881200FFFFFFFF0150
:106FB70050021003100410D8B4E4EF37F0E7EF37AE
:106FC700F0FFFFF0EF37F0FFFF000E011A000E028F
:106FD7001A000E031A800E041AFFFF01C001F00207
:106FE700C002F003C003F004C004F01200FFFFFF6B
:106FF700FFD00E036EFF0E046E01C005F002C0063F
:10700700F0035005260450062206500BE10A0E0530
:107017005CD8A011EF38F015EF38F0FFFF010E171D
:10702700EF38F0FFFF000EFFFF016E026A1200FF4C
:10703700FFFFFFBF0E036EFF0E046E01C005F002D7
:10704700C006F0035005260450062206500BE11A2D
:107057000E055CD8A032EF38F036EF38F0FFFF01AD
:107067000E38EF38F0FFFF000EFFFF016E026A12C5
:1070770000FFFFFFFF9F0E036EFF0E046E01C005AA
:10708700F002C006F0035005260450062206500BF6
:10709700E11A0E055CD8A053EF38F057EF38F0FF30
:1070A700FF010E59EF38F0FFFF000EFFFF016E02E0
:1070B7006A1200FFFFFFFF9F0E036EFF0E046E2094
:1070C7000E0110056E000E0210066E035005260411
:1070D70050062206500BE11A0E055CD8A076EF3851
:1070E700F07AEF38F0FFFF010E7CEF38F0FFFF007A
:1070F7000EFFFF016E026A1200FFFFFFFF000E473F
:107107001A000E481A000E491A800E4A1A43C03355
:10711700F044C034F045C035F046C036F047C037BC
:10712700F048C038F049C039F04AC03AF031EC0AAB
:10713700F033C043F034C044F035C045F036C046A4
:10714700F01200FFFFFFFF14BEB5EF38F014500632
:10715700E11304D8B0B2EF38F0B5EF38F0FFFFC451
:10716700EF38F0FFFF13C015F014C016F0151E1608
:107177001E154A162A15C013F016C014F0C9EF38A9
:10718700F0FFFF13C013F014C014F0FFFF1200FF4D
:10719700FFFFFF000E106E000E0F6EDFEF38F0FFDF
:1071A700FF0EC001F0026A0CC003F00DC004F0ED41
:1071B700EC3BF00F4A102AFFFF0F500A24D96E103C
:1071C700500B20DA6EDF500E6E0E50D8A4EEEF385B
:1071D700F0F1EF38F0FFFFD3EF38F0FFFF1200FFB9
:1071E700FFFFFF010E076E200E01180210D8B4FF33
:1071F700EF38F002EF39F0FFFF1EEF39F0FFFFF72E
:107207000E036EFF0E046E01C005F002C006F00308
:107217005005260450062206500AE1050E055CD8E3
:10722700A018EF39F01BEF39F0FFFF1EEF39F0FF21
:10723700FF000E076EFFFF07C001F0026A1200FF92
:10724700FFFFFF000186518711D8A42DEF39F030D9
:10725700EF39F0FFFF37EF39F0FFFF86C01FF087E8
:10726700C020F03EEF39F0FFFFFF0E86251F6EFFAF
:107277000E8721206EFFFF1EC08EF0000E8F6F1C41
:10728700C011F01DC012F08E0E136E000E146E1F8B
:10729700C015F020C016F05EEC3CF011C01CF012D7
:1072A700C01DF01200FFFFCA0EF66E6D0EF76E00DE
:1072B7000EF86E01EEAFF010EE0CF00900F5CFEE10
:1072C700FFE550E150FAE1E70EF66E6D0EF76E003E
:1072D7000EF86E00EEC4F010EE13F00900F5CFEED5
:1072E700FFE550E150FAE101EEA1F00E0EEE6AE87B
:1072F70006FDE100EE80F02E0EEE6AE806FDE17E67
:10730700907E92000EF86E000163EF13F0FFFF9F6F
:107317000E096EFF0E0A6E07C00BF008C00CF009CD
:10732700500B260A500C220C500BE11A0E0B5CD89E
:10733700A0A0EF39F0A4EF39F0FFFF010EA6EF3957
:10734700F0FFFF000EFFFF0D6E0E6A0D500E10D8F6
:10735700B4B0EF39F0B3EF39F0FFFFBAEF39F0FF10
:10736700FF5F0E0714076E086ABFEF39F0FFFF07CC
:10737700C007F008C008F0FFFF1200FFFFFFFF6A19
:10738700C06EF06BC06FF0000E0001856F000E84B9
:107397006FE2EF39F0FFFF68C043F069C044F06E59
:1073A7000E456E000E466E6CC047F06DC048F03D4E
:1073B700EC00F043500001842744508523FFFF6E03
:1073C700C0F6FF6FC0F7FF0800FFFFF5500009D8B0
:1073D700A4F0EF39F0F3EF39F0FFFFCEEF39F0FF0C
:1073E700FF84C068F085C069F01200FFFFFFFF83CC
:1073F7006A000E956E846A000E966E849284941EBF
:107407000E036E3C0EFFFFE82EFDD7032EFBD700C1
:10741700D08482380E2FEC37F01E0E036E3C0EFF21
:10742700FFE82EFDD7032EFBD700D0380E2FEC3701
:10743700F01E0E036E3C0EFFFFE82EFDD7032EFB5A
:10744700D700D0380E2FEC37F0080E2FEC37F00F9F
:107457000E2FEC37F0010E2FEC37F0380E2FEC37EC
:10746700F0800E2FEC37F01200FFFFFFFF000E0732
:107477006E59EF3AF0FFFF07500324056E000E0424
:1074870020066E05C0F6FF06C0F7FFF86A050EF77F
:107497006404D00800FFFFF55005D0F6CFE1FFF7F1
:1074A700CFE2FFE75044EC37F0072AFFFF0750030E
:1074B70024056E000E0420066E05C0F6FF06C0F711
:1074C700FFF86A050EF76404D00800FFFFF55005C2
:1074D700D0F6CFE1FFF7CFE2FFE7500009D8A47756
:1074E700EF3AF07AEF3AF0FFFF3EEF3AF0FFFF1284
:1074F70000FFFFFFFF01C0D9FF02C0DAFFDECF05A3
:10750700F0DDCF06F0035005260450062201C0D94E
:10751700FF02C0DAFF05C0DEFF06C0DDFF01C0D9EC
:10752700FF02C0DAFFDE2806E1DE28D8A49EEF3A84
:10753700F0A1EF3AF0FFFFACEF3AF0FFFF01C0D93F
:10754700FF02C0DAFF030EDE6E000EDD6EC5EF3AF6
:10755700F0FFFF01C0D9FF02C0DAFF040EDE18DE1C
:1075670010D8A4B9EF3AF0BCEF3AF0FFFFC5EF3AF5
:10757700F0FFFF01C0D9FF02C0DAFF000EDE6E0088
:107587000EDD6EFFFF1200FFFFFFFF01C0D9FF02F4
:10759700C0DAFFDECF07F0DDCF08F0010E072600C7
:1075A7000E082201C0D9FF02C0DAFF07C0DEFF08BC
:1075B700C0DDFF01C0D9FF02C0DAFF010EDBBEEF5D
:1075C700EF3AF0010EDB500AE1640EDE5CD8A0EF63
:1075D700EF3AF0F2EF3AF0FFFF23EF3BF0FFFF0146
:1075E700C0D9FF02C0DAFF000EDE6E000EDD6E05A9
:1075F700C0D9FF06C0DAFFDECF07F0DDCF08F00104
:107607000E0726000E082205C0D9FF06C0DAFF07BD
:10761700C0DEFF08C0DDFF03C0D9FF04C0DAFFDE0C
:10762700CF07F0DDCF08F0071E081E074A082A0318
:10763700C0D9FF04C0DAFF07C0DEFF08C0DDFFFFC7
:10764700FF1200FFFFFFFFBD0E056E370E066E86A9
:107657000E076E350E086ED3C001F0D4C002F0D508
:10766700C003F0D6C004F005EC0DF001C01EF00217
:10767700C01FF003C020F004C021F06F0E1A6E1275
:107687000E1B6E830E1C6E3A0E1D6E57EC0FF01A12
:10769700C065F01BC066F01CC067F01DC068F0A392
:1076A700EC1EF065C075F066C076F075C077F077B0
:1076B700A060EF3BF063EF3BF0FFFF67EF3BF0FFAE
:1076C700FFBD8869EF3BF0FFFFBD98FFFF77A26F13
:1076D700EF3BF072EF3BF0FFFF76EF3BF0FFFFBDB4
:1076E7008A78EF3BF0FFFFBD9AFFFF75C073F07616
:1076F700C074F0D89074327332D890743273327386
:1077070050BE6E1200FFFFFFFF000ECA6E000ECCC8
:107717006ECA84CA80CA82000E376E000E386E8029
:107727000E396EBF0E3A6EBD0E056E370E066E86AB
:107737000E076E360E086ED3C001F0D4C002F0D526
:10774700C003F0D6C004F005EC0DF001C01EF00236
:10775700C01FF003C020F004C021F00A0E1A6ED734
:107767000E1B6EA30E1C6E3C0E1D6E57EC0FF01A0F
:10777700C033F01BC034F01CC035F01DC036F031EB
:10778700EC0AF033C06FF034C070F035C071F036DA
:10779700C072F0000E056E000E066E800E076E407A
:1077A7000E086E6FC001F070C002F071C003F07276
:1077B700C004F005EC0DF001C065F002C066F003EF
:1077C700C067F004C068F0A3EC1EF06550CB6E12E2
:1077D70000FFFFFFFF03500410D8B4F5EF3BF0F8AC
:1077E700EF3BF0FFFF03EF3CF0FFFF03500410D81F
:1077F700A400EF3CF003EF3CF0FFFF09EF3CF0FF84
:10780700FF0150D6EC36F05BEF3CF0FFFF20EE04B3
:10781700F00350D9260450DA22DE50DE10D8B41710
:10782700EF3CF01AEF3CF0FFFF37EF3CF0FFFF2093
:10783700EE04F00350D9260450DA2210EE02F003CA
:1078470050E1260450E222DE50E65CE650800A0949
:107857006EDE50800A0958D8B034EF3CF037EF3C61
:10786700F0FFFF5BEF3CF0FFFF20EE02F00350D983
:10787700260450DA22DECF05F0DDCF06F003C0D9AB
:10788700FF04C0DAFFDECF07F0DDCF08F0055007B1
:1078970024D96E06500820DA6E01C0DFFF20EE0201
:1078A700F00350D9260450DA22DE2A000EDD22FF2B
:1078B700FF1200FFFFFFFF00018AA165EF3CF068A0
:1078C700EF3CF0FFFF73EF3CF0FFFF13C00AF0142B
:1078D700C00BF011C00CF012C00DF0CCEC38F0FF6B
:1078E700FF16BE79EF3CF07CEF3CF0FFFF83EF3CE7
:1078F700F0FFFF15C01AF016C01BF088EF3CF0FF31
:10790700FF000E1B6E000E1A6EFFFF000E196E00B1
:107917000E186E9CEF3CF0FFFF000E026E200E016A
:107927006E11C003F012C004F0EDEC3BF0184A19D9
:107937002AFFFF1A50185C1950800A176E1B5080D7
:107947000A1758D8A0AAEF3CF0ADEF3CF0FFFF8F25
:10795700EF3CF0FFFF00018AB1B4EF3CF0B7EF3C1A
:10796700F0FFFFC2EF3CF0FFFF13C00AF014C00B9B
:10797700F011C00CF012C00DF0CCEC38F0FFFF1383
:10798700C001F014C002F0D2EC1FF01A500124110C
:107997006E1B500220126E1200FFFFFFFF09500AF4
:1079A700100B100C100D100E100F101010D8B4DFA4
:1079B700EF3CF0E2EF3CF0FFFF33EF3DF0FFFF015C
:1079C7000E116EF2EF3CF0FFFFD89009360A360B26
:1079D700360C360D360E360F361036112AFFFF10CD
:1079E700AEF8EF3CF0FBEF3CF0FFFFE7EF3CF0FFBA
:1079F700FFFFFF0950015C0A5002580B5003580C57
:107A07005004580D5005580E5006580F500758107F
:107A1700500858D8A012EF3DF015EF3DF0FFFF26B4
:107A2700EF3DF0FFFF0950015E0A50025A0B500369
:107A37005A0C50045A0D50055A0E50065A0F50074B
:107A47005A1050085AFFFFD89010320F320E320DDD
:107A5700320C320B320A320932112EFCEF3CF0FFA6
:107A6700FF01C001F002C002F003C003F004C0042C
:107A7700F005C005F006C006F007C007F008C0080B
:107A8700F01200FFFFFFFF056E055044EC37F04191
:107A97000E0518D8A452EF3DF055EF3DF0FFFF60FB
:107AA700EF3DF0FFFF03C0D9FF04C0DAFF010EDE90
:107AB7006E000EDD6EC1EF3DF0FFFF420E0518D8D8
:107AC700A468EF3DF06BEF3DF0FFFF76EF3DF0FF71
:107AD700FF03C0D9FF04C0DAFF030EDE6E000EDD20
:107AE7006EC1EF3DF0FFFF440E0518D8A47EEF3DB1
:107AF700F081EF3DF0FFFF8CEF3DF0FFFF03C0D9B2
:107B0700FF04C0DAFF040EDE6E000EDD6EC1EF3D2E
:107B1700F0FFFF400E0518D8A494EF3DF097EF3D16
:107B2700F0FFFFA2EF3DF0FFFF03C0D9FF04C0DA6B
:107B3700FF050EDE6E000EDD6EC1EF3DF0FFFF4864
:107B47000E0518D8A4AAEF3DF0ADEF3DF0FFFFB842
:107B5700EF3DF0FFFF03C0D9FF04C0DAFF020EDEDE
:107B67006E000EDD6EC1EF3DF0FFFF03C0D9FF04CD
:107B7700C0DAFF000EDE6E000EDD6EFFFF1200FFA3
:107B8700FFFFFF01C0D9FF02C0DAFFDE50DE10D8C9
:107B9700A4D0EF3DF0D3EF3DF0FFFFD8EF3DF0FF6E
:107BA700FF000E056E40EF3EF0FFFF01C0D9FF0258
:107BB700C0DAFFDE04DE10D8A4E4EF3DF0E7EF3DC6
:107BC700F0FFFFECEF3DF0FFFF410E056E40EF3E8B
:107BD700F0FFFF01C0D9FF02C0DAFF030EDE18DE97
:107BE70010D8A4F9EF3DF0FCEF3DF0FFFF01EF3EA9
:107BF700F0FFFF420E056E40EF3EF0FFFF01C0D9D8
:107C0700FF02C0DAFF040EDE18DE10D8A40EEF3E26
:107C1700F011EF3EF0FFFF16EF3EF0FFFF440E05B9
:107C27006E40EF3EF0FFFF01C0D9FF02C0DAFF054B
:107C37000EDE18DE10D8A423EF3EF026EF3EF0FF4D
:107C4700FF2BEF3EF0FFFF400E056E40EF3EF0FFCB
:107C5700FF01C0D9FF02C0DAFF020EDE18DE10D81E
:107C6700A438EF3EF03BEF3EF0FFFF40EF3EF0FF62
:107C7700FF480E056E40EF3EF0FFFF05501200FF74
:107C8700FFFFFF01C008F002C009F003C00AF004BB
:107C9700C00BF00506D8A00606052806E10628D879
:107CA700A458EF3EF05BEF3EF0FFFF6AEF3EF0FFB8
:107CB700FF000E026E000E016EC5EF3EF0FFFF08DB
:107CC7004A092A0A4A0B2A0506D8A00606FFFF0812
:107CD700C0F6FF09C0F7FF0800FFFFF5500009D8FD
:107CE700B478EF3EF07BEF3EF0FFFFB0EF3EF0FFE2
:107CF700FF0AC0F6FF0BC0F7FF0800FFFFF55000B3
:107D070009D8B489EF3EF08CEF3EF0FFFFB0EF3EAD
:107D1700F0FFFF05500610D8B494EF3EF097EF3E02
:107D2700F0FFFFB0EF3EF0FFFF08C0F6FF09C0F716
:107D3700FF0800FFFFF5CF07F00AC0F6FF0BC0F7FB
:107D4700FF0800FFFFF5500718D8B4ADEF3EF0B0BD
:107D5700EF3EF0FFFF62EF3EF0FFFF08C0F6FF09BE
:107D6700C0F7FF0800FFFFF5CF07F00AC0F6FF0BCB
:107D7700C0F7FF0800FFFFF550075C016E026AD8E5
:107D8700A00206FFFF1200FFFFFFFF20EE11F00722
:107D97000EDE6AE806FDE209500A100B100C100D02
:107DA700100E100F101010D8B4DCEF3EF0DFEF3ECE
:107DB700F0FFFF3AEF3FF0FFFF010E196EEFEF3EC6
:107DC700F0FFFFD89009360A360B360C360D360E03
:107DD700360F361036192AFFFF10AEF5EF3EF0F8D2
:107DE700EF3EF0FFFFE4EF3EF0FFFFFFFFD89011FB
:107DF7003612361336143615361636173618360930
:107E070050015C0A5002580B5003580C5004580D8F
:107E17005005580E5006580F50075810500858D89C
:107E2700A018EF3FF01BEF3FF0FFFF2DEF3FF0FFF4
:107E3700FF0950015E0A50025A0B50035A0C5004B6
:107E47005A0D50055A0E50065A0F50075A1050082F
:107E57005A1180FFFFD89010320F320E320D320CBC
:107E6700320B320A320932192EF9EF3EF0FFFF11B9
:107E7700C001F012C002F013C003F014C004F015E3
:107E8700C005F016C006F017C007F018C008F012BA
:107E970000FFFF000000004B00001646BD37863587
:107EA700002474490024744A494E49545F504F5383
:107EB7003A20746865206A616220697320617420C2
:107EC70074686520696E697420706F736974696F6F
:107ED7006E2C2070726F63657373206973207374DF
:107EE700617274696E67004D4958494E475F535434
:107EF7004154494F4E3A20746865206A6162206890
:107F07006173207265616368656420746865206DBC
:107F17006978696E672073746174696F6E00504980
:107F2700434B5F55503A20746865206A6162206848
:107F37006173207265616368656420746865207089
:107F470069636B2075702073746174696F6E004983
:107F5700444C453A2077616974696E6720666F7291
:107F6700206A616220746F20626520706C616365AE
:107F77006420696E20696E697420706F73004F56B4
:107F8700454E3A207265616368696E67207468655B
:107F970020636F72726563742074656D70657261BA
:107FA700747572650044657669636520686173203E
:107FB7006265656E207265736574004D4F56454D59
:107FC700454E54006868580068686400686869002E
:107FD70068686E0068686F00686875006868780090
:107FE7007A58007A64007A69007A6E007A6F007AAC
:097FF70075007A78002573000082
:020000040020DA
:08000000FFFFFFFFFFFFFFFF00
:020000040030CA
:0E000000FF270F0EFF0185FF0FC00FE00F401E
:00000001FF
