:020000040000FA
:1000000000F03BEF00F0FFFFFFFF7F829DAA0BEFA8
:1000100000F00EEF00F0FFFF1EEF00F0FFFF9EAAC2
:1000200014EF00F017EF00F0FFFF1EEF00F0FFFFEE
:100030009E9A010E0101BA6F010EB86FFFFFF2AA7E
:1000400024EF00F027EF00F0FFFF37EF00F0FFFF95
:10005000F2A42DEF00F030EF00F0FFFF37EF00F0DB
:10006000FFFF000ED56EF294010E0101B76FFFFF86
:100070007F921100FFFF16EF34F0FFFF45C0D9FF5C
:1000800046C0DAFFDECFF6FFDDCFF7FF0800FFFF47
:10009000F550250AD8A44FEF00F052EF00F0FFFF13
:1000A00011EF0AF0FFFF45C0D9FF46C0DAFFDE2A94
:1000B000000EDD22000E0001876F000E866F86C0E5
:1000C0008AF087C08BF088698969000E506E000E37
:1000D0004F6EC0EF00F0FFFF00018A81FFFF45C0B7
:1000E000D9FF46C0DAFFDE2A000EDD22C0EF00F0A5
:1000F000FFFF00018A836EEF00F0FFFF00018A8599
:100100006EEF00F0FFFF00018A876EEF00F0FFFF47
:1001100000018A896EEF00F0FFFF000E506E010EA5
:100120004F6EC0EF00F0FFFF45C0D9FF46C0DAFFB9
:10013000DECFF6FFDDCFF7FF0800FFFFF550496E79
:100140004A6A4A50000AD8B4A8EF00F08CEF00F0D9
:10015000FFFF4950200AD8B482EF00F0030AD8B458
:1001600087EF00F0080AD8B47DEF00F0060AD8B493
:100170006BEF00F01D0AD8B478EF00F08CEF00F0C0
:10018000FFFF4F505010D8B4C8EF00F0CBEF00F095
:10019000FFFF93EF00F0FFFF00018AA1D2EF00F014
:1001A000D5EF00F0FFFFD7EF00F0FFFF8A93FFFFCE
:1001B00045C0D9FF46C0DAFFDECFF6FFDDCFF7FF3F
:1001C0000800FFFFF5502A0AD8A4E9EF00F0ECEF91
:1001D00000F0FFFF18EF01F0FFFF45C0D9FF46C058
:1001E000DAFFDE2A000EDD2247C0D9FF48C0DAFF61
:1001F000DFCF49F0020EDE26DFCF4AF0000EDD220F
:1002000049C0D9FF4AC0DAFFDECF86F0DDCF87F0E4
:1002100087BF10EF01F00DEF01F0FFFF63EF01F07A
:10022000FFFF8A81866D871FD8B0872B63EF01F0AF
:10023000FFFF45C0D9FF46C0DAFFDECF08F0DDCFB3
:1002400009F042EC3EF008C086F009C087F031EFBB
:1002500001F0FFFF45C0D9FF46C0DAFFDE2A000EDD
:10026000DD22FFFFD00E496EFF0E4A6E45C0D9FF5A
:1002700046C0DAFFDECFF6FFDDCFF7FF0800FFFF55
:10028000F5504B6E4C6A49504B264A504C224C500C
:100290000BE10A0E4B5CD8A050EF01F054EF01F0D7
:1002A000FFFF010E56EF01F0FFFF000EFFFF516E42
:1002B000526A51505210D8A460EF01F063EF01F080
:1002C000FFFF29EF01F0FFFF45C0D9FF46C0DAFF6D
:1002D000DECFF6FFDDCFF7FF0800FFFFF5502E0A57
:1002E000D8A475EF01F078EF01F0FFFF02EF02F004
:1002F000FFFF000E0001896F000E886F45C0D9FF17
:1003000046C0DAFFDE2A000EDD2245C0D9FF46C016
:10031000DAFFDECFF6FFDDCFF7FF0800FFFFF55075
:100320002A0AD8A496EF01F099EF01F0FFFFB7EF8A
:1003300001F0FFFF45C0D9FF46C0DAFFDE2A000EFC
:10034000DD2247C0D9FF48C0DAFFDFCF49F0020EF7
:10035000DE26DFCF4AF0000EDD2249C0D9FF4AC0B9
:10036000DAFFDECF88F0DDCF89F002EF02F0FFFF89
:1003700045C0D9FF46C0DAFFDECF08F0DDCF09F077
:1003800042EC3EF008C088F009C089F0D0EF01F0DF
:10039000FFFF45C0D9FF46C0DAFFDE2A000EDD228E
:1003A000FFFFD00E496EFF0E4A6E45C0D9FF46C012
:1003B000DAFFDECFF6FFDDCFF7FF0800FFFFF550D5
:1003C0004B6E4C6A49504B264A504C224C500BE124
:1003D0000A0E4B5CD8A0EFEF01F0F3EF01F0FFFF46
:1003E000010EF5EF01F0FFFF000EFFFF536E546AA0
:1003F00053505410D8A4FFEF01F002EF02F0FFFFBA
:10040000C8EF01F0FFFF45C0D9FF46C0DAFFDECFDD
:10041000F6FFDDCFF7FF0800FFFFF550630AD8A411
:1004200014EF02F017EF02F0FFFF3FEF02F0FFFFC3
:1004300045C0D9FF46C0DAFFDE2A000EDD2247C0E4
:10044000D9FF48C0DAFFDFCF49F0020EDE26DFCF4A
:100450004AF0000EDD2249C0D9FF4AC0DAFFDF5062
:100460005F6E43C01CF044C01DF05FC01EF0E3ECA3
:1004700033F01CC043F01DC044F02EEF0AF0FFFF24
:1004800045C0D9FF46C0DAFFDECF01F0DDCF02F074
:10049000CF0E036E7F0E046E000E066E030E056E09
:1004A000F5EC39F001500210D8B459EF02F05CEFCE
:1004B00002F0FFFF79EF02F0FFFF45C0D9FF46C011
:1004C000DAFFDECF01F0DDCF02F0D30E036E7F0E38
:1004D000046E000E066E030E056EF5EC39F0015049
:1004E0000210D8A476EF02F079EF02F0FFFFBBEF25
:1004F00002F0FFFF030E45C0D9FF46C0DAFFDE263B
:10050000000EDD2247C0D9FF48C0DAFFDFCF49F037
:10051000020EDE26DFCF4AF0000EDD2249C0D9FFF1
:100520004AC0DAFFDF50556E000E55BEFF0E566E04
:10053000576E586E596E5A6E5B6E5C6EFFFF43C00D
:100540001CF044C01DF055C01EF056C01FF057C02F
:1005500020F058C021F059C022F05AC023F05BC0EF
:1005600024F05CC025F0E2EC17F01CC043F01DC085
:1005700044F02EEF0AF0FFFF45C0D9FF46C0DAFF76
:10058000DECF01F0DDCF02F0D00E036E7F0E046EE1
:10059000000E066E020E056EF5EC39F001500210E9
:1005A000D8B4D5EF02F0D8EF02F0FFFFF5EF02F07C
:1005B000FFFF45C0D9FF46C0DAFFDECF01F0DDCF37
:1005C00002F0D40E036E7F0E046E000E066E020E55
:1005D000056EF5EC39F001500210D8A4F2EF02F0EC
:1005E000F5EF02F0FFFF1DEF03F0FFFF020E45C025
:1005F000D9FF46C0DAFFDE26000EDD2247C0D9FF54
:1006000048C0DAFFDFCF49F0020EDE26DFCF4AF026
:10061000000EDD2249C0D9FF4AC0DAFFDECF55F017
:10062000DDCF56F0000E56BEFF0E576E586E596E57
:100630005A6E5B6E5C6E9EEF02F0FFFF45C0D9FF05
:1006400046C0DAFFDECFF6FFDDCFF7FF0800FFFF81
:10065000F550640AD8B42FEF03F032EF03F0FFFF38
:1006600047EF03F0FFFF45C0D9FF46C0DAFFDECFFA
:10067000F6FFDDCFF7FF0800FFFFF550690AD8A4A9
:1006800044EF03F047EF03F0FFFF6EEF03F0FFFFCF
:1006900045C0D9FF46C0DAFFDE2A000EDD2247C082
:1006A000D9FF48C0DAFFDFCF49F0020EDE26DFCFE8
:1006B0004AF0000EDD2249C0D9FF4AC0DAFFDECF82
:1006C00055F0DDCF56F0000E56BEFF0E576E586E39
:1006D000596E5A6E5B6E5C6E9EEF02F0FFFF45C076
:1006E000D9FF46C0DAFFDECF01F0DDCF02F0EA0E1F
:1006F000036E7F0E046E000E066E020E056EF5ECA4
:1007000039F001500210D8B488EF03F08BEF03F0FA
:10071000FFFFA8EF03F0FFFF45C0D9FF46C0DAFF97
:10072000DECF01F0DDCF02F0ED0E036E7F0E046E22
:10073000000E066E020E056EF5EC39F00150021047
:10074000D8A4A5EF03F0A8EF03F0FFFFD1EF03F06B
:10075000FFFF020E45C0D9FF46C0DAFFDE26000EBD
:10076000DD2247C0D9FF48C0DAFFDFCF49F0020ED3
:10077000DE26DFCF4AF0000EDD2249C0D9FF4AC095
:10078000DAFFDECF4BF0DDCF4CF04BC055F04CC064
:1007900056F0576A586A596A5A6A5B6A5C6A9EEFF1
:1007A00002F0FFFF45C0D9FF46C0DAFFDECF01F0FF
:1007B000DDCF02F0DB0E036E7F0E046E000E066EC0
:1007C000030E056EF5EC39F001500210D8A4EBEFE2
:1007D00003F0EEEF03F0FFFF2FEF04F0FFFF030E37
:1007E00045C0D9FF46C0DAFFDE26000EDD2247C035
:1007F000D9FF48C0DAFFDFCF49F0020EDE26DFCF97
:100800004AF0000EDD2249C0D9FF4AC0DAFFDF50AE
:100810004B6E4B50606E616A626A636A646A656AB5
:10082000666A676AFFFF43C01CF044C01DF060C0E9
:100830001EF061C01FF062C020F063C021F064C0F0
:1008400022F065C023F066C024F067C025F02AECD2
:100850001CF01CC043F01DC044F02EEF0AF0FFFF57
:1008600045C0D9FF46C0DAFFDECF01F0DDCF02F090
:10087000DC0E036E7F0E046E000E066E020E056E19
:10088000F5EC39F001500210D8A449EF04F04CEF18
:1008900004F0FFFF75EF04F0FFFF020E45C0D9FF23
:1008A00046C0DAFFDE26000EDD2247C0D9FF48C071
:1008B000DAFFDFCF49F0020EDE26DFCF4AF0000E6E
:1008C000DD2249C0D9FF4AC0DAFFDECF4BF0DDCFD1
:1008D0004CF04BC060F04CC061F0626A636A646ABD
:1008E000656A666A676A12EF04F0FFFF45C0D9FFC8
:1008F00046C0DAFFDECFF6FFDDCFF7FF0800FFFFCF
:10090000F5506F0AD8A487EF04F08AEF04F0FFFFD8
:10091000B2EF04F0FFFF45C0D9FF46C0DAFFDE2A80
:10092000000EDD2247C0D9FF48C0DAFFDFCF49F013
:10093000020EDE26DFCF4AF0000EDD2249C0D9FFCD
:100940004AC0DAFFDECF4BF0DDCF4CF04BC060F099
:100950004CC061F0626A636A646A656A666A676A63
:1009600012EF04F0FFFF45C0D9FF46C0DAFFDECF2B
:1009700001F0DDCF02F0F30E036E7F0E046E000E69
:10098000066E020E056EF5EC39F001500210D8A487
:10099000CCEF04F0CFEF04F0FFFFF8EF04F0FFFF1F
:1009A000020E45C0D9FF46C0DAFFDE26000EDD226A
:1009B00047C0D9FF48C0DAFFDFCF49F0020EDE267C
:1009C000DFCF4AF0000EDD2249C0D9FF4AC0DAFF6E
:1009D000DECF4BF0DDCF4CF04BC060F04CC061F08F
:1009E000626A636A646A656A666A676A12EF04F03B
:1009F000FFFF45C0D9FF46C0DAFFDECF01F0DDCFF3
:100A000002F0D70E036E7F0E046E000E066E030E0C
:100A1000056EF5EC39F001500210D8A412EF05F084
:100A200015EF05F0FFFF4BEF05F0FFFF030E45C08C
:100A3000D9FF46C0DAFFDE26000EDD2247C0D9FF0F
:100A400048C0DAFFDFCF49F0020EDE26DFCF4AF0E2
:100A5000000EDD2249C0D9FF4AC0DAFFDECF5DF0CB
:100A6000DDCF5EF05DC0F6FF5EC0F7FFF86A050EF1
:100A7000F76404D084C0F5FF0C0006D0F6CFE1FF88
:100A8000F7CFE2FF84C0E7FFFFFF000E446E000EC9
:100A9000436E2EEF0AF0FFFF45C0D9FF46C0DAFFD4
:100AA000DECF01F0DDCF02F0D80E036E7F0E046EB4
:100AB000000E066E020E056EF5EC39F001500210C4
:100AC000D8A465EF05F068EF05F0FFFF9EEF05F095
:100AD000FFFF020E45C0D9FF46C0DAFFDE26000E3A
:100AE000DD2247C0D9FF48C0DAFFDFCF49F0020E50
:100AF000DE26DFCF4AF0000EDD2249C0D9FF4AC012
:100B0000DAFFDECF5DF0DDCF5EF05DC0F6FF5EC0E8
:100B1000F7FFF86A050EF76407D084C0F5FF0D00F3
:100B200085C0F5FF0C0008D0F6CFE1FFF7CFE2FF5C
:100B300084C0E6FF85C0E7FF44EF05F0FFFF45C036
:100B4000D9FF46C0DAFFDECFF6FFDDCFF7FF0800A2
:100B5000FFFFF5506E0AD8A4B0EF05F0B3EF05F033
:100B6000FFFFE8EF05F0FFFF45C0D9FF46C0DAFF01
:100B7000DE2A000EDD2247C0D9FF48C0DAFFDFCFF2
:100B800049F0020EDE26DFCF4AF0000EDD2249C01A
:100B9000D9FF4AC0DAFFDECF5DF0DDCF5EF05DC089
:100BA000F6FF5EC0F7FFF86A050EF76407D084C051
:100BB000F5FF0D0085C0F5FF0C0008D0F6CFE1FF72
:100BC000F7CFE2FF84C0E6FF85C0E7FF44EF05F002
:100BD000FFFF45C0D9FF46C0DAFFDECF01F0DDCF11
:100BE00002F0F00E036E7F0E046E000E066E020E13
:100BF000056EF5EC39F001500210D8A402EF06F0B2
:100C000005EF06F0FFFF3BEF06F0FFFF020E45C0C9
:100C1000D9FF46C0DAFFDE26000EDD2247C0D9FF2D
:100C200048C0DAFFDFCF49F0020EDE26DFCF4AF000
:100C3000000EDD2249C0D9FF4AC0DAFFDECF5DF0E9
:100C4000DDCF5EF05DC0F6FF5EC0F7FFF86A050E0F
:100C5000F76407D084C0F5FF0D0085C0F5FF0C00D8
:100C600008D0F6CFE1FFF7CFE2FF84C0E6FF85C0F2
:100C7000E7FF44EF05F0FFFF45C0D9FF46C0DAFFAC
:100C8000DECFF6FFDDCFF7FF0800FFFFF550700A5B
:100C9000D8A44DEF06F050EF06F0FFFF94EF06F0FA
:100CA000FFFF45C0D9FF46C0DAFFDE2A000EDD2275
:100CB00047C0D9FF48C0DAFFDFCF49F0020EDE2679
:100CC000DFCF4AF0000EDD2249C0D9FF4AC0DAFF6B
:100CD000DECF4BF0DDCF4CF04BC060F04CC061F08C
:100CE000626A636A646A656A666A676A43C01CF01E
:100CF00044C01DF060C01EF061C01FF062C020F053
:100D000063C021F064C022F065C023F066C024F007
:100D100067C025F0780E266E7CEC19F01CC043F0FD
:100D20001DC044F02EEF0AF0FFFF45C0D9FF46C0BA
:100D3000DAFFDECFF6FFDDCFF7FF0800FFFFF5504B
:100D4000730AD8A4A6EF06F0A9EF06F0FFFFD5EFCF
:100D500006F0FFFF45C0D9FF46C0DAFFDE2A000ECD
:100D6000DD2247C0D9FF48C0DAFFDFCF49F0020ECD
:100D7000DE26DFCF4AF0000EDD2249C0D9FF4AC08F
:100D8000DAFFDECF4DF0DDCF4EF043C00AF044C0B5
:100D90000BF04DC00CF04EC00DF039EC1EF00AC047
:100DA00043F00BC044F02EEF0AF0FFFF45C0D9FF1F
:100DB00046C0DAFFDECF01F0DDCF02F0DF0E036EBA
:100DC0007F0E046E000E066E030E056EF5EC39F014
:100DD00001500210D8A4EFEF06F0F2EF06F0FFFF8B
:100DE00033EF07F0FFFF030E45C0D9FF46C0DAFF1F
:100DF000DE26000EDD2247C0D9FF48C0DAFFDFCF74
:100E000049F0020EDE26DFCF4AF0000EDD2249C097
:100E1000D9FF4AC0DAFFDF504B6E4B50606E616AFB
:100E2000626A636A646A656A666A676AFFFF43C0EA
:100E30001CF044C01DF060C01EF061C01FF062C015
:100E400020F063C021F064C022F065C023F066C0CA
:100E500024F067C025F014EC1BF01CC043F01DC04B
:100E600044F02EEF0AF0FFFF45C0D9FF46C0DAFF7D
:100E7000DECF01F0DDCF02F0E00E036E7F0E046ED8
:100E8000000E066E020E056EF5EC39F001500210F0
:100E9000D8A44DEF07F050EF07F0FFFF79EF07F010
:100EA000FFFF020E45C0D9FF46C0DAFFDE26000E66
:100EB000DD2247C0D9FF48C0DAFFDFCF49F0020E7C
:100EC000DE26DFCF4AF0000EDD2249C0D9FF4AC03E
:100ED000DAFFDECF4BF0DDCF4CF04BC060F04CC002
:100EE00061F0626A636A646A656A666A676A16EFD5
:100EF00007F0FFFF45C0D9FF46C0DAFFDECFF6FF9F
:100F0000DDCFF7FF0800FFFFF550750AD8A48BEF7F
:100F100007F08EEF07F0FFFFB6EF07F0FFFF45C0C9
:100F2000D9FF46C0DAFFDE2A000EDD2247C0D9FF16
:100F300048C0DAFFDFCF49F0020EDE26DFCF4AF0ED
:100F4000000EDD2249C0D9FF4AC0DAFFDECF4BF0E8
:100F5000DDCF4CF04BC060F04CC061F0626A636A58
:100F6000646A656A666A676A16EF07F0FFFF45C044
:100F7000D9FF46C0DAFFDECF01F0DDCF02F0F60E7A
:100F8000036E7F0E046E000E066E020E056EF5EC0B
:100F900039F001500210D8A4D0EF07F0D3EF07F0DA
:100FA000FFFFFCEF07F0FFFF020E45C0D9FF46C070
:100FB000DAFFDE26000EDD2247C0D9FF48C0DAFF87
:100FC000DFCF49F0020EDE26DFCF4AF0000EDD2231
:100FD00049C0D9FF4AC0DAFFDECF4BF0DDCF4CF07D
:100FE0004BC060F04CC061F0626A636A646A656A13
:100FF000666A676A16EF07F0FFFF45C0D9FF46C073
:10100000DAFFDECF01F0DDCF02F0E30E036E7F0EDC
:10101000046E000E066E030E056EF5EC39F00150FD
:101020000210D8B416EF08F019EF08F0FFFF36EF02
:1010300008F0FFFF45C0D9FF46C0DAFFDECF01F060
:10104000DDCF02F0CB0E036E7F0E046E000E066E37
:10105000030E056EF5EC39F001500210D8A433EF01
:1010600008F036EF08F0FFFF8DEF08F0FFFF45C0F6
:10107000D9FF46C0DAFFDECF49F0DDCF4AF0020EDD
:101080004926000E4A2249C0F6FF4AC0F7FF080071
:10109000FFFFF5CF5FF0030E45C0D9FF46C0DAFF72
:1010A000DE26000EDD2247C0D9FF48C0DAFFDFCFC1
:1010B00049F0020EDE26DFCF4AF0000EDD2249C0E5
:1010C000D9FF4AC0DAFFDF504B6E4B50606E616A49
:1010D000626A636A646A656A666A676AFFFF43C038
:1010E0001CF044C01DF060C01EF061C01FF062C063
:1010F00020F063C021F064C022F065C023F066C018
:1011000024F067C025F05FC026F07CEC19F01CC00D
:1011100043F01DC044F02EEF0AF0FFFF45C0D9FF99
:1011200046C0DAFFDECF01F0DDCF02F0E40E036E41
:101130007F0E046E000E066E020E056EF5EC39F0A1
:1011400001500210D8B4A7EF08F0AAEF08F0FFFF93
:10115000C7EF08F0FFFF45C0D9FF46C0DAFFDECF7A
:1011600001F0DDCF02F0CC0E036E7F0E046E000E98
:10117000066E020E056EF5EC39F001500210D8A48F
:10118000C4EF08F0C7EF08F0FFFF04EF09F0FFFF1E
:1011900045C0D9FF46C0DAFFDECF49F0DDCF4AF0C7
:1011A000010E4926000E4A2249C0F6FF4AC0F7FF49
:1011B0000800FFFFF5CF5FF0020E45C0D9FF46C023
:1011C000DAFFDE26000EDD2247C0D9FF48C0DAFF75
:1011D000DFCF49F0020EDE26DFCF4AF0000EDD221F
:1011E00049C0D9FF4AC0DAFFDECF4BF0DDCF4CF06B
:1011F0004BC060F04CC061F0626A636A646A656A01
:10120000666A676A6EEF08F0FFFF45C0D9FF46C007
:10121000DAFFDECFF6FFDDCFF7FF0800FFFFF55066
:10122000780AD8B416EF09F019EF09F0FFFF2EEF96
:1012300009F0FFFF45C0D9FF46C0DAFFDECFF6FF59
:10124000DDCFF7FF0800FFFFF550580AD8A42BEFB9
:1012500009F02EEF09F0FFFF62EF09F0FFFF45C034
:10126000D9FF46C0DAFFDECFF6FFDDCFF7FF08007B
:10127000FFFFF5CF5FF045C0D9FF46C0DAFFDE2A99
:10128000000EDD2247C0D9FF48C0DAFFDFCF49F0AA
:10129000020EDE26DFCF4AF0000EDD2249C0D9FF64
:1012A0004AC0DAFFDECF4BF0DDCF4CF04BC060F030
:1012B0004CC061F0626A636A646A656A666A676AFA
:1012C0006EEF08F0FFFF45C0D9FF46C0DAFFDECF62
:1012D00001F0DDCF02F0F90E036E7F0E046E000EFA
:1012E000066E020E056EF5EC39F001500210D8B40E
:1012F0007CEF09F07FEF09F0FFFF9CEF09F0FFFFA3
:1013000045C0D9FF46C0DAFFDECF01F0DDCF02F0E5
:10131000E70E036E7F0E046E000E066E020E056E63
:10132000F5EC39F001500210D8A499EF09F09CEFC8
:1013300009F0FFFFD9EF09F0FFFF45C0D9FF46C014
:10134000DAFFDECF49F0DDCF4AF0010E4926000E6C
:101350004A2249C0F6FF4AC0F7FF0800FFFFF5CF59
:101360005FF0020E45C0D9FF46C0DAFFDE26000E50
:10137000DD2247C0D9FF48C0DAFFDFCF49F0020EB7
:10138000DE26DFCF4AF0000EDD2249C0D9FF4AC079
:10139000DAFFDECF4BF0DDCF4CF04BC060F04CC03D
:1013A00061F0626A636A646A656A666A676A6EEFB8
:1013B00008F0FFFF45C0D9FF46C0DAFFDECFF6FFD9
:1013C000DDCFF7FF0800FFFFF550250AD8A4EBEFAB
:1013D00009F0EEEF09F0FFFF07EF0AF0FFFF45C04D
:1013E000D9FF46C0DAFFDE2A000EDD22000E026EB3
:1013F000250E016E43C003F044C004F024EC38F025
:10140000FFFF000E446E010E436E2EEF0AF0FFFF49
:1014100045C0D9FF46C0DAFFDE2A000EDD2244EFC8
:1014200005F0FFFF45C0D9FF46C0DAFFDECFF6FF6B
:10143000DDCFF7FF0800FFFFF550016E026A43C0E1
:1014400003F044C004F024EC38F045C0D9FF46C096
:10145000DAFFDE2A000EDD2200EF0AF0FFFF1200A5
:10146000FFFFFFFFD6EC31F042EC32F0E2EC36F059
:1014700071EC31F008EC31F0D30E016E010E026E0A
:10148000000E046E000E036E000E066E000E056E5A
:10149000000E086E010E076EF50E096E010E0A6E43
:1014A0008A0E0B6E0F0E0C6E2CEC36F0C70E016E12
:1014B000010E026E000E046E000E036E000E066E2C
:1014C000000E056E000E086E010E076EF10E096E1D
:1014D000010E0A6E8A0E0B6E0F0E0C6E2CEC36F09F
:1014E000BB0E016E010E026E000E046E000E036E46
:1014F000000E066E000E056E000E086E010E076EE1
:10150000F50E096E010E0A6E8B0E0B6E0F0E0C6E31
:101510002CEC36F064EC35F00C0E97EC31F0010E4B
:1015200097EC31F0800E97EC31F0820E036E7F0E57
:10153000046EA3EC35F0F28E000E0101B66F000EC2
:10154000B56FFFFF0101BA51D8B4A9EF0AF0ACEFB3
:101550000AF0FFFFFFEF0AF0FFFFB851D8B4B3EF76
:101560000AF0B6EF0AF0FFFFF0EF0AF0FFFF14EC0D
:1015700031F00101A26FDF0E036E010E046EA25165
:10158000CBEC3CF0000E0101B86F000E0001C26F01
:10159000010EC36F000EC56FA00EC46FFC0EC66FA8
:1015A0007F0EC76FD8900101DF35D96EE035DA6E56
:1015B000E10ED926010EDA22DECFC8F0DDCFC9F068
:1015C000ECEC31F0010E97EC31F0800E97EC31F03D
:1015D000000E036E010E046EA3EC35F0F9EF0AF075
:1015E000FFFFDF0E016E010E026EE7EC35F050ECEE
:1015F00031F0FFFF000E0101BA6F000EB96FFFFF5F
:1016000041EC31F049EC34F00001D5BF14EF0BF0A0
:10161000D55107E1050ED45DD8B011EF0BF014EFF2
:101620000BF0FFFF21EF0BF0FFFF010E97EC31F005
:10163000800E97EC31F00A0E036E7F0E046EA3EC61
:1016400035F0FFFF020E0101DF19E011D8A42BEFE6
:101650000BF02EEF0BF0FFFF82EF0BF0FFFF898204
:10166000AF51B011D8B437EF0BF03AEF0BF0FFFFEA
:101670005AEF0BF0FFFFB2BF4AEF0BF0B25107E198
:10168000640EB15DD8B047EF0BF04AEF0BF0FFFFEF
:101690005AEF0BF0FFFF0A0E0001DD6FBE0EFFFFD9
:1016A000E82EFDD7DD2FFBD700F00101B14BB22BA7
:1016B000A1EF0AF0FFFFAF51B011D8B462EF0BF009
:1016C00065EF0BF0FFFF91EF0BF0FFFFB2BF72EF82
:1016D0000BF0B2510AE1640EB15DD8A072EF0BF0CD
:1016E00075EF0BF0FFFF91EF0BF0FFFF000EB06FF7
:1016F000000EAF6F000EE06F000EDF6F010EBA6FCD
:10170000A1EF0AF0FFFF8992DF51E011D8A48BEF1F
:101710000BF08EEF0BF0FFFF94EF0BF0FFFFA1EF4C
:101720000AF0FFFFA1EF0AF0FFFFDF05E011D8A4E8
:101730009CEF0BF09FEF0BF0FFFFAAEF0BF0FFFF0A
:10174000FFFF000E0101E06F020EDF6F010EBA6FA6
:10175000A1EF0AF0FFFF030EDF19E011D8A4B3EFE9
:101760000BF0B6EF0BF0FFFFBFEF0BF0FFFF000E2B
:10177000E06F090EDF6F010EBA6FA1EF0AF0FFFFF5
:10178000090EDF19E011D8A4C8EF0BF0CBEF0BF076
:10179000FFFF0EEF0CF0FFFFB751D8B4D2EF0BF004
:1017A000D5EF0BF0FFFFF5EF0BF0FFFFEFEC34F0A0
:1017B000D4C0D6F0D5C0D7F0B6EC37F00001D65182
:1017C000D711D8B4E6EF0BF0E9EF0BF0FFFF91EF84
:1017D0000BF0FFFF000E0101E06F020EDF6F010E44
:1017E000BA6F000EB76FA1EF0AF0FFFFD5BEFBEF97
:1017F0000BF0FEEF0BF0FFFF05EF0CF0FFFF32ECFC
:1018000031F083EC31F060EC31F0FFFFEFEC34F0BD
:10181000D4C0A0F1D5C0A1F1A1EF0AF0FFFF040EE2
:10182000DF19E011D8A417EF0CF01AEF0CF0FFFF4E
:1018300023EF0CF0FFFF000EE06F0A0EDF6F010ECA
:10184000BA6FA1EF0AF0FFFF0A0EDF19E011D8A46A
:101850002CEF0CF02FEF0CF0FFFF9AEF0CF0FFFFD6
:10186000030E0001DD6FEB0EFFFFE82EFDD7DD2F2D
:10187000FBD700D000F00101AD51AE11D8A443EF69
:101880000CF046EF0CF0FFFF55EF0CF0FFFFD30E0E
:10189000096E010E0A6E000E0C6E320E0B6E28ECF5
:1018A00035F009C0ADF10AC0AEF1FFFF0101AD5145
:1018B000AE11D8B45EEF0CF061EF0CF0FFFF7BEFE0
:1018C0000CF0FFFFAB51AC11D8A469EF0CF06CEF3A
:1018D0000CF0FFFF7BEF0CF0FFFFC70E096E010E4F
:1018E0000A6E000E0C6E640E0B6E28EC35F009C00B
:1018F000ABF10AC0ACF1FFFFADC101F0AEC102F027
:10190000ABC103F0ACC104F0C1EC31F001500210E6
:10191000D8B48DEF0CF090EF0CF0FFFFA1EF0AF0C0
:10192000FFFF000E0101E06F050EDF6F010EBA6FC1
:10193000A1EF0AF0FFFF050EDF19E011D8A4A3EF15
:101940000CF0A6EF0CF0FFFF16EF0DF0FFFF030EFB
:101950000001DD6FEB0EFFFFE82EFDD7DD2FFBD77B
:1019600000D000F0D30E096E010E0A6E000E0C6E50
:10197000640E0B6E28EC35F009500A10D8B4C3EF92
:101980000CF0C6EF0CF0FFFFD0EF0CF0FFFFD30E12
:10199000016E010E026E06EC32F00101B54BB62B62
:1019A000FFFF140E0101B519B611D8A4DAEF0CF03F
:1019B000DDEF0CF0FFFFEFEF0CF0FFFFB351B411C0
:1019C000D8A4E5EF0CF0E8EF0CF0FFFFEFEF0CF020
:1019D000FFFF000EE06F0F0EDF6FA1EF0AF0FFFFB9
:1019E000280EB519B611D8A4F8EF0CF0FBEF0CF0E7
:1019F000FFFF91EF0BF0FFFF000EB46F000EB36F0F
:101A0000000EE06F060EDF6F000EB66F000EB56FB2
:101A1000D30E016E010E026E06EC32F0C70E016E9F
:101A2000010E026E06EC32F0A1EF0AF0FFFF060E87
:101A3000DF19E011D8A41FEF0DF022EF0DF0FFFF2A
:101A400086EF0DF0FFFF030E0001DD6FEB0EFFFFD1
:101A5000E82EFDD7DD2FFBD700D000F00101A55106
:101A6000A611D8A436EF0DF039EF0DF0FFFF48EFC7
:101A70000DF0FFFFC70E096E010E0A6E000E0C6E10
:101A8000640E0B6E28EC35F009C0A5F10AC0A6F172
:101A9000FFFF0101A551A611D8B451EF0DF054EF8D
:101AA0000DF0FFFF6EEF0DF0FFFFA751A811D8A4B6
:101AB0005CEF0DF05FEF0DF0FFFF6EEF0DF0FFFF3D
:101AC000D30E096E010E0A6E000E0C6E320E0B6EF6
:101AD00028EC35F009C0A7F10AC0A8F1FFFFA5C1A5
:101AE00001F0A6C102F0A7C103F0A8C104F0C1EC47
:101AF00031F001500210D8B480EF0DF083EF0DF0FB
:101B0000FFFFA1EF0AF0FFFFA0EF0BF0FFFF0F0EAA
:101B1000DF19E011D8A48FEF0DF092EF0DF0FFFF69
:101B200040EF0EF0FFFF030E0001DD6FEB0EFFFF35
:101B3000E82EFDD7DD2FFBD700D000F00101A95121
:101B4000AA11D8A4A6EF0DF0A9EF0DF0FFFFBAEF90
:101B50000DF0FFFFBB0E096E010E0A6E000E0C6E3B
:101B6000C80E0B6E28EC35F009C0A9F10AC0AAF125
:101B7000A1EF0AF0FFFFB351B411D8A4C2EF0DF0EA
:101B8000C5EF0DF0FFFFF8EF0DF0FFFFA951AA110F
:101B9000D8B4CDEF0DF0D0EF0DF0FFFFF8EF0DF062
:101BA000FFFF010E97EC31F0800E97EC31F0980EAC
:101BB000036E7F0E046EA3EC35F0040E0001DE6FA1
:101BC000CF0EDD6FA50EFFFFE82EFDD7DD2FFBD773
:101BD000DE2FF9D700F0000E0101B46F010EB36FD4
:101BE000BB0E016E010E026E06EC32F0A1EF0AF0A0
:101BF000FFFFB351B411D8B400EF0EF003EF0EF0B5
:101C0000FFFF1FEF0EF0FFFFA351A411D8A40BEFAD
:101C10000EF00EEF0EF0FFFF1FEF0EF0FFFFBB0EFA
:101C2000096E010E0A6E000E0C6EC80E0B6E28ECCB
:101C300035F009C0A3F10AC0A4F1A1EF0AF0FFFF3B
:101C4000B351B411D8B427EF0EF02AEF0EF0FFFF16
:101C500091EF0BF0FFFFA351A411D8B432EF0EF0B7
:101C600035EF0EF0FFFF91EF0BF0FFFF000EE06F7E
:101C7000050EDF6F000EAA6F000EA96FA1EF0AF02C
:101C8000FFFF070EDF19E011D8A449EF0EF04CEF6B
:101C90000EF0FFFF55EF0EF0FFFF000EE06F0B0E92
:101CA000DF6F010EBA6FA1EF0AF0FFFF0B0EDF1915
:101CB000E011D8A45EEF0EF061EF0EF0FFFF96EF9B
:101CC0000EF0FFFFB751D8B468EF0EF06BEF0EF0D7
:101CD000FFFF88EF0EF0FFFF010EBA6F000EE06FFE
:101CE000020EDF6F000EB06F010EAF6F000EB26F0D
:101CF000000EB16F010E97EC31F0800E97EC31F0D1
:101D00005D0E036E7F0E046EA3EC35F0A1EF0AF0BA
:101D1000FFFFD5BE8EEF0EF091EF0EF0FFFF91EFBB
:101D20000BF0FFFF60EC31F0A1EF0AF0FFFF0C0EAB
:101D3000DF19E011D8A49FEF0EF0A2EF0EF0FFFF25
:101D400091EF0BF0FFFF000EE06F000EDF6F010E52
:101D5000BA6FD59EA1EF0AF03BEF00F0FFFF625093
:101D6000800B6B6E625062246D6E61AEBAEF0EF046
:101D7000BDEF0EF0FFFFBFEF0EF0FFFF6D80FFFF26
:101D80006D50D8B4C6EF0EF0C9EF0EF0FFFFE2EFD2
:101D90000EF0FFFF6D28D8A4D0EF0EF0D3EF0EF0B9
:101DA000FFFFDCEF0EF0FFFF000E5F6E000E606EB7
:101DB000000E616E000E626EFFFF618E000E626E9D
:101DC000EBEF0EF0FFFF000E5F6E000E606E000E78
:101DD000616E000E626EFFFF6650800B6C6E6B5082
:101DE0006C18D8B4F6EF0EF0F9EF0EF0FFFFFBEF32
:101DF0000EF0FFFF6B8CFFFF665066246C6E65AEC5
:101E000004EF0FF007EF0FF0FFFF09EF0FF0FFFFF8
:101E10006C80FFFF6C50D8B410EF0FF013EF0FF091
:101E2000FFFF2CEF0FF0FFFF6C28D8A41AEF0FF084
:101E30001DEF0FF0FFFF26EF0FF0FFFF000E636EA8
:101E4000000E646E000E656E000E666EFFFF658EFE
:101E5000000E666E35EF0FF0FFFF000E636E000E92
:101E6000646E000E656E000E666EFFFF6D506C5C5A
:101E7000D8B03DEF0FF040EF0FF0FFFF6BEF0FF02A
:101E8000FFFF6BAC46EF0FF049EF0FF0FFFF4CEF99
:101E90000FF0FFFF800E6B1AFFFF6DC06EF06CC07D
:101EA0006DF06EC06CF05FC06EF063C05FF06EC02E
:101EB00063F060C06EF064C060F06EC064F061C03A
:101EC0006EF065C061F06EC065F062C06EF066C015
:101ED00062F06EC066F0FFFF000E6E6E6D506CC05B
:101EE00067F0686A675E000E685A68BE81EF0FF09F
:101EF00068500AE11A0E675CD8A081EF0FF084EFFA
:101F00000FF0FFFFC7EF0FF0FFFF5F506010611091
:101F10006210D8A48EEF0FF092EF0FF0FFFF010ECA
:101F200094EF0FF0FFFF000EFFFF6E6E000E5F6E6E
:101F3000000E606E000E616E000E626E6CC06DF081
:101F4000D2EF0FF0FFFF6EA0A8EF0FF0ABEF0FF096
:101F5000FFFFB2EF0FF0FFFFD8906E3001096E6EF9
:101F6000B5EF0FF0FFFFD8906E32FFFF5FA0BBEF21
:101F70000FF0BEEF0FF0FFFFC0EF0FF0FFFF6E8E10
:101F8000FFFF62346232613260325F326D2AFFFFDE
:101F90006C506D5CD8A0CFEF0FF0D2EF0FF0FFFFC9
:101FA000A2EF0FF0FFFF6BBCD8EF0FF0DBEF0FF0ED
:101FB000FFFF28EF10F0FFFF6D50D8A4E2EF0FF005
:101FC000E5EF0FF0FFFFF0EF0FF0FFFF000E5F6E89
:101FD000000E606E000E616E000E626E7FEF11F0FB
:101FE000FFFF63505F266450602265506122665097
:101FF000622262A0FEEF0FF001EF10F0FFFFCCEFC6
:1020000010F0FFFF6EA007EF10F00AEF10F0FFFFD7
:1020100011EF10F0FFFFD8906E3001096E6E14EFD3
:1020200010F0FFFFD8906E32FFFF5FA01AEF10F0A4
:102030001DEF10F0FFFF1FEF10F0FFFF6E8EFFFF90
:1020400062346232613260325F326D2ACCEF10F05E
:10205000FFFF63505F5C6450605865506158625088
:10206000800A676E6650800A6758D8B03AEF10F061
:102070003DEF10F0FFFF6BEF10F0FFFF5F50635C70
:10208000676E60506458686E61506558696E625042
:1020900066586A6EFF0E67245F6EFF0E6820606EE2
:1020A000FF0E6920616EFF0E6A20626E800E6B1A51
:1020B0006E6C6E50D8A45FEF10F062EF10F0FFFF6F
:1020C00074EF10F0FFFF010E5F26000E6022612208
:1020D000622274EF10F0FFFF63505F5E6450605A3D
:1020E0006550615A6650625AFFFF5F506010611080
:1020F0006210D8A47EEF10F081EF10F0FFFFC3EF65
:1021000010F0FFFF6E50D8A488EF10F08BEF10F0A6
:10211000FFFFC3EF10F0FFFF000E5F6E000E606E5A
:10212000000E616E000E626E7FEF11F0FFFFD8901F
:102130005F366036613662366EAEA1EF10F0A4EF06
:1021400010F0FFFFA6EF10F0FFFF5F80FFFF6EA013
:10215000ACEF10F0AFEF10F0FFFFB4EF10F0FFFFA7
:10216000D8806E36B7EF10F0FFFFD8906E36FFFFC5
:102170006D50D8B4BEEF10F0C1EF10F0FFFFC3EF09
:1021800010F0FFFF6D06FFFF61AEC9EF10F0CCEF5E
:1021900010F0FFFF96EF10F0FFFF000E6C6E6EAEBA
:1021A000D4EF10F0D7EF10F0FFFFF6EF10F0FFFFC5
:1021B0006EC067F07F0E6716D8B4E1EF10F0E4EF61
:1021C00010F0FFFFEAEF10F0FFFFFFFF010E6C6E53
:1021D000F6EF10F0FFFF5FA0F0EF10F0F3EF10F05C
:1021E000FFFFF6EF10F0FFFFE5EF10F0FFFF6C5080
:1021F000D8B4FDEF10F000EF11F0FFFF30EF11F059
:10220000FFFF010E5F26000E60226122622262A0A3
:102210000CEF11F00FEF11F0FFFF30EF11F0FFFFA7
:102220005FC067F060C068F061C069F062C06AF0CA
:102230006A346A3269326832673267C05FF068C0F8
:1022400060F069C061F06AC062F06D28D8B42BEF0D
:1022500011F02EEF11F0FFFF30EF11F0FFFF6D2AAC
:10226000FFFF6D28D8B437EF11F03AEF11F0FFFF00
:1022700044EF11F0FFFF6D50D8A441EF11F044EF8F
:1022800011F0FFFF59EF11F0FFFF000E5F6E000E1F
:10229000606E000E616E000E626E6D50D8A453EF3A
:1022A00011F056EF11F0FFFF59EF11F0FFFF000E94
:1022B0006B6EFFFF6DA05FEF11F062EF11F0FFFF9B
:1022C00066EF11F0FFFF618E68EF11F0FFFF619E76
:1022D000FFFFD8906D30626E6BAE71EF11F074EF4E
:1022E00011F0FFFF76EF11F0FFFF628EFFFF5FC07E
:1022F0005FF060C060F061C061F062C062F0FFFF3B
:102300001200FFFFFFFF3050800B396E3050302439
:102310003F6E2FAE8EEF11F091EF11F0FFFF93EFB4
:1023200011F0FFFF3F80FFFF3F50D8B49AEF11F04C
:102330009DEF11F0FFFFB4EF11F0FFFF3F28D8A48D
:10234000A4EF11F0A7EF11F0FFFFB0EF11F0FFFFC6
:10235000000E2D6E000E2E6E000E2F6E000E306ED3
:10236000FFFF2F8EBDEF11F0FFFF000E2D6E000E50
:102370002E6E000E2F6E000E306EFFFF3450800B5D
:10238000391A345034243E6E33AEC9EF11F0CCEF1D
:1023900011F0FFFFCEEF11F0FFFF3E80FFFF3E5038
:1023A000D8B4D5EF11F0D8EF11F0FFFFEFEF11F037
:1023B000FFFF3E28D8A4DFEF11F0E2EF11F0FFFF9E
:1023C000EBEF11F0FFFF000E316E000E326E000ECB
:1023D000336E000E346EFFFF338EF8EF11F0FFFF07
:1023E000000E316E000E326E000E336E000E346E33
:1023F000FFFF3E50D8B4FFEF11F002EF12F0FFFFE5
:102400000CEF12F0FFFF3F50D8A409EF12F00CEFD1
:1024100012F0FFFF17EF12F0FFFF000E2D6E000EFF
:102420002E6E000E2F6E000E306ED1EF13F0FFFFF8
:1024300033502D02F3CF44F0F4CF45F044503A6EC0
:102440003B6A3C6A3D6A4550406E416A426A436A53
:1024500032502E02F3CF44F0F4CF45F044503A26E8
:10246000000E3B223C223D2245504026000E4122D8
:102470004222432231502F02F3CF44F0F4CF45F0F3
:1024800044503A26000E3B223C223D224550402635
:10249000000E4122422243223CC03DF03BC03CF0B2
:1024A0003AC03BF03A6A31502E02F3CF44F0F4CFF9
:1024B00045F044503A2645503B22000E3C22000E87
:1024C0003D2232502D02F3CF44F0F4CF45F044507A
:1024D0003A2645503B22000E3C22000E3D223CC0D5
:1024E0003DF03BC03CF03AC03BF03A6A31502D021F
:1024F000F3CF44F0F4CF45F044503A2645503B2208
:10250000000E3C22000E3D2233502E02F3CF44F049
:10251000F4CF45F04450402645504122000E42225F
:10252000000E432232502F02F3CF44F0F4CF45F097
:102530004450402645504122000E4222000E4322C4
:1025400033502F02F3CF44F0F4CF45F04450356EB2
:102550004550366E376A386A37C038F036C037F0C3
:1025600035C036F0356A3550402636504122375056
:102570004222385043223AC035F03BC036F03CC0CE
:1025800037F03DC038F0190ECCEF12F0FFFFD890B5
:102590003832373236323532FFFFE82EC6EF12F0CE
:1025A000355040263650412237504222385043227F
:1025B0003CC03DF03BC03CF03AC03BF03A6A3E5074
:1025C0003FC035F0366A3526000E3622820E35249D
:1025D000446EFF0E3620456E07EF13F0FFFFD890D4
:1025E00040364136423643363DAEF9EF12F0FCEF4D
:1025F00012F0FFFFFEEF12F0FFFF4080FFFFD890C8
:102600003A363B363C363D364406D8A04506FFFFF9
:1026100042AE0DEF13F010EF13F0FFFFEEEF12F0EC
:10262000FFFF000E3E6E3DAE18EF13F01BEF13F0F0
:10263000FFFF46EF13F0FFFFFF0E3A14356EFF0E5B
:102640003B14366EFF0E3C14376E7F0E3D14386E11
:102650003550361037103810D8B431EF13F034EF4E
:1026600013F0FFFF3AEF13F0FFFFFFFF010E3E6E86
:1026700046EF13F0FFFF40A040EF13F043EF13F0DD
:10268000FFFF46EF13F0FFFF35EF13F0FFFF3E5063
:10269000D8B44DEF13F050EF13F0FFFF77EF13F0C6
:1026A000FFFF010E4026000E41224222432243A09A
:1026B0005CEF13F05FEF13F0FFFF77EF13F0FFFF16
:1026C00040C035F041C036F042C037F043C038F06A
:1026D0003834383237323632353235C040F036C0D1
:1026E00041F037C042F038C043F0444A452AFFFF6A
:1026F00045BE83EF13F0455009E14428D8A083EF8D
:1027000013F086EF13F0FFFF91EF13F0FFFF000EC1
:10271000406E000E416E800E426E7F0E436EC6EF1D
:1027200013F0FFFF45BEA0EF13F0455006E144044F
:10273000D8B09DEF13F0A0EF13F0FFFFADEF13F053
:10274000FFFF000E406E000E416E000E426E000E46
:10275000436E000E396EC6EF13F0FFFF44C03FF02A
:10276000FF0E4016FF0E41167F0E4216000E431656
:102770003FA0BDEF13F0C0EF13F0FFFFC2EF13F067
:10278000FFFF428EFFFFD8903F30436EFFFF39506E
:10279000431240C02DF041C02EF042C02FF043C084
:1027A00030F0FFFF1200FFFFFFFF4950800B566E15
:1027B000495049245D6E48AEE0EF13F0E3EF13F0AB
:1027C000FFFFE5EF13F0FFFF5D80FFFF5D50D8B422
:1027D000ECEF13F0EFEF13F0FFFF08EF14F0FFFF43
:1027E0005D28D8A4F6EF13F0F9EF13F0FFFF02EF26
:1027F00014F0FFFF000E466E000E476E000E486E8E
:10280000000E496EFFFF488E000E496E11EF14F066
:10281000FFFF000E466E000E476E000E486E000E63
:10282000496EFFFF4D50800B561A4D504D245E6E81
:102830004CAE1DEF14F020EF14F0FFFF22EF14F068
:10284000FFFF5E80FFFF5E50D8B429EF14F02CEF3D
:1028500014F0FFFF45EF14F0FFFF5E28D8A433EF1C
:1028600014F036EF14F0FFFF3FEF14F0FFFF000EFF
:102870004A6E000E4B6E000E4C6E000E4D6EFFFF4A
:102880004C8E000E4D6E4EEF14F0FFFF000E4A6EA0
:10289000000E4B6E000E4C6E000E4D6EFFFF4A5048
:1028A0004B104C104D10D8A458EF14F05BEF14F0FF
:1028B000FFFF75EF14F0FFFF000E466E000E476E2F
:1028C000000E486E000E496E800E48127F0E4912AF
:1028D000FFFF5650491246C046F047C047F048C077
:1028E00048F049C049F0EAEF15F0FFFF5D50D8A469
:1028F0007CEF14F07FEF14F0FFFF8AEF14F0FFFF7E
:10290000000E466E000E476E000E486E000E496EB9
:10291000EAEF15F0FFFF5E505DC04EF04F6A4E5E6D
:10292000000E4F5A7F0E4E24576E000E4F20586EE9
:1029300046C052F047C053F048C054F049C055F06B
:10294000000E466E000E476E000E486E000E496E79
:10295000000E596E000E5A6E000E5B6E000E5C6E1D
:10296000000E5E6EF6EF14F0FFFF5E50D8B4BBEFC2
:1029700014F0BEEF14F0FFFFD9EF14F0FFFFD89072
:102980005236533654365536D89046364736483642
:1029900049365CAECEEF14F0D1EF14F0FFFFD3EF69
:1029A00014F0FFFF4680FFFFD89059365A365B3649
:1029B0005C36FFFF4A50525C4B5053584C505458B1
:1029C0004D505558D8A0E7EF14F0EAEF14F0FFFF90
:1029D000F4EF14F0FFFF5C8C4A50525E4B50535A98
:1029E0004C50545A4D50555AFFFF5E2AFFFF190EA6
:1029F0005E64FDEF14F000EF15F0FFFFB4EF14F08C
:102A0000FFFF5250531054105510D8B40AEF15F070
:102A10000DEF15F0FFFF2AEF15F0FFFF59802AEFA9
:102A200015F0FFFFD89046364736483649365CAE3B
:102A30001CEF15F01FEF15F0FFFF21EF15F0FFFF62
:102A40004680FFFFD89059365A365B365C365706BB
:102A5000D8A05806FFFF48AE30EF15F033EF15F061
:102A6000FFFF11EF15F0FFFF000E5E6E5CAE3BEF57
:102A700015F03EEF15F0FFFF69EF15F0FFFFFF0EB9
:102A800059144E6EFF0E5A144F6EFF0E5B14506EAB
:102A90007F0E5C14516E4E504F1050105110D8B430
:102AA00054EF15F057EF15F0FFFF5DEF15F0FFFF46
:102AB000FFFF010E5E6E69EF15F0FFFF46A063EFAA
:102AC00015F066EF15F0FFFF69EF15F0FFFF58EF07
:102AD00015F0FFFF5E50D8B470EF15F073EF15F0EE
:102AE000FFFF9AEF15F0FFFF010E4626000E47226A
:102AF0004822492249A07FEF15F082EF15F0FFFF31
:102B00009AEF15F0FFFF46C04EF047C04FF048C0A7
:102B100050F049C051F05134513250324F324E32A0
:102B20004EC046F04FC047F050C048F051C049F089
:102B3000574A582AFFFF58BEA6EF15F0585009E132
:102B40005728D8A0A6EF15F0A9EF15F0FFFFB5EFB5
:102B500015F0FFFF000E586E5768000E466E000E0F
:102B6000476E000E486E000E496EFFFF58BEC4EF60
:102B700015F0585006E15704D8B0C1EF15F0C4EF76
:102B800015F0FFFFD3EF15F0FFFF000E586E000E9B
:102B9000576E000E466E000E476E000E486E000E19
:102BA000496E000E566EFFFF57C05DF05DA0DBEF73
:102BB00015F0DEEF15F0FFFFE2EF15F0FFFF488E96
:102BC000E4EF15F0FFFF489EFFFFD8905D30496E9F
:102BD00068EF14F0FFFF1200FFFFFFFF80C0C2F09C
:102BE00081C0C3F082C0C4F083C0C5F077C0C2F01A
:102BF00078C0C3F079C0C4F07AC0C5F0C2C07BF021
:102C0000C3C07CF0C4C07DF0C5C07EF0180E0FEFCD
:102C100016F0FFFFD8907E327D327C327B32FFFF90
:102C2000E82E09EF16F07B500001BC6FBD6BBDBFF5
:102C300023EF16F0BD510AE1960EBC5DD8A023EF3C
:102C400016F026EF16F0FFFF31EF16F0FFFF77C00A
:102C500077F078C078F079C079F07AC07AF0DFEF59
:102C600017F0FFFFC2C07BF0C3C07CF0C4C07DF092
:102C7000C5C07EF0200E43EF16F0FFFFD8907E32E5
:102C80007D327C327B32FFFFE82E3DEF16F07B5029
:102C90007C107D107E10D8B450EF16F053EF16F074
:102CA000FFFF66EF16F0FFFF77C001F078C002F07B
:102CB00079C003F07AC004F021EC32F001C077F063
:102CC00002C078F003C079F004C07AF0FFFF000181
:102CD000BDBF77EF16F0BD5107E17E0EBC5DD8B0E9
:102CE00074EF16F077EF16F0FFFF94EF16F0FFFF8A
:102CF000C2C02DF0C3C02EF0C4C02FF0C5C030F04C
:102D0000000E316E000E326E000E336E000E346E09
:102D100082EC11F02DC077F02EC078F02FC079F042
:102D200030C07AF0DFEF17F0FFFF000E636E000E89
:102D3000646E000E656E4B0E666E77C05FF078C0F5
:102D400060F079C061F07AC062F0AEEC0EF05FC066
:102D5000BEF060C0BFF061C0C0F062C0C1F0000E44
:102D6000636E000E646E000E656ECB0E666EBEC0A6
:102D70005FF0BFC060F0C0C061F0C1C062F0AEECF7
:102D80000EF05FC0B8F060C0B9F061C0BAF062C0C8
:102D9000BBF0B8C06FF0B9C070F0BAC071F0BBC082
:102DA00072F077C073F078C074F079C075F07AC0B3
:102DB00076F0E9EC32F06FC0C6F070C0C7F071C0B9
:102DC000C8F072C0C9F0000E016E000E026E000E57
:102DD000036E3F0E046EC6C005F0C7C006F0C8C043
:102DE00007F0C9C008F0FEEC3AF0D8B0FAEF16F0E0
:102DF000FDEF16F0FFFF34EF17F0FFFF77C063F031
:102E000078C064F079C065F07AC066F0C6C05FF043
:102E1000C7C060F0C8C061F0C9C062F0AEEC0EF08F
:102E20005FC0BEF060C0BFF061C0C0F062C0C1F062
:102E3000BEC05FF0BFC060F0C0C061F0C1C062F052
:102E4000000E636E000E646E800E656EBF0E666EC1
:102E5000AEEC0EF05FC0C6F060C0C7F061C0C8F055
:102E600062C0C9F0A1EF17F0FFFF000E016E000E67
:102E7000026E000E036EBF0E046EC6C005F0C7C022
:102E800006F0C8C007F0C9C008F0FEEC3AF0D8A0C0
:102E90004CEF17F04FEF17F0FFFF86EF17F0FFFF33
:102EA00077C063F078C064F079C065F07AC066F0EE
:102EB000C6C05FF0C7C060F0C8C061F0C9C062F0B2
:102EC000AEEC0EF05FC0BEF060C0BFF061C0C0F0FD
:102ED00062C0C1F0BEC05FF0BFC060F0C0C061F0B2
:102EE000C1C062F0000E636E000E646E800E656EEF
:102EF0003F0E666EAEEC0EF05FC0C6F060C0C7F06D
:102F000061C0C8F062C0C9F0A1EF17F0FFFFC6C0F2
:102F10005FF0C7C060F0C8C061F0C9C062F077C0A0
:102F200063F078C064F079C065F07AC066F0AEEC0A
:102F30000EF05FC0C6F060C0C7F061C0C8F062C0EC
:102F4000C9F0FFFFC2C07BF0C3C07CF0C4C07DF0FD
:102F5000C5C07EF0200EB3EF17F0FFFFD8907E3291
:102F60007D327C327B32FFFFE82EADEF17F07B50D5
:102F70007C107D107E10D8B4C0EF17F0C3EF17F0AF
:102F8000FFFFD6EF17F0FFFFC6C001F0C7C002F089
:102F9000C8C003F0C9C004F021EC32F001C0C6F093
:102FA00002C0C7F003C0C8F004C0C9F0FFFFC6C02C
:102FB00077F0C7C078F0C8C079F0C9C07AF0FFFFD9
:102FC0001200FFFFFFFF1EC036F01FC037F020C009
:102FD00038F021C039F022C03AF023C03BF024C0C1
:102FE0003CF025C03DF03DBEF8EF17F0FCEF17F0C8
:102FF000FFFF010EFEEF17F0FFFF000EFFFF346E24
:10300000356A34503510D8B408EF18F00BEF18F0CB
:10301000FFFF1CEF18F0FFFF3D1E3C1E3B1E3A1E3B
:10302000391E381E371E366C000E372238223922E0
:103030003A223B223C223D22FFFF000189BF23EFC1
:1030400018F026EF18F0FFFF28EF18F0FFFF8A9323
:10305000FFFF89BF37EF18F0895106E18805D8B026
:1030600034EF18F037EF18F0FFFF3EEF18F0FFFFD6
:10307000000E316E010E306E43EF18F0FFFF88C076
:1030800030F089C031F0FFFF86C032F087C033F0E6
:1030900034503510D8A44FEF18F052EF18F0FFFF5E
:1030A0005BEF18F0FFFF8AA558EF18F05BEF18F000
:1030B000FFFF5FEF18F0FFFF3206D8A03306FFFFD7
:1030C000000E3F6E1F0E3E6E000EB76FE5EF18F05C
:1030D000FFFF3E06D8A03F06980E3E24D96E000E94
:1030E0003F20DA6E36C001F037C002F038C003F07E
:1030F00039C004F03AC005F03BC006F03CC007F010
:103100003DC008F00A0E096E000E0A6E000E0B6E2E
:10311000000E0C6E000E0D6E000E0E6E000E0F6E89
:10312000000E106E7AEC3DF001C026F002C027F0D0
:1031300003C028F004C029F005C02AF006C02BF017
:1031400007C02CF008C02DF026C013F028C014F0E2
:103150000EEC33F01350300FDF6E3006D8A031067E
:103160003206D8A0330636C001F037C002F038C0AE
:1031700003F039C004F03AC005F03BC006F03CC093
:1031800007F03DC008F00A0E096E000E0A6E000E30
:103190000B6E000E0C6E000E0D6E000E0E6E000E0D
:1031A0000F6E000E106E23EC1FF001C036F002C04F
:1031B00037F003C038F004C039F005C03AF006C05B
:1031C0003BF007C03CF008C03DF0FFFF3FBEF1EF11
:1031D00018F03F5009E13E04D8A0F1EF18F0F4EFE9
:1031E00018F0FFFF2DEF19F0FFFF365037103810A1
:1031F00039103A103B103C103D10D8A402EF19F0E2
:1032000005EF19F0FFFF68EF18F0FFFF31BE14EF74
:1032100019F0315006E13004D8B011EF19F014EF75
:1032200019F0FFFF68EF18F0FFFF33BE20EF19F031
:10323000335009E13204D8A020EF19F023EF19F040
:10324000FFFF2DEF19F0FFFF00018AB32AEF19F0FD
:103250002DEF19F0FFFF68EF18F0FFFF3450351025
:10326000D8A435EF19F038EF19F0FFFF42EF19F04D
:10327000FFFF00018AA53FEF19F042EF19F0FFFFB1
:1032800065EF19F0FFFF3E06D8A03F063450351019
:10329000D8A44DEF19F050EF19F0FFFF57EF19F0D8
:1032A000FFFF000E2F6E2B0E2E6E5CEF19F0FFFF4E
:1032B000000E2F6E2D0E2E6EFFFF980E3E24D96E3F
:1032C000000E3F20DA6E2EC0DFFFFFFF1CC011F0A2
:1032D0001DC012F0980E3E24136E000E3F20146E97
:1032E00032C015F033C016F095EC38F011C01CF068
:1032F00012C01DF01200FFFFFFFF000189BF83EF26
:1033000019F086EF19F0FFFF88EF19F0FFFF8A939D
:10331000FFFF89BF97EF19F0895106E18805D8B002
:1033200094EF19F097EF19F0FFFF9EEF19F0FFFFF0
:10333000000E346E010E336EA3EF19F0FFFF88C04C
:1033400033F089C034F0FFFF86C035F087C036F017
:103350008AA9ADEF19F0B0EF19F0FFFFB5EF19F042
:10336000FFFFFE0E3526FF0E3622FFFF1EC037F090
:103370001FC038F020C039F021C03AF022C03BF025
:1033800023C03CF024C03DF025C03EF0000E406E4E
:103390001F0E3F6E000EB76F93EF1AF0FFFF3F0650
:1033A000D8A040060F0E3714416E426A42BEE2EFCB
:1033B00019F042500AE10A0E415CD8A0E2EF19F080
:1033C000E5EF19F0FFFFEEEF19F0FFFF570E412474
:1033D000416E000E4220426EF5EF19F0FFFF300EF5
:1033E0004124416E000E4220426EFFFFBF0E276E49
:1033F000FF0E286E2650296E2A6A2750292628504B
:103400002A222A500BE11A0E295CD8A00AEF1AF0E2
:103410000EEF1AF0FFFF010E10EF1AF0FFFF000E83
:10342000FFFF2F6E306A2F503010D8B41AEF1AF009
:103430001DEF1AF0FFFF53EF1AF0FFFF9F0E276EEC
:10344000FF0E286E200E4110296E000E42102A6ECB
:103450002750292628502A222A500BE11A0E295CCF
:10346000D8A035EF1AF039EF1AF0FFFF010E3BEF4D
:103470001AF0FFFF000EFFFF316E326A315032103A
:10348000D8B445EF1AF048EF1AF0FFFF53EF1AF0E7
:10349000FFFF41C007F042C008F07FEC34F007C0E6
:1034A00041F008C042F0FFFF980E3F24D96E000E95
:1034B0004020DA6E41C0DFFF3306D8A0340635065F
:1034C000D8A0360637C027F038C028F039C029F018
:1034D0003AC02AF03BC02BF03CC02CF03DC02DF090
:1034E0003EC02EF0050E7FEF1AF0FFFFD8902E326F
:1034F0002D322C322B322A32293228322732FFFF4A
:10350000E82E75EF1AF027C037F028C038F029C030
:1035100039F02AC03AF02BC03BF02CC03CF02DC053
:103520003DF02EC03EF0FFFF40BEA0EF1AF040502D
:103530000AE1020E3F5CD8A0A0EF1AF0A3EF1AF048
:10354000FFFFDCEF1AF0FFFF3750381039103A1048
:103550003B103C103D103E10D8A4B1EF1AF0B4EF70
:103560001AF0FFFFCEEF19F0FFFF34BEC3EF1AF0E1
:10357000345006E13304D8B0C0EF1AF0C3EF1AF0AC
:10358000FFFFCEEF19F0FFFF36BECFEF1AF0365037
:1035900009E13504D8A0CFEF1AF0D2EF1AF0FFFFFF
:1035A000DCEF1AF0FFFF00018AB3D9EF1AF0DCEF6D
:1035B0001AF0FFFFCEEF19F0FFFF00018AA9E3EF39
:1035C0001AF0E6EF1AF0FFFFFDEF1AF0FFFF3F06DB
:1035D000D8A04006980E3F24D96E000E4020DA6E27
:1035E00026C0DFFF3F06D8A04006980E3F24D96EC4
:1035F000000E4020DA6E300EDF6EFFFF1CC011F0AF
:103600001DC012F0980E3F24136E000E4020146E61
:1036100035C015F036C016F095EC38F011C01CF02E
:1036200012C01DF01200FFFFFFFF000189BF1BEF5A
:103630001BF01EEF1BF0FFFF20EF1BF0FFFF8A9334
:10364000FFFF89BF2FEF1BF0895106E18805D8B035
:103650002CEF1BF02FEF1BF0FFFF36EF1BF0FFFFEF
:10366000000E2F6E010E2E6E3BEF1BF0FFFF88C089
:103670002EF089C02FF0FFFF86C030F087C031F0F8
:103680001EC032F01FC033F020C034F021C035F02E
:1036900022C036F023C037F024C038F025C039F0FE
:1036A000000E3B6E1F0E3A6E000EB76FCFEF1BF091
:1036B000FFFF3A06D8A03B06980E3A24D96E000EBA
:1036C0003B20DA6E32C001F033C002F034C003F0A8
:1036D00035C004F036C005F037C006F038C007F03A
:1036E00039C008F00A0E096E000E0A6E000E0B6E4D
:1036F000000E0C6E000E0D6E000E0E6E000E0F6EA4
:10370000000E106E08EC39F001C026F002C027F060
:1037100003C028F004C029F005C02AF006C02BF031
:1037200007C02CF008C02DF02650300FDF6E2E069B
:10373000D8A02F063006D8A0310632C001F033C021
:1037400002F034C003F035C004F036C005F037C0D5
:1037500006F038C007F039C008F00A0E096E000EF6
:103760000A6E000E0B6E000E0C6E000E0D6E000E3B
:103770000E6E000E0F6E000E106E79EC3AF001C066
:1037800032F002C033F003C034F004C035F005C09D
:1037900036F006C037F007C038F008C039F0FFFF38
:1037A0003A503B10D8B4D7EF1BF0DAEF1BF0FFFF15
:1037B00013EF1CF0FFFF3250331034103510361069
:1037C000371038103910D8A4E8EF1BF0EBEF1BF0DE
:1037D000FFFF58EF1BF0FFFF2FBEFAEF1BF02F503B
:1037E00006E12E04D8B0F7EF1BF0FAEF1BF0FFFF55
:1037F00058EF1BF0FFFF31BE06EF1CF0315009E11E
:103800003004D8A006EF1CF009EF1CF0FFFF13EF07
:103810001CF0FFFF00018AB310EF1CF013EF1CF047
:10382000FFFF58EF1BF0FFFF1CC011F01DC012F08E
:10383000980E3A24136E000E3B20146E30C015F023
:1038400031C016F095EC38F011C01CF012C01DF01C
:103850001200FFFFFFFF000189BF31EF1CF034EFC2
:103860001CF0FFFF36EF1CF0FFFF8A93FFFF89BFBC
:1038700045EF1CF0895106E18805D8B042EF1CF0F5
:1038800045EF1CF0FFFF4CEF1CF0FFFF000E2F6E0A
:10389000010E2E6E51EF1CF0FFFF88C02EF089C084
:1038A0002FF0FFFF86C032F087C033F01EC034F027
:1038B0001FC035F020C036F021C037F022C038F0EC
:1038C00023C039F024C03AF025C03BF0000E3D6E15
:1038D0001F0E3C6E000EB76F000E316E000E306E84
:1038E000BAEF1CF0FFFF3C06D8A03D06070E3414CB
:1038F000306E316A980E3C24D96E000E3D20DA6E8F
:103900003050300FDF6E2E06D8A02F063206D8A01A
:10391000330634C026F035C027F036C028F037C053
:1039200029F038C02AF039C02BF03AC02CF03BC047
:103930002DF0040EA6EF1CF0FFFFD8902D322C3294
:103940002B322A322932283227322632FFFFE82E44
:103950009CEF1CF026C034F027C035F028C036F0AC
:1039600029C037F02AC038F02BC039F02CC03AF00B
:103970002DC03BF0FFFF3DBEC6EF1CF03D5009E1FE
:103980003C04D8A0C6EF1CF0C9EF1CF0FFFF02EF0B
:103990001DF0FFFF34503510361037103810391035
:1039A0003A103B10D8A4D7EF1CF0DAEF1CF0FFFF61
:1039B00072EF1CF0FFFF2FBEE9EF1CF02F5006E165
:1039C0002E04D8B0E6EF1CF0E9EF1CF0FFFF72EF19
:1039D0001CF0FFFF33BEF5EF1CF0335009E1320459
:1039E000D8A0F5EF1CF0F8EF1CF0FFFF02EF1DF080
:1039F000FFFF00018AB3FFEF1CF002EF1DF0FFFF95
:103A000072EF1CF0FFFF00018AA909EF1DF00CEF17
:103A10001DF0FFFF26EF1DF0FFFF30503110D8B42E
:103A200014EF1DF017EF1DF0FFFF26EF1DF0FFFF55
:103A30003C06D8A03D06980E3C24D96E000E3D20D1
:103A4000DA6E300EDF6E3206D8A03306FFFF1CC0E0
:103A500011F01DC012F0980E3C24136E000E3D2094
:103A6000146E32C015F033C016F095EC38F011C06A
:103A70001CF012C01DF01200FFFFFFFF276E275041
:103A8000D8B445EF1DF048EF1DF0FFFF6DEF1DF0BE
:103A9000FFFF22BE51EF1DF04EEF1DF0FFFF6DEF57
:103AA0001DF0FFFF1FC023F020C024F021C025F02F
:103AB00022C026F0231E241E251E261E232A000EA9
:103AC00024222522262223C029F024C02AF025C042
:103AD0002BF026C02CF076EF1DF0FFFF1FC029F061
:103AE00020C02AF021C02BF022C02CF0FFFF1F5075
:103AF000201021102210D8A480EF1DF083EF1DF0BC
:103B0000FFFF8EEF1DF0FFFF000E1F6E000E206EF8
:103B1000000E216E000E226E36EF1EF0FFFF960E95
:103B2000286E9AEF1DF0FFFF282AD8902C322B32F6
:103B30002A322932FFFF000E2914236E000E2A14A8
:103B4000246E000E2B14256EFE0E2C14266E2350B0
:103B5000241025102610D8A4B0EF1DF0B3EF1DF0EF
:103B6000FFFF93EF1DF0FFFFC3EF1DF0FFFF282ABB
:103B7000010E2926000E2A222B222C22D8902C322C
:103B80002B322A322932FFFF000E2914236E000E39
:103B90002A14246E000E2B14256EFF0E2C14266E94
:103BA0002350241025102610D8A4D9EF1DF0DCEFE7
:103BB0001DF0FFFFB6EF1DF0FFFFE6EF1DF0FFFF6A
:103BC0002806D89029362A362B362C36FFFF2BBEF6
:103BD000ECEF1DF0EFEF1DF0FFFFF9EF1DF0FFFF21
:103BE000020E2860F6EF1DF0F9EF1DF0FFFFDFEF8A
:103BF0001DF0FFFF28B0FFEF1DF002EF1EF0FFFFEA
:103C000004EF1EF0FFFF2B9EFFFFD890283228C044
:103C100023F0246A256A266A23C026F0256A246ACE
:103C2000236A2350291224502A1225502B12265081
:103C30002C122750D8B41FEF1EF022EF1EF0FFFF0A
:103C40002DEF1EF0FFFF22BE2BEF1EF028EF1EF01F
:103C5000FFFF2DEF1EF0FFFF2C8EFFFF29C01FF08E
:103C60002AC020F02BC021F02CC022F0FFFF120050
:103C7000FFFFFFFF20EEDFF010EE0FF0060EDBCFB0
:103C8000E3FFE806FCE20CC01AF00DC01BF01A506E
:103C90001B10D8A44EEF1EF051EF1EF0FFFF56EFA1
:103CA0001EF0FFFF0F0E1A6E000E1B6EFFFF1AC0F4
:103CB00001F01BC002F085EC33F001C01EF002C021
:103CC0001FF088C01CF089C01DF01DBE6AEF1EF0F9
:103CD0006DEF1EF0FFFF86EF1EF0FFFF1E501C5C15
:103CE0001D50800A0E6E1F50800A0E58D8A07BEF20
:103CF0001EF07EEF1EF0FFFF81EF1EF0FFFF86EF4C
:103D00001EF0FFFF1CC01EF01DC01FF0FFFF1EC0F5
:103D10001CF01FC01DF086C018F087C019F000010C
:103D20008AB195EF1EF098EF1EF0FFFFB9EF1EF07D
:103D3000FFFFA8EF1EF0FFFF000E026E200E016EC7
:103D40000AC003F00BC004F024EC38F01E4A1F2A0E
:103D5000FFFF18501E5C1F50800A0E6E1950800A1B
:103D60000E58D8A0B6EF1EF0B9EF1EF0FFFF9BEF84
:103D70001EF0FFFF000E176E000E166EE0EF1EF035
:103D8000FFFF1AC0F6FF1BC0F7FFF86A050EF764C5
:103D900004D00800FFFFF55005D0F6CFE1FFF7CFC4
:103DA000E2FFE7500E6E0E50016E026A0AC003F089
:103DB0000BC004F024EC38F01A4A1B2A164A172AC2
:103DC000FFFF1C50165C1750800A0E6E1D50800AB3
:103DD0000E58D8A0EEEF1EF0F1EF1EF0FFFFC0EF7F
:103DE0001EF0FFFF00018AA1F8EF1EF0FBEF1EF0AE
:103DF000FFFF1CEF1FF0FFFF0BEF1FF0FFFF000E98
:103E0000026E200E016E0AC003F00BC004F024EC19
:103E100038F01E4A1F2AFFFF18501E5C1F50800AF0
:103E20000E6E1950800A0E58D8A019EF1FF01CEF23
:103E30001FF0FFFFFEEF1EF0FFFF1EC00AF01FC0C5
:103E40000BF01200FFFFFFFF000E126E10BE2EEFF0
:103E50001FF02BEF1FF0FFFF41EF1FF0FFFF101EC1
:103E60000F1E0E1E0D1E0C1E0B1E0A1E096C000ED0
:103E70000A220B220C220D220E220F221022010EEA
:103E8000126EFFFF08BE4AEF1FF047EF1FF0FFFF63
:103E90005DEF1FF0FFFF081E071E061E051E041E15
:103EA000031E021E016C000E0222032204220522C0
:103EB000062207220822010E121AFFFF20EE13F03D
:103EC000070EDE6AE806FDE209500A100B100C101E
:103ED0000D100E100F101010D8B471EF1FF074EF0A
:103EE0001FF0FFFFCFEF1FF0FFFF010E116E84EFF9
:103EF0001FF0FFFFD89009360A360B360C360D3608
:103F00000E360F361036112AFFFF10AE8AEF1FF063
:103F10008DEF1FF0FFFF79EF1FF0FFFFFFFFD8903D
:103F200013361436153616361736183619361A362D
:103F30000950015C0A5002580B5003580C500458A9
:103F40000D5005580E5006580F500758105008587D
:103F5000D8A0ADEF1FF0B0EF1FF0FFFFC2EF1FF0D2
:103F6000FFFF0950015E0A50025A0B50035A0C50D1
:103F7000045A0D50055A0E50065A0F50075A105049
:103F8000085A1380FFFFD89010320F320E320D32D4
:103F90000C320B320A320932112E8EEF1FF0FFFF66
:103FA0001250D8B4D6EF1FF0D9EF1FF0FFFFEAEFA1
:103FB0001FF0FFFF1A1E191E181E171E161E151EB3
:103FC000141E136C000E142215221622172218221A
:103FD00019221A22FFFF13C001F014C002F015C00D
:103FE00003F016C004F017C005F018C006F019C0A1
:103FF00007F01AC008F01200FFFFFFFF1200FFFFDA
:10621000FFFF9E9A9D8AF28C1200FFFFFFFF016E26
:1062200001C083FF1200FFFFFFFFAECF01F0000EA1
:08623000AE6E01501200FFFFE9
:10623900286E756C6C29000AD7A33CBD37863400DB
:10624900008041D97E677EBB7F367FA97FC47FB23C
:106259007FA77E1020408001020408FFFF000EC2C4
:106269006EC296C298C28AC280000EC46E000EC366
:106279006E000EC16E1200FFFFFFFF000EC26EC25C
:1062890096C298C29AC280000EC46E000EC36E00F8
:106299000EC16E1200FFFFFFFF016E01C0ADFFFFCF
:1062A900FFACA25AEF31F05DEF31F0FFFF54EF314F
:1062B900F0FFFF1200FFFFFFFF000ED56E960ED60E
:1062C9006E980ED76EF28AD59CD59AD596D580D57B
:1062D90082D584D58E1200FFFFFFFF000EBD6E0A26
:1062E9000E0001D46FD70ED56FA30ED66F3B0ED714
:1062F9006F80EC36F0BD86BD841200FFFFFFFFFF03
:10630900FFEFEC34F0C90E0001D41906E1D529D804
:10631900A491EF31F094EF31F0FFFF84EF31F0FFFA
:10632900FF1200FFFFFFFF026E848202500EEC3164
:10633900F08494C80EFFFF00F0E82EFCD78492C8C1
:106349000EFFFF00F0E82EFCD784821200FFFFFF4A
:10635900FF026E848202500EEC31F08484C80EFF75
:10636900FF00F0E82EFCD78492C80EFFFF00F0E88A
:106379002EFCD784821200FFFFFFFF01500302F3B6
:10638900CF05F0F4CF06F001500402F350062602BF
:10639900500302F350062605C001F006C002F012B0
:1063A90000FFFFFFFF000E896E000E806EF10E9256
:1063B9006E000E8A6E000E816E000E936E000E8BBB
:1063C9006E000E826EF00E946E949C1200FFFFFF19
:1063D900FFC80E0001CC6F000ECD6FC2C070F0C3B4
:1063E900C071F0C4C072F0C5C073F0C6C074F0C704
:1063F900C075F0CC0E766E000E776E2EEC3CF01266
:1064090000FFFFFFFF20EE04F00150D9260250DA09
:1064190022DECF03F0DDCF04F0031E041E034A047D
:106429002A20EE04F00150D9260250DA2203C0DEF8
:10643900FF04C0DDFF1200FFFFFFFF015002100340
:10644900100410D8B42BEF32F02EEF32F0FFFF37E3
:10645900EF32F0FFFF000E011A000E021A000E03C0
:106469001A800E041AFFFF01C001F002C002F003F6
:10647900C003F004C004F01200FFFFFFFF550E77C0
:106489006E550E786EC80E796E410E7A6EEDEC156A
:10649900F077C0CAF078C0CBF079C0CCF07AC0CD23
:1064A900F092EC3BF00001CA51AF6EAC9CAC8AACE7
:1064B90098AC84AB8EAB9CAB881200FFFFFFFFD07A
:1064C9000E036EFF0E046E01C005F002C006F00354
:1064D9005005260450062206500BE10A0E055CD829
:1064E900A079EF32F07DEF32F0FFFF010E7FEF323E
:1064F900F0FFFF000EFFFF016E026A1200FFFFFFAF
:10650900FFBF0E036EFF0E046E01C005F002C00648
:10651900F0035005260450062206500BE11A0E0519
:106529005CD8A09AEF32F09EEF32F0FFFF010EA087
:10653900EF32F0FFFF000EFFFF016E026A1200FF4B
:10654900FFFFFF9F0E036EFF0E046E01C005F002F0
:10655900C006F0035005260450062206500BE11A26
:106569000E055CD8A0BBEF32F0BFEF32F0FFFF01A0
:106579000EC1EF32F0FFFF000EFFFF016E026A123B
:1065890000FFFFFFFF9F0E036EFF0E046E200E013A
:1065990010056E000E0210066E0350052604500603
:1065A9002206500BE11A0E055CD8A0DEEF32F0E2AC
:1065B900EF32F0FFFF010EE4EF32F0FFFF000EFFB4
:1065C900FF016E026A1200FFFFFFFF000E731A003F
:1065D9000E741A000E751A800E761A6FC05FF0706D
:1065E900C060F071C061F072C062F073C063F07492
:1065F900C064F075C065F076C066F0AEEC0EF05F71
:10660900C06FF060C070F061C071F062C072F012CA
:1066190000FFFFFFFF14BE1DEF33F0145006E11316
:1066290004D8B01AEF33F01DEF33F0FFFF2CEF332E
:10663900F0FFFF13C015F014C016F0151E161E1535
:106649004A162A15C013F016C014F031EF33F0FFC3
:10665900FF13C013F014C014F0FFFF1200FFFFFF77
:10666900FF000E106E000E0F6E47EF33F0FFFF0EA6
:10667900C001F0026A0CC003F00DC004F024EC382C
:10668900F00F4A102AFFFF0F500A24D96E10500B41
:1066990020DA6EDF500E6E0E50D8A456EF33F05943
:1066A900EF33F0FFFF3BEF33F0FFFF1200FFFFFF77
:1066B900FF01C0D9FF02C0DAFFDECF03F0DDCF044E
:1066C900F001C005F002C006F0035005260450068B
:1066D90022060E0524D96E000E0620DA6E10EE0A87
:1066E900F00150E1260250E222E6CF07F0E5CF089B
:1066F900F007C0E1FF08C0E2FFDFCFE7FF1200FFAC
:10670900FFFFFF01C003F002C004F08FEF33F0FF79
:10671900FF014A022AFFFF01C0F6FF02C0F7FFF896
:106729006A050EF76404D00800FFFFF55005D0F69E
:10673900CFE1FFF7CFE2FFE7500009D8A4A7EF3375
:10674900F0AAEF33F0FFFF8CEF33F0FFFF035001A6
:106759005C016E04500258026E1200FFFFFFFF0138
:106769000E076E200E01180210D8B4BEEF33F0C127
:10677900EF33F0FFFFDDEF33F0FFFFF70E036EFF9E
:106789000E046E01C005F002C006F0035005260490
:1067990050062206500AE1050E055CD8A0D7EF3352
:1067A900F0DAEF33F0FFFFDDEF33F0FFFF000E0704
:1067B9006EFFFF07C001F0026A1200FFFFFFFF0032
:1067C9000186518711D8A4ECEF33F0EFEF33F0FFD6
:1067D900FFF6EF33F0FFFF86C01FF087C020F0FD02
:1067E900EF33F0FFFFFF0E86251F6EFF0E87212076
:1067F9006EFFFF1EC098F0000E996F1CC011F01DAE
:10680900C012F0980E136E000E146E1FC015F02002
:10681900C016F095EC38F011C01CF012C01DF01232
:1068290000FFFF4C0EF66E620EF76E000EF86E0159
:10683900EEE1F010EE18F00900F5CFEEFFE550E1BA
:1068490050FAE1390EF66E620EF76E000EF86E0020
:10685900EEDFF010EE13F00900F5CFEEFFE550E1A1
:1068690050FAE101EEA3F03E0EEE6AE806FDE10002
:10687900EE80F0380EEE6AE806FDE17F907F920027
:106889000EF86E000131EF0AF0FFFFC284FFFFC26C
:10689900B451EF34F054EF34F0FFFF4BEF34F0FF15
:1068A900FF0A0E316ED70E326E230E336E3C0E3454
:1068B9006EC4501F6E206A216A226A010E3DEC1DCA
:1068C900F01FC02DF020C02EF021C02FF022C030C3
:1068D900F082EC11F02DC0CAF02EC0CBF02FC0CC45
:1068E900F030C0CDF092EC3BF0CAC0D4F0CBC0D5AB
:1068F900F01200FFFFFFFF9F0E096EFF0E0A6E07E1
:10690900C00BF008C00CF009500B260A500C220CE1
:10691900500BE11A0E0B5CD8A095EF34F099EF34C7
:10692900F0FFFF010E9BEF34F0FFFF000EFFFF0D9C
:106939006E0E6A0D500E10D8B4A5EF34F0A8EF34DE
:10694900F0FFFFAFEF34F0FFFF5F0E0714076E088B
:106959006AB4EF34F0FFFF07C007F008C008F0FF82
:10696900FF1200FFFFFFFF6AC06EF06BC06FF000FF
:106979000E0001856F000E846FD7EF34F0FFFF68BA
:10698900C043F069C044F06E0E456E000E466E6C51
:10699900C047F06DC048F03DEC00F0435000018461
:1069A9002744508523FFFF6EC0F6FF6FC0F7FF082D
:1069B90000FFFFF5500009D8A4E5EF34F0E8EF3403
:1069C900F0FFFFC3EF34F0FFFF84C068F085C069B2
:1069D900F01200FFFFFFFFC284FFFFC2B4F7EF34DC
:1069E900F0FAEF34F0FFFFF1EF34F0FFFF000E3162
:1069F9006E000E326E800E336E3E0E346EC4501F22
:106A09006E206A216A226A010E3DEC1DF01FC02D1D
:106A1900F020C02EF021C02FF022C030F082EC11FE
:106A2900F02DC0CAF02EC0CBF02FC0CCF030C0CDB5
:106A3900F092EC3BF0C90E0001CA25D46FFF0ECBD2
:106A490021D56F1200FFFFFFFF20EE02F00950D998
:106A5900260A50DA220B50DE5CDE50800A0F6E0CDB
:106A690050800A0F58D8A03CEF35F03FEF35F0FFC2
:106A7900FF50EF35F0FFFF20EE02F00950D9260A4A
:106A890050DA22000EDE6E000EDD6E000E0A6E0177
:106A99000E096E61EF35F0FFFF09C001F00AC0026F
:106AA900F05CEC33F009C001F00AC002F049EC37A0
:106AB900F0000E0A6E000E096EFFFF1200FFFFFFC5
:106AC900FF836A000E956E846A000E966E84928426
:106AD900941E0E036E3C0EFFFFE82EFDD7032EFB1E
:106AE900D700D08482380E97EC31F01E0E036E3C2D
:106AF9000EFFFFE82EFDD7032EFBD700D0380E97E7
:106B0900EC31F01E0E036E3C0EFFFFE82EFDD7039D
:106B19002EFBD700D0380E97EC31F0080E97EC31E8
:106B2900F00F0E97EC31F0010E97EC31F0380E971B
:106B3900EC31F0800E97EC31F01200FFFFFFFF00FF
:106B49000E076EC3EF35F0FFFF07500324056E00F3
:106B59000E0420066E05C0F6FF06C0F7FFF86A05A9
:106B69000EF76404D00800FFFFF55005D0F6CFE119
:106B7900FFF7CFE2FFE750ACEC31F0072AFFFF0740
:106B8900500324056E000E0420066E05C0F6FF06AC
:106B9900C0F7FFF86A050EF76404D00800FFFFF597
:106BA9005005D0F6CFE1FFF7CFE2FFE7500009D853
:106BB900A4E1EF35F0E4EF35F0FFFFA8EF35F0FF82
:106BC900FF1200FFFFFFFF01C0D9FF02C0DAFF0279
:106BD9000EDE18DE10D8A4F4EF35F0F7EF35F0FF2C
:106BE900FFFCEF35F0FFFF100E056E28EF36F0FFC2
:106BF900FF01C0D9FF02C0DAFFDE50DE10D8A408B9
:106C0900EF36F00BEF36F0FFFF10EF36F0FFFF091C
:106C19000E056E28EF36F0FFFF01C0D9FF02C0DA7A
:106C2900FF080EDE18DE10D8A41DEF36F020EF366F
:106C3900F0FFFF25EF36F0FFFF400E056E28EF3617
:106C4900F0FFFF800E056EFFFF05501200FFFFFFEA
:106C5900FF000E106E000E0F6EFFFF0F500924D9B2
:106C69006E10500A20DA6E0F5001240D6E1050027A
:106C7900200E6E060E0D24E16E000E0E20E26EDF70
:106C8900CFE7FF0F4A102A10BE54EF36F010500A12
:106C9900E1040E0F5CD8A054EF36F057EF36F0FF41
:106CA900FF31EF36F0FFFF01C0D9FF02C0DAFF0361
:106CB900C0DEFF04C0DDFF20EE02F00150D926023C
:106CC90050DA2205C0DEFF06C0DDFF20EE04F00128
:106CD90050D9260250DA2207C0DEFF08C0DDFF20A6
:106CE900EE0AF00150D9260250DA220BC0DEFF0C61
:106CF900C0DDFF1200FFFFFFFFBD0E316E370E3200
:106D09006E860E336E350E346EEEC02DF0EFC02E4A
:106D1900F0F0C02FF0F1C030F082EC11F02DC04A34
:106D2900F02EC04BF02FC04CF030C04DF06F0E4626
:106D39006E120E476E830E486E3A0E496ED4EC13EE
:106D4900F046C0CAF047C0CBF048C0CCF049C0CD2E
:106D5900F092EC3BF0CAC0DAF0CBC0DBF0DAC0DC71
:106D6900F00001DCA1BBEF36F0BEEF36F0FFFFC249
:106D7900EF36F0FFFFBD88C4EF36F0FFFFBD98FF87
:106D8900FFDCA3CAEF36F0CDEF36F0FFFFD1EF36C7
:106D9900F0FFFFBD8AD3EF36F0FFFFBD9AFFFFDAA0
:106DA900C0D8F0DBC0D9F0D890D933D833D890D92E
:106DB90033D833D851BE6E1200FFFFFFFF000ECA51
:106DC9006E000ECC6ECA84CA80CA82000E636E0041
:106DD9000E646E800E656EBF0E666EBD0E316E3727
:106DE9000E326E860E336E360E346EEEC02DF0EF17
:106DF900C02EF0F0C02FF0F1C030F082EC11F02D70
:106E0900C04AF02EC04BF02FC04CF030C04DF00AF4
:106E19000E466ED70E476EA30E486E3C0E496ED4D1
:106E2900EC13F046C05FF047C060F048C061F0491C
:106E3900C062F0AEEC0EF05FC0D4F060C0D5F06176
:106E4900C0D6F062C0D7F0000E316E000E326E80EF
:106E59000E336E400E346ED4C02DF0D5C02EF0D650
:106E6900C02FF0D7C030F082EC11F02DC0CAF02E3F
:106E7900C0CBF02FC0CCF030C0CDF092EC3BF0008D
:106E890001CA51CB6E1200FFFFFFFF20EE04F00193
:106E990050D9260250DA22DECF03F0DDCF04F0010B
:106EA900C0D9FF02C0DAFFDECF05F0DDCF06F0035F
:106EB9005005260450062201C0D9FF02C0DAFF0599
:106EC900C0DEFF06C0DDFF20EE02F00150D9260228
:106ED90050DA22DECF03F0DDCF04F0010E032600E5
:106EE9000E042220EE02F00150D9260250DA2203C4
:106EF900C0DEFF04C0DDFF01C0D9FF02C0DAFFDE3A
:106F09002806E1DE28D8A48CEF37F08FEF37F0FFA1
:106F1900FF9AEF37F0FFFF01C0D9FF02C0DAFF0384
:106F29000EDE6E000EDD6EB3EF37F0FFFF01C0D944
:106F3900FF02C0DAFF040EDE18DE10D8A4A7EF376F
:106F4900F0AAEF37F0FFFFB3EF37F0FFFF01C0D929
:106F5900FF02C0DAFF000EDE6E000EDD6EFFFF12CB
:106F690000FFFFFFFF000E1A6E050E196E3F0E009F
:106F790001D625136E000ED721146E0EEC33F013D3
:106F8900C017F014C018F07DEC39F017C01FF018C5
:106F9900C020F0000E20BEFF0E216E226E010E3DB4
:106FA900EC1DF01FC0D8F020C0D9F021C0DAF022C2
:106FB900C0DBF0D8C001F0D9C002F0DAC003F0DBC1
:106FC900C004F0000E056E000E066E400E076E41FD
:106FD9000E086EFEEC3AF0D8A0F5EF37F0F8EF376F
:106FE900F0FFFF1BEF38F0FFFF000E016E000E02ED
:106FF9006E500E036E410E046ED8C005F0D9C0065E
:10700900F0DAC007F0DBC008F0FEEC3AF0D8A010C7
:10701900EF38F013EF38F0FFFF1BEF38F0FFFF00F8
:107029000E0001D76F010ED66F21EF38F0FFFF0078
:107039000E0001D76F000ED66FFFFF1200FFFFFF92
:10704900FF03500410D8B42CEF38F02FEF38F0FFBD
:10705900FF3AEF38F0FFFF03500410D8A437EF3898
:10706900F03AEF38F0FFFF40EF38F0FFFF0150FD35
:10707900EC1FF092EF38F0FFFF20EE04F00350D937
:10708900260450DA22DE50DE10D8B44EEF38F05123
:10709900EF38F0FFFF6EEF38F0FFFF20EE04F0034A
:1070A90050D9260450DA2210EE02F00350E12604EA
:1070B90050E222DE50E65CE650800A096EDE50801E
:1070C9000A0958D8B06BEF38F06EEF38F0FFFF922D
:1070D900EF38F0FFFF20EE02F00350D9260450DA12
:1070E90022DECF05F0DDCF06F003C0D9FF04C0DAF8
:1070F900FFDECF07F0DDCF08F005500724D96E0673
:10710900500820DA6E01C0DFFF20EE02F00350D9EB
:10711900260450DA22DE2A000EDD22FFFF1200FFCC
:10712900FFFFFF00018AA19CEF38F09FEF38F0FFC5
:10713900FFAAEF38F0FFFF13C00AF014C00BF011DB
:10714900C00CF012C00DF034EC33F0FFFF16BEB0E6
:10715900EF38F0B3EF38F0FFFFBAEF38F0FFFF1563
:10716900C01AF016C01BF0BFEF38F0FFFF000E1B6E
:107179006E000E1A6EFFFF000E196E000E186ED308
:10718900EF38F0FFFF000E026E200E016E11C003F2
:10719900F012C004F024EC38F0184A192AFFFF1A3B
:1071A90050185C1950800A176E1B50800A1758D85E
:1071B900A0E1EF38F0E4EF38F0FFFFC6EF38F0FF59
:1071C900FF00018AB1EBEF38F0EEEF38F0FFFFF97D
:1071D900EF38F0FFFF13C00AF014C00BF011C00C18
:1071E900F012C00DF034EC33F0FFFF13C001F014BE
:1071F900C002F085EC33F01A500124116E1B5002C5
:1072090020126E1200FFFFFFFF09500A100B100C2D
:10721900100D100E100F101010D8B416EF39F01908
:10722900EF39F0FFFF6AEF39F0FFFF010E116E2908
:10723900EF39F0FFFFD89009360A360B360C360DB8
:10724900360E360F361036112AFFFF10AE2FEF39E2
:10725900F032EF39F0FFFF1EEF39F0FFFFFFFF09B2
:1072690050015C0A5002580B5003580C5004580D39
:107279005005580E5006580F50075810500858D846
:10728900A049EF39F04CEF39F0FFFF5DEF39F0FF1E
:10729900FF0950015E0A50025A0B50035A0C500460
:1072A9005A0D50055A0E50065A0F50075A105008D9
:1072B9005AFFFFD89010320F320E320D320C320BBA
:1072C900320A320932112E33EF39F0FFFF01C001C2
:1072D900F002C002F003C003F004C004F005C005C9
:1072E900F006C006F007C007F008C008F01200FF5A
:1072F900FFFFFF000E1C6E1ABE88EF39F085EF39CB
:10730900F0FFFF8FEF39F0FFFF196C1A1ED8B01A82
:107319002A010E1C6EFFFF18BE98EF39F095EF3960
:10732900F0FFFF9FEF39F0FFFF176C181ED8B01858
:107339002A010E1C1AFFFF000E1E6E000E1D6E198B
:10734900501A10D8B4ABEF39F0AEEF39F0FFFFDFC8
:10735900EF39F0FFFF010E1B6EB8EF39F0FFFFD8D0
:107369009019361A361B2AFFFF1AAEBEEF39F0C143
:10737900EF39F0FFFFB3EF39F0FFFFFFFFD8901DA2
:10738900361E361950175C1A501858D8A0CFEF3945
:10739900F0D2EF39F0FFFFD8EF39F0FFFF1950179E
:1073A9005E1A50185A1D80FFFFD8901A3219321BE5
:1073B9002EC2EF39F0FFFF1C50D8B4E6EF39F0E9DF
:1073C900EF39F0FFFFEEEF39F0FFFF1D6C1E1ED8FD
:1073D900B01E2AFFFF1DC017F01EC018F01200FFD3
:1073E900FFFFFF01C008F002C009F003C00AF00462
:1073F900C00BF00506D8A00606052806E10628D820
:10740900A409EF3AF00CEF3AF0FFFF1BEF3AF0FF57
:10741900FF000E026E000E016E76EF3AF0FFFF08D4
:107429004A092A0A4A0B2A0506D8A00606FFFF08B8
:10743900C0F6FF09C0F7FF0800FFFFF5500009D8A3
:10744900B429EF3AF02CEF3AF0FFFF61EF3AF0FF81
:10745900FF0AC0F6FF0BC0F7FF0800FFFFF5500059
:1074690009D8B43AEF3AF03DEF3AF0FFFF61EF3A4D
:10747900F0FFFF05500610D8B445EF3AF048EF3A4F
:10748900F0FFFF61EF3AF0FFFF08C0F6FF09C0F710
:10749900FF0800FFFFF5CF07F00AC0F6FF0BC0F7A2
:1074A900FF0800FFFFF5500718D8B45EEF3AF06106
:1074B900EF3AF0FFFF13EF3AF0FFFF08C0F6FF09BC
:1074C900C0F7FF0800FFFFF5CF07F00AC0F6FF0B72
:1074D900C0F7FF0800FFFFF550075C016E026AD88C
:1074E900A00206FFFF1200FFFFFFFF20EE11F007C9
:1074F9000EDE6AE806FDE209500A100B100C100DA9
:10750900100E100F101010D8B48DEF3AF090EF3A1A
:10751900F0FFFFEBEF3AF0FFFF010E196EA0EF3A13
:10752900F0FFFFD89009360A360B360C360D360EA9
:10753900360F361036192AFFFF10AEA6EF3AF0A91A
:10754900EF3AF0FFFF95EF3AF0FFFFFFFFD89011F8
:1075590036123613361436153616361736183609D6
:1075690050015C0A5002580B5003580C5004580D36
:107579005005580E5006580F50075810500858D843
:10758900A0C9EF3AF0CCEF3AF0FFFFDEEF3AF0FF97
:10759900FF0950015E0A50025A0B50035A0C50045D
:1075A9005A0D50055A0E50065A0F50075A105008D6
:1075B9005A1180FFFFD89010320F320E320D320C63
:1075C900320B320A320932192EAAEF3AF0FFFF11B3
:1075D900C001F012C002F013C003F014C004F0158A
:1075E900C005F016C006F017C007F018C008F01261
:1075F90000FFFFFFFF000E0114096E000E02140ABE
:107609006E800E03140B6E7F0E04140C6E09500A63
:10761900100B100C10D8A414EF3BF017EF3BF0FF40
:10762900FF20EF3BF0FFFF000E016E000E026E001F
:107639000E036E000E046EFFFF000E0514096E00A6
:107649000E06140A6E800E07140B6E7F0E08140CBA
:107659006E09500A100B100C10D8A436EF3BF03904
:10766900EF3BF0FFFF42EF3BF0FFFF000E056E001E
:107679000E066E000E076E000E086EFFFF04AE4880
:10768900EF3BF04BEF3BF0FFFF55EF3BF0FFFF0106
:107699006C021ED8B0022A031ED8B0032A800E0439
:1076A90056FFFF08AE5BEF3BF05EEF3BF0FFFF6874
:1076B900EF3BF0FFFF056C061ED8B0062A071ED85F
:1076C900B0072A800E0856FFFF000E011A000E02AD
:1076D9001A000E031A800E041A000E051A000E066F
:1076E9001A000E071A800E081A0550015C0650028E
:1076F900580750035808500458D8B086EF3BF08912
:10770900EF3BF0FFFF8DEF3BF0FFFFD8908FEF3B92
:10771900F0FFFFD880FFFF1200FFFFFFFF0001CC41
:1077290035CD35D36FD351D8A49DEF3BF0A0EF3BB6
:10773900F0FFFFACEF3BF0FFFFFFFF000ECA6F0049
:107749000ECB6F000ECC6F000ECD6F2BEF3CF0FF10
:10775900FFCAC0CEF0CBC0CFF0CCC0D0F0CDC0D1E5
:10776900F0200EBEEF3BF0FFFFD890D133D033CFDE
:1077790033CE33FFFFE82EB8EF3BF0CE51D26FCCBA
:107789008FFF0ECA17FF0ECB17FF0ECC17000ECDB9
:1077990017960ED35FD3BFD7EF3BF0D4EF3BF0FF83
:1077A900FFF1EF3BF0FFFFD351800A970FD8B0E00C
:1077B900EF3BF0E3EF3BF0FFFFE6EF3BF0FFFFA10C
:1077C900EF3BF0FFFFD890CD33CC33CB33CA33D363
:1077D9003FE6EF3BF00FEF3CF0FFFF1F0ED365F8DC
:1077E900EF3BF0FBEF3BF0FFFF05EF3CF0FFFFA1A4
:1077F900EF3BF0FFFFD890CA37CB37CC37CD37D323
:1078090007FFFFD351D8A40CEF3CF00FEF3CF0FF7A
:10781900FFFEEF3BF0FFFFD251D8B416EF3CF01951
:10782900EF3CF0FFFF22EF3CF0FFFFCD1FCC1FCB59
:107839001FCA6D000ECB23CC23CD23FFFFCAC0CABC
:10784900F0CBC0CBF0CCC0CCF0CDC0CDF0FFFF1257
:1078590000FFFFFFFF800E735CD8A036EF3CF039C4
:10786900EF3CF0FFFF43EF3CF0FFFF000E00018DFE
:107879006F4B0E8C6F70687168C8EF3CF0FFFF703A
:10788900C0BCF071C0BDF073500AE1020E725CD841
:10789900A051EF3CF054EF3CF0FFFF62EF3CF0FFEA
:1078A900FFFF0E72240001C06FFF0E7320C16F002D
:1078B9000EBF6F000EBE6F6CEF3CF0FFFF000E00B5
:1078C90001C16F010EC06F000EBF6F010EBE6FFFC9
:1078D900FFBC0E686E000E696E74C06AF075C06BED
:1078E900F076C06CF077C06DF0B7EC34F068C0BAD0
:1078F900F069C0BBF072507310D8B486EF3CF089C0
:10790900EF3CF0FFFFC3EF3CF0FFFF0001BBBF906E
:10791900EF3CF093EF3CF0FFFFC3EF3CF0FFFFFFBC
:107929000E786EFF0E796E72C07AF073C07BF078B4
:10793900507A2679507B227A50BA5D7B50BB59D850
:10794900A0A9EF3CF0ACEF3CF0FFFFB5EF3CF0FF36
:10795900FFFF0E7224B86FFF0E7320B96FBAEF3CA8
:10796900F0FFFFBAC0B8F0BBC0B9F0FFFFB8517063
:1079790024D96EB9517120DA6E000EDF6EFFFFBA9D
:10798900C070F0BBC071F0FFFF1200FFFFFFFF05E1
:107999006E0550ACEC31F00504D8A4D6EF3CF0D913
:1079A900EF3CF0FFFFE4EF3CF0FFFF03C0D9FF0419
:1079B900C0DAFF010EDE6E000EDD6E77EF3DF0FFDF
:1079C900FF020E0518D8A4ECEF3CF0EFEF3CF0FFF6
:1079D900FFFAEF3CF0FFFF03C0D9FF04C0DAFF0351
:1079E9000EDE6E000EDD6E77EF3DF0FFFF040E0533
:1079F90018D8A402EF3DF005EF3DF0FFFF10EF3D71
:107A0900F0FFFF03C0D9FF04C0DAFF040EDE6E00E9
:107A19000EDD6E77EF3DF0FFFF080E0518D8A418AC
:107A2900EF3DF01BEF3DF0FFFF26EF3DF0FFFF03B9
:107A3900C0D9FF04C0DAFF070EDE6E000EDD6E77D7
:107A4900EF3DF0FFFF100E0518D8A42EEF3DF031E1
:107A5900EF3DF0FFFF3CEF3DF0FFFF03C0D9FF040E
:107A6900C0DAFF020EDE6E000EDD6E77EF3DF0FF2D
:107A7900FF400E0518D8A444EF3DF047EF3DF0FF55
:107A8900FF52EF3DF0FFFF03C0D9FF04C0DAFF0842
:107A99000EDE6E000EDD6E77EF3DF0FFFF800E0506
:107AA90018D8A45AEF3DF05DEF3DF0FFFF60EF3DC0
:107AB900F0FFFF77EF3DF0FFFF200E0518D8A4680F
:107AC900EF3DF06BEF3DF0FFFF6EEF3DF0FFFF770D
:107AD900EF3DF0FFFF03C0D9FF04C0DAFF000EDE5F
:107AE9006E000EDD6EFFFF1200FFFFFFFF000E129A
:107AF9006E08BE85EF3DF082EF3DF0FFFF98EF3D48
:107B0900F0FFFF081E071E061E051E041E031E02A7
:107B19001E016C000E0222032204220522062207FE
:107B2900220822010E126EFFFF10BEA1EF3DF09E4A
:107B3900EF3DF0FFFFB2EF3DF0FFFF101E0F1E0EED
:107B49001E0D1E0C1E0B1E0A1E096C000E0A220BAE
:107B5900220C220D220E220F221022FFFF09500AA9
:107B6900100B100C100D100E100F101010D8B4C0FF
:107B7900EF3DF0C3EF3DF0FFFF14EF3EF0FFFF01D3
:107B89000E116ED3EF3DF0FFFFD89009360A360B80
:107B9900360C360D360E360F361036112AFFFF1009
:107BA900AED9EF3DF0DCEF3DF0FFFFC8EF3DF0FF50
:107BB900FFFFFF0950015C0A5002580B5003580C93
:107BC9005004580D5005580E5006580F50075810BC
:107BD900500858D8A0F3EF3DF0F6EF3DF0FFFF074E
:107BE900EF3EF0FFFF0950015E0A50025A0B5003A5
:107BF9005A0C50045A0D50055A0E50065A0F500788
:107C09005A1050085AFFFFD89010320F320E320D19
:107C1900320C320B320A320932112EDDEF3DF0FF00
:107C2900FF1250D8B41BEF3EF01EEF3EF0FFFF2FBE
:107C3900EF3EF0FFFF081E071E061E051E041E0369
:107C49001E021E016C000E022203220422052206D6
:107C59002207220822FFFF01C001F002C002F0033F
:107C6900C003F004C004F005C005F006C006F00723
:107C7900C007F008C008F01200FFFFFFFF000E1652
:107C89006E000E156E000E0F6E000E0E6E50EF3E5A
:107C9900F0FFFF084A092AFFFF010E146E08C0F61B
:107CA900FF09C0F7FF0800FFFFF550200AD8B460AC
:107CB900EF3EF063EF3EF0FFFF84EF3EF0FFFFF78A
:107CC9000E0A6EFF0E0B6E08C0F6FF09C0F7FF081B
:107CD90000FFFFF5500C6E0D6A0A500C260B500D73
