:020000040000FA
:0600000000F03AEF00F0F1
:10000800FFFF7F829DAA0BEF00F00EEF00F0FFFFCD
:100018001DEF00F0FFFF9EAA14EF00F017EF00F0AD
:10002800FFFF1DEF00F0FFFF9E9A010E7C6E010E90
:100038007A6EFFFFF2AA23EF00F026EF00F0FFFF31
:1000480036EF00F0FFFFF2A42CEF00F02FEF00F0E6
:10005800FFFF36EF00F0FFFF000ED56EF294010EA1
:10006800796ED59EFFFF7F921100FFFF15EF13F009
:10007800FFFF94EC13F059EC13F050EC14F0AE0EB3
:10008800016E000E026E000E046E000E036E000E6E
:10009800066E000E056E000E086E010E076EC40E89
:1000A800096E000E0A6E8A0E0B6E0F0E0C6EEFECC8
:1000B80010F0A20E016E000E026E000E046E000E0D
:1000C800036E000E066E000E056E000E086E010E21
:1000D800076EC00E096E000E0A6E8A0E0B6E0F0EAA
:1000E8000C6EEFEC10F0960E016E000E026E000E14
:1000F800046E000E036E000E066E000E056E000EF6
:10010800086E010E076EC40E096E000E0A6E8B0E85
:100118000B6E0F0E0C6EEFEC10F088EC11F00C0E5D
:10012800D4EC13F0010ED4EC13F0800ED4EC13F0E1
:10013800E90E076E7F0E086E71EC12F0F28E000E5B
:10014800786E000E776EFFFF7C50D8B4AEEF00F0EB
:10015800B1EF00F0FFFFEBEF00F0FFFF7A50D8B4EB
:10016800B8EF00F0BBEF00F0FFFFD7EF00F0FFFFA4
:100178003BEC14F06A6E7D0E036E000E046E6A503E
:100188005BEC0DF0000E7A6E0E0E7D187E10D8A472
:10019800D0EF00F0D3EF00F0FFFFE0EF00F0FFFF3B
:1001A8008B88E0EF00F0FFFF7D0E016E000E026EFF
:1001B80043EC11F00DEC14F0FFFF7DC00CF07EC095
:1001C8000DF091EC10F0000E7C6E000E7B6EFFFFC0
:1001D800020E7D187E10D8A4F4EF00F0F7EF00F0BF
:1001E800FFFFFBEF00F0FFFF8982A7EF00F0FFFFA2
:1001F80089927D507E10D8A404EF01F007EF01F03A
:10020800FFFF4DEF01F0FFFF1DEC14F03BEC12F087
:100218003EC06BF03FC06CF0000E6CBEFF0E6D6E02
:100228006E6E6BC00DF06CC00EF06DC00FF06EC03E
:1002380010F0010E5FEC0CF00DC040F00EC041F064
:100248000FC042F010C043F0CD0E446ECC0E456E88
:10025800CC0E466E3D0E476EADEC0EF0D8B037EFC3
:1002680001F03AEF01F0FFFFE7EF04F0FFFF8B8AA0
:100278008B88000E7E6E0E0E7D6E010E7C6E000E5B
:100288000001BF6F000EBE6FE7EF04F0FFFFE7EF5E
:1002980004F0FFFF7D047E10D8A455EF01F058EF5D
:1002A80001F0FFFF62EF01F0FFFFFFFF000E7E6E1F
:1002B800020E7D6E010E7C6EE7EF04F0FFFF030E69
:1002C8007D187E10D8A46BEF01F06EEF01F0FFFFF0
:1002D80077EF01F0FFFF000E7E6E040E7D6E010EBB
:1002E8007C6EE7EF04F0FFFF040E7D187E10D8A4A3
:1002F80080EF01F083EF01F0FFFFCDEF01F0FFFF8A
:100308007950D8B48AEF01F08DEF01F0FFFFB4EF18
:1003180001F0FFFF03EC12F03EC04CF03FC04DF07F
:1003280026EC10F04C504D10D8B49DEF01F0A0EF22
:1003380001F0FFFFA7EF01F0FFFF000E7E6E020E37
:100348007D6EADEF01F0FFFF000E7E6E0E0E7D6E2E
:100358008B88FFFF010E7C6E000E796EE7EF04F0CC
:10036800FFFFD5BEBAEF01F0BDEF01F0FFFFC4EF0C
:1003780001F0FFFF2CEC14F0E9EC13F0FCEC13F0A7
:10038800FFFF03EC12F03EC068F03FC069F0E7EFF2
:1003980004F0FFFF050E7D187E10D8A4D6EF01F0FB
:1003A800D9EF01F0FFFF41EF02F0FFFFAE0E016E43
:1003B800000E026E000E046E000E036E000E066E36
:1003C800000E056E000E086E010E076EC40E096E53
:1003D800000E0A6E8A0E0B6E0F0E0C6EEFEC10F00C
:1003E800A20E016E000E026E000E046E000E036E69
:1003F800000E066E000E056E000E086E010E076EEA
:10040800C00E096E000E0A6E8A0E0B6E0F0E0C6E71
:10041800EFEC10F0960E016E000E026E000E046EE8
:10042800000E036E000E066E000E056E000E086EBE
:10043800010E076EC40E096E000E0A6E8B0E0B6E4F
:100448000F0E0C6EEFEC10F0000E726E000E716E57
:10045800000E00018F6F000E8E6F000E706E000E82
:100468006F6E000E8B6F000E8A6F000E7E6E060E8A
:100478007D6E010E7C6EE7EF04F0FFFF060E7D181F
:100488007E10D8A44AEF02F04DEF02F0FFFFB4EF60
:1004980002F0FFFF140E666E7D0EFFFFE82EFDD7FB
:1004A800662EFBD700D071507210D8A45EEF02F010
:1004B80061EF02F0FFFF70EF02F0FFFFAE0E096E72
:1004C800000E0A6E000E0C6E320E0B6EC7EC11F0A9
:1004D80009C071F00AC072F0FFFF71507210D8B4F1
:1004E80078EF02F07BEF02F0FFFF96EF02F0FFFFDC
:1004F80000018E518F11D8A484EF02F087EF02F02B
:10050800FFFF96EF02F0FFFFA20E096E000E0A6EC3
:10051800000E0C6E640E0B6EC7EC11F009C08EF065
:100528000AC08FF0FFFF71C001F072C002F08EC0E8
:1005380003F08FC004F0BFEC13F001500210D8B4E0
:10054800A8EF02F0ABEF02F0FFFFE7EF04F0FFFFC8
:10055800000E7E6E070E7D6E010E7C6EE7EF04F0D6
:10056800FFFF070E7D187E10D8A4BDEF02F0C0EF84
:1005780002F0FFFF2FEF03F0FFFF050E666EDF0EA0
:10058800FFFFE82EFDD7662EFBD7AE0E096E000ED4
:100598000A6E000E0C6E640E0B6EC7EC11F009505B
:1005A8000A10D8B4DAEF02F0DDEF02F0FFFFE6EF51
:1005B80002F0FFFFAE0E016E000E026E79EC13F032
:1005C800774A782AFFFF140E77187810D8A4EFEF2F
:1005D80002F0F2EF02F0FFFF06EF03F0FFFF7550A5
:1005E8007610D8A4FAEF02F0FDEF02F0FFFF06EF55
:1005F80003F0FFFF000E7E6E080E7D6E010E7C6E0E
:10060800E7EF04F0FFFF280E77187810D8A40FEF53
:1006180003F012EF03F0FFFF4AEF01F0FFFF000EB7
:10062800766E000E756E000E7E6E090E7D6E010EE2
:100638007C6E000E786E000E776EAE0E016E000EA8
:10064800026E79EC13F0A20E016E000E026E79ECC8
:1006580013F0E7EF04F0FFFF080E7D187E10D8A412
:1006680038EF03F03BEF03F0FFFFD9EF03F0FFFF94
:10067800050E666EDF0EFFFFE82EFDD7662EFBD750
:1006880000018C518D11D8A44CEF03F04FEF03F00B
:10069800FFFF60EF03F0FFFF960E096E000E0A6E73
:1006A800000E0C6EC80E0B6EC7EC11F009C08CF072
:1006B8000AC08DF0E7EF04F0FFFF75507610D8A45C
:1006C80068EF03F06BEF03F0FFFF8FEF03F0FFFF1E
:1006D8008C518D11D8B473EF03F076EF03F0FFFF60
:1006E8008FEF03F0FFFF080E676E9E0E666E4C0ECE
:1006F800FFFFE82EFDD7662EFBD7672EF9D7000E31
:10070800766E010E756E960E016E000E026E79EC15
:1007180013F0E7EF04F0FFFF75507610D8B497EFA9
:1007280003F09AEF03F0FFFFB6EF03F0FFFF8851E5
:100738008911D8A4A2EF03F0A5EF03F0FFFFB6EFED
:1007480003F0FFFF960E096E000E0A6E000E0C6E87
:10075800C80E0B6EC7EC11F009C088F00AC089F00A
:10076800E7EF04F0FFFF75507610D8B4BEEF03F042
:10077800C1EF03F0FFFF4AEF01F0FFFF8851891135
:10078800D8B4C9EF03F0CCEF03F0FFFF4AEF01F054
:10079800FFFF000E7E6E070E7D6E010E7C6E000E52
:1007A8008D6F000E8C6FE7EF04F0FFFF090E7D18C8
:1007B8007E10D8A4E2EF03F0E5EF03F0FFFF46EF69
:1007C80004F0FFFF140E666E7D0EFFFFE82EFDD7C6
:1007D800662EFBD700D06F507010D8A4F6EF03F048
:1007E800F9EF03F0FFFF08EF04F0FFFFA20E096E18
:1007F800000E0A6E000E0C6E640E0B6EC7EC11F044
:1008080009C06FF00AC070F0FFFF6F507010D8B4C5
:1008180010EF04F013EF04F0FFFF2EEF04F0FFFFDA
:1008280000018A518B11D8A41CEF04F01FEF04F0CB
:10083800FFFF2EEF04F0FFFFAE0E096E000E0A6EEA
:10084800000E0C6E320E0B6EC7EC11F009C08AF068
:100858000AC08BF0FFFF6FC001F070C002F08AC0C1
:1008680003F08BC004F0BFEC13F001500210D8B4B1
:1008780040EF04F043EF04F0FFFFE7EF04F0FFFF61
:1008880059EF01F0FFFF0A0E7D187E10D8A44FEF34
:1008980004F052EF04F0FFFF5BEF04F0FFFF000EDF
:1008A8007E6E0B0E7D6E010E7C6EE7EF04F0FFFF8F
:1008B8000B0E7D187E10D8A464EF04F067EF04F0E7
:1008C800FFFF8EEF04F0FFFF7950D8B46EEF04F00D
:1008D80071EF04F0FFFF80EF04F0FFFF010E7C6E64
:1008E800000E7E6E0D0E7D6E000E746E000E736E21
:1008F800000E796EE7EF04F0FFFFD5BE86EF04F037
:1009080089EF04F0FFFF4AEF01F0FFFFFCEC13F062
:10091800E7EF04F0FFFF0C0E7D187E10D8A497EFC8
:1009280004F09AEF04F0FFFFA4EF04F0FFFF000EBD
:100938007E6E000E7D6E010E7C6ED59EE7EF04F094
:10094800FFFF0D0E7D187E10D8A4ADEF04F0B0EFB8
:1009580004F0FFFFE7EF04F0FFFF898274BEC1EFE8
:1009680004F0745007E1640E735CD8B0BEEF04F075
:10097800C1EF04F0FFFFCFEF04F0FFFF0A0E666E31
:10098800BE0EFFFFE82EFDD7662EFBD700D0734AB8
:10099800742AE7EF04F0FFFF74BEDCEF04F0745034
:1009A8000AE1640E735CD8A0DCEF04F0DFEF04F01A
:1009B800FFFF4AEF01F0FFFF000E7E6E000E7D6E16
:1009C800010E7C6ED59EFFFF0E0E7D187E10D8A4FA
:1009D800F0EF04F0F3EF04F0FFFFA7EF00F0FFFFE4
:1009E8008BA8F9EF04F0FCEF04F0FFFF41EF05F0EE
:1009F800FFFF8BAA02EF05F005EF05F0FFFF41EFBF
:100A080005F0FFFF3BEC12F03EC06BF03FC06CF00E
:100A1800000E6CBEFF0E6D6E6E6ECD0E406ECC0E6F
:100A2800416ECC0E426E3D0E436E6BC00DF06CC035
:100A38000EF06DC00FF06EC010F0010E5FEC0CF000
:100A48000DC044F00EC045F00FC046F010C047F08E
:100A5800ADEC0EF0D8B033EF05F036EF05F0FFFF40
:100A680041EF05F0FFFF8B988B9ABEC07DF0BFC0A9
:100A78007EF0010E7C6EA7EF00F0FFFFA7EF00F0FD
:100A88003AEF00F0FFFF0450800B0D6E0450042471
:100A98000F6E03AE52EF05F055EF05F0FFFF57EF6D
:100AA80005F0FFFF0F80FFFF0F50D8B45EEF05F091
:100AB80061EF05F0FFFF7AEF05F0FFFF0F28D8A4DC
:100AC80068EF05F06BEF05F0FFFF74EF05F0FFFF2F
:100AD800000E016E000E026E000E036E000E046E14
:100AE800FFFF038E000E046E83EF05F0FFFF000E7C
:100AF800016E000E026E000E036E000E046EFFFF04
:100B08000850800B0E6E0D500E18D8B48EEF05F0FD
:100B180091EF05F0FFFF93EF05F0FFFF0D8CFFFF4E
:100B2800085008240E6E07AE9CEF05F09FEF05F005
:100B3800FFFFA1EF05F0FFFF0E80FFFF0E50D8B4B6
:100B4800A8EF05F0ABEF05F0FFFFC4EF05F0FFFFDE
:100B58000E28D8A4B2EF05F0B5EF05F0FFFFBEEF01
:100B680005F0FFFF000E056E000E066E000E076E04
:100B7800000E086EFFFF078E000E086ECDEF05F021
:100B8800FFFF000E056E000E066E000E076E000ECB
:100B9800086EFFFF0F500E5CD8B0D5EF05F0D8EF08
:100BA80005F0FFFF03EF06F0FFFF0DACDEEF05F0E9
:100BB800E1EF05F0FFFFE4EF05F0FFFF800E0D1AEF
:100BC800FFFF0FC010F00EC00FF010C00EF001C0F4
:100BD80010F005C001F010C005F002C010F006C00A
:100BE80002F010C006F003C010F007C003F010C0F8
:100BF80007F004C010F008C004F010C008F0FFFFB0
:100C0800000E106E0F500EC009F00A6A095E000E41
:100C18000A5A0ABE19EF06F00A500AE11A0E095CD0
:100C2800D8A019EF06F01CEF06F0FFFF5FEF06F003
:100C3800FFFF0150021003100410D8A426EF06F09D
:100C48002AEF06F0FFFF010E2CEF06F0FFFF000E63
:100C5800FFFF106E000E016E000E026E000E036E96
:100C6800000E046E0EC00FF06AEF06F0FFFF10A032
:100C780040EF06F043EF06F0FFFF4AEF06F0FFFFF4
:100C8800D89010300109106E4DEF06F0FFFFD89094
:100C98001032FFFF01A053EF06F056EF06F0FFFFFA
:100CA80058EF06F0FFFF108EFFFF043404320332C2
:100CB800023201320F2AFFFF0E500F5CD8A067EFF7
:100CC80006F06AEF06F0FFFF3AEF06F0FFFF0DBCF3
:100CD80070EF06F073EF06F0FFFFC0EF06F0FFFFBE
:100CE8000F50D8A47AEF06F07DEF06F0FFFF88EFEB
:100CF80006F0FFFF000E016E000E026E000E036E7E
:100D0800000E046E17EF08F0FFFF0550012606508D
:100D18000222075003220850042204A096EF06F08E
:100D280099EF06F0FFFF64EF07F0FFFF10A09FEFB9
:100D380006F0A2EF06F0FFFFA9EF06F0FFFFD8903C
:100D480010300109106EACEF06F0FFFFD89010329A
:100D5800FFFF01A0B2EF06F0B5EF06F0FFFFB7EF17
:100D680006F0FFFF108EFFFF043404320332023214
:100D780001320F2A64EF07F0FFFF0550015C0650AF
:100D88000258075003580450800A096E0850800A18
:100D98000958D8B0D2EF06F0D5EF06F0FFFF03EF01
:100DA80007F0FFFF0150055C096E025006580A6EF5
:100DB800035007580B6E045008580C6EFF0E092498
:100DC800016EFF0E0A20026EFF0E0B20036EFF0E4F
:100DD8000C20046E800E0D1A106C1050D8A4F7EF7A
:100DE80006F0FAEF06F0FFFF0CEF07F0FFFF010E29
:100DF8000126000E0222032204220CEF07F0FFFF57
:100E08000550015E0650025A0750035A0850045A0A
:100E1800FFFF0150021003100410D8A416EF07F0CA
:100E280019EF07F0FFFF5BEF07F0FFFF1050D8A4A2
:100E380020EF07F023EF07F0FFFF5BEF07F0FFFF5E
:100E4800000E016E000E026E000E036E000E046EA0
:100E580017EF08F0FFFFD890013602360336043644
:100E680010AE39EF07F03CEF07F0FFFF3EEF07F059
:100E7800FFFF0180FFFF10A044EF07F047EF07F0E6
:100E8800FFFF4CEF07F0FFFFD88010364FEF07F059
:100E9800FFFFD8901036FFFF0F50D8B456EF07F079
:100EA80059EF07F0FFFF5BEF07F0FFFF0F06FFFFAB
:100EB80003AE61EF07F064EF07F0FFFF2EEF07F0D6
:100EC800FFFF000E0E6E10AE6CEF07F06FEF07F02D
:100ED800FFFF8EEF07F0FFFF10C009F07F0E091625
:100EE800D8B479EF07F07CEF07F0FFFF82EF07F047
:100EF800FFFFFFFF010E0E6E8EEF07F0FFFF01A050
:100F080088EF07F08BEF07F0FFFF8EEF07F0FFFF8A
:100F18007DEF07F0FFFF0E50D8B495EF07F098EF7C
:100F280007F0FFFFC8EF07F0FFFF010E0126000ED4
:100F380002220322042204A0A4EF07F0A7EF07F07F
:100F4800FFFFC8EF07F0FFFF01C009F002C00AF079
:100F580003C00BF004C00CF00C340C320B320A3214
:100F6800093209C001F00AC002F00BC003F00CC03E
:100F780004F00F28D8B4C3EF07F0C6EF07F0FFFF5F
:100F8800C8EF07F0FFFF0F2AFFFF0F28D8B4CFEFF5
:100F980007F0D2EF07F0FFFFDCEF07F0FFFF0F507D
:100FA800D8A4D9EF07F0DCEF07F0FFFFF1EF07F067
:100FB800FFFF000E016E000E026E000E036E000EA3
:100FC800046E0F50D8A4EBEF07F0EEEF07F0FFFF29
:100FD800F1EF07F0FFFF000E0D6EFFFF0FA0F7EF18
:100FE80007F0FAEF07F0FFFFFEEF07F0FFFF038EB1
:100FF80000EF08F0FFFF039EFFFFD8900F30046E4C
:101008000DAE09EF08F00CEF08F0FFFF0EEF08F047
:10101800FFFF048EFFFF01C001F002C002F003C011
:1010280003F004C004F0FFFF1200FFFFFFFF1E5093
:10103800800B276E1E501E242D6E1DAE26EF08F065
:1010480029EF08F0FFFF2BEF08F0FFFF2D80FFFFCF
:101058002D50D8B432EF08F035EF08F0FFFF4CEF11
:1010680008F0FFFF2D28D8A43CEF08F03FEF08F068
:10107800FFFF48EF08F0FFFF000E1B6E000E1C6E0E
:10108800000E1D6E000E1E6EFFFF1D8E55EF08F040
:10109800FFFF000E1B6E000E1C6E000E1D6E000E74
:1010A8001E6EFFFF2250800B271A225022242C6E1E
:1010B80021AE61EF08F064EF08F0FFFF66EF08F07B
:1010C800FFFF2C80FFFF2C50D8B46DEF08F070EFB5
:1010D80008F0FFFF87EF08F0FFFF2C28D8A477EF70
:1010E80008F07AEF08F0FFFF83EF08F0FFFF000E2B
:1010F8001F6E000E206E000E216E000E226EFFFF86
:10110800218E90EF08F0FFFF000E1F6E000E206E7C
:10111800000E216E000E226EFFFF2C50D8B497EF00
:1011280008F09AEF08F0FFFFA4EF08F0FFFF2D503A
:10113800D8A4A1EF08F0A4EF08F0FFFFAFEF08F084
:10114800FFFF000E1B6E000E1C6E000E1D6E000EC3
:101158001E6E69EF0AF0FFFF21501B02F3CF32F039
:10116800F4CF33F03250286E296A2A6A2B6A33503A
:101178002E6E2F6A306A316A20501C02F3CF32F08B
:10118800F4CF33F032502826000E29222A222B22AF
:1011980033502E26000E2F22302231221F501D02DE
:1011A800F3CF32F0F4CF33F032502826000E292244
:1011B8002A222B2233502E26000E2F2230223122B3
:1011C8002AC02BF029C02AF028C029F0286A1F500D
:1011D8001C02F3CF32F0F4CF33F0325028263350CC
:1011E8002922000E2A22000E2B2220501B02F3CFA8
:1011F80032F0F4CF33F03250282633502922000E33
:101208002A22000E2B222AC02BF029C02AF028C03F
:1012180029F0286A1F501B02F3CF32F0F4CF33F0C5
:101228003250282633502922000E2A22000E2B2263
:1012380021501C02F3CF32F0F4CF33F032502E2677
:1012480033502F22000E3022000E312220501D0272
:10125800F3CF32F0F4CF33F032502E2633502F2212
:10126800000E3022000E312221501D02F3CF32F041
:10127800F4CF33F03250236E3350246E256A266A39
:1012880025C026F024C025F023C024F0236A23506B
:101298002E2624502F22255030222650312228C0B5
:1012A80023F029C024F02AC025F02BC026F0190EFF
:1012B80064EF09F0FFFFD89026322532243223321A
:1012C800FFFFE82E5EEF09F023502E2624502F2230
:1012D80025503022265031222AC02BF029C02AF06E
:1012E80028C029F0286A2C502DC023F0246A232610
:1012F800000E2422820E2324326EFF0E2420336E29
:101308009FEF09F0FFFFD8902E362F363036313652
:101318002BAE91EF09F094EF09F0FFFF96EF09F07B
:10132800FFFF2E80FFFFD890283629362A362B3625
:101338003206D8A03306FFFF30AEA5EF09F0A8EFBC
:1013480009F0FFFF86EF09F0FFFF000E2C6E2BAEB1
:10135800B0EF09F0B3EF09F0FFFFDEEF09F0FFFF90
:10136800FF0E2814236EFF0E2914246EFF0E2A1474
:10137800256E7F0E2B14266E235024102510261060
:10138800D8B4C9EF09F0CCEF09F0FFFFD2EF09F0AC
:10139800FFFFFFFF010E2C6EDEEF09F0FFFF2EA00E
:1013A800D8EF09F0DBEF09F0FFFFDEEF09F0FFFFF0
:1013B800CDEF09F0FFFF2C50D8B4E5EF09F0E8EFC6
:1013C80009F0FFFF0FEF0AF0FFFF010E2E26000EB7
:1013D8002F223022312231A0F4EF09F0F7EF09F083
:1013E800FFFF0FEF0AF0FFFF2EC023F02FC024F0FD
:1013F80030C025F031C026F026342632253224327A
:10140800233223C02EF024C02FF025C030F026C090
:1014180031F0324A332AFFFF33BE1BEF0AF0335054
:1014280009E13228D8A01BEF0AF01EEF0AF0FFFFEF
:1014380029EF0AF0FFFF000E2E6E000E2F6E800EB1
:10144800306E7F0E316E5EEF0AF0FFFF33BE38EF6D
:101458000AF0335006E13204D8B035EF0AF038EF1D
:101468000AF0FFFF45EF0AF0FFFF000E2E6E000E98
:101478002F6E000E306E000E316E000E276E5EEF7E
:101488000AF0FFFF32C02DF0FF0E2E16FF0E2F16AA
:101498007F0E3016000E31162DA055EF0AF058EFCA
:1014A8000AF0FFFF5AEF0AF0FFFF308EFFFFD890D7
:1014B8002D30316EFFFF275031122EC01BF02FC088
:1014C8001CF030C01DF031C01EF0FFFF1200FFFFFE
:1014D800FFFF80C05EF081C05FF082C060F083C013
:1014E80061F04CC05EF04DC05FF04EC060F04FC080
:1014F80061F05EC050F05FC051F060C052F061C052
:1015080053F0180E8EEF0AF0FFFFD8905332523284
:1015180051325032FFFFE82E88EF0AF05050586ED3
:10152800596A59BEA1EF0AF059500AE1960E585C63
:10153800D8A0A1EF0AF0A4EF0AF0FFFFAFEF0AF07E
:10154800FFFF4CC04CF04DC04DF04EC04EF04FC0A8
:101558004FF05CEF0CF0FFFF5EC050F05FC051F041
:1015680060C052F061C053F0200EC1EF0AF0FFFFD7
:10157800D8905332523251325032FFFFE82EBBEF2F
:101588000AF05050511052105310D8B4CEEF0AF050
:10159800D1EF0AF0FFFFE4EF0AF0FFFF4CC001F0C3
:1015A8004DC002F04EC003F04FC004F038EC13F009
:1015B80001C04CF002C04DF003C04EF004C04FF023
:1015C800FFFF59BEF4EF0AF0595007E17E0E585C50
:1015D800D8B0F1EF0AF0F4EF0AF0FFFF11EF0BF0CB
:1015E800FFFF5EC01BF05FC01CF060C01DF061C053
:1015F8001EF0000E1F6E000E206E000E216E000EF3
:10160800226E1AEC08F01BC04CF01CC04DF01DC037
:101618004EF01EC04FF05CEF0CF0FFFF000E056EA1
:10162800000E066E000E076E4B0E086E4CC001F0E1
:101638004DC002F04EC003F04FC004F046EC05F078
:1016480001C05AF002C05BF003C05CF004C05DF05A
:10165800000E056E000E066E000E076ECB0E086EAD
:101668005AC001F05BC002F05CC003F05DC004F03A
:1016780046EC05F001C054F002C055F003C056F026
:1016880004C057F054C011F055C012F056C013F002
:1016980057C014F04CC015F04DC016F04EC017F0EE
:1016A8004FC018F0F0EC12F011C062F012C063F0F5
:1016B80013C064F014C065F0000E406E000E416E59
:1016C800000E426E3F0E436E62C044F063C045F0A8
:1016D80064C046F065C047F0ADEC0EF0D8B077EFC7
:1016E8000BF07AEF0BF0FFFFB1EF0BF0FFFF4CC0F0
:1016F80005F04DC006F04EC007F04FC008F062C0BC
:1017080001F063C002F064C003F065C004F046EC69
:1017180005F001C05AF002C05BF003C05CF004C0E1
:101728005DF05AC001F05BC002F05CC003F05DC020
:1017380004F0000E056E000E066E800E076EBF0EDA
:10174800086E46EC05F001C062F002C063F003C009
:1017580064F004C065F01EEF0CF0FFFF000E406E51
:10176800000E416E000E426EBF0E436E62C044F022
:1017780063C045F064C046F065C047F0ADEC0EF0BC
:10178800D8A0C9EF0BF0CCEF0BF0FFFF03EF0CF084
:10179800FFFF4CC005F04DC006F04EC007F04FC02B
:1017A80008F062C001F063C002F064C003F065C0D5
:1017B80004F046EC05F001C05AF002C05BF003C02B
:1017C8005CF004C05DF05AC001F05BC002F05CC080
:1017D80003F05DC004F0000E056E000E066E800E6C
:1017E800076E3F0E086E46EC05F001C062F002C0BD
:1017F80063F003C064F004C065F01EEF0CF0FFFF57
:1018080062C001F063C002F064C003F065C004F078
:101818004CC005F04DC006F04EC007F04FC008F0B0
:1018280046EC05F001C062F002C063F003C064F04A
:1018380004C065F0FFFF5EC050F05FC051F060C0AB
:1018480052F061C053F0200E30EF0CF0FFFFD8903B
:101858005332523251325032FFFFE82E2AEF0CF049
:101868005050511052105310D8B43DEF0CF040EFC7
:101878000CF0FFFF53EF0CF0FFFF62C001F063C0F4
:1018880002F064C003F065C004F038EC13F001C046
:1018980062F002C063F003C064F004C065F0FFFFAB
:1018A80062C04CF063C04DF064C04EF065C04FF0AC
:1018B800FFFF1200FFFFFFFF156E1550D8B467EF4A
:1018C8000CF06AEF0CF0FFFF8FEF0CF0FFFF10BE7B
:1018D80073EF0CF070EF0CF0FFFF8FEF0CF0FFFFD1
:1018E8000DC011F00EC012F00FC013F010C014F0AC
:1018F800111E121E131E141E112A000E122213226C
:10190800142211C017F012C018F013C019F014C037
:101918001AF098EF0CF0FFFF0DC017F00EC018F08A
:101928000FC019F010C01AF0FFFF0D500E100F1065
:101938001010D8A4A2EF0CF0A5EF0CF0FFFFB0EF49
:101948000CF0FFFF000E0D6E000E0E6E000E0F6EF7
:10195800000E106E58EF0DF0FFFF960E166EBCEFDE
:101968000CF0FFFF162AD8901A32193218321732A3
:10197800FFFF000E1714116E000E1814126E000EE1
:101988001914136EFE0E1A14146E1150121013103F
:101998001410D8A4D2EF0CF0D5EF0CF0FFFFB5EF80
:1019A8000CF0FFFFE5EF0CF0FFFF162A010E1726DB
:1019B800000E182219221A22D8901A321932183217
:1019C8001732FFFF000E1714116E000E1814126E56
:1019D800000E1914136EFF0E1A14146E1150121003
:1019E80013101410D8A4FBEF0CF0FEEF0CF0FFFF5F
:1019F800D8EF0CF0FFFF08EF0DF0FFFF1606D890A8
:101A08001736183619361A36FFFF19BE0EEF0DF0C5
:101A180011EF0DF0FFFF1BEF0DF0FFFF020E166038
:101A280018EF0DF01BEF0DF0FFFF01EF0DF0FFFFBA
:101A380016B021EF0DF024EF0DF0FFFF26EF0DF0AB
:101A4800FFFF199EFFFFD890163216C011F0126AD8
:101A5800136A146A11C014F0136A126A116A1150D9
:101A68001712125018121350191214501A12155036
:101A7800D8B441EF0DF044EF0DF0FFFF4FEF0DF03C
:101A8800FFFF10BE4DEF0DF04AEF0DF0FFFF4FEFD7
:101A98000DF0FFFF1A8EFFFF17C00DF018C00EF0F3
:101AA80019C00FF01AC010F0FFFF1200FFFFFFFF70
:101AB800056E0550AAEC13F00504D8A466EF0DF0E6
:101AC80069EF0DF0FFFF74EF0DF0FFFF03C0D9FFC2
:101AD80004C0DAFF010EDE6E000EDD6E0FEF0EF0B1
:101AE800FFFF020E0518D8A47CEF0DF07FEF0DF074
:101AF800FFFF8AEF0DF0FFFF03C0D9FF04C0DAFF34
:101B0800030EDE6E000EDD6E0FEF0EF0FFFF040E0B
:101B18000518D8A492EF0DF095EF0DF0FFFFA0EF98
:101B28000DF0FFFF03C0D9FF04C0DAFF050EDE6E1B
:101B3800000EDD6E0FEF0EF0FFFF080E0518D8A49B
:101B4800A8EF0DF0ABEF0DF0FFFFB6EF0DF0FFFFC4
:101B580003C0D9FF04C0DAFF0A0EDE6E000EDD6E88
:101B68000FEF0EF0FFFF100E0518D8A4BEEF0DF012
:101B7800C1EF0DF0FFFFCCEF0DF0FFFF03C0D9FF61
:101B880004C0DAFF020EDE6E000EDD6E0FEF0EF0FF
:101B9800FFFF400E0518D8A4D4EF0DF0D7EF0DF0D5
:101BA800FFFFE2EF0DF0FFFF03C0D9FF04C0DAFF2B
:101BB8000E0EDE6E000EDD6E0FEF0EF0FFFF800ED4
:101BC8000518D8A4EAEF0DF0EDEF0DF0FFFFF0EFE8
:101BD8000DF0FFFF0FEF0EF0FFFFA00E0518D8A4C1
:101BE800F8EF0DF0FBEF0DF0FFFF06EF0EF0FFFF33
:101BF80003C0D9FF04C0DAFF0C0EDE6E000EDD6EE6
:101C08000FEF0EF0FFFF03C0D9FF04C0DAFF000E8C
:101C1800DE6E000EDD6EFFFF1200FFFFFFFF3634A1
:101C280037343D6E3D50D8A41CEF0EF01FEF0EF078
:101C3800FFFF2BEF0EF0FFFFFFFF000E346E000ECC
:101C4800356E000E366E000E376EAAEF0EF0FFFFEF
:101C580034C038F035C039F036C03AF037C03BF000
:101C6800200E3DEF0EF0FFFFD8903B323A3239326A
:101C78003832FFFFE82E37EF0EF038503C6E368EC4
:101C8800FF0E3416FF0E3516FF0E3616000E3716E9
:101C9800960E3D5E3DBE56EF0EF053EF0EF0FFFF81
:101CA80070EF0EF0FFFF3D50800A970FD8B05FEF3E
:101CB8000EF062EF0EF0FFFF65EF0EF0FFFF20EF72
:101CC8000EF0FFFFD89037323632353234323D3E8F
:101CD80065EF0EF08EEF0EF0FFFF1F0E3D6477EFFD
:101CE8000EF07AEF0EF0FFFF84EF0EF0FFFF20EF0B
:101CF8000EF0FFFFD89034363536363637363D0687
:101D0800FFFF3D50D8A48BEF0EF08EEF0EF0FFFFD3
:101D18007DEF0EF0FFFF3C50D8B495EF0EF098EF32
:101D28000EF0FFFFA1EF0EF0FFFF371E361E351E27
:101D3800346C000E352236223722FFFF34C034F0CF
:101D480035C035F036C036F037C037F0FFFF120027
:101D5800FFFFFFFF000E4014486E000E4114496E4D
:101D6800800E42144A6E7F0E43144B6E4850491041
:101D78004A104B10D8A4C3EF0EF0C6EF0EF0FFFFC9
:101D8800CFEF0EF0FFFF000E406E000E416E000E0A
:101D9800426E000E436EFFFF000E4414486E000EA4
:101DA8004514496E800E46144A6E7F0E47144B6EDA
:101DB800485049104A104B10D8A4E5EF0EF0E8EF50
:101DC8000EF0FFFFF1EF0EF0FFFF000E446E000E65
:101DD800456E000E466E000E476EFFFF43AEF7EFEE
:101DE8000EF0FAEF0EF0FFFF04EF0FF0FFFF406C6C
:101DF800411ED8B0412A421ED8B0422A800E43560E
:101E0800FFFF47AE0AEF0FF00DEF0FF0FFFF17EFE0
:101E18000FF0FFFF446C451ED8B0452A461ED8B0C7
:101E2800462A800E4756FFFF000E401A000E411A40
:101E3800000E421A800E431A000E441A000E451A6C
:101E4800000E461A800E471A4450405C45504158CF
:101E58004650425847504358D8B035EF0FF038EF46
:101E68000FF0FFFF3CEF0FF0FFFFD8903EEF0FF0B1
:101E7800FFFFD880FFFF1200FFFFFFFF000E0A6E72
:101E880008BE4CEF0FF049EF0FF0FFFF53EF0FF0D4
:101E9800FFFF076C081ED8B0082A010E0A6EFFFF64
:101EA80006BE5CEF0FF059EF0FF0FFFF63EF0FF086
:101EB800FFFF056C061ED8B0062A010E0A1AFFFF9E
:101EC800000E0C6E000E0B6E07500810D8B46FEFA2
:101ED8000FF072EF0FF0FFFFA3EF0FF0FFFF010EFF
:101EE800096E7CEF0FF0FFFFD89007360836092AF5
:101EF800FFFF08AE82EF0FF085EF0FF0FFFF77EFDF
:101F08000FF0FFFFFFFFD8900B360C360750055C2B
:101F180008500658D8A093EF0FF096EF0FF0FFFF88
:101F28009CEF0FF0FFFF0750055E0850065A0B8024
:101F3800FFFFD89008320732092E86EF0FF0FFFF17
:101F48000A50D8B4AAEF0FF0ADEF0FF0FFFFB2EFD1
:101F58000FF0FFFF0B6C0C1ED8B00C2AFFFF0BC054
:101F680005F00CC006F01200FFFFFFFF20EE04F0A2
:101F78000150D9260250DA22DECF03F0DDCF04F07B
:101F880001C0D9FF02C0DAFFDECF05F0DDCF06F0D1
:101F9800035005260450062201C0D9FF02C0DAFF0B
:101FA80005C0DEFF06C0DDFF20EE02F00150D92695
:101FB8000250DA22DECF03F0DDCF04F0010E032653
:101FC800000E042220EE02F00150D9260250DA2237
:101FD80003C0DEFF04C0DDFF01C0D9FF02C0DAFF85
:101FE800DE2806E1DE28D8A4FCEF0FF0FFEF0FF0A3
:101FF800FFFF0AEF10F0FFFF01C0D9FF02C0DAFFB0
:10200800030EDE6E000EDD6E23EF10F0FFFF01C041
:10201800D9FF02C0DAFF040EDE18DE10D8A417EFCD
:1020280010F01AEF10F0FFFF23EF10F0FFFF01C0D0
:10203800D9FF02C0DAFF000EDE6E000EDD6EFFFF74
:102048001200FFFFFFFF000E086E050E076E370E29
:102058004C24016E000E4D20026ECAEC12F001C035
:1020680005F002C006F041EC0FF005C00DF006C007
:102078000EF0000E0EBEFF0E0F6E106E010E5FEC1E
:102088000CF00DC04EF00EC04FF00FC050F010C055
:1020980051F04EC040F04FC041F050C042F051C026
:1020A80043F0000E446E000E456E400E466E410E23
:1020B800476EADEC0EF0D8A064EF10F067EF10F0AB
:1020C800FFFF89EF10F0FFFF000E406E000E416E1B
:1020D800580E426E410E436E4EC044F04FC045F05C
:1020E80050C046F051C047F0ADEC0EF0D8A07FEFDD
:1020F80010F082EF10F0FFFF89EF10F0FFFF000EE5
:102108004D6E010E4C6E8EEF10F0FFFF000E4D6EFF
:10211800000E4C6EFFFF1200FFFFFFFF010ED4EC14
:1021280013F02D0EF66E7B0EF76E0900FFFFF5CF4C
:1021380010F00900FFFFF5CF11F00900FFFFF5CF00
:1021480012F00A00FFFFF5CF13F0000E156E000E17
:10215800146EFFFF100E1424D96E000E1520DA6ECF
:10216800DF50D4EC13F00CC001F00DC002F0000EEB
:10217800046E500E036EBFEC13F0350E0E6E7B0E20
:102188000F6E01500E2602500F2214C001F015C028
:1021980002F0000E046E140E036EBFEC13F0015033
:1021A8000E24076E02500F20086E71EC12F0144ACC
:1021B800152A15BEE9EF10F015500AE1040E145C5B
:1021C800D8A0E9EF10F0ECEF10F0FFFFADEF10F042
:1021D800FFFF1200FFFFFFFF000E106E000E0F6ED4
:1021E800FFFF0F500924D96E10500A20DA6E0F50E5
:1021F80001240D6E105002200E6E060E0D24E16EA5
:10220800000E0E20E26EDFCFE7FF0F4A102A10BE45
:1022180017EF11F010500AE1040E0F5CD8A017EF69
:1022280011F01AEF11F0FFFFF4EF10F0FFFF01C0FB
:10223800D9FF02C0DAFF03C0DEFF04C0DDFF20EED5
:1022480002F00150D9260250DA2205C0DEFF06C08E
:10225800DDFF20EE04F00150D9260250DA2207C033
:10226800DEFF08C0DDFF20EE0AF00150D92602503B
:10227800DA220BC0DEFF0CC0DDFF1200FFFFFFFFFC
:1022880001C0D9FF02C0DAFF020EDE18DE10D8A4A2
:1022980050EF11F053EF11F0FFFF58EF11F0FFFF6F
:1022A800100E056E84EF11F0FFFF01C0D9FF02C0C8
:1022B800DAFFDE50DE10D8A464EF11F067EF11F0FA
:1022C800FFFF6CEF11F0FFFF000E056E84EF11F0B9
:1022D800FFFF01C0D9FF02C0DAFF0E0EDE18DE10C4
:1022E800D8A479EF11F07CEF11F0FFFF81EF11F026
:1022F800FFFF400E056E84EF11F0FFFF800E056EA4
:10230800FFFF05501200FFFFFFFF836A000E956E66
:10231800846A000E966E849284941E0E036E3C0EA0
:10232800FFFFE82EFDD7032EFBD700D08482380E9E
:10233800D4EC13F01E0E036E3C0EFFFFE82EFDD703
:10234800032EFBD700D0380ED4EC13F01E0E036E0C
:102358003C0EFFFFE82EFDD7032EFBD700D0380E2A
:10236800D4EC13F0080ED4EC13F00F0ED4EC13F0E9
:10237800010ED4EC13F0380ED4EC13F0800ED4EC2C
:1023880013F01200FFFFFFFF20EE02F00950D926DC
:102398000A50DA220B50DE5CDE50800A0F6E0C50B9
:1023A800800A0F58D8A0DBEF11F0DEEF11F0FFFF25
:1023B800EFEF11F0FFFF20EE02F00950D9260A5086
:1023C800DA22000EDE6E000EDD6E000E0A6E010EC1
:1023D800096E00EF12F0FFFF09C001F00AC002F019
:1023E800A1EC12F009C001F00AC002F0B9EC0FF03C
:1023F800000E0A6E000E096EFFFF1200FFFFFFFFBE
:10240800C284FFFFC2B40BEF12F00EEF12F0FFFF11
:1024180005EF12F0FFFF000E1F6E000E206E800EFB
:10242800216E3E0E226EC4500D6E0E6A0F6A106A3F
:10243800010E5FEC0CF00DC01BF00EC01CF00FC0BD
:102448001DF010C01EF01AEC08F01BC034F01CC0C0
:1024580035F01DC036F01EC037F012EC0EF0C90E74
:1024680034243E6EFF0E35203F6E1200FFFFFFFF43
:10247800C284FFFFC2B443EF12F046EF12F0FFFF31
:102488003DEF12F0FFFF0A0E1F6ED70E206E230ECF
:10249800216E3C0E226EC4500D6E0E6A0F6A106AD1
:1024A800010E5FEC0CF00DC01BF00EC01CF00FC04D
:1024B8001DF010C01EF01AEC08F01BC034F01CC050
:1024C80035F01DC036F01EC037F012EC0EF034C0E7
:1024D8003EF035C03FF01200FFFFFFFF000E0B6E0D
:1024E80087EF12F0FFFF0B500724096E000E08203B
:1024F8000A6E09C0F6FF0AC0F7FF0800FFFFF55093
:10250800AAEC13F00B2AFFFF0B500724096E000EEC
:1025180008200A6E09C0F6FF0AC0F7FF0800FFFF8F
:10252800F5500009D8A49BEF12F09EEF12F0FFFFC0
:1025380076EF12F0FFFF1200FFFFFFFF01C0D9FF87
:1025480002C0DAFFDECF03F0DDCF04F001C005F0F2
:1025580002C006F00350052604500622060E052484
:10256800D96E000E0620DA6E10EE0AF00150E12650
:102578000250E222E6CF07F0E5CF08F007C0E1FFFE
:1025880008C0E2FFDFCFE7FF1200FFFFFFFF02BE38
:10259800D9EF12F0025006E10104D8B0D6EF12F0DC
:1025A800D9EF12F0FFFFE8EF12F0FFFF01C003F0D0
:1025B80002C004F0031E041E034A042A03C001F0EB
:1025C80004C002F0EDEF12F0FFFF01C001F002C0FD
:1025D80002F0FFFF1200FFFFFFFF000E151A000EAA
:1025E800161A000E171A800E181A11C001F012C020
:1025F80002F013C003F014C004F015C005F016C0B3
:1026080006F017C007F018C008F046EC05F001C046
:1026180011F002C012F003C013F004C014F012004D
:10262800FFFF860EF66E280EF76E000EF86E00EEAF
:10263800BAF010EE0EF00900F5CFEEFFE550E150CC
:10264800FAE100EE80F03A0EEE6AE806FDE100EEEF
:102658006FF0100EEE6AE806FDE17F907F92000EA3
:10266800F86E00013CEF00F0FFFF0150021003106C
:102678000410D8B442EF13F045EF13F0FFFF4EEF0C
:1026880013F0FFFF000E011A000E021A000E031AC3
:10269800800E041AFFFF01C001F002C002F003C05F
:1026A80003F004C004F01200FFFFFFFF550E4C6E4C
:1026B800550E4D6EC80E4E6E410E4F6E6CEC0AF004
:1026C8004CC034F04DC035F04EC036F04FC037F036
:1026D80012EC0EF03450AF6EAC9CAC8AAC98AC8463
:1026E800AB8EAB9CAB881200FFFFFFFF20EE04F01F
:1026F8000150D9260250DA22DECF03F0DDCF04F0F4
:10270800031E041E034A042A20EE04F00150D926B1
:102718000250DA2203C0DEFF04C0DDFF1200FFFF13
:10272800FFFF000E896E000E806EF10E926E000E95
:102738008A6E000E816E000E936E000E8B6E000E78
:10274800826E000E946E948E1200FFFFFFFF026EE1
:10275800848202504AEC14F08484C80EFFFF00F013
:10276800E82EFCD78492C80EFFFF00F0E82EFCD7B5
:1027780084821200FFFFFFFF01500302F3CF05F030
:10278800F4CF06F001500402F3500626025003026B
:10279800F350062605C001F006C002F01200FFFF44
:1027A800FFFF026E848202504AEC14F08494C80E33
:1027B800FFFF00F0E82EFCD78492C80EFFFF00F060
:1027C800E82EFCD784821200FFFFFFFFFFFF03EC17
:1027D80012F0C90E3E1806E13F28D8A4F6EF13F010
:1027E800F9EF13F0FFFFEAEF13F0FFFF1200FFFF0E
:1027F800FFFF000ED56E690ED66E670ED76EF28A91
:10280800D59CD59AD596D590D582D584D58E1200EB
:10281800FFFFFFFF016E01C0ADFFFFFFACA217EF86
:1028280014F01AEF14F0FFFF11EF14F0FFFF12007D
:10283800FFFFFFFF000EC26EC296C298C29AC28006
:10284800000EC46E000EC36E000EC16E1200FFFFB4
:10285800FFFF000EC26EC296C298C28AC280000EE6
:10286800C46E000EC36E000EC16E1200FFFFFFFFA4
:10287800AECF01F0000EAE6E01501200FFFFBD3763
:10288800863408001020408001020408FFFF016E12
:1028980001C083FF1200FFFFFFFF9E9A9D8AF28C02
:0628A8001200FFFFFFFF1C
:107B2800000000004B80C094D40000164649444C25
:107B3800453A2077616974696E6720666F72000044
:107B4800007669616C20746F20626520706C6163D7
:107B58006564000000696E20696E697420706F7337
:107B6800000000000000000000000000000000000D
:107B780000000000000000000000000000494E491D
:107B8800545F504F533A20746865207669616C00E1
:107B98000069732061742074686520696E697420B7
:107BA800706F73000070726F636573732069732060
:107BB8007374617274696E67000000000000000051
:107BC800000000000000000000000000004D4F56BB
:107BD800454D454E54000000000000000000000024
:107BE800000000000000000000000000000000008D
:107BF800000000000000000000000000000000007D
:107C0800000000000000000000000000000000006C
:107C1800000000000000000000000000004F564572
:107C28004E3A0000000000000000000000000000C4
:107C3800007669616C2068617320726561636865AC
:107C48006400000000746865206F76656E000000AF
:107C5800000000000000000000000000000000001C
:107C6800000000000000000000000000004F564522
:107C78004E3A207265616368696E672074686500B2
:107C880000636F72726563742074656D70657261EC
:107C9800747572650000000000000000000000001C
:107CA80000000000000000000000000000000000CC
:107CB80000000000000000000000000000475241E2
:107CC8005350494E473A20746865207669616C00C4
:107CD8000068617320726561636865642074686513
:107CE80000000000006D6978696E67207374617424
:107CF800696F6E0000000000000000000000000036
:107D08000000000000000000000000000047524191
:107D18005350494E473A00000000000000000000A0
:107D2800006772617370696E672068617300000094
:107D38000000000000737461727465640000000044
:107D4800000000000000000000000000000000002B
:107D5800000000000000000000000000004D49582D
:107D6800494E473A20746865207669616C000000C6
:107D78000077696C6C206E6F7720626500000000E8
:107D8800000000000074696C746564203130207450
:107D9800696D65730000000000000000000000002D
:107DA8000000000000000000000000000044494CF2
:107DB8005554494E473A2074686500000000000099
:107DC8000076616363696E652077696C6C206E6FFD
:107DD800770000000062652064696C757465640052
:107DE800000000000000000000000000000000008B
:107DF8000000000000000000000000000052454C98
:107E0800454153494E473A00000000000000000079
:107E18000072656C656173696E6720686173000044
:107E28000000000000737461727465640000000053
:107E3800000000000000000000000000000000003A
:107E4800000000000000000000000000005049434E
:107E58004B5F55503A20746865207669616C000064
:107E68000068617320726561636865642074686581
:107E780000000000007069636B20757020737461E6
:107E880074696F6E00000000000000000000000030
:107E980000000000000000000000000000504943FE
:107EA8004B5F55503A20706C6561736500000000A7
:107EB800007069636B2075702074686500000000AD
:107EC80000000000007669616C206265666F72656B
:107ED80000000000000000000074696D656F757493
:107EE80000000000000000000000000000504943AE
:107EF8004B5F55503A20746865207669616C0000C4
:107F080000686173206265656E207069636B6564E3
:107F18000000000000676F696E67206261636B2074
:107F2800746F0000000000000069646C65000000C8
:107F38000000000000000000000000000054524152
:107F480053483A2074696D656F757400000000002D
:107F58000065786365656465642074686500000081
:107F680000000000007669616C2077696C6C206203
:107F780065000000000000000074726173686564A9
:107F88000000000000000000000000000045525200
:107F98004F52000000000000000000000000000038
:107FA80000000000000000000000000000000000C9
:107FB80000000000000000000000000000000000B9
:107FC80000000000000000000000000000000000A9
:107FD8000000000000000000000000000000247401
:107FE8004A44657669636520686173206265656ED9
:087FF80020726573657400003E
:020000040020DA
:08000000FFFFFFFFFFFFFFFF00
:020000040030CA
:0E000000FF270F0EFF0185FF0FC00FE00F401E
:00000001FF
