:020000040000FA
:0600000000F03BEF00F0F0
:10000800FFFF7F829DAA0BEF00F00EEF00F0FFFFCD
:100018001EEF00F0FFFF9EAA14EF00F017EF00F0AC
:10002800FFFF1EEF00F0FFFF9E9A010E0101B06F67
:10003800010EAE6FFFFFF2AA24EF00F027EF00F0E9
:10004800FFFF37EF00F0FFFFF2A42DEF00F030EFD5
:1000580000F0FFFF37EF00F0FFFF000ED56EF294BF
:10006800010E0101AD6FFFFF7F921100FFFF6EEFE0
:1000780035F0FFFF45C0D9FF46C0DAFFDECFF6FFF7
:10008800DDCFF7FF0800FFFFF550250AD8A44FEF92
:1000980000F052EF00F0FFFF11EF0AF0FFFF45C03C
:1000A800D9FF46C0DAFFDE2A000EDD22000E00016D
:1000B800876F000E866F86C08AF087C08BF08869CC
:1000C8008969000E506E000E4F6EC0EF00F0FFFF02
:1000D80000018A81FFFF45C0D9FF46C0DAFFDE2A4A
:1000E800000EDD22C0EF00F0FFFF00018A836EEFF3
:1000F80000F0FFFF00018A856EEF00F0FFFF0001AE
:100108008A876EEF00F0FFFF00018A896EEF00F02A
:10011800FFFF000E506E010E4F6EC0EF00F0FFFFA4
:1001280045C0D9FF46C0DAFFDECFF6FFDDCFF7FFC7
:100138000800FFFFF550496E4A6A4A50000AD8B4D1
:10014800A8EF00F08CEF00F0FFFF4950200AD8B468
:1001580082EF00F0030AD8B487EF00F0080AD8B499
:100168007DEF00F0060AD8B46BEF00F01D0AD8B492
:1001780078EF00F08CEF00F0FFFF4F505010D8B42C
:10018800C8EF00F0CBEF00F0FFFF93EF00F0FFFFA8
:1001980000018AA1D2EF00F0D5EF00F0FFFFD7EF02
:1001A80000F0FFFF8A93FFFF45C0D9FF46C0DAFF82
:1001B800DECFF6FFDDCFF7FF0800FFFFF5502A0A74
:1001C800D8A4E9EF00F0ECEF00F0FFFF18EF01F022
:1001D800FFFF45C0D9FF46C0DAFFDE2A000EDD2248
:1001E80047C0D9FF48C0DAFFDFCF49F0020EDE264C
:1001F800DFCF4AF0000EDD2249C0D9FF4AC0DAFF3E
:10020800DECF86F0DDCF87F087BF10EF01F00DEF6E
:1002180001F0FFFF63EF01F0FFFF8A81866D871F02
:10022800D8B0872B63EF01F0FFFF45C0D9FF46C068
:10023800DAFFDECF08F0DDCF09F034EC1EF008C09D
:1002480086F009C087F031EF01F0FFFF45C0D9FF04
:1002580046C0DAFFDE2A000EDD22FFFFD00E496E0F
:10026800FF0E4A6E45C0D9FF46C0DAFFDECFF6FF63
:10027800DDCFF7FF0800FFFFF5504B6E4C6A495081
:100288004B264A504C224C500BE10A0E4B5CD8A02E
:1002980050EF01F054EF01F0FFFF010E56EF01F0AF
:1002A800FFFF000EFFFF516E526A51505210D8A442
:1002B80060EF01F063EF01F0FFFF29EF01F0FFFFAE
:1002C80045C0D9FF46C0DAFFDECFF6FFDDCFF7FF26
:1002D8000800FFFFF5502E0AD8A475EF01F078EF5B
:1002E80001F0FFFF02EF02F0FFFF000E0001896F2F
:1002F800000E886F45C0D9FF46C0DAFFDE2A000E1F
:10030800DD2245C0D9FF46C0DAFFDECFF6FFDDCFDC
:10031800F7FF0800FFFFF5502A0AD8A496EF01F06E
:1003280099EF01F0FFFFB7EF01F0FFFF45C0D9FFDC
:1003380046C0DAFFDE2A000EDD2247C0D9FF48C0DA
:10034800DAFFDFCF49F0020EDE26DFCF4AF0000EDB
:10035800DD2249C0D9FF4AC0DAFFDECF88F0DDCF01
:1003680089F002EF02F0FFFF45C0D9FF46C0DAFF6F
:10037800DECF08F0DDCF09F034EC1EF008C088F0BD
:1003880009C089F0D0EF01F0FFFF45C0D9FF46C092
:10039800DAFFDE2A000EDD22FFFFD00E496EFF0EC7
:1003A8004A6E45C0D9FF46C0DAFFDECFF6FFDDCF83
:1003B800F7FF0800FFFFF5504B6E4C6A49504B267B
:1003C8004A504C224C500BE10A0E4B5CD8A0EFEF80
:1003D80001F0F3EF01F0FFFF010EF5EF01F0FFFF71
:1003E800000EFFFF536E546A53505410D8A4FFEF09
:1003F80001F002EF02F0FFFFC8EF01F0FFFF45C078
:10040800D9FF46C0DAFFDECFF6FFDDCFF7FF0800E1
:10041800FFFFF550630AD8A414EF02F017EF02F0BB
:10042800FFFF3FEF02F0FFFF45C0D9FF46C0DAFFEC
:10043800DE2A000EDD2247C0D9FF48C0DAFFDFCF31
:1004480049F0020EDE26DFCF4AF0000EDD2249C059
:10045800D9FF4AC0DAFFDF505F6E43C01CF044C0CA
:100468001DF05FC01EF03BEC35F01CC043F01DC012
:1004780044F02EEF0AF0FFFF45C0D9FF46C0DAFF6F
:10048800DECF01F0DDCF02F0CF0E036E7F0E046EDB
:10049800000E066E030E056E1BEC3BF001500210B9
:1004A800D8B459EF02F05CEF02F0FFFF79EF02F0E9
:1004B800FFFF45C0D9FF46C0DAFFDECF01F0DDCF30
:1004C80002F0D30E036E7F0E046E000E066E030E4E
:1004D800056E1BEC3BF001500210D8A476EF02F039
:1004E80079EF02F0FFFFBBEF02F0FFFF030E45C0FC
:1004F800D9FF46C0DAFFDE26000EDD2247C0D9FF4D
:1005080048C0DAFFDFCF49F0020EDE26DFCF4AF01F
:10051800000EDD2249C0D9FF4AC0DAFFDF50556E10
:10052800000E55BEFF0E566E576E586E596E5A6EB7
:100538005B6E5C6EFFFF43C01CF044C01DF055C0ED
:100548001EF056C01FF057C020F058C021F059C007
:1005580022F05AC023F05BC024F05CC025F0F3EC15
:1005680016F01CC043F01DC044F02EEF0AF0FFFF48
:1005780045C0D9FF46C0DAFFDECF01F0DDCF02F07B
:10058800D00E036E7F0E046E000E066E020E056E10
:100598001BEC3BF001500210D8B4D5EF02F0D8EFB5
:1005A80002F0FFFFF5EF02F0FFFF45C0D9FF46C09C
:1005B800DAFFDECF01F0DDCF02F0D40E036E7F0E3E
:1005C800046E000E066E020E056E1BEC3BF0015029
:1005D8000210D8A4F2EF02F0F5EF02F0FFFF1DEFD2
:1005E80003F0FFFF020E45C0D9FF46C0DAFFDE2642
:1005F800000EDD2247C0D9FF48C0DAFFDFCF49F03F
:10060800020EDE26DFCF4AF0000EDD2249C0D9FFF8
:100618004AC0DAFFDECF55F0DDCF56F0000E56BEE9
:10062800FF0E576E586E596E5A6E5B6E5C6E9EEF7B
:1006380002F0FFFF45C0D9FF46C0DAFFDECFF6FF64
:10064800DDCFF7FF0800FFFFF550640AD8B42FEF9D
:1006580003F032EF03F0FFFF47EF03F0FFFF45C061
:10066800D9FF46C0DAFFDECFF6FFDDCFF7FF08007F
:10067800FFFFF550690AD8A444EF03F047EF03F0F1
:10068800FFFF6EEF03F0FFFF45C0D9FF46C0DAFF5A
:10069800DE2A000EDD2247C0D9FF48C0DAFFDFCFCF
:1006A80049F0020EDE26DFCF4AF0000EDD2249C0F7
:1006B800D9FF4AC0DAFFDECF55F0DDCF56F0000E85
:1006C80056BEFF0E576E586E596E5A6E5B6E5C6E54
:1006D8009EEF02F0FFFF45C0D9FF46C0DAFFDECF2C
:1006E80001F0DDCF02F0EA0E036E7F0E046E000EFD
:1006F800066E020E056E1BEC3BF001500210D8B4DA
:1007080088EF03F08BEF03F0FFFFA8EF03F0FFFF84
:1007180045C0D9FF46C0DAFFDECF01F0DDCF02F0D9
:10072800ED0E036E7F0E046E000E066E020E056E51
:100738001BEC3BF001500210D8A4A5EF03F0A8EF82
:1007480003F0FFFFD1EF03F0FFFF020E45C0D9FF12
:1007580046C0DAFFDE26000EDD2247C0D9FF48C0BA
:10076800DAFFDFCF49F0020EDE26DFCF4AF0000EB7
:10077800DD2249C0D9FF4AC0DAFFDECF4BF0DDCF1A
:100788004CF04BC055F04CC056F0576A586A596A3D
:100798005A6A5B6A5C6A9EEF02F0FFFF45C0D9FFA8
:1007A80046C0DAFFDECF01F0DDCF02F0DB0E036ECC
:1007B8007F0E046E000E066E030E056E1BEC3BF0FA
:1007C80001500210D8A4EBEF03F0EEEF03F0FFFFA7
:1007D8002FEF04F0FFFF030E45C0D9FF46C0DAFF34
:1007E800DE26000EDD2247C0D9FF48C0DAFFDFCF82
:1007F80049F0020EDE26DFCF4AF0000EDD2249C0A6
:10080800D9FF4AC0DAFFDF504B6E4B50606E616A09
:10081800626A636A646A656A666A676AFFFF43C0F8
:100828001CF044C01DF060C01EF061C01FF062C023
:1008380020F063C021F064C022F065C023F066C0D8
:1008480024F067C025F03BEC1BF01CC043F01DC032
:1008580044F02EEF0AF0FFFF45C0D9FF46C0DAFF8B
:10086800DECF01F0DDCF02F0DC0E036E7F0E046EEA
:10087800000E066E020E056E1BEC3BF001500210D6
:10088800D8A449EF04F04CEF04F0FFFF75EF04F033
:10089800FFFF020E45C0D9FF46C0DAFFDE26000E74
:1008A800DD2247C0D9FF48C0DAFFDFCF49F0020E8A
:1008B800DE26DFCF4AF0000EDD2249C0D9FF4AC04C
:1008C800DAFFDECF4BF0DDCF4CF04BC060F04CC010
:1008D80061F0626A636A646A656A666A676A12EFE7
:1008E80004F0FFFF45C0D9FF46C0DAFFDECFF6FFB0
:1008F800DDCFF7FF0800FFFFF5506F0AD8A487EF98
:1009080004F08AEF04F0FFFFB2EF04F0FFFF45C0E8
:10091800D9FF46C0DAFFDE2A000EDD2247C0D9FF24
:1009280048C0DAFFDFCF49F0020EDE26DFCF4AF0FB
:10093800000EDD2249C0D9FF4AC0DAFFDECF4BF0F6
:10094800DDCF4CF04BC060F04CC061F0626A636A66
:10095800646A656A666A676A12EF04F0FFFF45C059
:10096800D9FF46C0DAFFDECF01F0DDCF02F0F30E8B
:10097800036E7F0E046E000E066E020E056E1BECF3
:100988003BF001500210D8A4CCEF04F0CFEF04F0F4
:10099800FFFFF8EF04F0FFFF020E45C0D9FF46C085
:1009A800DAFFDE26000EDD2247C0D9FF48C0DAFF95
:1009B800DFCF49F0020EDE26DFCF4AF0000EDD223F
:1009C80049C0D9FF4AC0DAFFDECF4BF0DDCF4CF08B
:1009D8004BC060F04CC061F0626A636A646A656A21
:1009E800666A676A12EF04F0FFFF45C0D9FF46C088
:1009F800DAFFDECF01F0DDCF02F0D70E036E7F0EF7
:100A0800046E000E066E030E056E1BEC3BF00150E3
:100A18000210D8A412EF05F015EF05F0FFFF4BEF19
:100A280005F0FFFF030E45C0D9FF46C0DAFFDE26FA
:100A3800000EDD2247C0D9FF48C0DAFFDFCF49F0FA
:100A4800020EDE26DFCF4AF0000EDD2249C0D9FFB4
:100A58004AC0DAFFDECF5DF0DDCF5EF05DC0F6FFA5
:100A68005EC0F7FFF86A050EF76404D084C0F5FF8E
:100A78000C0006D0F6CFE1FFF7CFE2FF84C0E7FF16
:100A8800FFFF000E446E000E436E2EEF0AF0FFFFCC
:100A980045C0D9FF46C0DAFFDECF01F0DDCF02F056
:100AA800D80E036E7F0E046E000E066E020E056EE3
:100AB8001BEC3BF001500210D8A465EF05F068EF7D
:100AC80005F0FFFF9EEF05F0FFFF020E45C0D9FFBE
:100AD80046C0DAFFDE26000EDD2247C0D9FF48C037
:100AE800DAFFDFCF49F0020EDE26DFCF4AF0000E34
:100AF800DD2249C0D9FF4AC0DAFFDECF5DF0DDCF85
:100B08005EF05DC0F6FF5EC0F7FFF86A050EF76499
:100B180007D084C0F5FF0D0085C0F5FF0C0008D094
:100B2800F6CFE1FFF7CFE2FF84C0E6FF85C0E7FF1D
:100B380044EF05F0FFFF45C0D9FF46C0DAFFDECF1E
:100B4800F6FFDDCFF7FF0800FFFFF5506E0AD8A4C7
:100B5800B0EF05F0B3EF05F0FFFFE8EF05F0FFFF9A
:100B680045C0D9FF46C0DAFFDE2A000EDD2247C0A5
:100B7800D9FF48C0DAFFDFCF49F0020EDE26DFCF0B
:100B88004AF0000EDD2249C0D9FF4AC0DAFFDECFA5
:100B98005DF0DDCF5EF05DC0F6FF5EC0F7FFF86A7E
:100BA800050EF76407D084C0F5FF0D0085C0F5FF7A
:100BB8000C0008D0F6CFE1FFF7CFE2FF84C0E6FFD4
:100BC80085C0E7FF44EF05F0FFFF45C0D9FF46C0E9
:100BD800DAFFDECF01F0DDCF02F0F00E036E7F0EFC
:100BE800046E000E066E020E056E1BEC3BF0015003
:100BF8000210D8A402EF06F005EF06F0FFFF3BEF66
:100C080006F0FFFF020E45C0D9FF46C0DAFFDE2618
:100C1800000EDD2247C0D9FF48C0DAFFDFCF49F018
:100C2800020EDE26DFCF4AF0000EDD2249C0D9FFD2
:100C38004AC0DAFFDECF5DF0DDCF5EF05DC0F6FFC3
:100C48005EC0F7FFF86A050EF76407D084C0F5FFA9
:100C58000D0085C0F5FF0C0008D0F6CFE1FFF7CFF7
:100C6800E2FF84C0E6FF85C0E7FF44EF05F0FFFF21
:100C780045C0D9FF46C0DAFFDECFF6FFDDCFF7FF6C
:100C88000800FFFFF550700AD8A44DEF06F050EFAA
:100C980006F0FFFF94EF06F0FFFF45C0D9FF46C0FE
:100CA800DAFFDE2A000EDD2247C0D9FF48C0DAFF8E
:100CB800DFCF49F0020EDE26DFCF4AF0000EDD223C
:100CC80049C0D9FF4AC0DAFFDECF4BF0DDCF4CF088
:100CD8004BC060F04CC061F0626A636A646A656A1E
:100CE800666A676A43C01CF044C01DF060C01EF00D
:100CF80061C01FF062C020F063C021F064C022F020
:100D080065C023F066C024F067C025F0780E266E13
:100D18008DEC18F01CC043F01DC044F02EEF0AF013
:100D2800FFFF45C0D9FF46C0DAFFDECFF6FFDDCFB3
:100D3800F7FF0800FFFFF550730AD8A4A6EF06F0E6
:100D4800A9EF06F0FFFFD5EF06F0FFFF45C0D9FF7A
:100D580046C0DAFFDE2A000EDD2247C0D9FF48C0B0
:100D6800DAFFDFCF49F0020EDE26DFCF4AF0000EB1
:100D7800DD2249C0D9FF4AC0DAFFDECF4DF0DDCF12
:100D88004EF043C00AF044C00BF04DC00CF04EC00A
:100D98000DF04AEC1DF00AC043F00BC044F02EEFF2
:100DA8000AF0FFFF45C0D9FF46C0DAFFDECF01F0E9
:100DB800DDCF02F0DF0E036E7F0E046E000E066EAE
:100DC800030E056E1BEC3BF001500210D8A4EFEFA8
:100DD80006F0F2EF06F0FFFF33EF07F0FFFF030E18
:100DE80045C0D9FF46C0DAFFDE26000EDD2247C027
:100DF800D9FF48C0DAFFDFCF49F0020EDE26DFCF89
:100E08004AF0000EDD2249C0D9FF4AC0DAFFDF50A0
:100E18004B6E4B50606E616A626A636A646A656AA7
:100E2800666A676AFFFF43C01CF044C01DF060C0DB
:100E38001EF061C01FF062C020F063C021F064C0E2
:100E480022F065C023F066C024F067C025F025ECC9
:100E58001AF01CC043F01DC044F02EEF0AF0FFFF4B
:100E680045C0D9FF46C0DAFFDECF01F0DDCF02F082
:100E7800E00E036E7F0E046E000E066E020E056E07
:100E88001BEC3BF001500210D8A44DEF07F050EFD7
:100E980007F0FFFF79EF07F0FFFF020E45C0D9FF0B
:100EA80046C0DAFFDE26000EDD2247C0D9FF48C063
:100EB800DAFFDFCF49F0020EDE26DFCF4AF0000E60
:100EC800DD2249C0D9FF4AC0DAFFDECF4BF0DDCFC3
:100ED8004CF04BC060F04CC061F0626A636A646AAF
:100EE800656A666A676A16EF07F0FFFF45C0D9FFB3
:100EF80046C0DAFFDECFF6FFDDCFF7FF0800FFFFC1
:100F0800F550750AD8A48BEF07F08EEF07F0FFFFB6
:100F1800B6EF07F0FFFF45C0D9FF46C0DAFFDE2A6B
:100F2800000EDD2247C0D9FF48C0DAFFDFCF49F005
:100F3800020EDE26DFCF4AF0000EDD2249C0D9FFBF
:100F48004AC0DAFFDECF4BF0DDCF4CF04BC060F08B
:100F58004CC061F0626A636A646A656A666A676A55
:100F680016EF07F0FFFF45C0D9FF46C0DAFFDECF16
:100F780001F0DDCF02F0F60E036E7F0E046E000E58
:100F8800066E020E056E1BEC3BF001500210D8A451
:100F9800D0EF07F0D3EF07F0FFFFFCEF07F0FFFFFC
:100FA800020E45C0D9FF46C0DAFFDE26000EDD225C
:100FB80047C0D9FF48C0DAFFDFCF49F0020EDE266E
:100FC800DFCF4AF0000EDD2249C0D9FF4AC0DAFF60
:100FD800DECF4BF0DDCF4CF04BC060F04CC061F081
:100FE800626A636A646A656A666A676A16EF07F026
:100FF800FFFF45C0D9FF46C0DAFFDECF01F0DDCFE5
:1010080002F0E30E036E7F0E046E000E066E030EF2
:10101800056E1BEC3BF001500210D8B416EF08F037
:1010280019EF08F0FFFF36EF08F0FFFF45C0D9FFC2
:1010380046C0DAFFDECF01F0DDCF02F0CB0E036E43
:101048007F0E046E000E066E030E056E1BEC3BF061
:1010580001500210D8A433EF08F036EF08F0FFFF74
:101068008DEF08F0FFFF45C0D9FF46C0DAFFDECF9D
:1010780049F0DDCF4AF0020E4926000E4A2249C047
:10108800F6FF4AC0F7FF0800FFFFF5CF5FF0030E39
:1010980045C0D9FF46C0DAFFDE26000EDD2247C074
:1010A800D9FF48C0DAFFDFCF49F0020EDE26DFCFD6
:1010B8004AF0000EDD2249C0D9FF4AC0DAFFDF50EE
:1010C8004B6E4B50606E616A626A636A646A656AF5
:1010D800666A676AFFFF43C01CF044C01DF060C029
:1010E8001EF061C01FF062C020F063C021F064C030
:1010F80022F065C023F066C024F067C025F05FC009
:1011080026F08DEC18F01CC043F01DC044F02EEF03
:101118000AF0FFFF45C0D9FF46C0DAFFDECF01F075
:10112800DDCF02F0E40E036E7F0E046E000E066E35
:10113800020E056E1BEC3BF001500210D8B4A7EF6D
:1011480008F0AAEF08F0FFFFC7EF08F0FFFF45C05F
:10115800D9FF46C0DAFFDECF01F0DDCF02F0CC0EBA
:10116800036E7F0E046E000E066E020E056E1BECFB
:101178003BF001500210D8A4C4EF08F0C7EF08F004
:10118800FFFF04EF09F0FFFF45C0D9FF46C0DAFFB3
:10119800DECF49F0DDCF4AF0010E4926000E4A2283
:1011A80049C0F6FF4AC0F7FF0800FFFFF5CF5FF020
:1011B800020E45C0D9FF46C0DAFFDE26000EDD224A
:1011C80047C0D9FF48C0DAFFDFCF49F0020EDE265C
:1011D800DFCF4AF0000EDD2249C0D9FF4AC0DAFF4E
:1011E800DECF4BF0DDCF4CF04BC060F04CC061F06F
:1011F800626A636A646A656A666A676A6EEF08F0BB
:10120800FFFF45C0D9FF46C0DAFFDECFF6FFDDCFCE
:10121800F7FF0800FFFFF550780AD8B416EF09F079
:1012280019EF09F0FFFF2EEF09F0FFFF45C0D9FFC6
:1012380046C0DAFFDECFF6FFDDCFF7FF0800FFFF7D
:10124800F550580AD8A42BEF09F02EEF09F0FFFF4C
:1012580062EF09F0FFFF45C0D9FF46C0DAFFDECFD5
:10126800F6FFDDCFF7FF0800FFFFF5CF5FF045C0C1
:10127800D9FF46C0DAFFDE2A000EDD2247C0D9FFBB
:1012880048C0DAFFDFCF49F0020EDE26DFCF4AF092
:10129800000EDD2249C0D9FF4AC0DAFFDECF4BF08D
:1012A800DDCF4CF04BC060F04CC061F0626A636AFD
:1012B800646A656A666A676A6EEF08F0FFFF45C090
:1012C800D9FF46C0DAFFDECF01F0DDCF02F0F90E1C
:1012D800036E7F0E046E000E066E020E056E1BEC8A
:1012E8003BF001500210D8B47CEF09F07FEF09F011
:1012F800FFFF9CEF09F0FFFF45C0D9FF46C0DAFFAA
:10130800DECF01F0DDCF02F0E70E036E7F0E046E34
:10131800000E066E020E056E1BEC3BF0015002102B
:10132800D8A499EF09F09CEF09F0FFFFD9EF09F075
:10133800FFFF45C0D9FF46C0DAFFDECF49F0DDCF59
:101348004AF0010E4926000E4A2249C0F6FF4AC05B
:10135800F7FF0800FFFFF5CF5FF0020E45C0D9FF89
:1013680046C0DAFFDE26000EDD2247C0D9FF48C09E
:10137800DAFFDFCF49F0020EDE26DFCF4AF0000E9B
:10138800DD2249C0D9FF4AC0DAFFDECF4BF0DDCFFE
:101398004CF04BC060F04CC061F0626A636A646AEA
:1013A800656A666A676A6EEF08F0FFFF45C0D9FF95
:1013B80046C0DAFFDECFF6FFDDCFF7FF0800FFFFFC
:1013C800F550250AD8A4EBEF09F0EEEF09F0FFFF7E
:1013D80007EF0AF0FFFF45C0D9FF46C0DAFFDE2A53
:1013E800000EDD22000E026E250E016E43C003F0D2
:1013F80044C004F04AEC39F0FFFF000E446E010EC1
:10140800436E2EEF0AF0FFFF45C0D9FF46C0DAFF52
:10141800DE2A000EDD2244EF05F0FFFF45C0D9FFAC
:1014280046C0DAFFDECFF6FFDDCFF7FF0800FFFF8B
:10143800F550016E026A43C003F044C004F04AEC60
:1014480039F045C0D9FF46C0DAFFDE2A000EDD229A
:1014580000EF0AF0FFFF1200FFFFFFFF39EC33F047
:10146800C3EC33F008EC38F0C0EC32F07BEC32F02F
:10147800D2EC32F0BF0E016E010E026E000E046E49
:10148800000E036E000E066E000E056E000E086E4E
:10149800010E076EE70E096E010E0A6E4EEC37F06C
:1014A800B10E016E010E026E000E046E000E036E88
:1014B800000E066E000E056E000E086E010E076E19
:1014C800DF0E096E010E0A6E4EEC37F086EC36F030
:1014D8000C0EFAEC32F0010EFAEC32F0800EFAEC57
:1014E80032F0930E036E7F0E046EC5EC36F0F28E6A
:1014F800000E0101AC6F000EAB6FFFFF0101B05190
:10150800D8B489EF0AF08CEF0AF0FFFFDFEF0AF09A
:10151800FFFFAE51D8B493EF0AF096EF0AF0FFFF41
:10152800A7EF0AF0FFFF87EC32F00101A26FCD0EA2
:10153800036E010E046EA251F1EC3DF0000E0101A4
:10154800AE6FB0EF0AF0FFFFCD0E016E010E026E16
:1015580009EC37F08FEC32F0FFFF000E0001C26F8C
:10156800010EC36F000EC56FA00EC46FFC0EC66FD0
:101578007F0EC76FD8900101CD35D96ECE35DA6EA2
:10158800CF0ED926010EDA22DECFC8F0DDCFC9F0A2
:101598004FEC33F0010EFAEC32F0800EFAEC32F038
:1015A800000E036E010E046EC5EC36F0000E01014C
:1015B800B06F000EAF6FFFFF020ECD19CE11D8A489
:1015C800E8EF0AF0EBEF0AF0FFFF30EF0BF0FFFF58
:1015D8008982A351A411D8B4F4EF0AF0F7EF0AF006
:1015E800FFFF0CEF0BF0FFFFA6BF07EF0BF0A651B4
:1015F80007E1640EA55DD8B004EF0BF007EF0BF020
:10160800FFFF0CEF0BF0FFFFA54BA62B81EF0AF0B5
:10161800FFFFA351A411D8B414EF0BF017EF0BF090
:10162800FFFF3FEF0BF0FFFFA6BF24EF0BF0A65123
:101638000AE1640EA55DD8A024EF0BF027EF0BF0AC
:10164800FFFF3FEF0BF0FFFF000ECE6F000ECD6FD8
:10165800010EB06F81EF0AF0FFFF8992CD51CE11D4
:10166800D8A439EF0BF03CEF0BF0FFFF42EF0BF083
:10167800FFFF81EF0AF0FFFF81EF0AF0FFFFCD05C2
:10168800CE11D8A44AEF0BF04DEF0BF0FFFF58EF47
:101698000BF0FFFFFFFF000E0101CE6F020ECD6FB2
:1016A800010EB06F81EF0AF0FFFF030ECD19CE11C6
:1016B800D8A461EF0BF064EF0BF0FFFF6DEF0BF0B8
:1016C800FFFF000ECE6F090ECD6F010EB06F81EFD8
:1016D8000AF0FFFF090ECD19CE11D8A476EF0BF052
:1016E80079EF0BF0FFFFBAEF0BF0FFFFAD51D8B465
:1016F80080EF0BF083EF0BF0FFFFA3EF0BF0FFFF82
:1017080011EC36F0D4C0D6F0D5C0D7F0DCEC38F008
:101718000001D651D711D8B494EF0BF097EF0BF026
:10172800FFFF3FEF0BF0FFFF000E0101CE6F020E2F
:10173800CD6F010EB06F000EAD6F81EF0AF0FFFFA5
:10174800D5BEA9EF0BF0ACEF0BF0FFFFB1EF0BF03C
:10175800FFFFE6EC32F0AFEC32F0FFFF11EC36F0B1
:10176800D4C0A0F1D5C0A1F181EF0AF0FFFF040EAB
:10177800CD19CE11D8A4C3EF0BF0C6EF0BF0FFFFC5
:10178800CFEF0BF0FFFF000ECE6F0A0ECD6F010EEC
:10179800B06F81EF0AF0FFFF0A0ECD19CE11D8A461
:1017A800D8EF0BF0DBEF0BF0FFFF77EF0CF0FFFF4C
:1017B800030E0001DD6FEB0EFFFFE82EFDD7DD2FD6
:1017C800FBD700D000F00101A951AA11D8B4EFEF5E
:1017D8000BF0F2EF0BF0FFFF0DEF0CF0FFFFBF0E69
:1017E800076E010E086E000E0A6E320E096E4AEC84
:1017F80036F007500810D8B404EF0CF007EF0CF0DF
:10180800FFFF0DEF0CF0FFFF000E0101AA6F000EA5
:10181800A96FFFFF0101A951AA11D8A416EF0CF076
:1018280019EF0CF0FFFF3FEF0CF0FFFFA751A811D5
:10183800D8B421EF0CF024EF0CF0FFFF3FEF0CF0D1
:10184800FFFFB10E076E010E086E000E0A6E640EE1
:10185800096E4AEC36F007500810D8B436EF0CF091
:1018680039EF0CF0FFFF3FEF0CF0FFFF000E010116
:10187800A86F000EA76FFFFF0101A751A811D8B4E8
:1018880048EF0CF04CEF0CF0FFFF010E4EEF0CF0A0
:10189800FFFF000EFFFF016E026AA951AA11D8B41A
:1018A80058EF0CF05CEF0CF0FFFF010E5EEF0CF050
:1018B800FFFF000EFFFF036E046A24EC33F00150B3
:1018C8000210D8B46AEF0CF06DEF0CF0FFFF81EF57
:1018D8000AF0FFFF000E0101CE6F050ECD6F010E5D
:1018E800B06F81EF0AF0FFFF050ECD19CE11D8A415
:1018F80080EF0CF083EF0CF0FFFFEBEF0CF0FFFF35
:10190800030E0001DD6FEB0EFFFFE82EFDD7DD2F84
:10191800FBD700D000F0BF0E076E010E086E000E58
:101928000A6E640E096E4AEC36F007500810D8B4F7
:10193800A0EF0CF0A3EF0CF0FFFFADEF0CF0FFFFF2
:10194800BF0E016E010E026E69EC33F00101AB4B64
:10195800AC2BFFFF0101ACBFBBEF0CF0AC510AE1AF
:10196800140EAB5DD8A0BBEF0CF0BEEF0CF0FFFF80
:1019780081EF0AF0FFFF000ECE6F060ECD6F000E4E
:10198800AC6F000EAB6FBF0E016E010E026E000E43
:10199800046E000E036E000E066E000E056E000E3D
:1019A800086E010E076EE70E096E010E0A6E4EEC08
:1019B80037F0BF0E016E010E026E69EC33F0B10E06
:1019C800016E010E026E69EC33F081EF0AF0FFFF41
:1019D800060ECD19CE11D8A4F4EF0CF0F7EF0CF0E9
:1019E800FFFF73EF0DF0FFFF030E0001DD6FEB0E3D
:1019F800FFFFE82EFDD7DD2FFBD700D000F0010157
:101A0800A751A811D8A40BEF0DF00EEF0DF0FFFFB2
:101A180029EF0DF0FFFFB10E076E010E086E000EE4
:101A28000A6E640E096E4AEC36F007500810D8B4F6
:101A380020EF0DF023EF0DF0FFFF29EF0DF0FFFF72
:101A4800000E0101A86F010EA76FFFFF0101A7514A
:101A5800A811D8B432EF0DF035EF0DF0FFFF5BEFB2
:101A68000DF0FFFFA951AA11D8A43DEF0DF040EFEA
:101A78000DF0FFFF5BEF0DF0FFFFBF0E076E010ECD
:101A8800086E000E0A6E320E096E4AEC36F00750E8
:101A98000810D8B452EF0DF055EF0DF0FFFF5BEFD3
:101AA8000DF0FFFF000E0101AA6F010EA96FFFFFE5
:101AB800A7C101F0A8C102F0A9C103F0AAC104F0AE
:101AC80024EC33F001500210D8B46DEF0DF070EF34
:101AD8000DF0FFFF81EF0AF0FFFF4EEF0BF0FFFF65
:101AE800070ECD19CE11D8A47CEF0DF07FEF0DF0C5
:101AF800FFFF88EF0DF0FFFF000ECE6F0B0ECD6FCE
:101B0800010EB06F81EF0AF0FFFF0B0ECD19CE1159
:101B1800D8A491EF0DF094EF0DF0FFFF81EF0AF0DC
:101B2800FFFFAD51D8B49BEF0DF09EEF0DF0FFFF16
:101B3800AFEF0DF0FFFF010EB06F000ECE6F020E7B
:101B4800CD6F000EA46F010EA36F000EA66F000EDE
:101B5800A56F81EF0AF0FFFFD5BEB5EF0DF0B8EF26
:101B68000DF0FFFF3FEF0BF0FFFFAFEC32F081EF1E
:101B78000AF03BEF00F0FFFF6250800B6B6E625083
:101B880062246D6E61AECBEF0DF0CEEF0DF0FFFF6E
:101B9800D0EF0DF0FFFF6D80FFFF6D50D8B4D7EF89
:101BA8000DF0DAEF0DF0FFFFF3EF0DF0FFFF6D28FA
:101BB800D8A4E1EF0DF0E4EF0DF0FFFFEDEF0DF02D
:101BC800FFFF000E5F6E000E606E000E616E000E6D
:101BD800626EFFFF618E000E626EFCEF0DF0FFFF7C
:101BE800000E5F6E000E606E000E616E000E626E7B
:101BF800FFFF6650800B6C6E6B506C18D8B407EF03
:101C08000EF00AEF0EF0FFFF0CEF0EF0FFFF6B8CEB
:101C1800FFFF665066246C6E65AE15EF0EF018EF88
:101C28000EF0FFFF1AEF0EF0FFFF6C80FFFF6C5005
:101C3800D8B421EF0EF024EF0EF0FFFF3DEF0EF0C9
:101C4800FFFF6C28D8A42BEF0EF02EEF0EF0FFFF4D
:101C580037EF0EF0FFFF000E636E000E646E000E8D
:101C6800656E000E666EFFFF658E000E666E46EFAF
:101C78000EF0FFFF000E636E000E646E000E656EC0
:101C8800000E666EFFFF6D506C5CD8B04EEF0EF024
:101C980051EF0EF0FFFF7CEF0EF0FFFF6BAC57EF3C
:101CA8000EF05AEF0EF0FFFF5DEF0EF0FFFF800E13
:101CB8006B1AFFFF6DC06EF06CC06DF06EC06CF0FB
:101CC8005FC06EF063C05FF06EC063F060C06EF01E
:101CD80064C060F06EC064F061C06EF065C061F011
:101CE8006EC065F062C06EF066C062F06EC066F0ED
:101CF800FFFF000E6E6E6D506CC067F0686A675E1D
:101D0800000E685A68BE92EF0EF068500AE11A0E8B
:101D1800675CD8A092EF0EF095EF0EF0FFFFD8EFBA
:101D28000EF0FFFF5F50601061106210D8A49FEFA3
:101D38000EF0A3EF0EF0FFFF010EA5EF0EF0FFFF70
:101D4800000EFFFF6E6E000E5F6E000E606E000EDE
:101D5800616E000E626E6CC06DF0E3EF0EF0FFFF77
:101D68006EA0B9EF0EF0BCEF0EF0FFFFC3EF0EF060
:101D7800FFFFD8906E3001096E6EC6EF0EF0FFFFC0
:101D8800D8906E32FFFF5FA0CCEF0EF0CFEF0EF0D1
:101D9800FFFFD1EF0EF0FFFF6E8EFFFF623462325D
:101DA800613260325F326D2AFFFF6C506D5CD8A0E3
:101DB800E0EF0EF0E3EF0EF0FFFFB3EF0EF0FFFFE2
:101DC8006BBCE9EF0EF0ECEF0EF0FFFF39EF0FF010
:101DD800FFFF6D50D8A4F3EF0EF0F6EF0EF0FFFF03
:101DE80001EF0FF0FFFF000E5F6E000E606E000E39
:101DF800616E000E626E90EF10F0FFFF63505F2679
:101E080064506022655061226650622262A00FEF22
:101E18000FF012EF0FF0FFFFDDEF0FF0FFFF6EA0E6
:101E280018EF0FF01BEF0FF0FFFF22EF0FF0FFFF8F
:101E3800D8906E3001096E6E25EF0FF0FFFFD89035
:101E48006E32FFFF5FA02BEF0FF02EEF0FF0FFFFBA
:101E580030EF0FF0FFFF6E8EFFFF623462326132A7
:101E680060325F326D2ADDEF0FF0FFFF63505F5C79
:101E780064506058655061586250800A676E6650B9
:101E8800800A6758D8B04BEF0FF04EEF0FF0FFFF06
:101E98007CEF0FF0FFFF5F50635C676E6050645823
:101EA800686E61506558696E625066586A6EFF0EBA
:101EB80067245F6EFF0E6820606EFF0E6920616EFA
:101EC800FF0E6A20626E800E6B1A6E6C6E50D8A47C
:101ED80070EF0FF073EF0FF0FFFF85EF0FF0FFFFCC
:101EE800010E5F26000E60226122622285EF0FF04C
:101EF800FFFF63505F5E6450605A6550615A6650D8
:101F0800625AFFFF5F50601061106210D8A48FEF13
:101F18000FF092EF0FF0FFFFD4EF0FF0FFFF6E50BE
:101F2800D8A499EF0FF09CEF0FF0FFFFD4EF0FF05C
:101F3800FFFF000E5F6E000E606E000E616E000EF9
:101F4800626E90EF10F0FFFFD8905F366036613612
:101F580062366EAEB2EF0FF0B5EF0FF0FFFFB7EFDE
:101F68000FF0FFFF5F80FFFF6EA0BDEF0FF0C0EF27
:101F78000FF0FFFFC5EF0FF0FFFFD8806E36C8EFF8
:101F88000FF0FFFFD8906E36FFFF6D50D8B4CFEF3B
:101F98000FF0D2EF0FF0FFFFD4EF0FF0FFFF6D0649
:101FA800FFFF61AEDAEF0FF0DDEF0FF0FFFFA7EFF5
:101FB8000FF0FFFF000E6C6E6EAEE5EF0FF0E8EF6E
:101FC8000FF0FFFF07EF10F0FFFF6EC067F07F0E06
:101FD8006716D8B4F2EF0FF0F5EF0FF0FFFFFBEF45
:101FE8000FF0FFFFFFFF010E6C6E07EF10F0FFFF11
:101FF8005FA001EF10F004EF10F0FFFF07EF10F003
:10200800FFFFF6EF0FF0FFFF6C50D8B40EEF10F0A3
:1020180011EF10F0FFFF41EF10F0FFFF010E5F26F8
:10202800000E60226122622262A01DEF10F020EFF4
:1020380010F0FFFF41EF10F0FFFF5FC067F060C0D6
:1020480068F061C069F062C06AF06A346A32693265
:102058006832673267C05FF068C060F069C061F0DD
:102068006AC062F06D28D8B43CEF10F03FEF10F072
:10207800FFFF41EF10F0FFFF6D2AFFFF6D28D8B476
:1020880048EF10F04BEF10F0FFFF55EF10F0FFFF97
:102098006D50D8A452EF10F055EF10F0FFFF6AEF23
:1020A80010F0FFFF000E5F6E000E606E000E616E96
:1020B800000E626E6D50D8A464EF10F067EF10F058
:1020C800FFFF6AEF10F0FFFF000E6B6EFFFF6DA0C1
:1020D80070EF10F073EF10F0FFFF77EF10F0FFFFD5
:1020E800618E79EF10F0FFFF619EFFFFD8906D3091
:1020F800626E6BAE82EF10F085EF10F0FFFF87EF96
:1021080010F0FFFF628EFFFF5FC05FF060C060F0FD
:1021180061C061F062C062F0FFFF1200FFFFFFFFC5
:102128003050800B396E305030243F6E2FAE9FEF09
:1021380010F0A2EF10F0FFFFA4EF10F0FFFF3F80B8
:10214800FFFF3F50D8B4ABEF10F0AEEF10F0FFFF39
:10215800C5EF10F0FFFF3F28D8A4B5EF10F0B8EF97
:1021680010F0FFFFC1EF10F0FFFF000E2D6E000E04
:102178002E6E000E2F6E000E306EFFFF2F8ECEEFEC
:1021880010F0FFFF000E2D6E000E2E6E000E2F6E4B
:10219800000E306EFFFF3450800B391A345034244F
:1021A8003E6E33AEDAEF10F0DDEF10F0FFFFDFEF39
:1021B80010F0FFFF3E80FFFF3E50D8B4E6EF10F06E
:1021C800E9EF10F0FFFF00EF11F0FFFF3E28D8A461
:1021D800F0EF10F0F3EF10F0FFFFFCEF10F0FFFF4F
:1021E800000E316E000E326E000E336E000E346E2D
:1021F800FFFF338E09EF11F0FFFF000E316E000E66
:10220800326E000E336E000E346EFFFF3E50D8B4AF
:1022180010EF11F013EF11F0FFFF1DEF11F0FFFFAA
:102228003F50D8A41AEF11F01DEF11F0FFFF28EF6F
:1022380011F0FFFF000E2D6E000E2E6E000E2F6E99
:10224800000E306EE2EF12F0FFFF33502D02F3CF95
:1022580044F0F4CF45F044503A6E3B6A3C6A3D6A1C
:102268004550406E416A426A436A32502E02F3CFAB
:1022780044F0F4CF45F044503A26000E3B223C226D
:102288003D2245504026000E412242224322315031
:102298002F02F3CF44F0F4CF45F044503A26000E15
:1022A8003B223C223D2245504026000E412242223C
:1022B80043223CC03DF03BC03CF03AC03BF03A6A98
:1022C80031502E02F3CF44F0F4CF45F044503A2673
:1022D80045503B22000E3C22000E3D2232502D027A
:1022E800F3CF44F0F4CF45F044503A2645503B2212
:1022F800000E3C22000E3D223CC03DF03BC03CF0AD
:102308003AC03BF03A6A31502D02F3CF44F0F4CF93
:1023180045F044503A2645503B22000E3C22000E20
:102328003D2233502E02F3CF44F0F4CF45F0445011
:10233800402645504122000E4222000E43223250D0
:102348002F02F3CF44F0F4CF45F0445040264550D7
:102358004122000E4222000E432233502F02F3CFB7
:1023680044F0F4CF45F04450356E4550366E376A28
:10237800386A37C038F036C037F035C036F0356ABD
:102388003550402636504122375042223850432299
:102398003AC035F03BC036F03CC037F03DC038F0AD
:1023A800190EDDEF11F0FFFFD89038323732363290
:1023B8003532FFFFE82ED7EF11F035504026365062
:1023C800412237504222385043223CC03DF03BC0A6
:1023D8003CF03AC03BF03A6A3E503FC035F0366AAE
:1023E8003526000E3622820E3524446EFF0E362026
:1023F800456E18EF12F0FFFFD8904036413642364E
:1024080043363DAE0AEF12F00DEF12F0FFFF0FEF6B
:1024180012F0FFFF4080FFFFD8903A363B363C363B
:102428003D364406D8A04506FFFF42AE1EEF12F027
:1024380021EF12F0FFFFFFEF11F0FFFF000E3E6EDD
:102448003DAE29EF12F02CEF12F0FFFF57EF12F01C
:10245800FFFFFF0E3A14356EFF0E3B14366EFF0E6B
:102468003C14376E7F0E3D14386E355036103710D9
:102478003810D8B442EF12F045EF12F0FFFF4BEFDF
:1024880012F0FFFFFFFF010E3E6E57EF12F0FFFF45
:1024980040A051EF12F054EF12F0FFFF57EF12F087
:1024A800FFFF46EF12F0FFFF3E50D8B45EEF12F088
:1024B80061EF12F0FFFF88EF12F0FFFF010E4026D8
:1024C800000E41224222432243A06DEF12F070EF2A
:1024D80012F0FFFF88EF12F0FFFF40C035F041C057
:1024E80036F042C037F043C038F03834383237322B
:1024F8003632353235C040F036C041F037C042F090
:1025080038C043F0444A452AFFFF45BE94EF12F015
:10251800455009E14428D8A094EF12F097EF12F043
:10252800FFFFA2EF12F0FFFF000E406E000E416E9B
:10253800800E426E7F0E436ED7EF12F0FFFF45BE4E
:10254800B1EF12F0455006E14404D8B0AEEF12F0F6
:10255800B1EF12F0FFFFBEEF12F0FFFF000E406E6A
:10256800000E416E000E426E000E436E000E396E74
:10257800D7EF12F0FFFF44C03FF0FF0E4016FF0EEA
:1025880041167F0E4216000E43163FA0CEEF12F002
:10259800D1EF12F0FFFFD3EF12F0FFFF428EFFFFE3
:1025A800D8903F30436EFFFF3950431240C02DF0A2
:1025B80041C02EF042C02FF043C030F0FFFF1200A0
:1025C800FFFFFFFF4950800B566E495049245D6E4E
:1025D80048AEF1EF12F0F4EF12F0FFFFF6EF12F051
:1025E800FFFF5D80FFFF5D50D8B4FDEF12F000EFF4
:1025F80013F0FFFF19EF13F0FFFF5D28D8A407EFD2
:1026080013F00AEF13F0FFFF13EF13F0FFFF000EB4
:10261800466E000E476E000E486E000E496EFFFFB4
:10262800488E000E496E22EF13F0FFFF000E466E33
:10263800000E476E000E486E000E496EFFFF4D50AB
:10264800800B561A4D504D245E6E4CAE2EEF13F093
:1026580031EF13F0FFFF33EF13F0FFFF5E80FFFF52
:102668005E50D8B43AEF13F03DEF13F0FFFF56EF8A
:1026780013F0FFFF5E28D8A444EF13F047EF13F0E0
:10268800FFFF50EF13F0FFFF000E4A6E000E4B6E77
:10269800000E4C6E000E4D6EFFFF4C8E000E4D6E00
:1026A8005FEF13F0FFFF000E4A6E000E4B6E000E38
:1026B8004C6E000E4D6EFFFF4A504B104C104D10E3
:1026C800D8A469EF13F06CEF13F0FFFF86EF13F057
:1026D800FFFF000E466E000E476E000E486E000E9D
:1026E800496E800E48127F0E4912FFFF565049125C
:1026F80046C046F047C047F048C048F049C049F0D6
:10270800FBEF14F0FFFF5D50D8A48DEF13F090EFAE
:1027180013F0FFFF9BEF13F0FFFF000E466E000E55
:10272800476E000E486E000E496EFBEF14F0FFFF77
:102738005E505DC04EF04F6A4E5E000E4F5A7F0EDF
:102748004E24576E000E4F20586E46C052F047C0B8
:1027580053F048C054F049C055F0000E466E000EC4
:10276800476E000E486E000E496E000E596E000E40
:102778005A6E000E5B6E000E5C6E000E5E6E07EF0A
:1027880014F0FFFF5E50D8B4CCEF13F0CFEF13F086
:10279800FFFFEAEF13F0FFFFD89052365336543656
:1027A8005536D89046364736483649365CAEDFEF60
:1027B80013F0E2EF13F0FFFFE4EF13F0FFFF4680A2
:1027C800FFFFD89059365A365B365C36FFFF4A50C1
:1027D800525C4B5053584C5054584D505558D8A0F3
:1027E800F8EF13F0FBEF13F0FFFF05EF14F0FFFF16
:1027F8005C8C4A50525E4B50535A4C50545A4D5070
:10280800555AFFFF5E2AFFFF190E5E640EEF14F0A3
:1028180011EF14F0FFFFC5EF13F0FFFF52505310F4
:1028280054105510D8B41BEF14F01EEF14F0FFFF2E
:102838003BEF14F0FFFF59803BEF14F0FFFFD890F7
:1028480046364736483649365CAE2DEF14F030EF41
:1028580014F0FFFF32EF14F0FFFF4680FFFFD8901F
:1028680059365A365B365C365706D8A05806FFFFED
:1028780048AE41EF14F044EF14F0FFFF22EF14F0DC
:10288800FFFF000E5E6E5CAE4CEF14F04FEF14F0DD
:10289800FFFF7AEF14F0FFFFFF0E59144E6EFF0E84
:1028A8005A144F6EFF0E5B14506E7F0E5C14516EFF
:1028B8004E504F1050105110D8B465EF14F068EF17
:1028C80014F0FFFF6EEF14F0FFFFFFFF010E5E6EC6
:1028D8007AEF14F0FFFF46A074EF14F077EF14F0CE
:1028E800FFFF7AEF14F0FFFF69EF14F0FFFF5E506F
:1028F800D8B481EF14F084EF14F0FFFFABEF14F0BD
:10290800FFFF010E4626000E47224822492249A011
:1029180090EF14F093EF14F0FFFFABEF14F0FFFF0C
:1029280046C04EF047C04FF048C050F049C051F083
:102938005134513250324F324E324EC046F04FC0B1
:1029480047F050C048F051C049F0574A582AFFFF95
:1029580058BEB7EF14F0585009E15728D8A0B7EF80
:1029680014F0BAEF14F0FFFFC6EF14F0FFFF000EEB
:10297800586E5768000E466E000E476E000E486E81
:10298800000E496EFFFF58BED5EF14F0585006E10F
:102998005704D8B0D2EF14F0D5EF14F0FFFFE4EFEE
:1029A80014F0FFFF000E586E000E576E000E466EB4
:1029B800000E476E000E486E000E496E000E566EF1
:1029C800FFFF57C05DF05DA0ECEF14F0EFEF14F0DF
:1029D800FFFFF3EF14F0FFFF488EF5EF14F0FFFF51
:1029E800489EFFFFD8905D30496E79EF13F0FFFFE6
:1029F8001200FFFFFFFF80C0C2F081C0C3F082C099
:102A0800C4F083C0C5F077C0C2F078C0C3F079C005
:102A1800C4F07AC0C5F0C2C07BF0C3C07CF0C4C0AB
:102A28007DF0C5C07EF0180E20EF15F0FFFFD8909E
:102A38007E327D327C327B32FFFFE82E1AEF15F0B2
:102A48007B500001BC6FBD6BBDBF34EF15F0BD51AD
:102A58000AE1960EBC5DD8A034EF15F037EF15F0FB
:102A6800FFFF42EF15F0FFFF77C077F078C078F0EE
:102A780079C079F07AC07AF0F0EF16F0FFFFC2C0A3
:102A88007BF0C3C07CF0C4C07DF0C5C07EF0200ED2
:102A980054EF15F0FFFFD8907E327D327C327B32C6
:102AA800FFFFE82E4EEF15F07B507C107D107E1056
:102AB800D8B461EF15F064EF15F0FFFF77EF15F06C
:102AC800FFFF77C001F078C002F079C003F07AC048
:102AD80004F0A2EC33F001C077F002C078F003C034
:102AE80079F004C07AF0FFFF0001BDBF88EF15F050
:102AF800BD5107E17E0EBC5DD8B085EF15F088EFBB
:102B080015F0FFFFA5EF15F0FFFFC2C02DF0C3C001
:102B18002EF0C4C02FF0C5C030F0000E316E000E8C
:102B2800326E000E336E000E346E93EC10F02DC032
:102B380077F02EC078F02FC079F030C07AF0F0EF3F
:102B480016F0FFFF000E636E000E646E000E656ED9
:102B58004B0E666E77C05FF078C060F079C061F0A8
:102B68007AC062F0BFEC0DF05FC0BEF060C0BFF08D
:102B780061C0C0F062C0C1F0000E636E000E646EEA
:102B8800000E656ECB0E666EBEC05FF0BFC060F013
:102B9800C0C061F0C1C062F0BFEC0DF05FC0B8F01A
:102BA80060C0B9F061C0BAF062C0BBF0B8C06FF0E5
:102BB800B9C070F0BAC071F0BBC072F077C073F0E2
:102BC80078C074F079C075F07AC076F06AEC34F0A9
:102BD8006FC0C6F070C0C7F071C0C8F072C0C9F04D
:102BE800000E016E000E026E000E036E3F0E046EA4
:102BF800C6C005F0C7C006F0C8C007F0C9C008F0D5
:102C080024EC3CF0D8B00BEF16F00EEF16F0FFFFF7
:102C180045EF16F0FFFF77C063F078C064F079C025
:102C280065F07AC066F0C6C05FF0C7C060F0C8C083
:102C380061F0C9C062F0BFEC0DF05FC0BEF060C0CB
:102C4800BFF061C0C0F062C0C1F0BEC05FF0BFC0DD
:102C580060F0C0C061F0C1C062F0000E636E000E8B
:102C6800646E800E656EBF0E666EBFEC0DF05FC0C1
:102C7800C6F060C0C7F061C0C8F062C0C9F0B2EF6A
:102C880016F0FFFF000E016E000E026E000E036EBE
:102C9800BF0E046EC6C005F0C7C006F0C8C007F076
:102CA800C9C008F024EC3CF0D8A05DEF16F060EF46
:102CB80016F0FFFF97EF16F0FFFF77C063F078C0BC
:102CC80064F079C065F07AC066F0C6C05FF0C7C02E
:102CD80060F0C8C061F0C9C062F0BFEC0DF05FC021
:102CE800BEF060C0BFF061C0C0F062C0C1F0BEC03D
:102CF8005FF0BFC060F0C0C061F0C1C062F0000EFC
:102D0800636E000E646E800E656E3F0E666EBFECDD
:102D18000DF05FC0C6F060C0C7F061C0C8F062C007
:102D2800C9F0B2EF16F0FFFFC6C05FF0C7C060F091
:102D3800C8C061F0C9C062F077C063F078C064F0C1
:102D480079C065F07AC066F0BFEC0DF05FC0C6F0E0
:102D580060C0C7F061C0C8F062C0C9F0FFFFC2C060
:102D68007BF0C3C07CF0C4C07DF0C5C07EF0200EEF
:102D7800C4EF16F0FFFFD8907E327D327C327B3272
:102D8800FFFFE82EBEEF16F07B507C107D107E1002
:102D9800D8B4D1EF16F0D4EF16F0FFFFE7EF16F036
:102DA800FFFFC6C001F0C7C002F0C8C003F0C9C029
:102DB80004F0A2EC33F001C0C6F002C0C7F003C0B3
:102DC800C8F004C0C9F0FFFFC6C077F0C7C078F0EC
:102DD800C8C079F0C9C07AF0FFFF1200FFFFFFFFFB
:102DE8001EC036F01FC037F020C038F021C039F0BF
:102DF80022C03AF023C03BF024C03CF025C03DF08F
:102E08003DBE09EF17F00DEF17F0FFFF010E0FEFB2
:102E180017F0FFFF000EFFFF346E356A345035108F
:102E2800D8B419EF17F01CEF17F0FFFF2DEF17F0CC
:102E3800FFFF3D1E3C1E3B1E3A1E391E381E371E24
:102E4800366C000E3722382239223A223B223C22A5
:102E58003D22FFFF000189BF34EF17F037EF17F06D
:102E6800FFFF39EF17F0FFFF8A93FFFF89BF48EF95
:102E780017F0895106E18805D8B045EF17F048EFFB
:102E880017F0FFFF4FEF17F0FFFF000E316E010E36
:102E9800306E54EF17F0FFFF88C030F089C031F072
:102EA800FFFF86C032F087C033F034503510D8A405
:102EB80060EF17F063EF17F0FFFF6CEF17F0FFFFFD
:102EC8008AA569EF17F06CEF17F0FFFF70EF17F0A6
:102ED800FFFF3206D8A03306FFFF000E3F6E1F0E1D
:102EE8003E6E000EB76FF6EF17F0FFFF3E06D8A054
:102EF8003F06980E3E24D96E000E3F20DA6E36C08B
:102F080001F037C002F038C003F039C004F03AC00D
:102F180005F03BC006F03CC007F03DC008F00A0EC3
:102F2800096E000E0A6E000E0B6E000E0C6E000E7F
:102F38000D6E000E0E6E000E0F6E000E106E92ECEF
:102F48003EF001C026F002C027F003C028F004C0FC
:102F580029F005C02AF006C02BF007C02CF008C0E5
:102F68002DF026C013F028C014F08FEC34F0135065
:102F7800300FDF6E3006D8A031063206D8A03306EF
:102F880036C001F037C002F038C003F039C004F091
:102F98003AC005F03BC006F03CC007F03DC008F061
:102FA8000A0E096E000E0A6E000E0B6E000E0C6EF5
:102FB800000E0D6E000E0E6E000E0F6E000E106EDF
:102FC8001BEC1FF001C036F002C037F003C038F028
:102FD80004C039F005C03AF006C03BF007C03CF029
:102FE80008C03DF0FFFF3FBE02EF18F03F5009E177
:102FF8003E04D8A002EF18F005EF18F0FFFF3EEFEF
:1030080018F0FFFF36503710381039103A103B10BF
:103018003C103D10D8A413EF18F016EF18F0FFFF7E
:1030280079EF17F0FFFF31BE25EF18F0315006E1B8
:103038003004D8B022EF18F025EF18F0FFFF79EF31
:1030480017F0FFFF33BE31EF18F0335009E13204B7
:10305800D8A031EF18F034EF18F0FFFF3EEF18F06A
:10306800FFFF00018AB33BEF18F03EEF18F0FFFFB7
:1030780079EF17F0FFFF34503510D8A446EF18F059
:1030880049EF18F0FFFF53EF18F0FFFF00018AA582
:1030980050EF18F053EF18F0FFFF76EF18F0FFFF2E
:1030A8003E06D8A03F0634503510D8A45EEF18F07D
:1030B80061EF18F0FFFF68EF18F0FFFF000E2F6EAA
:1030C8002B0E2E6E6DEF18F0FFFF000E2F6E2D0EDB
:1030D8002E6EFFFF980E3E24D96E000E3F20DA6E4A
:1030E8002EC0DFFFFFFF1CC011F01DC012F0980EAC
:1030F8003E24136E000E3F20146E32C015F033C00C
:1031080016F0BBEC39F011C01CF012C01DF0120013
:10311800FFFFFFFF000189BF94EF18F097EF18F049
:10312800FFFF99EF18F0FFFF8A93FFFF89BFA8EF11
:1031380018F0895106E18805D8B0A5EF18F0A8EF76
:1031480018F0FFFFAFEF18F0FFFF000E346E010E0E
:10315800336EB4EF18F0FFFF88C033F089C034F045
:10316800FFFF86C035F087C036F08AA9BEEF18F099
:10317800C1EF18F0FFFFC6EF18F0FFFFFE0E35266F
:10318800FF0E3622FFFF1EC037F01FC038F020C0E8
:1031980039F021C03AF022C03BF023C03CF024C0F3
:1031A8003DF025C03EF0000E406E1F0E3F6E000E33
:1031B800B76FA4EF19F0FFFF3F06D8A040060F0E27
:1031C8003714416E426A42BEF3EF18F042500AE1EA
:1031D8000A0E415CD8A0F3EF18F0F6EF18F0FFFFE5
:1031E800FFEF18F0FFFF570E4124416E000E4220FA
:1031F800426E06EF19F0FFFF300E4124416E000EBB
:103208004220426EFFFFBF0E276EFF0E286E26502B
:10321800296E2A6A2750292628502A222A500BE18B
:103228001A0E295CD8A01BEF19F01FEF19F0FFFF49
:10323800010E21EF19F0FFFF000EFFFF2F6E306A1D
:103248002F503010D8B42BEF19F02EEF19F0FFFFE4
:1032580064EF19F0FFFF9F0E276EFF0E286E200EF9
:103268004110296E000E42102A6E27502926285038
:103278002A222A500BE11A0E295CD8A046EF19F031
:103288004AEF19F0FFFF010E4CEF19F0FFFF000E97
:10329800FFFF316E326A31503210D8B456EF19F050
:1032A80059EF19F0FFFF64EF19F0FFFF41C007F075
:1032B80042C008F0A1EC35F007C041F008C042F068
:1032C800FFFF980E3F24D96E000E4020DA6E41C0F1
:1032D800DFFF3306D8A034063506D8A0360637C037
:1032E80027F038C028F039C029F03AC02AF03BC08E
:1032F8002BF03CC02CF03DC02DF03EC02EF0050E4A
:1033080090EF19F0FFFFD8902E322D322C322B324D
:103318002A32293228322732FFFFE82E86EF19F0A9
:1033280027C037F028C038F029C039F02AC03AF051
:103338002BC03BF02CC03CF02DC03DF02EC03EF021
:10334800FFFF40BEB1EF19F040500AE1020E3F5CAA
:10335800D8A0B1EF19F0B4EF19F0FFFFEDEF19F0B5
:10336800FFFF3750381039103A103B103C103D1011
:103378003E10D8A4C2EF19F0C5EF19F0FFFFDFEF38
:1033880018F0FFFF34BED4EF19F0345006E13304CF
:10339800D8B0D1EF19F0D4EF19F0FFFFDFEF18F034
:1033A800FFFF36BEE0EF19F0365009E13504D8A02A
:1033B800E0EF19F0E3EF19F0FFFFEDEF19F0FFFF71
:1033C80000018AB3EAEF19F0EDEF19F0FFFFDFEF24
:1033D80018F0FFFF00018AA9F4EF19F0F7EF19F0D0
:1033E800FFFF0EEF1AF0FFFF3F06D8A04006980E29
:1033F8003F24D96E000E4020DA6E26C0DFFF3F065C
:10340800D8A04006980E3F24D96E000E4020DA6EF0
:10341800300EDF6EFFFF1CC011F01DC012F0980EB9
:103428003F24136E000E4020146E35C015F036C0D0
:1034380016F0BBEC39F011C01CF012C01DF01200E0
:10344800FFFFFFFF000189BF2CEF1AF02FEF1AF0E2
:10345800FFFF31EF1AF0FFFF8A93FFFF89BF40EFAC
:103468001AF0895106E18805D8B03DEF1AF040EF0F
:103478001AF0FFFF47EF1AF0FFFF000E2F6E010E44
:103488002E6E4CEF1AF0FFFF88C02EF089C02FF087
:10349800FFFF86C030F087C031F01EC032F01FC079
:1034A80033F020C034F021C035F022C036F023C0FC
:1034B80037F024C038F025C039F0000E3B6E1F0EDF
:1034C8003A6E000EB76FE0EF1AF0FFFF3A06D8A089
:1034D8003B06980E3A24D96E000E3B20DA6E32C0B5
:1034E80001F033C002F034C003F035C004F036C038
:1034F80005F037C006F038C007F039C008F00A0EEA
:10350800096E000E0A6E000E0B6E000E0C6E000E99
:103518000D6E000E0E6E000E0F6E000E106E2EEC6D
:103528003AF001C026F002C027F003C028F004C01A
:1035380029F005C02AF006C02BF007C02CF008C0FF
:103548002DF02650300FDF6E2E06D8A02F0630063D
:10355800D8A0310632C001F033C002F034C003F005
:1035680035C004F036C005F037C006F038C007F0A3
:1035780039C008F00A0E096E000E0A6E000E0B6EB6
:10358800000E0C6E000E0D6E000E0E6E000E0F6E0D
:10359800000E106E9FEC3BF001C032F002C033F019
:1035A80003C034F004C035F005C036F006C037F06B
:1035B80007C038F008C039F0FFFF3A503B10D8B4C4
:1035C800E8EF1AF0EBEF1AF0FFFF24EF1BF0FFFF14
:1035D8003250331034103510361037103810391077
:1035E800D8A4F9EF1AF0FCEF1AF0FFFF69EF1AF010
:1035F800FFFF2FBE0BEF1BF02F5006E12E04D8B0B3
:1036080008EF1BF00BEF1BF0FFFF69EF1AF0FFFF4D
:1036180031BE17EF1BF0315009E13004D8A017EF85
:103628001BF01AEF1BF0FFFF24EF1BF0FFFF000158
:103638008AB321EF1BF024EF1BF0FFFF69EF1AF0AC
:10364800FFFF1CC011F01DC012F0980E3A24136E33
:10365800000E3B20146E30C015F031C016F0BBECE4
:1036680039F011C01CF012C01DF01200FFFFFFFF5F
:10367800000189BF42EF1BF045EF1BF0FFFF47EF4A
:103688001BF0FFFF8A93FFFF89BF56EF1BF089519C
:1036980006E18805D8B053EF1BF056EF1BF0FFFF8B
:1036A8005DEF1BF0FFFF000E2F6E010E2E6E62EF16
:1036B8001BF0FFFF88C02EF089C02FF0FFFF86C0E7
:1036C80032F087C033F01EC034F01FC035F020C080
:1036D80036F021C037F022C038F023C039F024C0BA
:1036E8003AF025C03BF0000E3D6E1F0E3C6E000EFA
:1036F800B76F000E316E000E306ECBEF1BF0FFFF80
:103708003C06D8A03D06070E3414306E316A980E78
:103718003C24D96E000E3D20DA6E3050300FDF6E3B
:103728002E06D8A02F063206D8A0330634C026F0BD
:1037380035C027F036C028F037C029F038C02AF045
:1037480039C02BF03AC02CF03BC02DF0040EB7EF77
:103758001BF0FFFFD8902D322C322B322A3229321F
:10376800283227322632FFFFE82EADEF1BF026C0A5
:1037780034F027C035F028C036F029C037F02AC009
:1037880038F02BC039F02CC03AF02DC03BF0FFFFC9
:103798003DBED7EF1BF03D5009E13C04D8A0D7EF60
:1037A8001BF0DAEF1BF0FFFF13EF1CF0FFFF3450A4
:1037B800351036103710381039103A103B10D8A48D
:1037C800E8EF1BF0EBEF1BF0FFFF83EF1BF0FFFFB1
:1037D8002FBEFAEF1BF02F5006E12E04D8B0F7EFFA
:1037E8001BF0FAEF1BF0FFFF83EF1BF0FFFF33BE68
:1037F80006EF1CF0335009E13204D8A006EF1CF0A4
:1038080009EF1CF0FFFF13EF1CF0FFFF00018AB364
:1038180010EF1CF013EF1CF0FFFF83EF1BF0FFFF0E
:1038280000018AA91AEF1CF01DEF1CF0FFFF37EF0B
:103838001CF0FFFF30503110D8B425EF1CF028EFF2
:103848001CF0FFFF37EF1CF0FFFF3C06D8A03D0639
:10385800980E3C24D96E000E3D20DA6E300EDF6ED5
:103868003206D8A03306FFFF1CC011F01DC012F0AD
:10387800980E3C24136E000E3D20146E32C015F0D5
:1038880033C016F0BBEC39F011C01CF012C01DF0AB
:103898001200FFFFFFFF276E2750D8B456EF1CF029
:1038A80059EF1CF0FFFF7EEF1CF0FFFF22BE62EF16
:1038B8001CF05FEF1CF0FFFF7EEF1CF0FFFF1FC046
:1038C80023F020C024F021C025F022C026F0231EBA
:1038D800241E251E261E232A000E242225222622E7
:1038E80023C029F024C02AF025C02BF026C02CF0D4
:1038F80087EF1CF0FFFF1FC029F020C02AF021C06D
:103908002BF022C02CF0FFFF1F5020102110221096
:10391800D8A491EF1CF094EF1CF0FFFF9FEF1CF070
:10392800FFFF000E1F6E000E206E000E216E000EAF
:10393800226E47EF1DF0FFFF960E286EABEF1CF0CE
:10394800FFFF282AD8902C322B322A322932FFFF47
:10395800000E2914236E000E2A14246E000E2B1458
:10396800256EFE0E2C14266E2350241025102610CA
:10397800D8A4C1EF1CF0C4EF1CF0FFFFA4EF1CF0AB
:10398800FFFFD4EF1CF0FFFF282A010E2926000EA6
:103998002A222B222C22D8902C322B322A3229325E
:1039A800FFFF000E2914236E000E2A14246E000E49
:1039B8002B14256EFF0E2C14266E23502410251070
:1039C8002610D8A4EAEF1CF0EDEF1CF0FFFFC7EFBC
:1039D8001CF0FFFFF7EF1CF0FFFF2806D8902936F0
:1039E8002A362B362C36FFFF2BBEFDEF1CF000EFDE
:1039F8001DF0FFFF0AEF1DF0FFFF020E286007EF22
:103A08001DF00AEF1DF0FFFFF0EF1CF0FFFF28B0DC
:103A180010EF1DF013EF1DF0FFFF15EF1DF0FFFF76
:103A28002B9EFFFFD890283228C023F0246A256AED
:103A3800266A23C026F0256A246A236A235029129D
:103A480024502A1225502B1226502C122750D8B455
:103A580030EF1DF033EF1DF0FFFF3EEF1DF0FFFFCD
:103A680022BE3CEF1DF039EF1DF0FFFF3EEF1DF0C9
:103A7800FFFF2C8EFFFF29C01FF02AC020F02BC0AB
:103A880021F02CC022F0FFFF1200FFFFFFFF20EE05
:103A9800DEF010EE0FF0060EDBCFE3FFE806FCE2E7
:103AA8000CC01AF00DC01BF01A501B10D8A45FEF01
:103AB8001DF062EF1DF0FFFF67EF1DF0FFFF0F0E17
:103AC8001A6E000E1B6EFFFF1AC001F01BC002F039
:103AD800DDEC34F001C01EF002C01FF088C01CF0FD
:103AE80089C01DF01DBE7BEF1DF07EEF1DF0FFFFAE
:103AF80097EF1DF0FFFF1E501C5C1D50800A0E6ED4
:103B08001F50800A0E58D8A08CEF1DF08FEF1DF0C3
:103B1800FFFF92EF1DF0FFFF97EF1DF0FFFF1CC0A6
:103B28001EF01DC01FF0FFFF1EC01CF01FC01DF0BF
:103B380086C018F087C019F000018AB1A6EF1DF001
:103B4800A9EF1DF0FFFFCAEF1DF0FFFFB9EF1DF051
:103B5800FFFF000E026E200E016E0AC003F00BC0BC
:103B680004F04AEC39F01E4A1F2AFFFF18501E5C69
:103B78001F50800A0E6E1950800A0E58D8A0C7EF41
:103B88001DF0CAEF1DF0FFFFACEF1DF0FFFF000EA8
:103B9800176E000E166EF1EF1DF0FFFF1AC0F6FF4C
:103BA8001BC0F7FFF86A050EF76404D00800FFFF92
:103BB800F55005D0F6CFE1FFF7CFE2FFE7500E6EE4
:103BC8000E50016E026A0AC003F00BC004F04AEC02
:103BD80039F01A4A1B2A164A172AFFFF1C50165C8E
:103BE8001750800A0E6E1D50800A0E58D8A0FFEF9D
:103BF8001DF002EF1EF0FFFFD1EF1DF0FFFF0001E7
:103C08008AA109EF1EF00CEF1EF0FFFF2DEF1EF04A
:103C1800FFFF1CEF1EF0FFFF000E026E200E016E6C
:103C28000AC003F00BC004F04AEC39F01E4A1F2A00
:103C3800FFFF18501E5C1F50800A0E6E1950800A34
:103C48000E58D8A02AEF1EF02DEF1EF0FFFF0FEF41
:103C58001EF0FFFF1EC00AF01FC00BF01200FFFF8E
:103C6800FFFF000E166E000E156E000E0F6E000E92
:103C78000E6E42EF1EF0FFFF084A092AFFFF010EF1
:103C8800146E08C0F6FF09C0F7FF0800FFFFF550E3
:103C9800200AD8B452EF1EF055EF1EF0FFFF76EF62
:103CA8001EF0FFFFF70E0A6EFF0E0B6E08C0F6FF40
:103CB80009C0F7FF0800FFFFF5500C6E0D6A0A50A7
:103CC8000C260B500D220D500AE1050E0C5CD8A0F5
:103CD80070EF1EF073EF1EF0FFFF76EF1EF0FFFF90
:103CE800000E146EFFFF14C010F0116A105011106E
:103CF800D8A481EF1EF084EF1EF0FFFF3FEF1EF007
:103D0800FFFF91EF1EF0FFFF000E0F6E010E0E6E0B
:103D1800FFFF084A092ACBEF1EF0FFFF08C0F6FF95
:103D280009C0F7FF0800FFFFF5500A6E0B6A0B5039
:103D3800000AD8B4A2EF1EF0CBEF1EF0FFFF0A5026
:103D48002B0AD8B48CEF1EF0060AD8B487EF1EF001
:103D5800CBEF1EF0FFFF15C001F016C002F0000EF9
:103D6800046E0A0E036E24EC33F008C0F6FF09C097
:103D7800F7FF0800FFFFF550015E000E025A300EF3
:103D88000124156E000E0220166E8CEF1EF0FFFF48
:103D9800D00E0A6EFF0E0B6E08C0F6FF09C0F7FFC3
:103DA8000800FFFFF5500C6E0D6A0A500C260B50E8
:103DB8000D220D500BE10A0E0C5CD8A0E6EF1EF0A8
:103DC800EAEF1EF0FFFF010EECEF1EF0FFFF000E02
:103DD800FFFF126E136A12501310D8A4F6EF1EF0EC
:103DE800F9EF1EF0FFFFAEEF1EF0FFFF0E500F10B1
:103DF800D8A401EF1FF004EF1FF0FFFF13EF1FF02F
:103E0800FFFF15C00AF016C00BF00A1E0B1E0A4A67
:103E18000B2A0AC008F00BC009F018EF1FF0FFFFCB
:103E280015C008F016C009F0FFFF1200FFFFFFFFE2
:103E3800000E126E10BE26EF1FF023EF1FF0FFFFDB
:103E480039EF1FF0FFFF101E0F1E0E1E0D1E0C1E59
:103E58000B1E0A1E096C000E0A220B220C220D22D0
:103E68000E220F221022010E126EFFFF08BE42EF33
:103E78001FF03FEF1FF0FFFF55EF1FF0FFFF081E79
:103E8800071E061E051E041E031E021E016C000EE0
:103E98000222032204220522062207220822010EFA
:103EA800121AFFFF20EE13F0070EDE6AE806FDE2A5
:103EB80009500A100B100C100D100E100F101010D6
:103EC800D8B469EF1FF06CEF1FF0FFFFC7EF1FF0CA
:103ED800FFFF010E116E7CEF1FF0FFFFD89009362F
:103EE8000A360B360C360D360E360F361036112ABA
:103EF800FFFF10AE82EF1FF085EF1FF0FFFF71EF9D
:103F08001FF0FFFFFFFFD89013361436153616360C
:103F18001736183619361A360950015C0A500258F5
:103F28000B5003580C5004580D5005580E500658A5
:103F38000F50075810500858D8A0A5EF1FF0A8EF49
:103F48001FF0FFFFBAEF1FF0FFFF0950015E0A5094
:103F5800025A0B50035A0C50045A0D50055A0E5071
:103F6800065A0F50075A1050085A1380FFFFD8906E
:103F780010320F320E320D320C320B320A32093245
:103F8800112E86EF1FF0FFFF1250D8B4CEEF1FF0AE
:103F9800D1EF1FF0FFFFE2EF1FF0FFFF1A1E191EFF
:103FA800181E171E161E151E141E136C000E142242
:103FB800152216221722182219221A22FFFF13C0CF
:103FC80001F014C002F015C003F016C004F017C0C9
:103FD80005F018C006F019C007F01AC008F0120062
:103FE800FFFF286E756C6C29000AD7A33CBD378685
:053FF8003400008041CF
:023FFE00FFFFC3
:1064F000FFFF1200FFFFFFFF9E9A9D8AF28C1200A1
:10650000FFFFFFFF016E01C083FF1200FFFFFFFFCF
:10651000AECF01F0000EAE6E01501200FFFFFFFF84
:10652000016E01C0ADFFFFFFACA299EF32F09CEF0E
:1065300032F0FFFF93EF32F0FFFF1200FFFF3B7FCF
:10654000C97EBB7F6C7FA97FC47FB27F097F1000AB
:106550002000400080000100020004000800FFFF4E
:10656000000ED56E960ED66E980ED76EF28AD59C1A
:10657000D59AD596D580D582D584D58E1200FFFFC9
:10658000FFFF000EBD6E0A0E0001D46FD70ED56F4F
:10659000A30ED66F3B0ED76FA6EC37F0BD86BD8439
:1065A0001200FFFFFFFF000E896E000E806E9268E2
:1065B000000EC26EC296C298C28AC280000EC46E1D
:1065C000000EC36E000EC16E1200FFFFFFFFFFFF43
:1065D00011EC36F0C90E0001D41906E1D529D8A472
:1065E000F4EF32F0F7EF32F0FFFFE7EF32F0FFFFAA
:1065F0001200FFFFFFFF026E8482025081EC32F036
:106600008494C80EFFFF00F0E82EFCD78492C80ED9
:10661000FFFF00F0E82EFCD784821200FFFFFFFF8F
:10662000026E8482025081EC32F08484C80EFFFF37
:1066300000F0E82EFCD78492C80EFFFF00F0E82E91
:10664000FCD784821200FFFFFFFF01500302F3CF4B
:1066500005F0F4CF06F001500402F3500626025074
:106660000302F350062605C001F006C002F0120036
:10667000FFFFFFFF000E896E000E806EF00E926E1F
:10668000000E8A6E000E816E000E936E000E8B6EF1
:10669000000E826E9494948E949C1200FFFFFFFF74
:1066A000C80E0001CC6F000ECD6FC2C070F0C3C029
:1066B00071F0C4C072F0C5C073F0C6C074F0C7C03A
:1066C00075F0CC0E766E000E776E54EC3DF0120035
:1066D000FFFFFFFF20EE04F00150D9260250DA221E
:1066E000DECF03F0DDCF04F0031E041E034A042AAC
:1066F00020EE04F00150D9260250DA2203C0DEFF5A
:1067000004C0DDFF1200FFFFFFFF01C0D9FF02C080
:10671000DAFFDECF03F0DDCF04F0D8900336043685
:1067200001C005F002C006F0035005260450062201
:10673000060E0524D96E000E0620DA6EDF508A6E32
:106740001200FFFFFFFF0150021003100410D8B425
:10675000ACEF33F0AFEF33F0FFFFB8EF33F0FFFFF4
:10676000000E011A000E021A000E031A800E041AFF
:10677000FFFF01C001F002C002F003C003F004C03B
:1067800004F01200FFFFFFFF550E776E550E786E76
:10679000C80E796E410E7A6EFEEC14F077C0CAF026
:1067A00078C0CBF079C0CCF07AC0CDF0B8EC3CF03A
:1067B0000001CA51AF6EAC9CAC8AAC98AC84AB8E75
:1067C000AB9CAB881200FFFFFFFFD00E036EFF0EE5
:1067D000046E01C005F002C006F003500526045007
:1067E000062206500BE10A0E055CD8A0FAEF33F042
:1067F000FEEF33F0FFFF010E00EF34F0FFFF000E5D
:10680000FFFF016E026A1200FFFFFFFFBF0E036E63
:10681000FF0E046E01C005F002C006F0035005260D
:106820000450062206500BE11A0E055CD8A01BEF9F
:1068300034F01FEF34F0FFFF010E21EF34F0FFFFC3
:10684000000EFFFF016E026A1200FFFFFFFF9F0EA6
:10685000036EFF0E046E01C005F002C006F0035087
:1068600005260450062206500BE11A0E055CD8A03E
:106870003CEF34F040EF34F0FFFF010E42EF34F014
:10688000FFFF000EFFFF016E026A1200FFFFFFFF15
:106890009F0E036EFF0E046E200E0110056E000E9B
:1068A0000210066E035005260450062206500BE126
:1068B0001A0E055CD8A05FEF34F063EF34F0FFFFF1
:1068C000010E65EF34F0FFFF000EFFFF016E026A5C
:1068D0001200FFFFFFFF000E731A000E741A000E65
:1068E000751A800E761A6FC05FF070C060F071C0CC
:1068F00061F072C062F073C063F074C064F075C080
:1069000065F076C066F0BFEC0DF05FC06FF060C060
:1069100070F061C071F062C072F01200FFFFFFFF03
:1069200014BE9EEF34F0145006E11304D8B09BEF70
:1069300034F09EEF34F0FFFFADEF34F0FFFF13C0F3
:1069400015F014C016F0151E161E154A162A15C08D
:1069500013F016C014F0B2EF34F0FFFF13C013F0C1
:1069600014C014F0FFFF1200FFFFFFFF000E106EB7
:10697000000E0F6EC8EF34F0FFFF0EC001F0026A88
:106980000CC003F00DC004F04AEC39F00F4A102A95
:10699000FFFF0F500A24D96E10500B20DA6EDF5023
:1069A0000E6E0E50D8A4D7EF34F0DAEF34F0FFFFBC
:1069B000BCEF34F0FFFF1200FFFFFFFF01C003F048
:1069C00002C004F0E7EF34F0FFFF014A022AFFFFA4
:1069D00001C0F6FF02C0F7FFF86A050EF76404D0A5
:1069E0000800FFFFF55005D0F6CFE1FFF7CFE2FF3B
:1069F000E7500009D8A4FFEF34F002EF35F0FFFFB5
:106A0000E4EF34F0FFFF0350015C016E04500258C4
:106A1000026E1200FFFFFFFF010E076E200E01182D
:106A20000210D8B416EF35F019EF35F0FFFF35EF4F
:106A300035F0FFFFF70E036EFF0E046E01C005F088
:106A400002C006F0035005260450062206500AE153
:106A5000050E055CD8A02FEF35F032EF35F0FFFFC3
:106A600035EF35F0FFFF000E076EFFFF07C001F0A6
:106A7000026A1200FFFFFFFF000186518711D8A4B0
:106A800044EF35F047EF35F0FFFF4EEF35F0FFFFF5
:106A900086C01FF087C020F055EF35F0FFFFFF0ED6
:106AA00086251F6EFF0E8721206EFFFF1EC098F007
:106AB000000E996F1CC011F01DC012F0980E136EDD
:106AC000000E146E1FC015F020C016F0BBEC39F09C
:106AD00011C01CF012C01DF01200FFFF3E0EF66E3A
:106AE000650EF76E000EF86E01EECFF010EE20F09E
:106AF0000900F5CFEEFFE550E150FAE1EA0EF66E3F
:106B00003F0EF76E000EF86E00EEDEF010EE13F0A2
:106B10000900F5CFEEFFE550E150FAE101EEA3F0F8
:106B20002C0EEE6AE806FDE100EE80F0380EEE6A0B
:106B3000E806FDE17F907F92000EF86E000131EFD4
:106B40000AF0FFFF9F0E096EFF0E0A6E07C00BF0E2
:106B500008C00CF009500B260A500C220C500BE117
:106B60001A0E0B5CD8A0B7EF35F0BBEF35F0FFFF86
:106B7000010EBDEF35F0FFFF000EFFFF0D6E0E6A38
:106B80000D500E10D8B4C7EF35F0CAEF35F0FFFF47
:106B9000D1EF35F0FFFF5F0E0714076E086AD6EFDE
:106BA00035F0FFFF07C007F008C008F0FFFF120034
:106BB000FFFFFFFF6AC06EF06BC06FF0000E0001B8
:106BC000856F000E846FF9EF35F0FFFF68C043F06A
:106BD00069C044F06E0E456E000E466E6CC047F004
:106BE0006DC048F03DEC00F0435000018427445054
:106BF0008523FFFF6EC0F6FF6FC0F7FF0800FFFFA1
:106C0000F5500009D8A407EF36F00AEF36F0FFFF81
:106C1000E5EF35F0FFFF84C068F085C069F0120031
:106C2000FFFFFFFFC284FFFFC2B419EF36F01CEF75
:106C300036F0FFFF13EF36F0FFFF000E316E000E4F
:106C4000326E800E336E3E0E346EC4501F6E206A5C
:106C5000216A226A010E4EEC1CF01FC02DF020C0EC
:106C60002EF021C02FF022C030F093EC10F02DC098
:106C7000CAF02EC0CBF02FC0CCF030C0CDF0B8ECB5
:106C80003CF0C90E0001CA25D46FFF0ECB21D56F91
:106C90001200FFFFFFFF20EE02F00750D926085038
:106CA000DA220950DE5CDE50800A0D6E0A50800A3E
:106CB0000D58D8A05EEF36F061EF36F0FFFF72EFAF
:106CC00036F0FFFF20EE02F00750D9260850DA22F6
:106CD000000EDE6E000EDD6E000E086E010E076EF9
:106CE00083EF36F0FFFF07C001F008C002F084EC2C
:106CF00033F007C001F008C002F06FEC38F0000E6E
:106D0000086E000E076EFFFF1200FFFFFFFF836A91
:106D1000000E956E846A000E966E849284941E0E08
:106D2000036E3C0EFFFFE82EFDD7032EFBD700D0ED
:106D30008482380EFAEC32F01E0E036E3C0EFFFF1A
:106D4000E82EFDD7032EFBD700D0380EFAEC32F038
:106D50001E0E036E3C0EFFFFE82EFDD7032EFBD761
:106D600000D0380EFAEC32F0080EFAEC32F00F0ECA
:106D7000FAEC32F0010EFAEC32F0380EFAEC32F0A6
:106D8000800EFAEC32F01200FFFFFFFF000E076EDC
:106D9000E5EF36F0FFFF07500324056E000E0420D8
:106DA000066E05C0F6FF06C0F7FFF86A050EF76429
:106DB00004D00800FFFFF55005D0F6CFE1FFF7CF74
:106DC000E2FFE7500FEC33F0072AFFFF07500324E0
:106DD000056E000E0420066E05C0F6FF06C0F7FF24
:106DE000F86A050EF76404D00800FFFFF55005D0DF
:106DF000F6CFE1FFF7CFE2FFE7500009D8A403EF99
:106E000037F006EF37F0FFFFCAEF36F0FFFF120052
:106E1000FFFFFFFF01C0D9FF02C0DAFF020EDE183C
:106E2000DE10D8A416EF37F019EF37F0FFFF1EEF92
:106E300037F0FFFF100E056E4AEF37F0FFFF01C07D
:106E4000D9FF02C0DAFFDE50DE10D8A42AEF37F0F7
:106E50002DEF37F0FFFF32EF37F0FFFF090E056E21
:106E60004AEF37F0FFFF01C0D9FF02C0DAFF080E7A
:106E7000DE18DE10D8A43FEF37F042EF37F0FFFF07
:106E800047EF37F0FFFF400E056E4AEF37F0FFFF88
:106E9000800E056EFFFF05501200FFFFFFFF000E82
:106EA000106E000E0F6EFFFFD8900F34D96E1034A5
:106EB000DA6E0950D9260A50DA220FC00BF010C042
:106EC0000CF0D8900B360C3601C00DF002C00EF05D
:106ED0000B500D260C500E22060E0D24E16E000EF6
:106EE0000E20E26EDECFE6FFDDCFE5FF0F4A102A6F
:106EF00010BE84EF37F010500AE1040E0F5CD8A0EA
:106F000084EF37F087EF37F0FFFF53EF37F0FFFFE5
:106F100001C0D9FF02C0DAFF03C0DEFF04C0DDFFFD
:106F200020EE02F00150D9260250DA2205C0DEFF21
:106F300006C0DDFF20EE04F00150D9260250DA220F
:106F400007C0DEFF08C0DDFF1200FFFFFFFFBD0E20
:106F5000316E370E326E860E336E350E346EEDC0E6
:106F60002DF0EEC02EF0EFC02FF0F0C030F093EC1B
:106F700010F02DC04AF02EC04BF02FC04CF030C0A6
:106F80004DF06F0E466E120E476E830E486E3A0E2F
:106F9000496EE5EC12F046C0CAF047C0CBF048C0DD
:106FA000CCF049C0CDF0B8EC3CF0CAC0DAF0CBC0B0
:106FB000DBF0DAC0DCF00001DCA1E1EF37F0E4EF58
:106FC00037F0FFFFE8EF37F0FFFFBD88EAEF37F05B
:106FD000FFFFBD98FFFFDCA3F0EF37F0F3EF37F0D2
:106FE000FFFFF7EF37F0FFFFBD8AF9EF37F0FFFF44
:106FF000BD9AFFFFDAC0D8F0DBC0D9F0D890D93302
:10700000D833D890D933D833D851BE6E1200FFFF91
:10701000FFFF000ECA6E000ECC6ECA84CA80CA8200
:10702000000E636E000E646E800E656EBF0E666E9F
:10703000BD0E316E370E326E860E336E360E346EE6
:10704000EDC02DF0EEC02EF0EFC02FF0F0C030F00C
:1070500093EC10F02DC04AF02EC04BF02FC04CF036
:1070600030C04DF00A0E466ED70E476EA30E486E26
:107070003C0E496EE5EC12F046C05FF047C060F090
:1070800048C061F049C062F0BFEC0DF05FC0D4F0C1
:1070900060C0D5F061C0D6F062C0D7F0000E316E8E
:1070A000000E326E800E336E400E346ED4C02DF062
:1070B000D5C02EF0D6C02FF0D7C030F093EC10F032
:1070C0002DC0CAF02EC0CBF02FC0CCF030C0CDF018
:1070D000B8EC3CF00001CA51CB6E1200FFFFFFFF7D
:1070E00020EE04F00150D9260250DA22DECF03F060
:1070F000DDCF04F001C0D9FF02C0DAFFDECF05F01A
:10710000DDCF06F0035005260450062201C0D9FF4A
:1071100002C0DAFF05C0DEFF06C0DDFF20EE02F090
:107120000150D9260250DA22DECF03F0DDCF04F081
:10713000010E0326000E042220EE02F00150D92693
:107140000250DA2203C0DEFF04C0DDFF01C0D9FF18
:1071500002C0DAFFDE2806E1DE28D8A4B2EF38F05C
:10716000B5EF38F0FFFFC0EF38F0FFFF01C0D9FFE7
:1071700002C0DAFF030EDE6E000EDD6ED9EF38F0CE
:10718000FFFF01C0D9FF02C0DAFF040EDE18DE10D7
:10719000D8A4CDEF38F0D0EF38F0FFFFD9EF38F0BA
:1071A000FFFF01C0D9FF02C0DAFF000EDE6E000E45
:1071B000DD6EFFFF1200FFFFFFFF000E1A6E050ECF
:1071C000196E3F0E0001D625136E000ED721146EE6
:1071D0008FEC34F013C017F014C018F0A3EC3AF0A1
:1071E00017C01FF018C020F0000E20BEFF0E216E49
:1071F000226E010E4EEC1CF01FC0D8F020C0D9F05A
:1072000021C0DAF022C0DBF0D8C001F0D9C002F012
:10721000DAC003F0DBC004F0000E056E000E066E4F
:10722000400E076E410E086E24EC3CF0D8A01BEF18
:1072300039F01EEF39F0FFFF41EF39F0FFFF000E8C
:10724000016E000E026E500E036E410E046ED8C029
:1072500005F0D9C006F0DAC007F0DBC008F024EC76
:107260003CF0D8A036EF39F039EF39F0FFFF41EFAD
:1072700039F0FFFF000E0001D76F010ED66F47EF08
:1072800039F0FFFF000E0001D76F000ED66FFFFF31
:107290001200FFFFFFFF03500410D8B452EF39F083
:1072A00055EF39F0FFFF60EF39F0FFFF0350041096
:1072B000D8A45DEF39F060EF39F0FFFF66EF39F0E9
:1072C000FFFF015078EC32F0B8EF39F0FFFF20EE0D
:1072D00004F00350D9260450DA22DE50DE10D8B470
:1072E00074EF39F077EF39F0FFFF94EF39F0FFFFDB
:1072F00020EE04F00350D9260450DA2210EE02F0FA
:107300000350E1260450E222DE50E65CE650800A9B
:10731000096EDE50800A0958D8B091EF39F094EF29
:1073200039F0FFFFB8EF39F0FFFF20EE02F0035015
:10733000D9260450DA22DECF05F0DDCF06F003C0F7
:10734000D9FF04C0DAFFDECF07F0DDCF08F005502B
:107350000724D96E06500820DA6E01C0DFFF20EE48
:1073600002F00350D9260450DA22DE2A000EDD2274
:10737000FFFF1200FFFFFFFF00018AA1C2EF39F0FB
:10738000C5EF39F0FFFFD0EF39F0FFFF13C00AF06F
:1073900014C00BF011C00CF012C00DF0B5EC34F0BD
:1073A000FFFF16BED6EF39F0D9EF39F0FFFFE0EF5F
:1073B00039F0FFFF15C01AF016C01BF0E5EF39F0E9
:1073C000FFFF000E1B6E000E1A6EFFFF000E196EFF
:1073D000000E186EF9EF39F0FFFF000E026E200E5E
:1073E000016E11C003F012C004F04AEC39F0184AE3
:1073F000192AFFFF1A50185C1950800A176E1B508B
:10740000800A1758D8A007EF3AF00AEF3AF0FFFFCA
:10741000ECEF39F0FFFF00018AB111EF3AF014EF01
:107420003AF0FFFF1FEF3AF0FFFF13C00AF014C05D
:107430000BF011C00CF012C00DF0B5EC34F0FFFFF2
:1074400013C001F014C002F0DDEC34F01A50012436
:10745000116E1B500220126E1200FFFFFFFF095039
:107460000A100B100C100D100E100F101010D8B4C5
:107470003CEF3AF03FEF3AF0FFFF90EF3AF0FFFFBA
:10748000010E116E4FEF3AF0FFFFD89009360A3621
:107490000B360C360D360E360F361036112AFFFF1E
:1074A00010AE55EF3AF058EF3AF0FFFF44EF3AF0E4
:1074B000FFFFFFFF0950015C0A5002580B500358B0
:1074C0000C5004580D5005580E5006580F500758D0
:1074D00010500858D8A06FEF3AF072EF3AF0FFFF63
:1074E00083EF3AF0FFFF0950015E0A50025A0B5039
:1074F000035A0C50045A0D50055A0E50065A0F509C
:10750000075A1050085AFFFFD89010320F320E322F
:107510000D320C320B320A320932112E59EF3AF089
:10752000FFFF01C001F002C002F003C003F004C07D
:1075300004F005C005F006C006F007C007F008C05B
:1075400008F01200FFFFFFFF000E1C6E1ABEAEEF28
:107550003AF0ABEF3AF0FFFFB5EF3AF0FFFF196CEE
:107560001A1ED8B01A2A010E1C6EFFFF18BEBEEFFD
:107570003AF0BBEF3AF0FFFFC5EF3AF0FFFF176CB0
:10758000181ED8B0182A010E1C1AFFFF000E1E6E1E
:10759000000E1D6E19501A10D8B4D1EF3AF0D4EF86
:1075A0003AF0FFFF05EF3BF0FFFF010E1B6EDEEF31
:1075B0003AF0FFFFD89019361A361B2AFFFF1AAE91
:1075C000E4EF3AF0E7EF3AF0FFFFD9EF3AF0FFFFD0
:1075D000FFFFD8901D361E361950175C1A501858E8
:1075E000D8A0F5EF3AF0F8EF3AF0FFFFFEEF3AF0EF
:1075F000FFFF1950175E1A50185A1D80FFFFD890D0
:107600001A3219321B2EE8EF3AF0FFFF1C50D8B4A3
:107610000CEF3BF00FEF3BF0FFFF14EF3BF0FFFFF1
:107620001D6C1E1ED8B01E2AFFFF1DC017F01EC005
:1076300018F01200FFFFFFFF01C008F002C009F0C0
:1076400003C00AF004C00BF00506D8A00606052802
:1076500006E10628D8A42FEF3BF032EF3BF0FFFF06
:1076600041EF3BF0FFFF000E026E000E016E9CEF3B
:107670003BF0FFFF084A092A0A4A0B2A0506D8A050
:107680000606FFFF08C0F6FF09C0F7FF0800FFFF6E
:10769000F5500009D8B44FEF3BF052EF3BF0FFFF3D
:1076A00087EF3BF0FFFF0AC0F6FF0BC0F7FF0800B3
:1076B000FFFFF5500009D8B460EF3BF063EF3BF0FB
:1076C000FFFF87EF3BF0FFFF05500610D8B46BEFCC
:1076D0003BF06EEF3BF0FFFF87EF3BF0FFFF08C092
:1076E000F6FF09C0F7FF0800FFFFF5CF07F00AC05B
:1076F000F6FF0BC0F7FF0800FFFFF5500718D8B4DE
:1077000084EF3BF087EF3BF0FFFF39EF3BF0FFFFEB
:1077100008C0F6FF09C0F7FF0800FFFFF5CF07F02C
:107720000AC0F6FF0BC0F7FF0800FFFFF550075C2B
:10773000016E026AD8A00206FFFF1200FFFFFFFFE2
:1077400020EE11F0070EDE6AE806FDE209500A108D
:107750000B100C100D100E100F101010D8B4B3EF4A
:107760003BF0B6EF3BF0FFFF11EF3CF0FFFF010EE7
:10777000196EC6EF3BF0FFFFD89009360A360B367C
:107780000C360D360E360F361036192AFFFF10AEA6
:10779000CCEF3BF0CFEF3BF0FFFFBBEF3BF0FFFF49
:1077A000FFFFD890113612361336143615361636BA
:1077B000173618360950015C0A5002580B5003580E
:1077C0000C5004580D5005580E5006580F500758CD
:1077D00010500858D8A0EFEF3BF0F2EF3BF0FFFF5E
:1077E00004EF3CF0FFFF0950015E0A50025A0B50B3
:1077F000035A0C50045A0D50055A0E50065A0F5099
:10780000075A1050085A1180FFFFD89010320F32DB
:107810000E320D320C320B320A320932192ED0EFF1
:107820003BF0FFFF11C001F012C002F013C003F0E3
:1078300014C004F015C005F016C006F017C007F01C
:1078400018C008F01200FFFFFFFF000E0114096EC0
:10785000000E02140A6E800E03140B6E7F0E0414C9
:107860000C6E09500A100B100C10D8A43AEF3CF023
:107870003DEF3CF0FFFF46EF3CF0FFFF000E016ED6
:10788000000E026E000E036E000E046EFFFF000E6F
:107890000514096E000E06140A6E800E07140B6E96
:1078A0007F0E08140C6E09500A100B100C10D8A48F
:1078B0005CEF3CF05FEF3CF0FFFF68EF3CF0FFFF58
:1078C000000E056E000E066E000E076E000E086EAE
:1078D000FFFF04AE6EEF3CF071EF3CF0FFFF7BEF7B
:1078E0003CF0FFFF016C021ED8B0022A031ED8B084
:1078F000032A800E0456FFFF08AE81EF3CF084EFB0
:107900003CF0FFFF8EEF3CF0FFFF056C061ED8B089
:10791000062A071ED8B0072A800E0856FFFF000E61
:10792000011A000E021A000E031A800E041A000E2D
:10793000051A000E061A000E071A800E081A0550C6
:10794000015C065002580750035808500458D8B03C
:10795000ACEF3CF0AFEF3CF0FFFFB3EF3CF0FFFFCC
:10796000D890B5EF3CF0FFFFD880FFFF1200FFFF7B
:10797000FFFF0001CC35CD35D36FD351D8A4C3EF71
:107980003CF0C6EF3CF0FFFFD2EF3CF0FFFFFFFF03
:10799000000ECA6F000ECB6F000ECC6F000ECD6FC5
:1079A00051EF3DF0FFFFCAC0CEF0CBC0CFF0CCC04E
:1079B000D0F0CDC0D1F0200EE4EF3CF0FFFFD89026
:1079C000D133D033CF33CE33FFFFE82EDEEF3CF0A0
:1079D000CE51D26FCC8FFF0ECA17FF0ECB17FF0E02
:1079E000CC17000ECD17960ED35FD3BFFDEF3CF042
:1079F000FAEF3CF0FFFF17EF3DF0FFFFD351800A95
:107A0000970FD8B006EF3DF009EF3DF0FFFF0CEF08
:107A10003DF0FFFFC7EF3CF0FFFFD890CD33CC33F4
:107A2000CB33CA33D33F0CEF3DF035EF3DF0FFFFD2
:107A30001F0ED3651EEF3DF021EF3DF0FFFF2BEF52
:107A40003DF0FFFFC7EF3CF0FFFFD890CA37CB37C0
:107A5000CC37CD37D307FFFFD351D8A432EF3DF059
:107A600035EF3DF0FFFF24EF3DF0FFFFD251D8B4DA
:107A70003CEF3DF03FEF3DF0FFFF48EF3DF0FFFFF3
:107A8000CD1FCC1FCB1FCA6D000ECB23CC23CD2323
:107A9000FFFFCAC0CAF0CBC0CBF0CCC0CCF0CDC089
:107AA000CDF0FFFF1200FFFFFFFF800E735CD8A038
:107AB0005CEF3DF05FEF3DF0FFFF69EF3DF0FFFF52
:107AC000000E00018D6F4B0E8C6F70687168EEEFC9
:107AD0003DF0FFFF70C0BCF071C0BDF073500AE113
:107AE000020E725CD8A077EF3DF07AEF3DF0FFFF19
:107AF00088EF3DF0FFFFFF0E72240001C06FFF0E04
:107B00007320C16F000EBF6F000EBE6F92EF3DF08D
:107B1000FFFF000E0001C16F010EC06F000EBF6FAE
:107B2000010EBE6FFFFFBC0E686E000E696E74C062
:107B30006AF075C06BF076C06CF077C06DF0D9EC70
:107B400035F068C0BAF069C0BBF072507310D8B499
:107B5000ACEF3DF0AFEF3DF0FFFFE9EF3DF0FFFF91
:107B60000001BBBFB6EF3DF0B9EF3DF0FFFFE9EF1D
:107B70003DF0FFFFFF0E786EFF0E796E72C07AF057
:107B800073C07BF078507A2679507B227A50BA5DA8
:107B90007B50BB59D8A0CFEF3DF0D2EF3DF0FFFFB7
:107BA000DBEF3DF0FFFFFF0E7224B86FFF0E732076
:107BB000B96FE0EF3DF0FFFFBAC0B8F0BBC0B9F05D
:107BC000FFFFB8517024D96EB9517120DA6E000EE2
:107BD000DF6EFFFFBAC070F0BBC071F0FFFF120094
:107BE000FFFFFFFF056E05500FEC33F00504D8A42E
:107BF000FCEF3DF0FFEF3DF0FFFF0AEF3EF0FFFF2F
:107C000003C0D9FF04C0DAFF010EDE6E000EDD6E88
:107C10008FEF3EF0FFFF020E0518D8A412EF3EF0E2
:107C200015EF3EF0FFFF20EF3EF0FFFF03C0D9FF4E
:107C300004C0DAFF030EDE6E000EDD6E8FEF3EF045
:107C4000FFFF040E0518D8A428EF3EF02BEF3EF0FE
:107C5000FFFF36EF3EF0FFFF03C0D9FF04C0DAFF9D
:107C6000040EDE6E000EDD6E8FEF3EF0FFFF080E9D
:107C70000518D8A43EEF3EF041EF3EF0FFFF4CEF79
:107C80003EF0FFFF03C0D9FF04C0DAFF070EDE6E2F
:107C9000000EDD6E8FEF3EF0FFFF100E0518D8A42A
:107CA00054EF3EF057EF3EF0FFFF62EF3EF0FFFF74
:107CB00003C0D9FF04C0DAFF020EDE6E000EDD6ED7
:107CC0008FEF3EF0FFFF400E0518D8A46AEF3EF09C
:107CD0006DEF3EF0FFFF78EF3EF0FFFF03C0D9FFEE
:107CE00004C0DAFF080EDE6E000EDD6E8FEF3EF090
:107CF000FFFF800E0518D8A480EF3EF083EF3EF022
:107D0000FFFF86EF3EF0FFFF8FEF3EF0FFFF03C067
:107D1000D9FF04C0DAFF000EDE6E000EDD6EFFFF3D
:107D20001200FFFFFFFF000E126E08BE9DEF3EF037
:107D30009AEF3EF0FFFFB0EF3EF0FFFF081E071E78
:107D4000061E051E041E031E021E016C000E0222EA
:107D5000032204220522062207220822010E126EA7
:107D6000FFFF10BEB9EF3EF0B6EF3EF0FFFFCAEFE7
:107D70003EF0FFFF101E0F1E0E1E0D1E0C1E0B1ED2
:107D80000A1E096C000E0A220B220C220D220E2262
:107D90000F221022FFFF09500A100B100C100D10BB
:107DA0000E100F101010D8B4D8EF3EF0DBEF3EF0FD
:107DB000FFFF2CEF3FF0FFFF010E116EEBEF3EF0E7
:107DC000FFFFD89009360A360B360C360D360E36C4
:107DD0000F361036112AFFFF10AEF1EF3EF0F4EF30
:107DE0003EF0FFFFE0EF3EF0FFFFFFFF0950015CB8
:107DF0000A5002580B5003580C5004580D500558A7
:107E00000E5006580F50075810500858D8A00BEFC6
:107E10003FF00EEF3FF0FFFF1FEF3FF0FFFF095075
:107E2000015E0A50025A0B50035A0C50045A0D506E
:107E3000055A0E50065A0F50075A1050085AFFFFA5
:107E4000D89010320F320E320D320C320B320A3211
:107E50000932112EF5EF3EF0FFFF1250D8B433EF88
:107E60003FF036EF3FF0FFFF47EF3FF0FFFF081E08
:107E7000071E061E051E041E031E021E016C000EB8
:107E80000222032204220522062207220822FFFFE3
:107E900001C001F002C002F003C003F004C004F00E
:107EA00005C005F006C006F007C007F008C008F0DE
:107EB0001200FFFF000000004B00001646BD378691
:107EC00035002474490024744A494E49545F504F88
:107ED000533A20746865207669616C20697320616B
:107EE000742074686520696E697420706F7369749A
:107EF000696F6E2C2070726F6365737320697320D5
:107F00007374617274696E67005049434B5F5550DA
:107F10003A20746865207669616C2068617320720C
:107F200065616368656420746865207069636B20AF
:107F300075702073746174696F6E0049444C453AE2
:107F40002077616974696E6720666F722020766998
:107F5000616C20746F20626520706C6163656420C1
:107F6000696E20696E697420706F73004F56454EBC
:107F70003A207265616368696E6720746865206382
:107F80006F72726563742074656D7065726174756B
:107F90007265004465766963652068617320626577
:107FA000656E207265736574004752415350494EA7
:107FB000470044494C5554494E47004D4F56454D96
